:0E0000000219FD02035BFFFFFFFFFF020080FD
:0B00130002036EFFFFFFFFFF0200B0C2
:03002B00020329A4
:03005B0002037D20
:030073000203483D
:10008000C0D075D01018B8CF0408208507B2858677
:100090008AD0D03253A4DFD285C2A98F8E7589AAA7
:1000A000C289C28B758A00D2A8D2AAC228D0D03207
:1000B000C2A8C28E85578BC0D075D008C0E0C0F0F2
:1000C000C2CAA9CCAACDD2CAC3E99558F9EA9559B2
:1000D0007049C3E9955A4043955A503FB8103C784F
:1000E00000A9567D00E2FEC39DC399402E99EC33D2
:1000F000FC08E2FDC39EC399402199EC33FC08E261
:10010000FEC39DC399401499EC33FC08E2FDC39EE5
:10011000C399400799EC33FC088002806AE2FEC371
:100120009DC399406299EB33FB08E2FDC39EC399DE
:10013000405599EB33FB08E2FEC39DC399404899B3
:10014000EB33FB08E2FDC39EC399403B99EB33FBC5
:1001500008E2FEC39DC399402E99EB33FB08E2FDF4
:10016000C39EC399402199EB33FB08E2FEC39DC3B4
:1001700099401499EB33FB08E2FDC39EC3994007F5
:1001800099EB33FB08801E0530E53070021530C353
:10019000E5309432400AD225755B00755C00611928
:1001A00075310A6119E2FEC39DC39940DA99EA33B9
:1001B000FA08E2FDC39EC39940CD99EA33FA08E2FA
:1001C000FEC39DC39940C099EA33FA08E2FDC39E7D
:1001D000C39940B399EA33FA08EBC46B6C6A3027D1
:1001E00001F4540F70A1C3EBF4FA9460FBECF454E7
:1001F0000F9400FC5018EA7C007B00600CC3135085
:1002000007B55B05055C8006E4F55B755C00302294
:100210001BC3EB94D0F5F0EC94074003ABF0FC303B
:100220002101B39226C3EB33FBEC33FCEB54F04CCF
:10023000C475F00584FAEC13FCEB132AFBEC3400D4
:10024000FC30E3047BFF7C07201C27301124EC707A
:100250000C798187F0C3EB95F05002ABF0E5376085
:0F0260001175F028A42BFBEC3400FC30E3047B79
:100270007C07EB54F84CC423F97007EB7004D225CB
:100280008005753200C225E53060021530C3E54CAB
:10029000FD954D4002AD4DC3ED995008ED75F00848
:1002A000A4FBACF08CF0EBA2F013A2F113F4F9EC88
:1002B0000303F45401FA30291CEBF4540324C0F86E
:1002C000E623F630E00FE92401F97009EA3400FA78
:1002D00030E1021A19C3E99408FBEA9400FC5005C6
:1002E000E4FBFC800DC3EB954FEC95504004AB4F05
:1002F000AC5089FB8AFC8BE98CEA75310A302719EE
:10030000302816758E017589A2D28543A420780005
:1003100085638AC28DD2A980097800758A00D2A827
:10032000D2AAD0F0D0E0D0D032C0E0C2CF053BD2CC
:1003300023E5317004D22580021531302507E532DE
:100340000460020532D0E032C2AF53E67F53917FA2
:100350007592FA7593FFC218D2AF32C0E0E58A8574
:10036000578BC0D075D008F208D0D0D0E032C2AAE6
:10037000D28EC2CA85CC5885CD59D2CA32327A00C3
:100380007901801E7A00790580187A00790A801236
:100390007A007964800C7A0079C880067A0079FA4C
:1003A0008000090A8009781874FFD5E0FDD8F9D9D2
:1003B000F5DAF3227A427B3580247A2D7B4D801E3C
:1003C0007A267B5C80187A197B8C80127A147BAF3A
:1003D000800C7A427B1E80067A2D7B2C8000E553B0
:1003E0007001227902E4C294D5E0FDD291D5E0FDFE
:1003F000C291D5E0FDD294D5E0FDE920E002D29291
:1004000030E002D290E553D5E0FDE920E002C2924F
:1004100030E002C2907496D5E0FDD9C9EA78C8D818
:10042000FED5E0F9DBBDC2942271B471BA71C0226D
:1004300071D871B42271C071BA71B422799987539D
:10044000B8010471B48017B8020471BA8010B803FF
:100450000471C08009B8040471C6800271CC799817
:10046000875322901A70E493F4601D7C3E901A74B6
:10047000E493A3FB6012E493FA600471DE8006EB60
:10048000F97A0071A2A3DCE82278A5E6F95403709A
:1004900000E9540C7000E954307000E954C0700059
:0F04A00022C292C291C290C295C294C29375D5E6
:1004B00022201E2E78FF201026E53A6022E54260B9
:1004C0001E74FF301102747F8542F084853AF0A4D7
:1004D000F8C5F0600278FFC3E8954E5002A84E8838
:1004E0004D22C3E54194E4E5429400E54D500314E8
:1004F0008001046002F54D22102301220566E566A5
:100500005403B4012CE551604F7552FFE5BE6048BD
:10051000E5BDC3955140417552C89404403A7552A7
:1005200096940440337552649404402C7552328082
:1005300027B4021EE5516020C3E54C955260194076
:1005400008E54C6013154C800FE54C046002054C27
:100550008006B4030375E89030243FE566541FB469
:100560000419E5BE700AE5BDC394EB5007E48004AE
:10057000E5BD2414F564756502801FB40808756430
:10058000887565088014B40C087564AA75650A80BE
:1005900009B410067564CC75650C2275410075426E
:1005A000F022C2AFC2CAA8CCA9CDAA3B30CF010A63
:1005B000D2CAD2AF201012C3E8953C883CF8E99526
:1005C0003D893DF9301E34C1AEAB3CAC3DAD3E88FB
:1005D0003C893D8A3EC3E89BE99CEA9D60087541E1
:1005E1007542FFC17DAE3FAF408B3F8C40C3E89E5B
:1005F100F8E99FF9AA41AB428011AA41AB42C3EB92
:100601009404404894044013201126C3EB13FDEADF
:1006110013FCC3ED13FDEC13FC804AEBC423FCEA8D
:10062100C423541F4CFC7D00C3E913F9E813F8807F
:1006310034EBC423FC541FFDEC54E0FCEAC4235406
:100641001F4CFCC3E913F9E813F88019EBC4FCEA69
:10065100C4540F4CFC7D00C3E913F9E813F8C3E956
:1006610013F9E813F8C3EA9CFAEB9DFBEA28F5417C
:10067100EB39F54250067541FF7542FFC3E54294DF
:10068100025002D21EE542C4FA540FFBEA54F0FABA
:10069100E541C4540F4AFAC3EA9402FAEB9400FB11
:1006A10040057048EA70457A017B00803FAA41AB62
:1006B10042EBC4FCEAC4540F4CFCC3EA9CFAEB9431
:1006C10000FBE80303543F2AFAEB3400FB8A418B19
:1006D10042C394024002C21EEBC4FE7B00EAC45432
:1006E1000F4EC39402FA400270027A0120280630AC
:1006F1001808120AB630180280FB85489285499382
:10070100D21843E6807892E6FFC3E49AF8E49BF9B5
:10071100201E7F3010047F038015C3E5389482408A
:100721000E0F941E40010FC3EF940640027F05E8AF
:10073100FAE9FBD3E913FDE813FC8C468D478848A1
:100741008949C3EF9403602BEF20E00CE82CF8E912
:100751003DF9ECFAEDFB800BE8D338F8E939F97A89
:100762007BFFC3EF9403400A8A4A8B4B8844894536
:100772008050884A894B8A448B45301045754AF02F
:10078200754BFF7546F07547FF7548F07549FF8058
:1007920031E8FAD313FC8C468848C3EF9403601EF9
:1007A200EF20E007E82CF8ECFA8007E8282401F8AB
:1007B2007AFFC3EF940340068A4A88448004884A39
:1007C2008A44202806301808120AB630180280FB24
:1007D200753502D21843E680301134A841A942C3CC
:1007E200E913F9E813F8C3E913F9E813F830100430
:1007F200E92440F9C2AF53E67F759100C3E498F54E
:1008020094E499F595759104D21843E680D2AF220B
:1008120075F000301D0E75F040800975F040301DF6
:100822000375F000D2197543007A017B01201E1F67
:10083200301102C2193010067A1B7B1B80117B1407
:10084200E542C313700104FAC3941440027A1420DF
:100852001811E543600D301003D53504D21A8063B8
:100862001207D50543E59B5440B5F00DE53460B958
:100872002019B6DADAC21A804A20100B2019110A9E
:10088200C3EA9B40CA80A20AC3EA9B40011A80BF06
:10089200C21953E67F759100301E1175940075954B
:0F08A200F8759104D21843E68002082BE5427ED8
:1008B200C3334005C3334001FEC3E49E759400F583
:1008C2009580DEC2AF53E67F85449285459375914C
:1008D20000854A94854B95759104D21843E680D2DF
:1008E200AF201013301A1220110F201D0C201909ED
:1008F200158115810211A5053422E53875F007A48A
:1009020030190105F0A2F013A2F113A2F213F53887
:10091200C394785003753878C3E53895394009C2D5
:1009220092C291C29075D5FF20280530180751B6A2
:1009320030180280FB854692854793D21843E680A1
:100942002220120FC2AFC294D29575D5F6D2AF75DE
:100952009F2022C2AFC294D29375D5DBD2AF759FCE
:10096200202220120FC2AFC29075D5EDD295D2AF20
:10097200759F3022C2AFC29275D5EDD293D2AF75B8
:100982009F102220120FC2AFC295D29375D5EDD21D
:10099200AF759F1022C2AFC293D29575D5EDD2AF7B
:1009A200759F302220120FC2AFC29175D5DBD29350
:1009B200D2AF759F2022C2AFC29175D5F6D295D221
:1009C200AF759F202220120FC2AFC293D29475D569
:1009D200DBD2AF759F3022C2AFC295D29475D5F6E5
:1009E200D2AF759F102220120FC2AFC29275D5F6F8
:1009F200D294D2AF759F1022C2AFC29075D5DBD20E
:100A020094D2AF759F30227432A28540032085F7BD
:100A120050033085F2D5E0F3922722E55B70012284
:100A2200F8C39406500FC2AF1204A112043C120381
:100A320096D2AF8078C3E55C94064077B80704C2CB
:100A420021806AB80804D2218063B80904C22280D6
:100A52005CB80A04D2228055B80D0A756400756527
:100A62000ED2248048B80E0A7564FF75650EC22442
:100A7200803BB8140A7988E714A2E09221802EB84C
:100A8200150B7988E714A2E0B392218020B80C1DDF
:100A9200E4A22192E0A22292E1047988F77554A59A
:100AA2007555F1B11F755400755500D2AF755B00D5
:100AB200755C0022C0D075D010BE002DE565702295
:100AC200C2AF854126854227D2AFE526A23813F967
:100AD200A2391329F526E52703C2E7F903C2E7394C
:100AE200F5270E201803D0D022BE0124E565701030
:100AF200E527705DE526701175270F7526FF8009C1
:100B02008564268565277565000E201803D0D022DE
:100B1200BE0215E526C465266527F478D0A65D7168
:100B2200D00E201803D0D022BE030BE52671D00EC2
:100B3200201803D0D022BE040CE526C471D00E20AA
:100B42001803D0D022E52771D0087E00D0D0D22859
:100B52002220E71620E61D20E52720E43420E34189
:100B620020E25020E15CE526610BA23733F52675C1
:100B7200270F610BA23733A23633F52675270D6195
:100B82000BA23733A23633A23533F52675270B6114
:100B92000BE52654F0C23C4527C4F52675270961AA
:100BA2000BE526A23813A23913A23A13F5267527AC
:100BB20007610BE526A23813A23913F5267527051E
:100BC200610BE526A23813F526752703610B540F36
:100BD20023900BD77361F78101810E811F812981D7
:100BE200368140815481618175817C818D819781BB
:100BF200AE81B881CC08A65F08A65D08A65D220872
:100C0200A65D08A65E08A65D08A65D2286F0E55EE2
:100C1200B5F002E55FF608A65F08A65D2208A65DAC
:100C220008A65F08A65D2208A65E08A65D08A65D66
:100C320008A65D2208A65E08A65E08A65D2286F0CA
:100C4200E55EB5F002E55FF608A65D08A65E08A6B9
:100C52005D2208A65D08A65D08A65E08A65D22863E
:100C6200F0E55EB5F002E55FF608A65E08A65D084F
:100C7200A65D2208A65F08A65E2286F0E55EB5F0B4
:100C820002E55FF608A65E08A65E2208A65D08A633
:100C92005E08A65E2286F0E55EB5F002E55FF60824
:100CA200A65D08A65D08A65D08A65D2208A65E08E8
:100CB200A65D08A65E2286F0E55EB5F002E55FF667
:100CC20008A65D08A65D08A65E2208A65D08A65DC8
:100CD20008A65D08A65E22901A0D7820B15CE52078
:100CE200B4550AA3B15CE520B4AA0280127554A5DA
:100CF2007555F1B1E3B11F755400755500801D9013
:100D02001A0378807B0AB15CA308DBFA901A0F7889
:100D12008C7B1AB15CA308DBFA901A2922C2AFB10C
:100D22009FB1C1B17C901A007400B161A37412B179
:100D320061A374CCB161901A0378807B0AB160A37D
:100D420008DBFA901A0F788C7B1AB160A308DBFAE1
:100D5200B1B2B1D4B190901A2922E493F622E643BB
:100D62008F01538FFDFFC3E583941C400122EF8561
:100D720054B78555B7F0538FFE22438F02438F013C
:100D82008554B78555B7901A0DF0538FFC22901AEF
:100D92000D7455B161901A0E74AAB161227A30793C
:100DA200D07820901A40B15CE520F709A3DAF72247
:100DB2007A3079D0901A40E7B16109A3DAF9227A40
:100DC2008C79007820901A70B15CE520F309A3DADF
:100DD200F7227A8C7900901A70E3B16109A3DAF9EB
:100DE20022788076FF087633087601087601087645
:0F0DF200190876FF087609087618087601087642
:100E020008080876FF0876FF0876FF0876FF08765E
:100E13000876FF0876040876FF0876FF0876FF0851
:100E230076FF0876FF087628087650087604087659
:100E34000876020876FF0876FF0876FF087607082A
:100E440076FF0876FF0876FF087600087600227899
:100E540088E614A2E19222A2E0922178847450964A
:100E6400500276507886740D965002760D863A7844
:100E74009CE67539FFB402037539A0B403037539D0
:100E84008275510078A0E6F8600674282409D8FC1D
:100E9400F55178988653788DE623F95401F550E995
:100EA40054FEF54FB6FF03754FFF7883E624FF9297
:100EB4002978C07600087611087655087677227569
:0F0EC40054007555007597DE7597AD7581B04375
:100ED4008075EF0675A9001204A17580FF75F1F005
:100EE40075A4007580FF75D4FF75900075F23F7589
:100EF400A53F75900075D5FF75A60175E34075E2B1
:100F0400021204A1E4F8F6D8FDB1E391D9D153C299
:100F1400AF120390120463120489120390C2AF75D6
:100F240054007555001204A1780979007A003085BF
:100F34000CDAFBD9F9D8F7120430021C00302A0E5F
:100F440012042912039C12039C12039CC22A758862
:100F540051758E017589AA758C00758D0075C8044C
:100F640075910475D84075D90875F781759E077514
:100F7400960275DA4275DB42759B80759D0075D1CA
:100F84000C75BC5975BB1075E88075B20112037EEF
:100F9400510975E4D530270375E45DC228C2247570
:100FA400A82D75E68075B803D2AF7557C07556087D
:100FB400755AA0755DE9755EC8755FA77563E175BF
:100FC400300A120390E5306025758E0C75578075D4
:100FD4005610755A50755DF9755EE9755FD875637D
:100FE400E175300A120390E5306003020F21C0D08E
:100FF40075D010AF8ED0D0D22A753700C2AF12038D
:10100400D2D2AFC3E532940A40F9C2AF1203D8D2A8
:10101400AFE4F541F542F55BF55CF533F53BC3E52B
:101024003B945E4033753B000533789AE67814149C
:101034006012782814600D786414600878C814600D
:1010440003753300C3E53398400E15337804C2AFFB
:101054001204A112043CD2AF202806120AB61204CC
:10106400F830250CE5317003020F21120A1D80AE01
:101074001203902025A8C2AF1204A1D2AFE4F52236
:10108400F523F53812037E756500C2AF7984874E67
:10109400854E4C854E4D854E52D2AFA221921230D0
:1010A4002204A2269212D210D21175340075360C85
:1010B4001209C71209E812059B1205A212059B1218
:1010C40005A212059B12081D1208FC120943120501
:1010D400A21208121204B11208FC1209641205A229
:1010E40012081D1208FC1209851205A21208121218
:1010F40008FC1209A61205A212081D1208FC120906
:10110400C71205A21208121208FC1209E81205A25D
:101114001204F830113530101A854E4CC3E534945E
:0F11240018500530259F807EC210754CFF754D09
:101134007552FF201D15E53614600AF536302585F5
:101144002022828061C211D21C01C9753700D21BD2
:1011540030251320220C79A4E76007C3E5329403F9
:101164005044E5316040202209C3E54294F05036F2
:1011740001C9201D1220120520260580EC2026E935
:10118400D21D854E4C01F0854E4CC3E5429420405F
:101194000EC21DA2269212D211753612854E4C0132
:1011A400C9201B020537C2AFC2241204A175220054
:1011B400752300D2AF202517C3E5379404500612D7
:1011C400039002107AC2AF120435D2AF020FF27547
:1011D400370078A4E66006D295D294D29302101513
:0F19FD00020EC30012CCFF33010119FF091801BC
:091A0D0055AAFFFFFFFFFFFF04D3
:0E1A1B00285004FF01FFFFFF07FFFFFF000040
:101A400023495F4C5F313523202020202020202097
:101A500023424C48454C492445464D3842313023B9
:101A6000426C75656A61792020202020202020208A
:101A7000023A042034420D00452D0D0034420D0081
:0B1A80004E27D300452DD0193419006B
:101C0000C2AFC2D37597DE7597AD7581C075A90057
:101C100043FF80752438752503B1DB7529A5752A26
:101C2000F143F12053A4DFD28575D4FF75E3407DE5
:101C3000FA780379E67C10752200752300901DE880
:101C40007B0675249875250130850281482085081A
:101C5000D8FBD9F9DCF781BA308508D8FBD9F9DC93
:101C6000F781BAB19BE493A3C39A6004DDC381BA40
:101C7000DBDBB18D600281317B08E493FAA3B16EA6
:101C8000DBF87A30B16E752200752300B18DEAFC65
:101C9000EBFDC3ED94FE400EB18D8A278B28ED300D
:101CA000E0048A828B83B18D7AC270D8C3ED94FE32
:0F1CB000601950CEBD0029EC600F752000752122
:101CC000752900752A000200008100A827A92808AC
:101CD00009D804D90281DDB191EAF281D10D81A642
:101CE000C3ED94035051EDA2E092007AC5C3E582A2
:101CF0009400E583941C508C200010438F02438F86
:101D0000018529B7852AB7F0300027A827A9280818
:101D100009438F01538FFDD804D902A132C3E58353
:101D2000941C4003A3A117E28529B7852AB7F0A325
:101D3000A117538FFC81827AC1BD030CE493A3FAEF
:101D4000B152DCF8B14A81828184AA22AB23B16E00
:101D5000EBFAEA6222752608C3E52313F523E52290
:101D600013F52250066323A0632201D526EAB1DBD6
:101D7000B1DB75260AEAF4200102D285300102C2E5
:101D800085B1DBC3134002C201D526EB22B191EA33
:101D9000FB208502A191308502A196752608AE240C
:101DA000AF25C3EF13FFEE13FEB1DFB1DBC3EA13C0
:101DB0003085024480FA30E703632201C3E5231330
:101DC000F523E52213F52250066323A0632201D5F3
:101DD00026D9E52265236523F52222AE24AF250E00
:101DE0000FDEFEDFFCD20122424C48656C693437BD
:061DF0003164E8B10601B8
:00000001FF
