:020000040800F2
:10000000F8160020A1640008F1640008F3640008F9
:10001000F5640008F7640008F964000800000000B7
:10002000000000000000000000000000FB64000869
:10003000FD64000800000000FF6400085539000856
:1000400003650008036500080365000803650008F0
:1000500003650008036500080365000803650008E0
:1000600003650008036500080365000803650008D0
:100070000365000803650008B73B00080365000836
:1000800003650008036500080365000803650008B0
:1000900003650008036500080365000803650008A0
:1000A0000365000803650008036500080365000890
:1000B000AD400008036500080365000889370008A3
:1000C000673500088D3700088B3700080365000886
:1000D0000365000803650008F33D00080365000898
:1000E000036500080365000803650008DFF80CD00D
:1000F00006F07CFE0048004719120008F8160020A0
:1001000070B51546B0FBF5F60446A84203D3304659
:10011000FFF7F6FF014605FB1640F6A2105C0870DB
:10012000481C70BD70B50C46911E232900D30A22CD
:100130000025002804DA2D212170611C404200E0D6
:100140002146FFF7DDFF0570204670BD70B50546FE
:100150000C46086806F05DFA024621682868BDE88A
:10016000704006F05EBA10B5ECA003F0F9FD012076
:1001700000F057FDF0A003F0F3FD0A2003F01DFC92
:10018000BDE81040002003F0DCBC10B5EEA003F089
:10019000E7FD00F01BFDEFA003F0E2FD0A2003F0F5
:1001A0000CFCBDE81040002003F0CBBC10B50446A9
:1001B000ECA003F0D5FD2021F04806F0FFF9F0484F
:1001C00000210170EF4801702046BDE81040DCE7D7
:1001D0002DE9F047064606F01CFAC5B200F0E8FD2E
:1001E000DFF89C9307464FF0010809F14C0955B11F
:1001F0002A46E5A1304606F014FAE0B1307800272F
:100200002D2829D02CE0E2A003F0AAFD00244546C9
:100210004FEA090656F8240058B105FA04F13942AC
:1002200001D003F09DFD202003F08DFD641CE4B29D
:10023000F0E7C0A022E0DBA003F092FD00244D46D1
:1002400055F824000028F4D003F08AFD202003F0A4
:100250007AFD641CE4B2F3E70127761C6D1EEDB253
:100260005FF0000459F8241039B12A46304606F0F0
:10027000D8F938B1641CE4B2F4E7D0A0BDE8F04787
:1002800003F06EBD08FA04F01FB100F08CFDD2A09F
:1002900002E000F0BDFCD3A003F062FD59F8240099
:1002A00003F05EFDC5E770B50024D1A003F058FD52
:1002B000D54D00BF04EB440655F8260003F050FD71
:1002C000092003F040FD05EB8600406803F048FD7F
:1002D00098A003F045FD00BF03F017FD0028FBD0F8
:1002E000641CE4B20A2CE5D370BD3EB5054606F0A9
:1002F00090F9C0B208281DD10024285D06F01CF931
:100300002855641CE4B2082CF7D30024BF48295DAB
:1003100006F076F928B12819295D401C06F070F91D
:1003200008B1BBA01CE0641CE4B2082CEED3284644
:1003300000F0F0FBBEA003F013FDB44BC24A002056
:10034000694615181C5C95F85950401CC0B24C55B4
:100350000828F6D300220A54084603F001FD75A0D0
:1003600003F0FEFC3EBD2DE9F041804606F051F958
:10037000834DB54F10F0FF0605F1040511D032464C
:1003800081A1404606F04DF9A0B1002455F8241093
:1003900009B33246404606F044F908B3641CE4B29F
:1003A000F4E7AAA003F0DCFC787805EB800050F8B5
:1003B000040C1CE0A9A003F0D3FC002455F8240091
:1003C00038B103F0CDFC202003F0BDFC641CE4B286
:1003D000F4E758A000E0A6A0BDE8F04103F0C0BCDF
:1003E000601C7870A8A003F0BBFC55F8240003F053
:1003F000B7FCEEE71FB5014600200A79052A14D2A2
:10040000DFE802F003060A0D1100886800780CE0AE
:10041000886890F9000008E08868008805E088682E
:10042000B0F9000001E0886800680A226946FFF719
:1004300079FE684603F094FC1FBD2DE9F047814624
:1004400006F0E7F8704C10F0FF0F04F1780420D0AC
:1004500091A1484606F0BEF8002839D0401C06F0AD
:10046000F9F880465FF0000505EB850704EB870689
:1004700054F8270006F0CDF8024654F827104846F5
:1004800006F0CFF830B36D1CEDB22C2DECD383A069
:100490003EE18AA003F064FC5FF0000505EB8500F7
:1004A00004EB800654F8200003F05AFC89A003F006
:1004B00057FC3046FFF79EFF1EA003F051FC00BF23
:1004C00003F023FC0028FBD06D1CEDB22C2DE5D3EE
:1004D000BDE8F08705EB850104EB8100C368434567
:1004E00006DC0269424503DB3279052A01D2F3E0DA
:1004F0000DE101E13031323334353637383941429C
:10050000434445464748494A4B4C4D4E4F50515243
:10051000535455565758595A000000005265736598
:100520007474696E6720746F2064656661756C749D
:10053000732E2E2E0D0A00005265626F6F74696E65
:10054000672E2E2E00000000536176696E672E2EF6
:100550002E0000000D0A5265626F6F74696E672E7F
:100560002E2E00000D0A4C656176696E6720434CA3
:1005700049206D6F64652E2E2E0D0A00B4020020F6
:1005800000000020D60100206C6973740000000098
:10059000456E61626C656420666561747572657331
:1005A0003A200000417661696C61626C6520666585
:1005B0006174757265733A2000000000496E7661BF
:1005C0006C69642066656174757265206E616D6525
:1005D0002E2E2E0D0A00000044697361626C656462
:1005E00020000000456E61626C6564200000000020
:1005F000417661696C61626C6520636F6D6D616EDF
:1006000064733A0D0A0000000C770008F47A0008C1
:100610004D75737420626520616E79206F72646518
:1006200072206F662041455452313233340D0A0036
:1006300043757272656E742061737369676E6D6560
:100640006E743A2000000000D402002043757272DC
:10065000656E74206D697865723A20004176616933
:100660006C61626C65206D69786572733A20000078
:10067000496E76616C6964206D6978657220747961
:1006800070652E2E2E0D0A004D69786572207365F7
:100690007420746F200000003D0000004552523A63
:1006A00020556E6B6E6F776E207661726961626C39
:1006B00065206E616D650D0A000000004375727261
:1006C000656E742073657474696E67733A200D0AE1
:1006D00000000000203D2000DFE802F003030707D0
:1006E0000B00B26882F8008006E0B268A2F80080D1
:1006F00002E0B268C2F8008054F8210003F030FB39
:10070000A6A003F02DFB3046BDE8F04772E6A6A098
:10071000BDE8F04703F024BB2DE9FF41ACA003F096
:100720001FFB03F031F94FF47A71B0FBF1F00A22AC
:100730006946FFF7F7FC684603F012FBA8A003F038
:100740000FFBAC480A2269460078FFF7EBFC6846CD
:1007500003F006FBA8A003F003FBAA480A2269469F
:100760000078FFF7DFFC684603F0FAFAA6A003F072
:10077000F7FA00F00DFB0646A7A003F0F1FA0024FB
:10078000AA4F012557F8240058B105FA04F1314267
:1007900001D003F0E5FA202003F0D5FA641CE4B29E
:1007A000F0E7AFF2702003F0DBFAA1A003F0D8FA73
:1007B000A3480A2269460088FFF7B4FC684603F0A4
:1007C000CFFAA0A003F0CCFA03F061F80A22694640
:1007D000FFF7A8FC684603F0C3FAAFF2A82003F0C5
:1007E000BFFABDE8FF819BA003F0BABA2DE9FF5F15
:1007F000DFF8949299F8000038B9012189F80010C7
:10080000A2A003F0ADFA00F0C6F8DFF820A2DFF8EE
:10081000B4B2AAF1780A00BF03F06AFA00286FD0D8
:1008200003F07CFA092806D03F2804D09AF800107B
:100830005446B9B34EE0A44F002425469AF8006010
:1008400007F178080CE000BF9AF8002022B19D481B
:10085000396805F0E6FE10B904B93C463D460C3750
:100860004745F1D3A4B150465F46017822682B6812
:10087000525C5B5C9A420BD11AB17A54491C0170EC
:10088000F3E72022CBB2491C0BF803208AF80010B2
:100890009AF80000574608B1AC4210D08BA003F084
:1008A0005FFA07E014E0206803F05AFA092003F029
:1008B0004AFA0C34AC42F6D900F06DF800265C46DA
:1008C00038788642A8DAA05D03F03DFA761CF7E797
:1008D000042810D00C2814D019B10A2815D00D28DE
:1008E00013D07F283ED0202996D2202894D37E286A
:1008F00092D8B1B345E004B07248BDE8F05F55E46A
:1009000047E074A003F02CFA28E0AFF2D83003F0EF
:1009100027FA207800255E460BF800507048CDE994
:10092000000B0C230A226849029501A805F00AFE73
:10093000070007D0386805F06CFE3044B968401CE9
:10094000884702E067A003F00BFA20215D4805F01C
:1009500035FE257099F8000000281AD000F01BF829
:100960005AE70CE00029FBD0491ECAB200208AF8E1
:1009700000200BF8020064A003F0F2F94CE72028F5
:10098000EED00BF80100491C8AF8001003F0DBF9E7
:1009900042E7BDE8FF9F5DA003F0E2B920736574F4
:1009A00020746F20000000004552523A2056616CBE
:1009B00075652061737369676E6D656E74206F7500
:1009C00074206F662072616E67650D0A000000007A
:1009D00053797374656D20557074696D653A2000A4
:1009E000207365636F6E64732C20566F6C7461673F
:1009F000653A20000F010020202A20302E31562099
:100A000028000000A2010020532062617474657206
:100A100079290D0A000000004465746563746564FB
:100A20002073656E736F72733A20000078000020A7
:100A30004379636C652054696D653A2000000000BD
:100A4000100100202C20493243204572726F7273CE
:100A50003A2000004166726F333220434C492076C1
:100A6000657273696F6E20322E302D70726533207F
:100A70004170722020382032303132202F20323322
:100A80003A33313A33320000D60100200D0A456E68
:100A9000746572696E6720434C49204D6F64652C04
:100AA00020747970652027657869742720746F2019
:100AB00072657475726E2C206F72202768656C7079
:100AC000270D0A00B40200200C7700080D1B5B4BB9
:100AD000000000001B5B324A1B5B313B31480000C9
:100AE0004D0100084552523A20556E6B6E6F776E7D
:100AF00020636F6D6D616E642C207472792027689D
:100B0000656C702700000000082008000D0A2320F3
:100B1000000000002DE9F04105460446A64EA74F0F
:100B200009E0A54805F06CFD20B1611B801B38442D
:100B300080F85910641C21780029F2D1BDE8F081B9
:100B400070B598229E499D4805F01FFD9B499D4E1A
:100B5000002091F8212091F8204040F2E24500BFAA
:100B600000FB00F3193B534303F6C41343436343B1
:100B700093FBF5F326F81030401CC0B20728EFD3E2
:100B8000B1F876204FF47F734FF4FA609A4201D2A5
:100B90001A4602E0824200D90246A1F87620B1F856
:100BA00078209A4201D21A4602E0824200D90246D7
:100BB000A1F87820B1F87A209A4201D2184602E0D2
:100BC000824200D81046A1F87A0070BD70B505F0D9
:100BD00042FA342005F04DFC794D284605F076FAAE
:100BE00004280AD1754E00246019315905F00DFB17
:100BF000042802D1241D982CF6D305F038FAFFF70B
:100C00009FFFBDE87040012214210F2000F098BF23
:100C10006A494A6802434A60704768490020486050
:100C2000704770B566490A786749097808B98A42F9
:100C30007ED0624C03200025217060700220656028
:100C4000FFF7E6FF282020721E212174172222764A
:100C50006072617462765521A172A574A576102127
:100C6000E1720F21E1740722E27632266673657520
:100C700061772573257525775A21A1732D21A175DB
:100C80006422A277E07384F82010412084F82100C8
:100C900084F8225084F8235084F82450002021182E
:100CA000401C01F8405FC0B2CD720B28F7D304F1AD
:100CB00050044FF0040024F81E5C24F81C5C24F857
:100CC0002A5C24F8285C24F8265C04F81A0C4FF0FF
:100CD0002A0024F8180C3D4844F8140C4FF06E001C
:100CE000A0714FF02B00E0714FF02100207238A06E
:100CF000FFF710FF6574A574E57440F2DC50A08224
:100D000040F24C41E18240F26C71218340F27E411D
:100D1000618340F23A71A1834FF47A71E1834FF419
:100D2000C87121846684012184F82410E08400E0E5
:100D30001BE0208560854FF47F71A1854FF4FA6236
:100D4000E2850A2384F8303084F831306186A28647
:100D5000E08621876287A0874FF4165020644FF405
:100D6000E1306064BDE8704030E770BD1649496805
:100D7000014201D0012070470020704712494A68A3
:100D800002434A60704710494A6882434A6070478C
:100D90000D484068704709494968014201D0012067
:100DA00070470020704705494A6882434A6070478F
:100DB0000248406870470000F47A0008D40200201E
:100DC00000FC000800040020900000200314140020
:100DD000414554523132333400000000E74810B529
:100DE000008805F0FAFDE64905F099FC05F018FECB
:100DF000E449488010BD10B506F088F905F073FE8F
:100E0000E14AE24B05F001FD05F037FE00B210BDEE
:100E10002DE9F04706460C46D6E900708046486842
:100E2000B568414605F07BFC81463946206805F0EF
:100E300076FC494605F01BFC294605F06DFCB060C8
:100E40004146A06805F06BFC81462946206805F004
:100E500066FC494605F05DFC394605F008FC30604B
:100E60003946A06805F05BFC07462946606805F036
:100E700056FC394605F0FBFB414605F0F8FB706077
:100E8000BDE8F0872DE9F04F89B0002502F06AFD3A
:100E9000BC4C06466069301A05F0B5FDBC4ABD4B36
:100EA00005F0B3FC05F035FE02906661DFF8E892CC
:100EB000DFF8E88200260DF1180B04F1300A04F186
:100EC0003607B0482A3030F9160005F07DFD02994A
:100ED00005F025FC4BF8260099F8360010B305F014
:100EE0007CFD01464FF07E5005F04FFC04903AF92E
:100EF000160005F069FD049905F011FC03904FF010
:100F00007E51049805F008FC58F8261005F007FCFF
:100F1000039905F0ACFB48F8260006F0E1FA05F06D
:100F20007FFD01E03AF8160027F8160037F91600A1
:100F300000FB00550420FFF719FF761CF6B2032EC4
:100F4000BFD3642045438D4806A90088404395FBE4
:100F5000F0F692481838FFF75BFF0420FFF706FF12
:100F600020B18E4806A90C38FFF752FFB7F90000F0
:100F7000002800DC4042B4F9021088420CDAB7F9CC
:100F80000200002800DC4042884205DAB7F904007C
:100F9000002801DD012000E00020804D253E183DA5
:100FA00020709F2E02D310F0FF0F17D046467C4FC3
:100FB000DFF8F081002400BF55F82400394605F021
:100FC000AEFB56F8241005F052FB414605F0A7FB96
:100FD00045F82400641CE4B2032CEDD30420FFF791
:100FE000C5FE08B36D4EDFF89C810024DFF8B89190
:100FF000DFF8B8A10C3E08F13C0800BF38F9140036
:1010000005F0E2FC074656F82400494605F087FB48
:10101000394605F02CFB514605F081FB46F82400CB
:10102000641CE4B2032CE9D3A9682868FFF7E3FE47
:10103000544C0A342080D5E90101FFF7DCFE6080C2
:1010400009B0BDE8F08F2DE9FF5F0120FFF78EFEAC
:1010500018B101F09CFCFFF715FF01F0F8FC494CBA
:1010600000206F4614F12A0434F8101027F81010ED
:10107000401CC0B20328F7D302F074FC414E30612B
:1010800000F080FD02F06EFC316940F28A25401AC2
:10109000A84204D946490888401C088005E002F0AF
:1010A00061FC3169401AA842F9D301F0D0FCDFF8A5
:1010B000D4A00025B946A0460AF11E0A0DF1080B7E
:1010C0000327AAF1060400BF38F8151039F81500F7
:1010D000084400B22BF815003AF915200244521CBE
:1010E00092FBF7F200EBD07024F8152040102AF89C
:1010F00015000120FFF73AFE20B9224900203031C7
:1011000021F815006D1CEDB2032DDDD38020FFF713
:1011100042FE214A08B31B49891D087828B9D06BC3
:10112000020C0A70020A4A708870164D002024359D
:101130000A5C34F9106035F91070531E07FB036325
:101140005B1C93FBF2F224F8102025F81020401CC1
:10115000C0B20328ECD3BDE8FF9F50780128FAD134
:10116000B6F90410B4F90400012202EB410108446D
:1011700090FBF7F0A080B080EDE70000C0010020F8
:101180007593D83E980000203B597E90A9E7814096
:101190003DAF940F6BC7353ED4020020840300207E
:1011A00000009B4308BA523B000048435E06A33B45
:1011B0009A0100202DE9F0415D48007808B1022530
:1011C00000E0002503F092F8401B5A49C6B24FF4E4
:1011D000004008602C46584F07E000BFB7F86C107D
:1011E000204603F073F8641CE4B2B442F6D340F630
:1011F000B83002F0E2FB2C464FF47A7505E0294640
:10120000204603F063F8641CE4B2B442F7D3BDE8AF
:10121000F041042002F078BC1CB502F0D9FBFFF7C6
:101220008FFC0020FFF7FDFC434DD5F8940001F042
:1012300042FC0120FFF7A2FD00F08CF80120FFF72F
:10124000AAFD8DF801000820FFF7A5FD80F0010040
:101250008DF800003648007800B101208DF80200BA
:10126000B5F87000ADF80400B5F87200ADF80600EE
:10127000684602F0BEFF08B1FFF79CFFDFF8C080B0
:101280002C482E494FF40047C8F8001007602D4C39
:101290004FF48059C4F81090DFF898A00026AAF106
:1012A000080A00BFDAF8001081F40041CAF8001003
:1012B000E06880F48050E060192002F07EFB192085
:1012C00002F07BFB761CF6B20A2EEBD3C4F810902A
:1012D0001848001F076001F057FAFFF77FFD022052
:1012E000FFF759FD08B101F06CFA0820FFF753FD34
:1012F00028B102F054F81449C8F800100CE001209D
:10130000FFF749FD40B14FF40070FFF744FD18B1FD
:10131000D5F8900001F0DEFF02F024FB0B490860D5
:101320000B494FF4C870088000F03CFEFCE7000059
:10133000E900002014080140D4020020AF1E00087C
:101340003801002000100140C7330008340100209C
:10135000BE01002070B5F94E0125F94C70780428C3
:1013600005D0012803D0052801D0082800D16570D8
:101370002020FFF710FD18B94020FFF70CFD00B149
:101380006570707812280DD2DFE800F00C0F111193
:101390000D0913130B11131515150C0C0C1100204E
:1013A0000AE0257070BD022006E0032004E004205E
:1013B00002E0062000E00820207070BD70B5E04813
:1013C000407800281AD0DD4DDD4C687808340128BB
:1013D00007D0042805D02188002002F077FF61881B
:1013E00007E02189002002F071FF6878042805D108
:1013F0006189BDE87040012002F068BF70BD2DE931
:10140000F041CF4E0025707800B102250024CD4F69
:1014100008E000BF601937F81410C0B202F056FFA0
:10142000641CE4B230788442F4D3BDE8F081C44A4D
:101430000021C44B127803E023F81100491CC9B203
:101440009142F9D3DBE72DE9F04FBD48BE4D9BB08B
:101450000078032823D9BD48B5F90420B0F9040069
:101460004142002801DD034600E00B466FF06304B3
:10147000E31A9A4204DA002800DC0846221A0DE03A
:10148000002801DD034600E00B4664339A4205DD87
:10149000002801DD024600E00A466432AA80A7481F
:1014A0000322AA4C4678A848DFF898A2B0F90210A7
:1014B0008B0093FBF2F30C93B4F9064023440E9394
:1014C0004B005B4293FBF2F71797B0F9009004EBE7
:1014D000010C04EB0902B8181A90601AA4EB090376
:1014E000129058180390C9F1000000EBD0700890DA
:1014F00001EBD1774010149700EB670715974F4227
:1015000007EBD77700EB67000B90139709EBD970C7
:101510000D90149F401000EB67071197139FA2EBEB
:10152000010E00EB6700204406908448179FA3EB50
:10153000010B90F9740007EB0308122E30D2DFE89C
:1015400006F02F304C5E09FC82A1FB73C2E0FAF971
:101550002F2F2FF8AAF80020AAF80230B5F904506E
:101560004FF47F7300FB051202F2DC529A4201DA5B
:101570001A4604E04FF4FA64A24200DD2246704CA1
:1015800068430834401A00F2DC502281984201DAA4
:10159000184604E04FF4FA61884200DD0846608195
:1015A000EEE10E9AAAF80020AAF8028063491A9A7E
:1015B000AAF80420B1F87A20B5F9041000FB012044
:1015C0004FF47F71884203DB4FF4FA61884200DDFB
:1015D00008465B4908310881D2E1B5F9044000FBB7
:1015E00014C500FB0433AAF8005000FB0422AAF83B
:1015F0000230AAF80420129A00FB142011E0B5F979
:101600000430039C00FB031100FB1345AAF80050B3
:1016100000FB03B5AAF80250114400FB13E0AAF83E
:101620000410AAF80600ABE1B5F9042000FB12C3D0
:10163000AAF8003000FB02C0AAF802B0AAF8040021
:10164000AAF806E09CE1B5F904300C9900FB0344CC
:101650000C44AAF8004000FB1384AAF802401A9C2C
:1016600000FB1344AAF804400E9C00FB1344AAF8A4
:10167000064000FB0384AAF80840179C00FB0340C7
:1016800010441DE0B5F90420159900FB02435D18D4
:10169000AAF800500B9D2C4400FB1244AAF802400B
:1016A000119C2344AAF80430069B00FB1233AAF8CD
:1016B0000630129B00FB023300FB12C0AAF8083070
:1016C000AAF80A005CE1B5F90450159900FB05463B
:1016D0007718AAF800700B9F00FB15333E44AAF858
:1016E0000260119E344400FB1544AAF80440069C95
:1016F00000FB1544AAF8064000FB0520AAF80830B4
:10170000DEE7B5F90440039E00FB041700FB1466F6
:10171000AAF8006000FB04B6AAF80260D619AAF87D
:10172000046000FB14E6AAF806603B44AAF80830FF
:101730000EE090E054E017E0E5E0ABE0D4020020DA
:10174000E8000020900300207C010020820100209E
:1017500000FB14B3114400FB1411AAF80A3000FB7B
:1017600004E0AAF80C1038E0AB46C9EBC9050A261C
:1017700095FBF6FEA1EBC10595FBF6F8BBF904500D
:101780000EEB080700FB054B07EB0B04AAF8004023
:10179000A9EBC90494FBF6F7C1EBC10191FBF6F18B
:1017A000B8447E1808EB0B04AAF8024006EB0B04C1
:1017B0007144AAF804405944AAF80610129900FB93
:1017C0001511AAF8081000FB1531AAF80A1000FB41
:1017D00015C100FB1520AAF80C10AAF80E00CFE0E6
:1017E000B5F90480139D00FB08F606EB650515446A
:1017F000AAF80050089D04EB65056F1A00FB0875F8
:10180000AAF80250149D03EB650700FB0875AAF8BF
:1018100004500D9D06EB65056544AAF806500D9D24
:1018200004EB6504611A00FB1811AAF8081013995B
:1018300003EB610100FB1811AAF80A1008990CEBE0
:10184000610100FB1811AAF80C10149902EB610158
:1018500000FB1810C1E7B5F904104843414201EB01
:10186000D1710CEB6102AAF8002043000A2293FB1D
:10187000F2F404EB0B03AAF8023000EBD073400043
:10188000404290FBF2F20CEB6303AAF8043002EB47
:101890000E00C6E6A248A34A90F98010B2F90230C1
:1018A000B0F886405943A04BB3F902502C44CD17F1
:1018B00001EB157104EB2111B0F88240A14203DB6A
:1018C000B0F88440A14200DD2146984C218090F977
:1018D0008110B2F90020B3F900305143B0F88C20E8
:1018E0001A44CB1701EB137102EB2111B0F88820D9
:1018F000914201DA114604E0B0F88A00814200DD2D
:10190000014661803CE08A48AAF80040007870B146
:10191000884983484A88B0F864000988141A0B1A69
:1019200082491C44801A0C801844488006E07F4895
:1019300001EB0902A9EB0101028041807B49784A51
:10194000B1F90000B2F8763018444FF47F73984232
:1019500001DA184604E04FF4FA64A04200DD2046A4
:101960000880B1F90200B2F878201044984201DAF8
:10197000184604E04FF4FA62904200DD10464880B9
:101980002020FFF708FA6C4FF0B36548694A6430CD
:10199000418C938919440388C91A0CB263490C809D
:1019A000058DD289A0F164002A44A2EB030213B290
:1019B0004B80FA78B2B15B4E90F98020B6F90250B4
:1019C0006A43D51702EB157204EB22120A8090F9D4
:1019D0008120B6F900406243D41702EB147203EB86
:1019E00022124A80B1F90020B0F882309A4203DB1B
:1019F000B0F884309A4200DD1A460A80B1F902201C
:101A0000B0F888309A4200E008E001DA1A4604E0B3
:101A1000B0F88A00824200DD02464A804020FFF78B
:101A2000BAF9B8B1414C0125083CA07801280ED183
:101A3000E078B8B14FF47A76012819D001F0A4FF0C
:101A40006168401AB04202D90020E070A070387975
:101A500000B1A570354F0120083F5546BAF9006026
:101A600039781CE031494FF4FA608880E5700BE06A
:101A700001F08AFF6168401AB042E8D92B494FF45F
:101A80007F7088800220E07001F07EFF6060DEE7FA
:101A900035F91020B24200DD1646401CC0B2884223
:101AA000F6D3002435E01E4AB2F86C00B04205DAE5
:101AB00035F81410331AC91A25F8141035F9141012
:101AC000B2F86A30994201DA184602E0814200DC3D
:101AD000084625F8140017489046B0F90610B2F8E9
:101AE0006600814208DA1020FFF755F940B1B8F8D6
:101AF0006E0000BF25F814001048007818B106E009
:101B0000B8F86A00F6E7B8F86E0025F81400641C0F
:101B1000E4B238788442C6D31BB0BDE8F08F000031
:101B2000D4020020A200002082010020F00000204A
:101B3000040100208A0100200E040020050100207D
:101B40002DE9F0470646894617460025DFF814843C
:101B500014E000240BE000BFD8F80C1081F4805191
:101B6000C8F80C10484601F028FF641CE4B2B442E7
:101B7000F2D33C2001F021FF6D1CEDB2BD42E8D351
:101B8000BDE8F0872DE9F84FF74A002440F2DC5019
:101B9000B2F906C0F54D4FF4FA73844501DA6420BA
:101BA0000DE0F248BCF5FA6F90F8240004DAACF2CC
:101BB000DC51484390FBF3F0C0F16400C0B295F8EB
:101BC00061B095F862E0B5F8643081460021AA461C
:101BD000E54840F2E63630F91150E81A00F2F31207
:101BE000B24203D8002803DC581B01E04FF4FA701E
:101BF00080B2022933D0BBF1000F06D0834503D257
:101C0000A0EB0B0080B200E000206422B0FBF2F2F7
:101C1000D74E06EB420736F91280B7F90270A7EBF0
:101C200008066FF018077A4300EB820256436422DD
:101C300096FBF2F2CC4E4244083E26F811209AF868
:101C4000222042434FF4FA70B2FBF0F0C0F164007E
:101C5000C0B200FB09F06422B0FBF2F015E0BEF167
:101C6000000F06D0864503D2A0EB0E0080B200E044
:101C70000020BD4E083EB0809AF8232042434FF426
:101C8000FA70B2FBF0F0C0F164000AEB0108C0B2D8
:101C900098F8086064224643B6FBF2F6B24F623F02
:101CA0007E5498F818604643B6FBF2F0FA1C9D4249
:101CB000505406DA02F1570030F81120524220F851
:101CC0001120491CC9B2032982D30AF16A00A64E29
:101CD00042880188BAF86600A2EB0102ACEB00036F
:101CE00002FB03F2C0F5FA6092FBF0F0A6F10806E1
:101CF0000844A6F18205F080E878E8B39D48B5F97C
:101D00001C10B0F90000401A04F06CFE9A4A9B4B7C
:101D100004F07BFD00229A4B04F0E7FD04F0F9FE8D
:101D2000074605F01DFB8146384605F013FC80464A
:101D3000B6F9000004F048FE4146009004F0EFFCC4
:101D40000746B6F9020004F03FFE8346494604F018
:101D5000E6FC394604F08BFC04F062FE074641467F
:101D6000584604F0DCFC80464946009804F0D7FC55
:101D7000414604F0CEFC00E003E004F051FE308068
:101D800077800220FFF707F800264FF0010888B39C
:101D9000687A401CC0B20621B0FBF1F2687201FB08
:101DA0001200B8B902F00AF9E97A714A01F00703A2
:101DB000603A491C22F81300E972002032F8101032
:101DC000401C2144C0B28CB20828F7D3E00800F0D0
:101DD000E0FCE87366480E30807A08B107200BE01B
:101DE000E87BE98C884203D89AF85810814202D9DE
:101DF000AE722E7017E00420A872287840B1E96B0B
:101E0000286B01F57431903188420CD92E7009E0AD
:101E1000A97A5C48C840E96B0144286B814202D230
:101E200085F80080E8635848584F4E4C008818B138
:101E30000120FEF79BFF10B95548008820B1E068EB
:101E400080F48050E06008E039784FF48050012938
:101E500000D12061697901B16061296C286B8842E9
:101E600004D94C490978C9B187F8008000F025FEF3
:101E70001020FEF77BFF00280ED0696C286B88428B
:101E80000AD9297A012907D143490844686443489B
:101E9000016881F400410160BDE8F88F3E70E1689F
:101EA00081F48051E1603E4908442864DEE72E4A0F
:101EB000002110B58A3A51822C4C204490F85900E8
:101EC00002F00FFAA0F2EE2140F2DD52914201D36E
:101ED000B4F8640010BD2DE9F047234E00248A3E7B
:101EE000234F307BDFF88080401C503F3073A14689
:101EF00007F14005B16B20468847327B07EBC401F0
:101F000002F0030221F8120025F814905FF000009F
:101F100035F8143031F81020401C1A44C0B225F8AE
:101F200014200428F4D335F91400801CC11700EBE9
:101F30009170801025F8140038F914204146D21E03
:101F4000904202DA821C21F8142031F91420D21CAC
:101F5000904202DD801E28F81400641CE4B2082CB4
:101F6000C8D30DE6001001408A010020D4020020F1
:101F700000040020D4010020182D4454FB21094006
:101F80000080664080841E00BC010020BA01002051
:101F9000BE01002098000020F04902000C0801401A
:101FA00020A107002DE9F04F87B001F009FA08B130
:101FB000FFF791FFDFF8289401250024D9F83010AD
:101FC000D9F84C00814269D944F6206211440820B6
:101FD000C9F84C10FEF7DFFE08B9FFF77CFFDFF809
:101FE000008408F18A08B8F90600FE4FDFF8F8A36C
:101FF0004FF4C87BB7F8662090427DDAA8F1140050
:102000004E460480448084802E380480448099F8B1
:102010000D00401CC0B289F80D00B8F904109142BF
:1020200005DAB8F90210914201DA717931B1042070
:10203000FEF7B1FE88B3707930B130E0142802D1D8
:10204000EA49A1F800B0B9E0B8F90410B7F8662081
:102050004046914223DAB0F90220B7F868108A426C
:102060001DDDB8F90000884219DD707B142803D10A
:10207000308B10B134837583A0E0B08C28B1002080
:10208000B08420B10222012103E00120F8E70322FD
:102090000A210A20FFF754FD90E000E08BE197F859
:1020A000450010B997F8500068B19AF8050030B1B2
:1020B000B07920B1CE4875710088B0832EE0707978
:1020C000F8B174712AE0B8F90410B7F866204046F8
:1020D000914203DBB0F90030934202DA7279012AAF
:1020E00010D0B7F86820914203DCB0F9001091429B
:1020F00014DDB8F9020000E01AE090420EDA7079BF
:1021000028B10BE0707B142858D1747156E0B748A1
:10211000008818B9B7480078012801D074734DE0E1
:10212000707B14284AD1B24875710088B08345E0AD
:10213000B7F868304146984240DD99F80560484656
:102140008EBBB1F9046096420ADAB1F902C0944537
:1021500006DA417B14290ED1A74BA3F800B00AE0A0
:102160009E420CDDB1F90260964208DA417B1429E7
:1021700001D1A24A1570491C89F80D101EE0B1F971
:1021800002609E4202DDB88E801C03E0964203DAB4
:10219000B88E801EB8860CE0B8F90010994203DDB5
:1021A000788E801C04E009E0914205DA788E801E6A
:1021B0007886FEF70BFD01E089F80D400420FEF75C
:1021C000EAFD18B3B9F82420484632216AB14279B1
:1021D000012A0AD1B8F90620B7F866309A4204DD20
:1021E0009AF805200AB9C18284849AF808202AB195
:1021F000828C5AB98584A9F8161007E0018B29B1A1
:10220000417919B984840483A9F81A5074490020CB
:102210008A3140F21452B1F90830B1F90A60A3F2E0
:10222000155BA6F215510491DFF8B4C193420CF18D
:102230008A0C01DA012700E000274FF4C77AD34562
:1022400001D8012100E0002147EA410740F2A461E2
:10225000E0468B4202DD4FF0010C01E04FF0000C34
:1022600047EA8C07964202DA4FF0010C01E04FF08A
:10227000000C47EACC0C049F574501D8012700E029
:1022800000274CEA07178E4202DD4FF0010C01E0F7
:102290004FF0000C47EA4C1C524F07EB000E9EF823
:1022A00040701CEA070F3BD1B8F90C80904502DA68
:1022B0004FF0010C01E04FF0000CA8F21557574504
:1022C00001D8012700E000274CEA470C884501DDD2
:1022D000012700E000274CEA870C414F8A37B7F905
:1022E0000E70974202DA4FF0010801E04FF000084B
:1022F0004CEAC808A7F2155CD44502D84FF0010C8F
:1023000001E04FF0000C48EA0C1C8F4201DD012176
:1023100000E000219EF84B704CEA4111394201D097
:10232000012700E0002730490F54401CC0B20B28A1
:10233000FFF47AAF0F46387818B9B9F9120032288D
:102340000DDD0120FEF712FD48B199F8071041B9E3
:10235000234948310C804C8089F8075001E089F806
:102360000740787908B989F8065099F807104E4661
:102370004FF40040012909D0214908601020FEF7E0
:10238000F5FC90B1B87920B1757003E01C49091DC6
:10239000F3E77470F87938B1B07830B9B570306D52
:1023A000B065706DF06500E0B470387A08B13571D1
:1023B0000CE034710AE099F90E10D9B301293DD02F
:1023C00002293DD003293DD089F80E40FEF73BFE9F
:1023D00001F0C8FAC9F830004D46D9F8341011E0C0
:1023E00000010020D40200200E040020BE010020C5
:1023F000D4010020BA010020BC010020D20100203D
:1024000010080140411AA9F81010C9F83400102032
:10241000FEF7ACFCDFF840B300281BD000276A7839
:10242000A978384652EA010310D02B7A73B1012AF9
:1024300011D013E0FFE789F80E50C7E7022102E050
:10244000032100E0042189F80E10BFE7ABF800403B
:10245000ABF80240CFE0EF8BB5F91400DFF8FC8257
:10246000012902D12F8CB5F92200BD49B1F9001024
:10247000401A04F0B7FABB4ABB4B04F0C6F900227D
:10248000BA4B04F032FA04F044FBB94E05906FF0F9
:102490000901707F484304F097FA8246384604F0F9
:1024A0009CFA07460090059805F054F88146707B29
:1024B00004F093FA494604F032F9394604F02FF952
:1024C000414604F062F9514604F040FB707F05D2AA
:1024D0006FF00901484304F077FA30E000EB800028
:1024E000400004F07AFA8146059805F033F8074673
:1024F000707B04F072FA394604F011F9009904F087
:102500000EF9414604F041F9494604F029FB06D290
:10251000707F00EB8000400004F05FFA0FE0059848
:1025200005F018F80746707B04F057FA394604F0B6
:10253000F6F8009904F0F3F8414604F026F904F0A7
:102540006FFAABF80000707F6FF009015F464843F7
:1025500004F03AFA8246059804F002FF8146707B47
:1025600004F03BFA494604F0DAF8009904F0D7F891
:10257000414604F00AF9514604F0E8FA707F05D2AA
:102580006FF00901484304F01FFA31E000EB8000CE
:10259000400004F022FA8246059804F0E1FE8146EC
:1025A000707B04F01AFA494604F0B9F8009904F077
:1025B000B6F8C146414604F0E8F8514604F0D0FAB6
:1025C00006D2707F00EB8000400004F006FA0FE0B6
:1025D000059804F0C5FE8046707B04F0FEF9414684
:1025E00004F09DF8009904F09AF8494604F0CDF8FB
:1025F00004F016FA7880DFF8608195F8079008F10A
:102600000408DFF870A1002008F1060C08F10C0E98
:10261000B9F1010F3ED102283CD24F493BF91020BD
:10262000223131F91010C2EB4101534A914202DBD1
:102630005242914200DD1146504A4D4E642332F819
:102640001020B57F891A06EB4002528E11440AB25F
:10265000B17B514391FBF3F16B4209B203EB83036E
:102660008B4203DC05EB85038B4200DA19463A4DB9
:10267000183D35F910301A44414B9A4203DB5B4256
:102680009A4200DC13461AB225F81020B37D5A4353
:1026900012132DE03049304D22313AF9106031F9F2
:1026A0001010163501EB81021301314A17183A7ADE
:1026B00093FBF2F2921B35F9103012B21A44314BEF
:1026C0009A4202DB5B429A4200DD1A4606F520760A
:1026D00025F81020B6F5A06F01D925F8104035F97E
:1026E00010207D2392FBF3F23B7C5A43921112B2ED
:1026F000194B3AF91050383B50261B5C6B4393FB47
:10270000F6F3CB1A38F8101028F810503CF8106087
:102710003EF81070691A37442EF810600F442CF8F8
:1027200010100D493FB235391A44095C7943A2EBC8
:102730006111094A1C3222F81010401CC0B2032853
:10274000FFF466AFFEF77FFEFEF738FE07B0BDE888
:10275000F04FFEF754BE0000600100200000204151
:10276000D4010020182D4454FB210940008066400C
:10277000D4020020B00000200CFEFFFFA2000020C9
:10278000F0D8FFFF80C1FFFFB649A1F10C0001F0B6
:1027900069BB70B50546B44890F8560004F01DF9C1
:1027A0000446284604F019F9B04903F0B8FFB049CF
:1027B00003F0EBFF214603F0B2FF04F04AF980B2C8
:1027C00070BD70B500252C4601F0F8FB05440A20C9
:1027D00001F0F3F8641CE4B2202CF5D3C5F34F10DC
:1027E000FFF7D7FFA04A022192F8573003FB01F40C
:1027F000844203D8491CC9B20629F7D39D48017009
:1028000092F8580048439C49088070BD2DE9F05F5C
:10281000DFF868829A4E944CB8F80020002592B3F5
:10282000904900204FF4C87C3039624501D141F80D
:10283000205051F8203036F910703B4441F82030D8
:1028400026F8105004EB4003401CC0B2DD8403287E
:10285000EBD3012A12D1086890FBFCF0E0844868B1
:1028600090FBFCF020858868B8F8041090FBFCF021
:10287000401A60856586A586FEF7A8F9B8F80000BD
:10288000401EA8F800000420FEF785FA002870D04A
:10289000DFF8F0C1DFF8E491724FBCF8001009F1E5
:1028A0000A09243FA9F1040A322904D0F1B3002017
:1028B000322910D011E0E28CA9F80020228DA9F86D
:1028C0000220628DA9F80420628EAAF80020A28E50
:1028D000AAF80220EBE747F8205057F8202036F9F5
:1028E00010301A4447F8202026F8105004EB40021C
:1028F000401CC0B2D5840328DAD3E34601291AD19B
:102900006148624902220580012008800A210846A8
:10291000FFF716F9B9F80010E184B9F80210218523
:10292000B9F804006085BAF8001000E008E061869C
:10293000BAF80200A086BBF80010491EABF80010E0
:1029400053480188012914D105803968322091FB50
:10295000F0F1E184796891FBF0F12185B96891FB90
:10296000F0F1B8F80400081A60856586A586FEF7C0
:102970002DF93088E18C401A30807088218D401A02
:102980007080B088618D401AB080BDE8F09F10B5AE
:10299000344C3B480C3C61688847A16838488847FC
:1029A000BDE8104032E72DE9F047344F394E3A4C3C
:1029B000788848B3DFF8AC800025A9464FF4C87A80
:1029C000A8F118087988514501D148F8259058F8A0
:1029D000253034F915C00129634448F8253024F81E
:1029E000159026F8159008D193FBFAF026F81500FB
:1029F00001220F210A20FFF7A3F86D1CEDB2032D71
:102A0000E0D37888401E78801C4D002015F1100519
:102A100034F8101036F81020891A09B224F8101072
:102A200035F91020A2F54873994201DA1A4604E0FC
:102A300002F54872914200DC0A4624F8102025F87D
:102A40001020401CC0B20328E2D3BDE8F08710B5C7
:102A5000044C114861688847A1680F488847BDE861
:102A60001040A0E74C040020D40200203333534030
:102A700000F07F45A201002026010020BC010020BB
:102A8000C800002016010020A0010020180100202D
:102A90001A010020DA000020C200002010B5044610
:102AA000C0B201F050F9C4F30720BDE8104001F0B6
:102AB0004AB901F048B901F091B82DE9F05FFE483C
:102AC000007800287ED101F013F900287BD001F0B6
:102AD00025F9DFF8E8B3FA4FDFF8E893DFF8E8A369
:102AE000FA4DFB4EDFF8EC834F286DD06DDC2328C8
:102AF00068D045286AD04D2865D101F024F914200A
:102B000001F021F95FF0000439F91400FFF7C6FF66
:102B1000641CE4B2032CF7D30024D14639F9140025
:102B2000FFF7BCFF641CE4B2032CF7D3DFF8A893D3
:102B3000002400BF39F91400FFF7B0FF641CE4B2B1
:102B4000032CF7D3DBF800104FF00A0991FBF9F0E2
:102B500000B2FFF7A3FFB7F90000FFF79FFFDF4FB9
:102B6000002400BF37F91400FFF798FF641CE4B29B
:102B7000082CF7D35FF0000436F91400FFF78EFF3E
:102B8000641CE4B2082CF7D30024464636F914003E
:102B9000FFF784FF641CE4B2082CF7D30120FEF792
:102BA000E5F844000220FEF7E1F844EA800404203E
:102BB000FEF7DCF844EAC0041020FEF7D7F844EA38
:102BC000001004E0E0E022E1E2E09FE0D2E101F069
:102BD000BAF8C3480178C348007841EA4001C248C6
:102BE000007841EA8001C148007841EAC001C0484C
:102BF000007841EA0011BF48007841EA4010C0B2B5
:102C000001F0A1F8BC48008800B2FFF747FF00F0D0
:102C10003EFE00B2FFF742FF5FF0000435F91400FA
:102C2000FFF73CFF641CE4B2022CF7D3B34C60788E
:102C300001F089F800256619307A01F084F8307CBB
:102C400001F081F8307E01F07EF86D1CEDB2082DA8
:102C5000F1D314F8200F01F076F8607801F073F8E2
:102C6000A07801F070F8E07801F06DF82079A4F117
:102C7000200401F068F8A24E0025671917F8400FEC
:102C800001F061F8F87A715D40EAC110C0B201F05C
:102C90005AF86D1CEDB20B2DEFD39A48008800B2A4
:102CA000FFF7FCFE98480088B43000B2FFF7F6FE4C
:102CB0009648007801F047F89548007801F043F80D
:102CC0009448007801F03FF80020FFF7E7FE00206D
:102CD000FFF7E4FE9048007801F035F88F4801686E
:102CE00091FBF9F000B2FFF7D9FE8D48B0F9000072
:102CF000FFF7D4FE8B48B0F90000FFF7CFFE8A48FB
:102D0000B0F90000FFF7CAFE4D2024E152287CD024
:102D100053287BD057287AD10025784C01F00BF846
:102D20006619307201F007F8307401F004F86D1C78
:102D3000EDB23076082DF1D300F0FDFF04F8200F3E
:102D400000F0F9FF607000F0F6FFA07000F0F3FFF4
:102D5000E07000F0F0FF2071A4F120044FF00005B6
:102D600000F0E9FF661906F8400F00F0E4FF6D1C63
:102D7000EDB2F0720B2DF3D300F0DDFF00F0DBFFBE
:102D8000BDE8F05FFDF722BFBDE8F05FFDF72EBDA7
:102D90004F2000F0D8FF002439F91400FFF77EFE21
:102DA000641CE4B2032CF7D30024D14639F9140093
:102DB000FFF774FE641CE4B2032CF7D3DBF80000C9
:102DC00003F002FE594903F0AAFC03F029FE00B209
:102DD000FFF764FEB7F90000FFF760FE5FF0000444
:102DE00035F91400FFF75AFE641CE4B2022CF7D345
:102DF0005FF0000436F91400FFF750FE641CE4B2E3
:102E0000062CF7D30024454602E0A8E0ACE0AFE092
:102E100035F91400FFF742FE641CE4B2062CF3D32C
:102E20000120FDF7A3FF44000220FDF79FFF44EAC5
:102E300080040420FDF79AFF44EAC0041020FDF747
:102E400095FF44EA001000F07EFF254801782548F0
:102E5000007841EA40012448007841EA8001234893
:102E6000007841EAC0012248007841EA0011214877
:102E7000007841EA4010C0B200F065FF26480078B3
:102E800000F061FF142000F05EFF2148007800F0A0
:102E90005AFF1E48007800F056FF254C206800B20B
:102EA000FFF7FCFD20680014FFF7F8FD214C2068B7
:102EB00000B2FFF7F3FD3FE0D6010020E400002060
:102EC000D4010020CE000020B0000020A20000208D
:102ED000900300208A010020D4000020F000002090
:102EE000070100209D0100209C010020010100201D
:102EF000020100200501002010010020D402002062
:102F00000E0400201E01002014010020B501002045
:102F1000B40100209E0100200F010020E0000020ED
:102F2000A4010020A6010020A801002000002041EB
:102F3000500100205401002020680014FFF7AEFD6E
:102F40000E48008800B2FFF7A9FD0D48008800B2C6
:102F5000FFF7A4FD4F20BDE8F05F00F0F4BEBDE830
:102F6000F05F012000F0EDBD06494FF4C870088005
:102F7000BDE8F09F044901200870F9E7B601002080
:102F8000B8010020BC010020D20100202DE9F0474B
:102F90000546DDE908890E461F46501B03F014FD67
:102FA0000446284603F01EFDD34AD44B03F02DFC03
:102FB00003F0AFFD04F0D4F90546B81B03F004FD9F
:102FC000294603F0ACFB0546014603F0A8FB064684
:102FD0002146084603F0A3FB314603F048FB04F00A
:102FE0007FFB03F080FDC64AC64B03F00EFC03F0E6
:102FF00063FDA8F800002146284604F087F803F096
:1030000072FDC14AC14B03F000FC03F036FDA9F884
:103010000000BDE8F08770B5034600200246054673
:1030200015E02E2C05D1521CD2B2002912D0541812
:103030001D5500EB80009C5C4004000CA4F13006A0
:10304000092E02D83038204480B2521CD2B29C5C87
:10305000002CE6D170BD70B5017802464FF47A7449
:10306000002311B111460A2610E0002070BD8242F3
:1030700007D0303DEDB205FB0433B4FBF6F40D7020
:103080009BB2EDB22E2D00D10A46491C0D78002DC1
:10309000EDD1541E12F8025D247805EB8505303C15
:1030A00004EB4504A4F5F07442F21071A4B201FBE4
:1030B00004330624B3FBF4F30AE000BF01EB810103
:1030C00012F8014D4900303CE4B204FB01331470A6
:1030D0008242F3D1184670BD2DE9F04700268C4C92
:1030E0000546242817D02046DFF8288240782C2D6A
:1030F00015D02A2D13D021460D2DC97874D00A2D54
:1031000072D00F2803D208F80050401C60700029CC
:103110006BD000207DE726706670A670F9E708F88E
:10312000006020784FF0010928B12179012928D0C9
:10313000022961D06DE0267198F80000472868D117
:1031400098F80100502864D198F80200472802D06E
:1031500052280BD05DE098F80300472859D198F821
:103160000400412855D184F8049052E098F80300F7
:103170004D284ED198F8040043284AD102202071EE
:1031800047E0654F022814D003280BD0634F042872
:103190000FD0052811D0062816D007281DD00928E1
:1031A00024D036E098F8000053280AD031E0386087
:1031B0002FE05848FFF74FFFF9E798F8000057282D
:1031C00027D138684042F2E798F80000302801D94A
:1031D000012000E00020524904E000214D48FFF7A3
:1031E0001AFF5049087014E020E018E00021494817
:1031F000FFF711FF4C490BE007280AD10121454890
:10320000FFF709FF494948434949B0FBF1F04949F3
:1032100008802078401C207066702A2D03D0A0788A
:103220006840A07075E784F8039072E70029F9D030
:1032300098F8000000F057F8050198F8010000F038
:1032400052F82844A178C0B28842E670EAD12079C9
:103250000128E7D1DDE67CB5C0B2FFF73DFF0028CD
:103260002CD0354801220178012910D002702C4859
:103270000078012822D12B48007803281ED92F4B33
:1032800025482F4C1E7825492E4D1EB107E0002100
:103290000170ECE71A70026822600A682A602A4A04
:1032A0001278012A0BD0294B294ACDE900230B685B
:1032B00002682968D4F80000FFF768FE7CBD254B42
:1032C000254ACDE90023026824480B680168244898
:1032D0000068F1E710B5234900F04CFDBDE810404F
:1032E0001020FDF74BBD3038C0B2092801D9C01FEE
:1032F000C0B200F00F007047A92E72D8E76C873E6D
:10330000FC639ED1D3CBF13FF8C1631ADCA54C40DE
:10331000D701002058040020500100205401002053
:10332000B4010020B5010020B60100208CD90700AF
:10333000A0860100B80100209E01002008010020A5
:10334000AC010020B0010020020100201401002087
:103350001E01002022010020200100205C0100202D
:10336000580100205732000870B5374C0126054639
:10337000667000F0F7FAA168411AC4E9020141F24F
:103380008830814201D90020A0703049A0780D54C6
:103390000F2802D0401CA07070BD267070BD2C4854
:1033A000032190F86320284812B1C170072101E081
:1033B0000222C270017127494FF4E13000F0DABCFB
:1033C000214800787047F0B5DFF87CC01F4A9CF8B0
:1033D00000101C3AF9B19CF804509CF80340DFF847
:1033E0006CE003210EEB010616F8013CE34003F00C
:1033F0000F03072B08D21EF8017016F8016C2E403F
:1034000007EB062642F82360891CC9B21029E9D3CC
:1034100000218CF8001007280FD29CF8011061B130
:103420000B4991F863300C49085C52F820003BB11D
:103430004FF4777101EB500004E040F2DC50F0BD36
:1034400000F5777080B2F0BDDC010020840400201C
:10345000D402002069330008FD7A000830B587B037
:1034600005464FF44060ADF8140003208DF81600B7
:103470001C208DF8170005A9FC4802F0F4FCFC4C58
:10348000E56000F007FAE06801F0E4FA684601F050
:103490004CFB00224FF44071E06801F0ACFB0025CA
:1034A000ADF804504BF6FF70ADF806004FF48040C5
:1034B000ADF80C00EF4800900121E06801F043FBFB
:1034C0006946E06801F0D9FA4FF4A06000F0F4FF1B
:1034D00022208DF810008DF811508DF81250012027
:1034E0008DF8130004A800F0ECFF21208DF81000E7
:1034F0008DF8115004A800F0E4FF07B030BD70B59E
:10350000DB4CE068858A15F4E06F24D0018B002243
:103510004FF4806101F06FFBA8051CD4E0680188BE
:10352000890518D40188C9050CD50188C905FCD4C2
:10353000012101F030FBE06801888905FCD4FFF728
:103540008DFF08E0012101F026FB00224FF44071BD
:10355000E06801F050FBE068818A21F470618182AB
:103560000020E07070BDCAE72DE9F041C04CE06872
:10357000818A4FF00105C9B2CA074FF0000627D073
:10358000018821F400610180012101F00EFBA67089
:10359000207A20B1207860B96079FF2809D021799C
:1035A0000022E06801F034FB6079FF280FD0FF2093
:1035B000B8E02570A079022804D1E068018841F4C0
:1035C0000061018021790122E06801F021FBC9E05E
:1035D0008A074FF4806734D5BFF3508FA079012854
:1035E00010D1207A70B1207860B10021E06801F03C
:1035F000DCFABFF3508FE068018B012101F0CBFAB8
:1036000065701CE0E068008BBFF3508FA079022842
:103610000DD1207A58B1207848B10021E06801F03E
:10362000C4FA93E03946E06801F0E5FA9AE0A0793F
:10363000032804D1207A10B12078002874D1012207
:10364000F0E74A0753D56570227A89490978CAB3E9
:10365000C9B3A17902291FD9002101F0A6FAE068B7
:1036600001F0D3FA94F9022063699854521CA270B5
:103670000121E06801F08FFA6570E06801F0C5FA99
:1036800094F9021062695054491CA1700122394614
:10369000E06801F0B0FA25E0012101F07CFAE06871
:1036A00001F0B3FA94F9021062695054491CA170F8
:1036B000E06801F0AAFA94F9021062695054891C7A
:1036C000A1700FE000E000E009B9E17931B101211A
:1036D00001F061FAA078401CA07003E0012101F024
:1036E00050FA2570E0680188C905FCD43AE04A0622
:1036F0001BD501F08AFA94F9021062695054491CF2
:1037000048B2A070A179C01C814204D10022394680
:10371000E06801F070FAA17994F90200814221D1A8
:1037200000F10100A0701DE010E009061AD594F91F
:103730000220511C4BB20BD02569A95CA37001F08B
:1037400062FAA07994F9021088420BD1002269E74D
:10375000A370617901F057FA207A0028F6D1A07998
:103760000028F3D094F90210A079401C814209D1BD
:103770002670607828B100224FF44071E06801F0B3
:103780003AFAE670BDE8F081EEE6B8E6ECE67FB521
:10379000374C400047F23055207161710120E071D3
:1037A00000212172C4F810D0C4F814D06946A27167
:1037B000E070102A02D9002004B070BD002003E0A0
:1037C0001E5C0E54401CC0B29042F9D3E068818860
:1037D00089050ED40188C90505D401888905FCD462
:1037E000012101F0CEF901224FF44071E06801F0AF
:1037F00002FAE07810B16D1EFBD102E00DB101209C
:10380000DAE76089401C6081E068FFF727FED2E7B5
:1038100007B502AB0122FFF7BAFF0EBD70B5144C1D
:103820004FEA400047F23055207161710020E0718D
:103830000120207263612361A271E070E0688188D9
:1038400089050ED40188C90505D401888905FCD4F1
:10385000012101F096F901224FF44071E06801F076
:10386000CAF9E07840B16D1EFBD108E0000C0140C0
:10387000EC010020801A06000DB1012070BD6089A6
:10388000401C6081E068FFF7E9FD002070BD2F4813
:10389000408970472DE9F8434FF44067ADF8007058
:1038A0004FF003088DF802801420294C8DF8030096
:1038B0006946204602F0D7FA3946204602F040FB1E
:1038C0000025261502E00A2000F061F83146204666
:1038D00002F022FB0028F6D03146204602F032FBEF
:1038E0000A2000F054F83146204602F029FB0A2055
:1038F00000F04DF86D1CEDB2082DE7D34FF40065D4
:103900002946204602F01EFB0A2000F040F831460E
:10391000204602F017FB0A2000F039F83146204615
:1039200002F00EFB0A2000F032F82946204602F091
:1039300007FBADF800708DF802801C208DF80300A5
:103940006946204602F08FFABDE8F883EC010020BA
:10395000000C01407F4841687F4881604168491CF4
:103960004160704772B67B4843687B488168426813
:1039700062B6591A0068B1FBF0F002EB4201C1EBEC
:10398000C21100EBC100704773484068704770B5C2
:10399000704C00236168704D6268511A0B441146E7
:1039A0002A68B3FBF2F2824206D2801A2A68B3FB7D
:1039B000F2F602FB1633EFE770BD30B504464FF464
:1039C0007A7502E02846FFF7E2FF641EFAD230BDA6
:1039D0002DE9F043614B8BB001AC0FCB0FC4022734
:1039E00001211D2001F0C9FA0121C80201F0C5FA28
:1039F0000121084601F0CAFA0121022001F0C6FAAD
:103A00000121042001F0C2FA0121480201F0B5FAB7
:103A10000121880301F0B1FA0121880501F0B6FA0D
:103A20000121084601F0A0FA0121022001F09CFAD0
:103A300001F0D1FA4FF6FF70ADF8000000268DF8C6
:103A400003606946464802F00EFA6946454802F0AE
:103A50000AFADFF814916946484602F004FA012197
:103A6000424802F08EFA002401AD4FF0030800BF77
:103A700005EBC4008188ADF800108DF802808079D4
:103A80008DF8030055F83400694602F0ECF9641C27
:103A9000E4B2BC42ECD34FF48051C9F81010C80016
:103AA0002F491031086005A801F019FA304905982E
:103AB000B0FBF1F0284908602E48016841F08071A0
:103AC00001602448016841F0010101602A484FF477
:103AD0007A710068B0FBF1F0B0F1807F0CD220F079
:103AE0007F414FF0E020491E4161224AF021D93A3E
:103AF000117086610721016100F0DFF96420FFF792
:103B00005CFF0BB0BDE8F083154A4FF4004114325E
:103B10001160154DC9102961114E40F2DB110C36B0
:103B200000FB01F4306880F400403060E86880F405
:103B30008050E860A01EFFF740FF1920FFF73DFF0F
:103B4000F0E710B10E490D4808600A490D48F039F8
:103B500008607047001000E004020020047B0008A9
:103B600000080140000C014000100140000230003C
:103B700040420F00FCED00E088020020EFBEADDE09
:103B8000F04F00200400FA05A548A44A41685318E4
:103B9000A44A136583688B4203D9591A9164436020
:103BA00004E0C1F580719164002141609D480121CC
:103BB000443000F002BF10B54FF4005000F03BFF5E
:103BC00098480021443000F0F8FE9548001D03C8D5
:103BD000814202D0BDE81040D6E710BD2DE9F0418A
:103BE00092B004464FF40070ADF83C0003208DF80D
:103BF0003E0018208C4D8DF83F000FA9284602F09A
:103C000032F92815ADF83C0048208DF83F000FA987
:103C1000284602F028F90E208DF8400001218DF889
:103C200041108DF842108DF8431010A800F049FCA7
:103C30000B940024ADF834400C20DFF8F081ADF88F
:103C40003040ADF83600ADF83240ADF838400BA941
:103C5000404601F049FF734F5837384600F016FED2
:103C6000A81408F104050095CDE909047048CDE9D0
:103C7000010480260494CDE90564A8150390202052
:103C8000CDE907406946384600F06DFE012138460F
:103C900000F093FE01224021404601F0BFFF38466C
:103CA00000F0A0FE5E495F4F44370860384600F0E0
:103CB000EDFD1020029000950494CDE90564079471
:103CC00069463846089400F04EFE0122022138462B
:103CD00000F07EFE5348846401228021404601F0BA
:103CE0009DFF0121404601F077FF12B0BDE8F08151
:103CF0004C4810B5583000F075FE494909688842B3
:103D000001D0012010BD002010BD4548D0E90110B0
:103D1000814201D101207047002070474049444B47
:103D20000A68C2F58070185C521E0A6002D14FF416
:103D300080720A60704710B5FFF7DAFF0028FBD0E9
:103D4000BDE81040EAE7364A344B91685854491CA4
:103D5000C8B290603348406CC00700D114E7704788
:103D600010B5044602E0641CFFF7EDFF2078002840
:103D7000F9D110BD70B50D460646012186B0480444
:103D800001F004F926208DF8100001208DF81100B3
:103D900002218DF812108DF8130004A800F091FB99
:103DA0000820ADF8140004248DF8174005A91E481A
:103DB00002F059F80020ADF80800ADF80A40ADF85F
:103DC00004001C4CADF80600ADF80C0000966946E6
:103DD000204601F089FE012240F22551204601F0E3
:103DE00005FF0121204601F0F7FE0D48C56006B031
:103DF00070BD70B50F4D40F22551284601F0ADFF62
:103E000001280AD1064CE068002806D0284601F0B7
:103E10003DFFE168BDE87040084770BD9405002093
:103E2000100200200000024000080140003801405C
:103E30009404002000440040704762490A88520000
:103E400002804A88520042808988490081807047F8
:103E5000704770475B49CA8802800A894280498955
:103E600081807047594B584AC0E90023584B836002
:103E70005848C1E900205848886058494FF4BC7040
:103E80000880704770B505460C4613E00520FFF723
:103E900094FD284600F0C9FB284600F0CBFB002823
:103EA000FAD1284600F0CDFB284600F0CFFB0028D1
:103EB000FAD1641E002CE9DC70BD70B5484E90B09C
:103EC000304600F0E3FC474800903E4801A900243A
:103ED0000A2531C18020CDE90440400006908000D1
:103EE0000790202008900002CDE909046946304679
:103EF00000F039FD0121304600F05FFD01208DF812
:103F000030008DF831000B944FF46020CDE90D04A2
:103F1000344C8DF83C504C3C0BA9204600F040FB43
:103F2000032301220A21204600F0BAFB03230222C8
:103F30000B21204600F0B4FB03231A460C21204637
:103F400000F0AEFB032304220D21204600F0A8FB65
:103F5000032305220E21204600F0A2FB03230622A4
:103F60000F21204600F09CFB032307220521204659
:103F700000F096FB032308220621204600F090FB68
:103F8000032309220721204600F08AFB03230A228B
:103F90000521204600F084FB0121204600F032FB81
:103FA0000121204600F024FB02212046FFF76AFF92
:103FB0000121204600F051FB10B070BD0148408A3D
:103FC0007047000094060020513E0008553E00084E
:103FD000533E00083B3E0008393E0008C001002067
:103FE000080002404C2401402DE9F84F4FF0000B2F
:103FF000DFF86CA3DFF86C9380465E460AEBC600E0
:1040000009EBC605D0E900474046444548D1390C84
:10401000009101F02AFD012842D12046009901F0CB
:104020002FFD1EB9CE490120083988703F043F0C8E
:1040300006D0042F08D0082F14D00C2F08D115E07B
:10404000204601F0FBFC02E0204601F0F9FC83462B
:10405000287878B1A5F804B06888594683450FD907
:10406000081A11E0204601F0EDFCF0E7204601F0CF
:10407000EBFCECE70120A5F802B02870022106E075
:104080004FF6FF72101A0844E88000212970B548E5
:1040900040304180B34907802046403101F000FAAA
:1040A000761CF6B2082EA9D3BDE8F88FAC480838C4
:1040B00001784FF0804009B100F01CB994E72DE978
:1040C000F04F87B000240346DFF894B2A54D0126D7
:1040D00028210322A4481C270494009401940294EC
:1040E000ABF1080B4FF047084FF6FF794FF0804ACD
:1040F00040350394ABB3ADF810608DF813108DF814
:10410000122004A901F0AFFE8DF80C708DF80D405F
:104110008DF80E608DF80F6003A800F0D2F96846A4
:1041200001F086FAADF80080ADF80490ADF80240D9
:1041300069465746504601F00BF86C80AE80EC8023
:104140002C812C802946384601F0AAF9012202214F
:10415000384601F0A6FA0121384601F08DFA0A210D
:1041600042E0FFE71F23ADF810308DF813108DF8F3
:10417000122004A901F077FE8DF80C708DF80D4027
:104180008DF80E608DF80F6003A800F09AF968466C
:1041900001F04EFAADF80080ADF80490ADF80240A1
:1041A00069465746504600F0D3FF6C80AE80EC80E5
:1041B0002C816B4E002400BF06EBC4006949808847
:1041C000288056F83400403101F06AF9641CE4B2EA
:1041D000042CF1D301221E21384601F062FA01219C
:1041E000384601F049FA04218BF8011007B0BDE808
:1041F000F08F70B58AB00025594907950595069549
:104200000446049500950195029503950839407878
:104210000870544A294640F2DC5300BF02EBC10645
:10422000491CC9B2F3800829F8D3217809B1FFF7F6
:1042300046FF4FF47070ADF81C0018208DF81F0079
:1042400003208DF81E0007A9484801F00CFE04A8C1
:1042500001F0EEF94720ADF81000A0884449454C24
:10426000B1FBF0F0401EADF8140004A9204600F0A8
:104270006FFF7020ADF800000120ADF80200ADF82E
:1042800004504FF47A70ADF806000220ADF8080033
:10429000C001ADF80C006946204600F092FF694667
:1042A000204600F0C3FF6946204600F0F9FF69464A
:1042B000204601F02DF80121204601F0DDF9012111
:1042C000204601F0E3F90AB0002070BD244A083A04
:1042D0005278904204D2224A403252F820000180A3
:1042E0007047204901EBC000C08870471C4808385F
:1042F0004078704770B50546022101F0B6FB184CB6
:10430000083C012807D1A088E080284601F096FBF0
:10431000A0800120A0700221284601F0B1FBA088F6
:10432000E188884201D9401A03E04FF6FF72511A22
:10433000084480B2B0F57A6F01D900200EE0A0F2F7
:10434000EF2140F2DB52914206D2E178082903D2F4
:10435000044A02EBC101C880E078401CE07070BDE7
:1043600028020020A806002000080140000C01409F
:1043700040420F0000080040474810B5016841F076
:10438000010101604168454A114041600168444AA9
:1043900011400160016821F480210160416821F42D
:1043A000FE0141604FF41F01816000F030F83D498B
:1043B0004FF00060086010BD374A10B550683A49A8
:1043C00010F00C03394803D0042B01D0082B0BD07C
:1043D00001605168354AC1F30311121D515C026836
:1043E00022FA01F2026010BD5168536801F47011A5
:1043F0004FF0020413F4803F04EB914102D0536864
:104400009B0301D52A4B00E0274B5943E0E72248A4
:104410000021026842F4803202604FF4A063026817
:1044200001F1010112F4003F01D19942F7D1016875
:10443000890330D51F490A6842F010020A600A68F1
:1044400022F003020A600A6842F002020A60416830
:10445000416041684160416841F480614160416868
:1044600021F47C114160416841F4E8114160016828
:1044700041F08071016001688901FCD5416821F03B
:1044800003014160416841F0020141604168C1F3AC
:1044900081010229FAD17047001002400000FFF8A4
:1044A000FFFFF6FE08ED00E000127A00880200200F
:1044B00000093D00002002402749084327490860C1
:1044C000704770B50F21C478027801234FF0E026C1
:1044D000DCB1224C246804F4E064C4F5E064250AED
:1044E000C5F10404E9404578A54084780C402C438C
:1044F00021011B4C1155007800F01F018B40400931
:1045000006EB8000C0F8003170BD02F01F00834050
:10451000500906EB8000C0F8803170BD114A11408F
:1045200001430E48001F016070470C4A121D00290C
:10453000116801D0014300E08143116070474FF0E2
:10454000E0210428086903D020F0040008617047C6
:1045500040F00400FAE700000000FA050CED00E06E
:1045600000E400E080FFFF1FC24910B5884202D17D
:10457000012144150AE0C049884202D101210415F5
:1045800004E0BE4988420AD10121CC03204600F054
:1045900006FD2046BDE81040002100F000BD10BD22
:1045A00010B54268B64B0C791A400B6842EA0422F7
:1045B000134343608368B34A1340D1E90242224364
:1045C0004C7943EA44031A438260C26A097C22F4AC
:1045D0007002491EC9B242EA0151C16210BD0021F8
:1045E0000160017141718160C160012101747047F6
:1045F0000029816802D041F0010101E021F00101B0
:10460000816070470029816802D041F4807101E027
:1046100021F4807181607047002A4268C9B201D0DC
:104620000A4300E08A4342607047816841F0080114
:1046300081607047014600208968090700D5012084
:104640007047816841F00401816070470146002095
:104650008968490700D5012070470029816802D088
:1046600041F4A00101E021F4A001816070470146FE
:1046700000208968490200D5012070474268491E20
:1046800022F4604242EA41314160704700294168AA
:1046900002D041F4006101E021F400614160704703
:1046A00070B5072509290AD9C468A1F10A0606EBE5
:1046B0004606B540AC43B3401C43C46007E0046900
:1046C00001EB4106B540AC43B3401C4304611F23DA
:1046D000072A09D2446B521E02EB820293409C438C
:1046E00091400C43446370BD0D2A09D2046BD21F64
:1046F00002EB820293409C4391400C43046370BDE3
:10470000C46A0D3A02EB820293409C4391400C43F1
:10471000C46270BD0029816802D041F4801101E0BB
:1047200021F4801181607047C06C80B2704751489D
:104730004C30006870470029416802D041F4806124
:1047400001E021F48061416070470029416802D096
:1047500041F4805101E021F480514160704782684A
:1047600022F4E0420A43826070470029816802D047
:1047700041F4004101E021F40041816070470029CB
:10478000816802D041F4021101E021F4021181603C
:104790007047014600208968890200D501207047D2
:1047A00070B5072509290AD9C468A1F10A0606EBE4
:1047B0004606B540AC43B3401C43C46007E00469FF
:1047C00001EB4106B540AC43B3401C430461836B2D
:1047D000C3F30154121B921C02EB82041F22A2405D
:1047E0009343A1400B43836370BD826B491E22F447
:1047F000401242EA015181637047425070470844B9
:10480000806A80B2704742681F4B1A400A43426078
:104810007047416282627047426822F01F020A4379
:1048200042607047134908310028086802D040F4FC
:10483000000001E020F400000860704702460020FC
:1048400012680A4200D001207047C94301607047D6
:1048500010B5002244680B0AC9B200680C40184227
:1048600001D004B10122104610BD6FEA1121016090
:10487000704700000024014000280140003C014036
:10488000FFFEF0FFFDF7F1FFFFFD3FFF01684FF670
:10489000FE72114001600021016041608160C160D1
:1048A0006A496A4A0839904203D1486840F00F00CB
:1048B00006E0664A1432904204D1486840F0F000A5
:1048C00048607047614A2832904203D1486840F4FA
:1048D0007060F5E75D4A3C32904203D1486840F48D
:1048E0007040EDE7594A5032904203D1486840F495
:1048F0007020E5E7554A6432904203D1486840F49D
:104900007000DDE7514A7832904203D1486840F0A8
:104910007060D5E74E4A111F904203D1086840F0FD
:104920000F0006E04A4A1432904204D1086840F071
:10493000F00008607047464A2832904203D1086868
:1049400040F47060F5E7424A3C32904203D1086877
:1049500040F47040EDE73E4A50329042EAD1086898
:1049600040F47020E5E730B5036847F6F0729343F2
:104970000C6A8A682243D1E904452C4322438C699E
:104980002243CC6922434C6A22438C6A22431A4355
:104990000260CA6842600A6882604968C16030BDCE
:1049A0000021016041608160C160016141618161FC
:1049B000C16101624162816270470029016802D0D1
:1049C00041F0010102E04FF6FE72114001607047B4
:1049D000002A026801D00A4300E08A43026070475F
:1049E00041607047406880B2704701460020CA00AD
:1049F00002D5174A083A01E0144A083A12680A42F6
:104A000000D001207047C10003D51149091F08607B
:104A100070470E4908394860704701460020CA00B7
:104A200002D50B4A083A01E0084A083A12680A42DD
:104A300000D001207047C10003D50549091F086057
:104A4000704702490839486070470000080002407A
:104A500008040240C04910B588424FF0010101D15D
:104A60004C0501E04FF48004204600F0A1FA2046F6
:104A7000BDE81040002100F09BBA70B50446808864
:104A800086B00D4620F03F06684600F028FAB3498C
:104A90000298B0FBF1F189B20E43A680228822F081
:104AA00001022280AE4B2A689A421CD85200B0FB09
:104AB000F2F080B2042800D20420491C2184A08393
:104AC000208840F00100208021884FF6F530014019
:104AD000A8886A89104308432080A8892989084347
:104AE000208106B070BDEB88A3F53F46FF3E05D19F
:104AF00002EB4202B0FBF2F080B208E002EBC2032C
:104B000003EB0212B0FBF2F080B240F480400205E9
:104B100001D140F001004FF4967251434FF47A7284
:104B2000B1FBF2F140F40040C7E741F28831016087
:104B3000002181804BF6FF72C280018141814FF4D8
:104B40008041818170470029018802D041F0010134
:104B500001E021F00101018070470029818802D025
:104B600041F4006101E021F4006181807047002977
:104B7000818802D041F4805101E021F4805181808C
:104B800070470029018802D041F4807101E021F4CE
:104B90008071018070470029018802D041F40071C2
:104BA00001E021F40071018070470029018802D0E2
:104BB00041F4806101E021F48061018070478289C5
:104BC00001F0FE0122F0FE021143818170470029AD
:104BD000818902D041F0010101E021F001018181D0
:104BE00070470029018802D041F0400101E021F026
:104BF000400101807047002A828801D00A4300E00A
:104C00008A438280704701827047008AC0B2704731
:104C100012B141F0010101E001F0FE010182704793
:104C2000405A70470029018802D041F4004101E058
:104C3000C1F30E0101807047B1F5006F018803D008
:104C400021F400610180704741F40061FAE7B1F599
:104C5000005F018803D021F400510180704741F4C6
:104C60000051FAE70029018802D041F4805101E0A7
:104C700021F4805101807047B1F5006F018803D0A5
:104C800021F400610180704741F40061FAE70029D6
:104C9000018802D041F0200101E021F020010180D3
:104CA0007047008B000A70470029018802D041F04C
:104CB000100101E021F010010180704700290188F6
:104CC00003D021F080010180704741F08001FAE7B4
:104CD000B1F5804F818B02D021F4804101E041F495
:104CE000804181837047838A0022008B43EA00431E
:104CF00023F07F40814300D1012210467047818A12
:104D0000008B41EA004121F07F40704700220B0FE9
:104D100021F07F4101D0143001E0090C1830006807
:104D2000084200D0012210467047C9438182704773
:104D300010B58388002201F0E064808A03EA1443FE
:104D400021F07F41084201D003B10122104610BD7D
:104D5000C9438182704700000054004040420F0068
:104D6000A0860100A448016841F00101016041688A
:104D7000A24A114041600168A14A114001600168E6
:104D800021F480210160416821F4FE0141604FF46B
:104D90001F018160704798490A6822F480320A60D6
:104DA0000A6822F480220A60B0F5803F07D0B0F58F
:104DB000802F03D1086840F4A0200860704708687D
:104DC00040F48030F9E70246002053098A49012B5C
:104DD0000AD0022B0AD0496A02F01F020123934035
:104DE0000B4200D0012070470968F5E7096AF3E734
:104DF00030B500244FF4A0653120FFF7E4FF641CB8
:104E0000AC4201D00028F7D03120FFF7DCFF0028AA
:104E100000D0012030BD78490A6822F0F80242EA49
:104E2000C00008607047774908607047724A53684D
:104E3000084323F47C131843506070477149086697
:104E400070476D4A516821F003010143516070477A
:104E50006948406800F00C007047674A516821F0CB
:104E6000F001014351607047634A516821F4E061E9
:104E700001435160704760494A6822F4605242EA37
:104E8000C000486070475C4A0029517A01D0014354
:104E900000E08143517270475B4908607047564A91
:104EA000516821F440410143516070475749002245
:104EB0000A7001F82029012802D0042802D1052017
:104EC00081F8200070475249086070474A490A6AD1
:104ED00002430A6270474E494439086070474649A8
:104EE00010B54A6812F00C034A4A03D0042B01D0D3
:104EF000082B26D002604A68474B02F0F0021209E4
:104F00009C5C0268E24042604C6804F4E064240A5D
:104F10001C5D22FA04F484604C6804F460544FEA87
:104F2000D4241B5D22FA03F2C26049683A4B01F4B3
:104F300040414FEA91311B1F595CB2FBF1F1016115
:104F400010BD4A684B6802F470124FF0020413F46B
:104F5000803F04EB924202D04B689B0301D52F4B5C
:104F600000E02C4B5A43C5E7234A0029516901D080
:104F7000014300E08143516170471F4A0029916954
:104F800001D0014300E08143916170471A4A002932
:104F9000D16901D0014300E08143D1617047164AD5
:104FA0000029D16801D0014300E08143D1607047FE
:104FB000114A0029116901D0014300E081431161C8
:104FC000704713494039086070470E49C8647047FC
:104FD0000949C87170470848416A41F080714162CF
:104FE0007047054A0146002092680A4200D001201D
:104FF0007047014988727047001002400000FFF8B6
:10500000FFFFF6FE00004242D8004242201002405C
:105010008004424200127A00A002002000093D00F4
:10502000F64910B5884202D10121C41486E0B0F1DE
:10503000804F09D0F24988420DD101210220FFF7AB
:10504000B7FF0021022064E001210846FFF7B0FF0E
:10505000002101205DE0EB49884206D101210420B6
:10506000FFF7A6FF0021042053E0E749884206D15C
:1050700001210820FFF79CFF0021082049E0E349B7
:10508000884206D101211020FFF792FF0021102055
:105090003FE0DF49884206D101212020FFF788FF49
:1050A0000021202035E0DB49884202D1012144144F
:1050B00044E0D949884202D10121CC043EE0D749DD
:1050C000884202D101210C0538E0D549884202D13D
:1050D00001214C0532E0D349884206D1012140200C
:1050E000FFF766FF0021402013E0CF49884206D138
:1050F00001218020FFF75CFF0021802009E0CB49DF
:1051000088420AD1841501212046FFF751FF002172
:105110002046BDE81040FFF74BBFC549884202D189
:1051200001210C040AE0C349884202D101214C0448
:1051300004E0C14988420AD101218C042046FFF7CE
:105140002EFF2046BDE810400021FFF728BF10BD0C
:1051500030B50288A94BAF4C98420DD0A0420BD07D
:10516000B0F1804F08D0A64DA84205D0A54DA84269
:1051700002D0A54DA84203D122F070054A882A43E7
:10518000A24DA84206D0A24DA84203D022F44075F9
:10519000CA882A4302808A8882850A8802859842C2
:1051A0000AD0A04208D0A24A904205D0A14A90421B
:1051B00002D0A14A904201D1097A0186012181825F
:1051C00030BD30B5028C22F001020284028C83884B
:1051D000048B22F0020224F073050C882C430D8905
:1051E00015434A882A43854DA8420BD0894DA842D1
:1051F00008D08F4DA84205D08E4DA84202D08E4DCA
:10520000A8420DD122F008054A8923F440732A43AD
:1052100022F004058A882A438D891D43CB892B43BC
:1052200083800483C9888186028430BD30B5028CB6
:1052300022F010020284028C8388048B22F0200268
:1052400024F4E6450C88240645EA14440D892D050E
:1052500042EA15454A88120545EA1242674DA842BE
:1052600002D06C4DA84215D122F080054A8923F462
:105270004063120545EA124222F040058A88120571
:1052800045EA12428D89AD0443EA1545CB899B045A
:1052900045EA134383800483C9880187028430BDB3
:1052A00030B5028C22F480720284028C8388848B55
:1052B00022F4007224F073050C882C430D892D060E
:1052C00042EA15454A88120645EA12424B4DA84269
:1052D00002D0504DA84215D122F400654A8923F42A
:1052E0004053120645EA124222F480658A8812066B
:1052F00045EA12428D892D0543EA1545CB891B05E8
:1053000045EA134383808483C9888187028430BD42
:1053100030B5028C22F480520284038C8288848B04
:1053200024F4E6450C88240645EA144423F4005589
:105330000B891B0745EA13434D882D0743EA1545A2
:105340002E4B984202D0334B984205D122F4804331
:105350008A89920543EA124282808483C988A0F830
:105360004010058430BD828B22F440628283828BA0
:1053700042EA012282837047828B22F00C028283F0
:10538000828B0A4382837047028B22F4406202833D
:10539000028B42EA01220283704770B5048C24F02C
:1053A00010040484068B048C26F473461B0746EA1B
:1053B0001343120643EA12420D05104B2D0C98427E
:1053C0000ED0144B98420BD0B0F1804F08D00C4B4C
:1053D000984205D00B4B984202D00B4B984205D116
:1053E00024F02001294341F0100104E024F0A0033F
:1053F0000B4343F010010283018470BD002C014077
:105400000004004000080040000C00400010004074
:105410000014004000340140004C014000500140A5
:105420000054014000180040001C004000200040D3
:10543000004001400044014000480140028B22F03E
:105440000C020283028B0A430283704730B5048C3E
:1054500024F001040484058B048C1B0542EA1343E9
:1054600025F0F305F64A2B4390420ED0F54A9042C0
:105470000BD0B0F1804F08D0F34A904205D0F34AE8
:10548000904202D0F24A904202D124F0020201E09E
:1054900024F00A020A4342F001010383018430BD73
:1054A0002DE9F05F0D4604460E88E548DFF894C309
:1054B000DFF894A3DFF894E34988AA882B894FF09A
:1054C000804B3EB3042E2DD0082E268C32D026F4ED
:1054D00080562684B4F81C90268C0F074FEA174894
:1054E000120629F473471B0747EA124242EA1343A4
:1054F00084420AD0644508D05C4506D0544504D0A7
:10550000744502D0D248844241D126F4005040EA8A
:1055100008003FE02046FFF799FFE9882046BDE8F4
:10552000F05F8BE72046FFF738FFE9882046BDE8AB
:10553000F05F29E726F480762684A78B268C1B054E
:1055400027F0F30742EA13434FEA01683B434FEA6F
:10555000184884420AD0644508D05C4506D05445BA
:1055600004D0744502D0BA48844204D126F40070B5
:1055700040EA080002E026F42060084340F480700E
:10558000A3832084E9882046BDE8F05FF4E626F492
:105590000240084340F48050A3832084E9882046D9
:1055A000BDE8F05FDFE62DE9F0410C4600254988B3
:1055B0000746012601B90225A288012A00D1022648
:1055C000208823890028384610D0FFF7E6FEE188BE
:1055D0003846FFF7D9FE2389324629463846FFF779
:1055E00035FFE1883846BDE8F04127E7FFF72EFF99
:1055F000E1883846FFF722FF23893246294638469C
:10560000FFF7CBFEE1883846BDE8F041BCE610B5B7
:105610000A884B88CC881A438B8823431A430B890A
:105620001A434B8989891A430A43A0F8442010BDC4
:105630004FF6FF71818000210180C180418001729D
:1056400070470021018041808180C18001814181BA
:105650008181C181704700210180418001228280C7
:10566000C180018170470021018041808180C1801B
:1056700001814181818170470029018802D041F078
:10568000010101E021F0010101807047002930F89B
:10569000441F02D041F4004101E0C1F30E0101803A
:1056A0007047002A828901D00A4300E08A43828140
:1056B0007047818270471143A0F848107047002A54
:1056C000828901D00A4300E08A43828170470189C0
:1056D00021F0070101817047028922F070020A431C
:1056E0000281704700B50346FFF7F6FF188940F0C6
:1056F0000700188100BD70B50D4611460446602DA7
:105700004FF001020AD0FFF7A1FE29462046FFF71D
:10571000E3FF208940F00700208170BDFFF73DFEC8
:10572000F3E710B5048942EA0323E4B20B432343B1
:10573000038110BD10B50446FFF7F3FF208940F048
:105740007700208110BD10B50446FFF7EAFF2089DD
:1057500040F48040208110BD01858282704702881C
:1057600022F070020A430280704770B50589048BED
:10577000068C25F007050D434FF6FC410C4040F226
:1057800001110C4326F0220642EA03113143058140
:105790000483018470BD028B22F070020A430283ED
:1057A0007047028B22F4E04242EA012101837047F4
:1057B000828B22F070020A4382837047828B22F42C
:1057C000E04242EA0121818370470029018802D02A
:1057D00041F0800101E021F0800101807047002943
:1057E000818802D041F0040101E021F004018180B0
:1057F00070470029818802D041F0080101E021F0C2
:105800000801818070470029818802D041F00101A0
:1058100001E021F0010181807047028B22F0080233
:105820000A4302837047028B22F4006242EA01219C
:1058300001837047828B22F008020A4382837047FB
:10584000002C0140003401400004004000080040EA
:10585000000C0040828B22F4006242EA0121818325
:105860007047028B22F004020A4302837047028BC6
:1058700022F4806242EA012101837047828B22F088
:1058800004020A4382837047828B22F4806242EAD8
:10589000012181837047028B22F080020A43028338
:1058A0007047028BC2F30E0242EA01210183704766
:1058B000828B22F080020A4382837047828BC2F37C
:1058C0000E0242EA012181837047028C22F002021B
:1058D0000A4302847047028C22F008020A430284C1
:1058E0007047028C22F0200242EA011101847047C5
:1058F000028C22F0800242EA011101847047028C7E
:1059000022F4007242EA012101847047028C22F4E1
:10591000006242EA012101847047028C22F40052A5
:1059200042EA01310184704710B50123048C8B4099
:105930009C430484038C8A401343038410BD10B538
:105940000423048C8B409C430484038C8A401343BF
:10595000038410BD30B50124058C00F118038C4080
:10596000A543058479B108290DD0091F88B203EB3E
:105970005000016821F4E041016001681206120C38
:105980001143016030BD03EB5100016821F070014B
:1059900001600168F4E70029018802D041F00201AA
:1059A00001E021F00201018070470029018802D046
:1059B00041F0040101E021F0040101807047002959
:1059C000818802D041F0800101E021F080018180D6
:1059D0007047028822F00802028002880A4302808F
:1059E0007047828822F07002828082880A43828017
:1059F0007047028922F00702028102890A4302816C
:105A00007047028922F08002028102890A430281E2
:105A10007047818470478185704781867047018710
:105A2000704781877047A0F840107047028822F4C1
:105A30004072028002880A4302807047808E70475D
:105A4000008F7047808F7047B0F840007047808C9F
:105A50007047008D704702460020128A0A4200D02B
:105A600001207047C94301827047038A0022808960
:105A70000B4200EA010001D000B10122104670473C
:105A8000C943018270470000C64910B588420AD157
:105A900001218C032046FFF782FA2046BDE8104022
:105AA0000021FFF77CBAC049884202D101214C0491
:105AB00010E0BE49884202D101218C040AE0BC49B1
:105AC000884202D10121CC0404E0BA4988420AD1BB
:105AD00001210C052046FFF76BFA2046BDE8104077
