:020000040800F2
:10000000682900208DA40008CDA400086F250008F1
:10001000D1A40008D3A40008D5A400080000000063
:10002000000000000000000000000000D7A400084D
:10003000D9A4000800000000DBA40008ED7C000843
:10004000DFA40008DFA40008DFA40008DFA4000884
:10005000DFA40008DFA40008DFA400083788000838
:10006000DFA40008DFA40008DFA40008DFA4000864
:10007000DFA40008DFA40008AD820008DFA40008A8
:10008000DFA40008DFA40008DFA40008DFA4000844
:10009000DFA40008DFA40008DFA4000839880008F6
:1000A000DFA40008DFA40008DFA400089590000882
:1000B000999000089F900008A39000085D760008C2
:1000C0003B740008617600085F760008DFA4000832
:1000D000DFA40008D98200080D830008DFA400080F
:1000E000796D0008DFA40008DFA40008DFF80CD059
:1000F0000AF016FE00480047312300086829002056
:1001000070B51546B0FBF5F40646A84203D3204669
:10011000FFF7F6FF014605FB1460FCA2105C0870B7
:10012000481C70BD70B50C46911E232900D30A22CD
:100130000025002804DA2D212170611C404200E0D6
:100140002146FFF7DDFF0570204670BD2DE9F04721
:10015000044600E0641C20782028FBD00928F9D050
:100160004FF07E58C1B247462D2902D02B2801D02E
:1001700001E0F04F641C0026DFF8BC930CE000BFE8
:100180000AF0AAFB0546494630460AF023FB2946F9
:100190000AF0C8FA0646641C207830380928EFD9DE
:1001A00020782E2815D14D460EE000BF0AF094FBB2
:1001B00029460AF045FB31460AF0B4FA064649469C
:1001C00028460AF007FB054614F8010F30380928C5
:1001D000ECD921784046652901D0452935D114F85C
:1001E000011F4FF000082D2902D02B2902D002E078
:1001F0004FF00108641C00256FF02F0206E000BFDD
:1002000005EB850302EB4303CD18641C2178A1F1B3
:100210003003092BF4D94FF49A718D4204D90D465D
:10022000C6490AF0D7FA083D082DF9D203E049463D
:100230000AF0D0FA6D1E002DF9D1B8F1000F04D0EC
:10024000014630460AF0FCFA03E0014630460AF067
:10025000C1FA3946BDE8F0470AF0BCBAF0B587B03C
:1002600000260D46B74900960196B5A70296B0F54F
:10027000000F02DB0AF056FA01E00AF0A5FAB249D3
:100280000AF0A8FA0AF036FB041E00DC60420A22DB
:1002900003A9FFF747FF002C01DB202000E02D2001
:1002A0008DF8000003A80AF010FA302401280AD0C3
:1002B00003A80AF00AFA02280CD003A80AF005FAEB
:1002C00003280CD00DE08DF801408DF802408DF828
:1002D000034006E08DF801408DF8024001E08DF802
:1002E000014003A968460AF0BCF968460AF0EDF936
:1002F000C01EC4B22246694628460AF0D0F92E55DF
:10030000394628460AF0ADF90DEB040128460AF0FB
:10031000A8F907B02846F0BD70B505460C46086838
:100320000AF0D3F9024621682868BDE870400AF057
:10033000D3B970B506460AF0C8F9844D10F0FF0F26
:100340000FD030460AF0E1F90446142815DA2021CE
:1003500030460AF0B0F90AF0D8F905EB4401C88735
:1003600070BD002405EB44002146C28F78A00AF03E
:1003700005FE641C142CF5DB70BDBDE87040142133
:1003800076A00AF0FBBD2DE9F041002588B00746B4
:100390002E460AF09AF97B4C10F0FF0FA84652D077
:1003A000052279A138460AF097F900287ED0042268
:1003B00077A138460AF090F9002878D038460AF03C
:1003C000A4F9461E0C2E73DA202138460AF073F980
:1003D000070007D0781C0746FFF7B8FE04EB0611AC
:1003E00001250861202138460AF065F9070007D089
:1003F000471C3846FFF7AAFE04EB06116D1C486146
:10040000202138460AF057F9070007D0471C384624
:10041000FFF79CFE04EB06116D1C88612021384615
:100420000AF049F930B1401CFFF790FE04EB0611C9
:100430006D1CC861042D67D057A000BF00F070FF8D
:1004400008B0BDE8F08163A000F06AFF5FF000052E
:1004500004EB0517386910F0FF4F2BD0761C691C90
:1004600067A00AF08BFD03A93869FFF7F7FE014684
:1004700065A00AF083FD03A97869FFF7EFFE014646
:1004800061A00AF07BFD03A9B869FFF7E7FE01460A
:100490005DA00AF073FD03A9F869FFF7DFFE0146CE
:1004A0005AA00AF06BFD6D1C0C2D02E0C8E0D0E0F4
:1004B000F5E0CDDBCDF80880CDF804800025CDF83F
:1004C000008011E004EB0517009879690AF02AF919
:1004D0000090B96901980AF025F90190F96902982C
:1004E0000AF020F96D1C0290B542EBDB49A000F048
:1004F00017FF4C4E00246D4655F8240020F00040B4
:10050000B04202DD48A092E0C4E08FE030313233E7
:100510003435363738394142434445464748494ADD
:100520004B4C4D4E4F505152535455565758595AA3
:1005300000000000000080BF0000204120BCBE4C35
:100540002E0000006F12033A00007A44E8070020F2
:100550006175782025752025750D0A00496E766134
:100560006C6964204665617475726520696E6465A6
:10057000783A206D757374206265203C2025750DD6
:100580000A0000006C0400207265736574000000AE
:100590006C6F61640000000057726F6E67206E75AB
:1005A0006D626572206F6620617267756D656E742D
:1005B000732C206E6565647320696478207468729A
:1005C00020726F6C6C207069746368207961770D9C
:1005D0000A000000437573746F6D206D6978657251
:1005E0003A200D0A4D6F746F720954687209526F88
:1005F0006C6C095069746368095961770D0A0000D1
:100600002325643A090000002573090025730D0AAB
:100610000000000053616E69747920636865636B44
:100620003A0900000AD7233C4E470900FDA000F01C
:1006300077FE641C032CFFF65FAFAFF24000FDE6CF
:100640000020414604EB0012401C11610C28F9DB2C
:10065000F6E6202138460AF02EF80028F8D0401C93
:1006600006460AF032F8F04DC7B2002455F82410BF
:1006700031B13A4630460AF02FF818B1641CF5E75C
:10068000EAA0DBE6204602F015F855F82410EDA0AC
:100690000AF074FCAFF26810FFF775FED0E60C218B
:1006A000EDA00AF06BFCCBE610B5F5A000F038FE2B
:1006B000012001F0DAF8F9A000F032FE0A2007F07C
:1006C00043FBBDE81040002007F009BC7CB50446A0
:1006D0000D4600790021062814D2DFE800F0030659
:1006E0000A0D111EA06801780CE0A06890F90010B6
:1006F00008E0A068018805E0A068B0F9001001E0FA
:10070000A0680168E9A00AF039FC002D04D0D4E902
:100710000312E7A00AF032FC7CBDA06869460068BD
:10072000FFF79CFD0146E4A00AF028FC002DF3D061
:10073000E0680AF0D1F86946FFF790FD0146DFA0B6
:100740000AF01CFC20690AF0C7F86946FFF786FD2D
:100750000146DAA00AF012FC7CBD2DE9FF47D8A0C3
:100760000AF00CFCD0A0FFF7E4FDE14DAE4968793A
:1007700001EB800050F8041CDEA00AF0FFFB2869A2
:1007800010F0FF4F4CD0DFF878A3002405EB0410E5
:10079000066916F0FF4F3FD0D0E90598C769611C84
:1007A000D8A00AF0EBFB564502D3D8A00AF0E6FB2E
:1007B00069463046FFF752FD0146BFA00AF0DEFB56
:1007C0005646B14502D3D1A00AF0D8FB6946484647
:1007D000FFF744FD0146B8A00AF0D0FBB04502D3B4
:1007E000CAA00AF0CBFB69464046FFF737FD014639
:1007F000B1A00AF0C3FBB74202D3C4A00AF0BEFB0B
:1008000069463846FFF72AFD0146AFF200200AF09C
:10081000B5FB641C0C2CB9DB611CBDA00AF0AEFB5F
:1008200001F054F8804E002407464C3656F8241048
:1008300021B1BCA00AF0A2FB641CF7E700244FF032
:10084000010800BF56F8241041B108FA04F03842FC
:1008500002D0B8A00AF092FB641CF3E7B94A00206A
:1008600069462C18135C94F80A41401C08280B5563
:10087000F7DB00220A54B4A00AF080FBB54D002437
:1008800004EB840005EB800655F82010B2A00AF0B6
:1008900075FB00213046FFF719FF6EA000F040FD08
:1008A000641C612CECD3BDE8FF8710B5ADA000F04F
:1008B00037FD0121002000F022FEADA000F030FD48
:1008C0000A2007F041FABDE81040002007F007BBFE
:1008D00010B50446AAA000F023FDAF480021017026
:1008E000AE480160AE4801702046BDE81040DCE72C
:1008F0002DE9F047064609F0E8FE054600F0E6FF60
:10090000DFF8248107464FF0010908F14C0855B182
:100910002A46A4A1304609F0DFFEC8B1307800278E
:100920002D2824D026E0A1A000F0FAFC00244D469A
:100930004FEA080656F8241041B105FA04F038428F
:1009400002D09FA00AF01AFB641CF3E741A01EE04E
:100950009CA000F0E5FC00244FEA080555F824109F
:100960000029F3D096A00AF009FB641CF6E70127E2
:10097000761C6D1E5FF0000458F8241031B12A4631
:10098000304609F0A9FE30B1641CF5E793A0BDE83C
:10099000F04700F0C5BC09FA04F01FB100F091FF68
:1009A00095A002E000F00CFE96A000F0B9FC58F80B
:1009B0002410BDE8F04761A00AF0E0BA70B5002449
:1009C00093A000F0ADFC634DB5F1A80504EB440025
:1009D00005EB80014A6855F8201093A00AF0CEFA82
:1009E000641C0E2CF2D370BD3EB5054609F06DFEB9
:1009F000082815D10024285D09F0E6FD2855641C5F
:100A0000082CF8D300244F48295D09F054FE28B182
:100A10002819295D401C09F04EFE00B108E10BE1E8
:100A200011E100004F4B0900ECBE0008496E7661F1
:100A30006C6964206D6978657220747970652E2EFA
:100A40002E0D0A004C6F61646564202573206D696A
:100A5000782E2E2E0D0A00004D6F746F72206E7569
:100A60006D626572206D75737420626520626574B5
:100A70007765656E203120616E642025640D0A0063
:100A8000526573657474696E6720746F206465665F
:100A900061756C74732E2E2E0D0A00005265626F04
:100AA0006F74696E672E2E2E000000002564000012
:100AB0002025642025640000257300002025730094
:100AC00043757272656E7420436F6E6669673A2073
:100AD000436F70792065766572797468696E6720F6
:100AE00062656C6F7720686572652E2E2E0D0A0088
:100AF0006C0400206D697865722025730D0A000072
:100B000000008080636D697820256400200000006B
:100B1000636D697820256420302030203020300D2E
:100B20000A00000066656174757265202D25730DDD
:100B30000A000000666561747572652025730D0AF0
:100B400000000000F0C700086D61702025730D0AD9
:100B5000000000005CC00008736574202573203D10
:100B600020000000536176696E672E2E2E00000073
:100B70000D0A5265626F6F74696E672E2E2E00002B
:100B80000D0A4C656176696E6720434C49206D6F94
:100B900064652E2E2E0D0A003C040020000000206B
:100BA000B50100206C69737400000000456E61623D
:100BB0006C65642066656174757265733A20000027
:100BC00025732000417661696C61626C6520666501
:100BD0006174757265733A2000000000496E766199
:100BE0006C69642066656174757265206E616D65FF
:100BF0002E2E2E0D0A00000044697361626C65643C
:100C000020000000456E61626C65642000000000F9
:100C1000417661696C61626C6520636F6D6D616EB8
:100C200064733A0D0A00000025730925730D0A004C
:100C3000F7A000F075FB3EBD641C082CFFF4E3AE8A
:100C4000284600F0A7FBFAA000F06AFBFE4BFF4A23
:100C50000020694615181C5C95F80A51401C0828AC
:100C60004C55F7D300220A54AFF230100AF086F93F
:100C70003EBD2DE9F041804609F027FDF34FF44DCC
:100C8000060011D00246AFF2E401404609F024FD0F
:100C900088B1002455F82410F1B13246404609F0DD
:100CA0001BFDF8B1641CF5E7787905EB800050F87E
:100CB000041CE8A01BE0ECA000F032FB5FF0000495
:100CC00055F8241029B1AFF208100AF057F9641C46
:100CD000F6E7AFF2802001E0AFF2B020BDE8F041CE
:100CE00000F01EBB601C787155F82410E3A0BDE82D
:100CF000F0410AF043B970B5054609F0E6FCD34C63
:100D000010F0FF0F0CD0284609F0FFFC02280ED887
:100D100084F878030021084600F0F1FBC9A0EBE756
:100D200094F87813BDE87040D9A00AF027B970BDD7
:100D30002DE9F047814609F0C8FCDB4D060029D0BB
:100D4000012E03D199F800002A2823D0D7A14846C4
:100D500009F093FC00286ED0401C044609F0D5FC35
:100D600082462046FFF7F2F98046002606EB86070A
:100D700005EB870455F8270009F0A7FC024655F853
:100D80002710484609F0A8FCF8B1761C612EEDD377
:100D9000C7A04CE0CEA000F0C3FA002404EB84000E
:100DA00005EB800755F82010AFF250200AF0E6F866
:100DB00031463846FFF78AFCAFF2683000F0B0FAEF
:100DC000641C612CEAD3BDE8F08706EB860605EBD0
:100DD0008607F86809F080FD414609F0B9FD25D87D
:100DE000386909F079FD414609F0BCFD1ED8397912
:100DF000052907D0504606290ED2DFE801F0050587
:100E000008080B0B4046F6E7A168087004E0A168EB
:100E1000088001E0A168086055F82610B2A00AF029
:100E2000ADF82046BDE8F04700214FE4B1A0BDE891
:100E3000F04700F075BA002404EB8406494655F8E3
:100E4000260009F01AFC78B155F8261005EB860744
:100E5000AFF2F8200AF092F800213846FFF736FC8E
:100E6000AFF210400AF08AF8641C612CE4D3AAE7C0
:100E70002DE9F04106F059FF4FF47A71B0FBF1F122
:100E8000A6480378A6480278A6A00AF077F800F0F2
:100E90000DFD0646B348B4490068B0FBF1F1B3A0BC
:100EA0000AF06CF86A4F00240125903757F8241097
:100EB00051B105FA04F0304203D0AFF2FC200AF041
:100EC0005DF8641CE4B2F1E7022000F0DDFCA0B1A3
:100ED000AE4C5F482178AC3050F82110ACA00AF03D
:100EE0004DF82078022808D1AC48007C08B16F2169
:100EF00000E06E21AAA00AF041F8AFF2A84000F08D
:100F00000FFA06F026FC0246A6484FF45F730188EC
:100F1000BDE8F041A4A00AF031B8B0A000F000BADA
:100F20002DE9FF5FDFF8E49299F8000038B901215C
:100F300089F80010B6A000F0F3F900F0FDF9DFF831
:100F400008B3DFF858A25446DAF8000008F0D2FAE5
:100F500000285AD0206808F0D0FA092807D03F2886
:100F600005D0DBF800105C4600294FD076E1002464
:100F70004D4F2546A83FDFF83081DBF800600BE0DD
:100F8000DBF8002022B1B148396809F0A5FB10B99F
:100F900004B93C463D460C374745F1D394B1AB4FBD
:100FA0005946226808682B68125C1B5C9A4209D17A
:100FB00092B92E2810D220223A54401C0021CBF89E
:100FC00000003954DBF800005F4608B1AC4213D092
:100FD0009FA000F0A5F90AE03A54401C0860E0E741
:100FE000206800F09DF9092000F0A8F90C34AC420B
:100FF000F6D900F0A1F90026944C38688642A2D2B6
:10100000A05D00F09BF9761CF7E787E124E1000082
:101010004D75737420626520616E79206F7264650E
:1010200072206F662041455452313233340D0A002C
:1010300043757272656E742061737369676E6D6556
:101040006E743A2000000000F0C700086C04002015
:10105000ECBE000843757272656E74206D69786528
:10106000723A2025730D0A00417661696C61626CE9
:1010700065206D69786572733A2000004D69786566
:10108000722073657420746F2025730D0A000000B0
:1010900043757272656E742070726F66696C653A22
:1010A0002025640D0A0000005CC000083D0000001F
:1010B0004552523A20556E6B6E6F776E2076617294
:1010C0006961626C65206E616D650D0A000000004B
:1010D00043757272656E742073657474696E67739C
:1010E0003A200D0A000000002573207365742074F7
:1010F0006F2000004552523A2056616C75652061A0
:10110000737369676E6D656E74206F7574206F669A
:101110002072616E67650D0A000000006801002002
:10112000D200002053797374656D20557074696D19
:10113000653A202564207365636F6E64732C2056B6
:101140006F6C746167653A202564202A20302E3147
:101150005620282564532062617474657279290DC4
:101160000A0000000804002040420F0043505520B0
:1011700025644D487A2C2064657465637465642029
:1011800073656E736F72733A200000007C0100205B
:1011900041434348573A202573000000DC080020F3
:1011A0002E256300D40000204379636C65205469C8
:1011B0006D653A2025642C20493243204572726FB8
:1011C00072733A2025642C20636F6E666967207302
:1011D000697A653A2025640D0A0000004166726F45
:1011E000333220434C492076657273696F6E20322A
:1011F0002E32204E6F762020312032303133202F96
:101200002030393A30343A3031000000B501002046
:101210000D0A456E746572696E6720434C49204D16
:101220006F64652C20747970652027657869742750
:1012300020746F2072657475726E2C206F72202777
:1012400068656C70270D0A00000000203C04002037
:101250000D1B5B4B00000000042813D00C2817D096
:1012600019B10A2818D00D2816D07F2840D030296F
:10127000BFF469AE2028FFF466AE7E283FF663AE69
:10128000A9B343E004B03048BDE8F05FFFF720BBEE
:101290002EA000F045F827E0AFF6480000F040F837
:1012A000294E206800250C2335542B48CDE9000633
:1012B0000E222A49029501A809F08CF9070007D0EF
:1012C000386809F002FA3044B968401C884702E0E7
:1012D00023A000F025F830211B4809F0B7F925605C
:1012E00099F80000002819D000F026F82BE60BE052
:1012F0000029FBD0144A491E0020CBF8001050549E
:1013000020A000F00DF81EE62028EFD00E4A505421
:10131000491CCBF8001000F011F814E6BDE8FF9F5F
:1013200070B50446184D03E0641C286806F0A6FF5B
:1013300021780029F8D170BD14A0F1E701461248C8
:10134000006806F09BBF00003C0400201B5B324A93
:101350001B5B313B3148000019030008B4BF000893
:101360004552523A20556E6B6E6F776E20636F6DEB
:101370006D616E642C20747279202768656C70270B
:101380000000000008200800DC0800200D0A2320CF
:10139000000000002DE9F04105460446FD4EFE4FD9
:1013A00009E0FC4809F087F920B1611B801B384433
:1013B00080F80A11641C21780029F2D1BDE8F0817F
:1013C000F64800210278372A12D14288B2F55F7FB1
:1013D0000ED10279BE2A0BD190F87923EF2A07D1DA
:1013E00000F55F7210F8013B59409042FAD309B101
:1013F00000207047012070472DE9F05FFFF7E0FF04
:1014000010B90A2006F04AFD4FF45F72E349E24842
:1014100009F003F9E04C94F87803022802D900207F
:1014200084F87803C0B200EB001101EB401004EB2C
:10143000800101F59671C422D94809F0EEF8D84A26
:10144000D84F002092F8201092F81F5040F6C41692
:1014500000FB00F3193B4B4303F6C41343436B43B8
:1014600093FBF6F327F81030401CC0B20628EFD3E8
:1014700092F8211092F822509146B4F8D220B4F894
:10148000D080DFF824A300204FF00A0E4FF47A7BBF
:10149000C5F1640701EB8106A2EB080400EB8002B2
:1014A000C1EB42030122002B03DDC1F16402D2B281
:1014B00001E000DA0A4603FB03FC05FB0CFC02FB1F
:1014C00002F29CFBF2F23A4402FB03F292FBFEF2C0
:1014D00002EB460212B204FB02F292FBFBF2424420
:1014E0002AF8102000F10100C0B20B28D6D399F8D9
:1014F000000001F08BFFBDE8F05F04F09BBB2DE91D
:10150000F047A54D8146372028704FF45F740027BF
:101510006C80BE202871EF2085F879033E4685F85F
:101520007A7369B195F87803C42200EB001101EBDE
:10153000401005EB800000F59670994909F06DF8B0
:101540009548974903E000BF10F8012B57408842A7
:10155000FAD385F87A73914F4FEA040808F01EFF1A
:10156000342008F089FF384608F046FF04280FD1E0
:101570000024E019295908F05BFF042805D008F081
:1015800013FF761C032EE9DB02E0241D4445F0D353
:1015900008F00AFF032E02D0FFF712FF10B90A204D
:1015A00006F07CFCFFF728FFB9F1000F06D0BDE87C
:1015B000F047012214210F2001F020BBBDE8F08785
:1015C00075498A6802438A6070472DE9FC5F77A1FC
:1015D000D1E90001CDE900014FF45F716E4809F0D7
:1015E00035F8C4216E4809F031F86B4B37200025DF
:1015F00018700320587102209D60FFF7E1FF83F807
:1016000078534FF41670A3F8F000FA20A3F8F20014
:10161000D0332A20D8835D859D85DD859D74DD745A
:101620001D75DD821D835D831C334FF001095D70E4
:1016300083F80090202018735E4898606E2098769A
:101640002B20D876212018775D7783F82650283311
:1016500040F2DC505D75188040F24C405880443BAD
:1016600040F26C70A3F8480083F84A5040F27E4084
:10167000188040F23A7058804FF47A70988040F2A7
:101680007E50D88040F2EA50188140F2B450588120
:101690003220C1009881D981188283F84C5083F898
:1016A0004D504FF4E13119654FF49641596583F877
:1016B000585040F6AC513A4C23F8C41C83F84B50B8
:1016C0002826257066701E27E77217216175A6709F
:1016D0002773A1755521E1702D226273E57526717E
:1016E0001921A1733C2121760B216171E573657687
:1016F0004FF0140B84F806B008232374A2760E2250
:10170000E27184F811B05021E1765A2121724FF034
:101710000A0884F812804FF0640A84F81CA06672EC
:10172000A5722575A577E177412184F8201084F80A
:10173000235084F8245084F8255084F8210084F83C
:10174000225025856585E584042084F82C0084F8E2
:101750002D6084F82E60152084F82F001648206331
:10176000164860631648A063012084F83C0015A069
:10177000FFF710FE84F8665084F8675084F86860BC
:10178000012084F8690084F86A5004F8AC8FC823FB
:1017900063701DE0F0C700086C04002000FC010825
:1017A000E8070020A40A0020B00A00201E1E64647E
:1017B00064646464031414009A99193F52B87E3F1C
:1017C0003333733F4145545231323334000000000B
:1017D0004FF49660608040F2D930A0803D480021EF
:1017E000EE4640F2DC544FF47F754FF4FA6C00BFC4
:1017F00000EBC10222F86C5FA2F802C094801EF8D0
:101800000180491C82F806800829F1DB00F8B29FAC
:101810004FF4967180F8019080F80290838080F8F0
:1018200006B0C77180F80890A0F80AA08181C6812F
:101830000020294D014600BF05EB0012401C11613C
:101840000C28F9DB5FF0000404EB041000EB4410FB
:1018500005EB800000F59670C4221E4908F0DDFEFD
:10186000641C032CF0DBBDE8FC9F10B50446FFF7B9
:10187000A7FD641E204206D1FFF7A7FE0021BDE8A8
:10188000104008463BE610BD14490968014201D0EA
:10189000012070470020704710490A6802430A601F
:1018A00070470E490A6882430A6070470B48006817
:1018B000704709498968014201D001207047002022
:1018C000704705498A6882438A6070470248806889
:1018D00070470000E80700206C040020040000208E
:1018E00070B5FE4809F040FE0446FD48008808F047
:1018F000FCFF0546214608F06DFF08F0FBFFF94CA0
:1019000029462080F84808F09BFFF84908F098FF26
:10191000E0650820FFF7B8FF002803D0BDE870405D
:1019200002F002BD70BD002801DD024600E0424227
:101930008A4201DA00207047002802DDA0EB010096
:101940007047FDDA084470472DE9F04F91B0D0E9B7
:101950000045814686688846086809F005FE0490BF
:10196000D8F800000AF0E6F90590D8F8040009F06C
:10197000FBFD0190D8F804000AF0DCF90746D8F81E
:10198000080009F0F1FD8246D8F808000AF0D2F903
:1019900083465046049908F01DFF07905046019970
:1019A00008F018FF80465846049908F013FF069087
:1019B0005146059808F00EFF08905946059808F022
:1019C00009FF03900198594680F0004008F002FF9B
:1019D00082463946089808F0FDFE069908F0A2FEF6
:1019E00010903946039808F0F5FE079908F0EFFECD
:1019F0000E900598019980F0004008F0EBFE0590EC
:101A00003946079808F0E6FE039908F0E0FE0290D8
:101A10003946069808F0DEFE089908F083FE8346F2
:101A20000499019808F0D6FE04903046029908F017
:101A3000D1FE01902846109908F0CCFE0090414656
:101A4000204608F0C7FE009908F06CFE019908F0E6
:101A500069FEC9F800005946304608F0BBFE8346CF
:101A600028460E9908F0B6FE80465146204608F0FA
:101A7000B1FE414608F056FE594608F053FEC9F83B
:101A800004003046049908F0A5FE0646284605994C
:101A900008F0A0FE05463946204608F09BFE294680
:101AA00008F040FE314608F03DFEC9F8080011B0CC
:101AB000BDE8F08F2DE9F04380468A4887B0843036
:101AC000016881F000410391406880F0004004907B
:101AD0008748B0F9000008F0FFFE864908F07AFE5A
:101AE000804C05907834B4F9000008F0F5FE0090C1
:101AF000B4F9020008F0F0FE0190B4F9040008F017
:101B0000EBFE029003A96846FFF71EFF7A4D783C72
:101B100095F83C00012804D07148008808F0E5FEE3
:101B200017E0764840780028206B0CD1C11700EBF5
:101B30009161A0EBA11008F0CFFE029908F0F2FD30
:101B400008F0D8FE2063C11700EB9160801108F007
:101B5000C3FE029908F03BFE0290616B894608F0D3
:101B600033FE0746404608F0C0FE0646644908F0CA
:101B7000D9FD0146304608F063FE394608F02AFEDA
:101B8000494608F0CFFD606309F0AEFD15F82D1F42
:101B9000FFF7C9FE08F0A0FE0290009809F0A4FD2E
:101BA0006978FFF7C0FE08F097FE0090019809F0F1
:101BB0009BFD6978FFF7B7FE08F08EFE0190E168A3
:101BC00001EB0800E0602069401C2061009809F0EA
:101BD0008BFD4C4C216808442060019809F084FD7D
:101BE000616808446060029809F07EFDA1680844BD
:101BF000A06007B0BDE8F0832DE9F05F394D0446E1
:101C00008435286809F0B0FC834628680AF092F809
:101C10008246686809F0A8FC814668680AF08AF87C
:101C20000546D4F808802946404608F0D3FD5946B9
:101C300008F0D0FD676806465146384608F0CAFDF0
:101C4000294608F0C7FD05464946206808F0C2FD50
:101C5000294608F067FD314608F064FD0446514608
:101C6000404608F0B7FD05465946384608F0B2FD33
:101C7000294608F0A9FD214609F04CFB224908F04D
:101C8000A9FD224908F0DCFD1649896A08F04AFDE1
:101C90001F4908F0D5FD09F027FD00B2002802DA3F
:101CA00000F5B47000B2BDE8F09F2DE9F04F8DB0A3
:101CB000002606F020F8DFF82CB005465C46DBF87D
:101CC0003800281A099008F010FE1249C96808F077
:101CD00081FD0490A56300241EE00000F366DF3E52
:101CE00082010020080000200AE81C4100401C4638
:101CF000B001002035FA8EBCE8070020700A0020F1
:101D00003661023CC40800200000E144DB0F49407A
:101D1000000020414C0C00200BF1720A0AF106056C
:101D20004FF07E58FE4890F82C70FE4830F91400B1
:101D300008F0D2FD049908F04DFD06A941F82400F1
:101D400017B3384608F0D1FD0146404608F078FD4B
:101D500081460B903AF9140008F0BEFD494608F0A0
:101D600039FD814641460B9808F031FDEE4951F8A6
:101D7000241008F02FFD494608F0D4FCEA4941F848
:101D8000240008F0B7FD01E03AF8140025F814002B
:101D900035F91400641C00FB0066032CC5D3DFF882
:101DA0008CA364204643BAF8000006A9404396FB82
:101DB000F0F4DD481830FFF7C7FD0820FFF764FD99
:101DC00006A910B1D8480C3801E0D6482030FFF7FA
:101DD000BBFDA0B24938DFF858933C2827D2002435
:101DE000B9F8F00008F081FD45464146059008F03D
:101DF00099FC0146284608F023FDCB4E05461836CF
:101E0000C8480C3030F9140008F066FD074656F853
:101E10002410059808F0DEFC394608F083FC2946BA
:101E200008F0D8FC46F82400641C032CE8D30820F2
:101E3000FFF72AFD48B34546BB4EDFF8E882002491
:101E40000C3E08F11208B9F8F20008F04EFD814688
:101E5000294608F067FC0146284608F0F1FC0546D3
:101E600038F9140008F038FD0746484656F82410A3
:101E700008F0B0FC394608F055FC294608F0AAFCE9
:101E800046F82400641C032CEAD35E46BBF900002C
:101E900008F022FDA44C1834A16808F059FD01D2C5
:101EA000012100E00021A3484173D4E9010109F0B8
:101EB00031FA9C4D18352860A068014608F08AFC6C
:101EC00007466068014608F085FC394608F02AFCA0
:101ED00009F0F6FF0146206880F0004009F01AFA88
:101EE000DFF8548268604146286808F073FC09F006
:101EF000FBFBA5F1580741463880686808F06AFC8A
:101F000009F0F2FB78800820FFF7BEFC8B4D10B182
:101F100085480C3801E083482030FFF76DFE2880AB
:101F20000998FFF7C7FD7E4D95F86A0000281BD081
:101F3000BAF8000008F0D9FC0146A06808F080FC5F
:101F40007F4908F047FC08F0D5FCC0F1640064222A
:101F5000002104F0A3FB95F86A104843C11700EB79
:101F6000517040F3CF0070800DB0A1E52DE9F04134
:101F700002F0D1F90220FFF787FC20B102F0CEF881
:101F8000FFF793FE05E067480021801D0180418036
:101F900081804020FFF78DFC624B654CA3F10C0162
:101FA00018B3A1F15A02107830B9D4F8F400040C37
:101FB0001470040A547090705A4C0020B4F1060456
:101FC000155C33F9106034F91070A5F1010C07FBB2
:101FD0000C66761C96FBF5F521F8105024F810508D
:101FE000401C0328ECD3BDE8F0816079012809D0BA
:101FF0005FF0000033F8102021F81020401C032867
:10200000F8D3F0E7474AB3F904006C3AB2F9044058
:1020100000EB4400032490FBF4F088809080188843
:10202000088058884880DEE73F4900200C3108606E
:10203000486088603B496C390861C86070472DE989
:10204000F84F05F058FE374C46F2A8126C3CE16B95
:10205000A0EB0108904502D20020BDE8F88F394F6F
:10206000E0632F4D3888DFF8E090DFF8E0A0DFF87C
:10207000E0B04FF07E5640B3206D6269C11700EBAF
:102080005171A0EBE10095F82F10491EB2FBF1F160
:102090000844C117206500EB5170C01008F01CFC0B
:1020A000494608F0CDFB514609F036FB314608F0B1
:1020B0008EFB594608F08EFB08F01CFCE064002003
:1020C000206460643888401E388095F82F0061696C
:1020D000401EB1FBF0F008F008FC494608F0B0FBE8
:1020E000514609F019FB4FF07E5108F070FB59463C
:1020F00008F070FB09F0F8FAE16C2F6B461A3946CC
:102100004FF07E5008F060FB8146304608F0E4FB5B
:10211000494608F05FFB0646A06908F0DDFB19E0C0
:10212000E807002074000020B80800208201002089
:102130006C040020700A00204C3D0F44B0010020C8
:102140000000C842AE01002080E6C547B1DC423E37
:10215000D048874A394608F03DFB314608F0E2FA9C
:1021600009F0C2FA8346A061E06808F0BEFB0746AA
:10217000654908F02FFB0646206908F0ADFB814653
:102180006248806808F0A8FBE16D08F023FB39463F
:1021900008F020FB494608F053FB0746206C314607
:1021A000009008F017FB81464FF0FF31384608F0E9
:1021B00087FB314608F00EFB494608F0B3FA616C24
:1021C00008F0B0FAD5F83890824649464FF07E5074
:1021D00008F0FAFA0646584608F07EFB314608F049
:1021E000F9FA06464946504608F0F4FA314608F036
:1021F00099FA606408F07EFB60653946009808F043
:1022000091FA2064FFF710FFD4E915104FF4967788
:10221000401AC7F100093A46494604F03FFA0A213C
:10222000FFF781FB297906467143C81701EB50601F
:10223000C822C011514204F031FAE061A97B4CF28E
:1022400050327143C81701EB9060216A01EBA01076
:102250005142206204F022FAC117206200EBD150F3
:10226000E16901EB6020E061404608F03EFB8046FA
:10227000A669A06C301A08F02FFB254908F0AAFACD
:10228000414608F0DDFA08F035FB3A464946A664B7
:1022900004F004FA0A21FFF746FB6F6B80463946CB
:1022A0004FF07E5008F090FA0646404608F014FBC6
:1022B000314608F08FFA06463946206C08F08AFA53
:1022C000314608F02FFA206408F014FB4FF47A72BC
:1022D000514204F0E3F908F0FFFA206409F004FA2F
:1022E0000521FFF720FB6062297E96224143C81733
:1022F00001EB107000116FF0950104F0CFF9E16966
:10230000081AE0610120A8E6BD378635C408002020
:102310000024744970B5994D0446286807F0F3F815
:102320000028FAD0E1B2286807F0D4F8204670BD42
:1023300086B005F029FD0020FFF797FAFFF75CF85B
:102340008F4C002594F8090118B101281ED00928E6
:102350001CD08DF8105084F8095104A804F0CAFB71
:1023600004F0A4F90E20FFF797FA00F039F960792C
:1023700001260E280DD008280BD08DF8065000BF7E
:102380004FF48070FFF795FA50B905E08DF8100012
:10239000E3E78DF80660F3E70820FFF78AFA00B15B
:1023A00001208DF802004FF4004B5846FFF781FAE8
:1023B0008DF803000120FFF77CFA8DF8010008205A
:1023C000FFF777FADFF8B48180F001008DF80000A4
:1023D0006C4F98F812008DF8040097F8B400C0F321
:1023E00080008DF80500B4F8DE00ADF80800B4F800
:1023F000E000ADF80A004FF48040FFF75AFA08B148
:10240000B4F8DA00ADF80C00B7F8B000ADF80E0083
:1024100094F80901012823D0092824D08DF8075009
:10242000684605F063FB5849002040F2DE5200BFC9
:1024300021F81020401CC0B21228F9D35449534847
:102440000827086088F811703846FFF732FAB0B1F3
:1024500094F8120158B1012809D002281CD10AE0D1
:102460008DF80760DCE707208DF80700D8E74848BB
:1024700003F008FE10E0464804F0D3FA0CE094F8AC
:102480001C0128B194F91D01002801DA84F81D51BE
:1024900094F81D0103F017FC0120FFF70AFA30B190
:1024A0004FF48060FFF705FA08B101F0C1FF394928
:1024B0004FF0100AC1F800A0A1F10409B846C9F80C
:1024C00000700025A9F10407386880F0100038601A
:1024D000386880F008003860192005F035FC0120CC
:1024E00005F03DFC192005F02FFC002005F037FC1D
:1024F0006D1CEDB20A2DE7D3C9F80080C9F800A021
:1025000001F04EFCFFF7ECF90220FFF7D2F908B119
:1025100001F012FDD4F8200102F0BBF85846FFF795
:10252000C8F928B194F82811D4F8240106F0F0FE77
:102530004FF40060FFF7BDF908B103F051FF05F05B
:10254000DAFB154908606079052803D113494FF477
:10255000C870088012494FF47A7008801149C82069
:102560000880114880F80D6000F058FFFCE704482F
:10257000B0F9D40000F015F9FEE70000DC080020F7
:102580006C040020E8070020800A0020CF2F0008FC
:1025900004010020140C0140000100207E010020F5
:1025A00080010020AE010020700A00200146FE4894
:1025B00000EBC100B0F97000122804DA082902DA31
:1025C000FA4931F910007047F74A02EBC00090F960
:1025D0007200084202D04FF0FF3070470120704770
:1025E0002DE9F041F24EF34F707907EBC0004078CF
:1025F00000B10120F04CA0742020FFF75AF908B177
:102600000120A0747079ED4CED4D122808D017F818
:10261000301007EBC0002170426842B3002024E074
:102620005FF0000006EB00110A6912F0FF4F1ED0A8
:10263000D1E9057C05EB0013C969401CC3E902C15F
:10264000C3E900272178491C21700C28EADB0EE041
:1026500002EB001305EB0016D3E9007CD3E90283FB
:10266000C6E90283C6E9007C401C8842F0DB4FF4D7
:102670008040FFF71EF900281AD02778012F17D9BC
:10268000002613E005EB06144FF0FF384146A06822
:1026900008F016F9A0604146606808F011F9606022
:1026A0004146E06808F00CF9761CE060BE42E9DBC8
:1026B000BDE8F081F0B5401C0021BD4A0B4600BFCB
:1026C00002EB0114491C23610C29F9DBB94B03EB24
:1026D000C0014C68002C11D0002113F830000BE031
:1026E00004EB011302EB011593E8C010DB68491CF1
:1026F000C5E906C3C5E904678842F1DCF0BDAE4810
:1027000010B5807C002839D0A948AC4C4079A41C75
:1027100005280ED004DC01281BD0042804D112E0C7
:10272000082825D00E2829D02020FFF7C2F800283D
:1027300024D02188002005F069FA61880120BDE8D5
:10274000104005F063BA2189002005F05FFA618925
:10275000F4E79A499448891C90F8B300498908B174
:102760000020ECE7974840780028F9D10021F7E7EE
:10277000E188002005F04AFA2189DFE710BD70B535
:102780008F4E0024183E8D4D07E000BF36F8141020
:10279000204605F030FA641CE4B228788442F5D370
:1027A00070BD864A864B00211278183B04E000BFBA
:1027B00023F81100491CC9B29142F9D3DFE72DE992
:1027C000FC5F7E4C804EDFF804922078032814D9F9
:1027D000B9F904004142002801DD024600E00A4642
:1027E00002F1640200DC08466FF06301A1EB000116
:1027F000B6F9040003F052FFB0807048DFF8C0A1C2
:10280000DFF8A4810778AAF1180A012F38D900242B
:1028100034E000BF98F9B200B6F9041040424843D2
:1028200008F05AF8664901EB0415E96807F0D2FF91
:102830000190B6F9000008F04FF8696807F0CAFF88
:102840000090B6F9020008F047F8A96807F0C2FF47
:102850008346B9F9060008F03FF8296807F0BAFF87
:10286000594607F05FFF009907F05CFF019907F0F8
:1028700059FF08F03FF82AF81400641CBC42C9D381
:102880004B4D4E4CDFF848B16879A41C052842D066
:1028900004DC012831D004283CD102E00828FBD117
:1028A00056E00420FFF782FE034602210420FFF7D2
:1028B0008BFEB6F9041000FB01F701210420FFF79D
:1028C00083FEB6F9021000FB017018442081052038
:1028D000FFF76CFE034602210520FFF775FEB6F9EF
:1028E000041000FB01F701210520FFF76DFEB6F98A
:1028F000021000FB017018440BE00520FFF756FEA4
:10290000034601210520FFF75FFEB6F9041000FB26
:102910000130608199E098F97200BBF9021032260B
:10292000484390FBF6F708F172025B460020FFF780
:102930003DFE3844208092F90800B3F90010484366
:1029400090FBF6F20120FFF731FE104460807CE03E
:102950001C4F7878F0B3B5F8D220B5F8D010B9F99B
:10296000060003F09BFEE081AAF80000B87A4FF061
:10297000010100284FF003003BD0FFF725FEB9F915
:1029800002104B4600FB01F602210320FFF71CFE5C
:10299000B3F9001000FB0160E08001210420FFF783
:1029A00013FEB3F9021016E0E8070020800A0020A9
:1029B0006C040020ECCB0008DC080020B4000020F0
:1029C00008090020700A0020360100204401002080
:1029D000340000200AE000FB01F602210420FFF78A
:1029E000F3FDB3F9001000FB016021E0B5F8D4005D
:1029F000B9E7FFF7E9FDB6F9021000FB01F3022188
:102A00000320FFF7E1FDB6F9001000FB0130E08084
:102A100001210420FFF7D8FDB6F9021000FB01F3F5
:102A200002210420FFF7D0FDB6F9001000FB0130B1
:102A300020810320FFF7BAFDE1880844E0800420EC
:102A4000FFF7B4FD2189084420812020FEF731FFE3
:102A5000C0B30020FFF7AAFD20800120FFF7A6FDEC
:102A600062496080097A69B398F8B42041469207B8
:102A700015D591F97220BBF9023056425E433223DC
:102A800098F97A10BBF9002096FBF3F6514391FBBD
:102A9000F3F1721A238831449A1A228010E098F9CF
:102AA0007230BBF90210278803FB01F6322196FB36
:102AB000F1F63E442680BBF90020534393FBF1F12D
:102AC000084460800026474607EBC6006C30B0F92A
:102AD0000220B0F9001034F9160003F0DFFD24F8ED
:102AE0001600761C082EEFD397F8B400DFF800919B
:102AF000400711D500262020FEF7DBFE00B102269C
:102B000000244F4607EB44000189A019C0B205F02C
:102B10007DF8641C042CF5D336495646BAF900708A
:102B200001200B7806E000BF36F91020BA4200DD24
:102B30001746401C9842F7D300244FF4804A884639
:102B40004DE000BFB5F8D200B84205DA36F81410EF
:102B5000381A081A26F814005046FEF7AAFE98B153
:102B6000B9F9060040F2DC51884204DDB5F8D22004
:102B7000B5F8D81003E0B5F8D620B5F8D41036F97A
:102B8000140003F08BFD15E0B5F8D220B5F8D01095
:102B900036F9140003F082FD26F81400B9F9060096
:102BA000B5F81611884207DA1020FEF782FE38B118
:102BB000B5F8D40026F814000F48407818B10DE09D
:102BC000B5F8D000F6E75046FEF773FE10B1B5F841
:102BD000DA0001E0B5F8D40026F81400641C98F877
:102BE00000008442AED3BDE8FC9F0000C60A00206E
:102BF000800A0020B4000020700A00202DE9F04770
:102C00001746894606460025DFF83C841AE0002472
:102C100011E000BFD8F8001081F00801C8F80010DA
:102C2000012005F09CF8484605F08EF8002005F0DC
:102C300096F8641CE4B2B442ECD33C2005F084F86E
:102C40006D1CEDB2BD42E2D3BDE8F0872DE9FC5F1B
:102C5000FE4C002540F2DC51B4F90600FC4E4FF466
:102C6000FA73884201DA64210CE0F949B0F5FA6F91
:102C700091F8251004DAA0F2DC52514391FBF3F1F4
:102C8000C1F164018946F34996F866E096F867B0A9
:102C9000B1F814410022B246EC49EE4B40F2E63C5A
:102CA00031F91260311B01F2F317674503D800298F
:102CB00003DCA11B01E04FF4FA71022A34D0BEF10B
:102CC000000F05D08E4502DAA1EB0E0100E00021D5
:102CD000642391FBF3F3DD4F6FF01808243707EB03
:102CE000430C37F91370BCF902C003FB08F3ACEBDB
:102CF000070C01EB83030CFB03FC64239CFBF3F345
:102D00003B44D54F27F812309AF823304B434FF409
:102D1000FA7193FBF1F1C1F1640189B201FB09F190
:102D2000642391FBF3F11CE0BBF1000F05D08B4550
:102D300002DAA1EB0B0100E0002193F9EC30DFF89F
:102D400018C35B424B43ACF804309AF82430002996
:102D500000DC49424B434FF4FA7193FBF1F1C1F1AE
:102D600064010AEB0207642397F801C0DFF8E882E8
:102D70000CFB01FC9CFBF3FCA8F1540808F802C012
:102D800097F80BC008F103080CFB01FC9CFBF3FC5B
:102D900008F802C07F7D4F4397FBF3F108F103036E
:102DA000A642995405DAAC4931F812305B4221F859
:102DB0001230521C032AFFF66FAFDFF898A24FF4CF
:102DC000FA625446BAF8161103F068FCB4F816110A
:102DD0004FF47A72401A5043C1F5FA61B0FBF1F139
:102DE000642291FBF2F0994B6FF01806303303EB3D
:102DF000400433F910307043B4F9024001EB800015
:102E0000E41A444394FBF2F0DFF84C828F4E1844EE
:102E1000103EA8F80600707AA8F17C04E8B38F4849
:102E2000B4F91E10B0F90000401A07F055FD8C49A6
:102E300007F0D0FC8B4907F003FD074608F094FB30
:102E40000190384608F076FF00904746B8F9000038
:102E500007F042FD8346009907F0BCFC8046B7F9B5
:102E6000020007F039FD8146019907F0B3FC4146A5
:102E700007F058FC07F03EFD80464846009907F0F1
:102E8000A9FC81465846019907F0A4FC494607F081
:102E90009BFC07F02FFD388000E001E0A7F80280DE
:102EA0000220FEF706FD002750B3E078401CC0B2B8
:102EB0000621B0FBF1F2E07001FB1200B8B900206E
:102EC00003F08AFE2179614A01F00703AC3A491CFC
:102ED00022F813002171002032F81010401C294400
:102EE0008DB20828F8DBE80801F00EF8A072A07A8D
:102EF000E18C884203D89AF80811814201D9A77061
:102F000001E00420A070A07803F05FF956484E4D10
:102F1000008818B10220FEF7B7FC10B953480088AA
:102F200020B1286880F00800286011E0B1780820FE
:102F300011B14549091D0860717811B14249083144
:102F400008604FF40060FEF7B4FC08B103F05DFACE
:102F50008020FEF7AEFC48B1E16C606B411A05D4ED
:102F60004CF250310844E06405F010FAA16C606B3B
:102F7000411A03D4717BF9B10120B07002F011F84D
:102F80002020FEF781FC68B1216D606B411A09D4E5
:102F9000E17A052906D3364908442065286880F07F
:102FA000100028603348816800290ED002B02A48FA
:102FB000BDE8F05F5C380847B770296881F0080108
:102FC00029602D490844A064D8E7BDE8FC9F10B5EE
:102FD000204C204490F80A0104F022FEA0F2EE21D9
:102FE00040F2DD52914201D3B4F8140110BD2DE935
:102FF000F047194EDFF854807C3EA8F19C087079A8
:10300000124F401C00247071A14608F14005F16B7D
:1030100020468847727908EBC40102F0030221F8C8
:10302000120025F81490002035F8143031F81020E3
:10303000401C1A44C0B225F814200428F4D335F9F2
:103040001400801CC11719E00C0C0140800A0020FC
:10305000E80700206C04002044010020B00100209B
:10306000DB0F4940000034437E0100208001002036
:10307000F04902004C0C002020A1070000EB9170E9
:10308000801025F8140037F91410C91E884202DA9E
:10309000811C27F8141037F91410C91C884202DD6E
:1030A000801E27F81400641CE4B2082CAFD3CBE5D3
:1030B000FE480288FE48417852B9827842B1002920
:1030C00005D101214170FB48FB490088C883704746
:1030D0000029FCD10122FF2102208FE52DE9FC5FB0
:1030E0000020F54982467C31054607460190B1F93A
:1030F00002004342002801DD044600E01C468B46E6
:10310000B1F900104A42002901DD0E4600E01646E2
:10311000B44203DD002806DC184604E0002901DD86
:10312000084600E01046DFF8949300240090E04E3B
:10313000F07808B93079E8B3022C3FDADE484FF472
:10314000FA72443030F914103BF9140001EB4000DE
:10315000514203F0A3FADA49DFF868A331F91410F9
:10316000411A0AEB4400B0F9280001EB00089AF874
:103170000810642001FB08F191FBF0F09AF81C1094
:1031800001EB8102494201EB810103F087FA0190D2
:10319000C94842F21072743050F8241001EB080054
:1031A000514203F07BFAC449743141F824009AF883
:1031B000121000E008E048434FEA203AF07818B1D6
:1031C000307908B9022C48D13BF91450B84F05EBBF
:1031D00085000101BB48A83F00EB04084FF47A5278
:1031E00098F8010091FBF0F039F91410401A57F8E3
:1031F00024100844514203F051FA47F8240039F9E9
:10320000140000F52070B0F5A06F02D857F8240024
:1032100002E0002047F824007D2190FBF1F098F8AF
:103220000B10484387113079A8B1022C13DA0098AB
:10323000009AC0F5FA710198009B484305FB020013
:103240004FF4FA7201FB0AF107FB031190FBF2F055
:1032500091FBF2F608E0F07820B1022C02DA564633
:10326000019801E028463E46934A39F91410283265
:103270005023125DDFF838824A4392FBF3F28E4B03
:10328000821A6833A8F13C0833F9140023F81410AB
:10329000081A08F10C0158F8243051F824C041F8FC
:1032A00024309C44844448F8240083482E30005D38
:1032B00000FB0CF0C11700EBD1609119A1EB60107D
:1032C0007D496E3121F81400641C032CFFF62FAFEA
:1032D0007BE62DE9F05F764E4FF0000BDFF8E4A1BE
:1032E000DFF8D4915C46A83E714DE87808B928799A
:1032F000D0B1022C18DA70484FF4FA72443030F929
:103300001410383030F9140001EB4000514203F042
:10331000C5F96B4931F91410411A0AEB4400B0F9B0
:10332000280001EB000B01E0022C52D0E878E0B35A
:103330009AF8080000FB0BF0001160490AEB040743
:1033400031F91410FA7A451A787856F8241068433F
:103350004FEAE018B9F80C006843C01200FB0210F5
:103360004FF4001246F82400514203F097F946F852
:10337000240043134E480C3850F8241040F82450D1
:10338000B9F80C00691A02094FF6FF70B0FBF2F0B1
:10339000484347498011243901F10C0251F824C0F7
:1033A00052F824506544054400E01CE042F824C073
:1033B00041F82400787D6843011208EB03000844BB
:1033C0003D496E3121F81400641C032C8CDBBDE8F0
:1033D000F09F9AF8240038491B307C31B1F9041071
:1033E00048434011A9E7344A9AF823007C321B3045
:1033F00032F9142050432A790011002A9DD09AF8FE
:10340000121001FB0BF100EB212096E72A4901285D
:1034100001D02D4800E02D48086470472DE9F84F91
:103420000027B946B8460820FEF743FADFF8A0B0F7
:1034300068B19BF8120120B1012802D0022806D100
:1034400002E002F042FE01E003F00AFB8046DFF8F2
:1034500068A0174C4FF00005DAF83410DAF8540081
:103460004FF00106081A02D5B8F1000F7DD044F6DE
:1034700020621144CAF85410FFF7B9FD4FF48040A0
:10348000FEF717FA28B10A485630007808B900F05C
:103490007DFC9BF81B0168B305494FF47A7210312B
:1034A00001EB40000021B0F9060013E0800100208C
:1034B000700A0020B0010020C80000206800002031
:1034C00034000020E8070020DD300008D332000877
:1034D0006C040020A0F57A7003F0E0F807F0FCF926
:1034E000FE4907F0ADF9FE4907F074F907F01BFA41
:1034F000AAF822004FF40070FEF7DBF9B0B3DFF852
:10350000E483BAF90E2098F8ACC00CEB8C01914220
:103510001DDA6078D8B1BBF91431F349002000BF3F
:1035200021F81030401C0328FADBB8F8AE30CB800D
:1035300098F8AD00604400EB8000904202DA00F0A1
:1035400025FC2570BAF81010491CAAF8101098F83C
:10355000AC0000EB8001BAF90E00814204DA607819
:1035600010B900F013FC257001E068E204E0BAF83D
:103570000E10491CAAF80E10BBF816C1BBF8182192
:10358000DFF864830020BF0838F91030634501DD9F
:1035900047F08007934201DA47F04007401C0428B7
:1035A000F1DB9AF8071050468F4205D18179FA294C
:1035B00003D2491C817100E085718AF807704FF4CD
:1035C00080473846FEF775F958B1BBF81411BBF8BF
:1035D000DC00B8F906200B1A934202DA0844904244
:1035E00009DC3846FEF765F9E8B9B8F90610BBF80A
:1035F0001601814217DABC48B8380560456085601D
:10360000BA4805604560B748C08F60B1B6484630DB
:10361000007820B1207810B1FFF74AFD03E0607810
:1036200008B100F0B3FB9AF80600142817D16078AF
:10363000B0B1AC4FF88F28B99AF807005F2801D1D4
:1036400000F0A4FB9BF81A01002808D0F88F00288E
:1036500005D19AF807007D2801D100F097FB8FE093
:103660009AF80700572809D00420FEF722F9E8B19C
:103670009AF8071050465A2921D017E09C494FF478
:103680007A7008804FF48070FEF713F908B101F0EA
:1036900068FF0420FEF7F8F810B196490A20088068
:1036A0000820FEF7F1F808B9934805809AF807005A
:1036B0005D2817D05B2817D05E2817D023E0818AB9
:1036C00019B18582AAF816601DE0818C21B1002114
:1036D000818419B1022102E00121F9E703218AF86E
:1036E000001010E0012702E0022700E00327781E07
:1036F0008BF8780300210846FDF701FF3A462821A0
:103700000220FFF77BFA774FF88F18B99AF8071065
:103710006F290ED09BF81A1121B118B99AF8070039
:103720007E2806D09AF80700972805D0A72808D049
:1037300008E0FFF7BDFC05E070494FF4C870088051
:1037400000E0A6739AF80700BB2806D0B72807D078
:10375000BE2809D0BD280AD012E0788D801C01E077
:10376000788D801E788505E0388D801C01E0388DCD
:10377000801E388501210846FDF7C1FE8AF80650F3
:103780000420FEF796F820B3BAF8242050463221E0
:103790006AB162785AB1B8F90630BBF81621934283
:1037A00005DD514A463212780AB9418285844E4A73
:1037B0004632527C32B1028B838A1A4309D1AAF86D
:1037C000121006E0818A21B1617811B98582AAF8C8
:1037D00016600020C64640F2A46700BF0EEB400111
:1037E000B1F9082040F214518A4201DA012300E0C5
:1037F000002300EB40018B40A2F2155CBCF5C77FB3
:1038000002D84FF0010C01E04FF0000C01F101086B
:103810000CFA08FC43EA0C03BA4201DD012200E085
:103820000022891C8A40134343EA0903401C1FFA03
:1038300083F90428D2DB2C4F00204637294901EBBD
:103840004001C98F11EA090100D001213954401CFF
:103850001428F3DB787840B9224890F8AC0000EBEC
:103860008001BAF90E0081420ADA0220FEF70CF854
:1038700030B1E07828B91D4805604560E67000E089
:10388000E570B87838B1E570207928B91748056037
:103890004560267100E025713878B84600B9267079
:1038A000E178102009B9217909B1154901E01449DD
:1038B000091F08600420FDF7E7FF70B198F80300C6
:1038C000474650B3A07938BB0E48A67101680E4830
:1038D000016006480830C18818E02BE000007A44F7
:1038E00000C07F44E8070020800A00203C0100203F
:1038F00080010020AE010020B00100207E010020E8
:10390000140C01405C00002060000020FF48AAF871
:103910001A100560FE48056000E0A5714FF40050E4
:10392000FDF7C7FF30B1387918B1E07B10B9E67305
:1039300000E0E5730220FDF7A7FF18B90820FDF7A6
:10394000A3FFD0B198F80510404639B1617931B97B
:10395000F04966710A88F0490A8000E06571817952
:1039600019B1617A11B9667200E0657298F80700C2
:1039700018B1E8480188AAF81E102020FDF784FF3E
:10398000F0B3E07AE8B39AF80B005746052844D321
:1039900098F80A1059B1E07990BBE671DF492572B9
:1039A0003D72081F02F09BFA0220787039E0E57141
:1039B00098F80B0030B3D94A143AB2F90000002845
:1039C00000DC4042D649B1F8C01088421DDAB2F995
:1039D0000200002800DC4042884216DA207A78B9DA
:1039E000CE4826720C383D7200F1100102680A6060
:1039F000406841F8040FC948001D02F070FA02E067
:103A00000FE00AE001E07E700BE02572387A40B9E1
:103A10008AF8086002F038FA03E0E57125728AF846
:103A2000015098F80C0008B1A67200E0A5729BF84E
:103A30000500082801D00E2843D1657241E0DAF86C
:103A40005C005746042801DD401FF865052838D280
:103A5000DFE800F0030B151F2A000820FE65FDF7C4
:103A600013FF10B100F06DFC58BBF86D401CF865F9
:103A70000420FDF709FF10B100F073FB08BBF86DDF
:103A8000401CF8650420FDF7FFFE10B1FEF7D7FAE1
:103A9000B8B9F86D401CF8654FF48070FDF709FF68
:103AA00010B102F0C0F90CE0F86D401CF865102070
:103AB000FDF7EAFE08B100F0C6FC4FF40050FDF738
:103AC000F8FE04F018F9CAF83400BBF80C20574689
:103AD00012B1BB6DC31A71D41044D946B865FEF754
:103AE00045FAFFF7B3F804F006F97863398F411A05
:103AF000B981B8630820FDF7C7FE48B38749143978
:103B0000B1F9042002F145008A2822D8607900B377
:103B10008048038880480088181A00B210F1B40F5A
:103B200002DC00F5B47000B2B42802DBA0F5B4707A
:103B300000B299F9EC305B42434318B2637B3BB16E
:103B4000774B5B7A43431E2093FBF0F0101A88807A
:103B500003E070480188704801800420FDF794FE5E
:103B600058B3A07948B36E4991F8690038B36B48EF
:103B7000B7F91A201438B0F90630A3EB020CBCF1E7
:103B8000000F01DCA2EB030C91F868108C4509DDF5
:103B9000DFF878C19342CCF800507E7200DD4942D4
:103BA000194409E0797A21B15E490B685E490B60DE
:103BB0007D72574909881144C1803AE0E4E0FFE78B
:103BC000DFF85881B7F91A00A8F11408B8F90630DF
:103BD0001A1A002A01DD134600E0C31A91F8681092
:103BE0008B420FDDB98B4FF4FA6C114409B291FB93
:103BF000FCF34D4A0CFB131115681D441560B98385
:103C00007E7207E0797A29B146490A6846490A6016
:103C1000BD837D723E490988084400B2A8F80600B9
:103C2000B9F8D010B9F8D220963102F037FDA8F8D3
:103C300006003B4D95F86A0050B1E07808B920794C
:103C400030B13648394A1438C18812881144C180CD
:103C50002020FDF719FEE8B3E07908B9207AC8B34F
:103C6000207BB8B32B4CB4F9000006F035FE304E83
:103C7000314606F0AFFD08F05DF80090B4F90000A1
:103C800006F02AFE314606F0A5FD07F06DFC234C38
:103C9000064695F8B900303CDFF898A0A4F11C085E
:103CA00010B3A146B4F90200241DB4F90210401A61
:103CB00001F008FA15F8B92F514202F0EFFC6188C3
:103CC00008446080B9F90000B4F90010401A01F00E
:103CD000F9F900E04EE02A78514202F0DFFC218839
:103CE000084400B2208001E0B4F9000006F0F4FDC1
:103CF0008346009906F06EFD0546B4F9020006F011
:103D0000EBFD8146314606F065FD15E028000020F8
:103D100024000020B0010020B20100205801002042
:103D2000E80700205C000020600000200A0000205E
:103D300035FA8E3C00002041294606F045FD5546E7
:103D4000514606F07DFD06F0D5FDA8F8000044467A
:103D50005846314606F03EFD06464846009906F0B4
:103D600039FD314606F0DEFC294606F069FD06F015
:103D7000C1FD6080386C8047FEF721FDFEF7BFFC77
:103D8000BDE8F84FFEF7FBBCBDE8F88F034841786B
:103D9000002901D00021417070470000700A002006
:103DA0002DE9F843FE4CFF4BFF490026B4F8EE2006
:103DB0009846A1F1100004F0EAFB08B101260EE0DC
:103DC000B4F8EE10F84804F0F1FD40B9B4F8EE1084
:103DD000F54803F082FD10B9032004F05FF8F34DBD
:103DE0005FF0000794F8ED0006283CD2DFE800F011
:103DF0000707192833030220FDF753FD33E08DF840
:103E000000704FF44870E849ADF802001039684678
:103E100002F085FF08B10120287094F8ED00012818
:103E200021D06EB1E049B4F8EE204346A1F1100074
:103E300004F0ADFB0220287094F8ED0002281DD09C
:103E4000D948103804F0ACFC28B10320287094F84D
:103E5000ED00032812D0D448103805F01AFB10B139
:103E6000042028700AE0287840B994F8ED0010B1D9
:103E700084F8ED70B6E70220FDF713FDCA48103054
:103E800004F097FE38B9C848103002F0EFFF10B9BF
:103E90000420FDF706FD0220FDF7F6FC28B1C2491B
:103EA00094F8E300103909688847BF4914F8E20F15
:103EB00009688847A07803F0F3F810B90820FDF7E7
:103EC000F0FCBB486421B0F9262092FBF1F001FB25
:103ED000102406B20820FDF7D7FCB64D90B120465D
:103EE00006F0FAFCB44906F075FC0446304606F0CC
:103EF000F3FC214606F016FCB04906F06BFC286086
:103F0000BDE8F8832F60FBE770B50546A44890F83C
:103F1000060106F0EAFC0446284606F0E6FCA8493D
:103F200006F058FCA74906F08BFC214606F052FC2F
:103F300006F0F9FC80B270BD70B500252C4600205B
:103F400002F04AFE05440A2003F0FEFE641C202C09
:103F5000F5D3C5F34F10FFF7D7FF914A022192F82E
:103F6000073100BF03FB01F4844202D8491C062933
:103F7000F8D39548017092F80801484393490880A6
:103F800070BD2DE9F05FDFF82492914E884FB9F8AB
:103F90000220834C0025C2B38E4900204FF4C8781C
:103FA000424501D141F8205051F8203036F910C077
:103FB000634441F8203026F8105004EB4003401CC5
:103FC000A3F8FA500328EBDB012A19D10868C8309E
:103FD00090FBF8F024F8FA0F4868C83090FBF8F02E
:103FE00060808868C83090FBF8F1B9F80600081ABC
:103FF000A0803D850121FA3C7D850846FDF77FFACA
:10400000B9F80210491EA9F802100420FDF751FC6E
:10401000002874D0704BDFF894816E491A8808F13B
:1040200020080C31A8F1180A322A05D0F2B300207A
:104030009B46322A14D015E034F8FA0FA8F8000095
:104040006088A8F80200A088A8F80400B7F828C083
:10405000AAF800C0B7F82AC0FA3CAAF802C0E6E7FE
:1040600041F8205051F8203036F910C0634441F82F
:10407000203026F8105004EB4003401CA3F8FA50FF
:104080000328D6DB012A1AD15448554B058001205C
:104090001880544B02201870B8F8000024F8FA0F6A
:1040A000B8F802006080B8F8040000E00AE0A080E0
:1040B000BAF800303B85BAF80200FA3C7885521E07
:1040C000ABF8002048480288012A18D105800A6808
:1040D000322092FBF0F224F8FA2F4A6892FBF0F2B9
:1040E0006280896891FBF0F1B9F80600081AA08097
:1040F0003D850121FA3C7D850846FDF700FA3088B0
:1041000034F8FA1F401A308070886188401A708035
:10411000B088A188401AB080BDE8F09F224810B551
:10412000103841682A488847BDE8104029E730B573
:104130001E4C1F4AE06892F82F200146401C824224
:1041400000D10020294A1368224A183242F821304F
:10415000274952F820200D682B449A1A0A60E06023
:1041600030BD70B52348114C00682169411A01D552
:10417000002070BD20610C4D6069103578B1286950
:1041800080476868804728882169084420616A69F7
:1041900019491648904700206061022070BD2DE04B
:1041A0006C040020EC0800204C0C00207C01002056
:1041B000E8070020300000208988883C000020416A
:1041C0003333534000F07F4568010020EE000020AB
:1041D0007A0000201C0B0020DA000020E000002004
:1041E000DC000020C8000020DE000020A00000202D
:1041F0001C000020FC000020A4000020A8688047CC
:10420000E8688047FFF793FF0120606168882169B3
:1042100008442061012070BD2DE9F05FA24DA888FF
:1042200000286AD0DFF884820024A3464FF47A790C
:10423000A8F10C06A888484507D104EB840208EBD6
:10424000820146F824B0C1F810B0994F56F82410F6
:1042500037F91400014446F8241006F03DFB0146EE
:1042600004EB840208EB8200824600F0EFF827F8A6
:1042700014B0904F27F814B0A888012837D1DAF885
:104280001000012808DD401E06F026FB0146DAF882
:104290000C0006F0D5FA00E0002007F011FE82467F
:1042A000854890F8F800A8B106F01FFB514606F0CB
:1042B0004FFB0FD27D49A5F80490C8F810B0C1F8A3
:1042C00024B0C1F838B0C6F808B0C6F804B0C6F8D3
:1042D00000B00CE056F82400012200F5FA7090FBC3
:1042E000F9F027F814000F210A20FEF787FC641C60
:1042F000032C9FDBA888401EA8806D496D4A0020D2
:1043000031F8103032F810401B1B21F81030401CDF
:104310000328F5DB00E7654810B54C304168644878
:104320008847BDE8104077E710B564481024046062
:1043300002F005FF6148001F04605B4901204870DE
:1043400010BD2DE9F0415E48574C0068A169411A43
:1043500002D50020BDE8F0815A490844A0615A48BE
:1043600002F0B5FEDFF864C14F4B00269CF80E004A
:104370005549514A26339D1D88B1A069E06100204E
:1043800002EB4007A7F8006131F8107023F81070B5
:1043900025F81070401C0328F2D38CF80E6060786A
:1043A00070B10888B2F80071C01B08804888B2F864
:1043B0000271C01B48808888B2F80471C01B8880D5
:1043C000E06998B3A769381A414FB84218D23B4800
:1043D0000838026882F008020260002031F91020DB
:1043E00033F91040A24201DA23F8102035F91040C9
:1043F000A24201DD25F81020401C0328EED315E071
:104400000020E66133F9101035F91040214402EB29
:10441000400401EBD17141F34F01401CA4F800119D
:104420000328EFD301210846FDF769F8012091E741
:1044300010B5012004F001FA1020FDF72DFA2549EE
:104440000020086010BD234804F04BBA2DE9F0416C
:10445000044600690E46401C206101281FD006F06A
:104460003BFA256880462946304606F0ADF90746F6
:10447000414606F0E5F9294606F054F90546606024
:104480002946304606F0A0F90146384606F0A2F962
:10449000A16806F047F92560E060A0605AE7666011
:1044A00000202660F9E700007C010020000C0020BD
:1044B00074000020A80000206C040020140C0140AF
:1044C000FC000020A086010086000020700A002069
:1044D00080C3C901B000002070B5FB4CFB4EC1B2D7
:1044E0000546A170306804F0F5FFE079A1784840F6
:1044F000E071C5F30721A170306804F0EBFFE079AB
:10450000A1784840E071C5F30741A170306804F01C
:10451000E1FFE079A1784840E071290EA170306890
:1045200004F0D8FFE079A1784840E07170BD70B523
:10453000E54CE64EC1B20546E170306804F0CAFFB2
:10454000E079E1784840E071C5F30721E170306817
:1045500004F0C0FFE079E1784840E07170BD10B52B
:104560000446DA482146006804F0B4FFD648C17911
:104570006140C17110BDD44AD548117A405C491CD4
:104580001172704700B5FFF7F6FF0346FFF7F3FF20
:1045900003EB002080B200BD10B5FFF7F3FF044627
:1045A000FFF7F0FF04EB004010BD70B504460D4668
:1045B0002420FFF7D4FF4D20FFF7D1FF0CB12120BD
:1045C00000E03E20FFF7CBFFBF4C0020E071284603
:1045D000FFF7C5FF607ABDE87040C0E701460020E4
:1045E000E3E701460120E0E7B748C079B7E770B5D7
:1045F00004460D460846FFF7F1FF03E014F8010BEF
:10460000FFF7ADFF2800A5F10105EDB2F6D170BDB1
:1046100010B5044603E000BFFFF7A1FF641C20783B
:104620000028F9D110BD2DE9F05FDFF89CB2DFF86A
:10463000989201274FF0000A0BF10C0B00251AE0AD
:10464000A3481438405D00EB40010BEB8108D8F81B
:10465000040006F03AF806460FB1B2440AE000241E
:1046600006E000BFD8F80400005DFFF778FF641C87
:10467000B442F7DB6D1C99F800008542E0DB002FA7
:1046800005D00AF0FF00FFF7A9FF0027D6E7BDE835
:10469000F09F70B50246032300218E4803F0D4FC3E
:1046A0008A49FF2208608A481421143805F0C7FFA0
:1046B000874D0020143D012428700220FDF7E4F806
:1046C00020B1012068700220A87003240420FDF7A7
:1046D000DBF850B103202855641C4FF40050FDF75F
:1046E000E8F810B104202855641C0220FDF7CCF82E
:1046F00018B90820FDF7C8F840B105202855641CFA
:1047000006202855641C07202855641C2020FDF72E
:10471000D0F810B108202855641C4FF48070FDF7C4
:10472000C8F828B10A202855641C0B202855641CA1
:1047300069484079082801D00E2802D10C2028555C
:10474000641C0D202855641C0420FDF7B2F810B13C
:1047500011202855641C132028555B48641C0470E4
:1047600070BD2DE9F05F584EDFF864B14FF00008DE
:10477000717A594D594C5A4FC1464FF0010AABF16D
:10478000140B782978D011DC3046A1F1640100784F
:1047900014293BD2DFE801F0FCFBFAF9F8F7F6F553
:1047A000F4F3F2F1F0EFEEEDECEBEAE94C48CF294F
:1047B000407871D014DCCA295FD008DCA0296CD005
:1047C000A4296BD0C82927D0C9291FD138E0CB290B
:1047D00065D0CC2971D0CD2970D0CE2916D17BE3FC
:1047E000D4296CD00ADCD0296AD04FF00008D12936
:1047F00067D0D22966D0D32908D1DFE0EF2918D0BD
:10480000F02960D0FA2979D0FE2978D00020FFF76E
:10481000E8FEBDE8F05FE7E60024324DFFF7B2FEA8
:1048200025F81400641C082CF8D30020FFF7D6FEEE
:10483000EFE7FFF7A7FE6085FFF7A4FE2085F4E70A
:10484000FFF799FEF872FFF796FE27490870FFF709
:10485000A3FE264C2060FFF79FFE6060FFF792FEEC
:1048600023490880FFF78EFE2249088022480178FC
:1048700041F002010170D8E761E10023FFF77BFE00
:10488000E5186870FFF777FEE872FFF774FE5B1CAF
:1048900068750A2BF2D3C8E749E04BE35CE30025D7
:1048A0005F4606E0FFF76EFE795D6D1C04EB41018B
:1048B000C88730788542F5D3B7E721E005E358E1B2
:1048C000FDE2C9E26BE02BE3B4010020DC0800202C
:1048D000880C0020003801406C040020E80700200C
:1048E000700A0020800A0020D30000204C01002024
:1048F000760100207801002064010020F1E2F2E25C
:10490000FFF739FE04F81F0FFFF735FE6070FFF761
:1049100032FE2071FFF72FFE6071FFF72CFEA071B1
:10492000FFF729FEA070FFF726FEE0707DE7FFF796
:1049300029FEFFF727FEE93525F8190CFFF72CFEB5
:10494000FFF720FEA4F8AE00FFF71CFEFFF724FEE1
:10495000FFF718FE00EB80004000E084FFF70BFE3D
:104960006877FFF708FEE87713E0D2E150E2B3E1A1
:10497000CCE10CE2DAE1B6E19CE183E174E16AE1C9
:1049800051E13EE120E111E10BE1D5E0A1E028E0B9
:1049900018E0FFF7F0FDA877FFF7EDFD45E70028E9
:1049A0008AD1FFF7E8FD85F87803022801D985F858
:1049B000788300210020FCF7A2FD36E7FFF7E2FD37
:1049C000F94987E20720FFF709FEE620FFF7C7FD58
:1049D0006879FFF7C4FD0020FFF7C1FD4FF00040EC
:1049E000B7E20B20FFF7FAFDF048008800B2FFF7AE
:1049F0009EFD02F0AEFE00B2FFF799FD0220FCF72B
:104A000043FF04460420FCF73FFF44EA400408202B
:104A1000FCF73AFF44EA80042020FCF735FF44EA23
:104A2000C0041020FCF730FF44EA0010FFF77FFDC0
:104A3000F9783A79490041EA8201BA79002041EADD
:104A4000C2017A79367841EA42117A7AD44641EA4B
:104A50008211D74AD37941EAC311137A41EA03217B
:104A6000537A41EA4321FB7941EA83213B7A41EAC7
:104A7000C321BB7A41EA0331537B41EA4331937B43
:104A800041EA8331137C41EA0341137941EA03117E
:104A9000537C41EA4341937CD27C41EA834141EA21
:104AA000C24479785F460C43002208E0BB5C0CFAF4
:104AB00003F3234202D00CFA02F10843521CB24223
:104AC000F4D3FFF709FD95F8780300BFFFF747FD22
:104AD0009FE61220FFF782FDB648B74D4FF0000465
:104AE0000088B0F5806F0BD935F91400C11700EBC1
:104AF0005170C010FFF71BFD641C032CF4D306E0BB
:104B000035F91400FFF713FD641C032CF8D3AB4DEB
:104B1000002400BF35F91400FFF709FD641C032CC5
:104B2000F8D3A74D002400BF35F91400FFF7FFFCB0
:104B3000641C032CF8D36CE61021A24833E0382023
:104B4000FFF74CFD5FF0000504EBC50636F96C0F6E
:104B5000FFF7EDFCB6F90200FFF7E9FCB6F9040037
:104B6000FFF7E5FCB079FFF7FAFC6D1C082DEBD3DD
:104B70004FE60020FFF732FD5FF00005FFF702FD72
:104B800004EBC50626F86C0FFFF7FCFC7080FFF7FE
:104B9000F9FCB080FFF7EFFC6D1CB071082DEDD370
:104BA00037E610218848FFF722FD32E61020FFF794
:104BB00015FD864D002400BF35F91400FFF7B7FC42
:104BC000641C082CF8D324E61020FFF707FDF87AC0
:104BD000FFF7C5FC7E480078FFF7C1FC7D4C2068DC
:104BE000FFF77AFC6068FFF777FC7B48008800B22B
:104BF000FFF79DFC7948008800B2FFF798FC7848E1
:104C00003DE00520FFF7EAFC7648008800B2FFF798
:104C10008EFC7548B0F90000FFF789FC73480078F6
:104C200000F0010052E70820FFF7D8FC704D002487
:104C300035F91400FFF77BFC641C022CF8D36D4897
:104C4000B0F90000FFF773FC6B48B0F9000000BF3B
:104C5000FFF76DFCDDE50620FFF7C0FC6748006844
:104C6000FFF73AFC66480AE00520FFF7B7FC654805
:104C70000078FFF774FC0020FFF759FC62480088B9
:104C800000B2E5E70720FFF7A9FC14F81F0FFFF7B4
:104C900066FC6078FFF763FC2079FFF760FC6079C1
:104CA000FFF75DFCA079FFF75AFCA078FFF757FCEF
:104CB000E0780BE71E20FFF791FC0025661970785D
:104CC000FFF74DFCF07AFFF74AFC707DFFF747FCD9
:104CD0006D1C0A2DF2D39CE52F20FFF77FFC4B487B
:104CE000FFF796FC95E54006000EFFF777FC0025E0
:104CF0005F4607E0785D04EB4000B0F93E00FFF747
:104D000016FC6D1C30788542F4D382E5FFF78BFCEE
:104D10007FE5FFF763FC00245D4603E0285DFFF7B5
:104D20001EFC641C30788442F8D372E53220FFF711
:104D300055FC0020FFF7FBFB35F9D00FFFF7F7FB21
:104D4000B5F90200FFF7F3FBB5F90400FFF7EFFB3D
:104D5000B4F9AE00FFF7EBFB0020FFF7E8FB002003
:104D6000FFF7BAFBB4F926000A2190FBF1F000B27C
:104D7000FFF7DDFB95F83600FFF7F1FB95F83800FB
:104D8000FFF7EDFB95F83700FFF7E9FB62E008203D
:104D9000FFF724FC0024601CC0B2FFF7E0FB641C9A
:104DA000082CF8D335E50000B2010020D400002023
:104DB000C60A002082010020800000206800002038
:104DC00086000020B6000020F0080020800A0020A5
:104DD000D30000204C010020760100207801002043
:104DE000660100207201002074010020640100208F
:104DF00034000020B0010020E60000205C0000200C
:104E00002C000020D2000020EA00002084CC000802
:104E1000FFF7B1FB04461220FFF7E0FB14B1102CA2
:104E200002D004E0954800E09548D0E9008920468A
:104E3000FFF795FB4046FFF74FFB4846FFF74CFB5B
:104E400090480068FFF748FB0020FFF770FB002048
:104E5000FFF76DFB002039E6FFF78DFB8446FFF777
:104E60009BFB0546FFF798FB0646FFF795FB0446BC
:104E7000FFF788FBFFF786FBFFF77DFBBCF1000F18
:104E800011D0BCF1100F7FF4DAAC7D49C1E90056B6
:104E90000CB17C4804607C4A0220091D10707848DF
:104EA00001F01DF8C1E47548002CC0E9005687F8F0
:104EB000078087F80CA0F5D072480460B5E400289C
:104EC000F0D10120FCF7D1FCAFE40028EAD16F4912
:104ED0004FF4C8700880A8E40028E3D187F80EA03A
:104EE000A3E4012166E50820FFF778FB68486A4AD9
:104EF0006A4D016867481268B1FBF0F1B2FBF0F04F
:104F000000EB4002C2EBC01001EBC000E8800024BF
:104F100035F91400FFF70BFB641C042CF8D378E47C
:104F20000420FFF75BFBB4F92A00FFF700FBB4F99C
:104F300028008DE60C20FFF751FB59480068FFF769
:104F4000CBFA5748001D0068FFF7C6FA54480830EE
:104F50000068FFF7C1FA5CE4524D29780AEB810042
:104F6000C0B2FFF73BFB2878FFF7F9FA00244E4E5A
:104F70004E4FDFF83C81DFF83C910EE0305DFFF7EB
:104F8000EEFA385DFFF7EBFA18F80400FFF7E7FADE
:104F900019F80400FFF7E3FA641C28788442EDD383
:104FA00037E470B5444C454E0025607810B3BDE839
:104FB0007040FBF7B5BF306804F09FFAA17951B19A
:104FC00001291CD002291FD0032923D0042929D06C
:104FD00005293FD12CE0242803D00021A17149B933
:104FE00001E00121FAE7232802D0522832D102E061
:104FF000FBF796FF2EE0012002F071FF2AE04D281A
:1050000004D10220A07125E03C2801D00020F9E75E
:105010000320F7E740281CD8607125712572E071E4
:105020000420EFE76072E1794140E1710520E9E792
:1050300021796279914207D2E2794240E271204AB5
:105040005054491C217105E0E179814201D1FFF7FB
:1050500088FBA571306804F04DFA0028ABD1607868
:10506000002809D14FF40060FCF723FC002803D08E
:10507000BDE8704001F0E3B970BD000054010020AC
:105080005C01002060000020C90000207E0100209B
:105090000804002040420F000C0400206A01002098
:1050A000E8F7FF1F7A010020DA0A0020EA0A002050
:1050B000FA0A00200A0B0020B4010020DC080020BE
:1050C000880C002044F25061884201DDA0EB4100D1
:1050D000FE49884202DA48F6A041084470472DE9AB
:1050E000F04706465068994614460D46301A05F0BA
:1050F000F3FB296805F0A4FB2061A768394605F099
:1051000063FB8046F24890F8B80005F0EEFBF149E9
:1051100005F060FB01464FF07E5005F091FB2D68D5
:10512000294605F0FFFA0146284605F089FB41466D
:1051300005F050FB394605F0F5FA2061C4E901603D
:105140000146D9F8080005F045FBBDE8F04705F039
:10515000D1BB2DE9F0411D4614460E4605F0BCFBBF
:10516000696805F037FB316805F034FB216805F00C
:10517000D9FA2060ED680746284605F0BBFB0646D5
:1051800085F0004005F0B6FB0546384605F0B2FB59
:105190003246294601F082FA05F09EFB2060BDE808
:1051A000F04105F0A7BB70B5CB4CD4E90D01401A16
:1051B000FFF788FF0028D4E90D01A0EB010002DD14
:1051C000FFF780FF02E0FFF77DFF404241F29411BC
:1051D000884228DAD4E90D01401A05F07DFBBF4969
:1051E00005F0F8FA0646E06B05F07FFB0546304611
:1051F00006F0A0FD294605F0EDFA05F07BFB00B2B4
:1052000040F6B8322082514201F048FA616B0844FE
:1052100048F6A0416064884200DD401A002800DAA8
:105220000844606470BD606BFBE72DE9FE4F0546E6
:10523000FFF7B9FFA84842F22831406C081A05F080
:105240004BFBA64905F0C6FA044606F08DF901901D
:10525000204606F06FFD00900024284605F03CFB38
:10526000DFF874A2DFF87892DFF878B20AF1300A3A
:10527000029099481A3030F9140005F02DFB0546CC
:105280005DF82410029805F0A5FA294605F09CFA6D
:1052900005F030FB00B24FF47A7255462AF814003C
:1052A000514201F0FBF98E4900B225F81400603933
:1052B00000F03CFE04EB8406894B8749074609EB66
:1052C0008602904635F91400603B2831FFF741FF14
:1052D000834B81490744424635F91400603B28312D
:1052E000FFF7FDFE384400B240F6B8325D462BF8B9
:1052F0001400514201F0D2F925F81400784859F809
:1053000026102838641C40F82610022CB1DBBDE8BA
:10531000FE8F2DE9F05F704E0024DFF8C491503607
:10532000DFF8C0B1A6F1360AA9F128096C4956F890
:105330002400803900F0FAFD3AF81410664F401A44
:105340003037674900B227F81400703900F0EEFDDD
:10535000054637F9140056F8241004EB8407084476
:105360005F4B5D4909EB87029046703B2831FFF7A0
:10537000F0FE28445A4B58492BF814005D4642462B
:1053800056F82400703B2831FFF7A9FE4FF4FA626B
:10539000514201F083F93AF914103131622900D8F1
:1053A000002035F8141040F6B832084400B225F851
:1053B0001400514201F072F925F81400484859F8D8
:1053C0002710641C40F82710022CAFDBBDE8F09FCB
:1053D00070B50546086819681446401A05F07CFA4D
:1053E0003D49C96A05F0F6F905F084FA01463A48E4
:1053F0005030416029682268891A016070BD2DE92A
:10540000F0410F46DDE90685116800681E46081A5E
:1054100005F062FA044630683968401A05F05CFA13
:105420002D49C96A05F0D6F90646014605F0D2F9BC
:1054300007462146084605F0CDF9394605F072F9D0
:1054400006F03EFD284905F0C5F905F06CFAC8F8EC
:10545000000084F00040314605F05CFF234905F070
:10546000B9F9234905F05EF905F044FA28600028EF
:1054700003DA48F6A04108442860BDE8F0812DE930
:10548000F0471C48144CD0E90056617804F14809F3
:1054900091B34FF07E50A16A05F0D2F98246D9F857
:1054A0000400301A05F018FAE16A05F093F9514644
:1054B00005F090F905F01EFA07B2D9F8000004F1E2
:1054C0001A08281A05F008FA514616E0B0B9FFFF8D
:1054D000E8070020DB0FC940BC020020D3023739A7
:1054E000680D0020280100202C7D8E3FA00CB345C4
:1054F00000A00C464C0100201AE005F06BF905F005
:10550000F9F901B204F12400B0F902203A4402EBA7
:10551000D27242F34F02A8F80220B0F900301944C9
:1055200001EBD17141F34F01A8F8001042800180D6
:1055300001206070C9E90056BDE8F08710B5044647
:1055400005F0CAF9002C01DC80F00040F74905F0B5
:1055500077F9F74905F03EF906F006F8F549C86213
:1055600010BD10B5F44CE07A002811D0F348007853
:1055700005280DD3F249F34A086810604968516064
:10558000FFF7DCFFF048EB49008888820120207398
:1055900010BD2DE9F043E749EC48E74B8E7A012531
:1055A00002790024062E29D004DC022E09D0032E15
:1055B00004D116E0122E33D0302E3DD00020BDE8AD
:1055C000F083DF4A466856608668166000694FF4CB
:1055D0007A7290FBF2F0DE4A1080C87AD8724D736E
:1055E00051E04079C00701D0032A03D00020C872DF
:1055F00010B148E00120FAE7DC7244E0C27AD20739
:1056000002D0827A032A03D00022CA7212B102E0C9
:105610000122FAE7DC72C94A90F82F00107032E0DC
:10562000CC4B828A1A80806942F2107290FBF2F0B1
:10563000C94A10808D7326E0C84B102A1A7001D910
:1056400010221A700022C64EC64FDFF81CC3DFF8C6
:105650001C931D7815E000BF02EB420300EB8303AF
:1056600093F8088006F8028093F8098007F8028012
:1056700093F80B800CF8028093F80C8009F80280F4
:10568000521CAA42E8DB487B8A7B104097D04C73BF
:105690008C73012093E72DE9F041A64900240A46C6
:1056A00091F809E092F807C0157A0CEB0003D78A4D
:1056B000DEB22246BEF1090F51D2DFE80EF0080536
:1056C0000F151C2333434900622803D04A72B528C2
:1056D00002D044E0022033E0012031E003224A728C
:1056E0000873C87108723AE004224A72CE717219C6
:1056F0000A72887233E005224A72CE7172190A72F8
:10570000C8822CE006234B72731907EB0020CE7180
:1057100080B20B72C882B0F5007F01D9CA824A728A
:105720000A831CE0CE7172190A720A8BC82A01D250
:10573000864B9854521C90B20883B8420FD1072070
:1057400048720CE008234B72844508D04A7206E088
:105750004A72854203D1FFF71CFF00B101242046A5
:105760008BE670B5034600200246054611E02E2C5C
:1057700004D1521C00290FD054181D559C5C00EB1D
:1057800080004000A4F13006092E01D830382044B2
:10579000521C9C5C002CEAD170BD2DE9F041002622
:1057A000804635463746044604F00AFF016800E0AB
:1057B000641C2078085C2028FAD0404609E01EB11D
:1057C00006EB86025206160E10F8012B303E3244CC
:1057D000D6B2221A022AF2DC09E01DB105EB8502DD
:1057E0005206150E10F8012B303D2A44D5B28442E2
:1057F000F3D820782E280ED1641C002007EB8702F6
:10580000570022788B5C202B02D1303F1744641C58
:10581000401C0428F2DB56480621454307EBC7002D
:1058200000EB071005EB8000B0FBF1F051494E434F
:1058300000EBC61021E62DE9F04700273D4C054658
:10584000242815D0414E2046F03EC0782C2D13D090
:105850002A2D11D021460D2D497964D00A2D62D010
:105860000F2802D23554401CE07000295CD0BAE009
:10587000A770E7702771B6E03754A0784FF00109A0
:1058800028B1A179012921D002294ED0A2E0A77127
:105890003078472807D17078502804D1B07847284D
:1058A00002D0522809D095E0F078472804D1307909
:1058B000412801D184F806908CE0F0784D2804D17D
:1058C0003079432801D10220A07183E0DFF8708095
:1058D00002280CD003280FD0042816D0052819D090
:1058E000062849D0072850D0092855D072E017481B
:1058F000F038FFF752FF05E0307853286AD1D8F826
:1059000000004042C8F8000064E01048F038FFF79B
:1059100044FF05E0307857285CD1D8F804004042B5
:10592000C8F8040056E063E05AE03BE08096184B6C
:1059300035FA8E3CBC020020700A0020D300002003
:105940004C01002054010020B0010020B80D0020BF
:105950007601002078010020660100207A010020F5
:10596000DA0A0020EA0A0020FA0A00200A0B0020C6
:1059700040420F002D3101003078302801D901203C
:1059800000E00020FE49C87224E00021FD48FFF736
:10599000E8FEFD4908701DE00021FA48FFF7E1FE2E
:1059A000FA4916E0072802D008280DD012E001219C
:1059B000F448FFF7D6FE41F2184148434FF47A719C
:1059C000B0FBF1F0F24904E00121EE48FFF7C9FE17
:1059D000F0490880A078401CA070E7702A2D04D000
:1059E0002079684020710020A6E584F80590FAE748
:1059F0000029F8D0307800F0C7FA0501707800F07F
:105A0000C3FA28442179C0B288426771EBD1A079EA
:105A10000128E8D190E52DE9FF5FDF49C0B291F898
:105A20001C1119B1012904D002297CD1FFF703FF11
:105A300001E0FFF730FE002875D0D24C1034A0688A
:105A4000E06002F072F9A0602020FBF725FFD34848
:105A50004FF0000B0178012910D001210170C848D6
:105A6000C17A00295FD0C849097805295BD38246ED
:105A7000407830B19AF80C1031B108E080F800B0ED
:105A8000EDE78AF80CB002E008B1FFF76AFDC44800
:105A900005218E460278C44C521CB2FBF1F301FB87
:105AA0001322C0490270002091F90090BC4954F8BB
:105AB00020306831BA4D41F82030BC49783593FB2D
:105AC000F1F145F82010BA4D00EB80074D4303EB90
:105AD000C51342F2107593FBF5F5AEB2B04D4035EB
