:020000040800F2
:1000000000500020D9160008891700088127000831
:1000100089170008891700088917000800000000E8
:100020000000000000000000000000008917000828
:100030008917000800000000891700088D43000898
:100040008917000889170008891700088917000810
:100050008917000889170008891700088917000800
:1000600089170008891700088917000889170008F0
:100070008917000889170008A1420008891700089D
:1000800089170008891700088917000889170008D0
:1000900089170008891700088917000889170008C0
:1000A00089170008891700088917000889170008B0
:1000B000791100088917000889170008213C0008F9
:1000C000093E0008253C0008053E00088917000885
:1000D00089170008D5420008114300088917000855
:1000E0008917000889170008891700080000000018
:1000F0000000000000000000000000000000000000
:0C01000000000000000000005FF808F1A3
:1001100010B5054C237833B9044810B10448AFF347
:1001200000800121217010BDD405002000000000D6
:1001300000FF000808B5064B1BB106480649AFF39F
:1001400000800648016811B1054A02B1904708BD18
:100150000000000000FF0008D8050020D4050020A2
:100160000000000081F0004102E000BF83F0004386
:1001700030B54FEA41044FEA430594EA050F08BF42
:1001800090EA020F1FBF54EA000C55EA020C7FEA06
:10019000645C7FEA655C00F0E2804FEA5454D4EB83
:1001A0005555B8BF6D420CDD2C4480EA020281EA4D
:1001B000030382EA000083EA010180EA020281EA85
:1001C0000303362D88BF30BD11F0004F4FEA0131D7
:1001D0004FF4801C4CEA113102D0404261EB4101E6
:1001E00013F0004F4FEA03334CEA133302D052426C
:1001F00063EB430394EA050F00F0A780A4F1010428
:10020000D5F1200E0DDB02FA0EFC22FA05F2801861
:1002100041F1000103FA0EF2801843FA05F3594147
:100220000EE0A5F120050EF1200E012A03FA0EFCC6
:1002300028BF4CF0020C43FA05F3C01851EBE371F0
:1002400001F0004507D54FF0000EDCF1000C7EEB0D
:1002500000006EEB0101B1F5801F1BD3B1F5001F4B
:100260000CD349085FEA30004FEA3C0C04F101046A
:100270004FEA445212F5800F80F09A80BCF1004F93
:1002800008BF5FEA500C50F1000041EB045141EA15
:10029000050130BD5FEA4C0C404141EB010111F416
:1002A000801FA4F10104E9D191F0000F04BF0146C1
:1002B0000020B1FA81F308BF2033A3F10B03B3F19F
:1002C00020020CDA0C3208DD02F1140CC2F10C022F
:1002D00001FA0CF021FA02F10CE002F11402D8BF8D
:1002E000C2F1200C01FA02F120FA0CFCDCBF41EA59
:1002F0000C019040E41AA2BF01EB0451294330BD28
:100300006FEA04041F3C1CDA0C340EDC04F1140404
:10031000C4F1200220FA04F001FA02F340EA0300DB
:1003200021FA04F345EA030130BDC4F10C04C4F121
:10033000200220FA02F001FA04F340EA0300294601
:1003400030BD21FA04F0294630BD94F0000F83F44B
:10035000801306BF81F480110134013D4EE77FEA2E
:10036000645C18BF7FEA655C29D094EA050F08BF7A
:1003700090EA020F05D054EA000C04BF194610465B
:1003800030BD91EA030F1EBF0021002030BD5FEA9F
:10039000545C05D14000494128BF41F0004130BDC7
:1003A00014F580043CBF01F5801130BD01F000451B
:1003B00045F0FE4141F470014FF0000030BD7FEA8E
:1003C000645C1ABF194610467FEA655C1CBF0B4689
:1003D000024650EA013406BF52EA033591EA030FA0
:1003E00041F4002130BD00BF90F0000F04BF002198
:1003F000704730B54FF4806404F132044FF00005CB
:100400004FF0000150E700BF90F0000F04BF002143
:10041000704730B54FF4806404F1320410F00045A9
:1004200048BF40424FF000013EE700BF42004FEAA4
:10043000E2014FEA31014FEA02701FBF12F07F4321
:1004400093F07F4F81F06051704792F0000F14BF1E
:1004500093F07F4F704730B54FF4607401F0004562
:1004600021F0004120E700BF50EA010208BF7047B9
:1004700030B54FF000050AE050EA010208BF7047AE
:1004800030B511F0004502D5404261EB41014FF417
:10049000806404F132045FEA915C3FF4DCAE4FF01B
:1004A00003025FEADC0C18BF03325FEADC0C18BF02
:1004B000033202EBDC02C2F1200300FA03FC20FA53
:1004C00002F001FA03FE40EA0E0021FA02F11444A0
:1004D000C1E600BF70B54FF0FF0C4CF4E06C1CEAB5
:1004E00011541DBF1CEA135594EA0C0F95EA0C0F2A
:1004F00000F0DEF82C4481EA030621EA4C5123EA9D
:100500004C5350EA013518BF52EA033541F48011CB
:1005100043F4801338D0A0FB02CE4FF00005E1FB7E
:1005200002E506F00042E0FB03E54FF00006E1FBC8
:1005300003569CF0000F18BF4EF0010EA4F1FF040B
:10054000B6F5007F64F5407404D25FEA4E0E6D414B
:1005500046EB060642EAC62141EA55514FEAC5205C
:1005600040EA5E504FEACE2EB4F1FD0C88BFBCF5D8
:10057000E06F1ED8BEF1004F08BF5FEA500E50F189
:10058000000041EB045170BD06F0004646EA01014F
:1005900040EA020081EA0301B4EB5C04C2BFD4EB81
:1005A0000C0541EA045170BD41F480114FF0000E7A
:1005B000013C00F3AB8014F1360FDEBF002001F0E8
:1005C000004170BDC4F10004203C35DA0C341BDC62
:1005D00004F11404C4F1200500FA05F320FA04F034
:1005E00001FA05F240EA020001F0004221F0004168
:1005F00010EBD37021FA04F642EB06015EEA430EDB
:1006000008BF20EAD37070BDC4F10C04C4F120050A
:1006100000FA04F320FA05F001FA04F240EA0200BD
:1006200001F0004110EBD37041F100015EEA430E8E
:1006300008BF20EAD37070BDC4F1200500FA05F2AE
:100640004EEA020E20FA04F301FA05F243EA02032D
:1006500021FA04F001F0004121FA04F220EA02003C
:1006600000EBD3705EEA430E08BF20EAD37070BD82
:1006700094F0000F0FD101F00046400041EB010162
:1006800011F4801F08BF013CF7D041EA060195F044
:10069000000F18BF704703F00046520043EB0303FE
:1006A00013F4801F08BF013DF7D043EA06037047EB
:1006B00094EA0C0F0CEA135518BF95EA0C0F0CD0F6
:1006C00050EA410618BF52EA4306D1D181EA03013C
:1006D00001F000414FF0000070BD50EA410606BF36
:1006E0001046194652EA430619D094EA0C0F02D17B
:1006F00050EA013613D195EA0C0F05D152EA0336C0
:100700001CBF104619460AD181EA030101F00041DD
:1007100041F0FE4141F470014FF0000070BD41F026
:10072000FE4141F4780170BD70B54FF0FF0C4CF400
:10073000E06C1CEA11541DBF1CEA135594EA0C0F1F
:1007400095EA0C0F00F0A7F8A4EB050481EA030E6C
:1007500052EA03354FEA013100F088804FEA033353
:100760004FF0805545EA131343EA12634FEA022221
:1007700045EA111545EA10654FEA00260EF00041E2
:100780009D4208BF964244F1FD0404F5407402D234
:100790005B084FEA3202B61A65EB03055B084FEAC5
:1007A00032024FF480104FF4002CB6EB020E75EBC2
:1007B000030E22BFB61A754640EA0C005B084FEAEA
:1007C0003202B6EB020E75EB030E22BFB61A754667
:1007D00040EA5C005B084FEA3202B6EB020E75EBB2
:1007E000030E22BFB61A754640EA9C005B084FEA2A
:1007F0003202B6EB020E75EB030E22BFB61A754637
:1008000040EADC0055EA060E18D04FEA051545EA25
:1008100016754FEA06164FEAC30343EA52734FEACE
:10082000C2025FEA1C1CC0D111F4801F0BD141EA47
:1008300000014FF000004FF0004CB6E711F4801FAC
:1008400004BF01430020B4F1FD0C88BFBCF5E06F8C
:100850003FF6AFAEB5EB030C04BFB6EB020C5FEA9C
:10086000500C50F1000041EB045170BD0EF0004EF1
:100870004EEA113114EB5C04C2BFD4EB0C0541EA23
:10088000045170BD41F480114FF0000E013C90E620
:1008900045EA060E8DE60CEA135594EA0C0F08BFE4
:1008A00095EA0C0F3FF43BAF94EA0C0F0AD150EAE3
:1008B00001347FF434AF95EA0C0F7FF425AF104676
:1008C00019462CE795EA0C0F06D152EA03353FF49E
:1008D000FDAE1046194622E750EA410618BF52EA1B
:1008E00043067FF4C5AE50EA41047FF40DAF52EAEF
:1008F00043057FF4EBAE12E74FEA4102B2F1E04369
:1009000024BFB3F5001CDCF1FE5C0DD901F0004CF6
:100910004FEAC0024CEA5070B2F1004F40EB830046
:1009200008BF20F00100704711F0804F21D113F172
:100930003872BCBF01F00040704741F480114FEAAB
:100940005252C2F11802C2F1200C10FA0CF320FA34
:1009500002F018BF40F001004FEAC1234FEAD32351
:1009600003FA0CFC40EA0C0023FA02F34FEA4303BB
:10097000CCE77FEA625307D150EA01331EBF4FF044
:10098000FE4040F44000704701F0004040F0FE405F
:1009900040F40000704700BF80F0004002E000BF5C
:1009A00081F0004142001FBF5FEA410392EA030F5A
:1009B0007FEA226C7FEA236C6AD04FEA1262D2EBA4
:1009C0001363C1BFD218414048404140B8BF5B42A9
:1009D000192B88BF704710F0004F40F4000020F042
:1009E0007F4018BF404211F0004F41F4000121F058
:1009F0007F4118BF494292EA030F3FD0A2F10102A2
:100A000041FA03FC10EB0C00C3F1200301FA03F1DF
:100A100000F0004302D5494260EB4000B0F5000F02
:100A200013D3B0F1807F06D340084FEA310102F1C1
:100A30000102FE2A51D2B1F1004F40EBC25008BF73
:100A400020F0010040EA03007047490040EB00003D
:100A500010F4000FA2F10102EDD1B0FA80FCACF16C
:100A6000080CB2EB0C0200FA0CF0AABF00EBC2506B
:100A700052421843BCBFD0401843704792F0000F59
:100A800081F4000106BF80F400000132013BB5E7AC
:100A90004FEA41037FEA226C18BF7FEA236C21D022
:100AA00092EA030F04D092F0000F08BF0846704787
:100AB00090EA010F1CBF0020704712F07F4F04D155
:100AC000400028BF40F00040704712F100723CBF68
:100AD00000F50000704700F0004343F0FE4040F492
:100AE000000070477FEA226216BF08467FEA236350
:100AF0000146420206BF5FEA412390EA010F40F43B
:100B0000800070474FF0000304E000BF10F0004386
:100B100048BF40425FEA000C08BF704743F096436D
:100B200001464FF000001CE050EA010208BF704788
:100B30004FF000030AE000BF50EA010208BF70470F
:100B400011F0004302D5404261EB41015FEA010C24
:100B500002BF84460146002043F0B64308BFA3F11C
:100B60008053A3F50003BCFA8CF2083AA3EBC253FE
:100B700010DB01FA02FC634400FA02FCC2F120021D
:100B8000BCF1004F20FA02F243EB020008BF20F054
:100B90000100704702F1200201FA02FCC2F12002BA
:100BA00050EA4C0021FA02F243EB020008BF20EAAF
:100BB000DC7070474FF0FF0C1CEAD0521EBF1CEADD
:100BC000D15392EA0C0F93EA0C0F6FD01A4480EACB
:100BD000010C400218BF5FEA41211ED04FF00063B4
:100BE00043EA501043EA5111A0FB01310CF00040E0
:100BF000B1F5000F3EBF490041EAD3715B0040EA06
:100C0000010062F17F02FD2A1DD8B3F1004F40EBD5
:100C1000C25008BF20F00100704790F0000F0CF0A8
:100C2000004C08BF49024CEA502040EA51207F3A6C
:100C3000C2BFD2F1FF0340EAC250704740F4000047
:100C40004FF00003013A5DDC12F1190FDCBF00F038
:100C500000407047C2F10002410021FA02F1C2F1E6
:100C6000200200FA02FC5FEA310040F1000053EA82
:100C70004C0308BF20EADC70704792F0000F00F0D0
:100C8000004C02BF400010F4000F013AF9D040EAD6
:100C90000C0093F0000F01F0004C02BF490011F46A
:100CA000000F013BF9D041EA0C018FE70CEAD15368
:100CB00092EA0C0F18BF93EA0C0F0AD030F0004CE8
:100CC00018BF31F0004CD8D180EA010000F000409C
:100CD000704790F0000F17BF90F0004F084691F05A
:100CE000000F91F0004F14D092EA0C0F01D1420294
:100CF0000FD193EA0C0F03D14B0218BF084608D15D
:100D000080EA010000F0004040F0FE4040F40000A6
:100D1000704740F0FE4040F4400070474FF0FF0C39
:100D20001CEAD0521EBF1CEAD15392EA0C0F93EA80
:100D30000C0F69D0A2EB030280EA010C49024FEAD2
:100D4000402037D04FF0805343EA111143EA10138B
:100D50000CF000408B4238BF5B0042F17D024FF443
:100D6000000C8B4224BF5B1A40EA0C00B3EB510F1E
:100D700024BFA3EB510340EA5C00B3EB910F24BF07
:100D8000A3EB910340EA9C00B3EBD10F24BFA3EB8C
:100D9000D10340EADC001B0118BF5FEA1C1CE0D154
:100DA000FD2A3FF650AF8B4240EBC25008BF20F007
:100DB000010070470CF0004C4CEA50207F32C2BF5B
:100DC000D2F1FF0340EAC250704740F400004FF0F8
:100DD0000003013A37E792F0000F00F0004C02BF29
:100DE000400010F4000F013AF9D040EA0C0093F0F3
:100DF000000F01F0004C02BF490011F4000F013B4D
:100E0000F9D041EA0C0195E70CEAD15392EA0C0FB4
:100E100008D142027FF47DAF93EA0C0F7FF470AFEC
:100E2000084676E793EA0C0F04D14B023FF44CAF2F
:100E300008466EE730F0004C18BF31F0004CCAD1C4
:100E400030F000427FF45CAF31F000437FF43CAF00
:100E50005FE700BF4FF0FF3C06E000BF4FF0010C22
:100E600002E000BF4FF0010C4DF804CD4FEA400204
:100E70004FEA41037FEA226C18BF7FEA236C11D04E
:100E800001B052EA530C18BF90EA010F58BFB2EB01
:100E9000030088BFC81738BF6FEAE17018BF40F081
:100EA000010070477FEA226C02D15FEA402C05D135
:100EB0007FEA236CE4D15FEA412CE1D05DF8040BBA
:100EC000704700BF844608466146FFE70FB5FFF74D
:100ED000C9FF002848BF10F1000F0FBD4DF808ED05
:100EE000FFF7F4FF0CBF012000205DF808FB00BFF6
:100EF0004DF808EDFFF7EAFF34BF012000205DF850
:100F000008FB00BF4DF808EDFFF7E0FF94BF01209C
:100F100000205DF808FB00BF4DF808EDFFF7D2FF99
:100F200094BF012000205DF808FB00BF4DF808EDDC
:100F3000FFF7C8FF34BF012000205DF808FB00BFA9
:100F40004FEA4002B2F1FE4F0FD34FF09E03B3EBD6
:100F500012620DD94FEA002343F0004310F0004F16
:100F600023FA02F018BF404270474FF0000070476C
:100F700012F1610F01D1420205D110F0004008BF0B
:100F80006FF0004070474FF00000704742000ED2F3
:100F9000B2F1FE4F0BD34FF09E03B3EB126209D4B4
:100FA0004FEA002343F0004323FA02F070474FF06A
:100FB0000000704712F1610F01D1420202D14FF0DF
:100FC000FF3070474FF00000704700BF034BDA88D6
:100FD0000280198941805B8983807047F005002079
:100FE000054B1A88510001805A88510041809B8826
:100FF0005A008280704700BFF00500207047000053
:10100000074B084A0360426007480B60074A4FF0ED
:101010007E534860CB604FF4BC711180704700BFB5
:10102000FD0F0008CD0F0008E10F00084800002068
:1010300038B504460D46002D14DD052003F0D9F91E
:10104000204608F00BFD204608F00DFD0028FAD1DF
:10105000204608F00CFD204608F00EFD0028FAD1CD
:10106000013DE8E738BD000070B53E4D90B0284620
:1010700009F004FB3C4880213C4B06900A9120205B
:101080004FF40051002409264FF4807205930D900F
:101090004FF480630E91284605A90C930B92079498
:1010A00009940F94089609F061FB2846012109F084
:1010B0008AFB009403942E4C01254FF460222046B5
:1010C000694602928DF804508DF805508DF8106035
:1010D00008F08EFC20460A212A46032308F0D9FC9A
:1010E00020460B210222032308F0D3FC03222046D2
:1010F0000C21134608F0CDFC20460D2104220323C9
:1011000008F0C7FC20460E210522032308F0C1FC8D
:1011100020460F210323062208F0BBFC20460521B0
:101120000722032308F0B5FC2046062108220323EA
:1011300008F0AFFC324603232046072108F0A9FC43
:101140002046294608F081FC2046294608F074FC18
:1011500020460221FFF76CFF2046294608F090FC4C
:1011600010B070BD08000240F00500204C24014082
:101170000024014000207047594B2DE9F0411C78B4
:10118000002C51D002214FF0804008F0EEFF0128E2
:1011900008D1544C544B21884FF08040198008F0FE
:1011A000D7FF208002214FF0804008F0E9FF4D4A30
:1011B0004D4910880B88984201D9C01A01E0DA43E2
:1011C000801883B2B3F57A6F484A03D900211170B1
:1011D000BDE8F081A3F2EF2188B240F2DA518842F3
:1011E00019D81278072A16D84148032A00EBC20101
:1011F000CB80404909D840F2D930834205D9012338
:1012000003FA02F2087802430A7009780F2902D122
:10121000384B00221A703548374B01784A1C02704F
:1012200000201880BDE8F0812546344850F834701D
:1012300000EBC402B7F1804F9688B2F8068049D11E
:101240003846414608F091FF012843D138464146CF
:1012500008F096FF0C2E1CD8DFE806F0071B1B1BBE
:101260000C1B1B1B111B1B1B16004FF0804008F0B2
:101270006FFF0DE04FF0804008F06DFF08E04FF089
:10128000804008F06BFF03E04FF0804008F069FFFA
:101290000546174AE00012F83410131831B901203E
:1012A0005D8002F83400164902230DE059889D80C4
:1012B0008D4201D9691A01E0C9436918D980002318
:1012C00013540D4A0E4913804FF080404B800E801E
:1012D00008F0A2FE0134082CA7D1BDE8F08100BFC0
:1012E0000E060020100600200C060020120600202A
:1012F0001606002014060020A6060020000000208C
:10130000020600202DE9F04300248FB00A2706468C
:1013100021463A4604A801940BF018FB21461022FE
:101320000AA80BF013FB75788348844B327840F29F
:10133000DC511D70C180C181C182C183C184C1855E
:10134000C186C187002A00F0948007A821463A464A
:101350000BF0FCFA03942823002D42D0012502A9AA
:101360004FF0020876488DF80B30ADF808508DF834
:101370000A8008F085FA1C2203A88DF80C208DF84D
:101380000D408DF80E508DF80F5008F0D9FB07A8CE
:1013900008F0C2FD4FF6FF704723ADF8200007A903
:1013A0004FF08040ADF81C30ADF81E4008F06CFCEA
:1013B00064494FF080404C80CC800C810C808D8043
:1013C000614C08F029FE4FF0804041462A4608F063
:1013D000C6FD4FF08040294608F0A7FDA9462770BA
:1013E00047E002A91F24564802278DF80B30ADF8BC
:1013F00008408DF80A7008F043FA1C2001248DF88B
:101400000C0003A88DF80D508DF80E408DF80F409C
:1014100008F096FB07A808F07FFD4721ADF81C10E7
:101420004FF6FF724FF0804007A9ADF82020ADF8CD
:101430001E5008F029FC434B5D809C80DD801D819F
:10144000424F404978198488E85908350C8008F0E3
:10145000E3FD202DF4D14FF080401E21012208F041
:101460007EFD01214FF0804008F05FFD36490425E4
:101470000D7018214FF47077ADF804708DF80710D7
:10148000022701A932488DF8067008F0F9F904A87E
:1014900008F042FD33892F4A472592FBF3F0441EA2
:1014A00004A92D48ADF81050ADF8144008F0ECFB3D
:1014B00070214FF47A734FF480720124ADF8281034
:1014C00000250AA92448ADF82E30ADF83420ADF837
:1014D0002A40ADF82C50ADF8307008F01FFC0AA976
:1014E0001D4808F05FFC0AA91B4808F09FFC0AA9E8
:1014F000194808F0DDFC0821174808F039FD0821DB
:10150000154808F03DFD0821134808F043FD082167
:10151000114808F047FD21460F4808F006FD214616
:101520000D4808F00EFD0C48082108F021FD284662
:101530000FB0BDE8F08300BF160600200E060020A5
:1015400000080140020600201306002000000020D1
:10155000000C014040420F0000080040044B1A7884
:10156000824203D9034B53F820000180704700BF2B
:10157000130600205CD9000870470000024B03EB03
:10158000C000C088704700BF16060020F8B5134B96
:1015900005469B890E461446ECB116B116F8017B40
:1015A00000E0FF270D48022108F01CFA0028F9D0BE
:1015B0000A48394608F011FA0848012108F012FAE1
:1015C0000028F9D0054808F00AFAC0B20DB105F8B4
:1015D000010B013CE0E70120F8BD00BF00380040EE
:1015E0002DE9F047012188B04FF4804008F042FF18
:1015F000374C01214FF4804008F054FF03214FF491
:1016000020401823ADF800008DF8031020466946ED
:101610008DF802304FF0040802F0FEFB2D4E4FF41F
:10162000804220466946ADF800204FF480554FF0C7
:10163000100A8DF8028002F0EFFB69462046ADF8F3
:1016400000508DF802A002F0E7FB304608F068F980
:1016500007214FF4007000230222ADF81600ADF808
:101660001C104FF00109304603A94FF48277ADF802
:101670000C30ADF81030ADF81A30ADF81220ADF8DE
:101680000E70ADF814901F46ADF818A008F07AF966
:101690003046494608F095F99F238DF804308DF8BF
:1016A00005708DF806708DF807700DEB0801424645
:1016B000656102A8FFF76AFF25619DF80900B0F196
:1016C000EF014A4252EB010008B0BDE8F08700BFCD
:1016D000000C0140003800401D481E4902680060AF
:1016E0008A4200F01F80002100F004B81A4B5B58BA
:1016F0004350043119481A4B42189A42FFF4F6AF8E
:10170000184A00F003B8002342F8043B164B9A42F3
:10171000FFF4F9AF07F0A6FF0BF020F800F020FF70
:10172000FFF7FEBF114E124830601248016821F0E9
:1017300070610160410201600F4C182020600F4968
:101740000F4808600F48D0F800D0406800470000FC
:10175000F04F0020EFBEADDE24FF000800000020A7
:10176000D4050020D40500201817002018100240CE
:101770000900000004000140140C0140000C01406D
:101780004434434400F0FF1FFFF7FEBF014B1868CD
:1017900002F07DBB081700200149002000F0ACBD1D
:1017A0008D17000810B5FFF7B1F90A49FFF702FAE3
:1017B0000949FFF7B3FA094B044618680078FFF7A8
:1017C000A5F901462046FFF7F5F9FFF7DFFB80B2E8
:1017D00010BD00BF3333534000F07F456806002042
:1017E00038B50D4C00202578FFF7C4FC0B4A05F0F6
:1017F000070322F813000135002325701846D15A3B
:1018000002334018102B80B2F9D1C008FFF7CAFF8D
:10181000034A107038BD00BF56060020580600204D
:10182000B6100020074B084A19781088884207D361
:10183000064B1A68907888428CBF002001207047C0
:1018400000207047B6100020B81000206806002065
:10185000124B70B51860202400250020FFF78AFC89
:101860002D180A2002F0C5FD013CF6D1C5F34F103A
:10187000FFF798FF094902230A6851784D0066195D
:10188000B04203D30133062B0C44F8D104489278BC
:101890000370534303490B8070BD00BF68060020EE
:1018A00040000020B81000202DE9F04F04460088C9
:1018B00085B048B9B4F9023043B9B4F90420D2F183
:1018C000010138BF002102E0002100E0014611F0D3
:1018D000010377D13D4D00B22B7000F03DFC064670
:1018E000B4F9020000F038FC0546B4F9040000F039
:1018F00033FC0446304608F089FF0746304608F0BE
:10190000F9FF8046284608F081FF0646284608F081
:10191000F1FF0546204608F079FF8246204608F090
:10192000E9FF394681465046FFF744F93946834678
:101930004846FFF73FF9514601904046FFF73AF914
:10194000494602904046FFF735F93146039050462C
:10195000FFF730F91E4C4946206006F10040FFF7C2
:1019600029F929466060A5600298FFF723F901462E
:101970000198FFF717F82946E0600398FFF71AF976
:1019800001465846FFF70CF83146206108F1004047
:10199000FFF710F9294660615846FFF70BF9014639
:1019A0000398FEF7FDFF2946A0610198FFF702F9B1
:1019B00001460298FEF7F6FF3946E0613046FFF730
:1019C000F9F8206205B0BDE8F08F00BF41000020AB
:1019D0006C060020F8B5154C06462378274663B9F7
:1019E00002F0F6FC124D2A683232904205D30123F0
:1019F000237002F0EDFC2860F8BD3878A0B102F049
:101A0000E7FC0B4C2168731898420DD3074800225D
:101A1000027002F0DDFC074920600B780BB15A1E02
:101A20000A70054901200870F8BD00BF900600202B
:101A300098060020920600209306002037B58DF806
:101A400005101F498DF807300B788DF8040002A8A7
:101A50008DF80620C21812F8044C0D46443CE0B242
:101A60000A2828D81749022B31F8104003D814B19E
:101A70002046FFF7AFFF2B78022B0BD9124D2D68B4
:101A800002F0A6FC021B954204D20D490F4B002028
:101A9000087018700E4802780146012A00D074B907
:101AA000074B1878022801D8421C1A7000230B70CB
:101AB00008490B7003E03224022BD9D9DBE73EBD85
:101AC000950600207CD90008980600209206002088
:101AD000930600209006002070B5374B04465A7BD1
:101AE000364802B1012202704FF4007000F032F962
:101AF000F0B133494B78181C18BF012000F0CEFC20
:101B000038B1304D0120287000F0D4FC08B1022219
:101B10002A7000F0B1FC28B129494B7813B9294A41
:101B20000220107000F09EFC10B1264B00211970AD
:101B3000202004F0EBFF60B11F482349827A0AB9E4
:101B4000C37A23B11E48C27A0AB9012300E00023F8
:101B50000B701C490878022802D14C204E211DE050
:101B6000012807D14D2153204C220B46BDE870407F
:101B7000FFF764BF144A1378012B03D153200146A9
:101B80004E2206E00D490878012804D15320014671
:101B900002464D23EAE724B153204D210A4644234F
:101BA000E4E70A4A137823B13220BDE87040FFF71A
:101BB00011BF07490C7070BD9416002091060020DB
:101BC000831600209606002094060020920600202E
:101BD000900600200E4B1A78402A16D15888B0F58E
:101BE000667F12D11979BE290FD193F89523002071
:101BF000EF2A0CD113F8011B064A48409342F9D151
:101C0000D0F1010038BF00207047002070477047B6
:101C100000F8010898FB010838B5FFF7DBFF10B9A1
:101C20000A2002F087FC164C164920464FF46672D3
:101C30000AF0DEFD94F89433022B02D9002084F8D8
:101C4000940394F89413CC2202FB01430E4D03F548
:101C5000987128460AF0CCFD05F11F0005F00CF83C
:101C600005F11F00B4F8D010B4F8D22005F01EF82A
:101C7000287801F04DF9BDE8384003F01DBF00BFE2
:101C80008C11002000F80108C01000202C4B70B50A
:101C9000402206464FF466701A705880BE25EF2227
:101CA00000201D7183F8952383F8960349B193F8BA
:101CB0009413CC2202FB0133224903F598700AF0F9
:101CC00097FD00210D461E4A885C0131B1F5667F03
:101CD00085EA0005F7D182F89653002508F0DCFA72
:101CE000342008F0EDFA184808F040FB042811D120
:101CF000154C164B2046E15808F00EFB042805D081
:101D0000013508F0D5FA032DE8D103E0104A043478
:101D10009442EED108F0CCFA032D02D0FFF75AFF1F
:101D200010B90A2002F006FCFFF776FF36B10F204B
:101D300014210122BDE8704007F074BC70BD00BFE3
:101D40008C110020C010002000F801088C19FE172B
:101D500098FB0108034B996808420CBF0020012042
:101D6000704700BF8C110020024B9A6810439860A6
:101D7000704700BF8C1100202DE9F3470446FFF7A0
:101D800029FF10B1002C00F07081B94AB94D1068DC
:101D90005168B94C6B4603C34FF466720021284664
:101DA0000AF0D4FDCC22002120460AF0CFFD4020CD
:101DB0000321287002206971FFF7D6FFFA22A5F8E7
:101DC000F2202A236E22A5F8EE304FF4FA7085F83F
:101DD00004212B2340F24C42A5F8F60085F805318A
:101DE000212002F54873202185F80601A5F8163157
:101DF00040F27E404FF47A7300274FF001094FF410
:101E0000167685F8F410A5F8142140F2DC5100F59F
:101E10002F72A5F8D00003F5CB70A5F8F060A5F8F7
:101E20001211A5F8D22085F89473A5F8F870A5F8DA
:101E3000FA70A5F8FC7085F8E27085F8E37085F813
:101E4000E470A5F8E670A5F8E870A5F8EA7085F8E2
:101E5000ED7085F8EC9085F8077185F82C7185F8A0
:101E60002D7185F82E7185F8107185F8187185F837
:101E7000197185F81A91A5F8D430A5F8D6006C3000
:101E8000A5F8D8004FF4C870A5F8DE004FF416503E
:101E9000322340F2B452C5F8240140F6AC50A5F804
:101EA000DA20A5F8DC301A46A5F8E030A8814FF416
:101EB000E1331E20C5F82031E072522320735520F3
:101EC00085F82A31E07017230B204FF0280863753E
:101ED000A37560712D2314204FF0080E63732271D7
:101EE000A07184F810E085F81C7185F81D7185F8E3
:101EF000287185F8297185F81B71277084F8018095
:101F000084F80280E775A7732776E7736776A37670
:101F100060745020E076E1845A20042120722375F9
:101F2000E077412384F82E10544855494FF00E0AAB
:101F300084F82030534B84F807A04FF0640C4FF026
:101F40000A0A4FF0780E84F8212060631522E163BD
:101F50004D4805F5847184F83120A36384F812A0FC
:101F600084F81CC084F8098084F80AE084F81E9084
:101F700084F8237084F8247084F8257084F8227023
:101F80006785A785278584F82F8084F8308084F8BA
:101F9000409004F0C9FE4FF44872C8204FF4966395
:101FA00040F2D9313E4684F86C7084F86D7084F844
:101FB0006E8084F86F9084F87270A4F8702084F8B2
:101FC000B4A084F8B500A4F8B630A4F8B8104FF463
:101FD0007F724FF4FA601DF80710A4F87420A0F582
:101FE000FA73FF220137A4F87600A4F8783084F859
:101FF0007A1084F87B200834082FE8D11E4C012089
:10200000C823142184F8BA0084F8BB0084F8BC000B
:10201000A4F8BE3084F8C01084F8C2001E226420E8
:102020004FF49673282184F8C120A4F8C400A4F8C2
:10203000C630A4F8C81000240E4A0023A01810349B
:10204000C02C0361F8D100241049CC2260180A4941
:10205000CC340AF0CDFBB4F5197FF5D10020014650
:1020600002B0BDE8F047FFF711BE02B0BDE8F0874F
:1020700044D900088C110020C01000209A99193F03
:102080003D0A773FF6287C3F92D90008BC12002019
:10209000024B9A6822EA0000986070478C11002079
:1020A000014B9868704700BF8C110020884203DB09
:1020B0008242B4BF114601460846704700230361BF
:1020C00070472DE9F041066904460136012E0D46A0
:1020D000066105D10023616021608360BDE8F08165
:1020E000D0F8008008464146FEF75AFC07463046C5
:1020F000FEF70CFD01463846FEF710FE014640464D
:10210000FEF750FC0646606031462846FEF748FC64
:1021100001463846FEF74EFDA168FEF743FC2660F7
:10212000E060A060BDE8F08110B5044600690128B8
:1021300007DD0138FEF7EAFC0146E068FEF7EEFD38
:1021400010BD002010BD08B5FFF7EEFFBDE8084048
:1021500008F05EBC0000000008B5FEF755F904A3C6
:10216000D3E90023FEF7B6F9FEF7C6FB08BD00BFB2
:10217000399D52A246DF913F2DE9F041069C06466B
:102180000F46002B0CBF4FF020084FF030082046C0
:1021900010F8013B0BB9154603E0002AFBDD013ABC
:1021A000F6E7002D04DD30464146B847013DF8E72B
:1021B00014F8011B11B13046B847F9E7BDE8F081CA
:1021C0002DE9F04389B006460F4603921C46039A58
:1021D000134613F8011B0393002900F08A80252978
:1021E00001D0304683E0002004905578911C302DBA
:1021F000039105D19578033203924FF0010800E076
:102200008046A5F13003D8B2092806D8284603A98C
:102210000A2204AB00F00CF905466C2D05D1039998
:10222000012211F8015B039100E00022642D2FD000
:1022300010D8582D3AD006D8002D5AD0252DC6D109
:102240003046294653E0632DC1D130462178251D03
:10225000B8474AE0752D0DD0782D27D0732DB6D113
:10226000251D2468304600943946049A0023FFF760
:1022700083FF3AE0251D20680A2122B1002205AB28
:1022800000F060F802E005AB00F08CF82C4623E08B
:1022900005AD04F104092068294612B100F077F871
:1022A00001E000F0A4F84C46009517E004F10409A1
:1022B0002068102142B1B5F15804634253EB040287
:1022C00005AB00F03FF806E0B5F158035A425A4119
:1022D00005AB00F067F84C4605A80090304639463B
:1022E000049A4346FFF748FF71E72C466FE7B8476B
:1022F0006DE709B0BDE8F083024B19600249086040
:10230000704700BF9C060020A00600200FB407B550
:10231000094904AB0868094953F8042B096801937B
:10232000FFF74EFF064B186801F0D0FD0028F9D0EA
:10233000BDE80E4004B07047A00600209C060020B7
:1023400008170020F0B50124B0FBF4F58D4201D34D
:102350004C43F9E70026C4B1B0FBF4F504FB1500CB
:10236000B4FBF1F41EB9002D01DC002CF4D1092DD1
:10237000EFB204DD002A0CBF5725372500E03025D9
:10238000ED1903F8015B0136E5E71C70F0BD00288C
:102390000B4603DA2D22404203F8012B0A210022CA
:1023A000FFF7D0BFF0B50124B0FBF4F58D4201D3A7
:1023B0004C43F9E70026C4B1B0FBF4F504FB15006B
:1023C000B4FBF1F41EB9002D01DC002CF4D1092D71
:1023D000EFB204DD002A0CBF5725372500E0302579
:1023E000ED1903F8015B0136E5E71C70F0BD00282C
:1023F0000B4603DA2D22404203F8012B0A2100226A
:10240000FFF7D0BFA0F13003DAB2092A01D818468D
:102410007047A0F16101052901D857387047A0F134
:102420004103052B01D8373870474FF0FF30704714
:102430002DE9F8430D6804460F469046994600265C
:102440002046FFF7DFFF002806DB404504DC08FBE1
:10245000060615F8014BF3E73D602046C9F8006019
:10246000BDE8F883034BB3F90000D0F1010038BF99
:1024700000207047A6060020064B0749B3F900006C
:1024800091F8B430052253439842D4BF0020012074
:10249000704700BFA6060020C010002010B50446FB
:1024A000FFF7EAFF002814BF2046002000F00100DB
:1024B00010BD00000749084B91F8B420B3F90000A3
:1024C00091F8B530D118052251438842D4BF00207D
:1024D00001207047C0100020A606002008B504F0B7
:1024E00035FB024B00221A7008BD00BF8316002086
:1024F00010B54FF40070FFF72DFC18B3FFF7BCFFC9
:10250000E0B1114B5C78201C18BF0120FFF7C6FF1B
:1025100070B10E480E4BB0F812210E49B3F8B60058
:102520000A804A808A80C8800B490A88531C0B8025
:10253000FFF7C0FF00B90CB9FFF7D0FF07480188CB
:102540004A1C028010BD00BF831600208C110020A1
:10255000C0100020C4160020A4060020A6060020FB
:1025600070B586B001F050FFFFF716F90020FFF7B5
:1025700003FCFFF751FB744A92F8073133B1012B8A
:1025800001D0092B02D18DF8003004E000208DF835
:10259000000082F807016846FEF766FD6B48FFF70A
:1025A00083F9022004F0BCFA02F0AEFC66494C79D3
:1025B0000E2C01D0082C01D1012500E000254FF49C
:1025C00080708DF80A50FFF7C5FB18B90820FFF797
:1025D000C1FB00E0012000F0010640208DF80660FC
:1025E000FFF7B8FB8DF807000120FFF7B3FB8DF86C
:1025F00005000820FFF7AEFB80F001028DF80420F3
:1026000003F0D2F8524B504C8DF8080093F8BC0000
:10261000B4F8DE50B4F8E060C0F380014FF47A7291
:102620004FF480408DF80910ADF80C50ADF80E60F5
:10263000ADF81020FFF78EFB18B1B4F8DA30ADF822
:102640001030BDF80C00B0F5FA7F02D90021ADF8CA
:1026500010103F4EB4F8125194F80741B6F8B82064
:10266000012CADF81250ADF8142004D0092C01D182
:10267000072400E0002401A88DF80B40FEF742FE7D
:10268000344804F083FA4FF48070FFF763FB40B1E5
:102690000820FFF75FFB20B92B4B93F81D0103F0D7
:1026A0005DFA2D494FF400404FF4805548610A26E9
:1026B000C1F81058284C294DE268013E82F40043CD
:1026C000E360E86880F48051E960192001F091FE30
:1026D000192001F08EFE16F0FF06EBD14FF4805268
:1026E0004FF400432A61236101F004F901F0D0FFA7
:1026F0000220FFF72FFB10B11948FFF7A9F819487E
:1027000005F0C8F84FF40060FFF724FB10B116483D
:1027100004F0B0FD01F042FE144C0B4D20606879CE
:10272000052803D1124E4FF4C8713180114B124D60
:1027300012494FF47A72C82401201A802C80487301
:1027400000F0F4FBFCE700BF8C11002072120020A7
:10275000C010002094120020000801400010014029
:1027600090120020AC12002008170020E406002080
:1027700038070020AA070020A807002083160020A1
:1027800008B5034BB3F9D40002F0DAFCFEE700BF52
:102790008C1100202DE9F04F794B0024B3F902A0F1
:1027A000B3F9000087B0BAF1000FB8BFCAF1000A50
:1027B0000028B8BF40428245B8BF82462546A046A1
:1027C00027460594A14626466E49CA7812B90B7968
:1027D000002B40D0022E3ED06B4B6C486849B0F8BD
:1027E000F620685EE95EDFF8B4B101EB40005142CB
:1027F000FFF75CFC664A05EB0B0335F902C0B3F941
:102800002A10CCEB00009BF8082000EB010902FB2A
:1028100009F09BF81C30642190FBF1F005226FF069
:10282000040159435A43CDF81090FFF73FFC594B30
:10283000DDF810C0E258584981460CEB020042F224
:1028400010720493FFF732FC04999BF81230605029
:102850005843001305904B49CA781AB10B790BB94C
:10286000022E30D1464F4D48EF5F5021794306EBA1
:10287000000B9BF801204A4BDFF83C8191FBF2F002
:10288000E95E54F80820401A801846494FF47A52FD
:102890000493FFF70BFC049B48F80400E95E002951
:1028A000B8BF4942B1F5207F02DD002048F804009E
:1028B00058F804207D239BF80B1092FBF3FE01FBDC
:1028C0000EFC4FEAAC182F480279A2B1022E12D0AA
:1028D0000AFB07F1CAF5FA7303FB09104FF4FA710A
:1028E00090FBF1F20AFB08F0DDF814B003FB0B03D8
:1028F00093FBF1F308E0C3780BB1022E02D14346FB
:102900003A4601E0059B4A462549DFF8B0C0695ABE
:1029100016F80CB008B20BFB00FB6FF04F0C9BFBE2
:10292000FCFB9344204ACDF804B035F902C0A9520B
:10293000CCEB00001D4ADFF888C0029054F80C1060
:10294000A0584018029903904018A15844F80C1060
:102950000299A150164A0434B15C202201FB00F018
:1029600090FBF2F15B1A134A9B44013625F802B042
:102970000235032E7FF428AF07B0BDE8F08F00BF0B
:102980005815002083160020180700208C11002005
:102990006C0B002024070020F0D8FFFFC01000209F
:1029A0003C0B002080C1FFFF2C070020FC0600200C
:1029B000A615002060150020A8060020A9150020FB
:1029C000F00600202DE9F74F002425462646A246B2
:1029D000474BDA780AB91879C8B1022E19D0454B9D
:1029E00045484649B0F8F6206F5EE85E514200EB7C
:1029F0004700FFF75BFB424A424F35F902A0EB1953
:102A0000CAEB0001B3F92A0001EB000A0BE0022E29
:102A100009D13C49394B91F82470B3F904201B3794
:102A200057437B1116E03249364ACF7877B933489D
:102A300092F823702B5E1B375F4309793B1149B134
:102A4000927C02FB0AF703EB272303E0137A03FBD4
:102A50000AF003112C48DFF8C8B0295EBBF800006B
:102A60005F1A284B784306EB030898F80120DFF83B
:102A7000B4907A4398F80B104FEAE21C54F80920FE
:102A8000C31201FB0320214944F809004FF400124E
:102A9000CDF804C0FFF70AFB1D4B4FF6FF72E1585B
:102AA000E750791ABBF8007044F809003B09B2FB03
:102AB000F3F74F43174A184B54F80290E158BF11EF
:102AC000A750494498F81520C9194A43DDF804C0B5
:102AD00012490CEB603044F80390013600EB2223DE
:102AE0006B5204340235032E7FF472AFBDE8FE8FC3
:102AF00083160020180700208C1100205815002094
:102B00006C0B0020C01000203C0B00200000E0FFF8
:102B1000B8060020CC0600200C070020601500201D
:102B20001C070020A80600200B4B0C481A8852B93D
:102B3000817841B142786AB9012141700848094B56
:102B400002881A807047437823B90220FF210122AE
:102B500006F068BD704700BFAA070020831600205A
:102B6000EE150020A41500202DE9F04FB54BB64A14
:102B7000B3F90600D18C85B088420FDBB0F5FA6F4F
:102B800092F8254007DA451A6C43A1F5FA6694FBE2
:102B9000F6F4643403E0C4F1640400E06424AB4A56
:102BA000A94BB2F8127192F9EC2093F82310009718
:102BB000574293F86C50019193F86D60B9B293F855
:102BC00024300291002103930A469E4FDDF80080D5
:102BD00031F907C040F2E637C8EB0C0303F2F31EED
:102BE000BE4503D8002BB8BF5B4201E04FF4FA7337
:102BF000022ADFF864822CD025B1AB42CCBFC5EBF2
:102C0000030300236427DFF880A293FBF7FE6FF035
:102C1000630B3AF81E900BFB0E3B0EF1010E3AF9D6
:102C20001EA00FFA89FECEEB0A0E0EFB0BFE9EFBDA
:102C3000F7FEF14428F80190DDF8048003FB08FE5C
:102C4000834B9EFBF3F3DB199BB2634393FBF7F7D4
:102C500012E026B1B342CCBFC6EB03030023029FB0
:102C60005F43A8F80470039F002BB8BF5B427B430F
:102C7000774F93FBF7F76437734B02EB030E9EF825
:102C80000190642307FB09F898FBF3F9DFF8FC8156
:102C900002F808909EF80B909EF815E007FB09F8E3
:102CA00007FB0EF798FBF3F9DFF8E48197FBF3F3EA
:102CB00002F80890DDF80080664FC445D35503DA6A
:102CC000654BCF5A7F42CF5201320231032A7FF443
:102CD0007CAF5E4C4FF4FA62B4F81411FFF7E6F9DA
:102CE000B4F814614FF47A75801B4543C6F5FA6356
:102CF000B5FBF3F56421594895FBF1F36FF06306DA
:102D000030F8132006FB0355013330F9130013B2DA
:102D1000C01A4543524B504C95FBF1F1587A8A1832
:102D2000E280002838D04F4F4F4D3E882988721AD4
:102D300010B2FFF711FA074607F068FD064638465D
:102D400007F0D8FD0546B4F90200FDF7DFFE07469F
:102D5000B4F90000FDF7DAFE31468046FDF72AFFA0
:102D6000294681463846FDF725FF01464846FDF7CE
:102D700017FEFEF7E5F8314620803846FDF71AFFCA
:102D8000294606464046FDF715FF01463046FDF749
:102D900009FEFEF7D5F860800220FEF7DBFF90B158
:102DA000324806220378591CCBB20370B3FBF2F011
:102DB00002FB103111F0FF0F05D1FEF711FDFEF7F8
:102DC00031FD2B4B18702A4A1078003018BF0120B3
:102DD000FEF782FE27490B881BB9274A108828B9BD
:102DE0000AE0022003F092FE0028F6D0234BDA68B6
:102DF00082F48051D9600EE0194B997819B11F4ABD
:102E00004FF4805010615B781BB11C484FF4805127
:102E1000416104F00BFA1A481A4A01681368C81A8B
:102E2000002839DB0E4B587BA0BB9870134B01F583
:102E3000F421D86880F48050D86001F59073136055
:102E40002AE000BFC4160020C01000208C11002012
:102E50000CFEFFFFA615002058150020AC16002020
:102E600083160020EE150020A41500201F07002067
:102E7000E206002038070020AA07002000100140C9
:102E80003407002020070020E8160020A9150020A4
:102E90009C1500200121997004F008FD154A107856
:102EA00030B94FF40060FEF755FF08B104F0FAF9AD
:102EB000202003F02BFEA0B10F49104B0A681868C0
:102EC000111A00290DDB0E480178042909D902F5F1
:102ED000123202F5F87018600A4BD96881F400428A
:102EE000DA60094883680BB10848984705B0BDE827
:102EF000F08F00BF201000203407002008070020BA
:102F0000A215002000080140D81500203815002027
:102F10000128034B14BF034A034A1A60704700BFDD
:102F20004400002095270008C529000838B508206E
:102F3000FEF710FF90B19F4B93F8100103280CD8B7
:102F4000DFE800F00202050804F01EF906E003F0D5
:102F500079FF03E004F02CF800E000209649974A3E
:102F60000B681168591A002902DA002800F06E82F5
:102F700003F59C44924820349249146003F024FEE7
:102F80004FF48040FEF7E6FE20B18F4D2B780BB951
:102F900003F0DCFD874A92F81B11B1B18B4CC81CC1
:102FA00034F910504FF47A720021A5F57A70FFF7CA
:102FB0007DF8FDF7ABFD8649FDF7B0FE8549FDF7CD
:102FC000F9FDFDF7E3FF844B1880FFF791FA794A8A
:102FD000B2F81401B2F81641002215467B49AD083B
:102FE000535E8342C4BF65F07F05EDB2A342B8BF14
:102FF00045F040050232082AF0D17848784A047832
:103000000346AC4204D11078F92803D8411C00E0F3
:10301000002111704FF480401D70FEF79BFE68B1D7
:10302000644B6A4DB3F81211B3F8DC20B5F90640D1
:10303000881A844202DD8D18AC420CDB4FF48040CC
:10304000FEF788FEF8B9614C5A4BB4F90610B3F894
:103050001421914217DA63496348644CB1F8423055
:103060000025056045608560256065605BB1564A56
:103070005F4D1078002800F07D822C78002C00F045
:103080007982FFF751FD564B1A78142A40F0D5800B
:1030900057484478ECB1534CB4F842202AB94F4D0C
:1030A00029785F2901D103F051FD424890F8183189
:1030B000002B00F0C2804B4CB4F84220002A40F0B4
:1030C000BC80464D29787D2940F0B78003F03EFD55
:1030D000B3E0424D2978572918D1464C4FF47A7203
:1030E0004FF480702280FEF735FE08B102F092FCAA
:1030F000042003F00BFD10B13F490A250D80082084
:1031000003F004FDD8B93D4B188018E00420FEF709
:1031100021FEA0B12B785A2B11D1394802781AB16F
:103120000470384B012009E0374C384B257885F086
:103130000101217009B1022000E003201870274826
:1031400002785D2A00F01D825B2A00F01C825E2A54
:1031500000F01B822348B0F8422032B91F4C25787A
:103160006F2D02D1FFF7E0FC15E012491B4B91F8DF
:10317000180118B112B91A787E2AF3D01C78972C4E
:1031800004D1234B4FF4C870188004E0A72C02D15F
:10319000174901258D73114A1478BB2C03D1114CAA
:1031A000A18D8D1C04E0B72C34D10E4CA28D951E40
:1031B000A5853BE08C11002034070020E8060020A4
:1031C00094120020AA16002094160020C416002095
:1031D00000007A4400C07F44A01500201E07002094
:1031E000E1060020C0100020A806002024070020CF
:1031F00083160020AA070020A8070020EE15002053
:10320000B4060020C6060020D80600209206002042
:1032100038070020BE2C03D1914D6B8D981C04E023
:10322000BD2C0AD18E4D698D881E6885012001460E
:10323000FEF72CFD8B4B002018700420FEF78AFD52
:1032400000282CD0884B187888B1884C627872B1ED
:10325000874D8848B5F90610B0F81441A14206DD43
:10326000854A15781DB98549322008801D70824B2A
:103270005C7C54B1824B1D782DB9824A107810B90C
:103280007E4C32212180012408E07E4D2A7832B123
:103290007648417819B97C4B297001241C700023B1
:1032A0007A4C1A4634F8020F40F2135501B2A94283
:1032B000CCBF0025012505FA03F5A0F21550B0F5A5
:1032C000C77F8CBF002001202A435D1C00FA05F057
:1032D000024340F2A4608142D4BF00210121981C26
:1032E00001FA00F103330A430C2B92B2DAD1002326
:1032F0005B48614900EB4300B0F8420002420CBF5A
:103300000020012058540133152BF1D14A7822B105
:10331000022003F0FBFB28B90DE0FFF7ADF8002811
:10332000F6D108E0514AD37843B9594901200B60DE
:103330004B60D07002E04D480021C1704E4A4B4BAB
:10334000917839B118790021D97020B9504A0121FA
:10335000106050601971484B4449187808B901222F
:103360000A70C8784B4B10B940490A791AB14FF42A
:103370000041596102E04FF400401861202003F041
:10338000C5FB002852D0394BD87A1A46002848D0BD
:1033900041490878042844D93748817A79B1DA79E3
:1033A000002A43D13D480121D9711A723C4B011DBD
:1033B0001A7002F043FC3B4A0220107036E0C27AD9
:1033C000D9711AB326483849B0F8C820B1F90000BD
:1033D0000028B8BF4042904218DAB1F90210002923
:1033E000B8BF4942914211DA187AF8B901241C7227
:1033F0002B4B2E4918702E480A684B68011D02603D
:10340000436002F01BFC274804700FE02448174B70
:10341000017800221A7249B90122027002F01EFBE3
:1034200004E00023D37113721E4A137012490F4B2C
:10343000087B00B101200F4A98725179082901D008
:103440000E2954D1094B0020587250E019480368E6
:10345000042B4CD8DFE803F030323538440000BF8D
:10346000C0100020E1060020D806002083160020AE
:10347000C41600208C11002094160020EC060020B9
:10348000EE060020B4060020C6060020CA16002062
:103490002407002000080140A21500206815002024
:1034A00042000020C7060020581500208415002087
:1034B00048150020DC0600200122026001684B1C38
:1034C00003600268511C0160384803685A1C02609E
:1034D0004FF48070FEF73EFC10B102F049FC06E0AC
:1034E0003248002101604FF40050FEF733FC00F039
:1034F00055FF2F4A2F4910608A892F4B1AB119683E
:10350000411A002951DB8018186001F0D1FAFFF749
:103510002BFB00F043FF294B254A19681060186007
:10352000421A2748274990F872300A8053B1264939
:10353000CA780AB9087928B1244B2549DA8808885D
:103540008118D980202003F0E1FA40B11E4BD879D0
:1035500008B91A7A1AB1197B09B103F051FA1D4B57
:103560001868804701F0FEFD01F07AFDBDE83840A3
:1035700001F0D2BD697800293FF485AD03F0E6FA89
:1035800081E5012402E0022400E00324E5B2094BB6
:103590000020691E83F894130146FEF777FB022092
:1035A00028212A4606F03EF8D4E538BDDC06002086
:1035B000340700208C110020C8060020E4060020FB
:1035C000C01000201C070020831600205815002082
:1035D0007C0B002044000020F8B5614B18880028BF
:1035E0003BD000231A46B0F5C87F5E4901D10024C4
:1035F0008C505D4C8E581F5F5A4DF6198E5000212D
:1036000019535A4C04321E190233062BA6F8F8102F
:10361000E9D101281DD12A684FF4C87302F1C8020C
:1036200092FBF3F2A4F8F8206A68C83292FBF3F236
:10363000A4F8FA20AA68C83292FBF3F34C4A128825
:103640009B1A4C4AA4F8FC30518591850146FEF73F
:103650001DFB434801884B1E03800420FEF77AFBC4
:1036600000286BD0444A1288322A11D13F4C434D76
:10367000B4F8F860B4F8FA00B4F8FC102E80688052
:10368000A9803C4D3E4B6C8DAE8D1C805E8001E070
:10369000002A32D000231946322A3A4801D10025A7
:1036A0004550314D44585E5FA61946502F480024BE
:1036B0005C531D1802330431062B2646A5F8F8404A
:1036C000EAD1012A16D1304B30491A70304B0C70B8
:1036D00002211970294B1988A0F8F81059889B8885
:1036E000A0F8FA102649A0F8FC30224B0888498837
:1036F00058859985204B013A1A8026480178E9B10E
:10370000002303701F48194A0468322194FBF1F426
:10371000A2F8F8404468806894FBF1F490FBF1F162
:103720001348A2F8FA400088091AA2F8FC100120F8
:10373000104A014653859385FEF7A8FA0A4B0B4AB7
:103740001888B2F8F810401A1880B2F8FA105888A1
:10375000B2F8FC20401A99885880881A9880F8BDE1
:1037600038070020480700200C1600208C1100208C
:1037700048000020C0100020EC0600205607002062
:103780005C0700203C070020B4060020EE06002065
:1037900092060020C606002008B5044B044859686C
:1037A0008847BDE80840FFF717BF00BFBC150020E1
:1037B0000C1600202DE9F84F414B188800286ED0D8
:1037C0000024254626463E490A88B2F57A7F08D16C
:1037D0003C4B3D4900271420EF5000FB0610FEF73C
:1037E0006DFCDFF8F0A0374F3AF90400EA59DFF832
:1037F000D8901318EB51FDF789F94FF0140B0BFB20
:10380000069B01464FF000085846FEF75AFC24F884
:103810000A80DFF8ACA02D48BAF8001024F8008028
:10382000012933D15846FEF78EFC294A834692F887
:10383000F400E0B1FDF76AF901465846FDF776FB62
:10384000A8B14FF47A714846AAF80010FEF736FC8A
:1038500009F11400FEF732FC09F12800FEF72EFCF6
:10386000C7F80880C7F80480C7F800800EE0154B41
:103870004FF47A72E858154B00F5FA7191FBF2F0AB
:10388000E0520F210A20012205F0CCFE013604355A
:103890000234032E97D10A480288531E03800D4B31
:1038A0000A4A18881188401A1880518858889288C6
:1038B000401A99885880881A9880BDE8F88F00BF10
:1038C000AA0700209C07002060070020500B002062
:1038D0008C110020F415002008B5044B04485968E9
:1038E0008847BDE80840FFF765BF00BFD815002036
:1038F000F415002001480249FDF782BBBC150020E9
:10390000D81500202DE9F84F9C4C2068838A9BB283
:1039100013F0010239D0018821F400631A04110C5C
:103920000180012106F088FE954A964B117800200F
:103930001870D9B1944803781BB9944A1178FF29BB
:1039400014D10123037092480278022A06D18B49D0
:103950000B68188882B242F4006119808D4B874849
:1039600019780068012206F081FE2FE18948834B17
:1039700001780022186806F079FE844A1178FF2940
:1039800000F02481FF207F4BDEE003F00201C9B28A
:1039900000293DD0BFF35F8F7D4D2E78012E354637
:1039A00016D177490B789BB177490B7883B11146D3
:1039B00006F042FEBFF35F8F20683146038B06F0AE
:1039C0002FFE754A206816704FF480613246FBE086
:1039D000038BBFF35F8F6E490A78022A09D1684BC7
:1039E0001A7832B1684B1A781AB1002106F024FE19
:1039F000E5E00978032907D1614B1A7822B16249C1
:103A00000B78002B40F0DD804FF480610122DBE079
:103A100003F00406F6B2002E71D0594BDFF878811E
:103A20001A78012688F80060574B002A4DD01A7882
:103A3000002A4AD0564D2F78524D022F574F29D980
:103A400006F0FAFD206895F80090D7F800A006F07F
:103A50000AFE4FFA89FB0AF80B0009EB0600314613
:103A60002870206806F0DCFD206888F800603F6858
:103A700095F8008006F0F7FD4FFA88F907F809007D
:103A8000B04420684FF48061324685F8008006F02B
:103A9000DFFD2BE0314606F0C3FD20682E78D7F815
:103AA000008006F0E0FD4FFA86F9731C08F8090063
:103AB000D9B220684FFA81F83F68297006F0D3FD2B
:103AC000033607F808002E7010E01B78012113B9A7
:103AD000334A13782BB106F0A3FD2A480278511C13
:103AE00003E006F091FD284801210170234A116886
:103AF0000B8803F4807082B2002AF9D166E003F0EB
:103B000040010F461F4D09B3244B2F78D3F8008096
:103B100006F0A9FD4FFA87F908F80900781CC1B230
:103B200029701B4D4FB22A780337BA4205D120685D
:103B30004FF48061324606F08BFD124B28781A78DC
:103B400051B2884242D1501C18703FE01B063DD54F
:103B50002B785EB2721C27D0124901330A682B7091
:103B6000915D06F07EFD0A4895F9002001789142AA
:103B70002CD120684FF480613A4625E0C40700202C
:103B8000C2070020C0070020C1070020AF070020A7
:103B9000B0070020C9070020AE070020B4070020AE
:103BA000B8070020BC070020154A2970117806F0DC
:103BB00058FD1448017811B9134B1A7832B91348DB
:103BC00000684FF48061002206F042FD0E4A104B5F
:103BD000117893F900004A1C90420ED10D4B0E490A
:103BE000187800220A7028B1084908684FF440711B
:103BF00006F02EFD094B00221A70BDE8F88F00BFB9
:103C0000AF070020C2070020B0070020C407002033
:103C1000C0070020AE070020C1070020C807002011
:103C2000FFF770BEFFF76EBEF0B5484C89B04FF499
:103C300040651C2307460226204602A9ADF808501D
:103C40008DF80A308DF80B6000F0E6F8404814213A
:103C500007608DF80E10204603A9ADF80C508DF8C2
:103C60000F6000F0D9F825610825384CA26852058C
:103C700003D40A2000F0B2FBF7E74FF480660A2075
:103C8000666100F0ABFB6F1E0A20266100F0A6FB08
:103C900017F0FF05E9D14FF4006767610A2000F0D3
:103CA0009DFB66610A2000F099FB26610A2000F066
:103CB00095FB022027611C218DF80F002046244C23
:103CC0004FF440638DF80E1003A9ADF80C3000F0EE
:103CD000A3F8206806F0FAFB04A806F07BFC206835
:103CE0002A464FF4407106F0B3FC1A484FF4804363
:103CF0004BF6FF72049001212068ADF81C30ADF83E
:103D00001620ADF8145006F073FC04A9206806F0E4
:103D1000F7FB4FF4A06005F009FF2221012201A862
:103D20008DF804108DF805508DF806508DF8072099
:103D300005F006FF212301A82E468DF804308DF8EA
:103D4000055005F0FDFE09B0F0BD00BF000C0140BC
:103D5000C4070020801A0600274B37B51868818AEF
:103D60008AB20192019B13F4706F02D0234A0121A1
:103D70001170019B13F4E06F31D04FF48061002289
:103D8000038B06F065FC0198810528D41A4D28683C
:103D9000018801F4007293B20BBB048804F48071B3
:103DA0008CB29CB1028802F4807399B20029F9D1D7
:103DB000012106F035FC10480068028802F4007307
:103DC00099B20029F9D1FFF72FFF08E0012106F091
:103DD00027FC28684FF44071224606F039FC06485B
:103DE0000268938A23F470610804030C04499382E7
:103DF00000220A703EBD00BFC4070020B9070020A2
:103E0000C8070020FFF7A8BFFFF7A6BF014B18881F
:103E100080B27047AC0700202DE9F0410F880023E5
:103E200047FA03F2D2072DD58A7803F00705DC089C
:103E3000AD0012F0100F18BF91F803C002F00F068A
:103E400018BF46EA0C064FF00F0C0CFA05FC06FAF8
:103E500005F550F82480282A28EA0C0C45EA0C05C0
:103E600040F8245006D1012202FA03F2C46824EA81
:103E7000020206E0482A05D1012202FA03F2C468D0
:103E80002243C2600133102BCAD1BDE8F08108B5CE
:103E900003681A68904708BD38B505460C4614F803
:103EA000011B19B12846FFF7F2FFF8E738BD08B546
:103EB00003685968884708BD08B50368996888474A
:103EC00008BD08B50368DA68904708BD08B50368FF
:103ED0001969884708BD08B503685A69904708BD45
:103EE0007047036B13B15A68006C01E0026AC06945
:103EF000101A18BF01207047436B13B190F84400AB
:103F00007047826A406A111A4B4253EB01007047B6
:103F1000836A8169426BC918D160416A994203D9A9
:103F2000CB1A5360816204E00169CB1A536000220E
:103F30008262002180F84410406B012106F043BCEE
:103F400030B50446007985B000230D460091C107C5
:103F5000ADF80430ADF80630ADF80830ADF80C30EF
:103F6000ADF80A3002D50422ADF80A20820705D543
:103F7000BDF80A1041F00803ADF80A30A06C69469C
:103F800006F002F9A56005B030BD026B034610B51E
:103F9000406942B11A6CD9688C1A013A18BF1146AF
:103FA000005D196410BD196ADA68405C0131B1FB2B
:103FB000F2F402FB1411196210BD10B5426A846953
:103FC000A154416A02690131B1FBF2F402FB141100
:103FD000426B416232B11368DB070BD4BDE810407D
:103FE000FFF796BF806C40F227710122BDE81040B8
:103FF00006F02EB910BD0000214B13B59860214882
:104000000C4658612048214A2149186314381A6027
:1040100099614FF48072586301214FF48040DA6057
:104020001A6106F01BFA4FF4007102231822ADF852
:104030000010A1078DF803308DF8022003D5154834
:104040006946FFF7E9FE48234FF48060E207ADF8C8
:1040500000008DF8023003D50E486946FFF7DCFEFC
:1040600001220E2101A88DF804108DF805208DF88D
:1040700006208DF8072005F063FD01481CBD00BF38
:104080008C0A00208A090020580002409CD90008B0
:104090000A080020000801401F4B13B51F4A986012
:1040A0000C4680204021D86019611D481D491A60C6
:1040B0001D4A986199644FF4003001215A6106F05D
:1040C000D9F90223042218208DF80330A307ADF894
:1040D00000208DF8020003D514486946FFF79CFEC6
:1040E00008214823E007ADF800108DF8023003D511
:1040F0000E486946FFF790FE012026228DF8050044
:1041000002218DF8070001A88DF804208DF8061013
:1041100005F016FD00481CBDD80A00209CD90008F7
:10412000CA070020004400400A090020000801409E
:104130002DE9F0411E46584B90B0984205468846FE
:10414000174604D110463146FFF756FF07E05348A3
:104150000024854204D110463146FFF79DFF0446F6
:10416000002106F004022671A7600197A564216270
:10417000E161A1626162C4F82C80ADF8081002F020
:10418000FF0732B14FF40053ADF80A304FF48067A7
:1041900001E0ADF80A700020ADF80C7016F00107D0
:1041A000ADF8100002D1ADF80E7002E00421ADF8B8
:1041B0000E1006F0020606F0FF082EB1BDF80E2024
:1041C00042F00803ADF80E30284601A905F0DCFFE7
:1041D0000121284606F030F805A806F0E7FA00238A
:1041E000281D4FF48051802205900E910F93099362
:1041F0000B930A920C9317B3206BD0B16269E168FC
:10420000079320230D930692089106F037FA206B4E
:1042100005A906F0ABFA206B012106F0D4FA284676
:104220004021012206F02EF8206B06F0E1FA20640E
:1042300005E0284640F22551012206F009F8B8F1C0
:10424000000F24D0606BE0B126691021089600268B
:1042500007910D9606F012FA606B05A906F086FA32
:104260000122606B022106F0B9FA606B314606F05C
:10427000BDFA606B802146600122284606F002F8F4
:1042800005E0284640F22771012205F0E1FF2046B3
:1042900010B0BDE8F08100BF00380140004400408C
:1042A00010B50B4C4FF4005006F0A6FA0021606BDD
:1042B00006F089FA626AA36A9A4204D02046BDE8F1
:1042C0001040FFF725BE012084F8440010BD00BF58
:1042D0008C0A00200D4B986C028802F080018AB293
:1042E0009AB19A6A596A8A420AD09969895C0132FC
:1042F00081801969B2FBF1F001FB10229A627047CC
:1043000040F22771002205F0A3BF70478C0A0020FD
:104310001C4B10B59A6C1488A4B204F0200188B22A
:1043200090B1D96A19B1938898B288470CE0928805
:10433000D9695869D2B24254D869DA68411CB1FBD4
:10434000F2F002FB1011D96104F08004A4B2C4B1F0
:104350000C4B9A6A586A82420BD09869996C805CBF
:10436000013288801969B2FBF1F001FB10229A62D8
:1043700010BD986C40F227710022BDE8104005F096
:1043800067BF10BDD80A002070470000024B1A68B2
:10439000501C1860704700BF240B002010B5094A5C
:1043A000094913688C6810688342F8D1074A10687D
:1043B00011684FF47A725043001BB0FBF1F102FB1D
:1043C000031010BD240B002010E000E0280B00209B
:1043D000014B1868704700BF240B002038B5044615
:1043E000FFF7DCFF0546FFF7D9FF401BA042FAD3D9
:1043F00038BD10B504462CB14FF47A70FFF7EEFFCC
:10440000013CF8E710BD000070B53D4B8AB001AC2F
:104410000FCB84E80F0005F085F90121394806F03B
:1044200029F8012144F61D2006F018F80120014664
:10443000354D06F007F806F041F800214FF6FF7001
:10444000ADF800008DF80210284669462F4EFFF7A0
:10445000E3FC2F486946FFF7DFFC69463046FFF76B
:10446000DBFC2C4B5A6842F000705860FFF78CFF61
:104470004FF480514FF40043274A31612B6110689B
:104480002649884206D19DF80A30142B02D1102209
:104490008DF80A20211D0198FFF7BEFC1E481F4B16
:1044A0000168994206D19DF81220142A02D11020E9
:1044B0008DF8120004A90398FFF7AEFC05A805F0DB
:1044C00073FF059B1649174AB3FBF1F016491060BC
:1044D00008684FF47A73B0FBF3F2511E1348144A84
:1044E000F023416082F823300021072381600360BC
:1044F000FDF776F86420FFF77CFF0AB070BD00BFBF
:104500004CD900080700400000080140001001409D
:10451000000C01400000014084010020001BB70096
:1045200040420F00280B00208801002010E000E02E
:1045300000ED00E010B540F2DB1460430D4B4FF48A
:1045400000424FF480515A61841EC3F81018094884
:10455000C26882F40043C360D0F80C1881F4805222
:10456000C0F80C282046FFF744FF1920FFF741FF51
:10457000EDE700BF0008014010B1034A034B1A6089
:1045800003480449C8607047EFBEADDEF04F00201D
:104590000400FA0500ED00E02DE9F84F384E04461E
:1045A0003768384606F032F90546384606F0A2F973
:1045B00076688046304606F029F98346304606F094
:1045C00099F9D4F80490064629464846FCF7F2FAD1
:1045D000A768824641463846FCF7ECFA0146504649
:1045E000FCF7DEF9216882465846FCF7E3FA4146BB
:1045F00004464846FCF7DEFA3146FCF7DBFA014692
:104600002046FCF7CFF9314604463846FCF7D2FA8B
:104610002946FCF7CFFA01462046FCF7C3F90146CC
:10462000504606F0F3F91749FCF7C4FAFBF7FEFE13
:1046300011A3D3E90023FCF777F8134B044618685D
:104640000D46FBF7F3FE02460B4620462946FBF7D4
:104650008FFD00220D4BFCF767F8FCF74DF906F0D3
:1046600009F981B20A0444BF00F5B47189B208B2F5
:10467000BDE8F88FAFF30080182D4454FB210940AA
:10468000340B00200000E144800B00200000244097
:1046900010B5194C2088FCF739FA1849FCF78AFA4A
:1046A00006F0E8F8164B18802088FCF72FFA014630
:1046B0001448FCF733FB1449FCF730FB134908603E
:1046C0001348B0F87000FCF721FA01461148FCF7D6
:1046D00025FBFBF7ABFE06A3D3E90023FBF7FAFEAD
:1046E000FCF70AF90C4A106010BD00BFAFF3008060
:1046F0003B597E90A9E7814048000020C903683FEC
:10470000300B00200AE81C4100401C46081600201F
:10471000C01000200000614424160020AFF3008088
:104720002DE9F041044600680D460146FCF742FAC7
:10473000D4F80480064641464046FCF73BFA014661
:104740003046FCF72FF9A768064639463846FCF78D
:1047500031FA01463046FCF725F906F059F90021F7
:104760000646FCF7BBFB70B920683146FCF7D6FA69
:10477000314628606068FCF7D1FA31466860A0686D
:10478000FCF7CCFAA860BDE8F0812DE9F04F0C6889
:10479000836889B0D0F800A0D0F80480064620468F
:1047A00003938B4606F032F80746204606F0A2F83F
:1047B000DBF804408146204606F028F805462046EE
:1047C00006F098F8DBF8082004461046019206F03F
:1047D0001DF88346019806F08DF839460290584638
:1047E000FCF7E8F9394604900298FCF7E3F95946DA
:1047F00005904846FCF7DEF9029906904846FCF71A
:10480000D9F9294607905846FCF7D4F90146504695
:10481000FCF7D0F9214683460698FCF7CBF9014610
:104820000598FCF7BFF801464046FCF7C3F901467E
:104830005846FCF7B7F8214683460498FCF7BAF9C6
:1048400001460798FCF7ACF801460398FCF7B2F96B
:1048500001465846FCF7A6F83060029905F1004081
:10486000FCF7A8F901465046FCF7A4F92146834617
:104870000798FCF79FF901460498FCF791F8014668
:104880004046FCF797F901465846FCF78BF821465D
:1048900083460598FCF78EF901460698FCF782F8E6
:1048A00001460398FCF786F901465846FCF77AF86A
:1048B000214670605046FCF77DF92946044609F10F
:1048C0000040FCF777F901464046FCF773F90146D2
:1048D0002046FCF767F8394604462846FCF76AF993
:1048E00001460398FCF766F901462046FCF75AF8A2
:1048F000B06009B0BDE8F08F1FB50B684A688968E1
:104900000193039101A90292FFF73FFF05B000BD9B
:1049100080EAE073A3EBE0738B4206DB002801DD45
:10492000401A704702D040187047002070470000BE
:104930002DE9F041524B86B01A685B6802F10042E3
:1049400003F1004301934F4B0646B3F90000009278
:10495000FCF7DCF800F10040FBF768FD46A3D3E963
:104960000023FBF7B7FDFBF7C7FF474C0290B4F9F4
:104970000000FCF7CBF80390B4F90200FCF7C6F88E
:104980000490B4F90400FCF7C1F86946059003A847
:10499000FFF7FBFE3D4B93F84030012B16D13C480E
:1049A000417869B93B4C4025226892FBF5F7D01B52
:1049B000FCF7ACF80599FBF7F5FFFCF7C1FA2060AE
:1049C000344B4021186890FBF1F001E0324B18881D
:1049D000FCF79CF801460598FBF7E2FF059030468E
:1049E000FCF790F82D490746FBF7DCFF01463846F7
:1049F000FCF794F92A4D07462C6805982146FBF7E9
:104A0000CFFF01463846FCF7D5F801462046FBF7B4
:104A1000C9FF244C28601D4D07460398D4F8008038
:104A200005F028FF95F83010FFF772FF08EB000241
:104A300004982260D4F8048005F01CFF95F830102B
:104A4000FFF766FF08EB000338466360D4F8088080
:104A500005F010FF95F82F10FFF75AFF1249134B7E
:104A60000A684044A0601868B6180E60411C1960BE
:104A700006B0BDE8F08100BF399D52A246DF913FEC
:104A8000340B0020EE1500201C160020C010002062
:104A9000831600202C0B0020480000203661823C49
:104AA000680B0020FC150020640B0020780B002010
:104AB0002DE9F04F87B0FEF70FFF022002F026F835
:104AC000002800F0A781FEF767FEFFF767FCAA4CFD
:104AD00005462768C71B3846FCF714F8A749C9687C
:104AE000FCF768F88346A648256090F82E800025DC
:104AF0002C462E46A34A105FFCF708F85946FCF7EF
:104B000059F803AB5851B8F1000F27D04046FBF7D6
:104B1000FDFF01464FF07E50FCF700F9DFF8A4924C
:104B2000824651464FF07E50FBF73AFF55F8091088
:104B3000FCF740F894490346085F0193FBF7E6FF52
:104B40005146FCF737F801460198FBF72BFF49F86F
:104B50000500FCF7F5F98D4A105303E08A498B4AAA
:104B6000605AA052894B0435E15E0234062C01FBE9
:104B70000166BFD1864A6420138846435B4385485B
:104B800003A996FBF3F6FFF7B7FE082001F0BEFF7E
:104B900020B1814803A9FFF7AFFE07E07F4803A9D2
:104BA000FFF7AAFE7D480146FFF7BAFD493EB1B2C4
:104BB0003B2904D9082001F0A9FF48BB50E0784CFC
:104BC000B4F8F000FBF79EFF4FF07E518046FBF7F4
:104BD000E9FE01464FF07E50FCF7A0F8002406469F
:104BE0006C4D404655F81410FBF7E4FF81466748CA
:104BF000005FFBF78BFF01464846FBF7D3FE3146CB
:104C0000FBF7D8FF45F814000234062CE8D1D1E7B1
:104C1000634A0024B2F8F200FBF774FF4FF07E51B4
:104C20008046FBF7BFFE01464FF07E50FCF776F85A
:104C30000646594D404655F81410FBF7BBFF594B3B
:104C40008146185FFBF762FF01464846FBF7AAFE64
:104C50003146FBF7AFFF45F814000234062CE8D1CB
:104C600051494C4DB1F90000FBF750FFAC680146CB
:104C700020460126FCF75AF900B906464B48214662
:104C80004673686805F0C2FE494C2A68206068686F
:104C900002F100460146FBF78DFFD5F80880054676
:104CA00041464046FBF786FF01462846FBF77AFE61
:104CB00005F0AEFE0146304605F0A8FE60602068B3
:104CC000FBF7B4FB2AA3D3E90023FBF703FCFBF7B4
:104CD00013FE05F0CFFD374D28806068FBF7A6FB7B
:104CE00023A3D3E90023FBF7F5FBFBF705FE05F053
:104CF000C1FD6880082001F009FF2F4C08B126484B
:104D000000E02648FFF748FC1D4D20803846FFF79D
:104D10000FFE95F87230002B00F080801D49086866
:104D20008C684F680146FBF745FF39460646384612
:104D3000FBF740FF01463046FBF734FE21460646AE
:104D40002046FBF737FF01463046FBF72BFE05F008
:104D50005FFE01462046FBF7E1FF18490446FCF7D9
:104D6000D1F888B3164A0020108057E0AFF30080D6
:104D70003B597E90A9E78140880B0020D815002080
:104D8000C0100020F41500200C1600201C16002076
:104D90004800002028160020580B00204C0000205E
:104DA0008C110020D0150020300B0020831600202D
:104DB000340B00206C0B0020EE1500208FC2753CD8
:104DC0007C0B0020440B0020204605F0CFFD264B35
:104DD0001968FBF7EFFE05F04DFDB0F5617FA8BF48
:104DE0004FF46170FBF710FB1DA3D3E90023FBF721
:104DF0009BFCFBF781FD05F07DFD044695F87200F4
:104E0000FBF784FE2146FBF7D5FE05F033FD174B7B
:104E1000188003E0164B188058809880154B5979FC
:104E2000154B012907D015481A8859889B8802809C
:104E30004180838011E01249B3F90420B1F90000E8
:104E400002EB4000032290FBF2F080B20B4A088094
:104E500019885B8890801180538007B0BDE8F08F7F
:104E6000A2EB0FE5DD169640241600207C0B0020F7
:104E70000C1600208C110020F41500203C0B0020A3
:104E8000740B0020AFF3008010B5054C0020218882
:104E9000FCF772FB61880120BDE81040FCF76CBB99
:104EA000580000200A4A02EBC00393F87B10FF2948
:104EB00004D019B1074830F8110007E00728DABF1D
:104EC00002EBC000B0F8780040F2DC5000B270474E
:104ED000C0100020C416002010B500244FF48040FC
:104EE000FCF738FF064B10B1B3F8DA0001E0B3F875
:104EF000D400044AA0520234182CEFD110BD00BFD8
:104F00008C1100204C160020F8B53B4D3B4E6B79C0
:104F10003B4C06EBC300417820202160FCF71AFFD0
:104F2000324608B1012626606B79162B1CD100246D
:104F3000314E0021A6193069FBF7D0FF28B14FF49C
:104F40008040FCF707FF50BB23E02E4B06F110001A
:104F50001D190FC885E80F002B4910340A78531C1F
:104F6000C02C0B70E4D1EAE7274F12F8336002EB54
:104F7000C3003E704768002FE1D00024B442DEDA5F
:104F8000204D21016D187A180FCA013485E80F00F1
:104F9000F4E719481D4B4179082923D124E01A4E22
:104FA0003678012EF5D91A4C00251034B542F0DAC6
:104FB00054F8100C4FF07C51FBF7FCFD4FF07C5186
:104FC00044F8100C54F8140CFBF7F4FD4FF07C512E
:104FD00044F8140C54F80C0CFBF7ECFD013544F8C4
:104FE0000C0CE2E70E2901D1012200E000221A7424
:104FF000BDE8F840FFF770BF8C11002024DB0008EB
:10500000900B0020980B00208C0B002083160020B2
:10501000A00B0020F0B50023461C0E4A0021981872
:105020001033C02B0161F8D10B4F07EBC6035F684B
:1050300007B9F0BD0024084A12F83600844208DAA5
:10504000064D21014D197B180FCB013485E80F0067
:10505000F1E7F0BD8C11002024DB00089C1100203A
:10506000284B10B5186800284AD027494A79531EA2
:10507000142B3DD8DFE803F00B3C3C24403C3C1CA7
:105080003C3C3C3C3C2C3C3C3C3C3C242C001F48E5
:1050900090F8BB1031B11E4B00205989BDE810407B
:1050A000FCF76ABA1B4A50780028F4D10146F5E7AC
:1050B000174C0020E188FCF75FFA01202189EDE719
:1050C000134C00202189FCF757FA01206189E5E79C
:1050D0000F4C0020E188FCF74FFA01202189FCF7F2
:1050E0004BFA02206189FCF747FA0320A189D5E732
:1050F0002020FCF72FFE18B1BDE81040FFF7C4BE1A
:1051000010BD00BF900B00208C110020C0100020AB
:10511000580000208316002010B50024064B187894
:10512000A04208D90549204631F814100134FCF793
:1051300015FAE4B2F2E710BD8C0B00203416002003
:10514000064B1A780023D9B2914204D2044921F8BF
:1051500013000133F7E7FFF7DFBF00BF8C0B002020
:10516000341600202DE9F84FB24B187803280FD9D8
:10517000B149B24CB1F904206FF06305002AB8BF01
:105180005242A91AB4F904006432FCF78FFFA080E0
:10519000A84A1678012E1DD8A94EAA4C75796A1E08
:1051A000142A00F2F981DFE812F0C200F701F701DA
:1051B0008400D500F701F7017101F701F701F7014C
:1051C000F701F701F100F701F701F701F701F70126
:1051D0005E00C7019B48994B90F9BA90964FB3F97E
:1051E0000440C9F10001B7F806A004FB01F95F888B
:1051F000B3F80080944C00251034B542CCD20FFA9D
:105200008AF0FBF783FC54F8101CFBF7D3FC8346B1
:1052100038B2FBF77BFC54F8081CFBF7CBFC0146CB
:105220005846FBF7BFFB83460FFA88F0FBF76EFC8E
:1052300054F80C1CFBF7BEFC01465846FBF7B2FBCA
:1052400083464846FBF762FC54F8041CFBF7B2FCAB
:1052500001465846FBF7A6FBFBF772FE7B4B23F893
:1052600015000135C8E794F89A20744D12F0010F2B
:105270006B880CBF01264FF0FF365E43744CB7B20B
:1052800004202781FFF70EFE29886E4D381895F807
:10529000A230208113F0010F0CBF01224FF0FF322A
:1052A0004A43052096B26681FFF7FCFD37186781F7
:1052B00072E194F89A50614805F002084FFA88F6B6
:1052C000002E0CBF01214FF0FF3115F0010F458872
:1052D0000CBF01224FF0FF326A438688042001FB95
:1052E00006F497B2FFF7DEFD1FFA84F808EB00031F
:1052F0005448F91890F8A270554C07F0020253B2C6
:105300002181002B0CBF01214FF0FF314E4317F0DC
:10531000010F0CBF01204FF0FF3045430520FFF780
:10532000C1FDB6B2ADB23718EA19628134E1434922
:1053300094F8A2408E8814F0010F0CBF01234FF0A7
:10534000FF3305205E43FFF7ADFDB5B2404F28188F
:10535000788121E10020FFF7A5FD3E4F94F97A30D6
:10536000B7F902603A4D7343322693FBF6F14018C9
:1053700028800120FFF796FDB7F9002094F98240BC
:10538000544394FBF6F3C7186F8005E1324C607804
:1053900020B9B6F8D4202E4BDA810AE02649B6F8B7
:1053A000D220B1F90600B6F8D010FCF77FFE284DE8
:1053B000E881274E254CF7892780214F97F819015E
:1053C00030B3204D0220FFF76DFDB5F98410B5F91B
:1053D0008620FCF76BFE214BB7F812111A880C1AC5
:1053E00016B220B2864203DA97F81961B41803E0C6
:1053F00003DD97F81971D41B1C8095F98A50B3F915
:10540000003064226B43124F93FBF2F00918B9800D
:10541000114C0F4DA67A56B1074B1A880324EA8027
:105420002A81988868815988A981094D18E0034B21
:10543000F3E700BF8C0B00205815002060150020FA
:105440008C110020C0100020980B00203416002082
:10545000580000206C0B002083160020940B0020C5
:10546000AA4FB5F9062007EBC40696F97A306420F6
:105470005A4392FBF0F7EF802046FFF713FD01340B
:105480003918E9800235072CEAD185E0A04B5A781B
:1054900022B9B6F8D4709F49CF810AE09E48B6F889
:1054A000D010B6F8D220B0F90600FCF7FFFD994EF7
:1054B000F081964E974B964A96F89270974DDC89FC
:1054C000907A17F0010F2C800CBF01254FF0FF35AB
:1054D00008B1914900E09249488807F00204454329
:1054E00096F89A60098862B2002A0CBF01274FF033
:1054F000FF3716F0010F0CBF01244FF0FF3407FBFC
:105500000155604306F0020257B2DD80002F0CBF48
:1055100001254FF0FF3505FB010018810320FFF73F
:10552000C1FC7C4EF388C1180420F180FFF7BAFC5F
:105530003489021932812FE0794F0324BF88734BDD
:1055400003EBC40090F87A60C4F1060306F0020190
:105550004DB2002D0CBF01224FF0FF327A4370494B
:10556000580831F8105016F0010F0CBF01264FF00B
:10557000FF3606FB0522674D96B225F814602046DB
:10558000FFF790FC331825F814300134072CD6D1DE
:10559000614F6249F88808802020FCF7DBFB002877
:1055A00041D00020FFF77EFC5A4C054620800120A8
:1055B000FFF778FC5B4A6080137AA3B3534F5A4AD3
:1055C00097F8BC1001F00206F3B2CBB1B2F900308B
:1055D00097F9821097F97A70B2F9022059437B4209
:1055E0005343322691FBF6F16FF0310789B293FBFA
:1055F000F7F28F187D1993FBF6F625808E1910E0CF
:1056000097F97A10B2F9026097F982704E43B2F9B5
:1056100000203221574396FBF1F3ED18258097FBCC
:10562000F1F680196080414C384D04F11006B4F950
:105630000200B5F97410B5F97620FCF737FD24F8AF
:10564000020F0835B442F2D1304991F8BC3003F072
:105650000402D7B22FB93148354B07881C78012294
:105660001CE0344D68790E280AD0082808D0324C46
:1056700004EBC0014B78002B14BF0225002500E08D
:10568000042500242D4F621907EB4401D0B209898B
:105690000134FBF771FF042CF4D1DCE7A24209D2FC
:1056A0001E483FB230F912100132B942A8BF0F466E
:1056B000BFB2F3E70024A0461D4A1178884567D29F
:1056C0001C4D3BB2B5F8D200834204DD134DC21B22
:1056D000615B501860534FF48040FCF73BFB0F4D6B
:1056E00070B3164B40F2DC51B3F90620114B8A42DD
:1056F000285FC7BFB3F8D810B3F8D220B3F8D410DE
:10570000B3F8D620FCF7D2FC285336E0C0100020B6
:105710008316002058000020581500203416002061
:1057200060150020941600206C0B0020560000200D
:105730008C0B00208C11002024DB0008C4160020F4
:10574000144E285FB6F8D010B6F8D220FCF7AEFCA5
:10575000114BB6F81411B3F9062005EB04098A427F
:1057600028530ADA1020FCF7F5FA10B9B6F8D00081
:1057700001E0B6F8D400A9F80000084A507818B93A
:105780000749084B625AE25208F10108023493E7D4
:10579000BDE8F88F8C110020C4160020831600206D
:1057A0004C16002034160020024B1868003018BF39
:1057B00001207047900B002044F25063984203DDB3
:1057C000A0F50C40A038704703498842BCBF00F5E3
:1057D0000C40A030704700BFB0B9FFFF10B5FBF719
:1057E00095F900210446FBF7A1FB08B1204601E032
:1057F00004F100400549FBF791FA0549FBF7DAF996
:1058000005F004F8034B186010BD00BF8096184BDC
:1058100035FA8E3C6800002010B5044C002320703F
:105820002361FEF7D5FD606110BD00BF6816002042
:10583000F8B51D4614460E46FBF768F96968FBF794
:10584000B9F93146FBF7B6F92168FBF7ABF82060F0
:10585000FBF776FBED68074605F10040FBF770FBB0
:1058600006462846FBF76CFB314602463846FCF7F5
:105870001DFCFBF74BF92060FBF762FBF8BD000055
:10588000F8B5101A0C461F46FBF740F90546381BC1
:10589000FBF73CF9174B079E1968FBF78BF9294674
:1058A00004462846FBF786F9214607462046FBF7C3
:1058B00081F901463846FBF775F805F0A9F80E495D
:1058C000FBF778F9FBF762FB06990860214605F1C2
:1058D000004005F09BF80949FBF76CF90849FBF714
:1058E00061F8FBF72DFB0028BCBF00F50C40A03091
:1058F0003060F8BD680000202C7D8E3FA00CB345C1
:1059000000A00C4610B50446002003460D49CA5CB1
:10591000A2B12E2A04D1013394B1C91800220A552C
:10592000084A0A21D25C4843A2F13001092901D872
:10593000303880180E2B02D80133E7E710BD002065
:1059400010BD00BF340D0020F8B52D4B93F81C019D
:1059500010B1012850D10AE02A4B2B4A58782B4B22
:1059600002EB001149685868FEF7ABFA41E0274D99
:105970006868FEF7ABFA00283ED0224C2178264614
:1059800001291ED1FEF724FD06466069321A632AFA
:1059900035D92169042912D81B4F686807EB011318
:1059A0005968FEF78EFA607807EB0017B9686868E7
:1059B000FEF772FA22696661511C21611CE0022027
:1059C00018E022693AB964780F4B686803EB041158
:1059D0004968FEF776FA33690A4C8B2B09D80C4AD2
:1059E0000A48D15C4068FEF752FA21694B1C2361DA
:1059F00002E00320FFF710FF024A00205060F8BDCC
:105A00008C1100206816002044E0000808170020D0
:105A1000B6DF000810B50B4CE37A8BB10A48017869
:105A200004290DD9094A0A4B106851681860596059
:105A3000FFF7D4FE0748084B028801211A80217322
:105A400010BD00BF83160020A21500208415002081
:105A500068150020EE150020240D0020002370B5ED
:105A60001C460F4800211952142060430D4A0E4E67
:105A70000E4D995200223250595335180C4E696020
:105A8000AA60325035180B4E01346960AA600233A7
:105A90003518022C32506960AA60E2D170BD00BF97
:105AA0003C15002018070020E00C002040150020C5
:105AB000840C00206C0D002070B5204C204D6079C6
:105AC000FBF720F81F49FBF729F92860E07BFBF77B
:105AD00019F81C49FBF722F91B4E6860EE60A079AB
