:020000040800F2
:10000000801700205185000891850008938500081D
:100010009585000897850008998500080000000074
:100020000000000000000000000000009B850008A8
:100030009D850008000000009F8500087F5B000888
:10004000A3850008A3850008A3850008A3850008F0
:10005000A3850008A3850008A3850008A3850008E0
:10006000A3850008A3850008A3850008A3850008D0
:10007000A3850008A38500083D5E0008A38500084D
:10008000A3850008A3850008A3850008A3850008B0
:10009000A3850008A3850008A3850008A3850008A0
:1000A000A3850008A3850008A3850008A385000890
:1000B000435800085F580008A3850008C55300088E
:1000C000E74F0008D5530008CD530008A38500086A
:1000D000A3850008A3850008A3850008A385000860
:1000E00055480008A3850008A3850008DFF80CD058
:1000F00008F060FF004800477913000880170020CF
:1001000010B5FEA005F07EFF10BD2DE9F0410546BB
:100110000C462F462646306808F0B6FA804631680D
:100120004246386808F0B8FABDE8F08110B50446D8
:10013000F4A005F067FF012000F0D6FCF8A005F060
:1001400061FF0A2005F058FD002005F025FE10BDD6
:1001500010B50446F6A005F055FF00F096FCF7A098
:1001600005F050FF0A2005F047FD002005F014FEC1
:1001700010BD10B50446F5A005F044FF2021F94854
:1001800008F060FA0020F8490870F8490870204625
:10019000FFF7DEFF10BD2DE9F0410546284608F0C7
:1001A00073FAC6B200F058FD0746EEB9F0A005F0AC
:1001B00029FF002400BFF34850F8240000B90EE0E6
:1001C0000120A040384204D0EE4951F8240005F047
:1001D00019FF202005F002FF601CC4B2EBE700BF4E
:1001E000CEA005F00FFF5EE03246E7A1284608F0FA
:1001F00053FAD0B9E6A005F005FF002400BFE1489E
:1002000050F8240000B90AE0DE4951F8240005F056
:10021000F9FE202005F0E2FE601CC4B2EFE700BF4B
:10022000BEA005F0EFFEBDE8F0814FF00008287891
:100230002D2804D14FF001086D1C701EC6B2002499
:1002400000BFD04850F8240018B9D7A005F0DAFE56
:1002500027E0CC4850F824103246284608F01CFA13
:10026000E0B9B8F1000F08D0012101FA04F000F064
:10027000EDFCD4A005F0C6FE07E0012101FA04F070
:1002800000F028FCD2A005F0BDFEBE4951F82400C4
:1002900005F0B8FEA1A005F0B5FE02E0601CC4B2F6
:1002A000CFE700BF00BF00BFBDE770B50546002423
:1002B000CAA005F0A7FE00BF16E004EB4401CD4A3A
:1002C00052F8210005F09EFE202005F087FE04EB89
:1002D0004401C84A02EB8101486805F093FE8FA0F3
:1002E00005F090FE601CC4B2082CE6D370BD70B55A
:1002F0000646304608F0C8F9C5B275B9BEA005F08B
:1003000081FEC1494978491EC04A52F8210005F0D2
:1003100079FE82A005F076FE70BD2A469AA130468D
:1003200008F0BAF9C8B9BAA005F06CFE002400BF05
:10033000B64850F8240000B90AE0B44951F8240046
:1003400005F060FE202005F049FE601CC4B2EFE716
:1003500000BF72A005F056FEDEE7002400BFAB48E8
:1003600050F8240018B9AFA005F04CFE19E0A748DA
:1003700050F824102A46304608F08EF970B9601CF7
:10038000A1494870ADA005F03DFEA04951F82400F8
:1003900005F038FE61A005F035FE02E0601CC4B235
:1003A000DDE700BF00BFB7E77FB50446207930B175
:1003B000012807D0022809D003280ED109E0A0683F
:1003C00005780AE0A06890F9005006E0A06805886A
:1003D00003E0A068B0F9005000BF00BF2B469BA20D
:1003E0001021684608F0DEFE684605F00BFE7FBD72
:1003F000027932B1012A07D0022A09D0032A0ED18C
:1004000009E0836819700AE04AB283681A7006E04E
:100410008368198003E00AB283681A8000BF00BFB6
:1004200070472DE9F04781464FF000080026484606
:1004300008F02AF9C7B20FBB85A005F0E3FD002440
:1004400019E004EB8400884901EB800504EB84018A
:10045000854A52F8210005F0D5FD84A005F0D2FDB3
:100460002846FFF7A1FF2DA005F0CCFD0A2005F0DE
:10047000C3FB601CC4B20D2CE3D316E17CA148463B
:1004800008F0ECF85FEA000835D008F10108781EA2
:10049000C7B2404608F019F906460024FFE004EB15
:1004A0008400714901EB800504EB84016E4A52F827
:1004B000210008F0E9F8824604EB84006A4A52F809
:1004C00020105246484608F0E7F898B904EB84003B
:1004D000654901EB8000C068B0420DDC04EB84008C
:1004E00001EB80000069B04206DB31462846FFF789
:1004F0007FFFBFE0D1E0D8E0CAE000000D0A232072
:1005000000000000526573657474696E6720746F33
:100510002064656661756C74732E2E2E0D0A0000C2
:100520005265626F6F74696E672E2E2E0000000098
:10053000536176696E672E2E2E0000000D0A5265FB
:10054000626F6F74696E672E2E2E00000D0A4C6567
:100550006176696E6720434C49206D6F64652E2E6D
:100560002E0D0A0018030020000000203802002091
:10057000456E61626C656420666561747572657351
:100580003A2000004C0000206C69737400000000E9
:10059000417661696C61626C652066656174757233
:1005A00065733A2000000000496E76616C69642032
:1005B00066656174757265206E616D652E2E2E0DF7
:1005C0000A00000044697361626C656420000000E9
:1005D000456E61626C6564200000000041766169CF
:1005E0006C61626C6520636F6D6D616E64733A0D52
:1005F0000A00000070A5000843757272656E7420D1
:100600006D697865723A20003803002004000020EC
:10061000417661696C61626C65206D6978657273A1
:100620003A200000496E76616C6964206D697865D6
:100630007220747970652E2E2E0D0A004D69786532
:10064000722073657420746F200000002564000020
:1006500043757272656E742073657474696E677326
:100660003A200D0A00000000D0A50008203D20001F
:100670003D00000004EB84018F4A52F8210005F090
:10068000C1FC8EA005F0BEFC2846FFF78DFE02E0FF
:100690008DA005F0B7FCBDE8F087601CC4B20D2C3E
:1006A000FFF4FDAE92A005F0ADFC00BFF3E710B57E
:1006B000044697A005F0A6FC10BD2DE9FF419B481C
:1006C000007838B901209949087099A005F09AFC82
:1006D000FFF716FDE9E005F068FC0446092C01D09F
:1006E0003F2C69D1002600279F4890F800809F4D3D
:1006F0000FE09D48007838B19B4802789C482968F3
:1007000007F0CAFF00B103E006B92E462F4600BF2E
:100710000C35964860308542EBD34EB300BF92490A
:1007200009783068405C904A12783968895C884260
:1007300000D01CE08C4909783068405C48B9202121
:10074000894802780078401C874B1870884881548B
:100750000DE0854909783068405C8549824A127805
:10076000885481480078401C7F490870D7E700BF53
:100770007D48007808B1BE4211D07EA005F042FC51
:10078000354606E0286805F03DFC092005F026FC0A
:100790000C35BD42F6D9FFF7B3FC4FF0000806E078
:1007A000734911F8080005F019FC08F101086E48BA
:1007B00000788045F4DB77E06B48007830B9042C92
:1007C00004D16B48FFF7D5FCBDE8FF810C2C05D1A7
:1007D0006AA005F017FCFFF793FC65E0624800781B
:1007E000002836D00A2C01D00D2C32D10025AFF2D2
:1007F000D42005F007FC00205D495B4A127888543C
:1008000008460190002002905F480C2308225749B7
:10081000009001A807F0DAFE05464DB1286807F000
:1008200033FF53490844461C3046A968884702E014
:1008300056A005F0E7FB20214D4807F003FF0020FC
:10084000494908703948007800B9BDE7FFF758FCFE
:100850002AE07F2C0FD14448007828B30021424879
:100860000078401EC0B2404A1070414A115450A056
:1008700005F0C8FB18E03C480078202814D2202C52
:1008800012DB7E2C10DC3848007810B9202C00D107
:100890000BE0354801780078401C334A107034482A
:1008A0004454204605F09AFB00BF05F071FB002878
:1008B0007FF411AF00BF87E7D0A5000820736574EF
:1008C00020746F20000000004552523A2056616C9F
:1008D00075652061737369676E6D656E74206F75E1
:1008E00074206F662072616E67650D0A000000005B
:1008F0004552523A20556E6B6E6F776E207661725C
:100900006961626C65206E616D650D0A0000000012
:100910004166726F333220434C49207665727369A9
:100920006F6E20322E302D70726533003802002039
:100930000D0A456E746572696E6720434C49204DFF
:100940006F64652C20747970652027657869742739
:1009500020746F2072657475726E2C206F72202760
:1009600068656C70270D0A000000002070A5000863
:10097000180300200D1B5B4B000000001B5B324A7C
:100980001B5B313B314800000B0100084552523AD5
:1009900020556E6B6E6F776E20636F6D6D616E6448
:1009A0002C20747279202768656C70270000000085
:1009B0000820080010B56C22A949AA4807F029FEB2
:1009C000002417E0A74890F8211004FB04F0193820
:1009D000484300F6C4106043A24991F820104843F0
:1009E00040F2E24190FBF1F000B29F4921F814007F
:1009F000601CC4B2072CE5DB9A48B0F85E00B0F585
:100A00007F7F02DA4FF47F700BE09648B0F85E000B
:100A1000B0F5FA6F02DD4FF4FA6002E09148B0F8E9
:100A20005E009049A1F85E000846B0F86000B0F59D
:100A30007F7F02DA4FF47F700BE08A48B0F86000E5
:100A4000B0F5FA6F02DD4FF4FA6002E08548B0F8C5
:100A500060008449A1F860000846B0F86200B0F573
:100A60007F7F02DA4FF47F700BE07E48B0F86200BF
:100A7000B0F5FA6F02DD4FF4FA6002E07948B0F8A1
:100A800062007849A1F8620010BD70B507F03BFB29
:100A9000342007F046FD724807F070FB04280FD1A0
:100AA00000240AE06F4A11596D4AA01807F005FCAE
:100AB0000546042D00D002E0241D6C2CF2D300BFAB
:100AC00007F02DFBFFF776FF012214210F2001F024
:100AD00019FE70BD634949680143624A516070471D
:100AE000002060494860704770B505465C4806784C
:100AF00025B95E480078864200D170BD5B48007819
:100B00005849087003204870FFF7EAFF0220FFF7FA
:100B1000E1FF2820534908721E2008741720087628
:100B20002821504841721E214174172141765521D8
:100B300081720021817481761021C1720F21C174EC
:100B40000721C17632214173002141750F21417780
:100B500000210173017501775A2181732D2181755F
:100B6000642181772821C1732D203E4981F820001E
:100B7000412081F82100002081F8220081F8230023
:100B800081F82400002407E0002136483C3001555C
:100B90000B300155601CC4B20B2CF5DB0020314931
:100BA000488600212F48818631482E4988630020DD
:100BB00081F8520081F8530040F2DC50A1F8540053
:100BC00040F27E40A1F8560040F23A70A1F8580079
:100BD0004FF47A70A1F85A00012081F85C0040F2CD
:100BE000DC50A1F85E00A1F86000A1F862004FF4AB
:100BF0007F70A1F864004FF4FA60A1F866000A2043
:100C000081F8680081F86900FFF73FFF00BF74E7D3
:100C1000014618480068084201D0012070470020B2
:100C2000FCE7144909680143124A116070471149F1
:100C3000096881430F4A11607047014609484068BE
:100C4000084201D0012070470020FCE705494968AF
:100C50008143044A51607047024840687047000071
:100C600000FC0008380300208C04002078000020DD
:100C700003141400740000202DE9F041FD480088A1
:100C800007F09DFF0446FC4AFC4B07F09FFE06461A
:100C900007F0CFFF00B2FA4908800420FFF7B8FF41
:100CA00008B103F0BAF8BDE8F0812DE9F0478046BD
:100CB00089464946404608F08FFC824607F0D8FF37
:100CC0000646F04AF04B07F081FE044607F0B1FFFC
:100CD00000B2BDE8F0872DE9FE4304460D4694E8D6
:100CE00007008DE807000199686807F053FD074683
:100CF0000099286807F04EFD8046394607F0F2FC5F
:100D00000646A16807F043FDA0600199A86807F0B6
:100D100041FD07460299286807F03CFD80463946A8
:100D200007F032FD0646216807F0DCFC20600099E0
:100D3000A86807F02FFD07460299686807F02AFDAA
:100D40008046394607F0CEFC0646616807F0CAFCCB
:100D50006060BDE8FE832DE9FE4F4FF0000904F00E
:100D600018FF8246C9490968AAEB010007F027FF6E
:100D70000646C74AC74B07F029FE044607F08EFF18
:100D80008346C248C0F800A0C8462CE0C24931F9E9
:100D9000180007F0FAFE0446594607F0FBFC4DF830
:100DA0002800BE4830F91800A0EB2010BC4931F8EB
:100DB0001810084400B2B94921F81800084630F963
:100DC00018000011B74921F81800084630F918003A
:100DD00031F9181000FB01990420FFF719FF08F101
:100DE000010000F0FF08B8F1030FCFDB642009FB1E
:100DF00000F0A0490988494390FBF1F96946AA48E7
:100E0000FFF769FF0420FFF703FF18B16946A74801
:100E1000FFF761FFA348B0F90000002803DDA148F7
:100E2000B0F9000003E09F48B0F900004042944947
:100E3000B1F9001088421ADA9A48B0F90200002885
:100E400003DD9848B0F9020003E09648B0F90200CB
:100E500040428B49B1F90010884208DA9148B0F954
:100E60000400002803DD01209149087002E0002001
:100E70008F490870B9F1240F02DDB9F1C40F02DB0C
:100E80008B48007808B34FF000081BE0854830F924
:100E90001840204607F079FE0646834951F828009D
:100EA000844907F077FC0746314607F01BFC0546EE
:100EB000814907F06FFC7C4941F8280008F10100E6
:100EC00000F0FF08B8F1030FE0DB0420FFF7A0FEFD
:100ED00000B34FF000081AE0784931F9180007F024
:100EE00054FE0546714951F82800754907F052FC37
:100EF0000646294607F0F6FB0446724907F04AFC0D
:100F00006A4941F8280008F1010000F0FF08B8F133
:100F1000030FE1DB644A91681068FFF7C6FE6A4977
:100F20000880614A91685068FFF7BFFE66494880B3
:100F30000420FFF76DFE60B35C4A91685A4A50681E
:100F400007F028FC0646594A5168574A906807F04E
:100F500021FC0746314607F017FC0546534A116845
:100F6000514A906807F016FC0646504A91684E4A6E
:100F7000106807F00FFC0746314607F005FC0446F1
:100F80002946FFF792FE0A2190FBF1F000B24F498B
:100F90000880BDE8FE8F1FB50120FFF739FE18B1AC
:100FA00002F0DCFDFFF7D7FE02F018FF002407E097
:100FB000394830F8140002A921F81400601CC4B2AA
:100FC000032CF5DB04F0E5FD4149086001F0C4FBAA
:100FD00004F0DFFD3E490968401A40F28A21884248
:100FE00006D93C480088401C00B23A49088009E014
:100FF00000BF04F0CEFD36490968401A40F28A214C
:101000008842F6D302F0EAFE002429E0224830F8B4
:10101000140002A931F81410084400B22DF814008D
:101020003DF914002C4931F914100844401C0321E7
:1010300090FBF1F000B2294921F814003DF91400A9
:1010400000EBD0714910244A22F814100120FFF758
:10105000DFFD18B90020124921F81400601CC4B249
:10106000032CD3DB8020FFF7E8FDD8B31C480078C1
:10107000C8BB39E0E8010020DF4F8D976E12DB3FDF
:101080007C0000203B597E90A9E78140B4000020FD
:101090003DAF940F6BC7353EBE000020AC00002072
:1010A000C4000020CA000020A4030020B0030020D8
:1010B0009200002000009B4308BA523BD000002061
:1010C000000048435E06A33B8E000020340200204F
:1010D0009C0000200E0100209400002082000020CF
:1010E000A20000202DE00BE09448806B000C944996
:1010F00008709248806B000A48709048806B887036
:1011000000241BE08F4830F914108F4830F9142068
:101110008B48005D401E02FB0010401C8849095DA1
:1011200090FBF1F000B2874921F81400084630F82E
:101130001400854921F81400601CC4B2032CE1DBC3
:1011400016E07E484078012812D17E48B0F904109C
:101150007E48B0F9000001EB4000401C032190FBE9
:10116000F1F000B277498880084680887749088086
:101170001FBDF0B500210022754D2D68754E3668F3
:10118000B54200D2F0BD724D2D6846F2A816354426
:10119000704E3560704D714E96F9006035F916400D
:1011A0006F4D2D680A2695FBF6F52DB26A4E6B4FF2
:1011B00097F9007026F817503546684E96F900608A
:1011C00035F916502944654D95F9005014352826F7
:1011D00095FBF6F706FB1755EBB25F4D35F913504B
:1011E000491B5D4D35F913502A44121B5B4D2D7878
:1011F0006D1C6DB2594E3570354695F90050282D4D
:1012000001DB002535700025564E35804B4DED7EB7
:101210008E1A7543282695FBF6F0524D2D882D1A0F
:101220002DB2504E358001EB81056D00142695FBE3
:10123000F6F54D4E35604D4D2D683668A81B0028DB
:1012400001DD054600E045420A2D11DA454DB5F9AC
:101250000050002D03DD434DB5F9005003E0414D32
:10126000B5F900506D420A2D02DA00253D4E358059
:10127000324DEE7AED7A6D006D42854204DD2F4DE0
:10128000ED7A6D006D4209E02C4DED7A6D008542DE
:1012900003DA2A4DED7A6D0000E005466E436425C1
:1012A00096FBF5F52F4E368835442DB22D4E358000
:1012B0003546B5F9005015F1960F02DA6FF0950535
:1012C00009E0284DB5F90050962D01DD962502E084
:1012D000244DB5F90050234E3580184DED7C454323
:1012E000322695FBF6F5224E368835442DB2204E37
:1012F00035803546B5F900501E4EB54201DA354607
:101300000BE01B4DB5F9005047F23056B54201DDF8
:10131000354602E0164DB5F90050154E358035467C
:10132000B5F900504FF4FA7695FBF6F00D4D2D8887
:1013300005442DB20B4E358000BF23E73803002053
:10134000A200002082000020A6000020A0000020B3
:1013500000010020B8000020BC030020BC000020D9
:10136000D80000207E000020DC000020E0000020EB
:1013700080000020D08AFFFF04F04AFCFFF71AFB30
:101380000020FFF7B1FB0720FFF74BFC00F05CF8F3
:101390000820FFF752FC06460120FFF74EFC0546E9
:1013A0002448007808B1012000E0002001463246C0
:1013B000284604F059FA10201F4908600820091F28
:1013C000086000241DE01C480838006880F0100008
:1013D0001949083908600846006880F0080008606C
:1013E000192004F009FC4FF48050144908601920BA
:1013F00004F002FC4FF480501049091F0860601C83
:10140000C4B20A2CDFDB08200B49091F086010203A
:10141000086002F053FAFFF72FFC04F0BAFB08490A
:1014200008604FF4C8700749088001E001F08EFCA5
:10143000FCE70000E5000020140C01401408014006
:1014400004010020E401002010B5F748407804288A
:101450000BD0F5484078012807D0F348407805289C
:1014600003D0F1484078082802D10120EF490870E4
:101470002020FFF7E2FB18B94020FFF7DEFB10B198
:101480000120EA490870E848407812282DD2DFE8A8
:1014900000F02C15191A110920210D1B22262728CE
:1014A0002C2C2C1C0020E24908701EE00120E04991
:1014B00008701AE00220DE49087016E00320DC49BB
:1014C000087012E000BF00BF00BF0420D8490870B8
:1014D0000BE000BF00BF0620D549087005E000BF43
:1014E00000BF0820D249087000BF00BF10BD10B572
:1014F000CE48007800B910BDCB484078012803D011
:10150000C9484078042810D1CA48008981B2002017
:1015100004F008FBC4484078042812D1C54840892B
:1015200081B2012004F0FEFA0BE0C248008881B2CB
:10153000002004F0F7FABF48408881B2012004F08F
:10154000F1FA00BFD7E770B50025B848007800B1C0
:101550000225002409E0B84A32F8142091B2621939
:10156000D0B204F0DFFA601CC4B2B1480078844203
:10157000F1DB70BD70B50546002404E0AE4820F8EC
:101580001450601CC4B2AA4800788442F6DBFFF70E
:10159000DAFF70BD70B5A648007803284DDDA74876
:1015A000B0F90410A648B0F90400002803DDA448EF
:1015B000B0F9040003E0A248B0F9040040426FF023
:1015C0006302101A814210DA9D48B0F90400002825
:1015D00003DD9B48B0F9040003E09948B0F904002A
:1015E00040426FF06301081A24E09448B0F90410F7
:1015F0009348B0F90400002803DD9148B0F90400D5
:1016000003E08F48B0F904004042643081420EDDAF
:101610008B48B0F90400002803DD8948B0F90400C4
:1016200003E08748B0F904004042643002E0834898
:10163000B0F9040000B2814988807B4840781228C4
:101640007ED2DFE810F07D009200FF00430112001F
:101650000306CD015B028E069201EB028503220494
:10166000E0047D007D007D00A6057548C1887348B3
:101670000088084400B2704908807148C0886F49EA
:1016800009884942084400B26B494880664890F98D
:101690005C006A49B1F90410484300F2DC50674924
:1016A000B1F902100844B0F57F7F02DA4FF47F7081
:1016B0001FE05D4890F95C006049B1F904104843AF
:1016C00000F2DC505D49B1F902100844B0F5FA6F40
:1016D00002DD4FF4FA600CE0534890F95C00574982
:1016E000B1F90410484300F2DC505449B1F902103A
:1016F000084400B24F4908814B4890F95C004F49BB
:10170000B1F90410484300F2DC504C49B1F9021021
:10171000401AB0F57F7F02DA4FF47F7021E0424833
:1017200090F95C004549B1F90410484300F2DC50DF
:101730004249B1F90210401AB0F5FA6F04DD00E039
:101740006BE24FF4FA600CE0374890F95C003B49DB
:10175000B1F90410484300F2DC503849B1F90210E5
:10176000401A00B23349488157E23448B0F90200C8
:101770008000032190FBF1F03149C988084400B290
:101780002D4908802D48B0F9020040004042032155
:1017900090FBF1F12A48C088284A1288524210442E
:1017A000084400B2244948802448B0F902004000AF
:1017B0004042032190FBF1F12148C2881F48008874
:1017C0001044084400B21C4988801748B0F86210E1
:1017D00090F95C00194AB2F9042000FB0210B0F540
:1017E0007F7F02DA4FF47F701AE00F48B0F8621082
:1017F00090F95C00114AB2F9042000FB0210B0F528
:10180000FA6F02DD4FF4FA600AE00748B0F86200B0
:10181000054991F95C10094AB2F9042001FB020064
:1018200000B2044908819FE738030020E50000204A
:10183000E4000020E60000200C040020AE0100209F
:101840009C010020FE48C0880146FE4840880144B3
:10185000FD4890F95C00FB4A92885043404208449E
:1018600000B2FA490880F648C088F649098849421A
:1018700008440146F44890F95C00F24A928800FB63
:10188000021000B2F1494880ED48C188ED48008857
:1018900008440146EC4890F95C00EA4A928800FB53
:1018A000021000B2E9498880E548C088E5494988C6
:1018B00049420144E44890F95C00E24A928850436E
:1018C0004042084400B2E149C8804DE7DC48C08886
:1018D000DC49098849420144DA4840880144DA4831
:1018E00090F95C00D74A928850434042084400B2C5
:1018F000D6490880D248C088D2490988494208445C
:10190000D049498849420144CF4890F95C00CD4A0A
:10191000928800FB021000B2CC494880C848C188B8
:10192000C84800880144C74840880144C64890F927
:101930005C00C44A928800FB021000B2C349888050
:10194000BF48C188BF4800880844BE494988494209
:101950000144BD4890F95C00BA4A92885043404225
:10196000084400B2B949C880FEE6B548C0880146BF
:10197000B44840880144B44890F95C00B14A928868
:1019800050434042084400B2B0490880AC48C08887
:10199000AC49098849420844AA494988494208444F
:1019A00000B2AA494880A648C0880146A548408898
:1019B0000144A54890F95C00A24A928800FB0210FD
:1019C00000B2A24988809E48C1889E480088084489
:1019D0009C4949884942084400B29C49C880C3E6F2
:1019E0009848B0F902008000032190FBF1F094497F
:1019F000C9880144944890F95C00924A928800FB9F
:101A0000021000B2914908808E48B0F902004000EF
:101A10004042032190FBF1F08949C988894A128824
:101A2000524211440144884890F95C00854A9288EA
:101A300050434042084400B2844948808148B0F98C
:101A4000020040004042032190FBF1F17C48C28833
:101A50007C480088104401447B4890F95C00794A36
:101A6000928850434042084400B2784988807548C3
:101A7000B0F902008000032190FBF1F07049C988A1
:101A80000144714890F95C006E4A9288504340428C
:101A9000084400B26D49C8806A48B0F902004000AD
:101AA0004042032190FBF1F06549C988654A1288DC
:101AB000524211440144644890F95C00614A9288A2
:101AC00000FB021000B2614908815E48B0F90200D3
:101AD00040004042032190FBF1F15948C288594827
:101AE000008810440144584890F95C00554A928897
:101AF00000FB021000B25549488135E6514AB2F95F
:101B00000020514201EBD1724D4BDB8803EB6203A5
:101B10004C4AB2F9020000EBD07203EB62034A4A6E
:101B200092F95C20474EB68802FB063212B2474B50
:101B30001A80444AB2F90020514201EBD172404B65
:101B4000DB8803EB62023F4BB3F90230584200EBF3
:101B5000D07302EB63033C4A92F95C20394EB6889D
:101B6000724352421A4412B2384B5A80354AB2F983
:101B7000001001EBD172324BDB8803EB6203314A78
:101B8000B2F9020000EBD07203EB62032E4A92F925
:101B90005C202C4EB68802FB063212B22B4B9A8088
:101BA000284AB2F9001001EBD172254BDB8803EB18
:101BB0006202244BB3F90230584200EBD07302EBBF
:101BC0006303214A92F95C201E4EB688724352424A
:101BD0001A4412B21D4BDA801948C0881949498845
:101BE00049420144184890F95C00164A928800FB6B
:101BF000021000B2194608811148C08801461148F8
:101C000040880144104890F95C000E4A9288504385
:101C10004042084400B219464881B9E2094AB2F983
:101C20000020514201EBD172054BDB8803EB6203CC
:101C3000044AB2F9020000EBD07203EB620307E042
:101C40009C010020AE010020380300200C0400207D
:101C5000FE4A92F95C20FE4EB68802FB063212B2B2
:101C6000FC4B1A80FA4AB2F90020514201EBD172C2
:101C7000F94BDB8803EB6202F54BB3F902305842B3
:101C800000EBD07302EB6303F04A92F95C20F04E54
:101C9000B68802FB063212B2EE4B5A80EC4AB2F919
:101CA000001001EBD172EC4BDB8803EB6203E84AD6
:101CB000B2F9020000EBD07203EB6203E34A92F93F
:101CC0005C20E34EB688724352421A4412B2E14B92
:101CD0009A80DF4AB2F9001001EBD172DE4BDB884B
:101CE00003EB6202DA4BB3F90230584200EBD073D7
:101CF00002EB6303D54A92F95C20D54EB688724355
:101D000052421A4412B2D34BDA80D348C088D04929
:101D10000988494208440146CC4890F95C00CC4A05
:101D2000928850434042084400B219460881CA488C
:101D3000C188C748008808440146C44890F95C003F
:101D4000C34A928800FB021000B219464881ABE3F7
:101D5000C148C088BE49098849420144BC484088FE
:101D60000144BA4890F95C00B94A92885043404215
:101D7000084400B2B7490880B748C088B449098808
:101D800049420844B249498849420144AF4890F960
:101D90005C00AF4A928800FB021000B2AD49488057
:101DA000AD48C188AA4800880144A9484088014438
:101DB000A64890F95C00A64A928800FB021000B287
:101DC000A4498880A448C188A14800880844A04943
:101DD0004988494201449D4890F95C009C4A928898
:101DE00050434042084400B29A49C8809A48C0888B
:101DF00097490988494201449548408801449348DD
:101E000090F95C00924A928800FB021000B291495E
:101E100008819148C0888E490988494208448C4904
:101E2000498849420144894890F95C00884A92886F
:101E300050434042084400B2864948818648C188E0
:101E40008348008801448248408801447F4890F9D3
:101E50005C007F4A928850434042084400B27D496A
:101E600088817D48C1887A48008808447849498833
:101E700049420144754890F95C00754A928800FB1C
:101E8000021000B27349C8810EE37148B0F9000036
:101E9000C0EBC0000A2190FBF1F06F49C9880844EB
:101EA0006B49B1F90210A1EBC1010A2291FBF2F1D9
:101EB0000144664890F95C00654A928800FB021074
:101EC00000B2644908806248B0F90000A0EBC0008D
:101ED0000A2190FBF1F06049C98808445C49B1F9D6
:101EE0000210A1EBC1010A2291FBF2F10144574813
:101EF00090F95C00564A928800FB021000B25549E6
:101F000048805348B0F90000A0EBC0000A2190FBC4
:101F1000F1F05149C98808444D49B1F90210C1EBAB
:101F2000C1010A2291FBF2F10144484890F95C009A
:101F3000474A928800FB021000B246498880444814
:101F4000B0F90000C0EBC0000A2190FBF1F042495B
:101F5000C98808443E49B1F90210C1EBC1010A2207
:101F600091FBF2F10144394890F95C00384A9288BB
:101F700000FB021000B23749C8803748C088344996
:101F8000498849420144314890F95C00304A9288BE
:101F900050434042084400B22E4908812E48C08870
:101FA0002B490988494208440146284890F95C00B9
:101FB000274A928850434042084400B2254948814C
:101FC0002548C08801462248408801441F4890F9AE
:101FD0005C001F4A928850434042084400B21D49A9
:101FE00088811D48C1881A4800880844014617485E
:101FF00090F95C00164A928850434042084400B26F
:102000001449C88150E21449CA8811490988114409
:102010000F4AB2F90220504200EBD07201EB62028B
:102020000A4991F95C100A4B9B8801FB032109B214
:10203000084A11800649B1F90010484200EBD071FE
:10204000054AD28802EB6101014A07E0380300200B
:10205000AE0100200C0400209C0100205288524256
:102060000A44FD4991F95C10FC4B9B8801FB03215C
:1020700009B2FB4A5180FB49C988F84A128852428A
:102080000A44F649B1F9020000EBD07102EB61029B
:10209000F14991F95C10F14B9B8801FB032109B2D6
:1020A000EF4A9180ED49B1F9000000EBD071ED4AA3
:1020B000D28802EB6102E94949880A44E64991F96C
:1020C0005C10E64B9B8801FB032109B2E44AD180F6
:1020D000E249B1F9000000EBD071E24AD28802EB8C
:1020E0006101DE4A528852420A44DB4991F95C1090
:1020F000DA4B9B8859434942114409B2D84A1181AD
:10210000D849C988D54A128852421144D34AB2F9F3
:102110000220504200EBD07201EB6202CE4991F9ED
:102120005C10CE4B9B8859434942114409B2CC4ABA
:102130005181CA49B1F90010484200EBD071C94A37
:10214000D28802EB6102C54949880A44C24991F923
:102150005C10C24B9B8859434942114409B2C04AA2
:102160009181C049CA88BD4909880A44BB49B1F96F
:10217000020000EBD07102EB6102B74991F95C10EB
:10218000B64B9B8859434942114409B2B44AD181A4
:102190008AE1B449C9880A46B04949880A44AE4927
:1021A00091F95C10AD4BB3F904305943484200EB50
:1021B000D07102EB610109B2A94A1180A64890F9D9
:1021C0005C00A649B1F90410484340000A2190FB85
:1021D000F1F0A449C988A14A1288524211449F4A89
:1021E000528852421144084400B29D4948809D499A
:1021F000C9880A46994949880A44974991F95C1067
:10220000964BB3F9043001FB03F000EBD07102EB05
:10221000610109B2924A91808F4890F95C008F4920
:10222000B1F904104843400040420A2190FBF1F10B
:102230008C48C288894800881044884A5288524293
:102240001044084400B28649C8802DE1824B93F9BE
:102250006830854EB6F9026003FB06F2D31702EB35
:1022600013731B1103F2DC537E4EB6F90260334444
:10227000B3F57F7F02DA4FF47F7329E0764B93F951
:102280006830794EB6F9026003FB06F1CB1701EB1B
:1022900013731B1103F2DC53724EB6F90260334420
:1022A000B3F5FA6F02DD4FF4FA6311E06A4B93F96C
:1022B00068306D4EB6F9026003FB06F0C31700EB01
:1022C00013731B1103F2DC53664EB6F902603344FC
:1022D0001BB2664E3380604B93F96930624EB6F99B
:1022E000006003FB06F2D31702EB13731B1103F21A
:1022F000DC535C4EB6F900603344B3F57F7F02DAFD
:102300004FF47F7329E0544B93F96930564EB6F978
:10231000006003FB06F1CB1701EB13731B1103F2F3
:10232000DC53504EB6F900603344B3F5FA6F02DD6A
:102330004FF4FA6311E0484B93F969304A4EB6F90D
:10234000006003FB06F0C31700EB13731B1103F2CD
:10235000DC53444EB6F9006033441BB2434E7380E5
:10236000A2E04048C0883E4908804148007848B310
:102370004048B0F902003849B1F85410401A3D49BC
:10238000B1F90010344AB2F85420891A012202FB34
:10239000010000B2354908803648B0F902002E49E4
:1023A000B1F85410401A40423249B1F900102A4A9B
:1023B000B2F85420891A012202FB010000B22B4915
:1023C000488017E02548B0F902002449B1F900100F
:1023D000012202FB010000B2244908801F48B0F925
:1023E000020040421D49B1F9001002FB010000B299
:1023F0001E4948801D48B0F900001749B1F85E1029
:102400000844B0F57F7F02DA4FF47F7013E017487D
:10241000B0F900001049B1F85E100844B0F5FA6F49
:1024200002DD4FF4FA6006E01048B0F900000A49F6
:10243000B1F85E10084400B20C4908800846B0F9B3
:1024400002000549B1F860100844B0F57F7F13DA47
:102450004FF47F7024E0000038030020AE0100201C
:102460000C0400209C0100208E000020E6000020CB
:102470000D0100207C0400209748B0F90200974924
:10248000B1F860100844B0F5FA6F02DD4FF4FA605D
:1024900006E09148B0F902009049B1F86010084494
:1024A00000B28D49488000BF00BF2020FEF7C5FB69
:1024B000C0B38B48808900B2874908808848C089AA
:1024C00000B248808748C07818B3844991F96810F1
:1024D000854AB2F9022001FB02F0C11700EB11712D
:1024E0007D4A128802EB211109B27B4A11807B4997
:1024F00091F969107C4AB2F9002001FB02F0C11782
:1025000000EB1171744A528802EB211109B2724A30
:1025100051807148B0F90000B0F57F7F03DA4FF4C5
:102520007F700CE024E06C48B0F90000B0F5FA6F61
:1025300002DD4FF4FA6002E06748B0F90000664936
:1025400008800846B0F90200B0F57F7F02DA4FF448
:102550007F700BE06048B0F90200B0F5FA6F02DD61
:102560004FF4FA6002E05C48B0F902005A49488032
:102570004020FEF762FBE8B35C480078012833D1C5
:102580005B48007858B94FF4FA60534988800120BD
:102590005749087003F012FB5649086024E054487C
:1025A0000078012813D103F009FB52490968401A49
:1025B000B0F57A7F18D94FF47F70474988800220A0
:1025C0004B49087003F0FAFA4A4908600CE003F03E
:1025D000F5FA48490968401AB0F57A7F04D9002015
:1025E00043490870414908703E48007910B1012004
:1025F0003E4900E000E008703F48B0F90050012477
:1026000009E03D4830F91400A84202DD3A4830F9AB
:102610001450601CC4B2394800788442F1DB0024B5
:1026200055E02E48B0F85800A8420BDA324830F88E
:1026300014002A49B1F85810691A401A00B22E49FC
:1026400021F814002C4830F914002449B1F8561030
:10265000884203DA2148B0F856000EE0264830F9E7
:1026600014001E49B1F85810884203DD1B48B0F829
:10267000580002E0204830F9140000B21E4921F849
:1026800014001748B0F9060040F24C41884212DAB3
:102690001020FEF7D2FA38B91048B0F8560000B250
:1026A000154921F8140006E00C48B0F85A0000B2B1
:1026B000114921F814001248007830B90748B0F8E1
:1026C0005A0000B20C4921F81400601CC4B20B4837
:1026D00000788442A5DB70BDE600002038030020AE
:1026E0007C0400209A0400208E000020F6000020C8
:1026F000F7000020F80000200C040020E400002077
:10270000100100202DE9F04104460D461646002731
:102710001EE04FF0000814E0FE48006880F008005A
:10272000FC4908608814FC490860284603F064FAF4
:102730004FF48050F849091F086008F1010000F0CB
:10274000FF08A045E8DB3C2003F056FA781CC7B22E
:10275000B742DEDBBDE8F0812DE9F04F85B0002601
:10276000EE48B0F9060040F2DC51884201DA6425F7
:102770001CE0EA48B0F90600B0F5FA6F10DAE84854
:1027800090F82400E549B1F90610A1F2DC51484364
:102790004FF4FA7190FBF1F0C0F16400C5B205E0AE
:1027A000DF4890F82400C0F16400C5B20024B0E016
:1027B000DA4931F91410DA4AB2F85420891A00299A
:1027C00007DDD64931F91410D54AB2F85420891AD8
:1027D00006E0D349B1F85410D04A32F91420891ACE
:1027E000B1F5FA7F18DACD4931F91410CC4AB2F8B4
:1027F0005420891A002907DDC84931F91410C84A44
:10280000B2F85420891A09E0C549B1F85410C34AF6
:1028100032F91420891A01E04FF4FA7188B2C049E4
:1028200091F8531000290BDDBD4991F853108142F6
:1028300005DABB4991F85310411A88B200E0002034
:10284000022C30D0642290FBF2F291B2B54B4A1CBC
:1028500033F9122033F91130D21A01EBC10303EB23
:102860000113A0EB83035A43642392FBF3F2AD4BB5
:1028700033F811301A4412B2AB4B23F81420A84A93
:1028800092F8222042434FF4FA7392FBF3F2C2F122
:10289000640202F0FF0808FB05F2642392FBF3F2E6
:1028A00002F0FF080FE001B29F4A22F814109C4981
:1028B00091F8231041434FF4FA7291FBF2F1C1F108
:1028C000640101F0FF0896490831095D01FB08F138
:1028D000642291FBF2F1954A115591491831095D35
:1028E00001FB08F1642291FBF2F1914A11558B49E9
:1028F00031F914108A4AB2F85420914207DA8A4911
:1029000031F81410494209B2874A22F81410601CA9
:10291000C4B2032CFFF64CAF8148B0F85800804990
:10292000B1F85610401A7D49B1F90610A1F24C4198
:1029300048434FF4617190FBF1F07949B1F85610BA
:10294000084400B27849C8807A480078002851D0FD
:102950007949B1F900207949B1F90010501A06F00F
:1029600014F98146764905F015FF0490049806F0A5
:102970005DFF0390049807F00FFD02906A49B1F9DA
:10298000000006F002F90090029905F003FF82466C
:102990006549B1F9020006F0F8F80090039905F0D6
:1029A000F9FE8346514605F09DFE814606F014F976
:1029B00000B201905C49B1F9020006F0E6F800901F
:1029C000029905F0E7FE82465749B1F9000006F08A
:1029D000DCF80090039905F0DDFE8346514605F0D2
:1029E000D3FE814606F0F8F800B24F4908800198FE
:1029F000488000BF0220FEF720F900287ED0514811
:102A00000078401CC0B24F490870062190FBF1F2DB
:102A100001FB1200A8BB01F0BEFE4B4991F80090EB
:102A20000978491C484A11704FEAE97109EB517164
:102A3000C910A9EBC101454A22F81100002706E0A0
:102A4000424830F81700304486B2781CC7B2082FCD
:102A5000F6DBB146F11706EB5171C81006F095F898
:102A60003B49039005F096FE3A49049005F0C8FEF4
:102A70008346394905F08EFE824606F0C6F837498E
:102A800008703748807A18B107203649087025E069
:102A9000324800786B2803DC3048007810280ADAC6
:102AA000002030490870304908704FF480501A49AE
:102AB000091F086012E029480078672803DD01201B
:102AC000284908700AE025480078632803DD0220C1
:102AD0002449087002E00420224908702148007847
:102AE00060B12148007898B120480168204800680A
:102AF00000F574309030814241D900E057E0002069
:102B0000194908704FF480500349091F086031E0EB
:102B100035E000000C0C0140140801407C0400204A
:102B2000380300208C0400209C010020A401002018
:102B3000AA0100200C01002034020020980100208E
:102B400039FA8E3C60010020620100201C04002044
:102B50003333534000F07F450000DC429A010020EF
:102B60009A04002061010020FC00002000010020E8
:102B700058010020FE480068FE49086017E0FE4842
:102B80000078A0B9FD480178FD480841F949096875
:102B90000844F7490968884209D20120F6490870BB
:102BA0000003F8490860F2480068F2490860F648F6
:102BB0000088002803DD0120FEF72AF818B9F34841
:102BC0000088002806DDF248006880F00800F0491F
:102BD00008600EE0EF480078012803D10820EC4996
:102BE000091D0860EC48007818B10820E849083150
:102BF00008604FF48070FEF720F870B1DC48006880
:102C0000E6490968884208D9D94800684CF2503131
:102C10000844E249086003F01FFAD5480068E0491B
:102C20000968884215D9DF48007878B90020D94969
:102C30000870D748006880F00800D5490860CC4883
:102C40000068D9490844D649086002E00120D1490A
:102C5000087001F085FA05B0BDE8F08F70B5054643
:102C60000020D2490880D249485D02F060FF044646
:102C700040F2EE20844203DB40F6CA00844201DDCC
:102C800040F2DC54204670BD70B5CA480078401C44
:102C9000C8490870002456E02046FFF7DFFF00B265
:102CA000C4490E78F11706EB91718910A6EB8101EA
:102CB000C14A02EBC40222F811000020BF4921F8EA
:102CC000140000250EE0BC4800EBC40030F81500ED
:102CD000BA4931F81410084400B2B84921F8140078
:102CE000681CC5B2042DEEDBB44931F91410881C00
:102CF000C11700EB91718910B04A22F814101046E8
:102D000030F91410AE4830F91400C01E814207DAC1
:102D1000104630F81400801C00B2A94921F81400B4
:102D2000A64830F91410A64830F91400C01C81429E
:102D300007DDA24830F81400801E00B2A04921F837
:102D40001400601CC4B2082CA6DB70BD2DE9F84F3E
:102D5000874800689B49096888427DD98448006893
:102D600044F62061084497490860FFF78DFF9448B6
:102D7000B0F9060040F24C4188426EDA00209249D8
:102D80000880488088809149088048809048007871
:102D9000401C8F4908708A48B0F9040040F24C4149
:102DA000884210DA8648B0F9020088420BDA7A4885
:102DB000007840B986480078142803D14FF4C870D1
:102DC00072490880C8E17E48B0F9040040F26C7195
:102DD00088422CDD7A48B0F90200884227DD6E482F
:102DE000007820BB7A4800781428EBD179484078E5
:102DF000012806D140F2DC5077494881FEF777FB85
:102E000010E07448407808280CD17248B0F85E0091
:102E100000B2714908806F48B0F8600000B2488085
:102E2000FEF765FB02F0B5FE6C49086094E10420F2
:102E3000FDF703FFB8B358480078A0BB6048B0F96D
:102E4000040040F24C41884234DA5D48B0F9020097
:102E500040F26C71884201E022E3DEE02ADD58484E
:102E6000B0F90000884225DD594800781428A9D11E
:102E70005B48008830B10020594908800120594939
:102E8000088069E15848008808B9012000E0002066
:102E9000554908800846008830B1022201210A20E5
:102EA000FFF730FC58E105E003220A210846FFF74E
:102EB00029FC51E1474890F84100002804DC4548CE
:102EC00090F84C00002818DD4848407958B148482F
:102ED000007840B10120304908704648B0F9000040
:102EE0004549088005E02C48007810B100202A49A7
:102EF00008700020364908702EE13148B0F904000E
:102F000040F24C41884204DB2D48B0F90000884271
:102F10000BDA21480078012807D12D4800781428C1
:102F200084D100201C49087016E12548B0F904003E
:102F300040F26C71884204DC2148B0F900008842FC
:102F400067DD1F48B0F9020040F26C71884260DA18
:102F50001148007850B90D48008838B90D480078FC
:102F6000012856D11A480078142847E051E00000A3
:102F70000001002058010020FC0000206101002019
:102F800080841E0014080140E2010020E4010020BA
:102F90000C0C0140E0010020100100206401002021
:102FA0005C0100209200002020A1070012010020F7
:102FB0003E010020680100202C0400206C04002049
:102FC0007C040020880100207C0100208201002078
:102FD0006901002038030020E600002004010020E1
:102FE0004E01002050010020D40100209A0400204E
:102FF0001601002034020020980100207FF441AF28
:103000000120FD490870FD48B0F90000FC49088026
:10301000A2E00020FB4908709EE0FB48B0F90600E2
:1030200040F26C7188421CDDF3480078002818D10A
:10303000F548B0F9040040F24C41884212DAF248F7
:10304000B0F9020088420DDAEE480078142803D166
:103050004FF4C870ED490880EA480078401CE949FF
:10306000087079E0E848B0F9040040F26C718842D9
:1030700013DDE548B0F9020040F24C4188420CDA19
:10308000E0480078142802D10120E1490870DD48A9
:103090000078401CDB4908705EE0DB48B0F90200B4
:1030A00040F26C7188420FDDDA48808E801C01B2DC
:1030B000D8488186FDF7E9FC4FF48070FDF7BDFD2F
:1030C00078B303F052F847E0CF48B0F9020040F27D
:1030D0004C4188420FDACF48808E801E01B2CD4825
:1030E0008186FDF7D2FC4FF48070FDF7A6FDC0B1DC
:1030F00003F03BF830E0C448B0F9000040F26C71D6
:1031000088420FDDC348408E801C00B2C14948860A
:10311000FDF7BBFC4FF48070FDF78FFD08B103F0A5
:1031200024F819E0B848B0F9000040F24C41884258
:103130000FDAB848408E801E00B2B6494886FDF7C7
:10314000A4FC4FF48070FDF778FD28B103F00DF872
:1031500002E00020AB4908700420FDF76EFD10B3BB
:10316000AD48008898B1A448007801280FD1A6483E
:10317000B0F9060040F24C41884208DDA74840798A
:1031800028B93220A64908800020A3490880A34816
:10319000007A48B1A048008828B901209E490880DB
:1031A00032209F4908800DE09E48008850B1924827
:1031B000007838B90020984908809A490880012091
:1031C000994908800025B8E08F48B0F9080040F21E
:1031D0001451884208DD8C48B0F9080040F2A4611F
:1031E000884201DA012000E000208749B1F9081087
:1031F00040F21452914201DA012100E0002141EA3B
:1032000040008149B1F9081040F2A462914201DD09
:10321000012100E0002140EA81007B49B1F90A1058
:1032200040F21452914201DA012100E0002140EA0B
:10323000C1007549B1F90A1040F21452914208DDFB
:103240007149B1F90A1040F2A462914201DA0121F8
:1032500000E0002140EA01106B49B1F90A1040F288
:10326000A462914201DD012100E0002140EA411009
:1032700068493C31495D084258D16348B0F90C00B7
:1032800040F21451884208DD5F48B0F90C0040F26A
:10329000A461884201DA012000E000205A49B1F916
:1032A0000C1040F21452914201DA012100E0002199
:1032B00041EA40005449B1F90C1040F2A462914235
:1032C00001DD012100E0002140EA81004E49B1F911
:1032D0000E1040F21452914201DA012100E0002167
:1032E00040EAC1004849B1F90E1040F2145291422F
:1032F00008DD4549B1F90E1040F2A462914201DAAD
:10330000012100E0002140EA01103F49B1F90E100F
:1033100040F2A462914201DD012100E0002140EA77
:1033200041103C494731495D084201D0012000E08D
:1033300000203A494855681CC5B20B2DFFF644AF32
:103340003648007820B93948B0F9000032280EDD3F
:103350000120FDF75DFC50B13548007850B90020E0
:1033600034490880488001203149087002E000207B
:103370002F4908702948407910B901202E4908705A
:103380002B480078012803D110202C49086003E065
:1033900010202A49091F08600220FDF739FCC8B136
:1033A0001E48407898B12648007898B901202449F1
:1033B000087024480068244908602448C0882449CB
:1033C00008800020234908802349088002E000206B
:1033D0001B4908700420FDF71BFC60B10F48807882
:1033E000F0B31E480078E0BB01201C490870034878
:1033F000B0F9000036E048E010010020340200205F
:1034000098010020690100207C040020E2010020D6
:10341000E601002038030020D40100209A04002097
:103420004C0100204E01002050010020120100201C
:10343000170100208201002016010020140C014019
:1034400019010020DC000020E00000209C01002089
:103450008C010020800000207E0000201801002048
:1034600003E005E0F649088002E00020F549087015
:10347000F548407A30B1F548007830B90120F34979
:10348000087002E00020F1490870EF48007A18B196
:103490000120EF49087041E00020ED4908703DE04F
:1034A000EC4890F9000030B1012811D002281CD05E
:1034B00003282ED126E0E7480078401C40B2E549B9
:1034C00008700420FDF7A4FB08B100F00DFD24E016
:1034D000E0480078401C40B2DE4908700220FDF749
:1034E00097FB08B100F046FB17E0DA480078401C73
:1034F00040B2D84908700220FDF78AFB08B1FDF7F9
:1035000038FE0AE0D3480078401C40B2D149087028
:1035100003E00020CF49087000BF00BFFDF73BFD6E
:1035200002F037FBCC49086008460068CB490968BF
:10353000401ACB490880C8480068C8490860042080
:10354000FDF766FB88B3C748B0F90400002803DD27
:10355000C448B0F9040003E0C248B0F90400404296
:10356000462823DAB748007800B3BF490988B44A2F
:103570001288891A08B210F1B40F02DC00F5B47198
:1035800008B2B42802DBA0F5B47108B2B7490978D3
:1035900059B1B749C97B41431E2291FBF2F1B14AAF
:1035A0009288511A09B2AF4A918004E0AE48B0F94E
:1035B0000000A34908800220FDF72AFB38B3AD487C
:1035C000007820B3A748B0F90600AB49B1F9001064
:1035D000401A002807DDA348B0F90600A649B1F952
:1035E0000010401A06E09F48B0F90600A249B1F960
:1035F0000010081A142802DD00209E4908709E4819
:1036000000889E490988084400B29649C880002471
:103610000BE19B480078012874D1022C72DA9148A2
:1036200030F91400974931F91410C1EB400010F53E
:10363000FA7F01DA944815E08A4830F9140091497C
:1036400031F91410C1EB4000B0F5FA7F02DD4FF400
:10365000FA7007E0834830F914008A4931F91410F0
:10366000C1EB4000894931F81410411A80483230CA
:1036700030F81400084406B27D48807B7043642112
:1036800090FBF1F007B27A48807F404200EB800067
:10369000B84205DD7648807F404200EB80000BE0B9
:1036A0007348807F00EB8000B84204DA7048807F66
:1036B00000EB800000E038460746754830F91400FA
:1036C00030447449884201DA08460DE0704830F908
:1036D0001400304442F21071884201DD084603E0D4
:1036E0006B4830F91400304400B2694921F81400E5
:1036F000084630F914005E49897D48430013009064
:1037000051E0FFE7574830F9140000EB8000010159
:1037100057480830005D91FBF0F85F4830F814001E
:10372000A8EB00000FFA80F84E4830F914705B489F
:1037300030F91400404410F57A5F01DA58480DE082
:10374000564830F914004044B0F57A5F02DD4FF47A
:103750007A5003E0514830F91400404400B24F4918
:1037600021F814004C4830F91400002803DD4A48C1
:1037700030F9140003E0484830F914004042B0F535
:10378000207F03DD0020454921F81400434830F92B
:1037900014007D2190FBF1F035491031095D48435B
:1037A000801100B200903C4931F914103D4A125D7D
:1037B00051430A2291FBF2F0C11700EB5171A7EBC4
:1037C000E1010FB2344830F81400374931F81410D1
:1037D000401A0FFA80F9304830F81400324921F8C5
:1037E0001400324830F81400314931F814100844FC
:1037F00048440FFA80FA2D4830F814002C4921F87B
:1038000014002A4820F814902A48005D00FB0AF0B2
:1038100040110FFA80FB00983844A0EB0B0000B277
:10382000254921F81400601CC4B2032CFFF6F1AE48
:10383000FDF7B0FEFDF75BFEFDF785FEBDE8F88FF6
:1038400036020020180100209A0400200C010020FC
:103850000D0100208E010020000100200401002045
:10386000080100209C01002034020020920000206A
:1038700038030020190100208C0100207E00002068
:1038800017010020D00100200CFEFFFF8E00002059
:1038900082010020F0D8FFFF820000207C01002080
:1038A00080C1FFFFA40100206A01002070010020F8
:1038B00076010020AA010020AE01002010B5FE48CC
:1038C00000F0A5FF10B90120FDF7B1F901F047F8AC
:1038D00010B90220FDF7ABF901F01EFA10B904206F
:1038E000FDF7A5F90120FDF793F910B1F249086839
:1038F00080470220FDF78CF908B101F030F8EF495C
:10390000ED4802F0EBFC30B10120FDF78AF9EA49FD
:103910000868804706E0E94801F0A2FE10B90320DC
:1039200002F013FAE5490868804710BD70B5E44815
:103930000088002854DD00241CE0E1480088B0F530
:10394000C87F03D10020DF4941F82400DD4850F84A
:103950002400DD4931F914100844DA4941F8240003
:103960000020D94921F814000021D84820F814106B
:10397000601CC4B2032CE0DBD148008801282AD1A6
:10398000D04800684FF4C87190FBF1F000B2CF4905
:103990002639C884CB4840684FF4C87190FBF1F0D9
:1039A00001B2CA4826380185C64880684FF4C871FC
:1039B00090FBF1F0C6490988401A01B2C348263885
:1039C00041850020C149263948860021BF48263854
:1039D0008186FDF75AF8BA480088401EB849088029
:1039E0000420FDF72AF900287ED0BA480088322842
:1039F00015D1B6482638C08CB7490880B348263858
:103A0000008D4880B1482638408D8880AF482638E0
:103A1000408EB2490880AD482638808E4880AD4837
:103A2000008800284DDD00251BE0AA4800883228C8
:103A300003D10020AA4941F82500A94850F82500E3
:103A4000A14931F915100844A54941F82500002085
:103A50009D4921F8150000219C4820F81510681C8C
:103A6000C5B2032DE1DB9B480088012823D100204B
:103A70009C49088001209C49088002220A210846AE
:103A8000FEF740FE9448008890492639C884924841
:103A900041888E48263801858F4881888B48263892
:103AA00041858E4800888949263948868B48418857
:103AB00086482638818687480088401E85490880C8
:103AC00000BF8A48008801282CD10020874908803F
:103AD00083480068322190FBF1F000B27B4926391F
:103AE000C8847F48406800E01CE0322190FBF1F080
:103AF00001B276482638018579488068322190FBEA
:103B0000F1F073490988401A01B27048263841859E
:103B100000206E492639488600216C482638818667
:103B2000FCF7B3FF6848008868492639C98C401AF9
:103B300000B2654908800846418864482638008DEF
:103B4000081A00B260494880084681885F482638D4
:103B5000408D081A00B25C49888070BD10B5564887
:103B60004168594888475448816857488847FFF753
:103B7000DDFE10BD2DE9FE4F5D4800685D49096816
:103B8000884201D2BDE8FE8F594800685949086053
:103B90005948007830B1012813D002281BD00328DF
:103BA00061D127E000F0AAFF53480078401C524939
:103BB00008705048006841F2F81108444D49086007
:103BC00051E000F057FF4D4908804B480078401CF9
:103BD0004949087047E001F075F847480078401CF3
:103BE000454908704348006843F2B06108444149C0
:103BF000086038E000F09FFF414908603F480088B6
:103C000000F055FF3F4908803D48006800F0C1FFC3
:103C10000290029804F0B9FF3B49009004F0F0FDD7
:103C2000019005F025F880464FF00052374B05F023
:103C3000BDFE06460022364B04F0C5FE04460022B7
:103C4000344B04F0C3FE824604F0F3FF32490860AF
:103C50000020294908702748006841F2883108444B
:103C60002449086000BF00BF00BF8BE710B52B4898
:103C70000088002873DD00246AE028480088B0F539
:103C8000C87F03D10020264941F82400244850F879
:103C90002400244931F914100844214941F8240032
:103CA0000020204921F814001F4921F814001B4866
:103CB000008801284AD139E0F0040020FC040020EB
:103CC000E2010020CC040020C40000205E0300209C
:103CD000E80100204C0100200A0200201002002010
:103CE000D8040020520100204E0100205001002085
:103CF00000010020EC010020F0010020F201002072
:103D0000F4010020F801002080E6C547965BC83F1B
:103D10000000F03F1AE95041D8000020E4010020E3
:103D2000E4040020BE00002088000020EF4850F886
:103D300024004FF4C87190FBF1F000B2EC4921F877
:103D4000140001220F210A20FEF7DCFC601CC4B223
:103D5000032C92DBE7480088401EE64908800024D7
:103D600039E0E54830F81400E14931F81410401A00
:103D700000B2E14921F81400084630F91410DF4878
:103D800030F91400A0F54870814205DADB4830F9BB
:103D90001400A0F5487012E0D74830F91410D74845
:103DA00030F9140000F54870814205DDD34830F940
:103DB000140000F5487002E0CF4830F9140000B25A
:103DC000CD4921F81400084630F81400CB4921F8F9
:103DD0001400601CC4B2032CC3DB10BD10B5C8486E
:103DE0004168C5488847C6488168C3488847FFF787
:103DF0003DFF10BD10B5C34800F0CAFFC148808820
:103E0000C1490880BF480088404200B24880BD4890
:103E10004088404200B2888010BD2DE9F04100F09A
:103E20008FFF642001F0E8FEFFF7E4FF0A2001F0B5
:103E3000E3FEB549B1F90010002903DDB249B1F93B
:103E4000001003E0B049B1F900104942084604F0FF
:103E5000A5FE064632460B460020AC4904F026FE7D
:103E6000044604F01BFFAA490860A749B1F90210F3
:103E7000002903DDA449B1F9021003E0A249B1F918
:103E800002104942084604F089FE064632460B46B7
:103E900000209E4904F00AFE044604F0FFFE9C49FF
:103EA00048609949B1F90410002903DD9649B1F938
:103EB000041003E09449B1F904104942084604F0A3
:103EC0006DFE044622460B460020904904F0EEFDAC
:103ED000064604F0E3FE8E49886000F048FF0120AA
:103EE0008C490870BDE8F08170B58B4800688B493B
:103EF0000968884200D270BD874800688849084434
:103F000086490860FFF776FF7F49B1F9000004F0A9
:103F10003CFE06467E480168304604F03BFC054600
:103F200004F05AFE00B278490880B1F9020004F0AA
:103F30002CFE064676484168304604F02BFC0546C8
:103F400004F04AFE00B270494880B1F9040004F060
:103F50001CFE06466E488168304604F01BFC054690
:103F600004F03AFE00B2684988806E480078012863
:103F70001CD16A4800686C490860002411E00021E7
:103F80006A4820F81410604830F81400684921F895
:103F900014005D4830F81400664921F81400601CD4
:103FA000C4B2032CEBDB00205E4908705649B1F91E
:103FB000000004F0EAFD064655480168304604F06A
:103FC000E9FB054604F008FE00B24F490880B1F94C
:103FD000020004F0DAFD06464D484168304604F020
:103FE000D9FB054604F0F8FD00B247494880B1F915
:103FF000040004F0CAFD064645488168304604F0D6
:10400000C9FB054604F0E8FD00B23F4988804148FD
:104010000078D0B10846008844492C39898D401A6F
:1040200000B2394908800846418840482C38C08D84
:10403000081A00B234494880084681883B482C3829
:10404000008E081A00B2304988803748006800287E
:1040500049D03248006834490968401A36498842D4
:1040600028D23648006880F00800344908600024EF
:104070001DE0254830F914002D4931F9141088420B
:1040800005DA214830F81400294921F814001E48A7
:1040900030F91400274931F91410884205DD1A4817
:1040A00030F81400234921F81400601CC4B2032C1A
:1040B000DFDB18E000201C49086000240FE01C49E9
:1040C00031F914101B4A32F91420881800EBD07112
:1040D00049100AB2154921F81420601CC4B2032CFF
:1040E000EDDBFCF7D2FC00BF05E70000E404002094
:1040F00088000020E4010020BE00002014020020FF
:10410000FC0400201A020020D000002000408F4054
:10411000FC010020080200200001002020020020F5
:10412000A0860100E6010020240200206403002094
:10413000280200202E02002080C3C9010C0C01407F
:1041400010B50446E0B201F049FFC4F3072001F0C6
:1041500045FF10BD10B50446204601F03FFF10BDDD
:104160002DE9F041F848007818B1FCF7A6FABDE84F
:10417000F08101F00DFF00287ED001F016FF5228DB
:104180007BD008DC23280DD0452877D04D280CD0D3
:104190004F2809D129E1532871D0572870D05828C9
:1041A000F7D11DE2FCF789FA87E24D20FFF7D2FF35
:1041B000CB20FFF7CFFF002406E0E44931F91400DB
:1041C000FFF7BEFF601CC4B2032CF6DB002406E040
:1041D000DF4931F91400FFF7B3FF601CC4B2032CB0
:1041E000F6DB002406E0DB4931F91400FFF7A8FFF5
:1041F000601CC4B2032CF6DBD748006800B2FFF79E
:104200009FFFD648B0F90000FFF79AFF002406E0B0
:10421000D34931F91400FFF793FF601CC4B2082C96
:10422000F6DB002406E0CF4931F91400FFF788FFE0
:10423000601CC4B2082CF6DB002406E0CA4931F940
:104240001400FFF77DFF601CC4B2082CF6DB0120D0
:10425000FCF7DEFC46000220FCF7DAFC46EA8006AA
:104260000420FCF7D5FC46EAC0061020FCF7D0FC81
:1042700046EA0015284604E020E2ADE119E213E227
:10428000CCE1FFF767FFB9490978B94A127841EAEA
:104290004201B84A127841EA8202B7490978B74B1D
:1042A0001B78194342EAC101C8B2FFF753FFB44873
:1042B000008800B2FFF744FF01F056F905B2284626
:1042C000FFF73EFF002406E0AE4931F91400FFF786
:1042D00037FF601CC4B2022CF6DBAB494878FFF70D
:1042E00039FF002410E0A8490831085DFFF732FFCC
:1042F000A5491031085DFFF72DFFA3491831085D6E
:10430000FFF728FF601CC4B2082CECDB9E4991F833
:104310002000FFF71FFF9C4991F82100FFF71AFFCB
:10432000994991F82200FFF715FF974991F823006A
:10433000FFF710FF944991F82400FFF70BFF0024CA
:1043400010E091493C31085DFFF704FF8E49473189
:10435000095D8E4A125D41EAC211C8B2FFF7FAFE4A
:10436000601CC4B20B2CECDB8948008800B2FFF75C
:10437000E7FE88480088B43000B2FFF7E1FE8648C7
:104380000078FFF7E7FE85480078FFF7E3FE8448F2
:104390000078FFF7DFFE8348008800B2FFF7D0FE09
:1043A0008148008800B2FFF7CBFE80480078FFF715
:1043B000D1FE7F4800680A2190FBF1F005B2284643
:1043C000FFF7BEFE7B48B0F90000FFF7B9FE7A4860
:1043D000B0F90000FFF7B4FE7848B0F90000FFF72D
:1043E000AFFE4D20FFF7B6FE67E14F20FFF7B2FEAC
:1043F000002406E0554931F91400FFF7A1FE601CC6
:10440000C4B2032CF6DB002406E0514931F9140054
:10441000FFF796FE601CC4B2032CF6DB4E48006822
:1044200004F0B3FB0746664904F0B4F9064604F00D
:10443000D3FB05B22846FFF783FE4848B0F90000D9
:10444000FFF77EFE002406E04E4931F91400FFF725
:1044500077FE601CC4B2022CF6DB002406E0414962
:1044600031F91400FFF76CFE601CC4B2062CF6DBB9
:10447000002406E03C4931F91400FFF761FE601C9E
:10448000C4B2062CF6DB0120FCF7C2FB460002207A
:10449000FCF7BEFB46EA80060420FCF7B9FB46EABF
:1044A000C0061020FCF7B4FB46EA00152846FFF7CB
:1044B00051FE2E4909782E4A127841EA42012D4ACE
:1044C000127841EA82012C4A127841EAC2012B4A51
:1044D000127841EA02113B4A127841EA4211C8B20D
:1044E000FFF738FE31480078FFF734FECB20FFF7A6
:1044F00031FE2A480078FFF72DFE27480078FFF7A5
:1045000029FE3148006800B2FFF71AFE2E490968FB
:104510000814FFF715FE2D48006800B2FFF710FEE3
:104520002A4909680814FFF70BFE2948008800B2E1
:10453000FFF706FE2748008800B2FFF701FE4F2074
:10454000FFF708FEB9E0000038020020CA00002092
:1045500082000020D0000020DC0000203402002077
:10456000E60000200C0400207C040020170100203D
:1045700019010020180100200A0100200B01002071
:10458000080100208E000020380300209A0400203B
:10459000C601002048010020C5010020C401002000
:1045A0004A010020DC010020DE0100209A010020E9
:1045B000D8000020920100209401002096010020E4
:1045C0000000204110010020B4010020B8010020AB
:1045D000CC010020CE010020012001F0DDFB6CE0C9
:1045E00001F0F3FC0446402C11DD522C0FDA4F2071
:1045F000FFF7B0FD4B20FFF7ADFDA4F140003049BF
:104600004870FCF742FA002001F0C6FB55E04E204E
:10461000FFF7A0FD4720FFF79DFD4EE0002411E0CD
:1046200001F0D3FC26490831085501F0CEFC24499D
:104630001031085501F0C9FC0146214818300155D8
:10464000601CC4B2082CEBDB01F0BFFC1C4981F8F4
:10465000200001F0BAFC1A4981F8210001F0B5FCF4
:10466000174981F8220001F0B0FC154981F82300B8
:1046700001F0ABFC124981F8240000240BE001F0AA
:10468000A4FC0F493C31085501F09FFC0C4947310F
:104690000855601CC4B20B2CF1DB01F096FC01F054
:1046A00094FCFCF7F2F908E04FF4C8700549088063
:1046B00003E001200449087000BF00BF00BF56E5B9
:1046C00038030020E2010020E601002000B591B08F
:1046D000324802F0BFF83248019032480290002080
:1046E0000390012004900020059006904FF4807004
:1046F0000790800008902020099000020A90002076
:104700000B9001A9254802F012F90121234802F07B
:1047100038F900200C908DF8340001208DF8350018
:104720004FF460200E9000200F9001208DF8400083
:104730000CA91B484C3801F017FF03230122042168
:1047400017484C3801F090FF012115484C3801F012
:104750003DFF012112484C3801F02EFF10484C3823
:1047600001F047FF00BF0E484C3801F047FF00281A
:10477000F9D10B484C3801F048FF00BF08484C38CD
:1047800001F048FF0028F9D1012105484C3801F01B
:1047900048FF11B000BD0348008870470800024080
:1047A0004C2401403A020020704710B50446254BC6
:1047B00006223221532000F081FE22480078214950
:1047C000497800EB012000B220801E4880781D4906
:1047D000C97800EB012000B260801A4800791949BD
:1047E000497900EB012000B2A08010BD10B508226D
:1047F0002D21532000F058FE0B223121532000F0D0
:1048000053FE09222C21532000F04EFE10BD38B576
:1048100004460025002000906B4601220021532011
:1048200000F04CFE05461DB19DF80000E52801D0C2
:10483000002038BD04482060044860600448A0603F
:104840000120F6E73C020020ED470008AB470008D6
:10485000A947000810B54FF4804002F03DF9012847
:1048600005D1800302F046F90120FE49087010BD11
:1048700000B587B0FC490968887E01AB1622AA21E1
:1048800000F01CFE9DF805009DF8041040EA012090
:1048900000B2F549096808809DF807009DF80610E8
:1048A00040EA012000B2F049096848809DF80900FB
:1048B0009DF8081040EA012000B2EB4909688880A1
:1048C0009DF80B009DF80A1040EA0120E6490968AE
:1048D000C8809DF80D009DF80C1040EA0120E249C7
:1048E000096808819DF80F009DF80E1040EA01202C
:1048F000DD49096848819DF811009DF8101040EAD3
:10490000012000B2D849096888819DF813009DF8FC
:10491000121040EA012000B2D3490968C8819DF80D
:1049200015009DF8141040EA012000B2CE49096834
:1049300008829DF817009DF8161040EA012000B289
:10494000C949096848829DF819009DF8181040EA85
:10495000012000B2C4490968888207B000BD00B5D3
:1049600085B0C248007810B1012005B000BD4FF4F9
:104970000050ADF8100003208DF8120010208DF8C3
:10498000130004A9BA4803F0C6FA4FF48040ADF80A
:10499000100004208DF8130004A9B54803F0BBFAF9
:1049A0004FF40050B24908610E21022003F06AFB67
:1049B0004FF48040029000208DF80C0008208DF804
:1049C0000D0001208DF80E0002A802F035F8282015
:1049D0008DF804000F208DF805008DF806000120E9
:1049E0008DF8070001A801F050FD0C2001F004F93A
:1049F00000209D490968C87677209B490968887618
:104A000099490968887E6B460122D02100F056FD45
:104A10009DF8000094490968C87501209249096809
:104A2000086202209049096888848F480068C07D28
:104A300055281DD18C490968C8768B490968887E3C
:104A40006B460122D12100F039FD9DF8000000F0F5
:104A50000F008549096808769DF800000009824921
:104A600009684876FFF704FF0120804908707CE759
:104A700000207AE738B542F2107500E000BF7948AF
:104A8000007820B9281EA5F101018DB2F6DC764927
:104A90000968887E6B460222F62100F00FFD9DF822
:104AA00001009DF8001040EA0124204638BD30B5D1
:104AB00002466D4C2468E47E552C18D16A4C24685B
:104AC0006489141B684D2D682D896C43E113664C75
:104AD0002468B4F91240E402634D2D68B5F914500E
:104AE0000D4494FBF5F3CC185F4D2D68EC615E4CE2
:104AF0002468E4690834241120B230BD10B50020C8
:104B00005849087058490968887E2E22F42100F01F
:104B1000CBFC10BD10B5002052490870FFF7EEFF26
:104B200000BF504800780028FBD0FFF7A3FF0446E1
:104B3000FFF7BDFF10BD38B5002442F2107500E04C
:104B400000BF4848007820B9281EA5F101018DB2A8
:104B5000F6DC45490968887E6B460322F62100F0A1
:104B6000ADFC9DF8000000049DF8011040EA012012
:104B70009DF8021008433C490968B1F92410C1F1BD
:104B8000080120FA01F4012037490968086220462B
:104B900038BD2DE9F0470546DFF8CC80D8F8008015
:104BA000D8F81C80A8F57A6303FB03F84FEA283194
:104BB000DFF8B480D8F80080B8F90E8001FB08F166
:104BC000C912DFF8A480D8F80080B8F9028008FB89
:104BD00003F2D2128E18DFF89080D8F80080B8F96E
:104BE000008006EB8808DFF88090D9F80090B9F8CB
:104BF000249008FA09F808F102084FEAA80CDFF837
:104C00006880D8F80080B8F9048008FB03F84FEA00
:104C10006831DFF85480D8F80080B8F90C8003FBC5
:104C200003F94FEA293908FB09F84FEA284201EB5A
:104C3000020808F102084FEAA806DFF82C80D8F82D
:104C40000080B8F8068006F5004908FB09F84FEA2D
:104C5000D837A5EB0C08DFF81090D9F80090B9F818
:104C600024A007E044020020480200204C0200205B
:104C7000001001404CF2503949FA0AF908FB09F4D6
:104C8000B4F1004F04D24FEA4408B8FBF7F003E058
:104C9000B4FBF7F84FEA48000112494340F6DE380A
:104CA00001FB08F84FEA2841DFF8608000FB08F8B4
:104CB0004FEA284201EB020808F6CF6800EB281003
:104CC000BDE8F08710B512480068808C342101EBF4
:104CD0008010C4B200200F4908700D490968887E11
:104CE0002246F42100F0E0FB10BD10B50020094978
:104CF0000870FFF7E7FF00BF064800780028FBD0E8
:104D0000FFF719FF0446FFF744FF10BD43E3FFFF21
:104D1000480200204402002038B500240020009002
:104D20006B4601220A211E2000F0C8FB04461CB17C
:104D30009DF80000482801D0002038BD0120FCE784
:104D400010B5642000F058FF712200211E2000F0F1
:104D5000ABFB322000F050FF602201211E2000F04A
:104D6000A3FB012202211E2000F09EFB10BD10B506
:104D7000702200211E2000F097FB202201211E201E
:104D800000F092FB002202211E2000F08DFB10BDDE
:104D90001CB504466B46062203211E2000F08EFB44
:104DA0009DF801009DF8001040EA012000B220802B
:104DB0009DF803009DF8021040EA012000B26080D7
:104DC0009DF805009DF8041040EA012000B2A08083
:104DD0001CBD000038B54FF44060ADF80000032062
:104DE0008DF8020014208DF803006946FA4803F09C
:104DF00092F84FF44061F84803F0FAF800241CE000
:104E000002E00A2000F0DDFE4FF48061F24803F07A
:104E1000DBF80028F5D04FF48061EF4803F0EAF8A2
:104E20000A2000F0CEFE4FF48061EB4803F0E0F87A
:104E30000A2000F0C6FE601CC4B2082CE0DB4FF470
:104E40000061E54803F0D6F80A2000F0BAFE4FF4FE
:104E50008061E14803F0CEF80A2000F0B2FE4FF482
:104E60008061DD4803F0C4F80A2000F0AAFE4FF488
:104E70000061D94803F0BCF84FF44060ADF8000081
:104E800003208DF802001C208DF803006946D248EB
:104E900003F041F838BD10B586B004464FF44060C9
:104EA000ADF8100003208DF812001C208DF81300BF
:104EB00004A9C94803F02FF8C8480460FFF78AFF27
:104EC000C648006801F01EFE684601F086FE00221A
:104ED0004FF44071C148006801F0E5FE0020ADF8D4
:104EE00004004BF6FF70ADF806004FF48040ADF8BB
:104EF0000C00BB4800900121B848006801F07BFE1F
:104F00006946B648006801F010FE4FF4A06001F059
:104F1000B7FA22208DF8140000208DF815008DF8C6
:104F2000160001208DF8170005A801F0AEFA212027
:104F30008DF8140000208DF8150005A801F0A5FAE1
:104F400006B010BD70B5A5480068848A00BF14F48F
:104F5000E06F3CD0A1480068058B00224FF48061CF
:104F60009E48006801F09FFE14F4007F2FD19B48FB
:104F70000068008810F4007F29D1984800680088F4
:104F800010F4807F17D000BF94480068008810F4A8
:104F9000807FF9D101219148006801F054FE00BFE3
:104FA0008E480068008810F4007FF9D18B480068B3
:104FB000FFF771FF0BE001218848006801F043FE14
:104FC00000224FF440718548006801F06CFE834870
:104FD0000068808A20F47060804909688882002017
:104FE0008049087070BD10B5FFF7ACFF10BD70B5FB
:104FF0007A480068808AC4B214F0010F3FD0774825
:105000000068008820F40060744909680880012164
:105010007248006801F021FE00207349087073484F
:105020000078E8B17248007818B972480078FF2813
:1050300016D101206E4908706F480078022807D108
:1050400066480068008840F4006064490968088088
:1050500001226A4801786148006801F031FE98E158
:105060000022664801785D48006801F029FE614829
:105070000078FF28F3D0FF205B49087089E114F025
:10508000020F5BD0BFF3508F5B48007801281FD11F
:1050900056480078E0B156480078C8B100214F4822
:1050A000006801F0DAFDBFF3508F4C480068008BB8
:1050B000C5B201214948006801F0C5FD01205049F1
:1050C0000870012281024548006801F0ECFD34E0DF
:1050D00042480068008BC5B2BFF3508F4648007845
:1050E000022812D14148007878B14148007860B177
:1050F00000213A48006801F0B0FD00224FF48061C1
:105100003648006801F0CFFD17E03B4800780328DF
:105110000DD13648007850B13548007838B10022BA
:105120004FF480612D48006801F0BDFD05E00122CB
:1051300091022A48006801F0B6FD2AE114F0040F3C
:1051400049D001202E4908702848007800287DD0D9
:1051500027480078002879D027480078022831DDD8
:1051600000211E48006801F078FD1C48006801F02D
:10517000A4FD1D4991F900200978491C49B21A4B38
:10518000197020490968885401211448006801F009
:105190005AFD01201A4908701048006801F08DFD81
:1051A000114991F900200978491C49B20E4B197038
:1051B000144909688854012291020848006801F0E6
:1051C00072FD70E00E480078F0B1012103480068DC
:1051D00001F039FD1DE06EE0000C01405802002096
:1051E000801A06005C0200205502002061020020A7
:1051F000530200205E0200205F0200205D020020BA
:1052000054020020680200200121D948006801F002
:1052100010FDD748006801F050FDD64991F90020F3
:105220000978491C49B2D34B1970D349096888548D
:10523000CF48006801F041FDCE4991F9002009787E
:10524000491C49B2CB4B1970CB4900E008E0096812
:10525000885418460078401C40B21946087022E075
:10526000C648007810B9C6480078A0B1C548007893
:1052700028B10121BE48006801F0E5FC04E00121ED
:10528000BB48006801F0D5FCBA480078401C40B229
:10529000B849087007E00121B548006801F0C9FC71
:1052A0000120B649087000BFB1480068008810F4BA
:1052B000807FF9D16DE014F0400F2BD0AC4800682E
:1052C00001F0FBFCAB4991F900200978491C49B277
:1052D000A84B1970A84909688854AB48017818464A
:1052E00090F90000C01C814206D100224FF4806179
:1052F0009F48006801F0D7FCA34800789D4991F9C8
:105300000010884245D19B480078401C40B2994922
:1053100008703EE014F0800F3BD0964890F90000F2
:10532000401C1DD0934890F900200078401C40B2EA
:10533000904B187095480068815C8D48006801F0BA
:10534000BAFC914800788B4991F90010884220D12D
:1053500000224FF480618648006801F0A4FC18E048
:1053600084480078401C40B282490870884801781F
:105370007F48006801F09FFC8648007810B9824899
:10538000007830B900224FF480617948006801F05C
:105390008AFC784890F900107B480078401C8142D4
:1053A0000FD10020754908707648007830B100228E
:1053B0004FF440716E48006801F075FC002076499A
:1053C000087070BD10B5FFF712FE10BD10B5FFF7E5
:1053D000B9FD10BD10B5FFF70AFE10BD2DE9FC4761
:1053E00006460F461546984647F230597006000E9D
:1053F0006A490870664807700120614908700020FA
:10540000644908706149C1F800D05B49C1F800D017
:105410005D480570012060490870072D02DD0020FD
:10542000BDE8FC87002405E018F804000DF804002E
:10543000601CC4B2AC42F7DB4D480068808810F4B1
:10544000007F18D14A480068008810F4807F0BD193
:1054500000BF47480068008810F4007FF9D101219F
:105460004348006801F0E5FB01224FF440714048D9
:10547000006801F018FC00BF4748007820B1A9F18E
:1054800001005FEA0009F7D1B9F1000F0AD14448E1
:105490000088401C4249088035480068FFF7FBFC43
:1054A0000020BDE70120BBE737B504460D4602AB3F
:1054B000012229462046FFF791FF3EBD2DE9F0412C
:1054C00005460E4617461C4647F230586806000E41
:1054D000324908702E4806700020294908700120C2
:1054E0002C49087024480460284804602648077046
:1054F0000120294908701E480068808810F4007F48
:1055000018D11B480068008810F4807F0BD100BFC1
:1055100017480068008810F4007FF9D10121144871
:10552000006801F086FB01224FF4407110480068CA
:1055300001F0B9FB00BF1848007820B1A8F10100C4
:105540005FEA0008F7D1B8F1000F0BD114480088CA
:10555000401C1349088006480068FFF79CFC0020A7
:10556000BDE8F0810120FBE70D480088704700008E
:10557000580200205502002068020020530200203B
:1055800060020020540200205F020020640200201C
:105590005E020020610200205C0200205D0200200B
:1055A00050020020B0F90010CA1701EB927292105D
:1055B0000280B0F90210CA1701EB92729210428079
:1055C000B0F904205142CA1701EB92729210828006
:1055D00070471CB504466B4606221D216820FFF764
:1055E0006DFF9DF801009DF8001040EA012000B217
:1055F00020809DF803009DF8021040EA012000B2CF
:1056000060809DF805009DF8041040EA012000B27A
:10561000A0801CBD10B5192000F0EEFA0022152163
:105620006820FFF741FF044614B9032000F08DFB0A
:105630002248007840F0180216216820FFF734FF56
:10564000002217216820FFF72FFF01223D2168204B
:10565000FFF72AFF01223E216820FFF725FF10BD3A
:1056600070B50446192000F0C7FA00221521682001
:10567000FFF71AFF05460DB9002070BD10482060E5
:10568000104860601048A0600120F6E708B56B463E
:1056900002221B216820FFF711FF9DF801009DF8F1
:1056A000001040EA012043F2903108444FF48C711D
:1056B00090FBF1F0233000B208BD00006C02002026
:1056C00015560008D3550008A55500082DE9FC41E2
:1056D00006460027002565E0FE4800EBC50103C92A
:1056E000CDE90001FC4800EBC5040098B04257D159
:1056F000BDF80610304602F010FA012850D1BDF86E
:105700000610009802F014FABDF8040030B1042825
:1057100009D008280CD00C2814D10EE0009802F013
:10572000E5F907460EE0009802F0E2F9074609E0C5
:10573000009802F0DFF9074604E0009802F0DCF977
:10574000074600BF00BF207808B9678000E0A78047
:10575000207858B9012020700220E0494880BDF827
:1057600004000880009801F0F3FE19E0A088618829
:10577000884204DDA0886188401AE08006E06088E5
:105780004FF6FF71081AA1880844E08000202070BD
:10579000D2494880BDF804000880009801F0D8FE86
:1057A000681CC5B2082D97DBBDE8FC8170B50546C5
:1057B0000221480702F0B1F9012809D1C848008840
:1057C000C84908804FF0804002F090F9C449088031
:1057D0000221480702F0ACF9C1480088C149098894
:1057E000884206DDBE480088BE490988401A84B256
:1057F00008E0BC4800884FF6FF71081AB8490988CC
:10580000084484B2B4F57A6F03DD0020B64908700D
:1058100016E040F2EE2084420DDD40F6CA008442DC
:1058200009DAB1480078082805DAAB48AE490978AA
:1058300000EBC100C480AC480078401CAA49087045
:1058400070BD10B5A948007820B14FF08040FFF737
:10585000ADFF03E04FF08040FFF738FF10BD10B5FB
:10586000A348FFF733FF10BDF0B589B005460E46DB
:10587000174600200890059006900790019002902E
:1058800003900490009099480570002407E040F2CE
:10589000DC50914901EBC401C880601CC4B2082CE3
:1058A000F5DB002D43D00120ADF8200004208DF859
:1058B000230003208DF8220008A98E4802F02BFB5C
:1058C0001C208DF8000000208DF8010001208DF8CB
:1058D00002008DF80300684600F0D7FD05A801F02E
:1058E000FFFE4720ADF814004FF6FF70ADF818002A
:1058F0000020ADF8160005A94FF0804001F080FCB3
:10590000002076494880012088800020C8800881D6
:1059100008804FF0804001F01BFE01220221480761
:1059200001F017FF0121880701F0FEFE69E0CF209A
:10593000ADF8200028208DF8230003208DF82200E8
:1059400008A96C4802F0E7FA0320ADF8200008A986
:10595000694802F0E0FA1C208DF8000000208DF864
:10596000010001208DF802008DF80300684600F068
:105970008CFD1D208DF80000684600F086FD05A80E
:1059800001F0AEFE4720ADF814004FF6FF70ADF801
:1059900018000020ADF8160005A94FF0804001F076
:1059A0002FFC05A9524801F02BFC00204B494880F0
:1059B000012088800020C880088100240DE045482F
:1059C00000EBC400808845490880424951F8340002
:1059D000424901F0BDFD601CC4B2082CEFDB01227E
:1059E0001E21900701F0B5FE01221E21404801F062
:1059F000B0FE0121880701F097FE01213C4801F02B
:105A000093FE4FF41060ADF8200018208DF82300AD
:105A100003208DF8220008A9364802F07CFA4FF4E2
:105A20007070ADF8200008A9334802F074FAB6B1DE
:105A300027B141F28730ADF8180003E044F61F604B
:105A4000ADF8180005A92D4801F0DAFB40F6C310A7
:105A5000ADF8180005A92A4801F0D2FB0BE040F68A
:105A6000C310ADF8180005A9244801F0C9FB05A929
:105A7000234801F0C5FB7020ADF804000120ADF80B
:105A800006000020ADF808004FF47A70ADF80A0067
:105A90000220ADF80C00C001ADF8100001A91748B4
:105AA00001F0E7FB01A9154801F08AFC01A914489F
:105AB00001F0DFFB01A9124801F010FC01A9104818
:105AC00001F046FC01A90E4801F07AFC01210B48C7
:105AD00018E000007002002034050020740500204A
