:020000040800F2
:10000000C8170020F1740008317500083375000826
:1000100035750008377500083975000800000000C4
:100020000000000000000000000000003B75000818
:100030003D750008000000003F750008754B000882
:1000400043750008437500084375000843750008B0
:1000500043750008437500084375000843750008A0
:100060004375000843750008437500084375000890
:100070004375000843750008EF4D000843750008FC
:100080004375000843750008437500084375000870
:100090004375000843750008437500084375000860
:1000A0004375000843750008437500084375000850
:1000B000454700085747000843750008914300086A
:1000C0006F410008954300089343000843750008FA
:1000D00043750008437500082B500008437500085D
:1000E000AD3C00084375000843750008DFF80CD0EC
:1000F00007F088FF0048004799130008C817002040
:1001000070B51546B0FBF5F60446A84203D3304659
:10011000FFF7F6FF014605FB1640F6A2105C0870DB
:10012000481C70BD70B50C46911E232900D30A22CD
:100130000025002804DA2D212170611C404200E0D6
:100140002146FFF7DDFF0570204670BD70B50546FE
:100150000C46086807F077FA024621682868BDE86F
:10016000704007F078BA10B5ECA004F015FF01203C
:1001700000F057FDF0A004F00FFF0A2004F02DFD61
:10018000BDE81040002004F0F5BD10B5EEA004F06D
:1001900003FF00F01BFDEFA004F0FEFE0A2004F0B8
:1001A0001CFDBDE81040002004F0E4BD10B504467D
:1001B000ECA004F0F1FE2021F04807F019FAF04815
:1001C00000210170EF4801702046BDE81040DCE7D7
:1001D0002DE9F047064607F036FAC5B200F0E8FD13
:1001E000DFF89C9307464FF0010809F14C0955B11F
:1001F0002A46E5A1304607F02EFAE0B13078002714
:100200002D2829D02CE0E2A004F0C6FE00244546AB
:100210004FEA090656F8240058B105FA04F13942AC
:1002200001D004F0B9FE202004F0A9FE641CE4B261
:10023000F0E7C0A022E0DBA004F0AEFE00244D46B3
:1002400055F824000028F4D004F0A6FE202004F085
:1002500096FE641CE4B2F3E70127761C6D1EEDB236
:100260005FF0000459F8241039B12A46304607F0EF
:10027000F2F938B1641CE4B2F4E7D0A0BDE8F0476D
:1002800004F08ABE08FA04F01FB100F08CFDD2A081
:1002900002E000F0BDFCD3A004F07EFE59F824007B
:1002A00004F07AFEC5E770B50024D1A004F074FE16
:1002B000D54D00BF04EB440655F8260004F06CFE53
:1002C000092004F05CFE05EB8600406804F064FE43
:1002D00098A004F061FE00BF04F033FE0028FBD0BC
:1002E000641CE4B20A2CE5D370BD3EB5054607F0A8
:1002F000AAF9C0B208281DD10024285D07F036F9FC
:100300002855641CE4B2082CF7D30024BF48295DAB
:1003100007F090F928B12819295D401C07F08AF9E7
:1003200008B1BBA01CE0641CE4B2082CEED3284644
:1003300000F0F0FBBEA004F02FFEB44BC24A002038
:10034000694615181C5C95F85950401CC0B24C55B4
:100350000828F6D300220A54084604F01DFE75A0B2
:1003600004F01AFE3EBD2DE9F041804607F06BF91E
:10037000834DB54F10F0FF0605F1040511D032464C
:1003800081A1404607F067F9A0B1002455F8241078
:1003900009B33246404607F05EF908B3641CE4B284
:1003A000F4E7AAA004F0F8FD787805EB800050F897
:1003B000040C1CE0A9A004F0EFFD002455F8240073
:1003C00038B104F0E9FD202004F0D9FD641CE4B24A
:1003D000F4E758A000E0A6A0BDE8F04104F0DCBDC1
:1003E000601C7870A8A004F0D7FD55F8240004F034
:1003F000D3FDEEE71FB5014600200A79052A14D285
:10040000DFE802F003060A0D1100886800780CE0AE
:10041000886890F9000008E08868008805E088682E
:10042000B0F9000001E0886800680A226946FFF719
:1004300079FE684604F0B0FD1FBD2DE9F047814606
:1004400007F001F9704C10F0FF0F04F1780420D090
:1004500091A1484607F0D8F8002839D0401C07F091
:1004600013F980465FF0000505EB850704EB87066E
:1004700054F8270007F0E7F8024654F827104846DA
:1004800007F0E9F830B36D1CEDB22C2DECD383A04E
:100490003EE18AA004F080FD5FF0000505EB8500D9
:1004A00004EB800654F8200004F076FD89A004F0E7
:1004B00073FD3046FFF79EFF1EA004F06DFD00BFE8
:1004C00004F03FFD0028FBD06D1CEDB22C2DE5D3D0
:1004D000BDE8F08705EB850104EB8100C368434567
:1004E00006DC0269424503DB3279052A01D2F3E0DA
:1004F0000DE101E13031323334353637383941429C
:10050000434445464748494A4B4C4D4E4F50515243
:10051000535455565758595A000000005265736598
:100520007474696E6720746F2064656661756C749D
:10053000732E2E2E0D0A00005265626F6F74696E65
:10054000672E2E2E00000000536176696E672E2EF6
:100550002E0000000D0A5265626F6F74696E672E7F
:100560002E2E00000D0A4C656176696E6720434CA3
:1005700049206D6F64652E2E2E0D0A002003002089
:1005800000000020240200206C6973740000000049
:10059000456E61626C656420666561747572657331
:1005A0003A200000417661696C61626C6520666585
:1005B0006174757265733A2000000000496E7661BF
:1005C0006C69642066656174757265206E616D6525
:1005D0002E2E2E0D0A00000044697361626C656462
:1005E00020000000456E61626C6564200000000020
:1005F000417661696C61626C6520636F6D6D616EDF
:1006000064733A0D0A000000C4940008AC98000816
:100610004D75737420626520616E79206F72646518
:1006200072206F662041455452313233340D0A0036
:1006300043757272656E742061737369676E6D6560
:100640006E743A200000000040030020437572726F
:10065000656E74206D697865723A20004176616933
:100660006C61626C65206D69786572733A20000078
:10067000496E76616C6964206D6978657220747961
:1006800070652E2E2E0D0A004D69786572207365F7
:100690007420746F200000003D0000004552523A63
:1006A00020556E6B6E6F776E207661726961626C39
:1006B00065206E616D650D0A000000004375727261
:1006C000656E742073657474696E67733A200D0AE1
:1006D00000000000203D2000DFE802F003030707D0
:1006E0000B00B26882F8008006E0B268A2F80080D1
:1006F00002E0B268C2F8008054F8210004F04CFC1B
:10070000A6A004F049FC3046BDE8F04772E6A6A07A
:10071000BDE8F04704F040BC2DE9FF41ACA004F077
:100720003BFC04F041FA4FF47A71B0FBF1F00A227D
:100730006946FFF7F7FC684604F02EFCA8A004F019
:100740002BFCAC480A2269460078FFF7EBFC6846B0
:1007500004F022FCA8A004F01FFCAA480A22694663
:100760000078FFF7DFFC684604F016FCA6A004F052
:1007700013FC00F00DFB0646A7A004F00DFC0024BE
:10078000AA4F012557F8240058B105FA04F1314267
:1007900001D004F001FC202004F0F1FB641CE4B261
:1007A000F0E7AFF2702004F0F7FBA1A004F0F4FB37
:1007B000A3480A2269460088FFF7B4FC684604F0A3
:1007C000EBFBA0A004F0E8FB03F065FE0A226946FB
:1007D000FFF7A8FC684604F0DFFBAFF2A82004F0A6
:1007E000DBFBBDE8FF819BA004F0D6BB2DE9FF5FDA
:1007F000DFF8949299F8000038B9012189F80010C7
:10080000A2A004F0C9FB00F0C6F8DFF820A2DFF8D0
:10081000B4B2AAF1780A00BF04F086FB00286FD0BA
:1008200004F098FB092806D03F2804D09AF800105D
:100830005446B9B34EE0A44F002425469AF8006010
:1008400007F178080CE000BF9AF8002022B19D481B
:10085000396806F000FF10B904B93C463D460C3734
:100860004745F1D3A4B150465F46017822682B6812
:10087000525C5B5C9A420BD11AB17A54491C0170EC
:10088000F3E72022CBB2491C0BF803208AF80010B2
:100890009AF80000574608B1AC4210D08BA004F083
:1008A0007BFB07E014E0206804F076FB092004F0ED
:1008B00066FB0C34AC42F6D900F06DF800265C46BD
:1008C00038788642A8DAA05D04F059FB761CF7E779
:1008D000042810D00C2814D019B10A2815D00D28DE
:1008E00013D07F283ED0202996D2202894D37E286A
:1008F00092D8B1B345E004B07248BDE8F05F55E46A
:1009000047E074A004F048FB28E0AFF2D83004F0D0
:1009100043FB207800255E460BF800507048CDE977
:10092000000B0C230A226849029501A806F024FE58
:10093000070007D0386806F086FE3044B968401CCE
:10094000884702E067A004F027FB20215D4806F0FD
:100950004FFE257099F8000000281AD000F01BF80F
:100960005AE70CE00029FBD0491ECAB200208AF8E1
:1009700000200BF8020064A004F00EFB4CE72028D6
:10098000EED00BF80100491C8AF8001004F0F7FAC9
:1009900042E7BDE8FF9F5DA004F0FEBA20736574D6
:1009A00020746F20000000004552523A2056616CBE
:1009B00075652061737369676E6D656E74206F7500
:1009C00074206F662072616E67650D0A000000007A
:1009D00053797374656D20557074696D653A2000A4
:1009E000207365636F6E64732C20566F6C7461673F
:1009F000653A200025010020202A20302E31562083
:100A000028000000BC0100205320626174746572EC
:100A100079290D0A000000004465746563746564FB
:100A20002073656E736F72733A20000078000020A7
:100A30004379636C652054696D653A2000000000BD
:100A4000260100202C20493243204572726F7273B8
:100A50003A2000004166726F333220434C492076C1
:100A6000657273696F6E20322E302D70726533207F
:100A70004170722020392032303132202F20323222
:100A80003A30343A33350000240200200D0A456E16
:100A9000746572696E6720434C49204D6F64652C04
:100AA00020747970652027657869742720746F2019
:100AB00072657475726E2C206F72202768656C7079
:100AC000270D0A0020030020C49400080D1B5B4B77
:100AD000000000001B5B324A1B5B313B31480000C9
:100AE0004D0100084552523A20556E6B6E6F776E7D
:100AF00020636F6D6D616E642C207472792027689D
:100B0000656C702700000000082008000D0A2320F3
:100B1000000000002DE9F04105460446A64EA74F0F
:100B200009E0A54806F086FD20B1611B801B384412
:100B300080F85910641C21780029F2D1BDE8F081B9
:100B400070B598229E499D4806F039FD9B499D4EFF
:100B5000002091F8212091F8204040F2E24500BFAA
:100B600000FB00F3193B534303F6C41343436343B1
:100B700093FBF5F326F81030401CC0B20728EFD3E2
:100B8000B1F876204FF47F734FF4FA609A4201D2A5
:100B90001A4602E0824200D90246A1F87620B1F856
:100BA00078209A4201D21A4602E0824200D90246D7
:100BB000A1F87820B1F87A209A4201D2184602E0D2
:100BC000824200D81046A1F87A0070BD70B506F0D8
:100BD0006AFA342006F075FC794D284606F09EFA34
:100BE00004280AD1754E00246019315906F035FBEE
:100BF000042802D1241D982CF6D306F060FAFFF7E2
:100C00009FFFBDE87040012214210F2001F05EB863
:100C10006A494A6802434A60704768490020486050
:100C2000704770B566490A786749097808B98A42F9
:100C30007ED0624C03200025217060700220656028
:100C4000FFF7E6FF282020721E212174172222764A
:100C50006072617462765521A172A574A576102127
:100C6000E1720F21E1740722E27632266673657520
:100C700061772573257525775A21A1732D21A175DB
:100C80006422A277E07384F82010412084F82100C8
:100C900084F8225084F8235084F82450002021182E
:100CA000401C01F8405FC0B2CD720B28F7D304F1AD
:100CB00050044FF0040024F81E5C24F81C5C24F857
:100CC0002A5C24F8285C24F8265C04F81A0C4FF0FF
:100CD0002A0024F8180C3D4844F8140C4FF06E001C
:100CE000A0714FF02B00E0714FF02100207238A06E
:100CF000FFF710FF6574A574E57440F2DC50A08224
:100D000040F24C41E18240F26C71218340F27E411D
:100D1000618340F23A71A1834FF47A71E1834FF419
:100D2000C87121846684012184F82410E08400E0E5
:100D30001BE0208560854FF47F71A1854FF4FA6236
:100D4000E2850A2384F8303084F831306186A28647
:100D5000E08621876287A0874FF4165020644FF405
:100D6000E1306064BDE8704030E770BD1649496805
:100D7000014201D0012070470020704712494A68A3
:100D800002434A60704710494A6882434A6070478C
:100D90000D484068704709494968014201D0012067
:100DA00070470020704705494A6882434A6070478F
:100DB0000248406870470000AC98000840030020DB
:100DC00000FC0008BC040020900000200314140064
:100DD000414554523132333400000000F74810B519
:100DE000008806F0BAFEF64906F0B3FC06F0D8FE1D
:100DF000F44948800420FFF7B9FF002803D0BDE87C
:100E0000104002F087B810BD10B507F03FFB06F0A8
:100E10002AFFED4AED4B06F0B8FD06F0EEFE00B2FB
:100E200010BD2DE9F04706460C46D6E90070804615
:100E30004868B568414606F08CFC81463946206812
:100E400006F087FC494606F02CFC294606F07EFC9D
:100E5000B0604146A06806F07CFC814629462068C7
:100E600006F077FC494606F06EFC394606F019FCA0
:100E700030603946A06806F06CFC07462946606879
:100E800006F067FC394606F00CFC414606F009FC0A
:100E90007060BDE8F0872DE9F04F89B0002503F0C0
:100EA00071FEC84C0646A069301A06F06CFEC84AAE
:100EB000C84B06F06AFD06F0ECFE0290A661DFF872
:100EC0001893DFF8188300260DF1180B04F14C0A73
:100ED00004F15207BB48463030F9160006F034FEE4
:100EE000029906F036FC4BF8260099F8360010B34C
:100EF00006F033FE01464FF07E5006F060FC049091
:100F00003AF9160006F020FE049906F022FC039040
:100F10004FF07E51049806F019FC58F8261006F0A0
:100F200018FC039906F0BDFB48F8260008F08EF97E
:100F300006F036FE01E03AF8160027F8160037F9F9
:100F4000160000FB00550420FFF710FF761CF6B2D8
:100F5000032EBFD364204543984806A90088404328
:100F600095FBF0F69D481838FFF75BFF0420FFF76C
:100F7000FDFE20B1994806A90C38FFF752FFB7F9DA
:100F80000000002800DC4042B4F9021088420CDA6C
:100F9000B7F90200002800DC4042884205DAB7F9C0
:100FA0000400002801DD012000E000208B4D253EDB
:100FB000183D20709F2E02D310F0FF0F16D046462A
:100FC000874FDFF820820024394655F8240006F0C8
:100FD000C0FB56F8241006F064FB414606F0B9FB4E
:100FE00045F82400641CE4B2032CEDD30420FFF781
:100FF000BDFE7A4E0C3EF8B1DFF8C881DFF8E8910B
:10100000DFF8E8A1002408F1580800BF38F91400FF
:1010100006F09AFD074656F82400494606F099FB6B
:10102000394606F03EFB514606F093FB46F8240095
:10103000641CE4B2032CE9D3A9682868FFF7E4FE36
:10104000604C0E342080D5E90101FFF7DDFE6080A1
:101050000420FFF78BFE002822D0B4686868214680
:1010600006F077FBAF6880467168384606F071FB82
:10107000414606F068FB80463846316806F069FB59
:1010800006462146286806F064FB314606F05BFB05
:101090004146FFF7B9FE0A2190FBF1F05449088060
:1010A00009B0BDE8F08F2DE9FF5F0120FFF75EFE7C
:1010B00018B101F03AFEFFF7EEFE01F011FF414CCE
:1010C00000206F4614F1460434F8101027F8101071
:1010D000401CC0B20328F7D303F054FD394E7061B1
:1010E00000F01EFE03F04EFD716940F28A25401AA1
:1010F000A84204D93F490888401C088005E003F055
:1011000041FD7169401AA842F9D301F0E9FEDFF808
:10111000B4A00025B946A0460AF13A0A0DF1080B21
:101120000327AAF1060400BF38F8151039F8150096
:10113000084400B22BF815003AF915200244521C5D
:1011400092FBF7F200EBD07024F8152040102AF83B
:1011500015000120FFF70AFE20B91A4900204C3182
:1011600021F815006D1CEDB2032DDDD38020FFF7B3
:1011700012FE194A08B313490A31087828B9D06B0E
:10118000020C0A70020A4A7088700E4D0020403529
:101190000A5C34F9106035F91070531E07FB0363C5
:1011A0005B1C93FBF2F224F8102025F81020401C61
:1011B000C0B20328ECD3BDE8FF9F1DE0DC01002096
:1011C0007593D83E980000203B597E90A9E7814056
:1011D0009B36CF478A48323E40030020F003002070
:1011E00000009B4308BA523B000048435E06A33B05
:1011F00020020020B601002050780128DBD1B6F98A
:101200000810B4F90400012202EB4101084490FBEC
:10121000F7F0A0803081CEE7F0B54248016842483F
:10122000C26991427CD346F2A8121144C161826A1C
:101230000A2492FBF4F23D4B90F9011012B233F9FB
:10124000115023F81120046A161901F11402282400
:1012500092FBF4F704FB1722D2B2491C33F9122097
:1012600049B2B31A0362466A3244551B45620026EE
:101270004170282900DB46702D495D1BCA7E6A43F8
:1012800092FBF4F2524214B203EB83025200142395
:1012900092FBF3F28480C262036B9A1A002A01DD8A
:1012A000134600E053420A2B03DA0934122C00D80B
:1012B0008680CB7A5C42B2EB440F02DA5C00644277
:1012C00005E0B2EB430F01DD5C0000E01446634330
:1012D000642493FBF4F3848823441BB26FF09504D9
:1012E0008380A34201DA234602E0962B00DD962399
:1012F0008380C97C5143322291FBF2F1C2881144B0
:1013000009B20C4AC180914202DB5242914200DD97
:101310001146C1804FF4FA7291FBF2F119448180B9
:10132000F0BD00004801002098000020FC030020D0
:1013300040030020D08AFFFF2DE9F0415F4800788C
:1013400008B1022500E0002503F0D7FB401B5C49F3
:10135000C6B2102008602C465A4F06E0B7F86C1051
:10136000204603F0BBFB641CE4B2B442F6D340F663
:10137000B83003F032FC2C464FF47A7505E029466C
:10138000204603F0ABFB641CE4B2B442F7D3BDE8E3
:10139000F041042003F0CBBC1CB503F029FCFFF79F
:1013A000CFFB0020FFF73DFC464CD4F8940001F041
:1013B000A4FE0720FFF7E2FC00F092F80120FFF7FF
:1013C000EAFC8DF801000820FFF7E5FC80F0010041
:1013D0008DF800003948007800B101208DF8020036
:1013E000B4F87000ADF80400B4F87200ADF806006F
:1013F000684603F06CFA08B1FFF79EFFDFF8CCA057
:1014000031494FF01008CAF800102D49C1F800808A
:101410000E1F4FF00809C6F800900025A6F1040B36
:101420005FEAA147DBF8001081F01001CBF8001053
:10143000DBF8001081F00801CBF80010192003F050
:10144000CCFB23480760192003F0C7FB2048001F8E
:1014500007606D1CEDB20A2DE4D3C6F80090C6F803
:10146000008001F01DFBFFF7B9FC0220FFF793FCA1
:1014700008B101F073FB0820FFF78DFC28B102F0E2
:10148000B0FA1449CAF800100CE00120FFF783FC01
:1014900040B14FF40070FFF77EFC18B1D4F8900013
:1014A00002F03AFA03F06EFB0B4908600B494FF467
:1014B000C870088000F060FEFCE70000FD0000201E
:1014C000140C0140400300207F2000085001002040
:1014D000140801400B3A00084C010020DA010020FA
:1014E00070B5F94E0125F94C7078042805D0012813
:1014F00003D0052801D0082800D165702020FFF70F
:101500004AFC18B94020FFF746FC00B165707078BE
:1015100012280DD2DFE800F00C0F11110D09131382
:101520000B11131515150C0C0C1100200AE0257079
:1015300070BD022006E0032004E0042002E0062043
:1015400000E00820207070BD70B5E04840780028A9
:101550001AD0DD4DDD4C68780834012807D0042806
:1015600005D02188002003F0B9FA618807E02189BD
:10157000002003F0B3FA6878042805D16189BDE83A
:101580007040012003F0AABA70BD2DE9F041CF4EA2
:101590000025707800B102250024CD4F08E000BF7F
:1015A000601937F81410C0B203F098FA641CE4B262
:1015B00030788442F4D3BDE8F081C44A0021C44BA2
:1015C000127803E023F81100491CC9B29142F9D303
:1015D000DBE72DE9F04FBD48BE4D9BB000780328F6
:1015E00023D9BD48B5F90420B0F9040041420028D0
:1015F00001DD034600E00B466FF06304E31A9A42F4
:1016000004DA002800DC0846221A0DE0002801DD7B
:10161000034600E00B4664339A4205DD002801DDF5
:10162000024600E00A466432AA80A7480322AA4C78
:101630004678A848DFF898A2B0F902108B0093FB17
:10164000F2F30C93B4F9064023440E934B005B4233
:1016500093FBF2F71797B0F9009004EB010C04EB41
:101660000902B8181A90601AA4EB090312905818CE
:101670000390C9F1000000EBD070089001EBD17726
:101680004010149700EB670715974F4207EBD77789
:1016900000EB67000B90139709EBD9700D90149F26
:1016A000401000EB67071197139FA2EB010E00EBB0
:1016B0006700204406908448179FA3EB010B90F924
:1016C000740007EB0308122E30D2DFE806F02F304B
:1016D0004C5E09FC82A1FB73C2E0FAF92F2F2FF8B0
:1016E000AAF80020AAF80230B5F904504FF47F732D
:1016F00000FB051202F2DC529A4201DA1A4604E0BB
:101700004FF4FA64A24200DD2246704C684308346C
:10171000401A00F2DC502281984201DA184604E0B7
:101720004FF4FA61884200DD08466081EEE10E9ACE
:10173000AAF80020AAF8028063491A9AAAF804209D
:10174000B1F87A20B5F9041000FB01204FF47F7145
:10175000884203DB4FF4FA61884200DD08465B49AA
:1017600008310881D2E1B5F9044000FB14C500FB43
:101770000433AAF8005000FB0422AAF80230AAF8A9
:101780000420129A00FB142011E0B5F90430039CE8
:1017900000FB031100FB1345AAF8005000FB03B542
:1017A000AAF80250114400FB13E0AAF80410AAF8AA
:1017B0000600ABE1B5F9042000FB12C3AAF8003023
:1017C00000FB02C0AAF802B0AAF80400AAF806E0DA
:1017D0009CE1B5F904300C9900FB03440C44AAF8D1
:1017E000004000FB1384AAF802401A9C00FB13443B
:1017F000AAF804400E9C00FB1344AAF8064000FB24
:101800000384AAF80840179C00FB034010441DE025
:10181000B5F90420159900FB02435D18AAF80050A1
:101820000B9D2C4400FB1244AAF80240119C234457
:10183000AAF80430069B00FB1233AAF80630129B6C
:1018400000FB023300FB12C0AAF80830AAF80A0015
:101850005CE1B5F90450159900FB05467718AAF824
:1018600000700B9F00FB15333E44AAF80260119EE6
:10187000344400FB1544AAF80440069C00FB1544C0
:10188000AAF8064000FB0520AAF80830DEE7B5F903
:101890000440039E00FB041700FB1466AAF80060D6
:1018A00000FB04B6AAF80260D619AAF8046000FB8F
:1018B00014E6AAF806603B44AAF808300EE090E06F
:1018C00054E017E0E5E0ABE040030020FC0000201E
:1018D0004C040020980100209E01002000FB14B35E
:1018E000114400FB1411AAF80A3000FB04E0AAF826
:1018F0000C1038E0AB46C9EBC9050A2695FBF6FE8D
:10190000A1EBC10595FBF6F8BBF904500EEB0807F7
:1019100000FB054B07EB0B04AAF80040A9EBC90438
:1019200094FBF6F7C1EBC10191FBF6F1B8447E18C8
:1019300008EB0B04AAF8024006EB0B047144AAF86A
:1019400004405944AAF80610129900FB1511AAF890
:10195000081000FB1531AAF80A1000FB15C100FBA6
:101960001520AAF80C10AAF80E00CFE0B5F90480F3
:10197000139D00FB08F606EB65051544AAF8005018
:10198000089D04EB65056F1A00FB0875AAF8025064
:10199000149D03EB650700FB0875AAF804500D9D24
:1019A00006EB65056544AAF806500D9D04EB650439
:1019B000611A00FB1811AAF80810139903EB6101D2
:1019C00000FB1811AAF80A1008990CEB610100FB42
:1019D0001811AAF80C10149902EB610100FB181001
:1019E000C1E7B5F904104843414201EBD1710CEB5A
:1019F0006102AAF8002043000A2293FBF2F404EBF0
:101A00000B03AAF8023000EBD0734000404290FB79
:101A1000F2F20CEB6303AAF8043002EB0E00C6E608
:101A2000A248A34A90F98010B2F90230B0F886407B
:101A30005943A04BB3F902502C44CD1701EB15715B
:101A400004EB2111B0F88240A14203DBB0F88440DE
:101A5000A14200DD2146984C218090F98110B2F915
:101A60000020B3F900305143B0F88C201A44CB1752
:101A700001EB137102EB2111B0F88820914201DAD9
:101A8000114604E0B0F88A00814200DD0146618021
:101A90003CE08A48AAF80040007870B18849834841
:101AA0004A88B0F864000988141A0B1A82491C4449
:101AB000801A0C801844488006E07F4801EB090238
:101AC000A9EB0101028041807B49784AB1F900000D
:101AD000B2F8763018444FF47F73984201DA184612
:101AE00004E04FF4FA64A04200DD20460880B1F91A
:101AF0000200B2F878201044984201DA184604E057
:101B00004FF4FA62904200DD104648802020FFF733
:101B100042F96C4FF0B36548694A6430418C93894F
:101B200019440388C91A0CB263490C80058DD28907
:101B3000A0F164002A44A2EB030213B24B80FA78AE
:101B4000B2B15B4E90F98020B6F902506A43D517C6
:101B500002EB157204EB22120A8090F98120B6F98B
:101B600000406243D41702EB147203EB22124A8046
:101B7000B1F90020B0F882309A4203DBB0F884302B
:101B80009A4200DD1A460A80B1F90220B0F8883086
:101B90009A4200E008E001DA1A4604E0B0F88A0050
:101BA000824200DD02464A804020FFF7F4F8B8B1D7
:101BB000414C0125083CA07801280ED1E078B8B14D
:101BC0004FF47A76012819D002F0EEFF6168401ACE
:101BD000B04202D90020E070A070387900B1A57041
:101BE000354F0120083F5546BAF9006039781CE0AE
:101BF00031494FF4FA608880E5700BE002F0D4FFC1
:101C00006168401AB042E8D92B494FF47F70888050
:101C10000220E07002F0C8FF6060DEE735F91020B6
:101C2000B24200DD1646401CC0B28842F6D3002402
:101C300035E01E4AB2F86C00B04205DA35F81410EF
:101C4000331AC91A25F8141035F91410B2F86A308D
:101C5000994201DA184602E0814200DC084625F884
:101C6000140017489046B0F90610B2F86600814299
:101C700008DA1020FFF78FF840B1B8F86E0000BF07
:101C800025F814001048007818B106E0B8F86A008A
:101C9000F6E7B8F86E0025F81400641CE4B2387852
:101CA0008442C6D31BB0BDE8F08F00004003002083
:101CB000A60000209E010020040100201801002041
:101CC000A6010020CA040020190100202DE9F74FC9
:101CD000DFF848A4074690460025DFF83C944FF40F
:101CE0008056AAF1040B17E000240EE0D9F800108A
:101CF00081F00801C9F80010CAF80060019802F0EC
:101D00006CFFCBF80060641CE4B2BC42EED33C2014
:101D100002F063FF6D1CEDB24545E5D3BDE8FE8FD3
:101D20002DE9F84FFE4A002440F2DC50B2F906C01B
:101D3000FC4D4FF4FA73844501DA64200DE0F94854
:101D4000BCF5FA6F90F8240004DAACF2DC51484399
:101D500090FBF3F0C0F16400C0B295F861B095F863
:101D600062E0B5F8643081460021AA46EC4840F2B2
:101D7000E63630F91150E81A00F2F312B24203D8F5
:101D8000002803DC581B01E04FF4FA7080B20229EE
:101D900033D0BBF1000F06D0834503D2A0EB0B007C
:101DA00080B200E000206422B0FBF2F2DE4E06EBCF
:101DB000420736F91280B7F90270A7EB08066FF0F8
:101DC00018077A4300EB82025643642296FBF2F234
:101DD000D34E4244083E26F811209AF8222042436E
:101DE0004FF4FA70B2FBF0F0C0F16400C0B200FB37
:101DF00009F06422B0FBF2F015E0BEF1000F06D04E
:101E0000864503D2A0EB0E0080B200E00020C44E55
:101E1000083EB0809AF8232042434FF4FA70B2FB98
:101E2000F0F0C0F164000AEB0108C0B298F8086055
:101E300064224643B6FBF2F6B94F663F7E5498F8EB
:101E400018604643B6FBF2F0FA1C9D42505406DA85
:101E500002F15B0030F81120524220F81120491C99
:101E6000C9B2032982D30AF16A00AD4E42880188C3
:101E7000BAF86600A2EB0102ACEB000302FB03F22E
:101E8000C0F5FA6092FBF0F0A6F108060844A6F14E
:101E90008A05F080E878E8B3A448B5F92010B0F9D5
:101EA0000000401A05F05EFEA14AA24B05F06DFD50
:101EB0000022A14B05F0D9FD05F0EBFE074606F028
:101EC0000FFC8146384607F0FBF98046B6F9000062
:101ED00005F03AFE4146009005F03BFC0746B6F996
:101EE000020005F031FE8346494605F032FC3946D2
:101EF00005F0D7FB05F054FE07464146584605F06D
:101F000028FC80464946009805F023FC414605F030
:101F10001AFC00E003E005F043FE308077800220E9
:101F2000FEF739FF00264FF00108B0B3E87A401CF5
:101F3000C0B20621B0FBF1F2E87201FB1200B8B9A1
:101F400001F0FDFD697B784A01F00703603A491C06
:101F500022F813006973002032F81010401C21444D
:101F6000C0B28CB20828F7D3E00800F0DFFD687437
:101F70006D486A490E30091F827A4FF480500AB1C9
:101F800007220CE06A7C6B8D9A4203D89AF858308D
:101F9000934203D92E732E7008601BE004222A732B
:101FA0002A7852B12B6C6A6B03F5743390339A42E2
:101FB00010D92E7008602A640CE02A7B5F49D1405A
:101FC0002A6C0A44696B8A4204D2544A85F800801C
:101FD000106029645A485B4F4F4C008818B10120AB
:101FE000FEF7C4FE10B95848008820B1206880F080
:101FF000080020600BE039780820012902D1464909
:10200000091D0860697911B14349083108604FF42E
:102010008070FEF7C0FE48B1A96C686B884205D994
:102020004CF250310844A86403F02CF8696C686BDA
:10203000884204D945490978C1B187F8008001F088
:102040005EF81020FEF792FE00280DD0E96C686B58
:10205000884209D9A97A012906D13D490844E86492
:10206000206880F010002060BDE8F88F3E70216885
:1020700081F008012160374908446864DFE7284A95
:10208000002110B5923A9182264C204490F85900D4
:1020900002F02EFDA0F2EE2140F2DD52914201D37A
:1020A000B4F8640010BD2DE9F0471D4E0024923EA7
:1020B0001D4FB07BDFF86880401C503FB073A146D5
:1020C00007F14005F16B20468847B27B07EBC4015E
:1020D00002F0030221F8120025F814905FF00000CE
:1020E00035F8143031F81020401C1A44C0B225F8DD
:1020F00014200428F4D335F91400801CC11700EB18
:102100009170801025F8140038F914204146D21E31
:10211000904223DA821C1FE00C0C0140140801409D
:10212000A601002040030020BC0400202002002063
:10213000182D4454FB2109400080664080841E0015
:10214000D8010020D2010020DA01002098000020F0
:10215000F049020020A1070021F8142031F91420D1
:10216000D21C904202DD801E28F81400641CE4B2E8
:10217000082CA7D3BDE8F0872DE9F04F87B001F018
:1021800041FC08B1FFF78FFFDFF808940125DFF865
:1021900008A4D9F85410D9F834000024884267D92B
:1021A00044F620621044C9F854000820FEF7F3FDFD
:1021B00008B9FFF778FFDFF8DCB3F84E0BF1920BAC
:1021C0004FF4C878BBF90600B6F8662090427DDA75
:1021D000ABF114004F460480448084802E38048084
:1021E000448099F80F00401CC0B289F80F00BBF979
:1021F0000410914205DABBF90210914201DA7979B3
:1022000031B10420FEF7C7FD88B3787930B130E0F2
:10221000142802D1E248A0F80080C1E0BBF9041004
:10222000B6F866205846914223DAB0F90220B6F893
:1022300068108A421DDDBBF90000884219DDF87B79
:10224000142803D1788B10B17C83BD83A8E0388D2E
:1022500028B10020388520B10222012103E00120AD
:10226000F8E703220A210A20FFF730FD98E000E09A
:10227000DDE196F8450010B996F8500068B1C948FC
:10228000407930B1B87920B17D71BAF80000388456
:102290002EE07879F8B17C712AE0BBF90410B6F829
:1022A00066205846914203DBB0F90030934202DACF
:1022B0007A79012A10D0B6F86820914203DCB0F98F
:1022C0000010914214DDBBF9020000E01AE09042D8
:1022D0000EDA787928B10BE0F87B142860D17C7194
:1022E0005EE0AF48008818B9AF480078012801D0F7
:1022F000FC7355E0F87B142852D17D71BAF80000C8
:1023000038844DE0B6F868305946984248DD99F86F
:10231000057048469FBBB1F9047097420ADAB1F9DB
:1023200002C0944506DAC17B14290ED19F4AA2F857
:1023300000800AE09F420CDDB1F90270974208DA92
:10234000C17B142901D19A4A1570491C89F80F10D4
:1023500026E0B1F902704FF480789F4202DDB08E22
:10236000801C03E0974203DAB08E801EB0860CE03A
:10237000BBF90010994203DD708E801C04E00FE071
:1023800091420BDA708E801E7086FEF71FFC40466D
:10239000FEF701FD20B102F0D6FE01E089F80F4002
:1023A0000420FEF7F8FC18B3B9F82820484632217B
:1023B0006AB14279012A0AD1BBF90620B6F8663023
:1023C0009A4204DD774A52790AB901830485754A35
:1023D000127A2AB1028D5AB90585A9F8181007E0BA
:1023E000418B29B1417919B904854483A9F81C505E
:1023F0006849002092314FF4C77BB1F90820B1F948
:102400000A30A2F2155EA3F21551049140F2145164
:10241000DFF880C18A420CF1920C01DA012700E05A
:102420000027DE4501D8012600E0002647EA4607DE
:1024300040F2A466E046B24202DD4FF0010C01E03A
:102440004FF0000C47EA8C078B4202DA4FF0010C88
:1024500001E04FF0000C47EACC0C049F5F4501D827
:10246000012700E000274CEA0717B34202DD4FF0D6
:10247000010C01E04FF0000C47EA4C1C474F0744A9
:10248000059797F840701CEA070F3CD1B8F90C800B
:10249000884502DA4FF0010C01E04FF0000CA8F281
:1024A00015575F4501D8012700E000274CEA470C8B
:1024B0004746B046474501DD012600E000264CEACC
:1024C0008607344E9236B6F90E608E4202DA4FF02D
:1024D000010C01E04FF0000C47EACC0CA6F21557B6
:1024E0005F4501D8012700E000274CEA0717464561
:1024F00001DD012600E0002647EA4616059F97F811
:102500004B703E4201D0012700E00027254E375492
:10251000401CC0B20B28FFF47BAF3746387818B99F
:10252000B9F9140032280DDD0120FEF71FFC48B177
:1025300099F8070040B9174850300480448089F862
:10254000075001E089F80740787908B989F8065002
:1025500099F8071010204E4601290AD01549086045
:102560000220FEF703FC78B3787870B3707A18B164
:102570002DE01049091DF2E70F48104975720068F7
:10258000086004488A30C088F0830D4804800D48F4
:1025900004801CE0140100202002002040030020E1
:1025A000DA010020CA040020D2010020D801002056
:1025B000D4010020100C0140C4000020C8000020FD
:1025C0009E0000209C00002001E0FFE774720420C0
:1025D000FEF7CCFB88B1B87838B1307A30B93572B3
:1025E000BAF80010FE48018000E03472787A18B121
:1025F000F07810B9F57000E0F4701020FEF7B6FB2B
:1026000078B1B87908B1757000E07470F87938B1B4
:10261000B07830B9B570B06D3066F06D706600E0BE
:10262000B470387A08B135710CE034710AE099F968
:102630001010E9B3012949D0022953D003295CD0F5
:1026400089F81040FEF72FFD02F09CFAC9F834001B
:10265000D9F838104D46411AA9F81210C9F83800B7
:102660000420FEF783FB30B3DE4AB2F9041001F117
:1026700045008A2845D8287A98B3D948BAF8003056
:102680000088181A00B210F1B40F02DC00F5B47023
:1026900000B2B42802DBA0F5B47000B2D24B1B78B4
:1026A0004BB1D24BDB7B43431E2093FBF0F000E0A9
:1026B00002E0081A908028E089F810500420FEF704
:1026C00055FB0028BED000F05FFCBBE7022189F873
:1026D00010100846FEF74AFB0028B3D000F030FB8C
:1026E000B0E70EE0032189F810100220FEF73EFB50
:1026F0000028A7D0FEF790FDA4E7042189F8101068
:10270000A0E7B748BAF8001001800220FEF72EFBC0
:1027100078B1687A68B1B348B5F91E10B0F90620EF
:10272000521A1432282A00D96C72B14A1288114404
:10273000C1801020FEF71AFBDFF8A8B2ABF1220B24
:10274000E8B300276A78A978384652EA010304D032
:10275000AB7A13B1012A05D007E0ABF80040ABF823
:102760000240D0E06F8CB5F91600DFF888820129AD
:1027700002D1AF8CB5F92600BAF90010401A05F065
:10278000F1F99D4A9D4B05F000F900229C4B05F0A4
:102790006CF905F07EFA954E05906FF00901707F97
:1027A000484305F0D1F98246384605F0D6F9074688
:1027B0000090059806F084FD8146707B00E0A2E061
:1027C00005F0CBF9494604F0C4FF394604F0C1FFD7
:1027D000414604F0F4FF514605F078FA707F05D2C7
:1027E0006FF00901484305F0AFF930E000EB8000DD
:1027F000400005F0B2F98146059806F061FD0746F4
:10280000707B05F0AAF9394604F0A3FF009904F0A3
:10281000A0FF414604F0D3FF494605F061FA06D215
:10282000707F00EB8000400005F097F90FE00598FD
:1028300006F046FD0746707B05F08FF9394604F037
:1028400088FF009904F085FF414604F0B8FF05F0C9
:10285000A7F9ABF80000707F6FF009015F464843AD
:1028600005F072F98246059805F03AFF8146707BC3
:1028700005F073F9494604F06CFF009904F069FF14
:10288000414604F09CFF514605F020FA707F05D2C6
:102890006FF00901484305F057F931E000EB800083
:1028A000400005F05AF98246059805F019FF814667
:1028B000707B05F052F9494604F04BFF009904F093
:1028C00048FFC146414604F07AFF514605F008FA38
:1028D00006D2707F00EB8000400005F03EF90FE06B
:1028E000059805F0FDFE8046707B05F036F94146FF
:1028F00004F02FFF009904F02CFF494604F05FFF1D
:1029000005F04EF97880DFF8DC8095F80790A8F1A3
:102910001E08DFF8F0A0002008F1060C08F10C0EEC
:10292000B9F1010F3DD102283BD22E493BF91020CD
:1029300031F91010C2EB410233498A4203DB4942AC
:102940008A4200DC1146314A284E642332F81020B6
:10295000B57F891A06EB4002528E11440AB2B17B50
:10296000514391FBF3F16B4209B203EB83038B42BA
:1029700003DC05EB85038B4200DA1946194D3A3D1D
:1029800035F910301A44224B9A4203DB5B429A42DB
:1029900000DC13461AB225F81020B37D5A431213F7
:1029A0004AE010490F4D3AF9106031F910100C3D12
:1029B00001EB810213010D4A17183A7A93FBF2F2E8
:1029C000921B35F9103012B21A44124B9A4202DBB4
:1029D0005B429A4200DD1A4625F810201CE00000F8
:1029E000220200209E0100209800002040030020C9
:1029F0009C00002000002041182D4454FB21094078
:102A000000806640CC0000200CFEFFFFA6000020E6
:102A1000F0D8FFFF80C1FFFF06F52076B6F5A06F66
:102A200001D925F8104035F910207D2392FBF3F2EF
:102A30003B7C5A43921112B2184B3AF9105050266F
:102A40001B5C6B4393FBF6F3CB1A38F8101028F895
:102A500010503CF810603EF81070691A37442EF898
:102A600010600F442CF810100C493FB2C91C095CCF
:102A700079434D1199184A1B0849583121F8102003
:102A8000401CC0B20328FFF44BAFFEF7A2FDFEF7D7
:102A90005BFD07B0BDE8F04FFEF777BD40010020B9
:102AA00038B500208DF800004FF44870ADF80200F2
:102AB000F749684601F0D3F810B90120FEF763F931
:102AC00001F03CF910B90220FEF75DF901F078FA47
:102AD00010B90420FEF757F90120FEF747F9EC4C36
:102AE00008B1206880470220FEF740F908B101F0E4
:102AF00025F9E749E6480C3102F0C0FB28B1012076
:102B0000FEF73CF92068804707E0E1480C3001F00F
:102B100077FD10B9032002F00AF9DD480C30006897
:102B20008047DC48008F01F07FFD38BD70B5054659
:102B3000D84890F8560005F010F80446284605F0ED
:102B40000CF8D54904F005FED44904F038FE2146BE
:102B500004F0FFFD05F03DF880B270BD70B50025B2
:102B60004FEA050400F0EBFF05440A2002F035F8B7
:102B7000641CE4B2202CF5D3C5F34F10FFF7D6FF49
:102B8000C44A022192F8573003FB01F4844203D86F
:102B9000491CC9B20629F7D3C148017092F8580000
:102BA0004843C049088070BD2DE9F05FDFF8F88226
:102BB000BE4EB84CB8F80420002592B3B4490020AA
:102BC0004FF4C87C2439624501D141F8205051F8B6
:102BD000203036F910703B4441F8203026F8105070
:102BE00004EB4003401CC0B2DD840328EBD3012A70
:102BF00012D1086890FBFCF0E084486890FBFCF080
:102C000020858868B8F8081090FBFCF0401A6085B1
:102C10006586A586FDF7DAFFB8F80400401EA8F81F
:102C200004000420FEF7B7F8002870D0DFF880C257
:102C3000DFF87492964FBCF8001009F12009183F94
:102C4000A9F10C0A322904D0F1B30020322910D0A6
:102C500011E0E28CA9F80020228DA9F80220628DF3
:102C6000A9F80420628EAAF80020A28EAAF80220F9
:102C7000EBE747F8205057F8202036F910301A4477
:102C800047F8202026F8105004EB4002401CC0B248
:102C9000D5840328DAD3E34601291AD18548864929
:102CA00002220580012008800A210846FFF70EF85D
:102CB000B9F80010E184B9F802102185B9F80400D0
:102CC0006085BAF8001000E008E06186BAF80200FA
:102CD000A086BBF80010491EABF8001077480188A9
:102CE000012914D105803968322091FBF0F1E1848B
:102CF000796891FBF0F12185B96891FBF0F1B8F8A2
:102D00000800081A60856586A586FDF75FFF308894
:102D1000E18C401A30807088218D401A7080B08814
:102D2000618D401AB080BDE8F09F10B5584C5F48E7
:102D300061688847A1685D488847BDE8104033E76F
:102D400010B55F48584C0068E168884230D3E060B5
:102D5000607870B3012836D002283BD0032827D1F1
:102D600001F09FF82061608901F06AF8206901F0A4
:102D7000BDF804F0E9FE534904F021FD04F073FFAF
:102D80004FF00052504B05F06BFD00224F4B04F00A
:102D9000F9FD00224E4B04F0F8FD04F02EFF4D49E2
:102DA000086000206070E06841F288310844E0600B
:102DB00010BDFFE701F05EF8607841F2F811401CA9
:102DC0006070E068F2E701F023F860816078401CF1
:102DD0006070EDE701F0D3F8607843F2B061401C19
:102DE0006070E068E2E72DE9F0472F4F3A4E3B4C28
:102DF000F88848B3DFF898800025A9464FF4C87AD0
:102E0000A8F10C08F988514501D148F8259058F8E7
:102E1000253034F915C00129634448F8253024F8D9
:102E2000159026F8159008D193FBFAF026F81500B6
:102E300001220F210A20FEF749FF6D1CEDB2032D80
:102E4000E0D3F888401EF880174D002015F12605C4
:102E500034F8101036F81020891A09B224F810102E
:102E600035F91020A2F54873994201DA1A4604E0B8
:102E700002F54872914200DC0A4624F8102025F839
:102E80001020401CC0B20328E2D3BDE8F087000048
:102E9000FC040020400300203333534000F07F4502
:102EA000BC0100203E010020D4010020E4000020ED
:102EB0002C010020BA0100202E010020300100204A
:102EC0004801002080E6C547965BC83F0000F03F00
:102ED0001AE95041C0000020F6000020DE0000206A
:102EE00010B5744C744861688847A1687248884777
:102EF000BDE8104077E710B5704801F09EF86F48C4
:102F00006F4982880A80028852424A804088404243
:102F100088804DE770B501F066F8642001F05DFE31
:102F2000FFF7E9FF0A2001F058FE654CB4F90000F4
:102F3000002800DC404204F007FE624E01463046A5
:102F400004F03DFC5D4D14352860B4F90200002802
:102F500000DC404204F0F8FD0146304604F02FFC4E
:102F60006860B4F90400002800DC404204F0ECFD85
:102F70000146554804F023FCA86001F04CF84F4985
:102F800001202C39887070BD2DE9F0474B4C4F481B
:102F90002C3C0068A169884274D34D490844A06163
:102FA000FFF7A9FF464DB5F9000004F0CDFD04F18F
:102FB0004006316804F0CDFB04F0F2FD00B2288039
:102FC0008046B5F9020004F0BFFD716804F0C1FB52
:102FD00004F0E6FD00B268808146B5F9040004F013
:102FE000B3FDB16804F0B5FB04F0DAFD0FFA80FC24
:102FF000A5F804C0207804F1320200273549961D57
:10300000012811D1A069E0615FF0000001EB4003ED
:103010009F8535F8103022F8103026F81030401C0B
:10302000C0B20328F2D32770A07858B18B8DA8EBDB
:1030300003002880CB8DA9EB03006880088EACEBE1
:103040000000A880E06900281CD0A369181A224B50
:10305000984218D22148016881F0080101600020DF
:1030600035F9101032F91030994201DA22F81010B7
:1030700036F91030994201DD26F81010401CC0B21C
:103080000328EDD301E70020C4F81C7032F910309A
:1030900036F91040234401EB400403EBD3735B107B
:1030A000401CC0B2A3850328F0D3BDE8F047FDF76C
:1030B0008DBD000008050020DE0000200002002079
:1030C000F0000020000091440000874448010020E7
:1030D000A08601004003002080C3C9010C0C014000
:1030E00010B50446C0B201F04AFFC4F30720BDE8A2
:1030F000104001F044BF01F042BF01F08BBE2DE94A
:10310000F05FFE48007800287ED101F00DFF002816
:103110007BD001F01FFFDFF8E8B3FA4FDFF8E89348
:10312000DFF8E8A3FA4DFB4EDFF8EC834F286DD0B3
:103130006DDC232868D045286AD04D2865D101F080
:103140001EFF142001F01BFF5FF0000439F914008A
:10315000FFF7C6FF641CE4B2032CF7D30024D1466A
:1031600039F91400FFF7BCFF641CE4B2032CF7D359
:10317000DFF8A893002400BF39F91400FFF7B0FF6F
:10318000641CE4B2032CF7D3DBF800104FF00A09FB
:1031900091FBF9F000B2FFF7A3FFB7F90000FFF7CA
:1031A0009FFFDF4F002400BF37F91400FFF798FF9F
:1031B000641CE4B2082CF7D35FF0000436F9140065
:1031C000FFF78EFF641CE4B2082CF7D300244646B8
:1031D00036F91400FFF784FF641CE4B2082CF7D31F
:1031E0000120FDF7C3FD44000220FDF7BFFD44EAC6
:1031F00080040420FDF7BAFD44EAC0041020FDF766
:10320000B5FD44EA001004E0E0E022E1E2E09FE0E6
:10321000D2E101F0B4FEC3480178C348007841EA26
:103220004001C248007841EA8001C148007841EA83
:10323000C001C048007841EA0011BF48007841EA67
:103240004010C0B201F09BFEBC48008800B2FFF7FE
:1032500047FF01F020F900B2FFF742FF5FF00004E2
:1032600035F91400FFF73CFF641CE4B2022CF7D3DD
:10327000B34C607801F083FE00256619307A01F0C6
:103280007EFE307C01F07BFE307E01F078FE6D1C0E
:10329000EDB2082DF1D314F8200F01F070FE607824
:1032A00001F06DFEA07801F06AFEE07801F067FEA3
:1032B0002079A4F1200401F062FEA24E00256719D6
:1032C00017F8400F01F05BFEF87A715D40EAC1101B
:1032D000C0B201F054FE6D1CEDB20B2DEFD39A4835
:1032E000008800B2FFF7FCFE98480088B43000B2B6
:1032F000FFF7F6FE9648007801F041FE9548007809
:1033000001F03DFE9448007801F039FE0020FFF7FF
:10331000E7FE0020FFF7E4FE9048007801F02FFE62
:103320008F48016891FBF9F000B2FFF7D9FE8D4894
:10333000B0F90000FFF7D4FE8B48B0F90000FFF7AA
:10334000CFFE8A48B0F90000FFF7CAFE4D2024E105
:1033500052287CD053287BD057287AD10025784C2E
:1033600001F005FE6619307201F001FE307401F0C3
:10337000FEFD6D1CEDB23076082DF1D301F0F7FDA6
:1033800004F8200F01F0F3FD607001F0F0FDA07073
:1033900001F0EDFDE07001F0EAFD2071A4F12004E0
:1033A0004FF0000501F0E3FD661906F8400F01F04B
:1033B000DEFD6D1CEDB2F0720B2DF3D301F0D7FDE5
:1033C00001F0D5FDBDE8F05FFDF700BCBDE8F05FA2
:1033D000FDF70CBA4F2001F0D2FD002439F914009A
:1033E000FFF77EFE641CE4B2032CF7D30024D14621
:1033F00039F91400FFF774FE641CE4B2032CF7D310
:10340000DBF8000004F0A0FB594904F0A2F904F035
:10341000C7FB00B2FFF764FEB7F90000FFF760FEDC
:103420005FF0000435F91400FFF75AFE641CE4B2A3
:10343000022CF7D35FF0000436F91400FFF750FEBA
:10344000641CE4B2062CF7D30024454602E0A8E051
:10345000ACE0AFE035F91400FFF742FE641CE4B2C3
:10346000062CF3D30120FDF781FC44000220FDF778
:103470007DFC44EA80040420FDF778FC44EAC004A3
:103480001020FDF773FC44EA001001F078FD254898
:1034900001782548007841EA40012448007841EA53
:1034A00080012348007841EAC0012248007841EABF
:1034B00000112148007841EA4010C0B201F05FFDE0
:1034C0002648007801F05BFD142001F058FD2148EA
:1034D000007801F054FD1E48007801F050FD254CA5
:1034E000206800B2FFF7FCFD20680014FFF7F8FD2C
:1034F000214C206800B2FFF7F3FD3FE024020020DA
:10350000C400002020020020EA000020CC0000209F
:10351000A60000204C040020A6010020F00000209E
:10352000040100201B0100201D0100201C010020BF
:10353000150100201601002019010020260100209D
:1035400040030020CA040020360100202A01002088
:10355000CD010020CC010020B80100202501002071
:10356000C0000020BE010020C0010020C2010020D8
:10357000000020416C010020700100202068001430
:10358000FFF7AEFD0E48008800B2FFF7A9FD0D4819
:10359000008800B2FFF7A4FD4F20BDE8F05F01F006
:1035A000EEBCBDE8F05F012001F0E4BB06494FF43A
:1035B000C8700880BDE8F09F044901200870F9E751
:1035C000CE010020D0010020D8010020D40100202D
:1035D0002DE9F0470546DDE908890E461F46501BD8
:1035E00004F0B2FA0446284604F0BCFAD34AD44B9D
:1035F00004F0CBF904F04DFB05F072F80546B81B5A
:1036000004F0A2FA294604F0A4F80546014604F0A5
:10361000A0F806462146084604F09BF8314604F01F
:1036200040F805F039FF04F01EFBC64AC64B04F013
:10363000ACF904F001FBA8F800002146284604F08C
:1036400025FF04F010FBC14AC14B04F09EF904F0C1
:10365000D4FAA9F80000BDE8F08770B50346002051
:103660000246054615E02E2C05D1521CD2B2002987
:1036700012D054181D5500EB80009C5C4004000CD7
:10368000A4F13006092E02D83038204480B2521CF2
:10369000D2B29C5C002CE6D170BD70B501780246B8
:1036A0004FF47A74002311B111460A2610E000206D
:1036B00070BD824207D0303DEDB205FB0433B4FB50
:1036C000F6F40D709BB2EDB22E2D00D10A46491CC6
:1036D0000D78002DEDD1541E12F8025D247805EB13
:1036E0008505303C04EB4504A4F5F07442F21071FA
:1036F000A4B201FB04330624B3FBF4F30AE000BFD9
:1037000001EB810112F8014D4900303CE4B204FBA9
:10371000013314708242F3D1184670BD2DE9F04791
:1037200000268C4C0546242817D02046DFF8288236
:1037300040782C2D15D02A2D13D021460D2DC97877
:1037400074D00A2D72D00F2803D208F80050401C04
:10375000607000296BD000207DE726706670A6702F
:10376000F9E708F8006020784FF0010928B12179C5
:10377000012928D0022961D06DE0267198F8000057
:10378000472868D198F80100502864D198F80200C1
:10379000472802D052280BD05DE098F80300472854
:1037A00059D198F80400412855D184F8049052E08A
:1037B00098F803004D284ED198F8040043284AD1C8
:1037C0000220207147E0654F022814D003280BD057
:1037D000634F04280FD0052811D0062816D00728DB
:1037E0001DD0092824D036E098F8000053280AD0CC
:1037F00031E038602FE05848FFF74FFFF9E798F8BD
:103800000000572827D138684042F2E798F80000B6
:10381000302801D9012000E00020524904E00021B5
:103820004D48FFF71AFF5049087014E020E018E0F7
:1038300000214948FFF711FF4C490BE007280AD146
:1038400001214548FFF709FF494948434949B0FB71
:10385000F1F0494908802078401C207066702A2DBC
:1038600003D0A0786840A07075E784F8039072E7F1
:103870000029F9D098F8000000F057F8050198F8F1
:10388000010000F052F82844A178C0B28842E670E6
:10389000EAD120790128E7D1DDE67CB5C0B2FFF797
:1038A0003DFF00282CD0354801220178012910D095
:1038B00002702C480078012822D12B480078032878
:1038C0001ED92F4B25482F4C1E7825492E4D1EB151
:1038D00007E000210170ECE71A70026822600A68B4
:1038E0002A602A4A1278012A0BD0294B294ACDE9AD
:1038F00000230B6802682968D4F80000FFF768FE0F
:103900007CBD254B254ACDE90023026824480B687D
:10391000016824480068F1E710B5234901F046FB2F
:10392000BDE810401020FDF729BA3038C0B2092890
:1039300001D9C01FC0B200F00F007047A92E72D885
:10394000E76C873EFC639ED1D3CBF13FF8C1631A8D
:10395000DCA54C4025020020140500206C0100204D
:1039600070010020CC010020CD010020CE010020FC
:103970008CD90700A0860100D0010020B8010020EA
:103980001E010020C4010020C801002016010020F3
:103990002A010020360100203A01002038010020D1
:1039A00078010020740100209B38000870B5354C68
:1039B00001260546667001F0E5F8A168411AC4E9E0
:1039C000020141F28830814201D90020A0702E49C5
:1039D000A0780D540F2802D0401CA07070BD267036
:1039E00070BD2A48032190F86320264812B1C170A7
:1039F000072101E00222C270017125494FF4E13034
:103A000001F0D4BA1F4800787047F0B51D4A1E4B2C
:103A100011781C3BE1B11679D578DFF86CE0032111
:103A20000EEB010717F8014CEC4004F00F04072CD3
:103A300008D21EF801C017F8017C37400CEB0727AD
:103A400043F82470891CC9B21029E9D300211170F0
:103A50000E4907280FD252786AB10C4A91F86310C8
:103A6000104490F8590053F8200039B14FF47771A1
:103A700001EB500004E0B1F86400F0BD00F5777090
:103A800080B2F0BD2C020020400500204003002041
:103A9000AD39000870B52B4E90B0304601F0AAFE4B
:103AA00029480090294801A90024012531C1280294
:103AB0000494CDE905408000079020200890000282
:103AC000CDE909046946304601F001FF0121304685
:103AD00001F027FF8DF830400B948DF831504FF4F2
:103AE0006020CDE90D04184C8DF83C504C3C0BA9DE
:103AF000204601F009FD032301220421204601F0A4
:103B000083FD0121204601F031FD0121204601F015
:103B100023FD204601F03DFD204601F03FFD002839
:103B2000FAD1204601F041FD204601F043FD002876
:103B3000FAD10121204601F044FD10B070BD0348C8
:103B400000887047080002404C2401403C020020DD
:103B500070472DE9FC47DFF84491054699F80000CD
:103B6000C0B300263746B0463446641CE4B26B4608
:103B700008223221532000F055FC9DF800009DF8EA
:103B80000110202C00EB012000B206449DF8020039
:103B90009DF8031000EB012000B207449DF80400DB
:103BA0009DF8051000EB012001B29DF80700884444
:103BB00000F07F0001D20028D7D196FBF4F02880D6
:103BC00097FBF4F0688098FBF4F0A88089F8014036
:103BD000BDE8FC87FFE76B4606223221532000F048
:103BE00021FC9DF800009DF8011000EB01202880C9
:103BF0009DF802009DF8031000EB012068809DF8FD
:103C000004009DF8051000EB0120A880E0E72348A0
:103C100010B500784FF0080200284FF02D014FF04A
:103C200053000ED000F0F8FB0A223121532000F09F
:103C3000F3FB0C222C21532000F0EEFB90223821C4
:103C400008E000F0E9FB0A223121532000F0E4FBF8
:103C50000A222C21BDE81040532000F0DDBB38B50E
:103C6000054600200C468DF8000001466B460122F7
:103C7000532000F0D7FB18B19DF80000E52801D0D3
:103C8000002038BD0549287808700548206005489F
:103C900060600548A060012038BD00003E020020A1
:103CA0000F3C0008533B0008513B000810B54FF48F
:103CB0008044204601F0E0FE012805D1204601F0B5
:103CC000E9FEBC490120087010BD10B5B94C86B0A2
:103CD0006B4660681622AA21807E00F0A3FBBDF827
:103CE000000041BA60680180BDF8021049BA418005
:103CF000BDF8041049BA8180BDF8061049BAC180E8
:103D0000BDF8081049BA0181BDF80A1049BA4181CD
:103D1000BDF80C1049BA8181BDF80E1049BAC181B5
:103D2000BDF8101049BA0182BDF8121049BA41829B
:103D3000BDF8141049BA818206B010BDF0B59D4C93
:103D400085B0607810B1012005B0F0BD4FF400558A
:103D5000ADF80C5003208DF80E001020964F8DF812
:103D60000F0003A9384603F0A6F86E00ADF80C600A
:103D700004208DF80F0003A9384603F09CF83D613C
:103D80000E21022003F04EF9019600268DF80860FE
:103D900008208DF8090001258DF80A5001A801F0CE
:103DA0001BFE28208DF810000F208DF811008DF8D3
:103DB00012008DF8135004A801F037FB0C2000F01E
:103DC0000CFF616877206B46CE7688760122D02181
:103DD00000F028FB60689DF800100222C175028483
:103DE000552901D00020AFE75521C176807E6B4672
:103DF0000122D12100F016FB9DF80000616800F05F
:103E00000F0200090A764876FFF75FFF65709AE7B0
:103E1000684808B542F21071027800E000BF22B98C
:103E20000B00A1F1010189B2F8D140686B46022272
:103E3000807EF62100F0F6FABDF8000040BA08BD19
:103E40005C494968CA7E552A01D0C8690EE04A8992
:103E5000B1F91430801A0A895043C013B1F9122005
:103E60000344D20292FBF3F21044C86108300011FF
:103E700000B270474F4800212E2201704068F421A3
:103E8000807E00F0C9BA10B54A4C00202070FFF7C0
:103E9000F1FF20780028FDD0FFF7BAFFBDE8104001
:103EA000CEE738B5434C42F21070217800E000BFF5
:103EB00021B90200A0F1010080B2F8D160686B4620
:103EC0000322807EF62100F0ADFA9DF800009DF8F7
:103ED0000110000440EA01209DF8021008436168C7
:103EE000B1F92010C1F10801C84038BD70B53149A1
:103EF0004A68D169B2F90E40A1F57A6101FB01F37C
:103F00001D136C43E512B2F90240B2F904604C4350
:103F100005EBE424B2F9005004EB8505148CA540B0
:103F20004E437113B2F90C601B135E4301EB264143
:103F3000891C8910D288AD1C01F500414A43D10B80
:103F40004CF25032A0EBA500E2405043B0F1004FDC
:103F500003D24000B0FBF1F002E0B0FBF1F0400012
:103F60000112494340F6DE325143144A09144243D8
:103F700001EB224101F6CF6100EB211070BD0D482D
:103F8000342341680A8C03EB821200230370887E7D
:103F9000D2B2F42100F040BA10B5064C00202070D7
:103FA000FFF7EDFF20780028FDD0FFF77AFFBDE88E
:103FB00010409BE7400200200010014043E3FFFF58
:103FC00008B500208DF800006B4601220A211E2052
:103FD00000F028FA18B19DF80000482801D0002010
:103FE00008BD012008BD10B5642000F0F6FD712267
:103FF00000211E2000F010FA322000F0EEFD6022B9
:1040000001211E2000F008FA01220221BDE8104023
:104010001E2000F001BA10B5702200211E2000F011
:10402000FBF9202201211E2000F0F6F900220221D6
:10403000BDE810401E2000F0EFB91CB504466B46E9
:10404000062203211E2000F0EDF9BDF8000040BA61
:104050002080BDF8020040BA6080BDF8040040BA7C
:10406000A0801CBD30B587B005464FF44060ADF868
:10407000140003208DF816001C208DF8170005A9E8
:10408000FC4802F018FFFC4CE56000F007FAE0681D
:1040900001F008FD684601F070FD00224FF4407108
:1040A000E06801F0D0FD0025ADF804504BF6FF703C
:1040B000ADF806004FF48040ADF80C00EF480090DA
:1040C0000121E06801F067FD6946E06801F0FDFC50
:1040D0004FF4A06001F0A4F922208DF810008DF8B3
:1040E00011508DF8125001208DF8130004A801F032
:1040F0009CF921208DF810008DF8115004A801F0D2
:1041000094F907B030BD70B5DB4CE068858A15F4D2
:10411000E06F24D0018B00224FF4806101F093FD09
:10412000A8051CD4E0680188890518D40188C90550
:104130000CD50188C905FCD4012101F054FDE068CB
:1041400001888905FCD4FFF78DFF08E0012101F00B
:104150004AFD00224FF44071E06801F074FDE06810
:10416000818A21F4706181820020E07070BDCAE70D
:104170002DE9F041C04CE068818A4FF00105C9B2D9
:10418000CA074FF0000627D0018821F400610180A2
:10419000012101F032FDA670207A20B1207860B9AB
:1041A0006079FF2809D021790022E06801F058FDEC
:1041B0006079FF280FD0FF20B8E02570A079022891
:1041C00004D1E068018841F4006101802179012275
:1041D000E06801F045FDC9E08A074FF4806734D5F7
:1041E000BFF3508FA079012810D1207A70B12078C8
:1041F00060B10021E06801F000FDBFF3508FE0687E
:10420000018B012101F0EFFC65701CE0E068008B80
:10421000BFF3508FA07902280DD1207A58B12078B1
:1042200048B10021E06801F0E8FC93E03946E0681D
:1042300001F009FD9AE0A079032804D1207A10B199
:104240002078002874D10122F0E74A0753D5657021
:10425000227A89490978CAB3C9B3A17902291FD939
:10426000002101F0CAFCE06801F0F7FC94F902209B
:1042700063699854521CA2700121E06801F0B3FCFC
:104280006570E06801F0E9FC94F90210626950542D
:10429000491CA17001223946E06801F0D4FC25E0F8
:1042A000012101F0A0FCE06801F0D7FC94F90210B4
:1042B00062695054491CA170E06801F0CEFC94F989
:1042C000021062695054891CA1700FE000E000E008
:1042D00009B9E17931B1012101F085FCA078401CD8
:1042E000A07003E0012101F074FC2570E0680188F2
:1042F000C905FCD43AE04A061BD501F0AEFC94F99E
:10430000021062695054491C48B2A070A179C01CC7
:10431000814204D100223946E06801F094FCA17981
:1043200094F90200814221D100F10100A0701DE04A
:1043300010E009061AD594F90220511C4BB20BD09B
:104340002569A95CA37001F086FCA07994F902109C
:1043500088420BD1002269E7A370617901F07BFCF0
:10436000207A0028F6D1A0790028F3D094F9021021
:10437000A079401C814209D12670607828B10022C2
:104380004FF44071E06801F05EFCE670BDE8F0813A
:10439000EEE6B8E6ECE67FB5374C400047F2305524
:1043A000207161710120E07100212172C4F810D0E8
:1043B000C4F814D06946A271E070102A02D9002016
:1043C00004B070BD002003E01E5C0E54401CC0B25F
:1043D0009042F9D3E068818889050ED40188C90527
:1043E00005D401888905FCD4012101F0F2FB0122EA
:1043F0004FF44071E06801F026FCE07810B16D1ECA
:10440000FBD102E00DB10120DAE76089401C608138
:10441000E068FFF727FED2E707B502AB0122FFF7FE
:10442000BAFF0EBD70B5144C4FEA400047F230554C
:10443000207161710020E0710120207263612361AD
:10444000A271E070E068818889050ED40188C905F1
:1044500005D401888905FCD4012101F0BAFB0122B1
:104460004FF44071E06801F0EEFBE07840B16D1E62
:10447000FBD108E0000C014048020020801A060031
:104480000DB1012070BD6089401C6081E068FFF7BC
:10449000E9FD002070BD2F48408970472DE9F843A1
:1044A0004FF44067ADF800704FF003088DF80280BC
:1044B0001420294C8DF803006946204602F0FBFCCD
:1044C0003946204602F064FD0025261502E00A2048
:1044D00000F06DFB3146204602F046FD0028F6D084
:1044E0003146204602F056FD0A2000F060FB3146BE
:1044F000204602F04DFD0A2000F059FB6D1CEDB284
:10450000082DE7D34FF400652946204602F042FD0E
:104510000A2000F04CFB3146204602F03BFD0A2009
:1045200000F045FB3146204602F032FD0A2000F043
:104530003EFB2946204602F02BFDADF800708DF8B9
:1045400002801C208DF803006946204602F0B3FC6F
:10455000BDE8F88348020020000C0140B0F90010CB
:10456000CA1701EB927189100180B0F90210CA17C5
:1045700001EB927189104180B0F904104942CA17C9
:1045800001EB92718910818070471CB504466B461F
:1045900006221D216820FFF745FFBDF8000040BA44
:1045A0002080BDF8020040BA6080BDF8040040BA27
:1045B000A0801CBD10B5192000F00FFB00221521B2
:1045C0006820FFF729FF10B9032000F0B0FB28484E
:1045D0001621007840F018026820FFF71DFF002226
:1045E00017216820FFF718FF01223D216820FFF7FF
:1045F00013FF01223E21BDE810406820FFF70CBFE9
:1046000010B50446192000F0E8FA002215216820B0
:10461000FFF702FF002806D01648206016486060A9
:104620001648A060012010BD1149622817D006DC91
:104630000A281AD0142816D02A2809D111E0BC283B
:1046400004D0B0F5807F03D1002000E00120087085
:104650000878162140F018026820FFF7DDBE02201E
:10466000F5E70320F3E70420F1E70520EFE700007A
:1046700060020020B54500088B4500085D45000834
:104680002DE9F84F4FF0000BDFF82CA4DFF82C9445
:1046900080465E460AEBC60009EBC605D0E9004736
:1046A0004046444548D1390C009102F006FA0128F1
:1046B00042D12046009902F00BFA1EB9FE490120B2
:1046C000083988703F043F0C06D0042F08D0082F0B
:1046D00014D00C2F08D115E0204602F0D7F902E0E3
:1046E000204602F0D5F98346287878B1A5F804B0C1
:1046F0006888594683450FD9081A11E0204602F010
:10470000C9F9F0E7204602F0C7F9ECE70120A5F867
:1047100002B02870022106E04FF6FF72101A08441A
:10472000E88000212970E54840304180E349078056
:104730002046403101F0DCFE761CF6B2082EA9D3EB
:10474000BDE8F88FDC48083801784FF0804009B1A7
:1047500000F0D6B994E7DA4892E72DE9F04F87B038
:104760004FF000040200DFF85093D44DD548049474
:10477000009401940294A9F108094FF001064FF04A
:1047800028014FF003074FF01C084FF0470A4FF67F
:10479000FF7B05F14005039435D0ADF810608DF82E
:1047A00013108DF8127004A902F085FB8DF80C80AF
:1047B0008DF80D408DF80E608DF80F6003A800F0A5
:1047C00034FE684601F05CFFADF800A0B707ADF815
:1047D00004B0ADF802406946384601F0E1FC6C8057
:1047E000AE80EC802C812C802946384601F080FE7A
:1047F00001220221384601F07CFF0121384601F0F8
:1048000063FF0A215EE0CF22ADF810208DF813106F
:104810008DF8127004A902F04EFBADF8107004A9D7
:10482000A94802F048FB8DF80C808DF80D408DF8FA
:104830000E608DF80F6003A800F0F7FD1D208DF8C5
:104840000C0003A800F0F1FD684601F019FFADF877
:1048500000A04FF08047ADF804B0ADF802406946C3
:10486000384601F09DFCDFF858826946404601F069
:1048700097FC6C80AE80EC802C818F4E002400BFB2
:1048800006EBC4008D498088288056F834004031FA
:1048900001F02EFE641CE4B2082CF1D301221E218B
:1048A000384601F026FF01221E214446404601F011
:1048B00020FF0121384601F007FF0121204601F0C9
:1048C00003FF062189F8011007B0BDE8F08F2DE93C
:1048D000F04F8BB000250795044602954FF0010874
:1048E000ADF81C8048208DF81F00059506950395AE
:1048F000032604950095019508958DF81E6007A97B
:10490000704802F0D8FA6C48617808386B4B017037
:10491000002040F2DC5200BF03EBC007401CC0B2D5
:10492000FA800828F8D3207810B10846FFF715FF61
:104930004FF41060ADF81C004FF0180B8DF81FB04D
:104940008DF81E6007A95F4802F0B5FA4FF4707049
:10495000ADF81C0007A95C4802F0ADFA04A801F00C
:104960008FFE4720ADF81000A078584F80B1E08846
:1049700004A9B7FBF0F0401EADF81400544801F054
:104980000FFCA088B7FBF0F0401EADF8140009E062
:10499000A08804A9B7FBF0F0401EADF814004C4805
:1049A00001F0FEFB04A94B4801F0FAFB7020ADF8C2
:1049B0000000ADF804504FF47A70ADF806004FF0E7
:1049C000020A4FF48079ADF80280ADF808A0ADF886
:1049D0000C9069463E4801F01CFC69463C4801F0D9
:1049E000BFFC69463B4801F014FC6946394801F0B8
:1049F00045FC6946374801F07BFC6946354801F0C3
:104A0000AFFC0121324801F05FFE0121314801F085
:104A10005BFE01212E4801F061FE01212D4801F0CD
:104A20005DFE207808B16078E8B3C020ADF81C00C6
:104A30008DF81FB08DF81E6007A9224802F03BFADE
:104A4000ADF81C6007A9204802F035FAA0881C4C7C
:104A5000B7FBF0F0401EADF8140004A9204601F0A9
:104A60009FFB7020ADF80000ADF804504FF47A7051
:104A7000ADF80600ADF80280ADF808A0ADF80C90D6
:104A80006946204601F0C5FB6946204601F0F6FB69
:104A90006946204601F02CFC6946204601F060FC86
:104AA0000121204600E005E001F00EFE0121204634
:104AB00001F014FE08980FE06C0200207805002039
:104AC0000004004000080140000C014040420F007B
:104AD000002C0140000800400BB0F6E6234A527853
:104AE000904204D2214A483252F820000180704797
:104AF0001F4901EBC000C08870471C4840787047D0
:104B000070B50546022101F0D8FF184C012807D1E5
:104B1000A088E080284601F0B9FFA0800120A070A5
:104B20000221284601F0D4FFA088E188884201D9FB
:104B3000401A03E04FF6FF72511A084480B2B0F5F4
:104B40007A6F01D900200EE0A0F2EF2140F2DB5293
:104B5000914206D2E178082903D2054A02EBC1014D
:104B6000C880E078401CE07070BD00006402002046
:104B70007805002084484168844881604168491C68
:104B80004160704772B680484368804881684268D7
:104B900062B6591A0068B1FBF0F002EB4201C1EBBA
:104BA000C21100EBC100704778484068704770B58B
:104BB000754C00236168754D6268511A0B441146AB
:104BC0002A68B3FBF2F2824206D2801A2A68B3FB4B
:104BD000F2F602FB1633EFE770BD30B504464FF432
:104BE0007A7502E02846FFF7E2FF641EFAD230BD74
:104BF0002DE9F0418CB01822654901A802F0DFFCD4
:104C0000032701211D2001F0E0F90121C80201F074
:104C1000DCF90121084601F0E1F90121022001F04F
:104C2000DDF90121042001F0D9F90121480201F048
:104C3000CCF90121880301F0C8F90121880501F0B0
:104C4000CDF90121084601F0B7F90121022001F058
:104C5000B3F901F0E8F94FF6FF70ADF80000002657
:104C60008DF8036069464B4802F025F969464A48C9
:104C700002F021F96946494802F01DF9012148482E
:104C800002F0A7F9002401AD4FF0030805EBC400C2
:104C90008188ADF800108DF8028080798DF80300CE
:104CA00055F83400694602F006F9641CE4B2BC42CF
:104CB000ECD33948082110300160102101603549DA
:104CC00080141031086007A801F031F935490798C0
:104CD000B0FBF1F02D4908603348016841F0807164
:104CE00001602948016841F0010101602F484FF43B
:104CF0007A710068B0FBF1F0B0F1807F0CD220F047
:104D00007F414FF0E020491E4161274AF021D93A06
:104D10001170866107210161FEF7BCFE2448FFF790
:104D2000A1F96420FFF759FF0CB0BDE8F0811A4AE1
:104D30001021143211600821121F1160044640F244
:104D4000DB10144F151F44434E021437A7F1040C17
:104D5000286880F010002860286880F0080028602B
:104D6000A01EFFF73AFF3E601920FFF736FFCCF890
:104D70000060EDE710B110490E4808600A490F487D
:104D8000F039086070470000001000E0D4020020F5
:104D9000B898000800080140000C014000100140D4
:104DA0000002300040420F00FCED00E0F402002061
:104DB00000580040EFBEADDEF04F00200400FA05C1
:104DC000A548A44A41685318A44A136583688B42D6
:104DD00003D9591A9164436004E0C1F5807191646C
:104DE000002141609D480121443000F09ABD10B57A
:104DF0004FF4005000F0D3FD98480021443000F0FB
:104E000090FD9548001D03C8814202D0BDE81040C6
:104E1000D6E710BD2DE9F04192B004464FF4007082
:104E2000ADF83C0003208DF83E0018208C4D8DF825
:104E30003F000FA9284602F03EF82815ADF83C00C7
:104E400048208DF83F000FA9284602F034F80E20C4
:104E50008DF8400001218DF841108DF842108DF839
:104E6000431010A800F0E1FA0B940024ADF8344090
:104E70000C20DFF8F081ADF83040ADF83600ADF829
:104E80003240ADF838400BA9404601F055FE734F53
:104E90005837384600F0AEFCA81408F10405009518
:104EA000CDE909047048CDE9010480260494CDE9D8
:104EB0000564A81503902020CDE9074069463846CF
:104EC00000F005FD0121384600F02BFD01224021B4
:104ED000404601F0CBFE384600F038FD5E495F4F9A
:104EE00044370860384600F085FC10200290009599
:104EF0000494CDE90564079469463846089400F0A7
:104F0000E6FC01220221384600F016FD5348846475
:104F100001228021404601F0A9FE0121404601F016
:104F200083FE12B0BDE8F0814C4810B5583000F057
:104F30000DFD49490968884201D0012010BD0020BB
:104F400010BD4548D0E90110814201D101207047D0
:104F5000002070474049444B0A68C2F58070185CD5
:104F6000521E0A6002D14FF480720A60704710B579
:104F7000FFF7DAFF0028FBD0BDE81040EAE7364A29
:104F8000344B91685854491CC8B290603348406C07
:104F9000C00700D114E7704710B5044602E0641C56
:104FA000FFF7EDFF20780028F9D110BD70B50D4650
:104FB0000646012186B0480401F010F826208DF83D
:104FC000100001208DF8110002218DF812108DF8CB
:104FD000130004A800F029FA0820ADF814000424F6
:104FE0008DF8174005A91E4801F065FF0020ADF8B7
:104FF0000800ADF80A40ADF804001C4CADF80600FE
:10500000ADF80C0000966946204601F095FD01229E
:1050100040F22551204601F011FE0121204601F009
:1050200003FE0D48C56006B070BD70B50F4D40F26F
:105030002551284601F0B9FE01280AD1064CE06846
:10504000002806D0284601F049FEE168BDE870401E
:10505000084770BDC2060020E002002000000240A8
:105060000008014000380140C20500200044004013
:1050700010B56522FF216D20FFF7CEF9002800D082
:10508000012010BDFEB5384C0125207878B10128EB
:1050900022D002281FD164208DF8000033488DF8FB
:1050A000015000260078A0B38DF8025043E07A202A
:1050B0008DF800002E486B460222B0F90000FF2157
:1050C000C0F1B40000EBD07040108DF801006D20ED
:1050D000FFF761F92570FEBD264979208DF80000A3
:1050E000B1F900000A2290FBF2F010F15A0301D549
:1050F000002003E05A30B42800DDB4208DF8010010
:10510000B1F9020090FBF2F010F15A0102D5002033
:1051100004E00EE05A30B42800DDB4208DF802001F
:105120006B460322FF216D20FFF735F90220207026
:10513000FEBD8DF802606B460322FF216D20FFF754
:105140002AF92670FEBD08B56B208DF800000A20F4
:105150008DF801008DF802006B460322FF216D20BF
:10516000FFF719F908BD0000F00200201901002026
:1051700020020020A6000020B0F90010CA1701EBA1
:10518000927189100180B0F90210CA1701EB927177
:1051900089104180B0F904104942CA1701EB92719D
:1051A0008910818070471CB504466B460622432156
:1051B0006820FFF737F9BDF8000040BA2080BDF83D
:1051C000020040BA6080BDF8040040BAA0801CBD57
:1051D00010B580226B216820FFF71EF90520FFF72C
:1051E000FCFC002219216820FFF716F900221A2181
:1051F0006820FFF711F903226B216820FFF70CF9F3
:1052000018221B21BDE810406820FFF705B9B0F94E
:105210000210B0F90020CB1701EB5371C9100180C7
:105220005142CA1701EB5271C9104180B0F9041004
:10523000CA1701EB5271C910818070471CB5044632
:105240006B4606223B216820FFF7ECF8BDF8000012
:1052500040BA2080BDF8020040BA6080BDF804006A
:1052600040BAA0801CBD10B510221C216820FFF799
:10527000D3F814494FF40070088010BD38B50446C7
:105280000D462320FFF7A9FC6B46012275216820FB
:10529000FFF7C8F8002804D09DF80000682801D066
:1052A000002038BD08482060084860600848A060B9
:1052B00008482860084868600848A860012038BD90
:1052C00070477047DC010020675200083D5200081B
:1052D0000F520008D1510008A75100087951000869
:1052E000474810B5016841F0010101604168454A35
:1052F000114041600168444A11400160016821F495
:1053000080210160416821F4FE0141604FF41F01DA
:10531000816000F030F83D494FF00060086010BD3A
:10532000374A10B550683A4910F00C03394803D099
:10533000042B01D0082B0BD001605168354AC1F312
:105340000311121D515C026822FA01F2026010BDC5
:105350005168536801F470114FF0020413F4803F58
:1053600004EB914102D053689B0301D52A4B00E026
:10537000274B5943E0E722480021026842F480327B
:1053800002604FF4A063026801F1010112F4003FD2
:1053900001D19942F7D10168890330D51F490A68C4
:1053A00042F010020A600A6822F003020A600A68EA
:1053B00042F002020A604168416041684160416810
:1053C00041F480614160416821F47C114160416891
:1053D00041F4E8114160016841F0807101600168A9
:1053E0008901FCD5416821F003014160416841F029
:1053F000020141604168C1F381010229FAD170477D
:10540000001002400000FFF8FFFFF6FE08ED00E08C
:1054100000127A00F402002000093D000020024042
:105420002749084327490860704770B50F21C478A1
:10543000027801234FF0E026DCB1224C246804F40A
:10544000E064C4F5E064250AC5F10404E940457848
:10545000A54084780C402C4321011B4C1155007849
:1054600000F01F018B40400906EB8000C0F80031BE
:1054700070BD02F01F008340500906EB8000C0F8A9
:10548000803170BD114A114001430E48001F016078
:1054900070470C4A121D0029116801D0014300E039
:1054A0008143116070474FF0E0210428086903D060
:1054B00020F004000861704740F00400FAE70000A3
:1054C0000000FA050CED00E000E400E080FFFF1FA3
:1054D000C24910B5884202D1012144150AE0C049F1
:1054E000884202D10121041504E0BE4988420AD154
:1054F0000121CC03204600F07AFD2046BDE8104093
:10550000002100F074BD10BD10B54268B64B0C7997
:105510001A400B6842EA0422134343608368B34A8B
:105520001340D1E9024222434C7943EA44031A432F
:105530008260C26A097C22F47002491EC9B242EA42
:105540000151C16210BD0021016001714171816092
:10555000C1600121017470470029816802D041F0C7
:10556000010101E021F0010181607047002981689B
:1055700002D041F4807101E021F4807181607047B4
:10558000002A4268C9B201D00A4300E08A4342605F
:105590007047816841F00801816070470146002032
:1055A0008968090700D501207047816841F004012E
:1055B00081607047014600208968490700D50120B5
:1055C00070470029816802D041F4A00101E021F474
:1055D000A00181607047014600208968490200D51A
:1055E000012070474268491E22F4604242EA41317C
:1055F000416070470029416802D041F4006101E038
:1056000021F400614160704770B5072509290AD966
:10561000C468A1F10A0606EB4606B540AC43B340A8
:105620001C43C46007E0046901EB4106B540AC438C
:10563000B3401C4304611F23072A09D2446B521E46
:1056400002EB820293409C4391400C43446370BD43
:105650000D2A09D2046BD21F02EB820293409C43B5
:1056600091400C43046370BDC46A0D3A02EB8202A0
:1056700093409C4391400C43C46270BD00298168F3
:1056800002D041F4801101E021F480118160704763
:10569000C06C80B2704751484C3000687047002998
:1056A000416802D041F4806101E021F480614160F1
:1056B00070470029416802D041F4805101E021F493
:1056C000805141607047826822F4E0420A43826060
:1056D00070470029816802D041F4004101E021F4C3
:1056E0000041816070470029816802D041F40211B5
:1056F00001E021F4021181607047014600208968B1
:10570000890200D50120704770B5072509290AD9FB
:10571000C468A1F10A0606EB4606B540AC43B340A7
:105720001C43C46007E0046901EB4106B540AC438B
:10573000B3401C430461836BC3F30154121B921CDE
:1057400002EB82041F22A2409343A1400B438363D8
:1057500070BD826B491E22F4401242EA01518163FE
:105760007047425070470844806A80B27047426870
:105770001F4B1A400A434260704741628262704781
:10578000426822F01F020A43426070471349083101
:105790000028086802D040F4000001E020F4000076
:1057A000086070470246002012680A4200D00120BB
:1057B0007047C9430160704710B5002244680B0A66
:1057C000C9B200680C40184201D004B10122104651
:1057D00010BD6FEA112101607047000000240140F4
:1057E00000280140003C0140FFFEF0FFFDF7F1FF03
:1057F000FFFD3FFF01684FF6FE721140016000217E
:10580000016041608160C1606A496A4A083990421A
:1058100003D1486840F00F0006E0664A1432904217
:1058200004D1486840F0F00048607047614A28326F
:10583000904203D1486840F47060F5E75D4A3C321D
:10584000904203D1486840F47040EDE7594A503225
:10585000904203D1486840F47020E5E7554A64322D
:10586000904203D1486840F47000DDE7514A783235
:10587000904203D1486840F07060D5E74E4A111F4E
:10588000904203D1086840F00F0006E04A4A143203
:10589000904204D1086840F0F00008607047464A22
:1058A0002832904203D1086840F47060F5E7424A1C
:1058B0003C32904203D1086840F47040EDE73E4A24
:1058C00050329042EAD1086840F47020E5E730B5E4
:1058D000036847F6F07293430C6A8A682243D1E961
:1058E00004452C4322438C692243CC6922434C6AF1
:1058F00022438C6A22431A430260CA6842600A68E3
:1059000082604968C16030BD0021016041608160F2
:10591000C160016141618161C16101624162816275
:1059200070470029016802D041F0010102E04FF602
:10593000FE72114001607047002A026801D00A43DC
:1059400000E08A430260704741607047406880B25F
:10595000704701460020CA0002D5174A083A01E004
:10596000144A083A12680A4200D001207047C10068
:1059700003D51149091F086070470E49083948606E
:10598000704701460020CA0002D50B4A083A01E0E0
:10599000084A083A12680A4200D001207047C10044
:1059A00003D50549091F0860704702490839486056
:1059B00070470000080002400804024037490020F8
:1059C0000860091D0860091D0860091D0860334949
:1059D000334814310860704730B530498379026824
:1059E00053B30B6893430B600A1D13680468A34309
:1059F000136002790A441368046823431360274A3A
:105A0000083213680468A3431360131D1C680568FB
:105A1000AC431C604479102C05D021440A6800680E
:105A200002430A6030BD116804682143116019689F
:105A300000680143196030BD007908440168914352
:105A4000016030BD0021016001710C224271817141
:105A50007047124910310A6802430A6070470146D4
:105A60000E4A0020143212680A4200D0012070470A
:105A70000A49143108607047084A0146002012683C
:105A8000064B0A4014331B680B4202D0002A00D098
:105A9000012070470149143108607047000401403B
:105AA000FFFF0F00C04910B588424FF0010101D13E
:105AB0004C0501E04FF48004204600F0A1FA204696
:105AC000BDE81040002100F09BBA70B50446808804
:105AD00086B00D4620F03F06684600F028FAB3492C
