:020000040800F2
:100000000050002011530108B1530108F93C0108C8
:10001000B1530108B1530108B153010800000000B9
:10002000000000000000000000000000B1530108C3
:10003000B153010800000000B15301081322010868
:10004000B1530108B1530108B1530108B15301087C
:10005000B1530108B153010815A8000811A8000800
:10006000B1530108B1530108B1530108B15301085C
:10007000B1530108B153010899B10008B153010807
:10008000BDE80008B1530108B1530108B15301089C
:10009000B1530108B1530108B15301080DA800087C
:1000A000B1530108C9C00008B1530108D9C0000804
:1000B000B9C00008A9C0000899C000087161000813
:1000C00075610008696100086D610008B15301089D
:1000D000B153010891B1000889B1000881B100084D
:1000E00021220108B1530108B153010800000000AA
:1000F0000000000000000000000000000000000000
:0C01000000000000000000005FF808F1A3
:100110002DE9F04F764B774EA3B033600023736028
:1001200010F082FC18B910F0A1FC08F023FE08F0D2
:10013000C3FE714A714C1378714D43F00103137083
:1001400000230A930B930C934FF4E0130D93236851
:10015000A87B43F480332360A36943F01003A361B9
:10016000236803F400330B930A9B01330A930B9B20
:100170001BB90A9BB3F5A06FF2D123685F4913F452
:10018000003301D0022315E00A6842F001020A6040
:100190000A93236803F002030B930A9B01330A932B
:1001A0000B9B1BB90A9BB3F5A06FF2D123689A078A
:1001B00039D501230C93534B53491A6842F010026E
:1001C0001A601A6822F003021A601A6842F00202EA
:1001D0001A606368636063686360636843F48063A4
:1001E00063604A4B1A68043B22F070425A60484AE6
:1001F0001160616821F47C116160596841F000412F
:100200005960D96821F40041D9609B681B0449BF3B
:10021000404B4FF4E01313604FF480130D930C9B8D
:10022000012B01D117E0FEE7022B18D168B10D9B1D
:10023000B3F5801F02D14FF4A01305E00D9BB3F579
:10024000E01F02D14FF400130D930D9963680B4327
:1002500043F4803302E0636843F46013636023680F
:1002600043F0807323602168244B8F01FBD55968CC
:1002700021F003015960596841F002015960636837
:100280001E4903F00C03082BF9D14B68DFF890806E
:1002900003F00C03042B03D0082B03D01A4B12E0FD
:1002A000136810E04B684868C3F38343C00303F14D
:1002B000020301D4184905E0496811F4003F1168B0
:1002C00018BF49084B43C8F800306368134FC3F3A5
:1002D00003133B44197ED8F800300697CB40C8F88A
:1002E00000301368084A93421CD101221EE000BF6F
:1002F0004B850008D8000020B833002000100240D1
:10030000F02900200020024000127A000410014071
:100310002C000020001BB70000093D00A09B010835
:1003200060000020A94A934202D10222A84B1A7011
:10033000DFF800B3A74BDFF8C492CBF80C30A36909
:100340004FF0000A43F00103A361636AA248B3605F
:10035000636A43F080736362A36943F01C03A36183
:1003600022AB04934FF6FF73049A8DF85EA022F837
:100370002C3D114604920EF0ACFB484604990EF059
:10038000A8FB049995480EF0A4FB954A049853687D
:1003900043F0007353600DF093FE924A179B514651
:1003A000B3FBF2F3904A914813600C2217F013F953
:1003B000D8F800304FF47A72B3FBF2F38C4A013B69
:1003C0005360F0238BF823300723C2F808A0136092
:1003D000AB68DFF86482049FDFF860B2C8F80030D1
:1003E0009BE80F0087E80F00A369179843F0080304
:1003F000A361A36918A943F00803A3610823C9F8FE
:1004000010301023C9F810300EF063FB19981AA9A8
:100410000EF05FFBD8F80030DFF824A21B0751D59F
:100420009AF89231012B4DD8049BDBF81000194645
:10043000186048469AF893A10EF04BFB0A2011F081
:10044000D3FED9F8083003F020039BB2002B39D13A
:10045000684A9268D70040F11A86D80732D5664BB1
:10046000DFF898A11868DFF870914FF0100BCAF808
:1004700014B00499179048460EF02BFB0823C9F8D6
:1004800010303C2011F0BBFECAF810B04FF0000B4A
:1004900095F893319B4515DA584B4FF0080AC3F88D
:1004A00010A078200593C9F814A011F09DFE059BBB
:1004B0007820C3F814A0C9F810A011F095FE0BF134
:1004C000010BE5E7642011F09AFEA0224C480021C0
:1004D00017F081F8E369002243F00703E361A369A1
:1004E00043F4006343F00C03A361424B4FF0000957
:1004F00003F10C0102F8019001320E2AF5D1FF221E
:100500009A76DA761A775A773E4B3F4A49461A600E
:100510003E483C22D8F8004017F05DF84946C4F345
:10052000801805233A4ADFF8E4E0885C0C224A434D
:1005300002F80E00B8F1000F08D11E3801289FBF45
:10054000FF2003F1FF3302F80E00DBB20131052971
:10055000E8D1304A95F805B013702F4B2F4983F836
:1005600000B02F4B234A3362C0330B602D4BA106E2
:1005700003EBCB035B7848BF01235362002340F2B7
:10058000DC51294A22F813100133082BF7D110A8A7
:1005900000211C2217F01FF814F4007A04F40069FB
:1005A00050D0A3040BD4B9F1000F0AD01F4B95F81B
:1005B0008611A3F10C02012908BF134602E01C4B6F
:1005C00000E01A4B0593049B16933DE0001BB70017
:1005D000E33300200005FA05000801400010014047
:1005E0000000014040420F00E0270020BC12002024
:1005F00010E000E0D8000020DC9B0108000C014066
:100600002828002004130020E02B002008130020DD
:10061000B7C601083D100020B8080020442900207A
:10062000042A00206CC40108A80F0020AC9B01081C
:10063000A09B010800ED00E090290020C89B010864
:10064000F0290020CDF814A0BBF10E0F03D00BF061
:10065000EF03082B02D101238DF85230012011F055
:10066000ABFC18B14088003018BF0120C4F3400330
:100670008DF84630C4F3403300F001008DF840306F
:10068000C4F3C0338DF845008DF848808DF84330B1
:10069000B9F1000F07D095F8869109F1FF37D7F12E
:1006A000000949EB0709C4F300438DF84930736A28
:1006B0001AF1000A18BF4FF0010A003318BF0123D6
:1006C0008DF84B30C4F30053B5F848018DF84C3029
:1006D000B5F84A31ADF85600ADF85030E004B5F841
:1006E000563148BFB848ADF84E30C4F3804348BFD8
:1006F000B0F850018DF84730B5F8543148BFADF827
:100700005600B3F5FA7FADF8543084BF0023ADF83E
:10071000563095F8D631AD4886F82830002386F853
:10072000293043709DF8523004F00101002BC4F3CE
:10073000C0028DF844908DF841108DF842208DF85C
:100740004AA00CBF0023022301B902B10133069A6B
:100750004FF0000802EB83073B6CA3F102091A3348
:1007600006934FF6FF7339F8022F9A4200F08B81FF
:100770009DF84510D3B2120AD5B219B1991E0129BC
:1007800040F27D819DF8481031B1914819014058DF
:100790009049884200F073819DF8497037B18C48C8
:1007A000190140588B49884200F069819DF8461034
:1007B00051B18748884C00EB03104168A14203D136
:1007C0000189102900F05B819DF8431051B18048E8
:1007D000814C00EB03104168A14203D10189022939
:1007E00000F04D819DF8441051B179487B4C00EBED
:1007F00003104168A14203D10189022900F03F8121
:10080000169E7EB1724C316804EB03146068884216
:1008100008D12189B088884200F03181F08888426F
:1008200000F02D81022A02D19DF8402003E0012A28
:1008300004D19DF84120002A00F021819DF84B2031
:10084000634C1E015AB19DF8522042B9A3F108022F
:10085000012A04D8A25962498A4208BF04259DF89A
:100860004C20344452B19DF852203AB917B10C3B98
:10087000012B01E0043B032B40F2E980012D47D11D
:10088000584FFF2387F8703087F87130504B4FF086
:10089000000A9A19517B506802F1080B12898DF8F1
:1008A0005E10ADF85C2017A9022287F874A0C7F883
:1008B000804007938DF85F2087F82CA0C7F830A000
:1008C000C7F834A0C7F838A0C7F86CA087F872A0A2
:1008D00087F873A00EF0FDF8079B9BF8021098595B
:1008E000524609F0E4FD204651462A460AF0A4FB90
:1008F0003D4BC7F88CA0C7F884303C4B2046C7F866
:10090000883007F1840107F188020AF0DDFBB6E0C8
:10091000022D49D15FFA88F31C2101FB03FC2C4A0C
:10092000304B911903EB0C0A91F80DE001F108032B
:100930004868098900274FF0010B8AF87580ADF8E7
:100940005C108AF8767017A98AF87E708AF874B0FD
:10095000CAF88040CDF824C08DF85EE00892079375
:100960008DF85F500EF0B5F8079B089A997890596A
:100970003A4609F09CFD204639465A460AF05CFB8F
:100980001B4A184BDDF824C0CAF884209C44194A3D
:100990000CF18401CAF88820CAF88C7020460A1D20
:1009A0000AF092FBD8446AE0032D4ED19DF84730FF
:1009B0000C4D114E13B395F82A70204608214FF6BE
:1009C000FF72002335E000BFF02900200101002064
:1009D000BCBE01080004004000080140000C0140BA
:1009E000002C0140D80000201D9F0008FD9F00083A
:1009F000E9A40008F39E0008F4270020BDF8542065
:100A000095F82A70B2F5FA7FBDF856300BD98549B2
:100A10002046B1FBF2F2082192B209F09DFD824B13
:100A200046F827000AE081492046B1FBF2F2012195
:100A300092B209F091FD7E4B46F82700C36095F80D
:100A40002A30013385F82A3019E0042D17D1BDF87A
:100A50004E20764B774D93FBF2F22046BDF8503096
:100A6000012192B295F8296009F076FD95F82930B8
:100A700005EB86060133C6F8540185F82930069B3C
:100A800099457FF46EAE6B4D6B4B95F82920002491
:100A900085F87421694A1C7016789846A6F11702E9
:100AA000022A19D82B6A0021185903EB040913F004
:100AB000DFFB10B16B6A5BBB25E0614F99E80F006B
:100AC000274487E80F0098F8003010340133C02C19
:100AD00088F80030E6D1EDE75A4B13F836E003EB27
:100AE000C603D3F804C088F800E0BCF1000FE1D0E1
:100AF0007445DFDA524F23011F4463440FCB0134A6
:100B000087E80F00F4E7504F3B68DA0424D41DE077
:100B10004E4B4F4A13F8360003EBC6035C68107067
:100B2000002CF0D000238342EDDAC3EBC30162183E
:100B3000D2F800C0DFF840E1013341F80EC001EB0C
:100B40000E079188B9809279BA71ECE706F0EF034D
:100B5000082B404B25D126E098F80030012BF5D921
:100B60003D4C04EB031303F1100810344445EDD061
:100B700054F8100C4FF07C5113F0E6F94FF07C5113
:100B800044F8100C54F8140C13F0DEF94FF07C51BB
:100B900044F8140C54F80C0C13F0D6F944F80C0C6F
:100BA000E3E70E2E08D11A78182E42F010021A70C0
:100BB00008D111F0ABFD05E01A78192E22F01002D1
:100BC0001A70F5E711F086FD3B68244C5B035EBFAD
:100BD000234B01221A70234B23481A78994642F07E
:100BE00004021A70214A11789046022934BF142356
:100BF00010238DF85E304FF002038DF85F30A3694B
:100C00004FF4805243F00403ADF85C2038BF002657
:100C1000A36128BF012617A90DF05BFF144B6EB32B
:100C2000144A2CE000127A001DA0000840420F0078
:100C30000DA00008D800002024280020B8080020BB
:100C4000F40700206CC4010890290020A8AD010819
:100C5000D0280020A4100020FC0700200010024033
:100C6000200D0020B833002000080140E3330020AD
:100C7000C8330020911F0108D1280020724A0020AB
:100C80001A6011F0DBFA714B714E93E80300049B7C
:100C90004FF0030B83E80300A369179843F00803A0
:100CA000A36118A90DF015FFE369304643F48043B2
:100CB000E3612369049943F48043236118238DF889
:100CC0005E304FF42043ADF85C308DF85FB00DF02E
:100CD00000FF04224FF48043304604998DF85E20D3
:100CE00006924FF4805AADF85C300DF0F2FE1023FE
:100CF000304604998DF85E30ADF85CA00DF0E9FE49
:100D00002369322043F480432361236923F4804321
:100D10002361504B198801F4415141F4457141EA76
:100D20000B011980998B21F400610904090C998346
:100D300007211982198889B241F0400119809F2347
:100D4000C6F810A08DF83C3000238DF83D308DF8AA
:100D50003E308DF83F3011F052FA069AC6F814A0D2
:100D600004980FA912F0FEF8C6F810A09DF85E30A6
:100D70009DF85D201B0243EA02439DF85F20134368
:100D8000354A934215D0322011F039FAC6F814A032
:100D9000F52012F01DF9FF2012F01AF97028C6F89C
:100DA00010A006D198F80030022B04BF2B4B83F81B
:100DB00000B098F80030032B0CBF1F20022007F072
:100DC000CAFA98F80030032B03D001200EF0D2F8B5
:100DD00007E0022011F0F0F80028F6D04388002B3D
:100DE000F3D03E684FF0100B06F40043049306F472
:100DF000006306931A4B002118465A46079398F849
:100E0000008016F0E8FB4FF6FF72079BADF83C2020
:100E100002224FF0000A16EA02018DF83E208DF8FA
:100E20003FA01E4620D022A921F84CBD0D480DF050
:100E3000F3FA042333700722012386F801A0B3706C
:100E4000F2709A4611E000BFA51F0108F09B01084F
:100E5000000C01400038004015202000E333002042
:100E6000B8230020000801408A46B8F1010F12D9CA
:100E7000202222A921F84C2D89480DF0CDFA052217
:100E800001233272B3720AF10102072386F809A026
:100E9000F3725FFA82FA049B8BB122A9022221F835
:100EA0004C2D7F480DF0B8FA01220AEB020107230E
:100EB00086F805A03271B271F3715FFA81FA069B70
:100EC00093B1022222A921F84C2D76480DF0A4FA04
:100ED000092201233273B3730AF10102072386F852
:100EE0000DA0F3735FFA82FA62686F4842F44042E1
:100EF00062606269DFF8B08142F001026261A2695A
:100F000042F40072A2610DF063F8684A002417925F
:100F1000674ABAF1010F189294BF224680221C92B0
:100F20004FF480721D924FF480621E922022404640
:100F30001F9217A94FF4005220921994CDF868A07F
:100F40001B94219408F056FFD8F80020594942F02C
:100F50000102C8F800204A68BAF1010F22F4702299
:100F600094BF0020012022F4807242EA00224A60ED
:100F70008868514A0AF1FF33024042F4602242F08D
:100F800002028A60CA6ADBB222F4700242EA0353A8
:100F9000CB62012332199178002963D0305D591C4E
:100FA0000928C9B2D278DFF80CC112D9A0F10A0E13
:100FB000DCF80CA00EEB4E0E4FF0070808FA0EF806
:100FC0002AEA080802FA0EF248EA0202CCF80C20DB
:100FD0000FE0DCF8108000EB400A4FF0070E0EFA2D
:100FE0000AFE28EA0E0E02FA0AF24EEA0202CCF8D3
:100FF0001020062BDFF8BCE010D8013BDEF83420CF
:1010000003EB83034FF01F0C0CFA03FC22EA0C02E3
:1010100000FA03F31343CEF8343022E00C2B10D83F
:10102000073BDEF8302003EB83034FF01F0C0CFA74
:1010300003FC22EA0C0200FA03F31343CEF830302B
:101040000FE0A3F10D02DEF82C8002EB82021F23D9
:10105000934028EA030C00FA02F34CEA0303CEF8AB
:101060002C300B460434102C94D1124B9A6842F465
:1010700080729A609A6842F001029A609A6842F01F
:1010800008029A6099680B4A0C0717D5FAE70AF12B
:10109000FF33092B8CBF00230123FFF7DEB900BF0C
:1010A00000080140000C0140080002404C240140AF
:1010B000C823002000240140FDF7F1FF936843F0AE
:1010C00004039360C14B9E6816F00406FAD1C04C2D
:1010D0009A68B4F85C0142F4A0029A60002840F0DB
:1010E0000286B4F95E31002B40F0FD85B4F9603121
:1010F000002B40F0F8853B6898031FD5C82011F0FD
:101100007EF8AE200DF0A1FE08B10DF0A3FE85F82B
:101110007501C82011F073F8AE4B0021C5F8783185
:10112000AD4D0C22284616F056FA0223EB700CF057
:10113000AEF911F03FF8A94B0344AB60A84D94F809
:101140006CC12B68B4F86401B3F956E094F86311EC
:1011500094F86B21CDF800E0B4F80CE06346CDF8CC
:1011600004E094F80FE0CDF808E008F05BF910B95E
:10117000032011F0B7F899F80030102243F0020371
:1011800089F80030974B4FF00A085A6108221A611B
:10119000DFF850921920D9F80C3008F1FF3883F0AD
:1011A0001003C9F80C30D9F80C3083F00803C9F8E3
:1011B0000C3011F024F8012011F040F8192011F042
:1011C0001EF8002011F03AF818F0FF08E0D10823CB
:1011D000C9F810304FF0100A834BC9F810A01A68F4
:1011E000984612F0080F09D0804BC9F814A01B686C
:1011F00098477F4B0122C9F810A01A707D4BDFF889
:101200001C921B68187B12F04BFE7B4912F09CFE6F
:1012100007F084FC8246B9F8000012F041FE514606
:1012200012F092FE16F0E4FB744B1880B9F800003F
:1012300012F036FE0146724812F03AFF714912F080
:1012400037FF714B6C491860704B186912F07CFEC7
:101250006F4912F079FE6F4BFF2118606E4B1A2216
:10126000184616F0B8F9DFF8B8E1002273460270AC
:10127000D8F80020012112F0020F8EF800101FBFD5
:10128000417003218EF80010022118BF81705107B0
:1012900041BF9EF8001001F1010E83F800E04FF00D
:1012A000030E48BF00F801E012F00A0F0ED01A78C2
:1012B00004218154511CC9B24FF0050E00F801E021
:1012C000D11C02321970D2B20621815439688F06BE
:1012D00041BF1A78571C1F70072748BF87540A065A
:1012E00008D51A7809278754971C01321F70D2B28B
:1012F0000A2787546779082F01D00E2F08D11A7852
:1013000002F1010E83F800E04FF00B0E00F802E04E
:101310001A7811F4803F4FF00C0C00F802C002F173
:10132000010E1CBFDFF8F8C002325FFA8EFE83F8B0
:1013300000E01FBF8CF80020374A4FF00E0C02F877
:101340000EC04A0748BF1A784FF0120C41BF02F195
:10135000010E83F800E04FF0100E00F802E01A785A
:1013600011F4806F02F1010E5FFA8EFE83F800E047
:1013700000F802C00ED094F81CC2BCF1000F09D0D6
:10138000DFF89CC002328CF80020234A4FF0130C87
:1013900002F80EC01A7811F4007F4FF0140C00F818
:1013A00002C002F1010E1CBFDFF874C002325FFA06
:1013B0008EFE83F800E01FBF8CF80020164A4FF025
:1013C000150C02F80EC0182F40D12BE0002401406C
:1013D000F02900207A2B002090240020404B4C0064
:1013E000B80F0020000C0140A0100020F4120020D3
:1013F000F40500200426002035FA8E3C202600202B
:101400000AE81C4100401C46000700204C12002046
:10141000BD37863500260020810F00201C000020EB
:10142000800F00201A784FF0160E00F802E002F14B
:10143000010E5FFA8EFE4FF0170C00F80EC002F19D
:10144000030E0232D2B283F800E087540F0341BF8B
:101450001A78511C1970192348BF8354002198220F
:101460009C4816F0B8F807F010FF9B4A9B4B9C492C
:101470001A6000234B800B71B4F8980199490A60F7
:1014800081B2994A22F813100133122BF9D1974FE8
:101490003B68D9045CBFB4F89E1111801B0740F172
:1014A000C58094F89231062B00F2BA80DFE803F091
:1014B00004070E395474740045F2F05201E042F60C
:1014C000F8228B4B1A8007F069FFA8E042F6F82259
:1014D000874B1A8012F0E4FC864912F035FD8649EC
:1014E00012F028FC12F01CFF0023844A42F823006B
:1014F0000133122BF9D1824A824940201160824A7D
:10150000137010F091FD002800F08A8001234FF045
:10151000070A90F9000040218DE808047B4A7C4BC3
:1015200078E042F6F822724B40201A80794A744BD8
:101530001A60754B10221A7010F076FD00286FD0DB
:1015400001234FF0000990F9000040218DE80802C6
:10155000714A4FF4E1335DE042F6F822644B4020DB
:101560001A806E4A664B1A60674B08221A7010F098
:101570005BFD002854D001234FF0000C90F90000CF
:1015800040218DE80810664A4FF4E13306F010FF61
:10159000644BC3F87C013FE042F6F821544A062B25
:1015A000118059494FF00C02DFF8B0C1DFF8B0E10B
:1015B0005D4C5E480A700FD0002323708CF8003019
:1015C0008EF800301B230370594B4FF4E1341A702E
:1015D000584B05221A700CE0002121708CF8001085
:1015E0008EF80010212101705149534C0A70514A64
:1015F0001370524A424B40201A6010F015FD78B12A
:1016000001234FF0000E90F900008DE808402346BA
:101610004B4A402106F0CCFE003018BF012028B90B
:10162000082007F06DFB474A354B1A603B68364A85
:1016300013F4804F1FBF082111704348304918BF71
:10164000086042F20101194099B144F6206028492E
:101650000880980441BF082111703C48284948BFC0
:101660000860D90741BF0C2111703948244948BF8F
:10167000086011781C06A1F10401517040F1AC80A2
:101680002848DFF8E0A04FF00009324CC0F880A1F4
:101690004946152200F5C270DFF8CCB084F80190FD
:1016A000C4F80490C4F8089015F095FFAAF105035A
:1016B0004846CBF800300AF030FA274B02201B686E
:1016C000E36010F0B1FC002850D1802007F018FB37
:1016D0007BE000BF9C1100207A2B00205C0E0020D4
:1016E000AC0D002060240020CC290020902900208F
:1016F00060070020CDCCCC3F0000B04494220020F5
:101700002000002009DD00083812002081DF0008D9
:10171000A0860100F5DC0008D5DE0008DDDC00084D
:1017200089DE0008D8000020FC220020FE220020D4
:1017300021220020FF22002090D0030005DC0008B9
:1017400069DD000865DD000839DD000855DD0008A9
:1017500045DD00081C070020B429002022220020BB
:10176000FD220020E02B00203C07002090F805E03F
:101770006378C7490C2202FB03125278724504D0E9
:101780000133DBB2042BF4D900236370DBF80030A3
:1017900062781B7890F90000002B4FF00C0303FBDC
:1017A000021314BF4FF0030E4FF0010E00225B78BE
:1017B000CDF800E00192022106F0FAFDB54B186069
:1017C000002882D001200AF0A8F92868B24B00F561
:1017D000C5721A600AF048FA3B68980553D5AF4ABB
:1017E000AF4C059B102523609369AE4843F001037D
:1017F0009361059B0EA91B888DF83A50ADF83830DF
:1018000002238DF83B300DF064F92368A5485B880E
:101810000EA9ADF8383004238DF83A300DF059F99F
:1018200023680120197A0DF03FF923689E4A5B680E
:101830004FF00009536117A88DF8615001251793E7
:101840008DF860908DF862500CF0A8FD23680FA809
:101850005B7A8DF83E908DF83C3003238DF83D3057
:101860008DF83F5011F060FB904B914A1B683C3B58
:101870001360D8F800304FF0FF3243F01003C8F87F
:1018800000308C4B1A608C4B8C4A8D4C13608D4A07
:10189000803313603B680025D903257040F1AF8089
:1018A00040F22A39DFF854A2DFF8F0B10FF094FDCE
:1018B0004FF001084A465046294684F8008015F04A
:1018C0008AFEDBF81830804843F00403CBF8183068
:1018D0004023ADF8383018238DF83B300EA9032390
:1018E0008DF83A300CF098FDDBF81C30774A43F065
:1018F0000203CBF81C30764B764C1B68ABF6947B1E
:10190000B3FBF2F32288013B22F45C721204120C46
:1019100022809BB21D22A2852385A4F81480238CEB
:1019200023F001031B041B0C2384238CA188228B2E
:1019300023F0020322F0730212041B04120C1B0C8E
:1019400089B242F0600243EA0803A1802283A5869F
:101950002384238B23F008031B041B0C43F0080390
:101960002383B4F844306FEA43436FEA53439BB296
:10197000A4F84430DBF8A83F43EA0803CBF8A83FBB
:1019800058460CF025FB544BCDF860A017938023EC
:101990001C934FF480734FF0100A1D9358464FF478
:1019A000005317A920931B951E951F952195CDF8DF
:1019B00064A0CDF8689008F01DFAA3890FA89BB227
:1019C00043F40073A381DBF8003043F00203CBF84B
:1019D00000308DF83CA08DF83D808DF83E508DF89C
:1019E0003F8011F0A1FA3D4B1A683D4B43F8262089
:1019F0000136202EF7D10CF079FF0CF077FF3B6811
:101A00005A0540F18F80374C374BD4F8C46404201A
:101A10001E6010F009FB0421C4F8C80410F0E0FABD
:101A2000324B84F8CC0408201E6010F0FDFA304BD5
:101A30000821186010F0D4FA2E4D84F8CD0400214E
:101A400028462C2215F0C7FD8E236B704FF07C09C1
:101A5000E0234FF07D08EB7085F8009085F82B802F
:101A6000254D2C220021284615F0B5FD8A236B70E8
:101A70001020A023EB7085F8009085F82B80C4F827
:101A8000D06410F0D1FA1021C4F8D40438E000BFBB
:101A9000689C01088C240020B00E00200010024039
:101AA00018070020000C014000040140B429002068
:101AB00014070020D80F00201C2C002074110020D7
:101AC000210D0020D02400200008014000366E01C6
:101AD000600000200004004034040040F89B01082E
:101AE000220D0020D800002094100020EC100020CF
:101AF00038110020BC100020F110002071020020DD
:101B000010F06EFA84F8D8042020C4F8DC6410F0D9
:101B10008BFA2021C4F8E00410F062FA84F8E4049F
:101B20000BF08CFB804B814C1B78022B65D1804ADB
:101B300000251388322023F040031B041B0C138064
:101B400013884FF4805623F038031B041B0C1380BA
:101B500013889BB243F0400313809F238DF83C30E1
:101B60008DF83D508DF83E508DF83F5010F047FBFA
:101B70008DF85D506F4D04226E6117A80FA911F00A
:101B8000F1F92E619DF85E309DF85D201B0243EA5D
:101B900002429DF85F301343674A934219D00AD836
:101BA000A2F51A42033A93420CD002F51A420232CD
:101BB000934209D01CE0614A934205D0013293421E
:101BC00007D015E0202300E0802323804FF48073AA
:101BD00002E04FF4807323806380A38822881B0275
:101BE000A3605343E360564B012283F8E52404E0ED
:101BF000002323806380A360E360E46804B3240CC3
:101C000026464FF00008A04514DA08EB04056D10D5
:101C10000DF15C092804494610220DF0C7F8002395
:101C200059F8232001325AD10133042BF8D12E4622
:101C30002C46E8E70AF0CAF9414B3604C3F8E864D9
:101C40003B68404A13F4002318BF0123137010F0BF
:101C5000B1FA3D4B18603D4B5A791946052A02BF2F
:101C60003B4B4FF4C8721A803A4B4FF47A721A8089
:101C7000394BC8221A80394A137843F0080313708D
:101C8000374A137823F00203137040F602033A68D0
:101C900013406BB13348344B1860344B0320187039
:101CA000334B0120187033480023038032480380EF
:101CB000930341BF314B04221A71DA7844BF42F0DA
:101CC0000102DA708B6801223B602D4B1A702D4A9D
:101CD000137863F07F03137023B0BDE8F08F05F134
:101CE00001082546A4E7284B00221A7000B212F022
:101CF000D7F8264912F028F91790B4F95E0112F0CE
:101D0000CFF8224912F020F91890B4F9600112F0CE
:101D1000C7F81E4912F018F91D49199017A806F0C6
:101D200007FFFFF7E8B900BFE33300200C000020F5
:101D300000380040000C014018BA20001740EF00A6
:101D4000D8000020D0310020A40D0020F029002070
:101D5000CC250020DE330020D8330020A410002042
:101D6000E13300206C2B00208C100020F0100020AC
:101D700054000020500F0020520F0020902400201B
:101D8000200D0020B83300203000002035FA8E3CB2
:101D900094230020834A2DE9F04F1368824C03F509
:101DA0009C4320332360A38889B00133A3807F4BF9
:101DB000059219689B4611F4804F05D10CF0DEFCAA
:101DC00010B9237B013323730027794BFDB21E78B2
:101DD000DFF8F481AE4230D9D8F80030072D98BF33
:101DE000595D744B88BF29461B6871489847032D7D
:101DF0001ED8D8F8002005F10E0302EB8303998862
:101E0000DA88A8B14FF47A73401A5843531A90FBFA
:101E1000F3F040F6C90300F57A70984205DC40F211
:101E2000EE239842B8BF184601E040F6CA0080B2DF
:101E300004EB4505E8810137C7E7277B0325B7FB9E
:101E4000F5F50F2384F8323094F8333005EB45056F
:101E5000019394F834307D1B0393D8F80030DFF8F9
:101E600070910293EBB204930025B54254DA524BC1
:101E70004FEA450833F815A0019B53B90CF07EFCDE
:101E800028B1039B002B08BF4FF0000A01E0DDF8EA
:101E900004A0029B988A504502D8D88A50450ED299
:101EA000E8B20CF041FC032D8246DFBF94F832E02B
:101EB0000120A8402EEA0000D8BF84F832000CF0C0
:101EC0005DFC18B13D4828F800A021E0049B94F87F
:101ED0007E0029F813A028B9022F15D9324B012012
:101EE00083F87E00B9F80000B9F802300344B9F86D
:101EF0000400034432489BB228F800301BB2032090
:101F000093FBF0F39BB200E053462C4828F80030D6
:101F1000013509F10609A8E794F83250224BA5F1E2
:101F20000F004542454184F898503DB19A8811B25E
:101F30001429CCBF143A00229A800BE083F8335066
:101F4000B54207DAE8B20CF0EFFB1C4B23F81500A2
:101F50000135F5E7DBF80030D90405D5194B1B68CE
:101F6000DA0701D411F06AFC059B1F68164B1A684A
:101F7000907A78B31149137B013831F810001BB106
:101F8000C0F53B60083080B200B2A0F57A70B0F5C1
:101F90007A7FA8BF4FF47A7020EAE07011F080FFDA
:101FA0000A494DE0C0330020A80D002090290020F0
:101FB0003812002020000020B60D0020CC2900207F
:101FC000280E00207C0F00206024002000007A44AE
:101FD000DE0D0020DBF800301B043AD5D4F89C302D
:101FE000A64DFB1A002B34DB07F59C432033C5F8C4
:101FF0009C30A34BD27A5979A24B33F8113095F823
:10200000A0109BB293FBF2F3013101F00F0285F8AF
:10201000A0202A4482F8A13003469B4A825C01300A
:10202000134410289BB2F8D11BB293FBF0F000B21E
:102030006428A8BF642020EAE07011F031FF9349C2
:1020400012F036F8924911F07FFF12F069F9914BC6
:102050001880DBF80030904D13F4807F8F4E7FD0D6
:102060008F4B9F4204D9237A13B9844B01221A72F1
:10207000B4F904E03778BEF1140FCCBF4FF0000E76
:102080004FF0010E7D4BC7F38007BEF1000F06D065
:102090004FF0000883F80A8083F8098001E04FF0D0
:1020A0000308D4F8B430A07A0193D4F8B8C0B4F9D6
:1020B0000490617AE3882A88032847D8DFE800F093
:1020C000020E1B36BEF1000F02D02A8000222BE048
:1020D000002F40F05C862A80A77239E09CF800004F
:1020E00000EB8000814502DC2A8001221CE00120F7
:1020F00067B300F0BDBE47B1019A4FF00208D28924
:102100006A80AA80BCF80200E8809CF800A09CF8D5
:102110000100504400EB8000814500F33B86002F16
:1021200000F038862A800222A27211E02A8003225F
:10213000A2726172E3806FB13378002243F0020330
:1021400033704E4B5A7211F079FB03E02A80A07273
:102150006172E380B8F1000F02D0404610F088F8B9
:10216000504FB7F8520111F0A4F90197824668B9AF
:1021700011F0B4FD4C4B0022C3F800A0C3F804A03A
:10218000C3F808A0494B1A605A609A6033785F0719
:1021900037D5DBF80030D80633D5454B1B78D90648
:1021A0002FD4444B1B789BB1019B93F8DE31BAF1DD
:1021B000000F15D17BB1404B1A68D4F8BC309B1A84
:1021C000002B08DA11F03AFB2C4B83F8C0A018E082
:1021D000BAF1000F0DD1102010F04AF801230EE0E3
:1021E0003BB1354A4FF47A71126801FB0323C4F8FE
:1021F000BC3094F8C03023B110F026F8002384F8E6
:10220000C030019B93F8DC9193F8DD11B3F89A711B
:10221000B3F89CE10023184635F913208008BA4230
:10222000C4BF60F07F00C0B201337245B8BF40F058
:102230004000042BF0D194F8C130104A834205D1FC
:1022400092F8C230F92B04D8013300E0002382F861
:10225000C230184A84F8C1001078084B174F9046D6
:1022600000283CD13A68D2072AD5BAF1000F36D1FE
:102270003378DB0733D511F035F930E0A80D0020B5
:10228000B8230020C8230020490E00200000C842C7
:1022900000C07F44DC0F0020CC290020E133002067
:1022A000404B4C00F0290020002500204021002058
:1022B000A410002008000020B42900207C0F00207A
:1022C000327850070BD593F8332042B15B7A33B99B
:1022D00011B111F0B3FA02E0BAF1000FF9D094F89D
:1022E000C2307B4A142BDFF818A240F08F8098F898
:1022F000003019F1000918BF4FF001096BB392F8D3
:10230000C1305F2B11D1337803F0040303F0FF01D8
:1023100013B111F093FA08E00B20039102920FF031
:10232000A7FF029A039982F8C210B9F1000F14D0E6
:1023300094F8C1307D2B10D1337803F0040303F0FF
:10234000FF0213B111F07AFA07E00B2002920FF0AE
:102350008FFF5F4B029A83F8C220337803F00403A7
:1023600003F0FF01002B51D194F8C130584A572B8C
:1023700016D1584B4FF47A721A80DBF800301906E8
:1023800001D509F0C1FC544B1B685A0742BF534AA0
:102390000A21118013F0080338D1514A138035E027
:1023A000DBF80000400716D55A2B14D14D4B187896
:1023B00020B119704C4B01221A7027E092F8C330FB
:1023C00083F0010382F8C3300BB10C2000E00D2034
:1023D0000FF04EFF1AE05D2B00F0DF845B2B00F066
:1023E000DE845E2B02D1032000F0DABC562B01D133
:1023F00006F024FF98F80030002B00F0E78494F8F2
:10240000C1306F2B40F0DC8411F06CF8DBF8003049
:102410005B0732D594F8C330A3B13378580711D590
:10242000019BB5F90620B3F89A319A420ADD3B6860
:1024300013F0010301BF2D4A32211180244A08BF45
:1024400082F8C3303B68D9030AD5294B1A782AB9D8
:10245000244A127812B9254A3221118001220BE058
:10246000204A13784BB1337803F0040303F0FF01E3
:102470001BB91D4B117001221A70DAF8008000237D
:102480003B6008F17B0608F1CB093278737816F8C7
:10249000010C9A420BD231460FF02EFE38B116F8DD
:1024A000022C012303FA02F23B6813433B6004361B
:1024B0004E45EAD10F4B1B7823B30F4DDFF8188040
:1024C0002B680E4F13F0020F40F0408338E300BF3B
:1024D000A80D0020DE330020A0100020D8330020FB
:1024E0007C100020F9250020FA250020E02500209E
:1024F000F8250020E63300207C0F00206811002022
:10250000B80F002008F1CA0608F589773278737889
:1025100016F8010C9A4225D231460FF0EDFD08B3B2
:1025200096F804E00C21B37801FB0E41B74A013B59
:1025300003EB43031344D1F8C82096F803809A4272
:10254000B3480FD0C1F8C830002390F8F420C1F888
:10255000CC30012303FA0EF322EA030381F8C4808E
:1025600080F8F4300636BE42D0D1AA4BDFF8B892DC
:102570001F68A94B4FF0000A1B68029394F8333090
:102580000393D9F80010002900F0C48291F800806C
:10259000B8F1000F00F0BE82D9F80430029AD31AC5
:1025A000002B0CDB02F5FA73C9F8043094F8F42020
:1025B000012303FA0AF322EA030384F8F430039BAD
:1025C000002B00F0A78219F8042C4B780432D2B209
:1025D000002B40F06082914B35F91200B3F898213E
:1025E00002F1C80398428A4B01DD8E7814E0C83AA4
:1025F000904202DA89784E420EE093F8F4100122FC
:1026000002FA0AF221EA020283F8F420029B03F59F
:10261000FA73C9F804307DE293F8F42042FA0AF222
:10262000D20700F17782002ECCBF02200120049354
:102630000FF040FE08F1FF32049B132A00F2618282
:10264000DFE812F0140021002E003E0057005E006B
:10265000C30038019D01CA01F9015F023E004D002F
:102660005E00C300380195000A016F0139783846D1
:102670000E44FA2EA8BFFA2626EAE6763E700FF040
:1026800021FD01201AE0797838460E44642EA8BF57
:10269000642626EAE6767E700FF014FD02200DE037
:1026A000F97838460E44642EA8BF642626EAE676FA
:1026B000FE70D3F8F8100FF0BDFC03203146B7E1EF
:1026C00079790D2031446429A8BF642121EAE171A0
:1026D00079710FF05BFDB8F10D0F00F012823979BE
:1026E0000E2031446429A8BF642121EAE1713971C7
:1026F0009EE1B9790520314481F30801B97197E170
:10270000D3F8FC301A78022A22D13046049311F013
:10271000C7FB434911F0CCFC049B596A059311F0A7
:102720000BFB0021049011F0ADFD059B48B9049A04
:102730003C49104611F0C4FD049A059B10B1394A7A
:1027400000E000225A620F2011460FF00AFD0AE055
:1027500099780F203144C829A8BFC82121EAE17126
:1027600099700FF013FDB8F10F0F00F0CA81284BDC
:10277000D3F8FC8098F80030022B1AD1304611F0C3
:102780008FFB274911F094FCD8F8201011F0D4FAEF
:102790000021064611F076FD30B93046214911F08E
:1027A0008FFD10B11F4E00E00026C8F820601220F7
:1027B00061E198F8011012203144C829A8BFC8214E
:1027C00021EAE17188F8011032E1D3F8FC301A787F
:1027D000022A32D13046049311F062FB114911F004
:1027E00067FC049B196B059311F0A6FA0021049075
:1027F00011F048FD059BC8B9049A0A49104611F02A
:102800005FFD049A059B90B1064A10E060A00108A4
:10281000A80D0020E00F0020B4290020F02900209E
:10282000000020410000C842700E002000221A6300
:10283000102011460FF095FC0AE0197B102031445E
:10284000C829A8BFC82121EAE17119730FF09EFCC5
:10285000B8F1100F00F05581B34BD3F8FC8098F815
:102860000030022B1AD1304611F01AFBAF4911F09B
:102870001FFCD8F82C1011F05FFA0021064611F069
:1028800001FD30B93046A94911F01AFD10B1A74E2B
:1028900000E00026C8F82C601320ECE098F80B103C
:1028A00013203144C829A8BFC82121EAE17188F862
:1028B0000B10BDE0D3F8FC301A78022A22D1304642
:1028C000049311F0EDFA9A4911F0F2FB049BD96BD5
:1028D000059311F031FA0021049011F0D3FC059B0F
:1028E00048B9049A9149104611F0EAFC049A059BF4
:1028F00010B18E4A00E00022DA63112011460FF079
:1029000030FC0AE0997D11203144C829A8BFC821B4
:1029100021EAE17199750FF039FCB8F1110F00F05F
:10292000F080814BD3F8FC8098F80030022B1AD14C
:10293000304611F0B5FA7E4911F0BAFBD8F83810DC
:1029400011F0FAF90021064611F09CFC30B930462E
:10295000764911F0B5FC10B1744E00E00026C8F8BD
:102960003860142087E098F8151014203144C829E5
:10297000A8BFC82121EAE17188F8151058E0D3F802
:10298000FC8098F80030022B1AD1304611F088FAFA
:10299000684911F08DFBD8F8281011F0CDF900210D
:1029A000064611F06FFC30B93046604911F088FCE2
:1029B00010B15E4E00E00026C8F8286009205AE0F9
:1029C00098F8031009203144C829A8BFC82121EA7A
:1029D000E17188F803102BE0D3F8FC8098F8003000
:1029E000022B1AD1304611F05BFA504911F060FB0E
:1029F000D8F8341011F0A0F90021064611F042FC7D
:102A000030B93046494911F05BFC10B1474E00E047
:102A10000026C8F834600A202DE098F80D100A202E
:102A20003144C829A8BFC82121EAE17188F80D10F6
:102A30000FF0ACFB65E0D3F8FC8098F80030022B77
:102A40001DD1304611F02CFA394911F031FBD8F87C
:102A5000401011F071F90021064611F013FC30B955
:102A60003046324911F02CFC10B1304E00E0002607
:102A7000C8F840600B2031460FF073FB41E098F836
:102A800017100B203144C829A8BFC82121EAE171E1
:102A900088F81710CCE7012B33D135F9123088783C
:102AA000B3F5617F05DB40F633029342A8BF1346BE
:102AB00001E04FF46173B8F10C0F22D14FF496622C
:102AC00092FBF0F0A3F5617393FBF0F31A4ADEB2C8
:102AD0001378B34215D0042E34BF3346022313704B
:102AE000019A08FB0323154A03F2B67313600DF035
:102AF00078FF404631460FF049FB701CC0B20FF022
:102B0000D9FB0949012391F8F42003FA0AF313438E
:102B100081F8F4300AF1010ABAF1040F09F10C0945
:102B20007FF42FADC9E400BFA80D00200000C8420B
:102B300000007A440000204148290020E00F0020D6
:102B4000DBF80030DB050FD5637A6BB1D8F80030C5
:102B50009E0709D53B8813F001060AD111F0BEF893
:102B6000012006F0BDF804E0012006F0A8F80123DA
:102B700000E000232A6850070CD55BB1012006F065
:102B80009EF83B88990708D411F0A8F8022006F0B7
:102B9000A7F802E0022006F092F83B88B74A13F04B
:102BA000030F4FF0100114BF51611161D8F80020DC
:102BB00012F00A0F23D02A68D20609D55E070AD47C
:102BC000042006F08DF8AE4B1B88A4F8003102E01B
:102BD000042006F074F82B68980606D53B88590641
:102BE00006D4402006F07CF802E0402006F067F8AA
:102BF0002B685A0642BFA24B1B88A4F80231D8F8B2
:102C000000309B0608D42B681F0540F18E804FF4DE
:102C1000807006F065F88CE09A4B1B789E074FD5C4
:102C2000994B1B78042B4BD92B68984E13F40078E2
:102C30000ED03B88DC0637D4102006F051F8202057
:102C400006F03DF89248011D08F0C8FF022327E076
:102C50003C8804F01004A4B22CB1102006F02FF828
:102C6000012486F804812B68580512D5D6F808315E
:102C700088495A89B1F90030002BB8BF5B429342B2
:102C800007DAB1F90230002BB8BF5B429342C0F2C1
:102C900011813B88990608D5202006F010F8002302
:102CA00086F80431012400E0002496F80C31B3B911
:102CB0000E200FF0DDFA754B012283F80C210EE097
:102CC0003B8803F03003002B9DD0102005F0F7FF68
:102CD000202005F0F4FF002384F8043101E0002CEB
:102CE00091D0002006466C4B002423F816406B4B15
:102CF0001A1D03F10A0122F8164000224250014435
:102D00004C608A6023F8164003F132015A33425076
:102D1000C250014403444C608A605C609A60143085
:102D2000002E7FF470AF0126DDE74FF4807005F0D0
:102D3000C6FF5B4B5A791C46082A01D00E2A02D1E5
:102D4000402005F0BCFFDBF800305A0540F1C78099
:102D500094F81C3223B9534B1B7813F0040F02E094
:102D60002B6813F4002F0BD04F4B00221A703C201D
:102D700007F00EF8002800F0B2800FF009FEF6E729
:102D80000AF05CFA09B0BDE8F04F06F07EBA012007
:102D9000FFF792B90320FFF78FB9012000E002206E
:102DA0005FFA80F8019A08F1FF3382F8B43705F032
:102DB000E1FF06F081F840460FF07CFAFFF726BBF2
:102DC000B9F1000F02D07E2B3FF41EAB94F8C13056
:102DD000972B05D1354B4FF4C8721A80FFF716BBFD
:102DE000A72B06D1274A137843F004031370FFF78B
:102DF0000DBB0022BB2B079201D1022303E0B72BAE
:102E000004D14FF6FE73ADF81E3009E0BE2B01D1A0
:102E1000022303E0BD2B1AD14FF6FE73ADF81C3030
:102E2000DAF80030BDF81C10B3F858200A44A3F8B3
:102E30005820BDF81E10B3F85A200A44A3F85A20AF
:102E400006F0FCF9002384F8C230FFF7DFBA792BD3
:102E500004D1174AD37823F0010306E07A2B7FF4DC
:102E6000D5AA134AD37843F00103D370FFF7CEBA43
:102E7000013301469BB20220FFF71EB9000C01404E
:102E80007C100020A4100020AA100020A80D002013
:102E9000E80F002084100020DA330020B60E002056
:102EA000F0290020E133002000130020CC25002071
:102EB000902400203B889B063FF5F7AE202005F0CC
:102EC0000FFF084B08481A685B68011D43600260E9
:102ED00008F084FE054B012483F80441E5E609B0BF
:102EE000BDE8F08FAC100020F00F0020A80D0020EE
:102EF000BA4B2DE9F04FB3F90610B94B89B01F68F2
:102F000001937A8991420EDBB1F5FA6FFC79BFBF6C
:102F10008B1A6343A2F5FA6493FBF4F4ACBFC4F1DB
:102F20006404643400E06424AE4BAF4A1868B2F81D
:102F300098A1054692F96221049092B205920293FB
:102F4000002240F2E630A54B4FEA420B33F9123033
:102F50000393CAEB030303F2F316864203D8002B54
:102F6000B8BF5B4201E04FF4FA73022A049E4FF0AF
:102F700064002FD096F811E1BEF1000F04D0734524
:102F8000CCBFCEEB0303002393FBF0FCDFF8A0E201
:102F90006FF063093EF81C8009FB0C390CF1010C41
:102FA0003EF91CE00FFA88FCCCEB0E0E0EFB09FE7E
:102FB0009EFBF0FE8D4EC64426F80BE0BE18367917
:102FC00073438B4E93FBF6F364339BB2634393FBE3
:102FD000F0F02DE096F812E1BEF1000F04D0734539
:102FE000CCBFCEEB0303002393FBF0F0DFF82C8281
:102FF0006FF0630C0CFB003938F910E0013038F940
:103000001000002BCEEB000000FB09F999FBFCF946
:103010000598CEEB090909FB00F97448B8BF5B427B
:10302000A0F80490B8794343714893FBF0F0643002
:103030006B784FF0640E434393FBFEF36D4E022A10
:10304000B354EB7A6C4E00FB03F393FBFEF3B354E3
:103050006B7D664E00FB03F090FBFEF0674B9854CF
:10306000674B0FD183F802E0039B53450EDB5E4CA8
:10307000B4F89A21914215DBB1F5FA6FA8BF4FF46D
:10308000FA6110E09C54039B534504DA36F80B3088
:103090005B4226F80B300132032A05F101057FF46B
:1030A00050AFE4E71146891A4FF47A735943C2F5D9
:1030B000FA62B1FBF2F1642791FBF7F2DFF874E1F9
:1030C0006FF063033EF8120003FB021101323EF978
:1030D000122003B2D21A514391FBF7F30344F38059
:1030E000484B424D1B8858063BD5474A474B1088F2
:1030F0001B88181A00B210F0D3FE454910F024FFC7
:10310000074605F00BFD8046384605F094FC07465F
:10311000B5F9020010F0C4FE8146B5F9000010F0C8
:10312000BFFE4146824610F00FFF394683464846AF
:1031300010F00AFF0146584610F0FCFD11F0CAF8E5
:1031400041462880484610F0FFFE394680465046EA
:1031500010F0FAFE0146404610F0EEFD11F0BAF80C
:1031600068802C4F3B68990740F19F8045F207210A
:10317000294B2A4D1A686B69D31A8B4240F395800C
:103180006A610BF0B7FA264BDFF8AC901A789846D4
:10319000032AB9F8003051D10A2B59D9002328202D
:1031A00088F800300FF02BF80BF0A4FA1D4B1888AC
:1031B0000BF08AFA1C4B1A68D37890FBF3F00130BD
:1031C00008281A4BA8BF08201870537980B24343CF
:1031D0002B831379584368833AE000BFCC29002041
:1031E000E00F0020B80F0020F029002084100020FC
:1031F0000CFEFFFF4C210020460F00206021002024
:10320000E024002068110020AA0E00207C1000207D
:1032100035FA8E3C90290020C0330020380F002062
:10322000F0100020D02300208C100020540000203B
:10323000D2270020BA270020901000200A2B07D8A0
:1032400003239C4A88F80030002313702B836B8380
:1032500098F80030984A012B0CD002D3022B1BD0D7
:1032600023E02A8BB9F800309A421EDD012388F84A
:1032700000300FE0B9F800106B8B8B4202DD0223A7
:1032800013700FE08D4B1B8B0133994202DD00233D
:1032900013700AE0082006E06B8BB9F800200133B8
:1032A0009A42E3DC07200EF0E3FF3D682A0576D55D
:1032B000834B824F1A68FB69C3EB020845F2072370
:1032C00098456CDD7F4BB6F906B0D3F800904FF40B
:1032D0007A7199F80A30FA61012B98FBF1F8B4F889
:1032E0005201ABF57A7B784E03D041D3022B20D02C
:1032F00040E0764B386A5A7B754B4FF0080E33F836
:10330000122090FBFEF392B2C01A83183B6293FB2B
:10331000FEF3BA8440F6E4429BB25343B9F8082066
:10332000C2EB13335943B9F9063091FBF3F1316025
:1033300020E0684BB9F808A01B78C6F800A05B072E
:1033400018D510F0B6F820B915F0100F18BF4FF0CF
:10335000000B0BFB0BF3322293FBF2F3B9F90620BF
:103360005B445A434FF47A7392FBF3F3534400E007
:10337000002333603368D7E90A0103FB08F84FF4F0
:103380007A7398FBF3F810EB080041EBE871002327
:10339000C7E90A01504A10F0E3FF504B1860504E45
:1033A0003368D90427D52A0622D54E4B1B789B07B4
:1033B0001ED54D4B187804281AD900224B4B0521F5
:1033C000D718951C4FF00A0E122AD154E9B287F88B
:1033D00001E004D0B0EB510F2A46EFD800E01421F1
:1033E0005A18322002F8010CFF225A540F2000E034
:1033F0000A200EF03DFF3E4D2A68002A51D03D4B79
:103400003D4F18683968984681424AD83B4BDFF8EF
:10341000F89019785268E1B94FF0010A83F800A0DA
:10342000B9F80030D35C23B350460EF007FF344B9D
:1034300083F800A00BF0AEF9B9F80030CBB92B68D7
:103440001B78053B534514D80EF0B4FE2D4B186085
:103450000FE04FF0000A83F800A0B9F80030D35C09
:103460003BB150460EF0EAFE254B83F800A00BF06E
:1034700091F92B68B9F800205B6823499B5CFE2B0F
:1034800002D100230B800CE0FF2B02D10EF0DCFEFA
:1034900007E0D8F800000A2505FB030301323B6072
:1034A0000A800C4D2B785F0732D5184B08225A61E1
:1034B0006CE000BF54000020F0100020380F002006
:1034C000C03300208C10002098100020B82300206A
:1034D000C8230020E1330020407E05009C1000201E
:1034E0007C0F0020A4100020AA10002068290020D2
:1034F000F0270020B4290020E8270020E42700203E
:103500006424002084330020EC270020000C0140BC
:103510003268D0075CBF43F001032B70A84B1B78C7
:1035200019075EBF2B7823F001032B70D30248BF2D
:103530002B78A44A44BF23F001032B70A24B1B68D5
:1035400013F0040F02D0A149098851B9A049098894
:1035500009B19F0705D49F4B1B88003318BF012377
:1035600033B1022313702B7823F001032B7004E096
:103570002978CE0758BF022313700EF01BFE964B1E
:103580001B68C01A002801DB0BF004F909F056FE95
:10359000924B1E780393002E00F0A980904F3B6859
:1035A000002B00F0218738680EF0F0FE002800F0B4
:1035B0001B878B4B8B4C18680EF0E5FE092801D059
:1035C0003F2852D14FF000094D462668DFF850825F
:1035D00036B18548D8F80010324614F049F810B9D1
:1035E000C14605B94546814B08F110089845EFD30F
:1035F000EDB1D5F800C0D9F8008023681CF803E0CD
:1036000018F80300704512D15A1C774958B92D2B70
:1036100009D8DFF8D0E1CEF800204FF0200E01F8F5
:1036200003E0885403E001F803E02260E5E7236843
:103630000BB14D4510D06E480FF0A0FA4D4507D89C
:1036400055F8100B0FF09AFA09200FF08FFAF5E7F2
:1036500068480FF093FA002623689E42A3D2624B7B
:10366000985D0FF083FA0136F6E72368002B40F0EF
:10367000A086042840F0DC865B480BF011FF00F0C8
:10368000B3BED8F80000DFF87CA10EF07FFE20B3B7
:10369000DAF800000EF077FED9F80030834693F890
:1036A000482092BB242869D1012283F84820D9F808
:1036B0000030DFF84CA193F848B0BBF1060FE0D121
:1036C00093F8490000F042FF002800F0AB800FF0B3
:1036D000ADF93B68002283F84820474B93F835301A
:1036E000002B40F054864C36982E00F07D86434BDC
:1036F000F21892F84A100129F5D1414FF3583A6077
:10370000404AB94613609046BBE7012A04D14D28D0
:1037100014BF00220222C8E7022A04D13C2814BFA9
:1037200000220322C1E7032A0AD140284FF00002F9
:103730009FBF1A71DA715871987198BF0422B4E76B
:10374000042A08D19A7983F8490080EA020B83F8A9
:1037500006B00522A9E7052AA9D159791A7991421B
:10376000997906D941409971511C19711344187205
:103770009DE781420CBF0622002296E72B7859076D
:1037800095D42328DAF800300CD1039901220A706D
:10379000134A1D481360184A13630FF0EFF91548D8
:1037A0000FF0ECF9194B1B681B785B4501BF184AF9
:1037B000184B1A60184A04BF184BDA6077E700BF4D
:1037C000A410002064240020A0100020D833002082
:1037D000CC250020DE33002068240020E6330020C2
:1037E00064290020CC2400209C240020E8AC01089F
:1037F000C3C20108C8C20108380F00209C11002074
:10380000481100204C110020F8C2010804130020C8
:10381000EFBEADDEF04F00200400FA0500ED00E041
:1038200008AB0108DAF8002092F849304C2B00F080
:10383000858400F29080352B00F0588239D82B2BEC
:1038400000F0548420D8252B00F02C8404D8232B9E
:1038500000F0138200F0E8BD272B00F02984292B0B
:1038600040F0E2850FF0BEF8A4F882010FF0BAF83C
:10387000A4F884010FF0ACF884F886010FF0B2F8D8
:10388000A4F8880100F07EBD2F2B00F0F78404D847
:103890002D2B00F02F8400F0C7BD312B00F00385E5
:1038A000332B40F0C1850FF093F884F8940100F0B9
:1038B00069BD412B00F09C8418D8392B00F0058499
:1038C00004D8372B00F0A18400F0AEBD3C2B00F0F3
:1038D000CC803E2B40F0A8850FF07AF884F8DE010A
:1038E0000FF076F884F8DD0100F04CBD442B00F0B9
:1038F0000E8525D8432B40F097850FF069F80023FB
:10390000A36060710FF078F805F002FA0FF060F82C
:1039100084F892010FF066F8A4F85C010FF062F8E9
:10392000A4F85E010FF05EF8A4F860010FF05AF8F9
:10393000A4F882010FF056F8A4F8840100F022BD2B
:10394000482B00F044834A2B40F06E850FF04AF874
:10395000A08100F017BDD12B00F0638320D8CC2BC1
:1039600000F006820FD8C82B62D004D84E2B00F08E
:10397000118400F059BDC92B00F02C83CA2B00F034
:10398000838000F051BDCE2B00F01483C0F009837A
:10399000CF2B00F04182D02B00F0F88200F044BD24
:1039A000D82B00F000810BD8D32B3BD027D3D42BBE
:1039B00000F07682D62B40F037854FF0000864E2A5
:1039C000F22B00F0BB8212D8EF2B40F02D85DFF8F0
:1039D0007C83D8F800900FF005F8A9F85A00D8F8C1
:1039E00000800EF0FFFFA8F8580000F0CBBCF32BCE
:1039F00000F09284FA2B00F0E68200F015BD2B78DF
:103A000003F0040303F0FF08002B40F0BB840EF02A
:103A1000DFFF022884F8B40740F2BE82C74B83F868
:103A2000B487B9E20EF0DEFFC54B188000F0AABCE7
:103A300092F805804FEA5808B8F1120F03D906F042
:103A4000A3F900F09FBC4FF00009C14507D20EF06A
:103A5000C9FFBC4B23F8190009F10109F5E7BA4B7E
:103A6000012283F8342000F08DBCDFF8E082D8F822
:103A700000900EF0ADFF89F80000D8F800301878FB
:103A80000CF088FF00F07EBCB04B1A6898461278A4
:103A9000022A6BD14FF00008DFF8B09208F1080B52
:103AA000D9F800A00EF094FF10F0F6F9A84910F034
:103AB000FFFA4AF82B00D9F800A00EF089FF08F1B0
:103AC0000A030AEB830A10F0E7F9A24910F0F0FAB2
:103AD000CAF80400D9F800A00EF07AFF10F0DCF963
:103AE0009D4910F0E5FA08F10E0B08F10108B8F154
:103AF000030F4AF82B00CFD1B8F1070FD9F800A077
:103B00001AD10EF065FF10F0C7F9914910F0D0FA04
:103B1000CAF84400D9F800A00EF05AFF10F0BCF922
:103B20008B4910F0C5FACAF84800D9F800A00EF089
:103B30004FFF8AF84C0012E00EF04AFFC2448AF8A8
:103B40000100D9F800A00EF043FFC2448AF80B0030
:103B5000D9F800A00EF03CFFC2448AF8150008F125
:103B60000108B8F10A0FC7D100F00CBC4FF00009F2
:103B7000D8F800A00EF02CFFCA448AF80100D8F84B
:103B800000A00EF025FFCA448AF80B00D8F800A068
:103B90000EF01EFFCA4409F10109B9F10A0F8AF8B3
:103BA0001500E5D1EEE38046DFF8A09108F1080B9F
:103BB000D9F800A00EF016FF10F06EF9664910F06B
:103BC00077FA4AF82B00D9F800A00EF00BFF08F1A5
:103BD0000A030AEB830A10F05FF95F4910F068FAF4
:103BE000CAF80400D9F800A00EF0FCFE10F054F959
:103BF000594910F05DFA08F10E0B08F10108B8F10F
:103C0000030F4AF82B00CFD1B8F1070FD9F800A065
:103C10001AD10EF0E7FE10F03FF94F4910F048FAC4
:103C2000CAF84400D9F800A00EF0DCFE10F034F918
:103C3000494910F03DFACAF84800D9F800A00EF042
:103C4000D1FE8AF84C0012E00EF0CCFEC2448AF895
:103C50000100D9F800A00EF0C5FEC2448AF80B009E
:103C6000D9F800A00EF0BEFEC2448AF8150008F193
:103C70000108B8F10A0FC7D184E30EF0A9FE13289A
:103C800082463FF6DCAEDFF8C490D9F800800EF033
:103C90009FFE002331490C2202FB0312117A81425C
:103CA00020D1137808EB8A0888F879300EF090FE5E
:103CB00088F87A000EF08CFE88F87B000EF088FE03
:103CC000274A284B88F87C001A60D9F80000264B58
:103CD0000021186079300EF033FA244B80F0010097
:103CE00018704FE301331B2BD4D1A8E60EF070FE01
:103CF0000B2880463FF6A3AE144BD3F800900EF08D
:103D000067FE03283FF69BAE0BFB089B8BF8CE00AB
:103D10000EF05EFE8BF8C9000EF05AFE8BF8CA005A
:103D20000EF056FE8BF8CB000EF052FE8BF8CC0056
:103D30000EF04EFE8BF8CD0024E300BFF0290020EA
:103D4000A80E0020CC290020380F0020B80F00203A
:103D5000000020410000C84200007A44CCA00108C5
:103D6000342B0020A00E0020A40E0020080000200C
:103D70005379092B7FF663AE019BD3F800800EF0D8
:103D800027FE019B88F80000D3F800800EF020FE8B
:103D900088F801000EF01CFE019B64281B68A8BF78
:103DA000642018710EF014FE019B64281B68A8BFE4
:103DB000642058710EF00CFE019BFF281B68A8BF01
:103DC000FF2098710EF004FE019B6428D3F8008058
:103DD00028BF642088F807000EF0FAFD019B88F8E0
:103DE0000200D3F800800EF0F3FD019B88F8030079
:103DF000D3F800800EF0F6FDDAF80030A8F80A00DB
:103E00005B790A2B40F2BE82D34BD3F800800EF0D0
:103E1000DFFD88F80800B5E20EF0E4FD6FF4AF6254
:103E200083189BB2C62B98BFA4F898010EF0DAFD58
:103E3000A4F844010EF0D6FDA4F846010EF0D2FD20
:103E4000A4F848010EF0CEFDA4F8DA010EF0C0FD92
:103E500084F8EB010EF0BCFD0EF0BAFD84F8EC0125
:103E60000EF0B6FD84F887010EF0B2FD84F89401DF
:103E70000EF0AEFDB94BD3F800800EF0B3FD00EBB1
:103E800080004000A8F856001FE10EF0ABFDB44BD7
:103E900023F8180008F10108B8F1080FF5D171E214
:103EA00053790F2B7FF4CBAD0EF092FD072880469F
:103EB0003FF6C5AD029BD3F800900EF093FD0E23A4
:103EC00003FB08F8029BC144A9F81901D3F800903C
:103ED0000EF088FDC144029BA9F81B01D3F80090A5
:103EE0000EF080FDC144029BA9F81D01D3F800909B
:103EF0000EF06EFDC144029B89F81F01D3F80090BB
:103F00000EF066FDC144029B89F82001D3F80090B1
:103F10000EF05EFDC144029B89F82101D3F80090A8
:103F20000EF056FDC144029B89F82201D3F800909F
:103F30000EF062FDC844C8F8230123E20EF048FDEC
:103F40000F2880463FF67BAD0EF042FDC8EBC80857
:103F5000A04488F8D4000EF03BFD88F8D5000EF0A0
:103F600037FD88F8D6000EF033FD88F8D7000EF044
:103F70002FFD88F8D8000EF02BFD88F8D9000EF040
:103F800027FD88F8DA000EF0C1FBFBE12B785B0718
:103F900000F1F8810CF06AFD04F0ECFE04F08CFFF7
:103FA000F0E12B78580700F1ED816E4B4FF4C872A9
:103FB0001A80E7E12B78590700F1E4816A4A137807
:103FC00043F004032BE02B785A07E5D52CE208F0E8
:103FD0003BF8D7E10EF0FCFC634B1A7810B142F0CD
:103FE000020201E022F002021A700EF0F1FC5F4BB7
:103FF000DFF8988118700EF0FFFCC8F800000EF092
:10400000FBFCC8F804000EF0EDFC594B18800EF0D4
:10401000E9FC584B584A1880137843F00203137098
:10402000B0E10EF0D5FC83460EF0E6FC82460EF0C1
:10403000E3FC81460EF0E0FC80460EF0D3FC0EF06F
:10404000D1FC0EF0C5FCBBF1000F14D14B4B10207E
:10405000C3F800A0C3F8049004F031FE424A13787C
:1040600043F001031370B8F1000F00F08B81444B53
:10407000C3F8008086E1BBF1100F40F08381414B13
:10408000C3F800A0C3F80490B8F1000F02D03C4B75
:10409000C3F800803B483C4B0222011D1A7007F018
:1040A0009DFD6FE1A0600EF0A7FC04F031FE69E118
:1040B0000EF098FCA4F85C010EF094FCA4F85E01EC
:1040C0000EF090FCA4F860015CE10EF081FC84F835
:1040D0007C010EF07DFC84F880010EF079FC84F800
:1040E0007F010EF075FC84F881014BE10EF070FC4D
:1040F000607147E10EF06CFC84F892010EF072FCE6
:10410000A4F89C010EF06EFCA4F898010EF06AFC75
:10411000A4F89A010EF05CFC3B6884F893015B798B
:10412000DFF86C80082B40F22D810EF05BFCA8F8C4
:104130009E010EF057FCA8F8A00123E10EF048FC08
:1041400084F8D8010EF044FC84F8D9010EF04AFC42
:10415000A4F8DA0116E100BFE00F0020B80F00203C
:104160004A290020CC250020A4100020AA100020FD
:10417000A8100020A6100020E60F0020E80F002065
:10418000F80F0020F00F0020AC0E0020AC10002033
:10419000F029002092F805800323B8FBF3F8B8F16A
:1041A000120F3FF64CACDFF8A0934FF0000AC24567
:1041B00080F0E8800EF00CFC89F8A2010EF012FCF1
:1041C00040F2ED23984205DD40F6CA039842A8BFAD
:1041D000184601E040F2EE20A0F2EE20192390FBF9
:1041E000F3F00AF1010A89F8A30109F10209DEE7F7
:1041F00080460EF0EDFB04EB080308F10108B8F16E
:10420000080F83F88A01F4D1BCE053794FF0070915
:10421000B3FBF9F9C9EBC9029B1A13F0FF0F7FF446
:104220000EAC5FFA89F909F1FF395FFA89F9B9F142
:10423000FF0F00F0A7800EF0CBFB5FFA80FA4FFA79
:104240008AF00DF0B9FE804600283FF4F8AB80F804
:1042500000A00EF0C7FBA8F802000EF0B9FB88F82A
:1042600004000EF0B5FB88F805000EF0B1FB88F8ED
:1042700007000EF0ADFB88F80600D4E7DFF8C8822F
:1042800008F140090EF0AEFBA8F8AC020EF0A0FB5E
:1042900088F8AE020EF09CFB08F1040888F8AB0227
:1042A000C845EFD16EE00EF093FB1F2880463FF625
:1042B000C6AB3B685B79082B7FF4C1AB0EF092FB79
:1042C00008F18A0804EB880800F03F00A8F806000F
:1042D0000EF088FBB8F80630800100F4FE50184359
:1042E000A8F806000EF074FB000188F804000EF038
:1042F0006FFB98F8043000F00F00184388F80400B2
:104300000EF066FB88F805000DF066F83AE07A4B8F
:10431000012283F8352035E00EF05AFBFF28814654
:104320001BD100238DF81F309DF81F30052B29D895
:104330009DF81F00714A9DF81F30012102EBC30355
:104340005B6852F83000994089B2482203F03AFF86
:104350009DF81F300133DBB2E4E705283FF66FAB71
:1043600000200EF087FB0EF061FBD8F800000EF085
:1043700004F818B932200DF042FFF6E74FFA89F041
:1043800003F02EFF00200EF075FBFFF7A0B95C4B89
:1043900098590DF0F2FF18B932200DF030FFF6E712
:1043A0000EF074F904F0BCFC564A574BDA60FFF784
:1043B0009AB90C283ED00A2845D1544D54480EF0E5
:1043C000DDFB2846232113F03CF908B1401B206097
:1043D0002368002B5AD14D4800213022236013F06E
:1043E000FAF8039B1B7843BB4A4B1B689B0614D50A
:1043F000494B41491B688A6B9A1A002A0DDB474AD0
:104400001278042A09D903F5123303F5F873444AE4
:104410008B63D36883F01003D360424B9B68002BFF
:1044200067D04148984764E005F0AEFCFFF74FB90C
:104430000C2804D13D480EF0A1FB3D480DE07F283B
:1044400012D1FFF7B0B80D28B7D07F2809D12F4A75
:10445000013B002137482360D1540EF08FFBFFF75A
:10446000A2B82F2B3FF69FA8A0F12002D2B25E2A5D
:104470003FF699A813B920283FF495A85A1C22604A
:10448000224AD0540EF072FBFFF78DB85A1EA95C79
:10449000202901D113469CE71C4A00212360D154F6
:1044A000254B264DD3F80090D5F800A0DFF85C80AE
:1044B000504613F0D4F8064651463246404613F0B3
:1044C000D7F81F4A28B918F806304B445B785807CC
:1044D00003D010359542E7D306E0954204D2701C14
:1044E000EB684044984702E016480EF047FB002373
:1044F00071E709B0BDE8F08F380F002060C60108F1
:104500009C1100200400FA0500ED00E09C2400202E
:1045100018D20108A0100020C0330020AA100020EB
:10452000000C01404C120020740F0020CDC2010885
:10453000C8C20108F4C201086800002008AB0108E5
:10454000E8AC0108D8C20108F02900202DE9F047A5
:104550004B28A0B0044600F0378600F2B480302823
:1045600000F0C28651D8222800F0838423D8032883
:1045700000F0608114D8012800F05081022840F03A
:104580001E8704200EF076FA43200EF03EFA4C20EF
:104590000EF03BFA46200EF038FA4C2000F048BEF0
:1045A000042800F05181052840F009871A200EF0F8
:1045B00061FA00245BE1282800F0D48515D824286E
:1045C00000F0BB85262840F0FA86B54C06200EF098
:1045D00051FAB4F85C010EF050FAB4F85E010EF036
:1045E0004CFAB4F8600100F0A5BD2C2800F0CD8590
:1045F0002E2800F048862A2840F0E18601200EF09F
:1046000039FAA74B587900F013BE3D2800F0F38229
:104610001ED8362800F01D860BD8322800F00286FE
:10462000342840F0CC8648200EF024FA002500F013
:1046300042BC3A2800F0B3823B2800F013843828AB
:1046400040F0BD8604200EF015FA954C00F07BBDBD
:10465000452800F0A18627D8402800F0EC854228A4
:1046600040F0AD868E4C10200EF004FA60790EF00A
:10467000CCF9A0680EF00AFA94F892010EF0C5F990
:10468000B4F85C010EF0F9F9B4F85E010EF0F5F93A
:10469000B4F860010EF0F1F9B4F882010EF0EDF912
:1046A000B4F8840100F046BD472800F05386C0F0FE
:1046B0004086492840F0838602200EF0DBF9784BD3
:1046C000988900F037BD702800F0E88258D8692832
:1046D00000F045822AD8652800F0FE8015D84D28C4
:1046E00000F08185642840F06A8607200EF0C2F948
:1046F000E7200EF08AF96A4B58790EF086F900200F
:104700000EF083F9042000F056BE672800F0AA815D
:1047100000F2188212200EF0ADF9624B00241B88C3
:10472000B3F5806F8CBF082501257EE16C2800F071
:10473000298217D86A2800F083846B2840F03F86CE
:1047400005200EF097F9584B18880EF096F9574B44
:1047500018880EF092F9564B93F86E0000F00100A5
:1047600000F066BD6E28524D00F0208200F26E828D
:1047700006200EF07FF9E86D0EF088F94D4B0CE243
:10478000782800F07C8119D8742800F0B5830BD804
:10479000722800F01584732840F0118608200EF06E
:1047A00069F9012400F045BC762800F0698400F224
:1047B000E7832F200EF05EF93F4C4BE3A42800F076
:1047C000858414D87B2800F0EB82A02840F0F78580
:1047D0000C200EF04FF9394B18680EF057F9384B92
:1047E00018680EF053F9374B186800F0E4BDF12853
:1047F00000F08181FE2800F09084F02840F0DF85F1
:104800002B4C04200EF036F9236CB3F85A000EF04E
:1048100034F9236CB3F8580000F08CBC03200EF080
:1048200029F900200EF0F1F820460EF0EEF80C20E9
:1048300000F0FEBC0EF01EF901200EF0E6F80A2092
:104840000EF0E3F800F040BC06200EF013F9412012
:104850000EF0DBF857200EF0D8F846200EF0D5F811
:1048600031200EF0D2F8184B187800F063BC174BCB
:10487000185D01340EF0C9F80B2CF8D10024144B4C
:10488000185D01340EF0C1F8082CF8D10024114B4A
:10489000185D01340EF0B9F8072CF8D100F08DBD89
:1048A000F02900201C0000201E11002020110020F3
:1048B000780F0020741000209BA00108E8F7FF1F6C
:1048C000ECF7FF1FF0F7FF1FE3330020F4BF0108F0
:1048D00000C00108D5BF0108CC4C0B200EF0CAF86F
:1048E00020880EF0CAF8608880B20EF0C6F8C84B77
:1048F0001B68C3F3C000C3F38002800040EA42009B
:10490000C3F340021043C3F3401240EAC20003F075
:10491000100318430EF0B1F8BE4B1A88636812F00A
:10492000010F14BF4FF0020C4FF0000C12F0020FF9
:1049300002F0080814BF4FF0040E4FF0000E03F40D
:10494000475912F0040F14BF1027002749EA08093D
:1049500012F0400F03F4804814BF2026002649EAD5
:10496000080912F0100F03F4004814BF4FF400754B
:10497000002549EA080912F0200F03F4803814BF1B
:104980004FF48060002049EA080912F4807F03F4A4
:10499000003814BF4FF40061002149EA080912F4FD
:1049A000007F03F480289C4A49EA080903F40028A0
:1049B00049EA0809127803F4801849EA080903F063
:1049C000007349EA0303C2F3800243EA020343EAA5
:1049D0000C0343EA0E0E4EEA070746EA070645EACD
:1049E000060540EA050041EA00014FF000000346D9
:1049F00014BF4FF400184FF0000841EA0808217A6C
:104A00008B420BD2854A9C5C012202FA04F414EA20
:104A1000080F1CBF9A4010430133F1E70EF036F83F
:104A20007F4B93F8B40700F003BC7E4B33F91400BE
:104A3000013490FBF5F080B20EF01FF8032CF4D196
:104A4000724CA08C0EF019F8E08C0EF016F8208D48
:104A50000EF013F8608D0EF010F8A08D0EF00DF82A
:104A6000E08D67E310200EF005F800246E4B185D12
:104A700001340DF0CAFF102CF8D100F09EBC70205C
:104A80000DF0F8FF00260E247443604D01362B6CA8
:104A90002344B3F819010DF0F0FF2B6C2344B3F855
:104AA0001B010DF0EAFF2B6C2344B3F81D010DF040
:104AB000E4FF2B6C234493F81F010DF0A6FF2B6C31
:104AC000234493F820010DF0A0FF2B6C234493F8AE
:104AD00021010DF09AFF2B6C234493F822010DF075
:104AE00094FF2B6C1C44D4F823010DF0CFFF082E4B
:104AF000C9D100F062BC70200DF0BCFF484C04F13D
:104B0000700594F8D4000DF080FF94F8D5000DF0F6
:104B10007CFF94F8D6000DF078FF94F8D7000DF0E4
:104B200074FF94F8D8000DF070FF94F8D9000DF0E0
:104B30006CFF073494F8D3000DF067FFAC42E0D16E
:104B400000F03BBC10200DF095FF0024374B185DA2
:104B500001340DF05AFF102CF8D100F02EBC344D6A
:104B600000242878400000F0FE000DF083FF2B7831
:104B70009C4280F022842F4B33F814000DF07DFF0F
:104B80000134F4E72C4C06200DF074FF20880DF062
:104B900074FF60880DF071FF284B1888CAE204206A
:104BA0000DF068FF194B186E00F005BC07200DF0E2
:104BB00061FF234B1888FF28A8BFFF20C0B20DF06B
:104BC00024FF204B186880F3100080B20DF055FFD1
:104BD000B5F864000DF051FF114B93F887211A4B83
:104BE000186822B10A23584380F3100001E000F353
:104BF0000F0080B29EE20A4C02200DF03BFF94F8B9
:104C0000DE010DF002FF94F8DD0111E3780F0020C2
:104C1000A010002068110020E1330020810F002047
:104C2000F02900206E100020A80F0020BC0F0020EB
:104C300038120020CC290020882900207C10002078
:104C4000901000209C100020981000200B200DF0E8
:104C500011FFAB6E002618780DF0D7FEAB6E5878BA
:104C60000DF0D3FEAB6EC14C3344187901360DF014
:104C7000CCFE032EF6D1A36ED8790DF0C6FEA36E3E
:104C800098780DF0C2FEA36ED8780DF0BEFEA36E2C
:104C900058890DF0F2FEA36E187AC9E2B34C1E20BB
:104CA0000DF0E8FE236C00251B78022B65D1236CE8
:104CB00005F1080253F82200AD490FF045F912F052
:104CC00097FE80F30800C0B20DF09FFE236CA94947
:104CD00003EB8503D86A0FF037F912F089FE80F3F1
:104CE0000800C0B20DF091FE236C05F10E0253F8DE
:104CF0002200A1490FF028F912F07AFE80F3080093
:104D0000C0B201350DF081FE032DD0D1072D236CEB
:104D100021D1586C96490FF017F912F069FE80F313
:104D20000800C0B20DF071FE236C9149986C0FF031
:104D30000BF912F05DFE80F30800C0B20DF065FEC5
:104D4000236C93F84C000FF0A7F812F051FE80F39B
:104D50000800C0B20BE02B4458780DF056FE236CCF
:104D60002B44D87A0DF051FE236C2B44587D01352D
:104D70000DF04BFE0A2DC9D11FE3236C2B4458784C
:104D80000DF043FE236C2B44D87A0DF03EFE236CCD
:104D90002B44587D01350DF038FE0A2DEDD10CE382
:104DA0003C200DF067FE0024704D04F108022B6CCE
:104DB000714953F822000FF0C7F812F019FE80B2C3
:104DC0000DF05BFE2B6C6C4903EB8403D86A0FF08B
:104DD000BBF812F00DFE80B20DF04FFE2B6C04F10B
:104DE0000E0253F8220064490FF0AEF812F000FEF4
:104DF000013480B20DF041FE032CD5D1072C2B6C71
:104E000016D1586C5C490FF09FF812F0F1FD80B29A
:104E10000DF033FE2B6C5849986C0FF095F812F09A
:104E2000E7FD80B20DF029FE2B6C93F84C000BE0EF
:104E3000234458780DF021FE2B6C2344D87A0DF0D2
:104E40001CFE2B6C2344587D01340DF016FE0A2CF9
:104E5000D4D1B2E214F8010F002800F0AE820DF0B8
:104E6000D4FDF7E701200DF005FE404B1B6C1878D0
:104E7000DEE150200DF0FEFD00253C4B0C211C6CAA
:104E80003E4B04EB850494F87920013501FB023395
:104E900093F838000DF0B9FD94F87A000DF0B5FDE7
:104EA00094F87B000DF0B1FD94F87C000DF0ADFDA1
:104EB000142DE2D181E22D4B1C6C062303FB05442B
:104EC00094F8CE000DF0A1FD94F8C9000DF09DFD01
:104ED00094F8CA000DF099FD94F8CB000DF095FD03
:104EE00094F8CC000DF091FD013594F8CD000DF053
:104EF0008CFD0C2DDFD160E24FF000080126002769
:104F00001A4B1A7A974227DA0933FA5C00240C23E9
:104F100063431A4D05F13001595C914207D12B448E
:104F2000586B12F09CFB82462EB9B14605E0013465
:104F30001B2CECD10EE080440CE0D1450ADA0C23A6
:104F400003FB04535B6B13F809000DF05EFD09F1E0
:104F50000109F2E70137D3E7002E00F02E825FFA55
:104F600088F00DF087FD0026C9E700BF780F00200C
:104F7000000020410000C84200007A449CA00108C3
:104F8000CC4D0024287A0DF075FD2B7A9C4280F0E0
:104F90001482C94B0021E65C0C2202FB01F3C748D6
:104FA00000F13007DA5DB24205D1034493F83800CE
:104FB0000DF02BFD02E001311B29EDD10134E4E7B6
:104FC000BF4C16200DF056FDB4F898010DF055FDBC
:104FD000B4F844010DF051FDB4F846010DF04DFD5B
:104FE000B4F848010DF049FDB4F8DA010DF045FDC3
:104FF00094F8EB010DF009FD00200DF006FD94F88A
:10500000EC010DF002FD94F887010DF0FEFC94F820
:1050100094010DF0FAFC00200DF0F7FCA54B0A20DE
:105020001B6CB3F9563093FBF0F080B20DF025FD08
:1050300089E0E0B201340DF0E8FC092CF9D1BCE1C3
:1050400010200DF017FD9F4B9F4C187800F00200C8
:105050000DF0DBFC9D4B18780DF0D7FC20680DF0AF
:1050600015FD60680DF012FD994B18880DF005FDD7
:10507000984B18880DF001FD8E4BB3F86C0059E089
:105080000DF0A6FC074612200DF0F4FC894C17B970
:10509000266F656F05E0102F19BF00252E46A66FFD
:1050A000E56F38460DF0B1FC30460DF0EFFC2846B8
:1050B0000DF0ECFCD4F880000DF0E8FC00200DF0C1
:1050C000DCFC00200DF0D9FC0020B1E0794D00247B
:1050D00095F884002E4680000130C0B20DF0CAFC65
:1050E00095F884000DF091FC96F884309C4280F095
:1050F0006481794D285D0DF088FC05F11003185D81
:105100000DF083FC05F12003185D30350DF07DFCBA
:10511000285D0DF07AFC0134E6E708200DF0AAFCCA
:1051200000200DF0AAFC00200DF0A7FC00200DF0DF
:10513000A4FC00200DF0A1FC3FE104200DF09AFC3E
:105140005F4B986837E194F87C010DF05EFC94F8B1
:1051500080010DF05AFC94F87F010DF056FC94F894
:10516000810165E0564C07200DF084FCB4F8820103
:105170000DF083FCB4F884010DF07FFC94F88601F7
:105180000DF043FCB4F88801D4E74D4C0C200DF031
:1051900071FC94F892010DF038FCB4F89C010DF00C
:1051A0006CFCB4F898010DF068FCB4F89A010DF0AD
:1051B00064FC94F893010DF028FCB4F89E010DF006
:1051C0005CFCB4F8A001B5E73D4C04200DF052FCA6
:1051D00094F8D8010DF019FC94F8D9010DF015FCE4
:1051E000B4F8DA01A6E73D4C3D4D2078002600EBEF
:1051F0004000C0B20DF03EFC237802359E4280F0A4
:10520000DC8015F8020C0DF000FC15F8010C0136DD
:1052100000EB800000EB800000F2EE2080B20DF089
:105220002CFCE9E701200DF025FC254B93F89401B7
:105230000DF0EBFBC1E008200DF01CFC0024204B1E
:10524000234493F88A0101340DF0DFFB082CF6D1DA
:10525000B3E0184B1A4C93F8C50004F12805C0EBD5
:10526000C000C0B20DF006FC94F8F20100231D4A04
:10527000D25C904200F0A5800C333C2BF7D108346F
:10528000AC42F1D199E040200DF0F4FB0C4C04F15C
:105290004005B4F8AC020DF0F0FB94F8AE020DF04E
:1052A000B4FB043494F8AB020DF0AFFBAC42F0D188
:1052B00083E000BF780F0020810F00209CA0010830
:1052C000F0290020A4100020AC100020AA1000201B
:1052D000A8100020A6100020FD0F0020381200208A
:1052E000922B002008130020E0200DF0C3FB424C5D
:1052F00004F18005B4F82E02043400F03F000DF0F4
:10530000BCFBB4F82A02C0F386100DF0B6FB94F88B
:10531000280200090DF079FB94F8280200F00F0034
:105320000DF073FB94F829020DF06FFBAC42E1D154
:1053300043E0324C0D200DF09DFB09F003FD0DF014
:1053400064FB20880DF0A2FBE0680DF09FFB06F0E7
:1053500083FD30E00DF050FB054684200DF08AFB04
:1053600028460DF093FB254BDC6805F18003A34232
:105370008CBF641B802406F029FE2846224669461D
:1053800009F014FD05460024AC4216DA1DF80400AD
:105390000DF03BFB0134F7E713200DF06BFB00240D
:1053A000174B185D01340DF030FB0B2CF8D10020A9
:1053B0000DF06CFB00200DF069FB012018E00020CF
:1053C00016E00DF022FBB4F8F4010DF056FB94F852
:1053D000F6010DF01AFB94F8F7010DF016FB94F8A6
:1053E000F9010DF012FB94F8F8010DF00EFB46E701
:1053F00020B0BDE8F08700BFF02900200C0000209D
:10540000F4BF01086B4B6C4A2DE9F04F5E891468BC
:105410004FEA062AB4EB0A0A9C884FF000054FEACF
:1054200004481C894FF0000BA4FB0A6765EB0B0BCB
:1054300004FB0B77F40944EA476418EB04065C8824
:105440004FF000094FEAE7154FEAC438DC8849EB12
:10545000050787B0CDE90467A4FB0A6704FB0B7757
:10546000340A44EA076418EB04064FEA27259C89AE
:105470004FF0000949EB0507CDE90067AAFB046777
:1054800004FB0B77F40D44EA472414F5FA664FEA5F
:10549000E75545F10007B6F5FA6F77F10003CDE95E
:1054A0000267964666DADDE90489A4FB046704FB1B
:1054B00005F34FF0050C07EB4307A6FB0C230CFB91
:1054C00007335F104FEA3206B8EB06084FEA920640
:1054D00046EA837669EB07099F10DDE90023921BFA
:1054E00063EB0703CDE90023DDE90267334A4FF0A0
:1054F000FF33964277EB0303CDE9048927DA40F6C0
:10550000AC520023A4185D4104FB05F3A4FB044541
:105510006FF0060205EB4305664202FB0566A4FB3D
:105520000223334418EB020649EB0307CDE9046775
:105530000B26A4FB062306FB0533DDE900455B10C3
:105540004FEA3202A41A65EB0305CDE90045DDE917
:1055500002450AFB0BF3AAFB0AAB0BEB430B4FEA2A
:10556000DA7242EA4B02A41A4FEAEB7365EB0305C9
:10557000CDE90245DEF80440009B019DA4FB032316
:1055800004FB05334FEA525848EAC3284FEA6359EF
:10559000DDE90423B8EB020269EB03039946D30B60
:1055A00043EA494300B1036009B1029B0B6007B0B5
:1055B000BDE8F08F6C1200204010002024FAFFFF9D
:1055C0002DE9F04FDFF8589285B00746D9F808006A
:1055D0000E460EF065FC8E4C804620880EF05CFC7A
:1055E0004FF05C51054640460EF0AEFC4FF0645162
:1055F000824628460EF0A8FC014650460EF09AFB63
:105600004FF06251824640460EF09EFC4FF06A51C8
:10561000804628460EF098FC014640460EF08AFB74
:105620000546B4F902000EF03BFC014628460EF098
:105630008BFC5146054650460EF086FC8046B4F978
:1056400004000EF02DFC014640460EF07DFC0146A4
:1056500028460EF071FB80460EF03CFE6D49054673
:10566000A06140460EF024FDD9F80C308046284653
:1056700001930EF015FC4FF07C510EF065FC66496D
:105680000EF058FB0546E389B4F90A0002930EF0C8
:1056900007FC29460EF058FC29460EF055FC4FF049
:1056A00058510EF051FC8146B4F90800B4F810B01E
:1056B000B4F80CA00EF0F4FB29460EF045FC0146B0
:1056C00048460EF039FB4FF058510EF03DFC4FF0BC
:1056D00060510EF039FC4FF07E510EF02DFB8146EB
:1056E000E0880EF0D9FB014648460EF02DFC002163
:1056F00081460EF0BDFD00287BD1294628460EF0DC
:1057000023FC03900FFA8BF00EF0CAFB039B0146BB
:1057100018460EF019FC4FF060510EF015FC834650
:10572000BDF908000EF0BCFB014628460EF00CFC4B
:1057300001460EF001FB014658460EF0FDFA4FF00F
:105740007A510EF001FC834601980EF0A9FB014648
:105750004FF093400EF0EEFA05460FFA8AF00EF085
:105760009FFB4FF08F410EF0EFFB014658460EF0C5
:10577000E3FA4FF066510EF0E7FB014628460EF0C3
:10578000D9FA26490EF0E0FB49460EF091FC054699
:10579000B4F916000EF084FB29460EF0D5FB29461D
:1057A0000EF0D2FB4FF040510EF0CEFB8146B4F923
:1057B00014000EF075FB014628460EF0C5FB4FF0B5
:1057C00060510EF0C1FB014648460EF0B5FA814625
:1057D000B4F912000EF064FB014648460EF0ACFA34
:1057E0004FF076510EF0B0FB014628460EF0A4FAB9
:1057F00000E0002017B10EF06DFD38602EB140467C
:105800000EF068FD64235843306005B0BDE8F08FAA
:10581000CC1200200000A04500007A470050C3458C
:1058200040100020704770472DE9F041324C334D55
:1058300062892B8AB4F904809A1A2389B4F902E0A8
:105840005A43B4F91230D613B4F91420DB023244AF
:1058500093FBF2F232440A26E2615643A2F57A62E1
:1058600002FB02F3B4F90EC002FB0EFE02FB08F2CB
:10587000B4F90C801B130CFB03FC03FB08F31B1493
:1058800003EB62320232E388921002F50042534386
:105890004CF25032B4F920704FEAEE2EB4F90040C9
:1058A0000EEBEC2C0CEB8404BC406D690234A5EBD0
:1058B000A4043A4162434FEAD3384EBFB2FBF8F337
:1058C0005400B4FBF8F340F6DE3448BF5B001A1214
:1058D000524362430A4C08365C43241404EB2242D0
:1058E00002F6CF62361103EB221300B1036001B15F
:1058F0000E60BDE8F08100BF801200204010002043
:1059000043E3FFFF024B4FF480521A80704700BF01
:105910001C0000207720482101220CF0F5BA7720E6
:10592000582101220CF0F0BA7620F42131220CF03B
:10593000EBBA074B002193F82020064B920134323A
:1059400019767720F42102F0FC020CF0DDBA00BFDA
:105950008012002040100020034B00221A7677208E
:10596000F4212E220CF0D0BA4010002008B50F21EF
:10597000082218200CF0C8FA0E22182010210CF072
:10598000C3FA024B4FF480521A8008BD1C0000205D
:1059900008B5134B53201B782D2108227BB10CF046
:1059A000B3FA31210A2253200CF0AEFA2C210C223A
:1059B00053200CF0A9FA53203821902209E00CF072
:1059C000A3FA31210A2253200CF09EFA53202C21F5
:1059D0000A220CF099FA40F20912024B1A8008BD13
:1059E000681200201C00002007B5002101AB032233
:1059F00077200CF049FA9DF805309DF804001B0251
:105A000043EA00439DF80600184303B05DF804FB29
:105A100008B5FFF7E9FF014B586008BD40100020B2
:105A200008B5FFF7E1FF014B186008BD40100020EA
:105A300007B5F7216B46062276200CF025FA9DF873
:105A400000309DF801101B0343EA01139DF802107A
:105A5000094A43EA1113D3609DF803309DF80410FE
:105A60001B0343EA01139DF8051043EA11139360E9
:105A700003B05DF804FB00BF4010002013B5104CCC
:105A8000237E1BB9638B0133638316E0032201ABD2
:105A90007720F6210CF0F8F99DF805309DF80420E8
:105AA0001B0243EA02439DF806201343054AB2F95C
:105AB0002020C2F10802D340636102B010BD00BFD4
:105AC000401000208012002013B50B4C237E1BB920
:105AD000638B013363830CE0022201AB7720F62154
