:020000040800F2
:10000000005000204D520108ED520108353C010816
:10001000ED520108ED520108ED5201080000000008
:10002000000000000000000000000000ED52010888
:10003000ED52010800000000ED5201084B060108D6
:10004000ED520108ED520108ED520108ED52010890
:10005000ED520108ED520108C9AA0008C5AA00081E
:10006000ED520108ED520108ED520108ED52010870
:10007000ED520108ED520108A5C00008ED5201083B
:1000800065E00008ED520108ED520108ED5201084B
:10009000ED520108ED520108ED520108C1AA000815
:1000A000ED520108D5CF0008ED520108E5CF000858
:1000B000C5CF0008B5CF0008A5CF00086D630008C4
:1000C000716300086563000869630008ED52010868
:1000D000ED5201089DC0000895C000088DC00008C1
:1000E00059060108ED520108ED5201080000000018
:1000F0000000000000000000000000000000000000
:0C01000000000000000000005FF808F1A3
:100110002DE9F04F764B774EA3B033600023736028
:1001200010F026FE18B910F045FE08F0E5FF09F0C2
:1001300089F8714A714C1378714D43F001031370C3
:1001400000230A930B930C934FF4E0130D93236851
:10015000A87B43F480332360A36943F01003A361B9
:10016000236803F400330B930A9B01330A930B9B20
:100170001BB90A9BB3F5A06FF2D123685F4913F452
:10018000003301D0022315E00A6842F001020A6040
:100190000A93236803F002030B930A9B01330A932B
:1001A0000B9B1BB90A9BB3F5A06FF2D123689A078A
:1001B00039D501230C93534B53491A6842F010026E
:1001C0001A601A6822F003021A601A6842F00202EA
:1001D0001A606368636063686360636843F48063A4
:1001E00063604A4B1A68043B22F070425A60484AE6
:1001F0001160616821F47C116160596841F000412F
:100200005960D96821F40041D9609B681B0449BF3B
:10021000404B4FF4E01313604FF480130D930C9B8D
:10022000012B01D117E0FEE7022B18D168B10D9B1D
:10023000B3F5801F02D14FF4A01305E00D9BB3F579
:10024000E01F02D14FF400130D930D9963680B4327
:1002500043F4803302E0636843F46013636023680F
:1002600043F0807323602168244B8F01FBD55968CC
:1002700021F003015960596841F002015960636837
:100280001E4903F00C03082BF9D14B68DFF890806E
:1002900003F00C03042B03D0082B03D01A4B12E0FD
:1002A000136810E04B684868C3F38343C00303F14D
:1002B000020301D4184905E0496811F4003F1168B0
:1002C00018BF49084B43C8F800306368134FC3F3A5
:1002D00003133B44197ED8F800300697CB40C8F88A
:1002E00000301368084A93421CD101221EE000BF6F
:1002F000CF880008D8000020E03300200010024022
:10030000601100200020024000127A000410014019
:1003100038000020001BB70000093D00BC9F010809
:1003200060000020A94A934202D10222A84B1A7011
:10033000DFF800B3A74BDFF8C492CBF80C30A36909
:100340004FF0000A43F00103A361636AA248B3605F
:10035000636A43F080736362A36943F01C03A36183
:1003600022AB04934FF6FF73049A8DF85EA022F837
:100370002C3D114604920DF080FF484604990DF083
:100380007CFF049995480DF078FF954A04985368CE
:1003900043F0007353600BF0E9F8924A179B514603
:1003A000B3FBF2F3904A914813600C2217F021FB43
:1003B000D8F800304FF47A72B3FBF2F38C4A013B69
:1003C0005360F0238BF823300723C2F808A0136092
:1003D000AB68DFF86482049FDFF860B2C8F80030D1
:1003E0009BE80F0087E80F00A369179843F0080304
:1003F000A361A36918A943F00803A3610823C9F8FE
:1004000010301023C9F810300DF037FF19981AA9D1
:100410000DF033FFD8F80030DFF824A21B0751D5C8
:100420009AF89231012B4DD8049BDBF81000194645
:10043000186048469AF893A10DF01FFF0A2010F0AB
:10044000EFF8D9F8083003F020039BB2002B39D124
:10045000684A9268D70040F11A86D80732D5664BB1
:10046000DFF898A11868DFF870914FF0100BCAF808
:1004700014B00499179048460DF0FFFE0823C9F800
:1004800010303C2010F0D7F8CAF810B04FF0000B35
:1004900095F893319B4515DA584B4FF0080AC3F88D
:1004A00010A078200593C9F814A010F0B9F8059BA6
:1004B0007820C3F814A0C9F810A010F0B1F80BF11F
:1004C000010BE5E7642010F0B6F8A0224C480021AB
:1004D00017F08FFAE369002243F00703E361A36991
:1004E00043F4006343F00C03A361424B4FF0000957
:1004F00003F10C0102F8019001320E2AF5D1FF221E
:100500009A76DA761A775A773E4B3F4A49461A600E
:100510003E483C22D8F8004017F06BFA4946C4F335
:10052000801805233A4ADFF8E4E0885C0C224A434D
:1005300002F80E00B8F1000F08D11E3801289FBF45
:10054000FF2003F1FF3302F80E00DBB20131052971
:10055000E8D1304A95F805B013702F4B2F4983F836
:1005600000B02F4B234A3362C0330B602D4BA106E2
:1005700003EBCB035B7848BF01235362002340F2B7
:10058000DC51294A22F813100133082BF7D110A8A7
:1005900000211C2217F02DFA14F4007A04F40069EB
:1005A00050D0A3040BD4B9F1000F0AD01F4B95F81B
:1005B0008611A3F10C02012908BF134602E01C4B6F
:1005C00000E01A4B0593049B16933DE0001BB70017
:1005D0000B3400200005FA0500080140001001401E
:1005E0000000014040420F00742E0020541B0020E8
:1005F00010E000E0D8000020F89F0108000C014046
:10060000BC2E00209C1B002054130020A01B0020A7
:10061000A8C801081511002090090020D82F00203B
:100620007411002084C6010880100020C89F0108B2
:10063000BC9F010800ED00E094310020E49F010818
:1006400060110020CDF814A0BBF10E0F03D00BF009
:10065000EF03082B02D101238DF8523001200FF057
:10066000A7FE18B14088003018BF0120C4F3400332
:100670008DF84630C4F3403300F001008DF840306F
:10068000C4F3C0338DF845008DF848808DF84330B1
:10069000B9F1000F07D095F8869109F1FF37D7F12E
:1006A000000949EB0709C4F300438DF84930736A28
:1006B0001AF1000A18BF4FF0010A003318BF0123D6
:1006C0008DF84B30C4F30053B5F848018DF84C3029
:1006D000B5F84A31ADF85600ADF85030E004B5F841
:1006E000563148BFB848ADF84E30C4F3804348BFD8
:1006F000B0F850018DF84730B5F8543148BFADF827
:100700005600B3F5FA7FADF8543084BF0023ADF83E
:10071000563095F8D631AD4886F82830002386F853
:10072000293043709DF8523004F00101002BC4F3CE
:10073000C0028DF844908DF841108DF842208DF85C
:100740004AA00CBF0023022301B902B10133069A6B
:100750004FF0000802EB83073B6CA3F102091A3348
:1007600006934FF6FF7339F8022F9A4200F08B81FF
:100770009DF84510D3B2120AD5B219B1991E0129BC
:1007800040F27D819DF8481031B1914819014058DF
:100790009049884200F073819DF8497037B18C48C8
:1007A000190140588B49884200F069819DF8461034
:1007B00051B18748884C00EB03104168A14203D136
:1007C0000189102900F05B819DF8431051B18048E8
:1007D000814C00EB03104168A14203D10189022939
:1007E00000F04D819DF8441051B179487B4C00EBED
:1007F00003104168A14203D10189022900F03F8121
:10080000169E7EB1724C316804EB03146068884216
:1008100008D12189B088884200F03181F08888426F
:1008200000F02D81022A02D19DF8402003E0012A28
:1008300004D19DF84120002A00F021819DF84B2031
:10084000634C1E015AB19DF8522042B9A3F108022F
:10085000012A04D8A25962498A4208BF04259DF89A
:100860004C20344452B19DF852203AB917B10C3B98
:10087000012B01E0043B032B40F2E980012D47D11D
:10088000584FFF2387F8703087F87130504B4FF086
:10089000000A9A19517B506802F1080B12898DF8F1
:1008A0005E10ADF85C2017A9022287F874A0C7F883
:1008B000804007938DF85F2087F82CA0C7F830A000
:1008C000C7F834A0C7F838A0C7F86CA087F872A0A2
:1008D00087F873A00DF0D1FC079B9BF80210985984
:1008E000524609F03EFF204651462A460BF02AFBAD
:1008F0003D4BC7F88CA0C7F884303C4B2046C7F866
:10090000883007F1840107F188020BF063FBB6E041
:10091000022D49D15FFA88F31C2101FB03FC2C4A0C
:10092000304B911903EB0C0A91F80DE001F108032B
:100930004868098900274FF0010B8AF87580ADF8E7
:100940005C108AF8767017A98AF87E708AF874B0FD
:10095000CAF88040CDF824C08DF85EE00892079375
:100960008DF85F500DF089FC079B089A9978905993
:100970003A4609F0F6FE204639465A460BF0E2FAAE
:100980001B4A184BDDF824C0CAF884209C44194A3D
:100990000CF18401CAF88820CAF88C7020460A1D20
:1009A0000BF018FBD8446AE0032D4ED19DF8473078
:1009B0000C4D114E13B395F82A70204608214FF6BE
:1009C000FF72002335E000BF60110020010100200C
:1009D00014C301080004004000080140000C01405D
:1009E000002C0140D8000020D1A10008B1A20008CD
:1009F0009DA70008A7A10008882E0020BDF854205C
:100A000095F82A70B2F5FA7FBDF856300BD98549B2
:100A10002046B1FBF2F2082192B209F0F7FE824BB8
:100A200046F827000AE081492046B1FBF2F2012195
:100A300092B209F0EBFE7E4B46F82700C36095F8B2
:100A40002A30013385F82A3019E0042D17D1BDF87A
:100A50004E20764B774D93FBF2F22046BDF8503096
:100A6000012192B295F8296009F0D0FE95F829305D
:100A700005EB86060133C6F8540185F82930069B3C
:100A800099457FF46EAE6B4D6B4B95F82920002491
:100A900085F87421694A1C7016789846A6F11702E9
:100AA000022A19D82B6A0021185903EB040913F004
:100AB0007DFB10B16B6A5BBB25E0614F99E80F00CD
:100AC000274487E80F0098F8003010340133C02C19
:100AD00088F80030E6D1EDE75A4B13F836E003EB27
:100AE000C603D3F804C088F800E0BCF1000FE1D0E1
:100AF0007445DFDA524F23011F4463440FCB0134A6
:100B000087E80F00F4E7504F3B68DA0424D41DE077
:100B10004E4B4F4A13F8360003EBC6035C68107067
:100B2000002CF0D000238342EDDAC3EBC30162183E
:100B3000D2F800C0DFF840E1013341F80EC001EB0C
:100B40000E079188B9809279BA71ECE706F0EF034D
:100B5000082B404B25D126E098F80030012BF5D921
:100B60003D4C04EB031303F1100810344445EDD061
:100B700054F8100C4FF07C5113F084F94FF07C5175
:100B800044F8100C54F8140C13F07CF94FF07C511D
:100B900044F8140C54F80C0C13F074F944F80C0CD1
:100BA000E3E70E2E08D11A78182E42F010021A70C0
:100BB00008D10FF0E5FF05E01A78192E22F0100297
:100BC0001A70F5E70FF0C0FF3B68244C5B035EBF73
:100BD000234B01221A70234B23481A78994642F07E
:100BE00004021A70214A11789046022934BF142356
:100BF00010238DF85E304FF002038DF85F30A3694B
:100C00004FF4805243F00403ADF85C2038BF002657
:100C1000A36128BF012617A90DF02FFB144B6EB35B
:100C2000144A2CE000127A00D1A2000840420F00C2
:100C3000C1A20008D8000020B82E00209009002092
:100C4000CC08002084C601089431002000AF0108C0
:100C5000642F00205C190020D408002000100240FE
:100C6000F80D0020E0330020000801400B34002084
:100C7000F0330020C9000108652F0020724A0020CF
:100C80001A600FF0F7FC714B714E93E80300049B60
:100C90004FF0030B83E80300A369179843F00803A0
:100CA000A36118A90DF0E9FAE369304643F48043E3
:100CB000E3612369049943F48043236118238DF889
:100CC0005E304FF42043ADF85C308DF85FB00DF02E
:100CD000D4FA04224FF48043304604998DF85E2004
:100CE00006924FF4805AADF85C300DF0C6FA10232E
:100CF000304604998DF85E30ADF85CA00DF0BDFA79
:100D00002369322043F480432361236923F4804321
:100D10002361504B198801F4415141F4457141EA76
:100D20000B011980998B21F400610904090C998346
:100D300007211982198889B241F0400119809F2347
:100D4000C6F810A08DF83C3000238DF83D308DF8AA
:100D50003E308DF83F300FF06EFC069AC6F814A0B6
:100D600004980FA912F092F8C6F810A09DF85E3012
:100D70009DF85D201B0243EA02439DF85F20134368
:100D8000354A934215D032200FF055FCC6F814A016
:100D9000F52012F0B1F8FF2012F0AEF87028C6F876
:100DA00010A006D198F80030022B04BF2B4B83F81B
:100DB00000B098F80030032B0CBF1F20022006F073
:100DC0008AFE98F80030032B03D001200DF0A6FC1A
:100DD00007E002200FF0ECFA0028F6D04388002B41
:100DE000F3D03E684FF0100B06F40043049306F472
:100DF000006306931A4B002118465A46079398F849
:100E0000008016F0F6FD4FF6FF72079BADF83C2010
:100E100002224FF0000A16EA02018DF83E208DF8FA
:100E20003FA01E4620D022A921F84CBD0D480AF053
:100E300049FD042333700722012386F801A0B37013
:100E4000F2709A4611E000BFDD0001080CA0010815
:100E5000000C014000380040152020000B34002019
:100E600048230020000801408A46B8F1010F12D93A
:100E7000202222A921F84C2D89480AF023FD0522C1
:100E800001233272B3720AF10102072386F809A026
:100E9000F3725FFA82FA049B8BB122A9022221F835
:100EA0004C2D7F480AF00EFD01220AEB02010723B8
:100EB00086F805A03271B271F3715FFA81FA069B70
:100EC00093B1022222A921F84C2D76480AF0FAFCAF
:100ED000092201233273B3730AF10102072386F852
:100EE0000DA0F3735FFA82FA62686F4842F44042E1
:100EF00062606269DFF8B08142F001026261A2695A
:100F000042F40072A2610AF0B9FA684A002417920A
:100F1000674ABAF1010F189294BF224680221C92B0
:100F20004FF480721D924FF480621E922022404640
:100F30001F9217A94FF4005220921994CDF868A07F
:100F40001B94219407F028FCD8F80020594942F05E
:100F50000102C8F800204A68BAF1010F22F4702299
:100F600094BF0020012022F4807242EA00224A60ED
:100F70008868514A0AF1FF33024042F4602242F08D
:100F800002028A60CA6ADBB222F4700242EA0353A8
:100F9000CB62012332199178002963D0305D591C4E
:100FA0000928C9B2D278DFF80CC112D9A0F10A0E13
:100FB000DCF80CA00EEB4E0E4FF0070808FA0EF806
:100FC0002AEA080802FA0EF248EA0202CCF80C20DB
:100FD0000FE0DCF8108000EB400A4FF0070E0EFA2D
:100FE0000AFE28EA0E0E02FA0AF24EEA0202CCF8D3
:100FF0001020062BDFF8BCE010D8013BDEF83420CF
:1010000003EB83034FF01F0C0CFA03FC22EA0C02E3
:1010100000FA03F31343CEF8343022E00C2B10D83F
:10102000073BDEF8302003EB83034FF01F0C0CFA74
:1010300003FC22EA0C0200FA03F31343CEF830302B
:101040000FE0A3F10D02DEF82C8002EB82021F23D9
:10105000934028EA030C00FA02F34CEA0303CEF8AB
:101060002C300B460434102C94D1124B9A6842F465
:1010700080729A609A6842F001029A609A6842F01F
:1010800008029A6099680B4A0C0717D5FAE70AF12B
:10109000FF33092B8CBF00230123FFF7DEB900BF0C
:1010A00000080140000C0140080002404C240140AF
:1010B0005823002000240140FDF7F1FF936843F01E
:1010C00004039360C14B9E6816F00406FAD1C04C2D
:1010D0009A68B4F85C0142F4A0029A60002840F0DB
:1010E0001386B4F95E31002B40F00E86B4F96031FE
:1010F000002B40F009863B6898031FD5C8200FF0ED
:101100009AFAAE200DF075FA08B10DF077FA85F86D
:101110007501C8200FF08FFAAE4B0021C5F8783169
:10112000AD4D0C22284616F064FC0223EB700EF045
:1011300024FC0FF059FAA94B0344AB60A84D94F876
:101140006CC12B68B4F86401B3F956E094F86311EC
:1011500094F86B21CDF800E0B4F80CE06346CDF8CC
:1011600004E094F80FE0CDF808E006F01BFE10B99B
:1011700001200FF0DBFA99F80030102243F002034F
:1011800089F80030974B4FF00A085A6108221A611B
:10119000DFF850921920D9F80C3008F1FF3883F0AD
:1011A0001003C9F80C30D9F80C3083F00803C9F8E3
:1011B0000C300FF040FA01200FF05CFA19200FF00C
:1011C0003AFA00200FF056FA18F0FF08E0D1082391
:1011D000C9F810304FF0100A834BC9F810A01A68F4
:1011E000984612F0080F09D0804BC9F814A01B686C
:1011F00098477F4B0122C9F810A01A707D4BDFF889
:101200001C921B68187B12F0E9FD7B4912F03AFE34
:1012100007F046FE8246B9F8000012F0DFFD5146A5
:1012200012F030FE16F0F2FD744B1880B9F8000091
:1012300012F0D4FD0146724812F0D8FE714912F046
:10124000D5FE714B6C491860704B186912F01AFE8C
:101250006F4912F017FE6F4BFF2118606E4B1B2277
:10126000184616F0C6FBDFF8B8E10022734602709C
:10127000D8F80020012112F0020F8EF800101FBFD5
:10128000417003218EF80010022118BF81705107B0
:1012900041BF9EF8001001F1010E83F800E04FF00D
:1012A000030E48BF00F801E012F00A0F0ED01A78C2
:1012B00004218154511CC9B24FF0050E00F801E021
:1012C000D11C02321970D2B20621815439688F06BE
:1012D00041BF1A78571C1F70072748BF87540A065A
:1012E00008D51A7809278754971C01321F70D2B28B
:1012F0000A2787546779082F01D00E2F08D11A7852
:1013000002F1010E83F800E04FF00B0E00F802E04E
:101310001A7811F4803F4FF00C0C00F802C002F173
:10132000010E1CBFDFF8F8C002325FFA8EFE83F8B0
:1013300000E01FBF8CF80020374A4FF00E0C02F877
:101340000EC04A0748BF1A784FF0120C41BF02F195
:10135000010E83F800E04FF0100E00F802E01A785A
:1013600011F4806F02F1010E5FFA8EFE83F800E047
:1013700000F802C00ED094F820C2BCF1000F09D0D2
:10138000DFF89CC002328CF80020234A4FF0130C87
:1013900002F80EC01A7811F4007F4FF0140C00F818
:1013A00002C002F1010E1CBFDFF874C002325FFA06
:1013B0008EFE83F800E01FBF8CF80020164A4FF025
:1013C000150C02F80EC0182F40D12BE0002401406C
:1013D00060110020EA1200203C2D0020404B4C0000
:1013E00090100020000C0140581900208C1B002098
:1013F000F4050020DC07002035FA8E3CF8070020B9
:101400000AE81C4100401C4610070020E41A002096
:10141000BD378635D807002059100020280000204D
:10142000581000201A784FF0160E00F802E002F172
:10143000010E5FFA8EFE4FF0170C00F80EC002F19D
:10144000030E0232D2B283F800E087540A0341BF90
:101450001A78571C1F70192748BF8754CF0541BF02
:101460001A78511C19701A2348BF835400219822FE
:101470009E4816F0BEFA06F0C8FB9D4A9D4BB4F894
:1014800052111A609C4BB4F8980119809B490023B3
:101490000B808B709A490A6081B29A4A22F8131025
:1014A0000133122BF9D1984F3B68D9045CBFB4F8D3
:1014B0009E1111801B0740F1C58094F89231062BD4
:1014C00000F2BA80DFE803F004070E3954747400A8
:1014D00045F2F05201E042F6F8228C4B1A8006F0F9
:1014E0001DFCA8E042F6F822884B1A8012F076FC28
:1014F000874912F0C7FC874912F0BAFB12F0AEFE22
:101500000023854A42F823000133122BF9D1834A84
:10151000834940201160834A13700EF083FF002836
:1015200000F08A8001234FF0070A90F90000402163
:101530008DE808047C4A7D4B78E042F6F822734B34
:1015400040201A807A4A754B1A60764B10221A7026
:101550000EF068FF00286FD001234FF0000990F9CA
:10156000000040218DE80802724A4FF4E1335DE04B
:1015700042F6F822654B40201A806F4A674B1A608A
:10158000684B08221A700EF04DFF002854D001233A
:101590004FF0000C90F9000040218DE80810674AD8
:1015A0004FF4E13306F0C4FA654BC3F87C013FE029
:1015B00042F6F821554A062B11805A494FF00C0289
:1015C000DFF8B4C1DFF8B4E15E4C5F480A700FD0B9
:1015D000002323708CF800308EF800301B2303703A
:1015E0005A4B4FF4E1341A70594B05221A700CE033
:1015F000002121708CF800108EF80010212101705C
:101600005249544C0A70524A1370534A434B40207B
:101610001A600EF007FF78B101234FF0000E90F929
:1016200000008DE8084023464C4A402106F080FA2D
:10163000003018BF012028B9082007F023FD484AD0
:10164000364B1A603B68374A13F4804F1FBF08219E
:1016500011704448314918BF086042F20101194035
:1016600099B144F6206029490880980441BF0821B7
:1016700011703D48294948BF0860D90741BF0C2176
:1016800011703A48254948BF086011781C06A1F13D
:101690000401517040F1AE802948DFF8E4A04FF01A
:1016A0000009334CC0F880A14946152200F5C270EC
:1016B000DFF8D0B084F80190C4F80490C4F8089022
:1016C00016F097F9AAF105034846CBF800300BF065
:1016D000AAF9284B02201B68E3600EF0A3FE002845
:1016E00052D1802007F0CEFC7DE000BF341A0020EC
:1016F000EA1200202C0F0020300F0020FC230020D5
:10170000F0230020D0310020943100203808002040
:10171000CDCCCC3F0000B044242200202C0000207F
:10172000B5B10008D01A00202DB40008A086010031
:10173000A1B1000881B3000889B1000835B30008E1
:10174000D80000208C2200208E220020B121002011
:101750008F22002090D00300B1B0000815B200081D
:1017600011B20008E5B1000801B20008F1B10008AB
:101770002C070020B8310020B22100208D2200204B
:10178000541300204C07002090F805E06378C74907
:101790000C2202FB03125278724504D00133DBB2F3
:1017A000042BF4D900236370DBF8003062781B78D7
:1017B00090F90000002B4FF00C0303FB021314BF41
:1017C0004FF0030E4FF0010E00225B78CDF800E0E1
:1017D0000192022106F0ACF9B54B1860002880D0C8
:1017E00001200BF020F92868B24B00F5C5721A6091
:1017F0000BF0C0F93B68980553D5AF4AAF4C059B39
:10180000102523609369AE4843F001039361059B63
:101810000EA91B888DF83A50ADF8383002238DF8A8
:101820003B300CF02AFD2368A5485B880EA9ADF873
:10183000383004238DF83A300CF01FFD2368012066
:10184000197A0CF005FD23689E4A5B684FF0000989
:10185000536117A88DF86150012517938DF860909A
:101860008DF8625009F0F0FF23680FA85B7A8DF8BD
:101870003E908DF83C3003238DF83D308DF83F507D
:1018800011F0E6FA904B914A1B683C3B1360D8F884
:1018900000304FF0FF3243F01003C8F800308C4B9B
:1018A0001A608C4B8C4A8D4C13608D4A80331360C8
:1018B0003B680025D903257040F1AF8040F22A39FA
:1018C000DFF854A2DFF8F0B110F01AF94FF0010878
:1018D0004A465046294684F8008016F08AF8DBF81C
:1018E0001830804843F00403CBF818304023ADF89B
:1018F000383018238DF83B300EA903238DF83A3089
:1019000009F0E0FFDBF81C30774A43F00203CBF824
:101910001C30764B764C1B68ABF6947BB3FBF2F332
:101920002288013B22F45C721204120C22809BB2CA
:101930001D22A2852385A4F81480238C23F00103A3
:101940001B041B0C2384238CA188228B23F002030D
:1019500022F0730212041B04120C1B0C89B242F019
:10196000600243EA0803A1802283A5862384238B97
:1019700023F008031B041B0C43F008032383B4F873
:1019800044306FEA43436FEA53439BB2A4F84430B8
:10199000DBF8A83F43EA0803CBF8A83F584609F014
:1019A0006DFD544BCDF860A0179380231C934FF42A
:1019B00080734FF0100A1D9358464FF4005317A937
:1019C00020931B951E951F952195CDF864A0CDF809
:1019D000689006F0E1FEA3890FA89BB243F4007360
:1019E000A381DBF8003043F00203CBF800308DF820
:1019F0003CA08DF83D808DF83E508DF83F8011F071
:101A000027FA3D4B1A683D4B43F826200136202E1D
:101A1000F7D10CF03FFB0CF03DFB3B685A0540F161
:101A20008F80374C374BD4F8C46404201E600EF00E
:101A3000F9FC0421C4F8C8040EF0CEFC324B84F843
:101A4000CC0408201E600EF0EDFC304B082118601D
:101A50000EF0C2FC2E4D84F8CD04002128462C2225
:101A600015F0C7FF8E236B704FF07C09E0234FF019
:101A70007D08EB7085F8009085F82B80254D2C2291
:101A80000021284615F0B5FF8A236B701020A02393
:101A9000EB7085F8009085F82B80C4F8D0640EF0C8
:101AA000C1FC1021C4F8D40438E000BF84A00108B0
:101AB000382D0020880F0020001002402807002049
:101AC000000C014000040140B83100202407002030
:101AD000B010002090130020241A0020F90D0020DF
:101AE0007C2D00200008014000366E0160000020BF
:101AF000000400403404004014A00108FA0D002046
:101B0000D80000204C190020A4190020F019002052
:101B100074190020A9190020710200200EF05CFC4D
:101B200084F8D8042020C4F8DC640EF07BFC20216B
:101B3000C4F8E0040EF050FC84F8E4040DF0F4FD69
:101B4000814B824C1B78022B65D1814A002513887A
:101B5000322023F040031B041B0C138013884FF426
:101B6000805623F038031B041B0C138013889BB290
:101B700043F0400313809F238DF83C308DF83D5097
:101B80008DF83E508DF83F500EF055FD8DF85D50AC
:101B9000704D04226E6117A80FA911F077F92E611C
:101BA0009DF85E309DF85D201B0243EA02429DF8DD
:101BB0005F301343684A934219D00AD8A2F51A42FB
:101BC000033A93420CD002F51A420232934209D0F2
:101BD0001CE0624A934205D00132934207D015E0DF
:101BE000202300E0802323804FF4807302E04FF431
:101BF000807323806380A38822881B02A3605343E1
:101C0000E360574B012283F8E52404E0002323809E
:101C10006380A360E360E4681CB3E40A26464FF0E7
:101C20000008A0450BDA08EB04056D100DF15C0906
:101C3000E802494610220CF08DFC0F2806DC0BF060
:101C40004BF9474BF602C3F8E8640AE0002359F861
:101C50002320013254D10133042BF8D12E462C46D7
:101C6000DFE73B683F4A13F4002318BF01231370DA
:101C70000EF0BAFC3C4B18603C4B5A791946052AC9
:101C800002BF3B4B4FF4C8721A803A4B4FF47A7242
:101C90001A80394BC8221A80384A137843F0080357
:101CA0001370374A137823F00203137040F60203CF
:101CB0003A6813406BB13348334B1860334B032001
:101CC0001870334B012018703248002303803248CB
:101CD0000380930341BF314B04221A71DA7844BF69
:101CE00042F00102DA708B6801223B602C4B1A70C3
:101CF0002C4A137863F07F03137023B0BDE8F08F94
:101D000005F101082546AAE7274B00221A7000B208
:101D100012F064F8254912F0B5F81790B4F95E0195
:101D200012F05CF8214912F0ADF81890B4F9600196
:101D300012F054F81D4912F0A5F81D49199017A882
:101D400007F0B8F8FFF7D7B90B34002018000020CF
:101D500000380040000C014018BA20001740EF0086
:101D6000D8000020F4310020180800206011002065
:101D70003E0F002002340020003400205C190020B7
:101D800009340020DC12002044190020A81900208A
:101D900054000020281000202A1000203C2D002094
:101DA000F80D0020E03300203C00002035FA8E3C86
:101DB00024230020954A2DE9F04F1568944C05F531
:101DC0009C43944E20332360336889B013F4804FD2
:101DD000059205D109F054FF10B92379013323711D
:101DE0008D4A13784BB18D4909688D4240F2E580E8
:101DF00003F1FF3882F80080DFE09846884B5FFAF5
:101E000088F51F78DFF83892AF4231D9D9F8003021
:101E1000072D98BF595D834B88BF29461B688048B2
:101E20009847032D1ED8D9F8002005F10E0302EBC8
:101E300083039988DA88A8B14FF47A73401A58431B
:101E4000531A90FBF3F040F6C90300F57A709842FC
:101E500005DC40F2EE239842B8BF184601E040F698
:101E6000CA0080B204EB4505E88008F10108C5E727
:101E700094F804800325B8FBF5F50F2384F82A3085
:101E800094F82B3005EB4505019394F82C30C5EB05
:101E900008050393D9F80030DFF8ACA10293EBB248
:101EA00004930025BD4255DA5F4B4FEA450933F8EC
:101EB00015B0019B53B909F0E3FE28B1039B002B39
:101EC00008BF4FF0000B01E0DDF804B0029B988AD8
:101ED000584502D8D88A58450ED2E8B209F07AFEA1
:101EE000032D8346DFBF94F82AE00120A8402EEAA4
:101EF0000000D8BF84F82A0009F0C2FE18B14B4890
:101F000029F800B022E0049B94F876002AF813B078
:101F100030B9B8F1020F15D93D4B012083F8760096
:101F2000BAF80000BAF802300344BAF804000344D7
:101F30003F489BB229F800301BB2032093FBF0F31B
:101F40009BB200E05B46394829F8003001350AF1C0
:101F5000060AA7E794F82A203648A2F10F014A4260
:101F60004A4184F89020344B6AB1344A12685201D5
:101F700009D40268D9689A60521AC82A1DD9012268
:101F800083F8212019E002689868DA605B68121A09
:101F90009A4288BF284B4FF0000184F82B1088BF6D
:101FA00083F821100025BD4207DAE8B209F012FEDD
:101FB0001E4B23F815000135F5E73368DD0405D520
:101FC0001E4B1B68D80701D411F0B8FB059B1F6896
:101FD0001B4B1A68907A002838D01449137B0138BB
:101FE00031F810001BB1C0F53B60083080B200B280
:101FF000A0F57A70B0F57A7FA8BF4FF47A7020EA26
:10200000E07011F0EBFE0F4955E000BFEC3300200B
:10201000800E002094310020F8230020F4230020BB
:10202000D01A00202C000020860E0020D031002085
:10203000F80E0020B8310020FC23002054100020AE
:10204000F023002000007A44AE0E0020336819040B
:102050003AD5D4F89430934DFB1A002B34DB07F5B6
:102060009C432033C5F894308F4BD27A59798F4BEB
:1020700033F8113095F898109BB293FBF2F30131CD
:1020800001F00F0285F898202A4482F8993003461F
:10209000874A825C0130134410289BB2F8D11BB2EE
:1020A00093FBF0F000B26428A8BF642020EAE0703F
:1020B00011F094FE7F4911F099FF7F4911F0E2FE83
:1020C00012F0CCF87D4B188033687D4D13F4807F7F
:1020D00000F00F817B4BDFF8F0919F4205D999F812
:1020E000022012B9012289F8022099F80220002A60
:1020F00000F0FF80744A95F8008092F82170C8F3D0
:1021000080087A1E57425741704A002F9246116844
:1021100018BF4FF0000BC1F38063019308BF4FF06D
:10212000030B99F82020052A00F2DD80DFE802F099
:10213000034E537988A5B8F1000F3AD0D4F8AC001B
:10214000B4F8B0100EF00DFA012809D16049614AC7
:1021500009681268C988642000FB0122C9F81020B0
:10216000019B6BB15A4A126812794AB111F044FDD1
:10217000032289F820204FF47A72C9F81C20D0E796
:10218000002F40F0B080534AD9F8101010684E4A22
:1021900088420AD9029211F02FFD029A032182F897
:1021A000201040F6B831D161BBE7012182F8201040
:1021B000B7E7019B4FF4806013B106F053FF01E0D5
:1021C00006F03FFF0022C9F810208CE0002F49D113
:1021D00011F012FDA5E727B1052289F82020012082
:1021E00000E03846B8F1000F0CD0D4F8AC204FF026
:1021F000020BD189384A1180518091803449096895
:102200004988D180334A1168D9F81420914202D804
:10221000B8F1000F64D147F23052C9F81C200322F4
:1022200021E02A7842F002022A7011F087FA294A46
:10223000D9F81C1012680A44C9F81820042212E0C8
:10224000244A9FB11168D9F8182091424BD9234AEA
:1022500012781AB9DAF80020D30744D42A7822F089
:1022600002022A70052289F820205AE71268D9F85C
:102270001C100A44C9F8182035E01549154A0968A8
:102280001268C988642000FB01224FF48060C9F8FD
:102290001020002289F8202089F8032006F0D1FEC2
:1022A0003FE700BF800E0020482300205823002075
:1022B000190F00200000C84200C07F44B410002065
:1022C00009340020404B4C00FC2300205410002017
:1022D000DC330020B8310020D03100201400002071
:1022E00000287FF41EAFBBF1000F02D058460EF05D
:1022F000DFF9934F07F5C570B7F852110EF031F9B9
:102300000197834668B911F069FC8E4B0022C3F82F
:1023100000B0C3F804B0C3F808B08B4B1A605A6021
:102320009A602B785F0736D53368D80633D5874B4C
:102330001B78D9062FD4864B1B789BB1019B93F851
:10234000E231BBF1000F15D17BB1824B1A68D4F892
:10235000B4309B1A002B08DA11F0F0F97E4B83F8A9
:10236000B8B018E0BBF1000F0DD110200EF0A0F9AD
:1023700001230EE03BB1774A4FF47A71126801FBFA
:102380000323C4F8B43094F8B83023B10EF078F9D0
:10239000002384F8B830019B93F8E0A193F8E11191
:1023A000B3F89AE1B3F89CC1002318466B4F80083C
:1023B00037F9132001337245C4BF60F07F00C0B20B
:1023C0006245B8BF40F04000042BB946EED194F806
:1023D000B930614A834205D192F8BA30F92B04D85A
:1023E000013300E0002382F8BA30594B84F8B90079
:1023F0001A785B4F9846E2B93B68DA0708D5BBF11B
:10240000000F16D12B78DB0713D510F0E7FF10E093
:102410002B7858070DD5504B93F82B304BB1514BBF
:10242000DB7833B911B111F089F902E0BBF1000F8B
:10243000F9D094F8BA30484A142BDFF83CB140F098
:10244000AD8098F800301AF1000A18BF4FF0010A69
:102450006BB392F8B9305F2B11D12B7803F00403E2
:1024600003F0FF0113B111F069F908E00B200391AB
:1024700002920EF01DF9029A039982F8BA10BAF18D
:10248000000F14D094F8B9307D2B10D12B7803F0C5
:10249000040303F0FF0213B111F050F907E00B2021
:1024A00002920EF005F92C4B029A83F8BA202B7891
:1024B00003F0040303F0FF01002B6FD194F8B9304F
:1024C000254A572B15D1284B4FF47A721A8033685E
:1024D000190601D50AF09EFB244B1B685A0742BF20
:1024E000234A0A21118013F0080357D1214A13808F
:1024F00054E03068400717D55A2B15D192F8BB30FD
:102500002BB1012382F8BB1082F8BC3046E092F870
:10251000BD3083F0010382F8BD300BB10C2000E028
:102520000D200EF0C5F839E05D2B00F018855B2B0F
:1025300000F017855E2B21D1032000F013BD00BFF2
:1025400060110020D82D0020A82C00205C1900204C
:1025500014000020B8310020800E0020D03100206F
:1025600054100020FC2300200234002058190020C1
:10257000003400205011002090100020562B01D173
:1025800007F034F898F80030002B00F0018594F83B
:10259000B9306F2B40F0F68410F020FF33685807F5
:1025A00036D594F8BD30B64A93B12B7859070FD57C
:1025B000019BB9F90610B3F89A31994208DD3B68DE
:1025C00013F0010302BF3221A2F8C01082F8BD301F
:1025D0003B68DA030DD594F8C220A94B2AB993F8C9
:1025E000BB2012B93222A3F8C020012384F8C230E4
:1025F0000EE094F8BB30A24A53B12B7803F00403E9
:1026000003F0FF0123B9012382F8BB1082F8BC302C
:10261000DBF8009000233B6009F17B0809F1CB0A4D
:1026200098F8002098F8013018F8010C9A420BD263
:1026300041460DF061FF38B118F8022C012303FA6E
:1026400002F23B6813433B6008F10408D045E7D130
:102650008C4B1B7853B18C4B8C4F1A68984612F0F8
:10266000020FDFF8409240F032832AE309F1CA07F3
:1026700009F589783A787B7817F8010C9A4225D2C7
:1026800039460DF039FF08B397F804E00C21BB7808
:1026900001FB0E417E4A013B03EB43031344D1F897
:1026A000C82097F803909A4275480FD0C1F8C830F7
:1026B000002390F8F420C1F8CC30012303FA0EF384
:1026C00022EA030381F8C49080F8F43006374745C6
:1026D000D0D1704BDFF8D0A1D3F800806E4B4FF013
:1026E000000B1B68029394F82B300393DAF8003048
:1026F000002B00F0DD8293F80090B9F1000F00F09C
:10270000D782DAF8042002998A1A002A0CDB01F534
:10271000FA72CAF8042094F8F410012202FA0BF2BB
:1027200021EA020284F8F420039A002A00F0C08211
:102730001AF8042C59780432D2B2002940F0798278
:10274000564931F91210564AB2F8982102F1C800E0
:10275000814201DD9F7814E0C83A914202DA99780B
:102760004F420EE094F8F420012303FA0BF322EA1F
:10277000030384F8F430029B03F5FA73CAF80430BB
:1027800096E294F8F43043FA0BF3DB0700F1908201
:10279000002FCCBF022001200DF0B0FF09F1FF3265
:1027A000374B132A00F27C82DFE812F0140023007A
:1027B0003200440061008000E5004A01AF01E401FD
:1027C00013027A02440055008000E5004A01B70078
:1027D0001C01810198F8001040460F44FA2FA8BF51
:1027E000FA2727EAE77788F800700DF06BFE0120E2
:1027F0001EE098F8011040460F44642FA8BF6427DC
:1028000027EAE77788F801700DF05CFE02200FE000
:1028100098F8031040460F44642FA8BF642727EAA6
:10282000E77788F80370D3F8F8100DF003FE032063
:102830003946CBE198F805100D2039446429A8BF2A
:10284000642121EAE17188F805100DF0B9FEB9F1B3
:102850000D0F00F0258298F804100E2039446429E9
:10286000A8BF642121EAE17188F80410AEE198F86C
:1028700006100520394481F3080188F80610A5E107
:10288000800E00200E340020541000205819002023
:10289000C8A10108B8100020B8310020D0310020B4
:1028A00060110020201A0020480F0020D3F8FC30CF
:1028B0001A78022A22D13846049311F08FFAA949D6
:1028C00011F094FB049B596A059311F0D3F9002190
:1028D000049011F075FC059B48B9049AA249104672
:1028E00011F08CFC049A059B10B19F4A00E0002275
:1028F0005A620F2011460DF04FFE0AE099780F2022
:102900003944C829A8BFC82121EAE17199700DF0A6
:1029100057FEB9F10F0F00F0C381944BD3F8FC9030
:1029200099F80030022B1AD1384611F057FA8D4928
:1029300011F05CFBD9F8201011F09CF9002107463A
:1029400011F03EFC30B93846874911F057FC10B100
:10295000854F00E00027C9F82070122059E199F84E
:10296000011012203944C829A8BFC82121EAE17109
:1029700089F801102AE1D3F8FC301A78022A22D112
:102980003846049311F02AFA774911F02FFB049B83
:10299000196B059311F06EF90021049011F010FCF1
:1029A000059B48B9049A7049104611F027FC049A17
:1029B000059B10B16C4A00E000221A6310201146FA
:1029C0000DF0EAFD0AE0197B10203944C829A8BFA0
:1029D000C82121EAE17119730DF0F2FDB9F1100F70
:1029E00000F05E81614BD3F8FC9099F80030022B27
:1029F0001AD1384611F0F2F95B4911F0F7FAD9F81B
:102A00002C1011F037F90021074611F0D9FB30B92D
:102A10003846554911F0F2FB10B1534F00E0002742
:102A2000C9F82C701320F4E099F80B1013203944E6
:102A3000C829A8BFC82121EAE17189F80B10C5E0B7
:102A4000D3F8FC301A78022A22D13846049311F0C8
:102A5000C5F9474911F0CAFA049BD96B059311F0E7
:102A600009F90021049011F0ABFB059B48B9049AC9
:102A70003D49104611F0C2FB049A059B10B13A4A39
:102A800000E00022DA63112011460DF085FD0AE016
:102A9000997D11203944C829A8BFC82121EAE171D4
:102AA00099750DF08DFDB9F1110F00F0F9802F4BE4
:102AB000D3F8FC9099F80030022B1AD1384611F067
:102AC0008DF92B4911F092FAD9F8381011F0D2F89B
:102AD0000021074611F074FB30B93846224911F045
:102AE0008DFB10B1204F00E00027C9F8387014208A
:102AF0008FE099F8151014203944C829A8BFC821BF
:102B000021EAE17189F8151060E0D3F8FC9099F89A
:102B10000030022B1AD1384611F060F9114911F03A
:102B200065FAD9F8281011F0A5F80021074611F030
:102B300047FB30B938460C4911F060FB10B10A4F21
:102B400000E00027C9F82870092062E099F8031016
:102B500009203944C829A8BFC82121EAE17189F8B0
:102B6000031033E0000020410000C842800E002026
:102B700000007A44D3F8FC9099F80030022B1AD167
:102B8000384611F02BF9B44911F030FAD9F8341065
:102B900011F070F80021074611F012FB30B93846E9
:102BA000AD4911F02BFB10B1AB4F00E00027C9F885
:102BB00034700A202DE099F80D100A203944C829F4
:102BC000A8BFC82121EAE17189F80D100DF0F8FCC9
:102BD00066E0D3F8FC9099F80030022B1DD13846FE
:102BE00011F0FCF89D4911F001FAD9F8401011F0EC
:102BF00041F80021074611F0E3FA30B9384696490A
:102C000011F0FCFA10B1944F00E00027C9F84070B1
:102C10000B2039460DF0C0FC42E099F817100B204C
:102C20003944C829A8BFC82121EAE17189F81710E1
:102C3000CCE7012934D19878894B33F91230B3F5B8
:102C4000617F05DB40F633029342A8BF134601E0E3
:102C50004FF46173B9F10C0F22D14FF4966292FBDD
:102C6000F0F0A3F5617393FBF0F37E4ADFB21378C3
:102C7000BB4215D0042F34BF3B4602231370019A88
:102C800009FB0323784A03F2BA7313600EF04DF880
:102C9000484639460DF094FC781CC0B20DF02EFD6C
:102CA00094F8F420012303FA0BF3134384F8F4306F
:102CB0000BF1010BBBF1040F0AF10C0A7FF416AD06
:102CC000C9E43368D80510D5684BDB786BB13B6835
:102CD00099070AD5B9F8003013F0010A0AD110F0AB
:102CE0007DFF012006F0BEF904E0012006F0A9F9FD
:102CF000012300E00023D8F8002052070DD563B16E
:102D0000012006F09EF9B9F800309B0708D410F0B6
:102D100065FF022006F0A6F902E0022006F091F914
:102D2000B9F80030524A13F0030F4FF0100114BFEE
:102D3000516111613A6812F00A0F27D0D8F80020CB
:102D4000D00609D559070AD4042006F08BF9494B5F
:102D50001B88A4F8003102E0042006F072F9D8F8CC
:102D600000309A0607D5B9F800305B0606D440203B
:102D700006F078F902E0402006F063F9D8F8003058
:102D8000580642BF3B4B1B88A4F802313B689906AA
:102D900009D4D8F800301A0540F1B0804FF48070A3
:102DA00006F060F9AEE0344B1B789B076ED5334BD1
:102DB0001B78042B6AD9D8F8003013F4007A0FD0AE
:102DC000B9F80030DF063AD4102006F04BF9202085
:102DD00006F037F92A48011D09F086FE02232AE091
:102DE000B9F8007007F01007BFB22FB1102006F03D
:102DF00028F9012784F804A1D8F80030580512D525
:102E0000D4F808311F495A89B1F90030002BB8BFF6
:102E10005B42934207DAB1F90230002BB8BF5B4244
:102E20009342C0F20881B9F80030990608D52020F5
:102E300006F007F9002384F80431012700E0002799
:102E400094F80C319BBB0E200DF032FC0E4B01228E
:102E500083F80C212BE000BF0000C84200007A4438
:102E6000D03100204C310020B8100020FC2300207D
:102E7000000C0140501100205C1900206219002054
:102E8000C010002058110020800E0020B9F800303A
:102E900003F03003002B3FF47CAF102006F0D1F894
:102EA000202006F0CEF8002384F8043102E0002F41
:102EB0003FF46FAF002214466B4B002023F8140040
:102EC0006A4B191D03F10A0721F814000021D151A2
:102ED00017447860B96023F8140003F132075A33BD
:102EE000D151D150174413447860B960586099604B
:102EF0001432002C7FF44DAF0124DDE74FF48070D5
:102F000006F09FF85A4B5A791C46082A01D00E2A1F
:102F100002D1402006F095F833685A0540F1A180AF
:102F200094F820321BB92B7813F0040F03E0D8F883
:102F3000003013F4002F0BD04E4B00221A703C20AF
:102F400005F0F8FB002800F08C800FF0B5FCF6E7E8
:102F50000CF0EAFB09B0BDE8F04F04F056BE0120CA
:102F600000E002205FFA80F8019A08F1FF3382F84E
:102F7000B83706F0C1F806F065F940460DF0BEFB23
:102F8000FFF70CBBBAF1000F02D07E2B3FF404AB6D
:102F900094F8B930972B06D1374B4FF4C872A3F889
:102FA000BE20FFF7FBBAA72B06D1344A137843F0B3
:102FB00004031370FFF7F2BA0022BB2B079201D172
:102FC000022303E0B72B04D14FF6FE73ADF81E3099
:102FD00009E0BE2B01D1022303E0BD2B1AD14FF62D
:102FE000FE73ADF81C30DBF80030BDF81C10B3F8F0
:102FF00058200A44A3F85820BDF81E10B3F85A20F0
:103000000A44A3F85A2006F0F1FA002384F8BA30F3
:10301000FFF7C4BA792B04D1194AD37823F00103FE
:1030200006E07A2B7FF4BAAA154AD37843F001035D
:10303000D370FFF7B3BAB9F800309B063FF500AF85
:10304000202006F00FF80F4B0F481A685B68011D2F
:103050004360026009F048FD074B012783F80471C3
:10306000EEE609B0BDE8F08F043400208E0F00209A
:1030700060110020981B0020800E00205C190020A9
:103080003C2D002064190020C8100020BA4B2DE907
:10309000F04FB3F90610B94B89B01F6801937A89D4
:1030A00091420EDBB1F5FA6FFC79BFBF8B1A634317
:1030B000A2F5FA6493FBF4F4ACBFC4F16404643485
:1030C00000E06424AE4BAF4A1868B2F898A10546F8
:1030D00092F96221049092B205920293002240F28A
:1030E000E630A54B4FEA420B33F912300393CAEB9B
:1030F000030303F2F316864203D8002BB8BF5B42EA
:1031000001E04FF4FA73022A049E4FF064002FD0BE
:1031100096F811E1BEF1000F04D07345CCBFCEEBA1
:103120000303002393FBF0FCDFF8A0E26FF06309D8
:103130003EF81C8009FB0C390CF1010C3EF91CE037
:103140000FFA88FCCCEB0E0E0EFB09FE9EFBF0FE88
:103150008D4EC64426F80BE0BE18367973438B4E6D
:1031600093FBF6F364339BB2634393FBF0F02DE0E3
:1031700096F812E1BEF1000F04D07345CCBFCEEB40
:103180000303002393FBF0F0DFF82C826FF0630C55
:103190000CFB003938F910E0013038F91000002B31
:1031A000CEEB000000FB09F999FBFCF90598CEEB8A
:1031B000090909FB00F97448B8BF5B42A0F8049004
:1031C000B8794343714893FBF0F064306B784FF06B
:1031D000640E434393FBFEF36D4E022AB354EB7A25
:1031E0006C4E00FB03F393FBFEF3B3546B7D664E12
:1031F00000FB03F090FBFEF0674B9854674B0FD138
:1032000083F802E0039B53450EDB5E4CB4F89A2131
:10321000914215DBB1F5FA6FA8BF4FF4FA6110E0E7
:103220009C54039B534504DA36F80B305B4226F876
:103230000B300132032A05F101057FF450AFE4E7BA
:103240001146891A4FF47A735943C2F5FA62B1FBF9
:10325000F2F1642791FBF7F2DFF874E16FF063039A
:103260003EF8120003FB021101323EF9122003B2B4
:10327000D21A514391FBF7F30344F380484B424D7C
:103280001B885A063BD5474A474B10881B88181A9B
:1032900000B210F0A3FD454910F0F4FD074605F01B
:1032A000FFFD8046384605F088FD0746B5F9020067
:1032B00010F094FD8146B5F9000010F08FFD4146F5
:1032C000824610F0DFFD39468346484610F0DAFDAD
:1032D0000146584610F0CCFC10F09AFF4146288079
:1032E000484610F0CFFD39468046504610F0CAFDE2
:1032F0000146404610F0BEFC10F08AFF68802C4F5B
:103300003B689B0740F19F8045F20721294B2A4DDE
:103310001A686B69D31A8B4240F395806A6108F092
:103320003FFC264BDFF8AC901A789846032AB9F890
:10333000003051D10A2B59D90023282088F80030B9
:103340000DF079F908F02CFC1D4B188808F012FCE0
:103350001C4B1A68D37890FBF3F0013008281A4B05
:10336000A8BF08201870537980B243432B83137988
:10337000584368833AE000BFD0310020B8100020E5
:103380009010002060110020581100200CFEFFFF5B
:10339000B42C00201E100020C82C0020B82D0020C6
:1033A000201A0020820F00205011002035FA8E3C98
:1033B00094310020EC33002010100020A8190020C8
:1033C000602300204419002054000020662E0020B5
:1033D0004E2E0020481900200A2B07D803239C4AB0
:1033E00088F80030002313702B836B8398F800302B
:1033F000984A012B0CD002D3022B1BD023E02A8B3E
:10340000B9F800309A421EDD012388F800300FE041
:10341000B9F800106B8B8B4202DD022313700FE0B2
:103420008D4B1B8B0133994202DD002313700AE0A0
:10343000082006E06B8BB9F8002001339A42E3DCE8
:1034400007200DF035F93D682F0577D5834B824F66
:103450001A68FB69C3EB020845F2072398456DDD46
:103460007F4BB6F906B0D3F800904FF47A7099F814
:103470000A30FA61012B98FBF0F8B4F85211ABF561
:103480007A7B784E03D042D3022B20D041E0764B9A
:10349000396A5A7B754B4FF0080E33F8122091FBB6
:1034A000FEF392B2C91A8B183B6293FBFEF3BA8407
:1034B00040F6E4429BB25343B9F80820C2EB133301
:1034C0005843B9F9063090FBF3F0306021E0684BC7
:1034D000B9F808A01B78C6F800A0580719D56548A8
:1034E0000DF03FF820B915F0100F18BF4FF0000B8A
:1034F0000BFB0BF3322293FBF2F3B9F906205B448A
:103500005A434FF47A7392FBF3F3534400E00023E1
:1035100033603368D7E90A0103FB08F84FF47A7384
:1035200098FBF3F810EB080041EBE8710023C7E9C2
:103530000A01514A10F0B2FE504B1860504E3368E9
:10354000D90427D52A0622D54E4B1B789B071ED5BA
:103550004D4B187804281AD900224C4B0521D71856
:10356000951C4FF00A0E122AD154E9B287F801E0F7
:1035700004D0B0EB510F2A46EFD800E014215A18BE
:10358000322002F8010CFF225A540F2000E00A20DA
:103590000DF08EF83E4D2A68002A51D03D4B3E4F2B
:1035A00018683968984681424AD83C4BDFF8F89051
:1035B00019785268E1B94FF0010A83F800A0B9F810
:1035C0000030D35C23B350460DF054F8344B83F8ED
:1035D00000A008F061FBB9F80030CBB92B681B786C
:1035E000053B534514D80CF0FFFF2E4B18600FE03D
:1035F0004FF0000A83F800A0B9F80030D35C3BB16B
:1036000050460DF037F8264B83F800A008F044FB35
:103610002B68B9F800205B6823499B5CFE2B02D124
:1036200000230B800CE0FF2B02D10DF029F807E0FE
:10363000D8F800000A2505FB030301323B600A802D
:103640000B4D2B785F0733D5184B08225A616DE07C
:1036500054000020A819002010100020EC33002096
:10366000441900205019002048230020582300202E
:1036700009340020EA120020407E05005419002081
:10368000541000205C190020621900206C310020C9
:10369000842E0020B83100207C2E0020782E0020BF
:1036A00020240020A8330020802E0020000C0140A0
:1036B0003268D0075CBF43F001032B70984B1B7836
:1036C00019075EBF2B7823F001032B70D30248BF8C
:1036D0002B78944A44BF23F001032B70924B1B6854
:1036E00013F0040F02D09149098851B99049098813
:1036F00009B19F0705D48F4B1B88003318BF0123E6
:1037000033B1022313702B7823F001032B7004E0F4
:103710002978CE0758BF022313700CF065FF864B43
:103720001B68C01A002801DB08F0B6FA0BF0FCFF9A
:10373000824B1E780393002E00F0AA80804F3B68D6
:10374000002B00F0338738680DF058F8002800F09F
:103750002D877B4B7B4C18680DF04DF8092801D064
:103760003F2852D14FF000094D462668DFF8F88116
:1037700036B17548D8F80010324614F087F910B900
:10378000C14605B94546714B08F110089845EFD37D
:10379000EDB1D5F800C0D9F8008023681CF803E02B
:1037A00018F80300704512D15A1C674958B92D2BDF
:1037B00009D8DFF890E1CEF800204FF0200E01F894
:1037C00003E0885403E001F803E02260E5E72368A2
:1037D0000BB14D4510D05E480FF064F94D4507D848
:1037E00055F8100B0FF05EF909200FF053F9F5E7CB
:1037F00058480FF057F9002623689E42A3D2524B37
:10380000985D0FF047F90136F6E72368002B40F08A
:10381000B286042840F0EE864B480BF015FA00F013
:10382000C5BED8F80000DFF83CA10CF0E7FF28B3D4
:10383000DAF800000CF0DFFFD9F80030834693F887
:1038400048209ABB242840F09180012283F8482028
:10385000D9F80030DFF808A193F848B0BBF1060FA3
:10386000DFD193F8490000F051FF002800F0A78055
:103870000FF070F83B68002283F84820364B93F82D
:103880003530002B40F065864C36982E00F08E8641
:10389000324BF21892F84A100129F5D1304FF35803
:1038A0003A60304AB94613609046BAE7012A04D11B
:1038B0004D2814BF00220222C8E7022A04D13C2866
:1038C00014BF00220322C1E7032A0AD140284FF087
:1038D00000029FBF1A71DA715871987198BF042263
:1038E000B4E7042A08D19A7983F8490080EA020BE8
:1038F00083F806B00522A9E7052AA9D159791A79D2
:103900009142997906D941409971511C197113441A
:1039100018729DE781420CBF0622002296E700BF85
:103920005C190020202400205819002000340020B9
:103930003E0F002002340020242400200E340020FA
:1039400068310020782D0020482D002040AE01086D
:10395000F3C40108F8C4010810100020341A002034
:10396000001A0020041A002060AC01082B78D94A04
:1039700059073FF56DAF2328DAF8003012D10492D1
:10398000039A01211170D449D4480B60D4490B63C8
:103990000FF088F8D3480FF085F8049A137843F0B5
:1039A00002031370D04B1B681B785B4501BFCF4AE5
:1039B000CF4B1A60CF4A04BFCF4BDA6048E7DAF842
:1039C000002092F849304C2B00F09E8400F2908049
:1039D000352B00F07A8239D82B2B00F06D8420D85B
:1039E000252B00F0458404D8232B00F0358200F00D
:1039F000FDBD272B00F04284292B40F0F7850EF007
:103A000085FFA4F882010EF081FFA4F884010EF076
:103A100073FF84F886010EF079FFA4F8880100F0A6
:103A200093BD2F2B00F0F18404D82D2B00F0488497
:103A300000F0DCBD312B00F0FD84332B40F0D68547
:103A40000EF05AFF84F8940100F07EBD412B00F087
:103A5000968418D8392B00F01E8404D8372B00F038
:103A60009B8400F0C3BD3C2B00F0CC803E2B40F08B
:103A7000BD850EF041FF84F8E2010EF03DFF84F8B1
:103A8000E10100F061BD442B00F0088525D8432BEF
:103A900040F0AC850EF030FF0023A36060710EF0A3
:103AA0003FFF05F0F7FA0EF027FF84F892010EF0C1
:103AB0002DFFA4F85C010EF029FFA4F85E010EF0C2
:103AC00025FFA4F860010EF021FFA4F882010EF09A
:103AD0001DFFA4F8840100F037BD482B00F05D8382
:103AE0004A2B40F083850EF011FFA08100F02CBD21
:103AF000D12B00F07C8320D8CC2B00F00D820FD886
:103B0000C82B62D004D84E2B00F00B8400F06EBDA1
:103B1000C92B00F04583CA2B00F0838000F066BDFE
:103B2000CE2B00F02D83C0F02283CF2B00F04882F3
:103B3000D02B00F0118300F059BDD82B00F022816A
:103B40000BD8D32B3BD027D3D42B00F07D82D62BA0
:103B500040F04C854FF000086BE2F22B00F0D4826D
:103B600012D8EF2B40F04285DFF89C81D8F8009006
:103B70000EF0CCFEA9F85A00D8F800800EF0C6FE70
:103B8000A8F8580000F0E0BCF32B00F0A784FA2B53
:103B900000F0FF8200F02ABD2B7803F0040303F04D
:103BA000FF08002B40F0D0840EF0A6FE022884F817
:103BB000B80740F2D782514B83F8B887D2E20EF0B3
:103BC000A5FE4F4B188000F0BFBC92F805804FEA6D
:103BD0005808B8F1120F03D904F0A8FD00F0B4BCE6
:103BE0004FF00009C14507D20EF090FE454B23F877
:103BF000190009F10109F5E7394B012283F8342056
:103C000000F0A2BCDFF80081D8F800900EF074FE3E
:103C100089F80000D8F8003018780DF05FF800F04F
:103C200093BC394B1A6898461278022A40F08D806E
:103C30004FF00008DFF8D09008F1080BD9F800A089
:103C40000EF05AFE10F0C6F8304910F0CFF94AF8DD
:103C50002B00D9F800A00EF04FFE08F10A030AEB82
:103C6000830A10F0B7F82A4910F0C0F9CAF8040026
:103C7000D9F800A00EF040FE10F0ACF8254910F085
:103C8000B5F908F10E0B08F10108B8F1030F4AF875
:103C90002B00CFD1B8F1070FD9F800A03CD10EF01E
:103CA0002BFE10F097F8194910F0A0F9CAF844005B
:103CB000D9F800A00EF020FE10F08CF8134910F097
:103CC00095F9CAF84800D9F800A00EF015FE8AF858
:103CD0004C0034E0093400206831002028C5010878
:103CE00010100020F8C401089C1B0020EFBEADDEC0
:103CF000F04F00200400FA0500ED00E06011002004
:103D0000800F0020D03100209010002000002041C2
:103D10000000C84200007A440EF0EEFDC2448AF86A
:103D20000100D9F800A00EF0E7FDC2448AF80B00AC
:103D3000D9F800A00EF0E0FDC2448AF8150008F1A1
:103D40000108B8F10A0FA5D1FEE34FF00009D8F839
:103D500000A00EF0D1FDCA448AF80100D8F800A0F6
:103D60000EF0CAFDCA448AF80B00D8F800A00EF085
:103D7000C3FDCA4409F10109B9F10A0F8AF8150017
:103D8000E5D1E1E38046DFF8749308F1080BD9F838
:103D900000A00EF0BBFD10F01DF8D24910F026F97E
:103DA0004AF82B00D9F800A00EF0B0FD08F10A0384
:103DB0000AEB830A10F00EF8CA4910F017F9CAF896
:103DC0000400D9F800A00EF0A1FD10F003F8C549D9
:103DD00010F00CF908F10E0B08F10108B8F1030F0F
:103DE0004AF82B00CFD1B8F1070FD9F800A01AD1AB
:103DF0000EF08CFD0FF0EEFFBA4910F0F7F8CAF89C
:103E00004400D9F800A00EF081FD0FF0E3FFB549A2
:103E100010F0ECF8CAF84800D9F800A00EF076FDD2
:103E20008AF84C0012E00EF071FDC2448AF80100DD
:103E3000D9F800A00EF06AFDC2448AF80B00D9F848
:103E400000A00EF063FDC2448AF8150008F10108D5
:103E5000B8F10A0FC7D177E30EF04EFD1328824662
:103E60003FF6BAAEDFF89492D9F800800EF044FD28
:103E700000239D490C2202FB0312117A814220D1BA
:103E8000137808EB8A0888F879300EF035FD88F849
:103E90007A000EF031FD88F87B000EF02DFD934A7C
:103EA000934B88F87C001A60D9F80000914B0021F0
:103EB000186079300CF044FB8F4B80F001001870D3
:103EC00042E301331C2BD4D186E60EF015FD0B28FE
:103ED00080463FF681AE894BD3F800900EF00CFD82
:103EE00003283FF679AE0BFB089B8BF8CE000EF053
:103EF00003FD8BF8C9000EF0FFFC8BF8CA000EF032
:103F0000FBFC8BF8CB000EF0F7FC8BF8CC000EF02E
:103F1000F3FC8BF8CD0017E35379092B7FF65CAEE9
:103F2000019BD3F800800EF0E7FC019B88F80000AD
:103F3000D3F800800EF0E0FC88F801000EF0DCFC05
:103F4000019B64281B68A8BF642018710EF0D4FC84
:103F5000019B64281B68A8BF642058710EF0CCFC3C
:103F6000019BFF281B68A8BFFF2098710EF0C4FCBE
:103F7000019B6428D3F8008028BF642088F80700DC
:103F80000EF0BAFC019B88F80200D3F800800EF016
:103F9000B3FC019B88F80300D3F800800EF0B6FC58
:103FA000DAF80030A8F80A005B790A2B40F2CC82DC
:103FB000534BD3F800800EF09FFC88F80800C3E252
:103FC0000EF0A4FC6FF4AF6283189BB2C62B98BFAF
:103FD000A4F898010EF09AFCA4F844010EF096FCA7
:103FE000A4F846010EF092FCA4F848010EF08EFCF5
:103FF000A4F8DA010EF080FC84F8EF010EF07CFCEE
:104000000EF07AFC84F8F0010EF076FC84F887015B
:104010000EF072FC84F894010EF06EFC374BD3F86E
:1040200000800EF073FC00EB80004000A8F8560002
:1040300031E10EF06BFC334B23F8180008F1010856
:10404000B8F1080FF5D17FE253790F2B7FF4C4AD9F
:104050000EF052FC072880463FF6BEAD029BD3F817
:1040600000900EF053FC0E2303FB08F8029BC144A2
:10407000A9F81901D3F800900EF048FCC144029B46
:10408000A9F81B01D3F800900EF040FCC144029B3C
:10409000A9F81D01D3F800900EF02EFCC144029B3C
:1040A00089F81F01D3F800900EF026FCC144029B52
:1040B00089F82001D3F800900EF01EFCC144029B49
:1040C00089F82101D3F800900EF016FCC144029B40
:1040D00089F82201D3F800900EF022FCC844C8F8F9
:1040E000230131E200007A4434A20108A412002026
:1040F000780F00207C0F002014000020901000207A
:10410000B81000204E3100200EF0F6FB0F2880463C
:104110003FF662AD0EF0F0FBC8EBC808A04488F88B
:10412000D4000EF0E9FB88F8D5000EF0E5FB88F826
:10413000D6000EF0E1FB88F8D7000EF0DDFB88F822
:10414000D8000EF0D9FB88F8D9000EF0D5FB88F81E
:10415000DA000CF015FDF7E12B785B0700F1F48134
:104160000CF028FE04F0C8FF05F06CF8ECE12B78A9
:10417000580700F1E981CC4B4FF4C8721A80E3E193
:104180002B78590700F1E081C84A137843F0040303
:104190002BE02B785A07E5D528E208F0DBFED3E1C7
:1041A0000EF0AAFBC14B1A7810B142F0020201E0F6
:1041B00022F002021A700EF09FFBBD4BDFF8148351
:1041C00018700EF0ADFBC8F800000EF0A9FBC8F89F
:1041D00004000EF09BFBB74B18800EF097FBB64B1C
:1041E000B64A1880137843F002031370ACE10EF066
:1041F00083FB83460EF094FB82460EF091FB8146D2
:104200000EF08EFB80460EF081FB0EF07FFB0EF071
:1042100073FBBBF1000F14D1A94B1020C3F800A011
:10422000C3F8049004F00DFFA04A137843F0010393
:104230001370B8F1000F00F08781A24BC3F8008023
:1042400082E1BBF1100F40F07F819F4BC3F800A0CB
:10425000C3F80490B8F1000F02D09A4BC3F8008065
:1042600099489A4B0222011D1A7008F03DFC6BE13F
:10427000A0600EF055FB04F00DFF65E10EF046FB6B
:10428000A4F85C010EF042FBA4F85E010EF03EFBC8
:10429000A4F8600158E10EF02FFB84F87C010EF0C9
:1042A0002BFB84F880010EF027FB84F87F010EF0D1
:1042B00023FB84F8810147E10EF01EFB607143E1AE
:1042C0000EF01AFB84F892010EF020FBA4F89C017A
:1042D0000EF01CFBA4F898010EF018FBA4F89A014C
:1042E0000EF00AFB3B6884F893015B79DFF8E88104
:1042F000082B40F229810EF009FBA8F89E010EF070
:1043000005FBA8F8A0011FE10EF0F6FA84F8D80129
:104310000EF0F2FA84F8D9010EF0F8FAA4F8DA01F6
:1043200012E192F805800323B8FBF3F8B8F1120FFD
:104330003FF652ACDFF8A0914FF0000AC24580F082
:1043400003810EF0D9FA89F8A2010EF0DFFA40F2EB
:10435000ED23984205DD40F6CA039842A8BF1846EF
:1043600001E040F2EE20A0F2EE20192390FBF3F0E2
:104370000AF1010A89F8A30109F10209DEE7804682
:104380000EF0BAFA04EB080308F10108B8F1080FBF
:1043900083F88A01F4D1D7E053794FF00709B3FBD2
:1043A000F9F9C9EBC9029B1A13F0FF0F7FF414ACA3
:1043B0005FFA89F909F1FF395FFA89F9B9F1FF0F5D
:1043C00000F0C2800EF098FA5FFA80FA4FFA8AF095
:1043D0000BF0EEFF804600283FF4FEAB80F800A013
:1043E0000EF094FAA8F802000EF086FA88F804009D
:1043F0000EF082FA88F805000EF07EFA88F80700C1
:104400000EF07AFA88F80600D4E7DFF8CC8008F1DD
:1044100040090EF07BFAA8F8B0020EF06DFA88F8A9
:10442000B2020EF069FA08F1040888F8AF02C84534
:10443000EFD189E00EF060FA1F2880463FF6CCAB42
:104440003B685B79082B7FF4C7AB0EF05FFA08F18D
:104450008C0804EB880900F03F00A9F802000EF078
:1044600055FAB9F80230800100F4FE501843A9F85B
:1044700002000EF041FA000104F828000EF03CFAA8
:1044800014F8283000F00F00184304F828000EF04C
:1044900033FA89F801000DF033FB55E00C4B012293
:1044A00083F8352050E000BF3E0F00205C1900204B
:1044B00062190020601900205E190020BE10002043
:1044C000C0100020D0100020C8100020840F002051
:1044D0001010002064190020601100200EF00CFA6A
:1044E000FF2881461BD100238DF81F309DF81F3017
:1044F000052B29D89DF81F00704A9DF81F30012117
:1045000002EBC3035B6852F83000994089B248223D
:1045100003F018FA9DF81F300133DBB2E4E70528F9
:104520003FF65AAB00200EF039FA0EF013FAD8F825
:1045300000000CF05AF918B932200CF07CF8F6E7BC
:104540004FFA89F003F00CFA00200EF027FAFFF77B
:104550008FB95B4B98590CF048F918B932200CF020
:104560006AF8F6E70CF0CCFA04F09CFD554A564B7D
:10457000DA60FFF789B90C283ED00A2845D1534D9F
:1045800053480EF08FFA2846232113F068FA08B139
:10459000401B20602368002B5AD14C480021302258
:1045A000236013F026FA039B1B7843BB494B1B681F
:1045B0009B0614D5484B49491B688A6B9A1A002AF6
:1045C0000DDB474A1278042A09D903F5123303F5A3
:1045D000F873444A8B63D36883F01003D360424B73
:1045E0009B68002B67D04148984764E004F09EF830
:1045F000FFF73EB90C2804D13D480EF053FA3D4870
:104600000DE07F2812D1FFF79EB80D28B7D07F2884
:1046100009D12E4A013B002137482360D1540EF0C6
:1046200041FAFFF790B82F2B3FF68DA8A0F120029A
:10463000D2B25E2A3FF687A813B920283FF483A898
:104640005A1C2260214AD0540EF024FAFFF77BB89E
:104650005A1EA95C202901D113469CE71B4A002160
:104660002360D154254B264DD3F80090D5F800A0F7
:10467000DFF85880504613F000FA0646514632469D
:10468000404613F003FA1F4A28B918F806304B4485
:104690005B78580703D010359542E7D306E0954282
:1046A00004D2701CEB684044984702E016480EF0B4
:1046B000F9F9002371E709B0BDE8F08F78C8010867
:1046C000341A00200400FA0500ED00E0482D002017
:1046D00079D6010858190020EC3300201010002072
:1046E00062190020000C0140E41A00204C10002048
:1046F000FDC40108F8C4010824C5010868000020B1
:1047000060AC010840AE010808C501082DE9F0477A
:104710004B28A0B0044600F03F8600F2B480302859
:1047200000F0CA8651D8222800F08A8423D80328B2
:1047300000F0608114D8012800F05081022840F078
:10474000268704200EF02AF943200EF0F2F84C20C0
:104750000EF0EFF846200EF0ECF84C2000F050BEC2
:10476000042800F05181052840F011871A200EF02E
:1047700015F900245BE1282800F0DC8515D82428F1
:1047800000F0C385262840F00287B54C06200EF0C5
:1047900005F9B4F85C010EF004F9B4F85E010EF00E
:1047A00000F9B4F8600100F0ADBD2C2800F0D5850B
:1047B0002E2800F050862A2840F0E98601200EF0CD
:1047C000EDF8A74B587900F01BBE3D2800F01A8386
:1047D0001ED8362800F025860BD8322800F00A862D
:1047E000342840F0D48648200EF0D8F8002500F098
:1047F00049BC3A2800F0B9823B2800F01A843828D6
:1048000040F0C58604200EF0C9F8954C00F083BD39
:10481000452800F0A98627D8402800F0F4854228D2
:1048200040F0B5868E4C10200EF0B8F860790EF08E
:1048300080F8A0680EF0BEF894F892010EF079F8B6
:10484000B4F85C010EF0ADF8B4F85E010EF0A9F812
:10485000B4F860010EF0A5F8B4F882010EF0A1F8EA
:10486000B4F8840100F04EBD472800F05B86C0F02C
:104870004886492840F08B8602200EF08FF8784B4E
:10488000988900F03FBD702800F0EF8258D8692861
:1048900000F04B822AD8652800F0FE8015D84D28FC
:1048A00000F08985642840F0728607200EF076F8C3
:1048B000E7200EF03EF86A4B58790EF03AF80020E7
:1048C0000EF037F8042000F05EBE672800F0B081DB
:1048D00000F21E8212200EF061F8624B00241B8849
:1048E000B3F5806F8CBF0825012584E16C2800F0AA
:1048F0002F8217D86A2800F08B846B2840F04786F7
:1049000005200EF04BF8584B18880EF04AF8574B1C
:1049100018880EF046F8564B93F86E0000F0010030
:1049200000F06EBD6E28524D00F0268200F27582B6
:1049300006200EF033F8E86D0EF03CF84D4B12E215
:10494000782800F0828119D8742800F0BC830BD835
:10495000722800F01D84732840F0198608200EF09C
:104960001DF8012400F04DBC762800F0718400F29F
:10497000EF832F200EF012F83F4C52E3A42800F0F2
:104980008D8414D87B2800F0F282A02840F0FF85A7
:104990000C200EF003F8394B18680EF00BF8384B6A
:1049A00018680EF007F8374B186800F0ECBDF128D6
:1049B00000F08781FE2800F09884F02840F0E78519
:1049C0002B4C04200DF0EAFF236CB3F85A000DF0D5
:1049D000E8FF236CB3F8580000F094BC03200DF0FE
:1049E000DDFF00200DF0A5FF20460DF0A2FF0D20F9
:1049F00000F006BD0DF0D2FF01200DF09AFF0A2055
:104A00000DF097FF00F048BC06200DF0C7FF4120D5
:104A10000DF08FFF57200DF08CFF46200DF089FF21
:104A200031200DF086FF184B187800F06BBC174B47
:104A3000185D01340DF07DFF0B2CF8D10024144BD0
:104A4000185D01340DF075FF082CF8D10024114BCE
:104A5000185D01340DF06DFF072CF8D100F095BD05
:104A60006011002028000020D6190020D81900204D
:104A7000501000204811002003A20108E8F7FF1F92
:104A8000ECF7FF1FF0F7FF1F0B34002060C5010893
:104A90006CC5010875C50108CA4C0B200DF07EFFDE
:104AA00020880DF07EFF608880B20DF07AFFC64B43
:104AB0001B68C3F3C000C3F38002800040EA4200D9
:104AC000C3F340021043C3F3401240EAC20003F0B4
:104AD000100318430DF065FFBC4B1A88636802F0A1
:104AE000080103F4475949EA010903F4804149EAFE
:104AF000010903F4004149EA010903F4803149EA5C
:104B0000010903F4003149EA010903F4802149EA6B
:104B1000010903F4002149EA010903F4801149EA7B
:104B2000010903F0007349EA0303DFF8D49212F09D
:104B3000010F99F8009018BF4FF00208C9F38009DF
:104B400008BF4FF0000843EA090312F0020F43EADE
:104B5000080314BF4FF0040C4FF0000C12F0040FC8
:104B600043EA0C0C14BF4FF0100E4FF0000E12F081
:104B7000400F14BF202700274CEA0E0E12F0100F32
:104B800014BF4FF4007600264EEA070712F0200FFC
:104B900014BF4FF4806500253E4312F4807F14BF9C
:104BA0004FF400600020354312F4007F14BF4FF42F
:104BB00000110021284312F4806F41EA000114BF64
:104BC0004FF080630023002019430346247AA34258
:104BD0000AD27F4A9D5C012202FA05F50D421CBFF4
:104BE0009A4010430133F2E70DF0E4FE794B93F85D
:104BF000B80700F005BC784B33F91400013490FB82
:104C0000F5F080B20DF0CDFE032CF4D16D4CA08CEC
:104C10000DF0C7FEE08C0DF0C4FE208D0DF0C1FE3E
:104C2000608D0DF0BEFEA08D0DF0BBFEE08D69E342
:104C300010200DF0B3FE0024684B185D01340DF018
:104C400078FE102CF8D100F0A0BC70200DF0A6FE6C
:104C500000260E2474435B4D01362B6C2344B3F8BD
:104C600019010DF09EFE2B6C2344B3F81B010DF0CF
:104C700098FE2B6C2344B3F81D010DF092FE2B6CB3
:104C8000234493F81F010DF054FE2B6C234493F83A
:104C900020010DF04EFE2B6C234493F821010DF002
:104CA00048FE2B6C234493F822010DF042FE2B6C3E
:104CB0001C44D4F823010DF07DFE082EC9D100F06C
:104CC00064BC70200DF06AFE424C04F1700594F84B
:104CD000D4000DF02EFE94F8D5000DF02AFE94F8C5
:104CE000D6000DF026FE94F8D7000DF022FE94F8C1
:104CF000D8000DF01EFE94F8D9000DF01AFE07340E
:104D000094F8D3000DF015FEAC42E0D100F03DBCAC
:104D100010200DF043FE0024314B185D01340DF0DE
:104D200008FE102CF8D100F030BC2E4D002428785D
:104D3000400000F0FE000DF031FE2B789C4280F028
:104D40002484294B33F814000DF02BFE0134F4E7D2
:104D5000264C06200DF022FE20880DF022FE6088F1
:104D60000DF01FFE224B1888CCE204200DF016FE39
:104D7000144B186E00F007BC07200DF00FFE1D4B02
:104D80001888FF28A8BFFF20C0B20DF0D2FD1A4B33
:104D9000186880F3100080B20DF003FEB5F86400CF
:104DA0000DF0FFFD0B4B93F88721144B186822B1CF
:104DB0000A23584380F3100001E000F30F0080B293
:104DC000A0E200BF5010002058190020201A002037
:104DD0005910002060110020421100208010002096
:104DE00094100020D01A0020D03100208C310020F7
:104DF000501100204819002054190020501900209B
:104E000009340020BF4C02200DF0C8FD94F8E201E7
:104E10000DF08FFD94F8E101F2E20B200DF0BEFDE4
:104E2000AB6E002618780DF084FDAB6E58780DF04F
:104E300080FDAB6EB44C3344187901360DF079FD2A
:104E4000032EF6D1A36ED8790DF073FDA36E98787A
:104E50000DF06FFDA36ED8780DF06BFDA36E588931
:104E60000DF09FFDA36E187ACAE2A74C1E200DF02C
:104E700095FD236C00251B78022B65D1236C05F171
:104E8000080253F82200A1490EF0FCFF12F0BEFF09
:104E900080F30800C0B20DF04CFD236C9C4903EB7D
:104EA0008503D86A0EF0EEFF12F0B0FF80F3080021
:104EB000C0B20DF03EFD236C05F10E0253F8220046
:104EC00094490EF0DFFF12F0A1FF80F30800C0B29A
:104ED00001350DF02EFD032DD0D1072D236C21D1EE
:104EE000586C8A490EF0CEFF12F090FF80F3080054
:104EF000C0B20DF01EFD236C8449986C0EF0C2FF09
:104F000012F084FF80F30800C0B20DF012FD236C94
:104F100093F84C000EF05EFF12F078FF80F308006B
:104F2000C0B20BE02B4458780DF003FD236C2B44EA
:104F3000D87A0DF0FEFC236C2B44587D01350DF022
:104F4000F8FC0A2DC9D120E3236C2B4458780DF0CE
:104F5000F0FC236C2B44D87A0DF0EBFC236C2B4433
:104F6000587D01350DF0E5FC0A2DEDD10DE33C2017
:104F70000DF014FD0024644D04F108022B6C65490A
:104F800053F822000EF07EFF12F040FF80B20DF0C9
:104F900008FD2B6C5F4903EB8403D86A0EF072FFA7
:104FA00012F034FF80B20DF0FCFC2B6C04F10E0209
:104FB00053F8220057490EF065FF12F027FF013425
:104FC00080B20DF0EEFC032CD5D1072C2B6C16D142
:104FD000586C50490EF056FF12F018FF80B20DF0D9
:104FE000E0FC2B6C4B49986C0EF04CFF12F00EFF5E
:104FF00080B20DF0D6FC2B6C93F84C000BE02344F0
:1050000058780DF0CEFC2B6C2344D87A0DF0C9FCF7
:105010002B6C2344587D01340DF0C3FC0A2CD4D1F1
:10502000B3E214F8010F002800F0AF820DF081FC0C
:10503000F7E701200DF0B2FC334B1B6C1878DFE171
:1050400050200DF0ABFC00252F4B0C211C6C324B7B
:1050500004EB850494F87920013501FB023393F8C1
:1050600038000DF066FC94F87A000DF062FC94F8BC
:105070007B000DF05EFC94F87C000DF05AFC142DC2
:10508000E2D182E2204B1C6C062303FB054494F81A
:10509000CE000DF04EFC94F8C9000DF04AFC94F8D7
:1050A000CA000DF046FC94F8CB000DF042FC94F8D9
:1050B000CC000DF03EFC013594F8CD000DF039FC2C
:1050C0000C2DDFD161E24FF00008012600270E4BC6
:1050D0001A7A974233DA0933FA5C00240C236343CB
:1050E0000D4D05F13001595C914207D12B44586BAD
:1050F00012F0C3FC82468EB9B14611E001341C2C7B
:10510000ECD11AE060110020501000200000204176
:105110000000C84200007A4404A2010880440CE068
:10512000D1450ADA0C2303FB04535B6B13F8090027
:105130000DF0FFFB09F10109F2E70137C7E7002E87
:1051400000F023825FFA88F00DF028FC0026BDE70E
:10515000CC4D0024287A0DF021FC2B7A9C4280F063
:105160001482C94B0021E65C0C2202FB01F3C74804
:1051700000F13007DA5DB24205D1034493F83800FC
:105180000DF0D7FB02E001311C29EDD10134E4E739
:10519000BF4C16200DF002FCB4F898010DF001FC94
:1051A000B4F844010DF0FDFBB4F846010DF0F9FB35
:1051B000B4F848010DF0F5FBB4F8DA010DF0F1FB9D
:1051C00094F8EF010DF0B5FB00200DF0B2FB94F860
:1051D000F0010DF0AEFB94F887010DF0AAFB94F8F6
:1051E00094010DF0A6FB00200DF0A3FBA54B0A20B7
:1051F0001B6CB3F9563093FBF0F080B20DF0D1FB8D
:1052000089E0E0B201340DF094FB092CF9D1BCE146
:1052100010200DF0C3FB9F4B9F4C187800F002004C
:105220000DF087FB9D4B18780DF083FB20680DF087
:10523000C1FB60680DF0BEFB994B18880DF0B1FB07
:10524000984B18880DF0ADFB8E4BB3F86C0059E00D
:105250000DF052FB074612200DF0A0FB894C17B948
:10526000266F656F05E0102F19BF00252E46A66F2B
:10527000E56F38460DF05DFB30460DF09BFB284690
:105280000DF098FBD4F880000DF094FB00200DF099
:1052900088FB00200DF085FB0020B1E0794D002453
:1052A00095F884002E4680000130C0B20DF076FBE8
:1052B00095F884000DF03DFB96F884309C4280F018
:1052C0006481794D285D0DF034FB05F11003185D04
:1052D0000DF02FFB05F12003185D30350DF029FB93
:1052E000285D0DF026FB0134E6E708200DF056FBA3
:1052F00000200DF056FB00200DF053FB00200DF0B8
:1053000050FB00200DF04DFB3FE104200DF046FB6B
:105310005F4B986837E194F87C010DF00AFB94F834
:1053200080010DF006FB94F87F010DF002FB94F86C
:10533000810165E0564C07200DF030FBB4F8820186
:105340000DF02FFBB4F884010DF02BFB94F88601CF
:105350000DF0EFFAB4F88801D4E74D4C0C200DF0B5
:105360001DFB94F892010DF0E4FAB4F89C010DF0E5
:1053700018FBB4F898010DF014FBB4F89A010DF085
:1053800010FB94F893010DF0D4FAB4F89E010DF0DF
:1053900008FBB4F8A001B5E73D4C04200DF0FEFA7F
:1053A00094F8D8010DF0C5FA94F8D9010DF0C1FABE
:1053B000B4F8DA01A6E73D4C3D4D2078002600EB1D
:1053C0004000C0B20DF0EAFA237802359E4280F028
:1053D000DC8015F8020C0DF0ACFA15F8010C013662
:1053E00000EB800000EB800000F2EE2080B20DF0B8
:1053F000D8FAE9E701200DF0D1FA254B93F8940192
:105400000DF097FAC1E008200DF0C8FA0024204BF7
:10541000234493F88A0101340DF08BFA082CF6D15D
:10542000B3E0184B1A4C93F8C50004F12805C0EB03
:10543000C000C0B20DF0B2FA94F8F60100231D4A84
:10544000D25C904200F0A5800C333C2BF7D108349D
:10545000AC42F1D199E040200DF0A0FA0C4C04F1DF
:105460004005B4F8B0020DF09CFA94F8B2020DF0C9
:1054700060FA043494F8AF020DF05BFAAC42F0D15C
:1054800083E000BF501000205910002004A2010842
:10549000601100205C1900206419002062190020AE
:1054A000601900205E190020D5100020D01A0020BD
:1054B00002130020A01B0020E0200DF06FFA424CE8
:1054C00004F18005B4F83202043400F03F000DF01E
:1054D00068FAB4F82E02C0F386100DF062FA94F860
:1054E0002C0200090DF025FA94F82C0200F00F00B0
:1054F0000DF01FFA94F82D020DF01BFAAC42E1D129
:1055000043E0324C0D200DF049FA08F0EFFF0DF0AA
:1055100010FA20880DF04EFAE0680DF04BFA07F013
:1055200021FC30E00DF0FCF9054684200DF036FA40
:1055300028460DF03FFA254BDC6805F18003A342B5
:105540008CBF641B802407F0C7FC284622466946AE
:1055500009F000F805460024AC4216DA1DF80400F4
:105560000DF0E7F90134F7E713200DF017FA0024E6
:10557000174B185D01340DF0DCF90B2CF8D100202D
:105580000DF018FA00200DF015FA012018E00020A7
:1055900016E00DF0CEF9B4F8F8010DF002FA94F827
:1055A000FA010DF0C6F994F8FB010DF0C2F994F878
:1055B000FD010DF0BEF994F8FC010DF0BAF946E7D3
:1055C00020B0BDE8F08700BF601100201800002067
:1055D00060C501086B4B6C4A2DE9F04F5E89146879
:1055E0004FEA062AB4EB0A0A9C884FF000054FEAFE
:1055F00004481C894FF0000BA4FB0A6765EB0B0BFA
:1056000004FB0B77F40944EA476418EB04065C8852
:105610004FF000094FEAE7154FEAC438DC8849EB40
:10562000050787B0CDE90467A4FB0A6704FB0B7785
:10563000340A44EA076418EB04064FEA27259C89DC
:105640004FF0000949EB0507CDE90067AAFB0467A5
:1056500004FB0B77F40D44EA472414F5FA664FEA8D
:10566000E75545F10007B6F5FA6F77F10003CDE98C
:105670000267964666DADDE90489A4FB046704FB49
:1056800005F34FF0050C07EB4307A6FB0C230CFBBF
:1056900007335F104FEA3206B8EB06084FEA92066E
:1056A00046EA837669EB07099F10DDE90023921B28
:1056B00063EB0703CDE90023DDE90267334A4FF0CE
:1056C000FF33964277EB0303CDE9048927DA40F6EE
:1056D000AC520023A4185D4104FB05F3A4FB044570
:1056E0006FF0060205EB4305664202FB0566A4FB6C
:1056F0000223334418EB020649EB0307CDE90467A4
:105700000B26A4FB062306FB0533DDE900455B10F1
:105710004FEA3202A41A65EB0305CDE90045DDE945
:1057200002450AFB0BF3AAFB0AAB0BEB430B4FEA58
:10573000DA7242EA4B02A41A4FEAEB7365EB0305F7
:10574000CDE90245DEF80440009B019DA4FB032344
:1057500004FB05334FEA525848EAC3284FEA63591D
:10576000DDE90423B8EB020269EB03039946D30B8E
:1057700043EA494300B1036009B1029B0B6007B0E3
:10578000BDE8F08F041B00201811002024FAFFFF51
:105790002DE9F04FDFF8589285B00746D9F8080098
:1057A0000E460EF01BFB8E4C804620880EF012FB3E
:1057B0004FF05C51054640460EF064FB4FF06451DB
:1057C000824628460EF05EFB014650460EF050FA27
:1057D0004FF06251824640460EF054FB4FF06A5142
:1057E000804628460EF04EFB014640460EF040FA39
:1057F0000546B4F902000EF0F1FA014628460EF013
:1058000041FB5146054650460EF03CFB8046B4F93C
:1058100004000EF0E3FA014640460EF033FB014669
:1058200028460EF027FA80460EF0F2FC6D49054638
:10583000A06140460EF0DAFBD9F80C3080462846CD
:1058400001930EF0CBFA4FF07C510EF01BFB664932
:105850000EF00EFA0546E389B4F90A0002930EF041
:10586000BDFA29460EF00EFB29460EF00BFB4FF059
:1058700058510EF007FB8146B4F90800B4F810B097
:10588000B4F80CA00EF0AAFA29460EF0FBFA014675
:1058900048460EF0EFF94FF058510EF0F3FA4FF082
:1058A00060510EF0EFFA4FF07E510EF0E3F98146B1
:1058B000E0880EF08FFA014648460EF0E3FA002128
:1058C00081460EF073FC00287BD1294628460EF055
:1058D000D9FA03900FFA8BF00EF080FA039B014681
:1058E00018460EF0CFFA4FF060510EF0CBFA834617
:1058F000BDF908000EF072FA014628460EF0C2FA11
:1059000001460EF0B7F9014658460EF0B3F94FF0D4
:105910007A510EF0B7FA834601980EF05FFA01460D
:105920004FF093400EF0A4F905460FFA8AF00EF0FE
:1059300055FA4FF08F410EF0A5FA014658460EF089
:1059400099F94FF066510EF09DFA014628460EF087
:105950008FF926490EF096FA49460EF047FB0546A8
:10596000B4F916000EF03AFA29460EF08BFA2946E1
:105970000EF088FA4FF040510EF084FA8146B4F9E7
:1059800014000EF02BFA014628460EF07BFA4FF079
:1059900060510EF077FA014648460EF06BF98146E9
:1059A000B4F912000EF01AFA014648460EF062F9F8
:1059B0004FF076510EF066FA014628460EF05AF97D
:1059C00000E0002017B10EF023FC38602EB14046F5
:1059D0000EF01EFC64235843306005B0BDE8F08F24
:1059E000641B00200000A04500007A470050C3451A
:1059F00018110020704770472DE9F041324C334DAB
:105A000062892B8AB4F904809A1A2389B4F902E0D6
:105A10005A43B4F91230D613B4F91420DB023244DD
:105A200093FBF2F232440A26E2615643A2F57A620F
:105A300002FB02F3B4F90EC002FB0EFE02FB08F2F9
:105A4000B4F90C801B130CFB03FC03FB08F31B14C1
:105A500003EB62320232E388921002F500425343B4
:105A60004CF25032B4F920704FEAEE2EB4F90040F7
:105A70000EEBEC2C0CEB8404BC406D690234A5EBFE
:105A8000A4043A4162434FEAD3384EBFB2FBF8F365
:105A90005400B4FBF8F340F6DE3448BF5B001A1242
:105AA000524362430A4C08365C43241404EB2242FE
:105AB00002F6CF62361103EB221300B1036001B18D
:105AC0000E60BDE8F08100BF181B002018110020F7
:105AD00043E3FFFF024B4FF480521A80704700BF30
