:020000040800F2
:100000000050002075230108152401085D0D01082A
:10001000152401081524010815240108000000001A
:10002000000000000000000000000000152401088E
:100030001524010800000000152401088BFC0008AD
:1000400015240108152401081524010815240108A8
:1000500015240108152401087D7300087B7300082E
:100060001524010815240108152401081524010888
:10007000152401081524010891E30008152401083E
:100080007F730008152401081524010815240108B0
:1000900015240108152401081524010879730008A6
:1000A000152401085DE10008152401086DE1000830
:1000B00051E1000841E1000831E10008C5530008A2
:1000C000C9530008BD530008C15300081524010896
:1000D0001524010885E3000879E300086DE30008B2
:1000E00099FC0008152401081524010800000000EF
:1000F0000000000000000000000000000000000000
:0C01000000000000000000005FF808F1A3
:100110002DE9F04F754B764EA3B03360002373602A
:100120000EF057F918B90EF075F90AF037FD0AF01C
:10013000FFFD704A704C1378704D43F0010313704B
:1001400000230A930B930C934FF4E0130D93236851
:10015000287B43F480332360A36943F01003A36139
:10016000236803F400330B930A9B01330A930B9B20
:100170001BB90A9BB3F5A06FF2D123685E4913F453
:10018000003301D0022315E00A6842F001020A6040
:100190000A93236803F002030B930A9B01330A932B
:1001A0000B9B1BB90A9BB3F5A06FF2D123689B0789
:1001B00039D501230C93524B52491A6842F0100270
:1001C0001A601A6822F003021A601A6842F00202EA
:1001D0001A606368636063686360636843F48063A4
:1001E0006360494B1A68043B22F070425A60474AE8
:1001F0001160616821F47C116160596841F000412F
:100200005960D96821F40041D9609B681F0449BF37
:100210003F4B4FF4E01313604FF480130D930C9B8E
:10022000012B01D117E0FEE7022B18D168B10D9B1D
:10023000B3F5801F02D14FF4A01305E00D9BB3F579
:10024000E01F02D14FF400130D930D9963680B4327
:1002500043F4803302E0636843F46013636023680F
:1002600043F0807323602168234B8901FBD55968D3
:1002700021F003015960596841F002015960636837
:100280001D4903F00C03082BF9D14B68DFF88C8073
:1002900003F00C03042B03D0082B03D0194B12E0FE
:1002A000136810E04B684868C3F38343C70303F146
:1002B000020301D4174905E0496811F4003F1168B1
:1002C00018BF49084B43C8F8003063681249C3F3AC
:1002D00003130B44197ED8F80030CB40C8F8003027
:1002E0001368084A93421BD101221DE02BA5000888
:1002F000A0080020B42F002000100240A4270020F6
:100300000020024000127A0004100140300000205A
:10031000001BB70000093D00746301085000002075
:100320008A4A934202D10222894B1A70DFF878A2DE
:10033000884BDFF878C2CAF80C30A3690DF1880B3E
:1003400043F00103A361636A834FB360636A60464D
:1003500043F080736362A3694FF0000943F01C030C
:10036000A3614FF6FF732BF82C3D5946CDF80CC016
:100370008DF85E9007F00DF93846594607F009F9F7
:100380005946764807F005F9754A5846536843F0D0
:10039000007353600BF0E6FB724A179B4946B3FBB0
:1003A000F2F3714A71481360182214F042FAD8F837
:1003B00000304FF47A72B3FBF2F36D4A013B5360A5
:1003C000F0238AF823300723C2F808901360AB6843
:1003D000DFF8DC91DFF8DC81C9F8003098E80F0025
:1003E0008BE80F00A3694FF0100A43F00803A361E4
:1003F000A369179843F00803A36108233B6118A978
:10040000C7F810A007F0C5F819981AA907F0C1F8A5
:10041000D9F80020100713D5564B93F89021012AE4
:100420000ED8554993F89121896811F0805300F056
:10043000E68505E04F4B002283F891210AF04AFE41
:1004400064200FF018FCA0224C48002114F0F1F9B0
:10045000E369002243F00703E361A36943F4006307
:1004600043F00C03A361444B4FF0000803F10C016F
:1004700002F8018001320E2AF5D1FF229A76DA764F
:100480001A775A773E4B3F4A41461A603E483C2213
:10049000D9F8004014F0CDF94146C4F38017052384
:1004A0003A4ADFF8E4E0885C0C224A4302F80E0086
:1004B00047B91E3801289FBFFF2003F1FF3302F820
:1004C0000E00DBB201310529EAD1314A95F805A0C9
:1004D0001370304B304983F800A0304B264A33620A
:1004E000C0330B602E4BA10603EBCA035B7848BFF9
:1004F00001235362002340F2DC512A4A22F81310F0
:100500000133082BF7D110A800211C2214F091F917
:1005100014F4007CDFF8A09004F400684ED0A3042B
:100520000AD4B8F1000F0AD095F8842109F10C0320
:10053000012A08BF4B4604E0CDF8109002E009F113
:100540000C030493CDF858B03AE000BF001BB7008D
:10055000DD2F00200005FA05000C014000100140CD
:100560000000014040420F00B02300206816002028
:1005700010E000E0A4270020A0080020F8230020BD
:10058000C016002092290020C4160020649D010896
:10059000C80F00202403002014250020B4270020C9
:1005A000908E01087A0F002000ED00E00008014065
:1005B000D81900209C63010874630108CDF810C0AD
:1005C000BAF10E0F04D00AF0EF0ABAF1080F02D107
:1005D00001238DF852300120CDF814C009F094F8B1
:1005E000DDF814C018B14088003018BF0120C4F3F2
:1005F00040038DF84630C4F3403300F001008DF81D
:100600004030C4F3C0338DF845008DF849708DF843
:100610004330B8F1000F07D095F8848108F1FF3717
:10062000D7F1000848EB0708C4F300438DF84A30BF
:100630001CF1000318BF01238DF84B30736A04F0DE
:100640000101003318BF01238DF84C30C4F300536F
:100650008DF84D30B5F84631C4F3C002ADF85030D6
:10066000B5F85231B5F84471ADF84E30C4F380435B
:100670008DF8473095F85431ADF85670181C18BFF6
:100680000120E40448BFAF4C8DF8480048BFB4F8DF
:100690004C41B5F8500148BFADF85640B0F5FA7F6F
:1006A0008DF844808DF841108DF84220ADF854004B
:1006B00002D90BB9ADF8563095F8D431A24886F876
:1006C0002830002386F8293043709DF85230002BE3
:1006D0000CBF0023022301B902B1013309EB8309E6
:1006E000D9F838309A1E1A330793002306920593DF
:1006F000069B33F8024F06934FF6FF739C4200F0BF
:100700009F819DF84520E3B2240AE5B21AB19A1EF2
:10071000012A40F290819DF8492032B18B491A019B
:1007200089588B4A914200F086819DF84A0030B189
:1007300086491A018958864A914200F07C819DF8C9
:10074000462052B18149039E01EB03114A68B2422F
:1007500003D10A89102A00F06E819DF8432052B11E
:100760007A49039E01EB03114A68B24203D10A8918
:10077000022A00F060819DF8442052B17349754E01
:1007800001EB03114A68B24203D10A89022A00F040
:100790005281169E7EB16D4F326807EB0317796860
:1007A000914208D13A89B188914200F04481F188A0
:1007B000914200F04081022C02D19DF8402003E0DC
:1007C000012C04D19DF84120002A00F034819DF8CD
:1007D0004C205E4C1E015AB19DF8522042B9A3F143
:1007E0000802012A04D8A2595B498A4208BF04259D
:1007F0009DF84D20344452B19DF852203AB910B1C1
:100800000C3B012B01E0043B032B40F2FC80012D4B
:1008100048D1524FDFF834A1FF2387F8703087F8B2
:1008200071300AEB06035A7B586803F108091B89EB
:100830004FF00008ADF85C3017A9022387F87480E8
:10084000C7F880408DF85F308DF85E2087F82C80E7
:10085000C7F83080C7F83480C7F83880C7F86C8094
:1008600087F8728087F8738006F093FE5AF80600C6
:1008700099F80210424606F02AFD204641462A46D3
:100880000DF0D0FC364BC7F88C80C7F88430354B60
:100890002046C7F8883007F1840107F188020DF07F
:1008A00009FDC8E0022D63D19DF814204FF01C0C07
:1008B0000CFB02FC294B002703EB0C0808939DF866
:1008C00014304FF0010988F87530204B88F87670A5
:1008D0009A19517B506802F1080A12898DF85E104E
:1008E00088F87E7017A988F87490C8F88040CDF811
:1008F00024C0ADF85C208DF85F5006F04AFE134B23
:100900009AF8021098593A4606F0E1FC204639461A
:100910004A460DF087FC1449089BDDF824C0C8F84E
:10092000841012496344C8F8881003F18401C8F8A0
:100930008C7020460A1D0DF0BDFC059B4B440593B1
:1009400079E000BFA4270020C9080020A083010887
:1009500000040040000C0140002C0140A0080020D1
:1009600001700008E170000809730008D96F0008E1
:10097000032D46D19DF84730964D974ED3B19DF843
:100980004830964F95F82A8053B1954BBDF85420C6
:100990002046B3FBF2F2082192B2BDF8563003E0D4
:1009A00020464FF6FF72082106F0E6FE46F82800C2
:1009B000C76020E0BDF8542095F82A70B2F5FA7FA0
:1009C000BDF856300BD986492046B1FBF2F208211A
:1009D00092B206F0D1FE834B46F827000AE0824926
:1009E0002046B1FBF2F2012192B206F0C5FE7B4B2C
:1009F00046F82700C36095F82A30013385F82A307D
:100A000019E0042D17D1BDF84E20774B714D93FBA3
:100A1000F2F22046BDF85030012192B295F82960DB
:100A200006F0AAFE95F8293005EB86060133C6F8D4
:100A3000540185F82930069B079A93427FF458AEFB
:100A4000644F6A4E97F82930002487F87431684B58
:100A500034701D78A5F11703022B18D83B6A0021CA
:100A6000185903EB040811F04FF810B17B6A5BBB17
:100A700025E0604B04EB030E98E80F008EE80F00B2
:100A8000337810340133C02C3370E7D1EEE75A4B82
:100A900013F835C003EBC503D3F8048086F800C013
:100AA000B8F1000FE2D06445E0DA524A230103EBCB
:100AB000020E43440FCB01348EE80F00F3E74F4F93
:100AC0003B68DB0424D41DE04D4B4E4A13F835003F
:100AD00003EBC5035C681070002CF0D00023834248
:100AE000EDDAC3EBC3016218D2F800C0DFF83CE1D5
:100AF000013341F80EC001EB0E079188B98092795D
:100B0000BA71ECE705F0EF03082B3F4B24D125E049
:100B10003378012BF6D93D4C04EB031303F1100697
:100B20001034B442EED054F8100C4FF07C5110F059
:100B300057FE4FF07C5144F8100C54F8140C10F090
:100B40004FFE4FF07C5144F8140C54F80C0C10F08C
:100B500047FE44F80C0CE3E70E2D08D11A78182D47
:100B600042F010021A7008D10FF03EFB05E01A782F
:100B7000192D22F010021A70F5E70FF019FB3B68EF
:100B8000234D5E035EBF234B01221A70224A234E7F
:100B90001378234843F0040313702B784FF48052EA
:100BA000022B34BF142310238DF85E304FF0020364
:100BB0008DF85F30B369ADF85C2043F00403B36196
:100BC00034BF0024012417A906F0E3FC154B7CB3C5
:100BD000154A2EE0A0080020C4230020F170000870
:100BE00000127A000171000840420F00F423002037
:100BF0002403002060020020908E0108D8190020F4
:100C000090680108A0240020A01B0020680200209A
:100C1000DD2F002090070020B42F0020001002409C
:100C200000080140C42F0020D9FB0008A1240020A7
:100C3000BE4A00201A600FF03FF8BD4BBD4C93E850
:100C40000300B3698BE8030043F00803B36117980E
:100C500018A906F09EFCF3694FF0030943F48043A2
:100C6000F3613369204643F48043336118238DF8E0
:100C70005E3059464FF42043ADF85C304FF0040A23
:100C80008DF85F9006F085FC4FF48043204659466E
:100C90004FF48058ADF85C308DF85EA006F079FC1A
:100CA0001023204659468DF85E30ADF85C8006F082
:100CB00070FC3369322043F480433361336923F499
:100CC000804333619C4B1A8802F4415242F44572CE
:100CD00042EA09021A80998B072221F40061090473
:100CE000090C99831A821A8892B242F040021A8043
:100CF0009F23C4F810808DF83C3000238DF83D30E0
:100D00008DF83E308DF83F300EF0B5FF5246C4F8F6
:100D1000148058460FA90FF09DFCC4F810809DF870
:100D20005E309DF85D201B0243EA02439DF85F2080
:100D30001343824A934214D032200EF09CFFC4F831
:100D40001480F5200FF0BCFCFF200FF0B9FC7028D8
:100D5000C4F8108005D12B78022B04BF784B83F8A0
:100D600000902B78032B0CBF1F20022008F050FCB2
:100D70002B78032B03D0012007F0B1F807E0022005
:100D800008F0C2FC0028F6D04388002BF3D095F879
:100D900000906C4D4FF0100B284600215A463C68DD
:100DA00013F047FD4FF6FF73ADF83C30022304F417
:100DB000004804F400674FF0000A1C408DF83E30F4
:100DC0008DF83FA00DD060480FA9ADF83CB00BF0F6
:100DD00075F804232B700124072385F801A0AC705B
:100DE000EB70B8F1000F0ED0022357480FA9ADF8F1
:100DF0003C300BF063F80123E2182B71AB71072331
:100E00006C71EB71D4B2B9F1010F0FD920234E48A8
:100E10000FA9ADF83C300BF051F8052301222B72DD
:100E2000AA72631C07226C72EA72DCB27FB10223E1
:100E300040480FA9ADF83C300BF040F809230122DF
:100E40002B73AA73631C07226C73EA73DCB273689A
:100E50003E4843F44043736073693C4F43F00103E1
:100E60007361B36943F40073B3610AF003FE17A81A
:100E700009F0B2FA364B00261793364B012C189323
:100E800094BF334680231C934FF480731D934FF41B
:100E900080631E93202317A91F9338464FF40053F5
:100EA0001A94209319961B96219609F0A2FA3B6892
:100EB000294A43F001033B605368012C23F470235B
:100EC00094BF0021012123F4807343EA012353607E
:100ED0009168224B013C0B40314643F4602343F0C0
:100EE00002039360D36AE4B223F4700343EA045428
:100EF000D46201236A18907800286BD06C5C581C6F
:100F0000092CC0B2D278144F2AD9A4F10A06D7F816
:100F10000CC006EB46064FF0070E0EFA06FE2CEA52
:100F20000E0EB2404EEA0202FA6026E0EDFB000827
:100F3000BC630108000C014000380040152020006F
:100F4000DD2F00202C19002000080140080002407D
:100F50004C2401403C19002000240140FDF7F1FF22
:100F60003E6904EB440C4FF0070E0EFA0CFE26EA25
:100F70000E0602FA0CF232433A61062B3A4E0CD8B6
:100F80005A1E776B02EB82021F23934027EA030766
:100F900004FA02F33B4373631BE00C2B0CD8DA1FFB
:100FA000376B02EB82021F23934027EA030704FA00
:100FB00002F33B4333630CE0A3F10D02F76A02EB4B
:100FC00082021F23934027EA030704FA02F33B43FC
:100FD000F3620346043110298CD1234B9A6842F402
:100FE00080729A609A6842F001029A609A6842F0B0
:100FF00008029A6099681C4A0D0739D5FAE7013A48
:10100000092A3FF61DAAD8F82C0004935946C7F8C0
:1010100014A0CBF80000039806F0BBFA039B3C2019
:101020001A46082313610EF026FE049BC7F810A091
:101030001F4695F891319F42BFF6FCA9039BDFF84C
:101040002CA04FF00808CAF810807820C3F814804C
:101050000EF006FE039BCAF814807820C3F81080B7
:101060000EF0FEFD0137E4E700240140000C0140D2
:10107000936843F004039360B14B9D6815F0040539
:10108000FAD19A6842F4A0029A60AE4BB3F85801C4
:10109000002840F0E385B3F95A21002A40F0DE85AC
:1010A000B3F95C31002B40F0D985A74E33689C031F
:1010B00020D5C8200EF0DFFDAE2006F090FE08B16E
:1010C00006F092FEA14C84F87501C8200EF0D3FD05
:1010D0009F4B0021C4F878319E4C0C22204613F01F
:1010E000A8FB0223E3700DF0C2FE0EF09DFD9A4BAB
:1010F0000344A360994F934C3B6894F85F0194F8C4
:10110000691194F86A21B3F95E3008F0A3FCB8467F
:1011100010B901200EF032FE914A0A27137843F0ED
:10112000020313708F4B10225A6108221A61DFF8F4
:1011300034921920D9F80C30013F83F01003C9F81C
:101140000C30D9F80C3083F00803C9F80C300EF0DD
:1011500092FD01200EF0B0FD19200EF08CFD002054
:101160000EF0AAFD17F0FF07E1D108234FF0100A97
:101170007D4FC9F81030C9F810A03B68180709D591
:101180007A4BC9F814A01B689847794B0122C9F81B
:1011900010A01A70774B1B68187B10F0CDFA7649B7
:1011A00010F01EFB754910F013FA09F034FC744B73
:1011B00071491860734B186910F012FB724B18607C
:1011C000724B188810F0B8FA0146714810F0BCFB59
:1011D000704910F0B9FB704B18600BF095F96F4B2C
:1011E000FF2118461B2213F024FBDFF8B4E1002294
:1011F000734602703A68012112F0020F8EF8001057
:101200001FBF417003218EF80010022118BF8170AA
:10121000510741BF9EF8001001F1010E83F800E074
:101220004FF0030E48BF00F801E012F00A0F0ED095
:101230001A7804218154511CC9B24FF0050E00F8F0
:1012400001E0D11C02321970D2B206218154D6F8C5
:1012500000E094F805C01EF0200F1FBF1A78511C43
:101260001970072118BF8154BCF1080F02D0BCF1DE
:101270000E0F04D11A78511C19700B2181541A7861
:101280001EF4803F4FF00C0900F8029002F10101BA
:101290001CBFDFF80C910232C9B219701FBF89F868
:1012A00000203E4A4FF00E0902F801901EF0040F94
:1012B00018BF1A784FF0120A1FBF511C1970102165
:1012C0008154374A1EF4806F117801F101095FFAE9
:1012D00089F982F8009000F801A00BD094F818A2C8
:1012E000BAF1000F06D0023111702C494FF0130AE9
:1012F00001F809A01EF4007F1FBF117801F1010958
:1013000082F800904FF0150918BF00F80190BCF169
:10131000180F47D111784FF0160900F8019001F12C
:1013200001095FFA89F94FF0170A00F809A001F1E5
:1013300003090231C9B282F8009000F801C031E01F
:1013400000240140A4270020D8190020A008002074
:101350002C290020740E0020404B4C008C0F0020E4
:10136000B42F0020000C0140A0160020B016002071
:10137000F8000020701B002035FA8E3CDB0FC93FBF
:101380009C1B0020EC1500208C1B00200C00002072
:101390000AE81C4100401C460C0200204D0F0020B2
:1013A0004C0F00201EF4002F1FBF117801F1010C1B
:1013B00082F800C04FF0190C18BF00F801C01EF4ED
:1013C000807F1FBF117801F1010E82F800E01A2220
:1013D00018BF42541A78511C1970142383540021E9
:1013E00098227D4813F025FA0FF0EFF97B497C4BEA
:1013F0007C481960B4F84E217B4B01607B491A8010
:1014000000237B4AD8F800E00B70B4F896111380E3
:1014100093701FFA81F90EF18102DFF81882DFF86C
:1014200018C2D8F80000DFF814A200F596704AF848
:1014300023002CF813900133122B6046EDD1D6F81F
:1014400000C00EF1D10E1CF4805F08BFB4F89C916F
:10145000A0F806901378F3B992F80290D3789945E2
:1014600019D2B9F1000F08D009F1FF3909EB890948
:1014700009EB890909F5617306E0013303EB830386
:1014800003EB830303F5617392F801909BB209F1BA
:10149000040920F8193004327245DBD11CF0080F22
:1014A00000F0FC8094F89031062B00F2F180DFE828
:1014B00003F004070E355172720045F2F05201E05C
:1014C00042F6F8224B4B1A800FF01DFADFE042F68D
:1014D000F822484B09011A800A2391FBF3F10023FB
:1014E000A1F5B061444A42F823100133122BF9D11F
:1014F000424A434940201160424A137008F0DEF925
:10150000002800F0C58001234FF0070A90F9000081
:1015100040218DE808043C4A3C4BB3E042F6F822F7
:10152000344B40201A803A4A344B1A60354B102213
:101530001A7008F0C3F9002800F0AA8001234FF0C8
:10154000000990F9000040218DE80802314A4FF46B
:10155000E13397E042F6F822264B40201A802E4ACB
:10156000264B1A60274B08221A7008F0A7F90028AA
:1015700000F08E8001234FF0000C90F90000402114
:101580008DE80810254A4FF4E13308F06DF8244B3C
:10159000C3F87C0178E042F6F821164A062B118048
:1015A00018494FF00C02DFF898C0DFF898E01D4CA6
:1015B0001D480A7048D0002323708CF800308EF844
:1015C00000301B230370194B4FF4E1341A70184B91
:1015D00005221A7045E000BF0C2700202C290020AE
:1015E000640E0020D4190020680E00209F0D0020FA
:1015F000E8190020D80E0020DC1700204000002051
:10160000A9B70008802F002025BA0008A086010095
:1016100095B7000879B900087DB700082DB9000812
:10162000A0080020681800206A1800206917002010
:101630006B180020E4190020E6260020E80D0020A9
:101640006A17002069180020002121708CF8001012
:101650008EF8001021210170B949BA4C0A70BA4ABB
:101660001370BA4ABA4B40201A6008F027F978B1D3
:1016700001234FF0000E90F900008DE8084023464A
:10168000B44A402107F0F0FF003018BF012028B90C
:10169000082009F051FAB04AAD4B1A603368AF4ADE
:1016A00013F4804F1FBF12211170AD48A84918BF15
:1016B000086042F20101194099B144F62060A9493D
:1016C0000880990441BF08211170A748A04948BF6C
:1016D0000860DC0741BF0C211170A4489C4948BF39
:1016E000086011789805A1F10401517053D5A04A02
:1016F000A04C049B4FF01009236093699E4843F06F
:1017000001039361049B0EA91B888DF83A90ADF8F4
:10171000383002238DF83B3005F03BFF23689648B4
:101720005B880EA9ADF8383004238DF83A3005F007
:1017300030FF23680120197A05F016FF23688F4ACD
:101740005B684FF0000A536117A88DF861904FF065
:10175000010917938DF860A08DF862900AF070FB74
:1017600023680FA85B7A8DF83EA08DF83C300323E8
:101770008DF83D308DF83F900EF04EFFD8F80030D8
:101780007F4A3C3B13603B684FF0FF3243F010034D
:101790003B607C4B1A607C4B7C4A7D4C13607D4ADD
:1017A0008033136033680027D903277040F1B2807B
:1017B00040F22A39DFF808A2DFF8B4B10CF000FAE1
:1017C0004FF001084A465046394684F8008013F02D
:1017D00030F8DBF81830704843F00403CBF81830C9
:1017E0004023ADF8383018238DF83B300EA9032381
:1017F0008DF83A300AF062FBDBF81C30674A43F0A0
:101800000203CBF81C30664B664C1B68ABF6947B2E
:10181000B3FBF2F32288013B22F45C721204120C37
:1018200022809BB21D22A2852385A4F81480238CDC
:1018300023F001031B041B0C2384238CA188228B1F
:1018400023F0020322F0730212041B04120C1B0C7F
:1018500089B242F0600243EA0803A1802283A7868E
:101860002384238B23F008031B041B0C43F0080381
:101870002383B4F844306FEA43436FEA53439BB287
:10188000A4F84430DBF8A83F43EA0803CBF8A83FAC
:1018900058460AF0EFF817A808F09EFD424BCDF825
:1018A00060A0179380231C934FF480734FF0100AAD
:1018B0001D9358464FF4005317A92093CDF864A008
:1018C000CDF868901B971E971F97219708F091FD00
:1018D000A3890FA89BB243F40073A381DBF8003007
:1018E00043F00203CBF800308DF83CA08DF83D802A
:1018F0008DF83E708DF83F800EF08EFE2B4B1A68EF
:101900002B4B43F825200135202DF7D105F04EFD56
:1019100005F04CFD33685A0540F18880254C264B74
:10192000D4F8AC6404201E6007F0C8FF0421C4F89A
:10193000B00407F09FFF214B84F8B40442E000BFDD
:101940006917002090D003006B180020A5B600088E
:10195000400000200DB8000809B80008802F0020C2
:10196000D9B70008D80E0020F9B70008E9B7000879
:101970000010024024020020000C0140000401403D
:1019800020020020B80F0020CC29002004100020E5
:101990001B080020001000200008014000366E01E6
:1019A000500000200004004034040040C4630108DB
:1019B0001C080020A00800209C070020D807002059
:1019C000200A002008201E6007F078FF884B0821BD
:1019D000186007F04FFF874D2C22002184F8B504D2
:1019E000284612F026FF7C232B708E236B70E02399
:1019F000EB7010207D2385F82B30C4F8B86407F015
:101A00005DFF1021C4F8BC0407F034FF84F8C00463
:101A10002020C4F8C46407F051FF2021C4F8C80492
:101A200007F028FF84F8CC040DF0F8F8724B734CE3
:101A30001B78022B65D1724A00251388322023F0CF
:101A400040031B041B0C138013884FF4805623F0B3
:101A500038031B041B0C138013889BB243F0400314
:101A600013809F238DF83C308DF83D508DF83E500B
:101A70008DF83F500EF0FFF88DF85D50614D042257
:101A80006E6117A80FA90EF0E5FD2E619DF85E307E
:101A90009DF85D201B0243EA02429DF85F3013432C
:101AA000594A934219D00AD8A2F51A42033A9342EE
:101AB0000CD002F51A420232934209D01CE0534A7C
:101AC000934205D00132934207D015E0202300E075
:101AD000802323804FF4807302E04FF480732380CF
:101AE0006380A38822881B02A3605343E360484BB2
:101AF000012283F8CD2404E0002323806380A360C7
:101B0000E360E4680CB3E40A26460027A7420ADA39
:101B10003D196D100DF15C08E8024146102205F0F8
:101B200095FF0F2806DC0CF08DFA394BF602C3F84E
:101B3000D0640AE0002358F82320013255D1013344
:101B4000042BF8D12E462C46E0E7324C324A23686B
:101B500013F4002318BF012313700EF065F82F4B08
:101B600018602F4B5A791946052A02BF2D4B4FF4A6
:101B7000C8721A802C4B4FF47A721A802B4BC822F1
:101B80001A802B4A137843F008031370294A1378FC
:101B900023F00203137040F60203226813406BB176
:101BA0002548264B1860264B03201870254B012032
:101BB000187025480023038024480380930341BF05
:101BC000234B03221A71DA7844BF42F00102DA7023
:101BD0008B68012223601F4B1A701F4A137863F031
:101BE0007F03137023B0BDE8F08F6F1C2546AAE772
:101BF000F4070020A8070020DD2F0020100000209F
:101C000000380040000C014018BA20001740EF00D7
:101C1000A0080020D8190020182500202802002044
:101C2000A42700203C1B0020D62F0020D42F00200A
:101C3000A01B0020D92F00201E29002024190020DD
:101C4000982300204C000020000F0020020F0020ED
:101C5000740E002090070020B42F0020464B002275
:101C60001A7000B20FF068FD44490FF0B9FD444C02
:101C70000746B4F95A010FF05FFD40490FF0B0FD7F
:101C80000646B4F95C010FF057FD3C490FF0A8FD82
:101C90003C49044638460FF09BFC08F0BCFE8146E8
:101CA000384608F0B8FE3749074630460FF090FC3A
:101CB00008F0B1FE8046304608F0ADFE31490646D8
:101CC00020460FF085FC08F0A6FE8346204608F06B
:101CD000A2FE4946824658460FF082FD49460390CF
:101CE00050460FF07DFD5946059038460FF078FDBF
:101CF0005146069038460FF073FD4146079058460E
:101D00000FF06EFD204C5146206008F100400FF0AE
:101D100067FD31466060A66006980FF061FD0146E0
:101D200005980FF055FC3146E06007980FF058FD1C
:101D3000014603980FF04AFC4146206107F100403C
:101D40000FF04EFD3146606103980FF049FD0146EA
:101D500007980FF03BFC3146A06105980FF040FD5D
:101D6000014606980FF034FC4946E06140460FF00A
:101D700037FD2062FFF799B93400002035FA8E3C18
:101D8000A4270020DB0FC93F00190020A0492DE93E
:101D9000F04F0A689F4C02F59C43203323609E4B12
:101DA00089B01E780191C6B19C4909688A4240F207
:101DB0000381013E1E70FFE0D9F80030072D98BF67
:101DC000595D974B88BF29461B6896489847032D55
:101DD0000CD904EB4505A8800136924BF5B21A7870
:101DE000DFF86492AA421946E6D820E0D9F800202C
:101DF00005F10E0302EB83039988DA880028E8D006
:101E00004FF47A73401A5843531A90FBF3F040F69C
:101E1000C90300F57A70984205DC40F2EE2398423F
:101E2000B8BF184601E040F6CA0080B2D1E742F2DE
:101E300001087D4B1B6803EA0808B8FA88F87B4B59
:101E40004FEA58181B68B8F1000F06D194F8292002
:101E500084F82820764A5078107094F828701FB1C2
:101E6000734A177887F0010794F82BB00326BBFB61
:101E7000F6F60F2206EB460684F82A20C6EB0B0680
:101E8000D9F8002091F800A0DFF8C491F6B200253F
:101E9000554559DA4FEA450C1FB1664931F815002E
:101EA00000E03846918ADFF8ACE1814202D8D18A5D
:101EB00081421ED25EF825005649834203D25E4914
:101EC00031F80C0019E0E8B20392029304910AF091
:101ED00079F9032D029B039A0FDC04994FF0010C52
:101EE00091F82AE00CFA05FC2EEA0C0E81F82AE0A3
:101EF00003E003F596714EF82510B8F1000F1CD1E0
:101F000094F8BC1029F8160031B9BBF1020F14D9AE
:101F10004049012081F8BC00B9F80210B9F800006E
:101F20000844B9F804100844444980B221F8150067
:101F300000B2032190FBF1F080B23F4909F106099C
:101F400021F815000135A3E794F82A203C4BA2F1B3
:101F50000F014A424A4184F8D62034496AB1394ACD
:101F60001268520109D40A68D9689A60521AC82ABC
:101F70001DD9012283F8212019E02D4A012050703B
:101F800010700A689968DA605B68521A9A4282BFD8
:101F90002B4B002283F821200025554507DAE8B2B3
:101FA0000AF010F9244B23F815000135F5E794F8F1
:101FB0002B30013384F82B301B4E3368DB0405D5FE
:101FC000204B1B68DF0701D40EF0F2FA019B1F685B
:101FD0001D4BD3F800E09EF80A0000283CD0164ABA
:101FE0009EF80C30013832F810001BB1C0F53B6090
:101FF000083080B200B2A0F57A70B0F57A7FA8BF41
:102000004FF47A7020EAE0700FF096FB0F4959E028
:10201000BC2F0020740D0020E0190020DC190020E6
:1020200040000020802F0020D8190020E419002053
:1020300008000020780D0020E6260020320E002047
:10204000E8190020480F0020D419002000007A442D
:10205000A00D0020E80D002033681D043BD5D4F806
:10206000D830934DFB1A002B35DB07F59C4320330A
:10207000C5F8D8308F4B5A798F4B33F812108AB28B
:102080009EF80B1092FBF1F195F8DC20013202F082
:102090000F0385F8DC302B4483F8DD100346874AB4
:1020A000825C0130134410289BB2F8D11BB293FB21
:1020B000F0F000B26428A8BF642020EAE0700FF0BE
:1020C0003BFB7F490FF040FC7E490FF089FB0FF08E
:1020D00073FD7D4B188033687C4D13F4807F00F0D6
:1020E0000E817B4BDFF8EC919F4205D999F80220D5
:1020F00012B9012289F8022099F80220002A00F082
:10210000FE80744A95F8008092F82170724A781E19
:102110009246474211684741002FC1F38063C8F3DC
:102120008008019314BF4FF0000B4FF0030B99F898
:102130002020052A00F2DD80DFE802F0034E53790B
:1021400088A5B8F1000F3AD0D4F8F000B4F8F41034
:1021500007F051FC012809D16049614A09681268F9
:10216000C988642000FB0122C9F81020019B6BB1D3
:102170005A4A126812794AB10EF0D2FD032289F848
:1021800020204FF47A72C9F81C20D0E7002F40F0CD
:10219000B080534AD9F8101010684E4A88420AD9C4
:1021A00002920EF0BDFD029A032182F8201040F643
:1021B000B831D161BBE7012182F82010B7E7019B5C
:1021C0004FF4806013B108F0A7FC01E008F094FC24
:1021D0000022C9F810208CE0002F49D10EF0A0FD9C
:1021E000A5E727B1052289F82020012000E0384624
:1021F000B8F1000F0CD0D4F8F0204FF0020BD189C9
:10220000384A118051809180344909684988D180C9
:10221000334A1168D9F81420914202D8B8F1000F5E
:1022200064D147F23052C9F81C20032221E02A78F9
:1022300042F002022A700EF0BBF9294AD9F81C10AC
:1022400012680A44C9F81820042212E0244A9FB1F7
:102250001168D9F8182091424BD9234A92781AB9BB
:10226000DAF80020D10744D42A7822F002022A703A
:10227000052289F820205AE71268D9F81C100A4470
:10228000C9F8182035E01549154A09681268C98847
:10229000642000FB01224FF48060C9F81020002266
:1022A00089F8202089F8032008F026FC3FE700BFCA
:1022B000740D00202C1900203C190020510E002024
:1022C0000000C84200C07F44BC0F0020D92F00206E
:1022D000404B4C00E8190020480F0020B02F002090
:1022E000E4190020E62600200800002000287FF4E2
:1022F0001EAFBBF1000F02D058460DF0F7FC964F11
:1023000007F5C470B7F84E1107F075FB01978346C7
:1023100068B90EF0FBFC914B0022C3F800B0C3F883
:1023200004B0C3F808B08E4B1A605A609A602B78DC
:102330005A0736D53368DB0633D58A4B1B78DF0660
:102340002FD4894B9B789BB1019B93F8E031BBF173
:10235000000F15D17BB1854B1A68D4F8F8309B1A61
:10236000002B08DA0EF024F9814B83F8FCB018E05A
:10237000BBF1000F0DD110200DF0B8FC01230EE0D1
:102380003BB17A4A4FF47A71126801FB0323C4F817
:10239000F83094F8FC3023B10DF094FC002384F85D
:1023A000FC30019B002293F8DEA193F8DF11B3F813
:1023B00098E1B3F89AC113466E489B0830F9127041
:1023C00001327745C4BF63F07F03DBB26745B8BF16
:1023D00043F04003042A8146EED194F8FD2064487E
:1023E0009A4205D190F8FE20F92A04D8013200E083
:1023F000002280F8FE2084F8FD305B4B5E4F9A7817
:102400009846E2B93B68D80708D5BBF1000F16D152
:102410002B78D90713D50DF029FF10E02B785A0738
:102420000DD5534B93F828304BB1544BDB7833B96F
:1024300011B10EF0BDF802E0BBF1000FF9D094F835
:10244000FE304B4A142BDFF850B140F0AE8098F8C4
:1024500002301AF1000A18BF4FF0010A6BB392F86C
:10246000FD305F2B11D12B7803F0040303F0FF0143
:1024700013B10EF09DF808E00B20039102920DF0CD
:1024800035FC029A039982F8FE10BAF1000F14D0BD
:1024900094F8FD307D2B10D12B7803F0040303F06A
:1024A000FF0213B10EF084F807E00B2002920DF04A
:1024B0001DFC2F4B029A83F8FE202B7803F00403B7
:1024C00003F0FF01002B70D194F8FD30284A572B00
:1024D0000AD12B4B4FF47A721A802A4B1B685B0788
:1024E00063D50A22284B34E03068400716D55A2BB2
:1024F00014D1264B187820B11970254B01221A707F
:1025000053E092F8FF3083F0010382F8FF300BB103
:102510000C2000E00D200DF0E9FB46E05D2B00F003
:102520007C845B2B00F07B845E2B02D1032000F0C7
:1025300077BC562B01D108F0CDFD98F802306BBB6B
:1025400094F8FD300A4A972B40F08384114B4FF4E6
:10255000C8721A8029E000BFA42700202C1A00208E
:10256000882F0020A01B002008000020E419002074
:10257000740D0020E6260020480F0020E8190020F6
:10258000D62F0020A0160020D42F0020691B002089
:102590006A1B00203C1B00208C0F002094F8FD30AB
:1025A0006F2B40F04D840DF061FE3368580732D533
:1025B00094F8FF30A3B12B78590711D5019BB9F9D5
:1025C0000620B3F898319A420ADD3B6813F0010304
:1025D00001BFAD4A32211180AC4A08BF82F8FF30FA
:1025E0003B68DA030AD5AA4B1A782AB9A94A1278A5
:1025F00012B9A54A3221118001220BE0A54A1378B5
:102600004BB12B7803F0040303F0FF011BB9A24B7D
:10261000117001221A70DBF8009000233B6009F171
:10262000830809F1D30A98F8002098F8013018F8C7
:10263000010C9A420BD2414607F0A8F938B118F8BC
:10264000022C012303FA02F23B6813433B6008F1BA
:102650000408D045E7D1914B1B7853B1904FDFF878
:1026600058923B68DFF8548213F0020F40F0398330
:1026700031E309F1D20709F58D783A787B7817F8BC
:10268000010C9A4225D2394607F080F908B397F831
:1026900004C00C21BB7801FB0C41824A013B03EBD7
:1026A00043031344D1F8102197F803909A427748D6
:1026B0000FD0C1F81031002390F83C21C1F814313B
:1026C000012303FA0CF322EA030381F80C9180F84A
:1026D0003C3106374745D0D1734BDFF8E4A1D3F83E
:1026E0000080724B4FF0000B1B68029394F8283067
:1026F0000393DAF80020002A00F0E48292F80090B8
:10270000B9F1000F00F0DE82DAF804300299CB1A3A
:10271000002B0CDB01F5FA73CAF8043094F83C1175
:10272000012303FA0BF321EA030384F83C31039BF2
:10273000002B00F0C7821AF8043C51780433DBB256
:10274000002940F080825A4931F91310594BB3F8EF
:10275000963103F1C800814201DD977814E0C83B4F
:10276000994202DA91784F420EE094F83C2101231D
:1027700003FA0BF322EA030384F83C31029B03F5CE
:10278000FA73CAF804309DE294F83C3143FA0BF333
:10279000DB0700F19782002FCCBF022001200DF053
:1027A000D5FA09F1FF32394B132A00F28382DFE8B0
:1027B00012F0140023003200440061008900EE0092
:1027C0005301B801EB011A0281024400550089004F
:1027D000EE005301C00025018A0198F80010404620
:1027E0000F44FA2FA8BFFA2727EAE77788F8007086
:1027F00007F0B2F801201EE098F8011040460F449F
:10280000642FA8BF642727EAE77788F8017007F0EC
:10281000A3F802200FE098F8031040460F44642FFD
:10282000A8BF642727EAE77788F80370D3F8401138
:1028300007F04AF803203946D2E198F805100D2038
:1028400039446429A8BF642121EAE17188F80510A0
:102850000DF0D6F9B9F10D0F00F02C8298F80410A4
:102860000E2039446429A8BF642121EAE17188F867
:102870000410B5E198F806100520394481F30801E9
:1028800088F80610ACE100BF501B0020740D00203A
:10289000681B0020691B00206A1B0020DA2F002023
:1028A000480F002038640108C40F0020E4190020FC
:1028B000E6260020A4270020A0160020440F0020B8
:1028C000840E0020D3F844311A78022A22D13846E7
:1028D00004930EF031FFA9490FF036F8049B596AB2
:1028E00005930EF075FE002104900FF017F9059B7B
:1028F00048B9049AA14910460FF02EF9049A059B95
:1029000010B19E4A00E000225A620F20114607F0E3
:102910008DF80AE099780F203944C829A8BFC8214A
:1029200021EAE17199700DF06BF9B9F10F0F00F028
:10293000C181934BD3F8449199F80030022B1AD1FE
:1029400038460EF0F9FE8D490EF0FEFFD9F8201042
:102950000EF03EFE002107460FF0E0F830B9384691
:1029600086490FF0F9F810B1844F00E00027C9F84C
:102970002070122057E199F8011012203944C8291B
:10298000A8BFC82121EAE17189F8011028E1D3F834
:1029900044311A78022A22D1384604930EF0CCFE34
:1029A00076490EF0D1FF049B196B05930EF010FED3
:1029B000002104900FF0B2F8059B48B9049A6F49C2
:1029C00010460FF0C9F8049A059B10B16B4A00E05D
:1029D00000221A631020114607F028F80AE0197B3C
:1029E00010203944C829A8BFC82121EAE171197310
:1029F0000DF006F9B9F1100F00F05C81604BD3F8CF
:102A0000449199F80030022B1AD138460EF094FE0A
:102A10005A490EF099FFD9F82C100EF0D9FD00217B
:102A200007460FF07BF830B9384654490FF094F858
:102A300010B1524F00E00027C9F82C701320F2E0CB
:102A400099F80B1013203944C829A8BFC82121EADE
:102A5000E17189F80B10C3E0D3F844311A78022AE7
:102A600022D1384604930EF067FE46490EF06CFF03
:102A7000049BD96B05930EF0ABFD002104900FF081
:102A80004DF8059B48B9049A3C4910460FF064F88C
:102A9000049A059B10B1394A00E00022DA63112044
:102AA000114606F0C3FF0AE0997D11203944C82978
:102AB000A8BFC82121EAE17199750DF0A1F8B9F11B
:102AC000110F00F0F7802E4BD3F8449199F80030A5
:102AD000022B1AD138460EF02FFE2A490EF034FF91
:102AE000D9F838100EF074FD002107460FF016F8E3
:102AF00030B9384621490FF02FF810B11F4F00E0D0
:102B00000027C9F8387014208DE099F815101420AA
:102B10003944C829A8BFC82121EAE17189F81510F4
:102B20005EE0D3F8449199F80030022B1AD1384670
:102B30000EF002FE11490EF007FFD9F828100EF032
:102B400047FD002107460EF0E9FF30B938460B4932
:102B50000FF002F810B1094F00E00027C9F8287003
:102B6000092060E099F8031009203944C829A8BF5A
:102B7000C82121EAE17189F8031031E00000C84260
:102B8000740D002000007A44D3F8449199F8003085
:102B9000022B1AD138460EF0CFFDBB490EF0D4FE01
:102BA000D9F834100EF014FD002107460EF0B6FFE0
:102BB00030B93846B4490EF0CFFF10B1B24F00E043
:102BC0000027C9F834700A202DE099F80D100A206A
:102BD0003944C829A8BFC82121EAE17189F80D103C
:102BE0000DF00EF866E0D3F8449199F80030022B0E
:102BF0001DD138460EF0A0FDA4490EF0A5FED9F86F
:102C000040100EF0E5FC002107460EF087FF30B9BA
:102C100038469D490EF0A0FF10B19B4F00E0002701
:102C2000C9F840700B20394606F000FF42E099F8E1
:102C300017100B203944C829A8BFC82121EAE17127
:102C400089F81710CCE7012934D19078904A32F9ED
:102C50001370B7F5617F05DB40F633039F42A8BFD1
:102C60001F4601E04FF46177B9F10C0F22D14FF408
:102C7000966393FBF0F0A7F5617797FBF0F7854A31
:102C8000FFB21378BB4215D0042F34BF3B4602235A
:102C90001370019A09FB03237F4A03F2A6731360A2
:102CA00008F022F8484639460CF0AAFF781CC0B25A
:102CB0000DF04CF894F83C21012303FA0BF3134375
:102CC00084F83C310BF1010BBBF1040F0AF10C0A43
:102CD0007FF40FADC2E43368D80511D56F4BDB78B4
:102CE00073B1D9F8003099070AD5B8F8003013F05D
:102CF000010A0AD10EF00AF8012007F00DFF04E0E6
:102D0000012007F0F9FE012300E000233A68520792
:102D10000DD563B1012007F0EFFEB8F80030980739
:102D200008D40DF0F3FF022007F0F6FE02E00220C7
:102D300007F0E2FEB8F80030594A13F0030F4FF0E5
:102D4000100114BF51611161D9F8002012F00A0F6F
:102D50002DD03A68D1060DD55A070ED4042007F0BD
:102D6000DBFE504B0A22B3F9043093FBF2F3A4F8D4
:102D7000483102E0042007F0BFFE3B689B0607D500
:102D8000B8F80030580606D4402007F0C5FE02E02F
:102D9000402007F0B1FE3B68590641BF414B0A2273
:102DA000B3F9043093FBF2F348BFA4F84A313B680F
:102DB0004FF480701A0502D507F0AEFE01E007F06F
:102DC0009BFE394B5A791C46082A01D00E2A02D1A3
:102DD000402007F091FE33685B0540F19A8094F83B
:102DE00018321BB92B7813F0040F02E03B6813F480
:102DF000002F0BD02D4B00221A703C2007F0BAFA9E
:102E0000002800F086800CF0CBFBF6E70BF006FF05
:102E100009B0BDE8F04F0DF0D8BC012000E0022061
:102E20005FFA80F8019A08F1FF3382F8A43707F0BF
:102E3000B5FE07F07DFF40460CF088FFFFF7B5BBFD
:102E4000BAF1000F3FF47CAB7E2B7FF479ABFFF738
:102E5000AABBA72B06D1164A137843F004031370BC
:102E6000FFF7A3BB0021BB2B079101D1022303E095
:102E7000B72B04D14FF6FE73ADF81E3020E0BE2B09
:102E800018D102231AE000BF0000C84200007A44B3
:102E9000E626002070230020C40F0020E81900203F
:102EA000000C0140A80F0020A4270020BC16002021
:102EB000A01B0020BD2B1AD14FF6FE73ADF81C30BD
:102EC000DBF80030BDF81C10B3F860200A44A3F80A
:102ED0006020BDF81E10B3F862200A44A3F86220F7
:102EE00008F0F8F8002384F8FE30FFF75EBB792B7A
:102EF00004D192F8033123F0010306E07A2B7FF42A
:102F000054AB92F8033143F0010382F80331FFF729
:102F10004CBB09B0BDE8F08FBB4B2DE9F04FB3F9C6
:102F20000610BA4B8FB01E68728991420EDBB1F564
:102F3000FA6FF479BFBF8B1A6343A2F5FA6493FB6F
:102F4000F4F4ACBFC4F16404643400E06424B04B16
:102F5000B04AB3F896E193F95E3112689BB20292DF
:102F600015460393002240F2E630A74B4FEA420891
:102F700033F912C0CEEB0C0303F2F317874203D8E8
:102F8000002BB8BF5B4201E04FF4FA73022A0193B1
:102F90004FF06400029B2FD093F819712FB1019B61
:102FA000BB42CCBFDB1B00230193019B9A4F93FBD9
:102FB000F0F96FF0630B37F819A00BFB093B09F12F
:102FC000010937F919700FFA8AF9C9EB070707FBEE
:102FD0000BF797FBF0F7914B574423F80870B7189D
:102FE0003F79019B7B438E4F93FBF7F364339BB296
:102FF000634393FBF0F02BE093F81A712FB1019B20
:10300000BB42CCBFDB1B00230193019BDFF834A242
:1030100093FBF0F06FF063093AF9107009FB003B85
:1030200001303AF91000039BC01B00FB0BFB9BFB1C
:10303000F9FBC7EB0B075F43784B9F80019BB0798F
:10304000002BB8BF5B424343754893FBF0F06430FC
:103050006F784FF06409474397FBF9F7714B022AE9
:103060009F54EF7A03F1030A00FB07F797FBF9F788
:103070000AF802706F7D03F1060300FB07F090FB76
:10308000F9F0664F9854684B0ED1F44583F80290DE
:103090000DDB5F4CB4F89821914214DBB1F5FA6F67
:1030A000A8BF4FF4FA610FE0F4459C5404DA37F8F6
:1030B00008305B4227F808300132032A05F1010588
:1030C0007FF451AFE5E71146891A4FF47A735943FB
:1030D000C2F5FA62B1FBF2F1642391FBF3F2DFF87F
:1030E0006CE16FF063063EF8120006FB021101323C
:1030F0003EF9122006B2921B514391FBF3F30344B5
:10310000FB804A4B454D1B885A0642D5484B0A2046
:10311000B3F9043093FBF0F0464B1B88C01A00B2A1
:103120000EF00AFB44490EF05BFB444906460EF0E4
:103130004FFA07F070FC8046304607F06CFC0646FC
:10314000B5F902000EF0F8FA8146B5F900000EF06C
:10315000F3FA414682460EF043FB31468346484629
:103160000EF03EFB014658460EF030FA0EF0FEFC23
:103170004146288048460EF033FB31468046504693
:103180000EF02EFB014640460EF022FA0EF0EEFC49
:1031900068802B4B2B4D18880EF0CAFA2A4B05F18C
:1031A0001C0101222E8B07F0C7F90EF005FD80B23D
:1031B000B6FBF0F095F82630461CB6B2AE84A846B1
:1031C000002B45D0B5F928A000231E4D37F813C0B9
:1031D00005F1320E3EF8132005F12A09C2EB0C0B63
:1031E00039F913202EF813C00AFB02F132B291FB19
:1031F000F2F25A4429F813200133042BE5D10023BD
:1032000085F82630288526E0E6260020C40F002019
:10321000A42700208C0F0020D2150020181A0020AF
:103220000CFEFFFFCE0E0020201A0020440F0020CD
:10323000A80F0020BE0E002035FA8E3CDB0FC93FE0
:10324000400F0020C00E0020BD378635BA15002083
:103250002B8D013B2B85B84D0023B5F928000028A4
:1032600012DDB5F92460B549A1F1080232F9132045
:1032700031F81310424392FBF6F28A1A27F8132012
:103280000133042BEFD100E02B85AD4E33689B0753
:1032900076D545F20721AB4BDFF89CB21A68EB6B91
:1032A000D31A8B426CDDCBF83C2008F073FFA64BA1
:1032B000DFF8DCA21A789946032ABAF8003022D146
:1032C0000A2B2CD90023282089F800300CF0D3FCDD
:1032D00008F060FF9D4B188808F046FF9C4B1A6869
:1032E000D37890FBF3F0013008289A4BA8BF082050
:1032F0001870537980B24343A5F84030137958438E
:10330000A5F842000BE00A2B09D80323914A89F85B
:10331000003000231370ABF84030ABF8423099F81E
:103320000030894A012B0DD002D3022B1ED027E09A
:10333000B5F84020BAF800309A4221DD012389F81F
:10334000003011E0BAF80010B5F842308B4202DDCF
:103350000223137011E0784BB3F8403001339942E7
:1033600002DD002313700BE0082007E0B5F84230BF
:10337000BAF8002001339A42E0DC07200CF0B6FCDA
:103380003368754E13F4006F7BD06E4A696C126817
:103390006948C1EB020945F20721894571DD4264A4
:1033A000B7F906206A4FB4F84E11D7F800A0A2F57D
:1033B0007A729AF80AE0694FBEF1010F04D047D340
:1033C000BEF1020F22D045E0654B816C5A7B654B04
:1033D0004FF0080E33F8122091FBFEF392B2C91A97
:1033E0008B18836493FBFEF3A0F84C2040F6E44274
:1033F0009BB25343BAF80820C2EB13334FF47A72EE
:103400005343BAF9062093FBF2F322E03078BAF87E
:1034100008B04007C7F800B01CD55348029201938A
:1034200006F0E9FA019B029A18B913F0100F18BFC1
:10343000002202FB02F1322391FBF3F31344BAF9A9
:1034400006205A434FF47A7392FBF3F35B4400E097
:1034500000233B603B68D8E9140103FB09F94FF4F2
:103460007A7399FBF3F910EB090241EBE973C8E9B0
:103470001423104619463D4A00230EF0BDFB3C4B79
:1034800018603C4B1A68984612F4805F02D00A20FC
:103490000CF02CFC384F3B68002B00F08B80DFF8E1
:1034A000F4E0364ADEF800001168F24681429146A7
:1034B00000F28080324ADFF8D4B01078596808BB37
:1034C00001201070BBF800208A5C52B31B78013BCE
:1034D00000FA03F2D4F8D0371A4201D10CF0ECFB19
:1034E000284B01221A7008F0BFFEBBF80030C3B9A8
:1034F0003B681B78053B012B13D80CF095FB224B46
:1035000018600EE000231370BBF800208A5C42B103
:10351000184601930CF0D0FB1A4A019B137008F077
:10352000A3FE3B68BBF800205B6818499B5CFE2B40
:1035300032D100230B803DE0C00E0020F20E0020AF
:10354000D8190020BC2F0020982300204419002007
:10355000241900204C000020D92F0020C00F00208B
:103560002C1900203C1900202C290020407E050049
:1035700028190020480F0020C0230020B823002075
:10358000B42300200C1A0020D0260020BC230020E9
:10359000D0190020E4190020FF2B02D10CF092FB7F
:1035A00008E0DAF800000A2707FB03030132C9F834
:1035B00000300A803378590703D59B4B08225A61A3
:1035C00038E0D8F80020D2075EBF984A43F00103E4
:1035D0001370974B974A1B781B075EBF337823F015
:1035E00001033370944B1B6813F0040F02D093490E
:1035F000098851B99249098809B19F0705D4914BAF
:103600001B88003318BF012333B1022313703378B2
:1036100023F00103337004E03178C80758BF022358
:1036200013700CF001FB884B1B68C01A002801DBEB
:1036300008F01AFE0BF0F2FA844B1F780193002F6A
:1036400000F0A880824E3368002B00F0DE863068E0
:103650000CF0FCFB002800F0D8867D4B7D4C1868F0
:103660000CF0F1FB092801D03F2850D14FF00009A0
:103670004F46D4F80080784DB8F1000F05D0774858
:103680002968424611F022F910B9A94607B92F4618
:10369000734B10359D42EFD3C7B1D7F800E0D9F88E
:1036A00000C023681EF803501CF80300A8420DD187
:1036B0005A1C6A4938B92D2B05D8664D2A60202539
:1036C000CD54885402E0CD542260EAE723680BB160
:1036D0004F4511D063480CF057F84F4507D857F8BD
:1036E000100B0CF051F809200CF046F8F5E75E4895
:1036F0000CF04AF84FF0000823689845A7D2574BC2
:1037000013F808000CF038F808F10108F4E7236812
:10371000002B40F05F86042840F082864F4802F07C
:1037200071FE00F072BED9F80000DFF844A10CF081
:103730008DFB30B3DAF800000CF085FBDBF80030CD
:10374000024693F84810A9BB242840F09580012236
:1037500083F84820DBF80030DFF818A193F8482000
:10376000062AE0D193F8490001F030FE8346002894
:1037700000F0AC800BF060FFD8F80030002283F836
:10378000482095F85D30002B40F0FF854C37982F8E
:1037900000F03B86354BFA1892F84A100129F5D112
:1037A000DFF8D080FB58C8F80020314AC3461360C8
:1037B0009146B8E7012904D14D2814BF0022022206
:1037C000C6E7022904D13C2814BF00220322BFE728
:1037D00003290CD140284FF0000102D983F848108A
:1037E000B8E758711971D97198710422B0E70429AA
:1037F00006D1997983F849004A409A710522A7E7D2
:103800000529A7D1587919798842987906D9504065
:103810009871481C18710B441A729BE790420CBFB8
:103820000622002294E700BF000C0140D92F00209F
:10383000A01B00200C1A0020A0160020D42F00206E
:103840003C1B0020D62F0020101A0020DA2F002069
:1038500094230020FC0F002000660108CC0F0020FC
:10386000D067010880840108858401080C270020A6
:10387000902300208C2300203378C2495B073FF55A
:1038800069AF2328DAF8003013D1019A02900120A1
:103890001070BD4803910360BC48AB650BF074FF2A
:1038A000BB480BF071FF0399029A0B7843F00203B7
:1038B0000B70B84B1B681B78934201BFB64AB74BDD
:1038C0001A60B74A04BFB74BDA6043E7DAF8002062
:1038D00092F849304A2B00F053854FD8332B00F033
:1038E000588421D8292B00F0F28309D8252B00F029
:1038F000C983272B00F0CD83232B40F08D855CE21C
:103900002D2B00F0F58307D82B2B40F085850BF08D
:1039100067FE607100F034BD2F2B00F0A784312BBF
:1039200000F0B98400F078BD3E2B00F0078110D87C
:10393000372B00F0628404D8352B00F0778200F03A
:103940006BBD392B00F0B2833C2B00F0018100F0FD
:1039500063BD432B00F02E8406D8412B40F05C85DC
:103960004FF0000900F01ABC442B00F0C984482B2A
:1039700040F052850AF0B4FB00F002BDD02B00F0FD
:103980005F835FD8CA2B00F01D8116D84E2B00F044
:10399000D283C82B00F0A2804C2B40F03D850BF069
:1039A0001FFE84F8D6010BF01BFE84F8D7010BF044
:1039B00021FEA4F8D80100F0E3BCCD2B00F04B832E
:1039C00004D8CC2B00F05A8200F026BDCE2B00F09C
:1039D0004B83CF2B40F020850BF00CFE6FF4AF6EC5
:1039E00000EB0E039BB2C62B98BFA4F896010BF018
:1039F00001FEA4F840010BF0FDFDA4F842010BF01C
:103A0000F9FDA4F844010BF0F5FDA4F8D8010BF082
:103A1000E7FD0BF0E5FD0BF0E3FD0BF0E1FD84F8B5
:103A200085010BF0DDFD84F892010BF0D9FD5E4BB2
:103A3000D3F800900BF0DEFD00EB80004000A9F809
:103A40005E0033E3D82B00F04A810FD8D32B3FD050
:103A500003D8D22B29D000F0DFBCD42B00F0808219
:103A6000D62B40F0D9844FF0000957E2F22B00F03A
:103A7000BF8212D8EF2B40F0CF84DFF82C91D9F819
:103A800000A00BF0B7FDAAF86200D9F800900BF087
:103A9000B1FDA9F8600000F073BCF32B00F0348492
:103AA000FA2B00F0EB8200F0B7BC337803F004038C
:103AB00003F0FF09002B40F063840BF091FD022816
:103AC00084F8A40740F2C282384B83F8A497BDE281
:103AD0000BF090FD364B188000F052BC92F8059028
:103AE0004FEA5909B9F1120F03D906F03FFC00F073
:103AF00047BC4FF0000ACA4507D20BF07BFD05AB6F
:103B000023F81A000AF1010AF5E74A4600234B455B
:103B100007DA05A931F81300264921F8130001330B
:103B2000F5E7122A05D0234B002123F812100132A9
:103B3000F7E7012385F85C3000F022BC0BF050FD64
:103B400084F8E0010BF04CFD84F8DF0100F018BCB4
:103B5000DFF85490D9F800A00BF042FD18B102280C
:103B6000A8BF022000E001208AF80000D9F8003048
:103B70001B78022B18BF104A104B08BF104A1A605E
:103B8000FEE300BFD92F002094230020B584010854
:103B900085840108C0160020EFBEADDEF04F002086
:103BA0000400FA0500ED00E08C0F0020A42700209F
:103BB000BC0E002024180020B1C2000844000020E0
:103BC00089090108DB4B81461A689A461278022A55
:103BD0006AD1DAF8003009F1080B02930BF000FD0E
:103BE0000DF0A6FDD4490DF0AFFE029B43F82B006B
:103BF000DAF800B00BF0F4FC09F10A030BEB830BCD
:103C00000DF096FDCD490DF09FFEDAF80030CBF8AF
:103C1000040002930BF0E4FC0DF08AFDC8490DF09E
:103C200093FE09F10E0B029B09F10109B9F1030F93
:103C300043F82B00CDD1B9F1070FDAF800B01AD153
:103C40000BF0CEFC0DF074FDBB490DF07DFECBF802
:103C50004400DAF800B00BF0C3FC0DF069FDB64982
:103C60000DF072FECBF84800DAF800B00BF0B8FCAB
:103C70008BF84C0012E00BF0B3FCCB448BF8010046
:103C8000DAF800B00BF0ACFCCB448BF80B00DAF8A0
:103C900000B00BF0A5FCCB448BF8150009F101092D
:103CA000B9F10A0FC7D16BE3DAF800B00BF098FC5A
:103CB000CB448BF80100DAF800B00BF091FCCB4458
:103CC0008BF80B00DAF800B00BF08AFCCB4409F15A
:103CD0000109B9F10A0F8BF81500E5D150E38146CF
:103CE000DFF850A209F1080BDAF8003002930BF06C
:103CF00081FC0DF01DFD92490DF026FE029B43F85C
:103D00002B00DAF800B00BF075FC09F10A030BEB9D
:103D1000830B0DF00DFD8A490DF016FEDAF8003028
:103D2000CBF8040002930BF065FC0DF001FD844913
:103D30000DF00AFE09F10E0B029B09F10109B9F120
:103D4000030F43F82B00CBD1B9F1070FDAF800B01D
:103D50001AD10BF04FFC0DF0EBFC79490DF0F4FD9E
:103D6000CBF84400DAF800B00BF044FC0DF0E0FCB6
:103D700073490DF0E9FDCBF84800DAF800B00BF01C
:103D800039FC8BF84C0012E00BF034FCCB448BF880
:103D90000100DAF800B00BF02DFCCB448BF80B00DF
:103DA000DAF800B00BF026FCCB448BF8150009F1D3
:103DB0000109B9F10A0FC7D1E2E20BF011FC132897
:103DC00083463FF692AEDFF86CA1DAF800900BF074
:103DD00007FC00235B490C2202FB0312117A81428B
:103DE00020D1137809EB8B0989F881300BF0F8FBAF
:103DF00089F882000BF0F4FB89F883000BF0F0FBEC
:103E0000514A524B89F884001A60DAF80000504B8E
:103E100000211860813005F0DDFD4E4B80F001007F
:103E20001870ADE201331C2BD4D15EE60BF0D8FB49
:103E30000B2882463FF659AE3E4BD3F800900BF06C
:103E4000CFFB03283FF651AE062303FB0A9989F8FE
:103E5000D6000BF0C5FB89F8D1000BF0C1FB89F847
:103E6000D2000BF0BDFB89F8D3000BF0B9FB89F849
:103E7000D4000BF0B5FB89F8D50081E25379092B0A
:103E80007FF633AEDFF8D490D9F800A00BF0A8FB92
:103E90008AF80000D9F800A00BF0A2FB8AF8010014
:103EA0000BF09EFBD9F800306428A8BF642018717D
:103EB0000BF096FBD9F800306428A8BF6420587135
:103EC0000BF08EFBD9F80030FF28A8BFFF209871B7
:103ED0000BF086FBD9F800A0642828BF64208AF87C
:103EE00007000BF07DFB8AF80200D9F800A00BF068
:103EF00077FB8AF80300D9F800A00BF07BFBD8F819
:103F00000030AAF80A005B790A2B40F23982D9F80E
:103F100000900BF065FB89F8080031E20BF06AFBBA
:103F20000D4B23F8190009F10109B9F1080FF5D17A
:103F300026E200BF8C0F0020000020410000C84294
:103F400000007A44A4640108E4280020B40E002094
:103F5000B80E00200A00002072230020C40F0020A9
:103F600053790F2B7FF4C1AD0BF03AFB0728814644
:103F70003FF6BBADDFF854A4DAF800B00BF03AFB23
:103F80000E2303FB09F9CB44ABF82101DAF800B0AA
:103F90000BF030FBCB44ABF82301DAF800B00BF0A8
:103FA00029FBCB44ABF82501DAF800B00BF018FB85
:103FB000CB448BF82701DAF800B00BF011FBCB44AF
:103FC0008BF82801DAF800B00BF00AFBCB448BF831
:103FD0002901DAF800B00BF003FBCB448BF82A017F
:103FE000DAF800A00BF010FBD144C9F82B01C7E1AF
:103FF0000BF0F6FA0F2881463FF677AD0BF0F0FA9A
:10400000C9EBC909A14489F8D0000BF0E9FA89F895
:10401000D1000BF0E5FA89F8D2000BF0E1FA89F84B
:10402000D3000BF0DDFA89F8D4000BF0D9FA89F847
:10403000D5000BF0D5FA89F8D6000CF0D5F89FE141
:104040003378580700F19C810AF0E4F906F0A6FDE8
:1040500006F06EFE94E13378590700F19181D44B5C
:104060004FF4C8721A808BE133785A0700F18881C7
:10407000D04A137843F00403137081E133785B076F
:10408000E4D5C9E1A0600BF0BFFAA3681843A060B3
:1040900076E10BF0AFFAA4F858010BF0ABFAA4F8F4
:1040A0005A010BF0A7FAA4F85C0169E10BF098FA49
:1040B00084F87A010BF094FA84F87E010BF090FA00
:1040C00084F87D010BF08CFA84F87F0158E10BF045
:1040D00091FAA4F880010BF08DFAA4F882010BF09C
:1040E0007FFA84F884010BF085FAA4F8860147E191
:1040F0000BF076FA84F890010BF07CFAA4F89A01A0
:104100000BF078FAA4F896010BF074FAA4F8980171
:104110000BF066FADAF8003084F891015B79082B2D
:1041200040F22E810BF066FAA4F89C010BF062FAC3
:10413000A4F89E0124E192F805900323B9FBF3F95A
:10414000B9F1120F3FF6D1ACDFF884A24FF0000BAB
:10415000CB4580F015810BF043FA8AF8A0010BF0F3
:1041600049FA40F2ED23984205DD40F6CA03984231
:10417000A8BF184601E040F2EE20A0F2EE2019237D
:1041800090FBF3F00BF1010B8AF8A1010AF1020A8E
:10419000DEE70BF025FA84F89201F1E00BF020FA4B
:1041A00004EB090309F10109B9F1080F83F888014B
:1041B000F4D1E5E00BF014FAC4F808B060710BF02C
:1041C00023FAA3681843A0600BF00AFA84F8900160
:1041D0000BF010FAA4F858010BF00CFAA4F85A01ED
:1041E0000BF008FAA4F85C010BF004FAA4F88001C3
:1041F0000BF000FAA4F88201C2E053794FF0070AED
:10420000B3FBFAF2C2EBC2029A1A12F0FF0F7FF46C
:104210006CACB3FBFAFA0AF1FF3A5FFA8AFABAF128
:10422000FF0F00F0AD800BF0DBF95FFA80FB4FFA77
:104230008BF005F069FA814600283FF456AC80F80F
:1042400000B00BF0D7F9A9F802000BF0C9F989F812
:1042500004000BF0C5F989F805000BF0C1F989F8E5
:1042600007000BF0BDF989F80600D4E7DFF860918C
:1042700009F1400A0BF0BEF9A9F8A8020BF0B0F959
:1042800089F8AA020BF0ACF909F1040989F8A70230
:10429000D145EFD174E00BF0A3F91F2881463FF61A
:1042A00024ACD8F800305B79082B7FF41EAC0BF0FF
:1042B000A1F909F18A0904EB890A00F03F00AAF884
:1042C00002000BF097F9BAF80230800100F4FE50BA
:1042D0001843AAF802000BF083F9000104F8290042
:1042E0000BF07EF914F8293000F00F00184304F8A1
:1042F00029000BF075F98AF8010009F061FC3FE034
:10430000012385F85D303BE00BF06AF9FF28824617
:1043100022D100238DF813309DF81330052B14D8CB
:104320009DF81300244A9DF81330012102EBC303CA
:104330005B6852F83000994089B2482205F0C8F80D
:104340009DF813300133DBB2E4E71C484FF4805191
:10435000042205F0BDF813E005283FF6C6AB0020A7
:104360000BF08EF90BF068F9D9F800000BF068FD3E
:1043700018B932200BF07FFCF6E7504605F0B6F88E
:1043800000200BF07DF9FFF7F5B90D4BD8590BF074
:1043900057FD18B932200BF06EFCF6E70BF0E4FE87
:1043A00006F0D2FB074A084BDA60FFF7EFB900BF0F
:1043B0003C1B0020A01B00203C900108000801408D
:1043C0000C2700200400FA0500ED00E08C0F00200F
:1043D000A42700200C2825D00A282CD1424D434880
:1043E0000BF0D2F92846232110F059FA08B1401BEE
:1043F00020602368002B41D13B48002130222360FC
:1044000010F017FA019B1B787BB9394B9B68002B86
:1044100067D03848984764E005F0A8FFFFF7AAB9CD
:104420000C2804D134480BF0AFF934480DE07F2854
:1044300012D1FFF70CB90D28D0D07F2809D12A4A14
:10444000013B00212E482360D1540BF09DF9FFF76A
:10445000FEB82F2B3FF6FBA8A0F12002D2B25E2AB5
:104460003FF6F5A813B920283FF4F1A85A1C2260A2
:104470001D4AD0540BF080F9FFF7E9B85A1EA95C29
:10448000202901D11346B5E7174A00212360D154F2
:104490001C4B1D4DD3F80090D5F800A0DFF84880E4
:1044A000504610F00AFA074651463A46404610F088
:1044B0000DFA164A28B918F807304B445B785907AB
:1044C00003D010359542E7D306E0954204D2781C1C
:1044D000EB684044984702E00D480BF055F9002383
:1044E0008AE70FB0BDE8F08FCC0F00205893010889
:1044F000EC1500201E0F00208A8401088584010825
:10450000B18401085400002000660108D06701084A
:10451000958401086B4B6C4A2DE9F04F5E89146855
:104520004FEA062AB4EB0A0A9C884FF000054FEACE
:1045300004481C894FF0000BA4FB0A6765EB0B0BCA
:1045400004FB0B77F40944EA476418EB04065C8823
:104550004FF000094FEAE7154FEAC438DC8849EB11
:10456000050787B0CDE90467A4FB0A6704FB0B7756
:10457000340A44EA076418EB04064FEA27259C89AD
:104580004FF0000949EB0507CDE90067AAFB046776
:1045900004FB0B77F40D44EA472414F5FA664FEA5E
:1045A000E75545F10007B6F5FA6F77F10003CDE95D
:1045B0000267964666DADDE90489A4FB046704FB1A
:1045C00005F34FF0050C07EB4307A6FB0C230CFB90
:1045D00007335F104FEA3206B8EB06084FEA92063F
:1045E00046EA837669EB07099F10DDE90023921BF9
:1045F00063EB0703CDE90023DDE90267334A4FF09F
:10460000FF33964277EB0303CDE9048927DA40F6BE
:10461000AC520023A4185D4104FB05F3A4FB044540
:104620006FF0060205EB4305664202FB0566A4FB3C
:104630000223334418EB020649EB0307CDE9046774
:104640000B26A4FB062306FB0533DDE900455B10C2
:104650004FEA3202A41A65EB0305CDE90045DDE916
:1046600002450AFB0BF3AAFB0AAB0BEB430B4FEA29
:10467000DA7242EA4B02A41A4FEAEB7365EB0305C8
:10468000CDE90245DEF80440009B019DA4FB032315
:1046900004FB05334FEA525848EAC3284FEA6359EE
:1046A000DDE90423B8EB020269EB03039946D30B5F
:1046B00043EA494300B1036009B1029B0B6007B0B4
:1046C000BDE8F08F18160020200F002024FAFFFF0D
:1046D0002DE9F04F87B06C4C02916C4922888E68AE
:1046E0000546C2EB26135B435200C2EBE602B4F967
:1046F00002601B135643B4F90420B4F90A00534373
:104700009B1303EBE62606EB860380331B12B6F5FC
:10471000FA384FEAE6770493CB6847F1FF39A8FBF4
:1047200008AB039308FB09F3B4F908200BEB430B28
:10473000E389A6610593D31708FB03F102FB091176
:10474000A8FB02230B44C1171F030AFB01F300FB64
:104750000B33AAFB00011603194447EA1257020A59
:1047600042EA016292194FEA2123E6887B41003236
:10477000A2FB060143F5004306FB03114B10009317
:10478000CB170193DDE900231343B4F810E0B4F82C
:104790000CC06DD00FFA8EF0C1170AFB01F1AAFB15
:1047A000002300FB0B11BDF914600B44F71708FB45
:1047B00007F106FB0911A8FB06670F447904700492
:1047C000801841EAD6315941039B0FFA8CF8C3F5A2
:1047D000801E7246D317002212184FEACE764FEA97
:1047E000C3774FEAC8034B4147EA5E07B61A67EB47
:1047F000030740F63543A6FB030103FB0711DDE980
:1048000000230DF0F9F9B4F916204E1302FB06FE51
:10481000470B47EAC147D31707FB03EEA2FB072369
:104820005643734407FB0366A2FB07233344560E2B
:1048300046EAC3168219B4F914604FEA636741EB84
:1048400007037143F71700FB0717A6FB0001394464
:10485000C60C46EA413692194FEAE1474FEA122167
:10486000B4F912207B4141EA036113010B4400E0DB
:1048700000230DB11B0A2B60029B13B11A46049B47
:10488000136007B0BDE8F08F84160020200F0020D1
:10489000704770472DE9F041324C334D62892B8AC5
:1048A000B4F904809A1A2389B4F902E05A43B4F99E
:1048B0001230D613B4F91420DB02324493FBF2F227
:1048C00032440A26E2615643A2F57A6202FB02F301
:1048D000B4F90EC002FB0EFE02FB08F2B4F90C8024
:1048E0001B130CFB03FC03FB08F31B1403EB6232EA
:1048F0000232E388921002F5004253434CF25032E8
:10490000B4F920704FEAEE2EB4F900400EEBEC2C17
:104910000CEB8404BC406D690234A5EBA4043A415D
:1049200062434FEAD3384EBFB2FBF8F35400B4FBF6
:10493000F8F340F6DE3448BF5B001A12524362437C
:104940000A4C08365C43241404EB224202F6CF6280
:10495000361103EB221300B1036001B10E60BDE814
:10496000F08100BF2C160020200F002043E3FFFF42
:1049700013B50C4B04465B681B20022101AA984723
:1049800070B19DF804209DF8053043EA022303F539
:104990004E5310334FF48C7293FBF2F32333238086
:1049A00002B010BD04160020054B1A7E02F0FF0174
:1049B00022B10122027000221A76704701707047FE
:1049C000200F002037B5104B04465D68187806218B
:1049D0006A46A847A8B19DF800209DF80130012043
:1049E00043EA022323809DF802209DF8033043EA26
:1049F000022363809DF804209DF8053043EA0223DA
:104A0000A38003B030BD00BF0416002013B5104BC7
:104A100004465B683B2006216A469847A8B19DF88A
:104A200000209DF80130012043EA022323809DF8F5
:104A300002209DF8033043EA022363809DF804209E
:104A40009DF8053043EA0223A38002B010BD00BFE9
:104A500004160020B0F5807F0ED0BB280ED8612848
:104A60000ED829280ED813280ED809280ED80028C9
:104A700014BF0620002070470020704701207047B7
:104A800002207047032070470420704705207047BC
:104A900010B5224C2368998A89B211F4706F1EBF39
:104AA0001F4A0120507611F4E06F2BD01A8B9A88A0
:104AB000890522F480624FEA02424FEA12429A804C
:104AC00020D41A8892051DD41A88D0050FD51A88CB
:104AD000D105FCD41A8892B242F400721A801A8866
:104AE0009205FCD40F4B187803F0F9F90AE01A8804
:104AF00092B242F400721A809A8822F44072120430
:104B0000120C9A802268938A23F470631B041B0C96
:104B10009382054B00221A7010BD00BF841500203F
:104B2000200F0020881500209C150020054A08B59C
:104B3000138801339BB21380034B187803F0CFF92D
:104B4000002008BD420F00208815002008B54FF452
:104B5000804007F0A5F9012801BF044B4FF48042C3
:104B60005A61034B08BF987608BD00BF000401409E
:104B7000200F002010B5074C2368186907F090F942
:104B800030B123681A69044B5A61044B01221A762A
:104B900010BD00BF1016002000040140200F0020AF
:104BA000F8B50E461746084C4FF48055656140F045
:104BB00080000BF085FD3846002132460BF04AFD9F
:104BC00025610120F8BD00BF000C014070B50E4604
:104BD000054C4FF4805565610BF072FD30460BF0CB
:104BE0006FFD2561012070BD000C014070B5FFF71D
:104BF00031FF104C054619200BF03DF8A368152035
:104C00000021984710B902200BF0B8F845F01801C0
:104C1000A368C9B216209847A368002117209847B7
:104C2000A36801213D209847A3683E200121BDE8EB
:104C30007040184704160020F0B5274D85B0EB7E74
:104C4000002B46D1254C2368002B42D01A68244EF5
:104C500012B1B1690A43B2619A889868ADF8002030
:104C600002228DF80320694604228DF8022002F00A
:104C700090FCB369002743F00103B3612368012668
:104C8000187B197D02F070FC2368164993F9150012
:104C90000BF0BEF82368144A1B6953610293082382
:104CA0000DEB03008DF80D308DF80C708DF80E6053
:104CB00007F0C6F8236801A85B7D8DF806708DF8B3
:104CC000043003238DF805308DF807600BF0A4FC49
:104CD000EE7605B0F0BD00BF200F002010160020BA
:104CE00000100240754B00080004014037B504462F
:104CF000FFF7A2FF274B1A68274B9A420ED14FF4B9
:104D00000053ADF8043002238DF807300423234804
:104D10000DEB03018DF8063002F03BFCFFF78CFF32
:104D20002046FFF797FE05461D4C8021A3686B20A7
:104D3000984764200AF09FFFA368072168209847DE
:104D400064200AF098FFA36800216B209847642034
:104D50000AF091FFA36801216B209847A3681821EE
:104D60001B209847A36810211C209847A368294658
:104D70001A2098470B4AA368117819209847A3680E
:104D8000122137209847A36801213820984703B0A3
:104D900030BD00BF30000020001BB70000100140F4
:104DA00004160020A416002008B5FFF745FF024BAB
:104DB0004FF480521A8008BD0C00002070B50446E4
:104DC000FFF73AFF2046FFF745FE0546144C8021C9
:104DD000A3686B20984764200AF04DFFA368032165
:104DE0006B2098470F4AA3681178192098470F2025
:104DF0000AF041FFA36829461A209847A3681821A2
:104E00001B209847A36810211C209847A368022103
:104E100037209847A36838200121BDE87040184723
:104E200004160020A416002008B5FFF705FF074B65
:104E30005B7813B1012B03D008BD4FF4006201E091
:104E40004FF48052024B1A8008BD00BF00160020AC
:104E50000C00002010B54000204CC0B2207020484B
:104E6000204C0170204800210170012020701F4C4F
:104E700023601F4C23601F4B1A701F4A1F4B10707A
:104E800059761F49086811461A4630B383889C0535
:104E900015D40388DB050DD447F230530488A405EC
:104EA00002D5013BFAD112E08BB103889BB243F4E7
:104EB0008073038083889BB243F44073838047F2FE
:104EC0003053087810B1013BFBD100E013B9BDE8C5
:104ED00010402BE6507E80F0010010BD8E150020A2
:104EE0008C1500208A1500209415002090150020B4
:104EF000981500208D1500209C150020200F002003
:104F00008415002007B5002101AB03227720FFF7AD
:104F1000A1FF9DF805309DF804001B0243EA004301
:104F20009DF80600184303B05DF804FB08B5FFF7D1
:104F3000E9FF014B586008BD200F002008B5FFF7BE
:104F4000E1FF014B186008BD200F002007B5F721D5
:104F50006B4606227620FFF77DFF9DF800309DF816
:104F600001101B0343EA01139DF80210094A43EAAA
:104F70001113D3609DF803309DF804101B0343EA1E
:104F800001139DF8051043EA1113936003B05DF817
:104F900004FB00BF200F00200F4B13B51B780F4CF4
:104FA0000BB1A37EB3B1032201AB7720F621FFF74B
:104FB00051FF9DF805309DF804201B0243EA02438F
:104FC0009DF806201343064AB2F92020C2F10802D8
:104FD000D340636102B010BD2C000020200F0020E0
:104FE0002C1600200A4B13B51B780A4C0BB1A37E7C
:104FF00063B1022201AB7720F621FFF72BFF9DF86A
:1050000004209DF8053043EA0223238202B010BD3C
:105010002C000020200F002030B505460C4613461A
:1050200029462246BDE83040682013E713B5062222
:10503000044601211C206B46FFF70CFF08B39DF8C6
:1050400001309DF80020042143EA022242F38D0240
:1050500092FBF1F29DF8023022809DF8032042EA93
:10506000032242F38D0292FBF1F29DF8043062803C
:105070009DF8052042EA032343F38D0393FBF1F3EC
:10508000A38002B010BD13B50622044602211820E9
:105090006B46FFF7DFFEB8B19DF800309DF80120A8
:1050A0009B0803EB022323809DF802309DF8032028
:1050B0009B0803EB022363809DF804309DF80520D4
:1050C0009B0803EB0223A38002B010BD314B2DE9F6
:1050D000F3411B780546002B3BD00024264627468B
:1050E000A04601345320322108226B46E4B2FFF778
:1050F000B1FE08B9002049E09DF801209DF800307C
:10510000202C03EB02231BB29DF8032098449DF84A
:10511000023003EB02231BB21F449DF805209DF8CB
:10512000043003EB02231BB21E449DF8073003F04A
:105130007F0301D0002BD4D198FBF4F897FBF4F750
:1051400096FBF4F6144BA5F800806F80AE801C77B8
:105150001CE05320322106226B46FFF77BFE00281D
:10516000C8D09DF801209DF8003003EB02232B806E
:105170009DF803209DF8023003EB02236B809DF81D
:1051800005209DF8043003EB0223AB8002B0BDE89C
:10519000F08100BF16160020200F002013B502ABCF
:1051A00003F8012D4000214AC0B21070204A0020AF
:1051B0001170204901220A701F4908701F490B60B5
:1051C0001F490B601F4B20491A700A701F4B204A61
:1051D000587610681A4630B383889C0515D4038826
:1051E000DB050DD447F230530488A40502D5013BFA
:1051F000FAD112E08BB103889BB243F48073038031
:1052000083889BB243F44073838047F2305308781D
:1052100010B1013BFBD100E013B9FFF787FC02E0BE
:10522000507E80F0010002B010BD00BF8E1500203E
:105230008C150020941500208A1500209815002058
:10524000901500208D1500209C150020200F0020B7
:10525000841500207720482101229FE777205821DC
:1052600001229BE77620F421312297E7064B0021AB
:1052700093F82020054B9201343299767720F4215F
:1052800002F0FC028AE700BF2C160020200F00204D
:10529000034B00229A767720F4212E227EE700BF6E
:1052A000200F002003460A466820194676E713B50A
:1052B00000222A211C20FFF771FF0E2102221C2050
:1052C000FFF76CFF0F2103221C20FFF767FF2B2144
:1052D00012221C20FFF762FF164A02249369164827
:1052E00043F0040393612023ADF8043004230DEB55
:1052F00003018DF806308DF8074002F04AF9224686
:105300002C211C20FFF74AFF2D2101221C20FFF732
:1053100045FF2E2100221C20FFF740FF2A210522F5
:105320001C20FFF73BFF054B4FF480721A8002B040
:1053300010BD00BF00100240000801400C0000201A
:1053400008B50F2108221820FFF728FF0E22182089
:105350001021FFF723FF024B4FF480521A8008BD43
:105360000C00002008B5134B53201B782D21082278
:105370007BB1FFF713FF31210A225320FFF70EFF05
:105380002C210C225320FFF709FF532038219022B3
:1053900009E0FFF703FF31210A225320FFF7FEFE49
:1053A00053202C210A22FFF7F9FE40F20912024B8A
:1053B0001A8008BD161600200C00002002F08ABEDC
:1053C000FFF766BB02F086BEFFF762BB2DE9F04730
:1053D0004728A0B0044600F0648600F2CE802E2854
:1053E00000F0138667D8222800F0C38423D803284E
:1053F00000F0398214D8012800F02A82022840F0F7
:10540000858604200AF03CF943200AF006F94C2076
:105410000AF003F946200AF000F94C2000F0CABD5A
:10542000042800F02A82052840F070861A200AF02D
:1054300027F9002433E2282800F0848515D8242891
:1054400000F06B85262840F06186E54C06200AF0C6
:1054500017F9B4F858010AF016F9B4F85A010AF02D
:1054600012F9B4F85C0100F047BD2A2800F07D85F0
:105470002C2840F04B86DA4C0C200AF001F994F805
:1054800090010AF0CAF8B4F89A010AF0FCF8B4F8EE
:1054900096010AF0F8F8B4F898010AF0F4F894F8D4
:1054A00091010AF0BAF8B4F89C010AF0ECF8B4F8EB
:1054B0009E0100F021BD3A2800F0E8821DD8342872
:1054C00000F079840DD8302800F0B585322840F0FE
:1054D0001D8601200AF0D4F8C14B93F8920100F028
:1054E00069BD362800F07785382840F00F86042003
:1054F0000AF0C6F8BA4C00F016BD402800F05D85F1
:1055000011D83B2800F02E843D2840F0FF85B44C94
:1055100002200AF0B5F894F8E0010AF07EF894F859
:10552000DF0100F047BD452800F0DD8500F2A885C9
:10553000422840F0EB85AA4C10200AF0A1F86079CF
:105540000AF06BF8A0680AF0A7F894F890010AF046
:1055500064F8B4F858010AF096F8B4F85A010AF061
:1055600092F8B4F85C010AF08EF8B4F880010AF001
:105570008AF8B4F8820100F0BFBC6F2800F0E08226
:1055800000F2E980662800F0C68100F2BB804D2859
:1055900000F0F18415D8492800F0AC824B2840F087
:1055A000B5858F4C04200AF06BF894F8D6010AF008
:1055B00034F894F8D7010AF030F8B4F8D80100F0C4
:1055C0009BBC642800F08481652840F09F85854C51
:1055D0000B200AF055F820880AF055F8608880B250
:1055E0000AF051F8804B1B68C3F3C000C3F380027C
:1055F000800040EA4200C3F340021043C3F340126C
:1056000040EAC20003F0100318430AF03CF8A288F5
:10561000A36802F0080103F4475949EA010903F4B9
:10562000804149EA010903F4004149EA010903F410
:10563000803149EA010903F4003149EA010903F420
:10564000802149EA010903F4002149EA010903F430
:10565000801149EA010903F0007349EA0303DFF806
:105660008C9112F0010F99F8009018BF4FF00208CA
:10567000C9F3800908BF4FF0000843EA090312F09C
:10568000020F43EA080314BF4FF0040C4FF0000C64
:1056900012F0040F43EA0C0C14BF4FF0100E4FF041
:1056A000000E12F0400F14BF202700274CEA0E0E08
:1056B00012F0100F14BF4FF4007600264EEA0707D1
:1056C00012F0200F14BF4FF4806500253E4312F402
:1056D000807F14BF4FF400600020354312F4007F38
:1056E00014BF4FF400110021284312F4806F41EAE7
:1056F000000114BF4FF08063002300201943247B76
:105700000346F5E0692800F0A4810AD8672800F074
:105710002B81682840F0FA84102009F0B1FF0024A2
:105720008FE16D2800F0A88100F2B6816C2840F06E
:10573000ED842C4C062009F0A3FFB4F8680009F0B2
:10574000A2FFB4F86A0009F09EFFB4F96C300A2099
:1057500093FBF0F0CCE1772800F0968353D87328C0
:1057600000F0B28344D8702800F01C82722840F008
:10577000CD841B4C162009F083FFB4F8960109F084
:1057800082FFB4F8400109F07EFFB4F8420109F04D
:105790007AFFB4F8440109F076FFB4F8D80109F0B3
:1057A00072FF002009F039FF002009F036FF0020C9
:1057B00009F033FF94F8850109F02FFF94F8920166
:1057C00009F02BFF002009F028FF064B0A20DB6CB4
:1057D000B3F95E3093FBF0F080B209F054FFA2E31E
:1057E000A4270020400F0020A0160020D92F002061
:1057F000742800F00583752840F088842F2009F074
:105800003FFFBF4CA6E2A02800F079830AD8782891
:1058100000F0B6807B2840F079843C2009F030FF0E
:10582000002441E2F12800F0E680FE2800F05783D2
:10583000F02840F06B84B34C042009F021FFE36CA6
:10584000B3F8620009F01FFFE36CB3F8600053E3A4
:10585000032009F015FF002009F0DFFE204609F0C3
:10586000DCFE0D20A6E309F00BFF012009F0D5FEB8
:105870000B2009F0D2FE00209CE3062009F000FF77
:10588000412009F0CAFE462009F0C7FE4E2009F06B
:10589000C4FE412009F0C1FE9B4B18782CE39B4BC2
:1058A000185D013409F0B9FE0B2CF8D10024984B97
:1058B000185D013409F0B1FE082CF8D10024954B95
:1058C000185D013409F0A9FE072CF8D100F01CBCCA
:1058D000072009F0D5FEE72009F09FFE8E4B58798E
:1058E00009F09BFE002009F098FE042000F00ABC9D
:1058F000A3420AD2894A9D5C012202FA05F50D42B3
:105900001CBF9A4010430133F2E709F0C5FE824BF9
:1059100093F8A4074EE3122009F0B2FE804B002555
:105920001B88B3F5806F8CBF08260126754C04F1E7
:10593000280333F91500013590FBF6F080B209F029
:10594000A2FE032DF2D1E08D09F09DFE208E09F01C
:105950009AFE608E09F097FEA08E09F094FEE08E0C
:1059600009F091FE208FC7E2102009F089FE002483
:105970006C4B185D013409F050FE102CF8D1C3E3D4
:10598000702009F07DFE00260E2474435D4D013623
:10599000EB6C2344B3F8210109F075FEEB6C234452
:1059A000B3F8230109F06FFEEB6C2344B3F8250133
:1059B00009F069FEEB6C234493F8270109F02DFEF2
:1059C000EB6C234493F8280109F027FEEB6C234489
:1059D00093F8290109F021FEEB6C234493F82A0186
:1059E00009F01BFEEB6C1C44D4F82B0109F054FEAB
:1059F000082EC9D188E3702009F042FE464C04F11C
:105A0000700594F8D00009F008FE94F8D10009F070
:105A100004FE94F8D20009F000FE94F8D30009F0D7
:105A2000FCFD94F8D40009F0F8FD94F8D50009F0D5
:105A3000F4FD073494F8CF0009F0EFFDAC42E0D15B
:105A400062E3394B185D013409F0E7FD102CF8D101
:105A50005AE3364D00242878400000F0FE0009F09B
:105A60000FFE2B789C4280F04F83314B33F81400AB
:105A700009F009FE0134F4E7224C062009F000FE8B
:105A8000206F09F009FEB4F8740035E2042009F033
:105A9000F7FD1C4B986F35E34FF6FF75072009F0B3
:105AA000EFFD244B174C1888FF28A8BFFF20C0B279
:105AB00009F0B3FD204B1868A842A8BF284620EA89
:105AC000E07080B209F0DFFDB4F87C0009F0DBFD86
:105AD000114BD4F8800093F885313BB10A23584329
