:020000040800F2
:1000000000A0002021400108894001085530010866
:10001000894001088940010889400108000000006A
:1000200000000000000000000000000089400108FE
:1000300089400108000000008940010833230108BD
:100040008940010889400108894001088940010868
:100050008940010889400108158B0008118B0008B0
:100060008940010889400108894001088940010848
:10007000DDE60008894001087F99000889400108F1
:100080008940010889400108894001088940010828
:100090008940010889400108894001080D8B00084A
:1000A00079FF0008B5FF000869FF0008D9FF0008C4
:1000B000A9FF000899FF000889FF0008894001088E
:1000C00089400108894001088940010889400108E8
:1000D00089400108FD010108F1010108E50101085D
:1000E000412301088940010889400108894001082D
:1000F00089400108894001088940010889400108B8
:10010000000000000000000000000000894001081D
:100110008940010889400108894001088940010897
:100120008940010889400108894001088940010887
:10013000894001088940010800000000000000001B
:100140008940010889400108894001080000000039
:10015000000000000000000000000000000000009F
:1001600000000000000000008940010889400108EB
:1001700089400108000000000000000000000000AD
:080180000000000089400108A5
:100188002DE9F04F2DED068B6A4F6B4B3B60AFB0FE
:1001980000237B6010F07BFC18B910F09BFC0BF07F
:1001A80063FA0BF01FFB654A654C137843F00103B3
:1001B8001370644B4FF47002C3F88820002309932E
:1001C8000A93236843F480332360236803F40033DD
:1001D8000A93099B013309930A9B1BB9099BB3F541
:1001E800A04FF2D1236813F4003318BF01230A93F8
:1001F8000A9B012B68D0534E534BF360636ABB6074
:10020800636ADFF874B1DFF87481DFF874A143F032
:1002180080736362636943F4FC032EAD6361032357
:100228008DF86A3041F6FF7325F8503D4FF0904045
:1002380029460EF043FB4FF6FF7358462946ADF8A2
:1002480068300EF03BFB414829460EF037FB40482A
:1002580029460EF033FB3F4829460EF02FFB29466E
:100268003D480EF02BFB28460BF0BAFF1A9B3B4A81
:10027800B3FBF2F33A4A3B4913603B4B00221A6046
:100288005A603A4B5960F02186F823109A60384E2C
:1002980007221A60B368CAF8003098E80300636957
:1002A80085E8030043F4802363610823CBF8183002
:1002B8001A981BA90EF002FBDAF8003013F0080FA9
:1002C800A8F10C0829D163E02A4B12221A6063684E
:1002D800636063686360636843F480636360636852
:1002E80023F47C136360636843F4E8136360236852
:1002F80043F0807323602268114B9001FBD55A6844
:1003080022F003025A605A6842F002025A60636897
:1003180003F00C03082BFAD16DE796F89031012B06
:1003280036D8044B96F891219B6813F0805900F059
:10033800D3852DE0F000002033AF0008EC33002017
:100348000010024000ED00E00005FA050008004832
:10035800000C0048001000480014004840420F00FC
:10036800A82E00203F190100AC2E002010E000E06C
:10037800601100200020024000040048CC7C0108E5
:10038800F02D0020BD4B002283F891210BF0D6FB05
:10039800642011F0C0FFBA4800214FF48C7215F0A8
:1003A800BEFFE369B74843F00703E361A36943F479
:1003B800E123A361636943F4C023636100F5887492
:1003C800837B416890F80FE003F00702DB0801EB3C
:1003D80083039200196A4FF00F0C0EFA02FE0CFA12
:1003E80002F221EA02021A62196A10304EEA010288
:1003F800A0421A62E4D10022A349002353540132D7
:10040800112AF9D1A14AFF2199540133072BF9D1B7
:100418009F4BDAF800409F4A1A609F4800213C220F
:1004280015F07DFFC4F3801905234FF0000E9B4A99
:1004380099481EF802100C2202FB0EF21154B9F171
:10044800000F07D11E3901299FBFFF2103F1FF3398
:100458001154DBB20EF1010EBEF1050FE7D1904A3F
:1004680096F805B013708F4B8F4983F800B08F4B07
:100478007B62C0330B608E4B8E4A03EBCB03A10625
:100488005B7848BF0123936200238B4A40F2DC511A
:1004980022F813100133082BF7D113A800211C22CE
:1004A80015F03DFF14F4007A1DBF844B1995039392
:1004B800CDF80CA0BBF10E0F03D00BF0EF03082B07
:1004C80002D101238DF85E30022007F0BDFB18B180
:1004D8004088003018BF0120C4F340038DF8523023
:1004E800C4F340338DF84C30C4F3C03300F001003E
:1004F8008DF84F3014F400638DF851008DF8549046
:1005080007D096F8843103F1FF3EDEF1000343EB98
:100518000E038DF85030C4F300438DF85530BB6A94
:10052800B6F84401ADF862001AF1000A18BF4FF09E
:10053800010A003318BF01238DF85730C4F3005364
:100548008DF85830B6F84631ADF85C30B6F852310F
:10055800ADF85A3004F00101C4F38043C4F3C0027B
:10056800E40448BF45488DF85330B6F8503144BFCD
:10057800B0F84C01ADF86200B3F5FA7FADF8603021
:1005880084BF0023ADF862304D4896F8D43187F81F
:100598002C30002387F82D3043709DF85E308DF89D
:1005A8004D10002B8DF84E208DF856A00CBF00235F
:1005B800022301B902B1013308EB83084FF00009A7
:1005C800D8F81430A3F1020A203304933AF8023F12
:1005D8004FF6FF72934200F0B1819DF85110DAB2E4
:1005E8001B0ADEB279B12748364C00EB021041688D
:1005F800A14208D10189B1F5806F00F09B81B1F566
:10060800006F00F097819DF8541031B111011D4819
:1006180040582D49884200F08D819DF8551079B1D8
:100628001101184C6018645828498C4200F08281E6
:100638004168B1F1904F03D1817B082900F07A819C
:100648009DF8521051B10F4800EB02104168B1F10A
:10065800904F03D10189102900F06C819DF84F104B
:10066800B1B30848174C00EB02104168A1422FD1E2
:100678000189042900F05E812AE000BF6011002092
:10068800F82E0020309F0108FC0000200D010020FA
:10069800CC28002052130020D028002077A701087A
:1006A80035110020A40900208C3000207011002092
:1006B8001CA50108F0000020A0100020C07C010843
:1006C8001D0100200004004800040040002C0140E7
:1006D8009DF8501051B1BE4800EB02104168B1F1CD
:1006E800904F03D10189202900F02481199C7CB105
:1006F800B74F216807EB02177868884208D1398913
:10070800A088884200F01681E088884200F01281B3
:10071800022B02D19DF84C3003E0012B04D19DF847
:100728004D30002B00F006819DF85710A84B17019B
:1007380059B19DF85E1041B9A2F10E01012904D802
:10074800D959A448814208BF04269DF85810DC19DD
:1007580031B19DF85E1019B9043A032A40F2D280EB
:10076800012E49D1DFF878820693D919FF2291F832
:100778000DE088F8742088F875204868C8F8844027
:1007880001F108020989ADF868104FF0000B022149
:100798008DF86B1088F878B01AA98DF86AE0059280
:1007A80088F830B0C8F834B0C8F838B0C8F83CB0E9
:1007B800C8F870B088F876B088F877B00EF07EF890
:1007C800069B059AD85991785A4609F01BFB204692
:1007D800594632460FF052FC7F4BC8F888307F4BA1
:1007E800C8F88C30C8F890B0204608F1880108F1A4
:1007F8008C020FF099FC9DE0022E4BD15FFA89F331
:100808001C2101FB03FC764BCDF81CC003EB0C0B41
:1008180001238BF8783006936D4B8BF87990D919B2
:100828004FF0000891F80DE048688BF87A8001F1E4
:1008380008020989ADF868108BF882801AA9CBF8EC
:1008480084408DF86AE005928DF86B600EF036F8FA
:100858005F4B059AD8599178424609F0D3FA069B1E
:1008680020461A4641460FF009FC5D4BDDF81CC0D6
:100878005C4ACBF8882003EB0C015B4ACBF88C2050
:100888008831CBF8908020460A1D0FF04DFC09F105
:1008980001094FE0032E33D19DF85330504E534F8A
:1008A8003BB196F82E80204608214FF6FF720023B0
:1008B8001AE0BDF8602096F82E80BDF86230B2F5D7
:1008C800FA7F0BD94A49B1FBF2F22046082192B2CD
:1008D8000EF01DF8474B47F828000AE04649B1FBDF
:1008E800F2F22046012192B20EF011F8434B47F87C
:1008F8002800C36096F82E30013386F82E3019E0B0
:10090800042E17D1364EBDF85A2096F82D703A4B62
:1009180093FBF2F22046BDF85C30012192B20DF053
:10092800F6FF96F82D3006EB87070133C7F8580114
:1009380086F82D30049B9A457FF448AE284E304BFC
:1009480096F82D2086F878212E4A1778A7F11702F5
:100958000024022A1C709E461BD8736A2344D3EDD8
:10096800007AF5EE407AF1EE10FA03D1B36A002B63
:1009780050D126E0244A04EB020C0FCB8CE80F0080
:100988009EF8003010340133C02C8EF80030E4D1CA
:10099800ECE71E4B13F837808EF8008003EBC70393
:1009A800D3F80490B9F1000FE0D04445DEDA164AD6
:1009B800230103EB020C4B440FCB01348CE80F00EE
:1009C800F3E7134B1A6812F4805F984648D141E068
:1009D800309F01080040014025E5000805E60008B1
:1009E800F000002069E60008FDE40008C42E00209D
:1009F80000127A0025E6000840420F0015E60008BC
:100A0800F42E0020A4090020E00800201CA50108FD
:100A1800F02D00202B4B2C4A13F83700107003EBF5
:100A2800C7035C68002CCCD000238342C9DAC3EB2F
:100A3800C3016218DFF89C80D2F8009041F8089052
:100A480001EB080C9188ACF8041092798CF8062018
:100A58000133EAE707F0EF03082B1C4B20D121E014
:100A68009EF80020012AF5D9194B03EB0212103227
:100A780010339342EED053ED047AB6EE007A67EE67
:100A8800877A43ED047A53ED057A67EE877A43ED6A
:100A9800057A53ED037A67EE877A43ED037AE7E741
:100AA8000E2F08D11A7842F010021A70182F13D19D
:100AB80011F0B6FE10E01A7822F010021A70192F01
:100AC800F5E700BF808E0108183000205819002073
:100AD800E80800201930002011F086FED8F8003010
:100AE800B14CB24F580358BFB14BB2485CBF01225A
:100AF8001A70B14A137843F0040313704FF400439B
:100B0800ADF8683063694FF0020943F400234FF0F1
:100B1800010B8DF86B9029468DF86AB063610DF072
:100B2800CDFEA64BA64A1A60002011F013FCE3691B
:100B380043F48043E361236943F480432361636999
:100B480043F4802363617B6A23F470037B627B6ACE
:100B580043F4A0037B627B6A23F070637B627B6A49
:100B680043F0A0637B627B6A23F070437B627B6AFD
:100B780043F0A0437B627B6A23F470237B627B6A29
:100B880043F4A0237B624FF460431A938DF86C9072
:100B980003234FF00009384629464FF4805A8DF850
:100BA8006D3004938DF86E908DF86F900BF08AFC81
:100BB800049B8DF86D3038462946CDF868A08DF82D
:100BC8006CB08DF86E908DF86F900BF07BFC2369FC
:100BD80043F480432361236923F480432361794BE1
:100BE8009A8822F480521204120C9A809A8892B23F
:100BF80042EA0A029A801A8802F4415242F4457283
:100C080042F003021A809A8822F470621204120CCD
:100C180042F4E0629A809A8B22F400621204120C69
:100C28009A8307221A821A8892B242F040021A80E6
:100C3800C7F818A0D8F8003003F41073B3F5107F84
:100C480000F09E80604B614F1F606369DFF85C9124
:100C580043F480236361E36943F40013E361236B86
:100C680023F010032363236B43F010032363D9F8A5
:100C7800203023F07063C9F82030D9F8203043F0D1
:100C88008063C9F82030D9F8203023F07043C9F8C0
:100C98002030D9F8203043F08043C9F820304FF095
:100CA80000084FF0020C4022484629464FF0030B3B
:100CB8008DF86CC0CDF818C01A928DF86E808DF83A
:100CC8006F808DF86DB00BF0FDFB802248462946F9
:100CD8001A920BF0F7FB3A68DFF8089122F001024C
:100CE8003A6039683A4A0A403A603A4A3A613A6898
:100CF80042F001023A60C7F80880C7F80C80C7F8CC
:100D08000880BA6842F40042BA603A683A607A6881
:100D180022F0784222F400427A603A6842F00102F6
:100D28003A60D9F800502C4F05F400434FF0100AF0
:100D38000493524605F4006338464146059315F07E
:100D4800EEFA4FF6FF72DDF818C00E9215F00205A4
:100D58008DF83DC08DF83E808DF83F808DF83CB011
:100D680042D02EA94FF0904041F880AD0BF0AAFB7D
:100D7800012507233D7087F80180FB70BD7033E0C3
:100D880016490A784B4616481F561F2F02BFFF27E1
:100D98001F5402F1FF3203F10C0308BFD2B23C2BFF
:100DA800F1D10A704EE700BF00100240000400486D
:100DB800100E002000080048EC330020FC3300200F
:100DC8007D210108003800406C10002000540040CC
:100DD800FFE0CF007A25E0003829002035110020F7
:100DE800D0280020F02D0020049B7BB12EA90423DD
:100DF80041F8803D92480BF065FB0C233B710723BB
:100E0800FB7101237D711D44BB71EDB2059B83B15C
:100E18002EA9202341F8803D4FF090400BF052FB63
:100E280002233B730723FB7301237D731D44BB73AC
:100E3800EDB2E36A834823F4F873E362E36A43F4A8
:100E4800D873E362636943F0805343F0020363613C
:100E58000BF075F81AA80BF047F87B4B1A937B4BED
:100E68001B93012D4FF0000394BF1A4680221F9256
:100E78004FF48072734C20924FF4806221922022AA
:100E8800204622921AA94FF400521C931E932392D3
:100E98002493ADF874500BF034F8236843F0010341
:100EA80023606B4CA36823F04053A360A36843F00E
:100EB8008053A3600A2011F02EFAA36823F0804320
:100EC800A360A368A360A36843F00043A360A2687B
:100ED8005F4B002A31DAFAE7531E092B3FF658AA6E
:100EE800D8F858002860294658460DF0E7FC4FF41A
:100EF8000063CBF818303C2011F00DFA96F89131C8
:100F08009945BFF63FAADFF838B108224FF40063CD
:100F1800CBF8182078200492ABF82830039311F00E
:100F2800EFF9049A039BABF828207820CBF8183007
:100F380011F0E6F909F10109E0E79A68454922F05C
:100F480040529A609A6842F000529A608868424A11
:100F5800024042F468328A60D968404A0A4042F442
:100F68000052DA601A6B013D22F00F0215431D632F
:100F7800002101237A189078002800F084805C1CF6
:100F8800042B17F801E0D278DFF8C4C0E4B20ED819
:100F980003EB4303DCF830505B001F20984025EA40
:100FA80000000EFA03F30343CCF8303031E0092B8C
:100FB8000ED80620053B4343DCF834501F209840E8
:100FC80025EA00000EFA03F30343CCF8343020E09E
:100FD8000E2B4FF006050ED8A3F10A006843DCF883
:100FE80038801F23834028EA03050EFA00F32B43B9
:100FF800CCF838300DE00F3B05FB03F0DCF83C8003
:101008001F23834028EA03050EFA00F32B43CCF88C
:101018003C30BEF1090F0E4822D983698569AEF1CB
:101028000A0303EB43034FF0070E0EFA03FE25EA0B
:101038000E05856185699A402A43826122E000BFD6
:1010480000040048080402404001005048290020DC
:101058000001005000030050E010FCFF07C0FFFD36
:10106800436945690EF1FF3303EB43034FF0380E34
:101078000EFA03FE25EA0E054561456903339A40D9
:101088002A4342612346043110297FF473AFAA4BE7
:101098009A6842F001029A601A461168A64BC9077D
:1010A800FBD5DA68A54C22F00202DA60DA6842F071
:1010B8000202DA60DA6842F00102DA609A6842F005
:1010C80004029A60B4F85831002B41F09A80B4F9C0
:1010D8005A21002A41F09580B4F95C21002A41F098
:1010E8009080D9F800309B031FD5C82011F013F960
:1010F800AE2008F07AFA08B108F07CFA904D86F82C
:101108007901C82011F007F98E4BC6F87C3100210F
:101118000C22284615F003F90223EB700BF0EDFFC3
:1011280011F0D2F8884B0344AB60884B884F1B689A
:101138008848B3F85630049300210C2294F85FB124
:1011480094F8695194F86A8115F0E9F8002114229D
:10115800384615F0E4F8804B059300221A707F4A50
:10116800C6F880210EF0E7FE8246B0B17C4A3A60AC
:101178007C4A7A607C4AFA607C4A3A617C4A059BE0
:101188000121117004221A707A4B02221A707A4ACD
:1011980013680B4313605B460EE0012011F02EF933
:1011A80025E24FF0010B0BFA03F140F2B2320A408C
:1011B8004AB1012B60D9002370490022092B0A701B
:1011C800EFD91346F8E711F04D0FF2D0634A0593B3
:1011D800C6F880210EF0AFFE059B0028E9D0062155
:1011E80068200A460DEB00030DF07EFC9DF86D109B
:1011F80001EA0B029DF86B1001EA0B0101FA0BF3EF
:1012080043EA82019DF8692002EA0B030B430AD0E6
:101218005BB25B4501D1002302E0022B0ED1012312
:1012280086F8843111E00EAB68200C215A460DF087
:101238005BFC9DF8383013F00F0303D1032011F045
:10124800DDF802E0042BEAD1E5E7424B4C4A1A608C
:101258004C4A5A6096F88421002A0CBF6F226E22ED
:101268001A72464B04221A70424B03225A70424AA1
:10127800136843F002031360B8F1040F00F2D3803F
:10128800DFE818F00500F1009A0005009A000A202E
:1012980011F041F87720A02101220EAB0DF024FCBB
:1012A800002800F089801E21012277200DF098FC8B
:1012B8004FF42F6011F024F84FF0000BABF16001F0
:1012C8004FF00008C9B202221AAB77208DF8688067
:1012D8008DF869800DF008FC9DF868209DF869304C
:1012E80043EA0223284A02F5C3712BF801300BF1B7
:1012F800020BBBF1100FE1D1B2F8943103F00F01EA
:1013080003F47F43A2F894310120424622F0010EF3
:10131800B644BEF886E1BEF1000F18BF002012F0F7
:10132800010F06D05FFA8EFE88EA0E084FF0080E0D
:101338002CE088EA1E28F9E700010050601100201F
:10134800302A0020E8120020404B4C00B01000204A
:10135800642B0020742E0020C8070020E47C0108BC
:101368001DFE0008A5FC00082DFC000890C1793D71
:10137800000000207C0000205419002018340020B0
:1013880091FE0008E7FC0008F000002018F4004F68
:1013980018BF88F4C058BEF1010E4FEA4808F5D1CD
:1013A8000132102AB2D15D4A0B43A2F8943118B920
:1013B800C8F3033841453AD096F896B1DFF85C8116
:1013C800BBF1000F40F00A87142010F0A4FF08F2C8
:1013D80097137620D02101220DF086FB98F89731DB
:1013E800582B40D108F5CC738821182276200DF0AF
:1013F8007BFB31227620F4210DF0F2FB012388F8E3
:101408009631474B474A9A60474A5A6045F6D81280
:101418005A80464ADA60464A1A61464AA3F800B03A
:101428005A6100F0DBBEB8F1010F14D11BE03C4B50
:1014380042F210721A805A803F4A5A603F4A9A60B4
:101448003F4ADA603F4A1A613F4A5A61BAF1000FCF
:10145800B2D04FF003083D4B3D4A83F80280136831
:1014680043F0040313603A4B1A6812F0020F9846CF
:1014780002D0384B1B689847002386F8B431364BA6
:101488004FF47A721A60354B1B689847344A002328
:10149800022D137004D0032D20D0002D40F0A78614
:1014A80000238DF868302F4BC6F8B8311E200A216A
:1014B80001221AAB0DF018FB80B19DF86830482B5B
:1014C8000CD1294B294A1A60294A5A60BAF1000FEF
:1014D80004D0234B04221A7002234FE04FF0000B74
:1014E8000C20594601221AAB8DF868B00DF0FCFAB1
:1014F80080B19DF86830482B40F0F2861A4B1D4A9F
:101508001A601D4A5A60D346BAF1000F00F0E88607
:10151800032333E0834600F0E3BE00BFF000002061
:10152800640600207D8D00087F8D00084F8F00081D
:10153800F18F00087F8B000853FC000895FC000819
:1015480049FC000885FC00086DFA00087C000020B2
:1015580054190020742E002080260020642B0020BF
:1015680014340020FC7C0108400600206991000822
:10157800598F0008D19000083D900008C04AD370E8
:10158800D8F8003043F00803C8F80030BD4B93F892
:1015980054210AB1BC490A7093F855210AB1BB49D4
:1015A8000A7093F856310BB1B94A1370D8F8003065
:1015B800B84913F0080F00F01586BDF91000DFEDEB
:1015C800B66A642290FBF2F302FB130212B207EE32
:1015D800902AB8EEE77A07EE903AF8EEE77AE7EE67
:1015E800267AB2EE047A67EE877AC1ED6F7AAB4A53
:1015F800137843F002031370A94B08229A610A2555
:10160800A74EB38A9BB283F00803B382192010F067
:1016180082FE012010F09EFE192010F07CFE013D94
:10162800002010F097FE15F0FF05E9D10823B361FB
:101638009C4E33681B0705D59B4B1B6898479B4BF3
:1016480001221A709A4B9FED9B8A1D68DFED9A8ADA
:101658002B7B00EE103AB8EEC00A20EE080A09F01B
:10166800A1FF964B83ED000A954B1B8807EE903A35
:10167800F8EEE77AB7EE007AC7EE277A914BB0EE2C
:10168800680AC3ED007AD7ED047A8F4B67EE887A43
:101698000027C3ED007A2B788C4D07EE903AF8EED0
:1016A800E77A8B4BC7EE277AC3ED007A77EE677A35
:1016B800884BC3ED007A884B83ED027AC3ED008A2C
:1016C800C3ED018A854B83ED027AC3ED008AC3ED31
:1016D800018A09F067FFB0EE408AB0EE680A09F0A7
:1016E80001FF20EE006A68EE086A66EE007A7C4B1D
:1016F800E6EE887A2846FF2120EE087AC3ED007AC4
:1017080067EE007A1B22F0EE675AD7EE085AE7EE2A
:10171800087A28EE468AC3ED015AA6EE808AC3ED00
:10172800027A83ED038A6F4B1F7014F0F8FD32685C
:101738006D4B2F70012112F0020F18BF69701970DC
:101748001FBF032119700221A970570748BF1978D4
:10175800284641BF4D1C1D700325455412F00A0F41
:101768000CD01A7804218154511CC9B2052545545E
:10177800D11C0232D2B2197006218154D9F8002046
:10178800950641BF19784D1C1D70072548BF455463
:10179800110608D51978092545548D1C0131C9B29F
:1017A8001D700A254554374D6F79082F01D00E2F2B
:1017B80008D1197801F1010E83F800E04FF00B0E03
:1017C80000F801E0197812F4803F4FF00C0C00F893
:1017D80001C001F1010E1CBFDFF80CC102315FFA34
:1017E8008EFE83F800E01FBF8CF8001037494FF0D9
:1017F8000E0C01F80EC0510741BF197801F1010E16
:1018080083F800E04FF0100E48BF00F801E01978A7
:1018180001F1010E5FFA8EFE4FF0120C12F4806F88
:1018280083F800E000F801C00ED095F81CC2BCF1A6
:10183800000F09D0DFF8B0C002318CF8001023493E
:101848004FF0130C01F80EC0197812F4007F4FF016
:10185800140C00F801C001F1010E1CBFDFF888C0AC
:1018680002315FFA8EFE83F800E01FBF8CF800108B
:1018780016494FF0150C01F80EC0182F4AD135E063
:101888007C00002060110020C807002018340020C8
:1018980014340020F00000208988883CEC330020B4
:1018A8000004004854190020400600205806002073
:1018B8009827002035FA8E3C00000000942700206D
:1018C800200000204C2700205027002079100020FD
:1018D800AC2700209C270020B0270020A02700204C
:1018E800842700200B2700207810002019784FF05B
:1018F800160E00F801E001F1010E5FFA8EFE4FF0BE
:10190800170C00F80EC001F1030E0231C9B283F8BA
:1019180000E04754110341BF19784F1C1F70192765
:1019280048BF4754D70541BF1A78511C19701A236C
:1019380048BF835400219822A14814F0F0FC0AF013
:10194800AEF9A04BA04A1A60A04BB4F84E1119800A
:101958009F4900230B808B709E490A60B4F896213A
:1019680090B29D4921F813000133122BF9D19B4FF6
:101978003B68D8045CBFB5F89C0108801B0740F1A0
:10198800CA8095F89031062B00F2BF80DFE803F09B
:1019980004070E3D5878780045F2F05201E042F60F
:1019A800F8228F4B1A800AF017FAADE007EE902A5A
:1019B800DFED8C6A8A4BB8EEE77ADFED8B7AE7EEDB
:1019C800267A42F6F82119800023FCEEE77A874A46
:1019D80017EE901A42F823100133122BF7D1844ADC
:1019E80084491160844A4020137006F007FA0028E1
:1019F80000F08B8001234FF0070990F900007F4A1F
:101A08008DE8080240217E4B79E0754B42F6F822BA
:101A18001A80774B7B4A1A60774B102240201A7045
:101A280006F0ECF9002870D001234FF0000890F977
:101A38000000754A8DE8080140214FF4E1335EE06B
:101A4800674B42F6F8221A80694B704A1A606A4B53
:101A5800082240201A7006F0D1F9002855D0012339
:101A68004FF0000C90F90000694A8DE808104021F9
:101A78004FF4E13306F098F8664BC3F8C00140E034
:101A8800574ADFF8C481DFF8C4C1DFF8C4E1624C0B
:101A9800624842F6F821118057490C22062B0A7039
:101AA8000FD0002388F800308CF800308EF8003012
:101AB8001B2323705A4B027005221A704FF4E1342D
:101AC8000CE0002188F800108CF800108EF8001047
:101AD80002702121524A2170524C1370444B524AD1
:101AE8001A60402006F08AF978B101234FF0000E01
:101AF8004E4A90F9000040218DE80840234606F040
:101B080053F8003018BF012028B9082009F072FDE9
:101B1800374B474A1A603B68374A13F4804F1FBF58
:101B2800082111703249434818BF086042F2010188
:101B3800194003F0010003F4005481B1284944F628
:101B4800206EA1F800E024B10821117028493A4C10
:101B58000C6020B10C2111702549384808601178B3
:101B68001806A1F10401517040F1AF802948344CA6
:101B7800DFF8E090C0F8C4914FF000084146152204
:101B880000F5E470DFF8D0A084F80180C4F8048080
:101B9800C4F8088014F0C3FBA9F105034046CAF84D
:101BA800003006F0CFFC274B02201B68E36006F0EC
:101BB80025F9002852D1802009F01CFD7DE000BFE6
:101BC800282800204C0F0020E8120020500F002089
:101BD800C0330020B43300202C2E0020F02D00202C
:101BE8004E080020CDCCCC3F0000B0C4C432002049
:101BF80030000020B52C0108C42800205D2E010803
:101C0800A0860100A12C0108B12D01088D2C010826
:101C1800652D0108F000002023280020AF330020A4
:101C28002428002090D0030081BB000895BB000841
:101C3800152D0108E92C0108052D0108F52C0108CE
:101C4800A4070020142E0020B03300200128002013
:101C58000028002052130020C407002090F805E057
:101C68006378CC490C2202FB03125278724504D0E7
:101C78000133DBB2042BF4D900236370DAF80030A7
:101C880062781B7890F90000002B4FF00C0303FBDF
:101C9800021314BF4FF0030E4FF0010E00225B78C1
:101CA800CDF800E00192022105F07EFFBA4B1860E2
:101CB800002880D0012006F045FCB84B1868B84BC6
:101CC80000F5C5721A6006F0EBFC3B6813F4007F60
:101CD8000DF168085DD0DFF81893039BC9F8003050
:101CE800B04BB1485A6942F480225A619A6942F06D
:101CF80001029A61039B1B88ADF83030012402234E
:101D08000CA98DF833308DF832400CF0D7FDD9F896
:101D18000030A5485B88ADF830304FF0000A0CA9B8
:101D28008DF832A00CF0CAFDD9F800302046197A97
:101D38000AF07EF9D9F8003058680AF0C9F8D9F8DD
:101D480000305B681A93404610238DF86D308DF88B
:101D58006CA08DF86E400FF075FBD9F800305B7AF7
:101D68008DF838300EA803238DF839308DF83AA055
:101D78008DF83B400FF048FB8C4B8D4A1B683C3B71
:101D88001360336843F0100333608A4B4FF0FF321F
:101D98001A60894A894B1360894A8A4E80331360D6
:101DA8003B680024D903347040F1B0800EF098FAF3
:101DB800DFF840C2DFF8ECA1CDF814C040F22A33B6
:101DC8004FF001091A4660462146049386F80090B0
:101DD80014F0A5FADAF814207B4E4FF0904042F444
:101DE8000032CAF81420426A22F00F024262426AA4
:101DF800032142F0060242624FF4807B02228DF8F2
:101E080035100CA98DF8342003928DF83640CDF8A2
:101E180030B08DF837900AF055FBDAF81810039AAD
:101E280041F40061CAF81810318821F45C71090482
:101E3800090C31801D21F162304632850EA93486A5
:101E48006022C6F814900E92ADF83E401094ADF89A
:101E58004440ADF84640ADF84840ADF84A40ADF8CA
:101E68003C900AF07FF9B26942F00802B261726CE4
:101E780042F400427264DAF8142042EA0902CAF80D
:101E88001420AAF6E47A50460AF059F840460AF0B7
:101E98002BF8049B4D4AADF874308023DDF814C04C
:101EA8001A92414610221F9350464FF40053CDF822
:101EB8006CC01C9223931E94CDF880B02194229478
:101EC80024940AF01EF8F36843F40073F360DAF818
:101ED800003043F00203CAF800300BA80C238DF839
:101EE8002C308DF82D908DF82E408DF82F900FF016
:101EF8008BFA2146364B1A68364B43F821200131BC
:101F08002029F7D10CF0FCFB0CF0FAFB3B685A05D2
:101F180040F18B80304C314BD4F80895C3F80090D1
:101F2800042005F06BFF0421C4F80C0505F042FFFE
:101F38002B4B84F810050820C3F8009005F05EFFCD
:101F4800284B294E1860082105F034FF002184F839
:101F580011052C22304614F0E2F98E2373704FF0ED
:101F68007C0BE0234FF07D0AF37086F800B086F80A
:101F78002BA01E4E2C220021304614F0D0F98A23C3
:101F880073701020A023F37086F800B086F82BA099
:101F980032E000BF987D01082C2A0020B0100020F4
:101FA800A00F00200010024000040048142E00205A
:101FB8009C070020D0100020281A00208C13002035
:101FC800702A0020110E0020002C0140342C014002
:101FD800147D0108120E0020F0000020481900208E
:101FE800A0190020EC19002070190020A519002064
:101FF800A0070020CD020020C4F8149505F0FEFECD
:102008001021C4F8180505F0D5FE84F81C05202019
:10201800C4F8209505F0F2FE2021C4F8240505F047
:10202800C9FE84F828050AF03FFFB24A138823F056
:1020380040031B041B0C1380138823F038031B0474
:102048001B0C138013889BB243F0400313800024B9
:102058009F2332208DF838308DF839408DF83A407A
:102068008DF83B4010F057F98DF86940A24C4FF4B9
:1020780080560422268540460EA90FF08FF9A661E6
:102088009DF86A209DF86930120242EA03429DF8E1
:102098006B301A43994B9A42994B17D008D89949F3
:1020A8008A420CD001F51A4102318A4209D01CE05B
:1020B80095498A4205D001318A4207D015E020228D
:1020C80000E080221A804FF4807202E04FF48072A0
:1020D8001A805A809A88198812029A604A43DA60EC
:1020E8008A4A012182F8291504E000221A805A80C0
:1020F8009A60DA60DC6814B3E40AA1464FF0000A7B
:10210800A24509DA0AEB04067610F00241461022CD
:1021180007F01CFA0F2807DC06F08EFC7B4B4FEA11
:10212800C922C3F82C250AE0002358F823200132DD
:1021380063D10133042BF8D1B1463446E0E73B685C
:10214800734A13F4002318BF0123137010F0BCF86E
:10215800704B18606B79052B02BF6F4B4FF4C87238
:102168001A806E4B4FF47A721A806D4BC8221A800F
:102178006C4A137843F0080313706B4A137823F002
:10218800020313703A6840F6020313406BB1674BC1
:1021980067491960674B03211970674B0121197052
:1021A800664900230B8066490B80930341BF654B4A
:1021B80004221A71DA7844BF42F00102DA70AB687F
:1021C8003B60614B01221A70604A137863F07F0309
:1021D80013702FB0BDEC068BBDE8F08F4FF00408EC
:1021E800FFF739B90023C1F8BC31FFF700BA012D58
:1021F8007FF6CCA91D46FFF749B906F1010A264624
:102208009BE71BB208EE103AB4F95A31DFED507A69
:10221800504A09EE103AB4F95C31B8EEC88A08EEB3
:10222800903A28EE278AB8EEC99AF8EEE88A002193
:10223800B0EE480A29EE279A68EEA78A117009F0CD
:10224800B1F9F0EE40AAB0EE480A09F04BF9F0EE09
:10225800409AB0EE490A09F0A5F9B0EE408AB0EE0E
:10226800490A09F03FF9B0EE409AB0EE680A09F061
:1022780099F9B0EE40AAB0EE680A09F033F960EEB9
:102288002A6A69EE8A7AF0EE665AE7EE895A324B84
:102298002AEE2A6A29EE807AC3ED035AF0EE465AEE
:1022A800E7EE495AE6EE897AA6EE497A2AEE08AAB6
:1022B80028EE400A69EEC89A28EE2A8A83ED00AA19
:1022C80083ED010A83ED029AC3ED045AC3ED059A22
:1022D80083ED067AC3ED077A83ED088AFEF701BF1E
:1022E800012D7FF653A91D4B002583F800B0FFF799
:1022F800D7B800BF003800400004004818BA2000D2
:1023080010000020152020001740EF00F0000020EA
:1023180090300020200800201E2700200E340020C6
:102328000C340020581900201634002040190020D1
:10233800DA120020A41900207400002040100020A8
:1023480042100020302A0020100E0020EC3300201C
:1023580035FA8E3C64000020142900201434002033
:10236800954A2DE9F04F1568944C05F59C432033A8
:102378002DED028B2360924B196889B011F4804FC0
:102388000592984605D110F02FFE10B92379013334
:1023980023718C4B1F78C7B18B4A1268954240F263
:1023A800DF80013F1F70DBE0D9F800308748072D38
:1023B80098BF595D864B88BF29461B689847032DEF
:1023C8000BD904EB45050137E880804BDFF81C92F8
:1023D8001E78FDB2AE42E7D820E0D9F8002005F11A
:1023E8000E0302EB83039988DA880028E9D04FF4BA
:1023F8007A73401A5843531A90FBF3F040F6C90316
:1024080000F57A70984205DC40F2EE239842B8BF96
:10241800184601E040F6CA0080B2D2E70F232779B8
:1024280084F82A3094F82B300193032594F82C3043
:10243800B7FBF5F505EB45057D1B0393D9F800308F
:102448000293DFF8B0A1EBB204930025B54254DA49
:102458006049019B31F815B04FEA450953B910F0AE
:10246800C3FD28B1039B002B08BF4FF0000B01E010
:10247800DDF804B0029B988A584502D8D88A584596
:102488000ED2E8B210F05AFD032D8346DFBF94F850
:102498002AE00120A8402EEA0000D8BF84F82A00CC
:1024A80010F0A2FD18B14C4829F800B021E0049BB7
:1024B80094F876002AF813B028B9022F15D93F49A5
:1024C800012081F87600BAF80210BAF80000084432
:1024D800BAF804100844414980B229F8010000B252
:1024E800032190FBF1F080B200E058463A4929F800
:1024F800010001350AF1060AA8E794F82A203848AD
:10250800384BA2F10F014A424A4184F890206AB13F
:10251800354A1268520109D40268D9689A60521A79
:10252800C82A1DD9012283F8212019E00268986879
:10253800DA605B68121A9A4288BF2A4B4FF0000192
:1025480084F82B1088BF83F821100025B54207DADC
:10255800E8B210F0F3FC204B23F815000135F5E73D
:10256800D8F80030DF0405D51F4B1B68DE0701D4FF
:1025780010F040FB059B19681C4B1868837A002BE8
:102588003AD0013B144D027B35F813301AB1C3F52C
:102598003B6308339BB21BB2A3F57A73B3F57A7F1A
:1025A800A8BF4FF47A7323EAE37307EE903A9FEDDE
:1025B800107AF8EEE77A58E0F8330020A00E0020F1
:1025C800F02D0020BC330020B8330020C4280020A0
:1025D80030000020A60E00202C2E0020180F00200E
:1025E800142E0020C033002074100020B4330020C3
:1025F80000007A44CE0E0020D8F80020150440D5FB
:10260800D4F89420934E8A1A002A3ADB01F59C42AA
:102618002032C6F89420904AC07A55798F4A32F809
:10262800152096F89850013592B292FBF0F205F019
:102638000F0086F89800304480F899201A46884898
:10264800185C01330244102B92B2F8D112B292FBFB
:10265800F3F31BB2642BA8BF642323EAE37307EEEA
:10266800903A9FED807AF8EEE77AC7EE877A7E4A4D
:102678009FED7E7A67EE877AFCEEE77A17EE903A5E
:102688001380D8F800307A4F13F4807F00F0098166
:10269800784BDFF8E491994205D999F8022012B9EC
:1026A800012289F8022099F80220002A00F0F98016
:1026B800714A3E7892F821506A1E554255416F4A38
:1026C8001168002DC1F38063C6F38006019392461A
:1026D80014BF4FF0000B4FF0030B99F82020052A88
:1026E80000F2D980DFE802F0034D527584A1002E74
:1026F8003AD0D4F8AC00B4F8B0100FF0A0FD01281F
:1027080009D15F495F4A09681268C988642000FBDB
:102718000122C9F81020019B6BB1594A126812793D
:102728004AB10DF081F9032289F820204FF47A721A
:10273800C9F81C20D1E7002D40F0AD80514AD9F8E6
:10274800101010684C4A88420AD902920DF06CF9B0
:10275800029A032182F8201040F6B831D161BCE713
:10276800012182F82010B8E7019B4FF4806013B173
:1027780008F030FF01E008F01DFF0022C9F8102022
:1027880089E0002D46D10DF04FF9A6E725B10522C5
:1027980089F82020012000E0284666B1D4F8AC2052
:1027A800D189394A11805180918035490968498811
:1027B800D1804FF0020B334A1168D9F814209142A6
:1027C80001D8002E64D147F23052C9F81C200322E8
:1027D80021E03A7842F002023A7010F00BFA294AE6
:1027E800D9F81C1012680A44C9F81820042212E00B
:1027F800244A9DB11168D9F8182091424BD9234A2F
:1028080012781AB9DAF80020D30744D43A7822F0BB
:1028180002023A70052289F820205EE71268D9F88A
:102828001C100A44C9F8182035E01549154A0968EA
:102838001268C988642000FB0122C9F810204FF4EF
:102848008060002289F8202089F8032008F0B2FE71
:1028580043E700BFA00E00203829002048290020A7
:10286800390F00200000C842D410002000C07F4467
:1028780016340020404B4C00C03300207410002058
:10288800842B0020142E00202C2E00200C00002069
:1028980000287FF422AFBBF1000F02D058460FF09A
:1028A80073FD924D05F5C470B5F84E110FF0C7FCD5
:1028B800834668B90DF0AAF88D4BC3F800B0C3F889
:1028C80004B0C3F808B08B4B00221A605A609A60B3
:1028D8003B785E0736D5D8F80030D80632D5864B17
:1028E8001B78D9062ED4854B1B7893B195F8E03127
:1028F800BBF1000F15D17BB1814B1A68D4F8B43005
:102908009B1A002B08DA10F075F97E4B83F8B8B0E3
:1029180018E0BBF1000F0DD110200FF035FD012399
:102928000EE03BB1764A12684FF47A7101FB03233B
:10293800C4F8B43094F8B83023B10FF011FD002377
:1029480084F8B830002295F8DEA195F8DF11B5F8C3
:1029580098E1B5F89AC113466B4E019636F9120004
:102968009B087045C4BF63F07F03DBB2013260454A
:10297800B8BF43F04003042AEED194F8B920614867
:102988009A4205D190F8BA20F92A04D8013200E019
:10299800002280F8BA2084F8B930584B5B4E1A7878
:1029A8009946E2B93368DA0708D5BBF1000F16D1AA
:1029B8003B78DB0713D50FF075FF10E03B7858071D
:1029C8000DD5504B93F82B304BB1514BDB7833B9C5
:1029D80011B110F00FF902E0BBF1000FF9D094F833
:1029E800BA30484ADFF844B1142B40F0B18099F866
:1029F80000301AF1000A18BF4FF0010A6BB392F8C1
:102A0800B9305F2B11D13B7803F0040303F0FF01C9
:102A180013B110F0EFF808E00B20039102920FF0C9
:102A2800B3FC029A039982F8BA10BAF1000F14D0D5
:102A380094F8B9307D2B10D13B7803F0040303F0F0
:102A4800FF0213B110F0D6F807E00B2002920FF046
:102A58009BFC2C4B029A83F8BA203B7803F00403C2
:102A680003F0FF01002B73D194F8B930254A572B96
:102A780016D1284B4FF47A721A80D8F8003019060C
:102A880001D505F06FFE244B1B685A0742BF234A45
:102A98000A21118013F008035AD1214A138057E004
:102AA800D8F80000400716D55A2B14D11D4B1878BA
:102AB80020B119701C4B01221A7049E092F8BB3002
:102AC80083F0010382F8BB300BB10C2000E00D202D
:102AD8000FF05AFC3CE05D2B00F020855B2B00F0EA
:102AE8001F855E2B24D1032000F01BBD6011002040
:102AF80084260020E0260020581900200C00002021
:102B0800142E0020A00E00202C2E0020741000206F
:102B1800C03300200E340020541900200C3400204B
:102B280050110020492700204A270020B01000201B
:102B3800562B01D109F002F899F80030002B00F06B
:102B4800058594F8B9306F2B40F0FA840FF0AAFE8F
:102B5800D8F80030580732D594F8BB30A3B13B7889
:102B6800590711D5019BB3F90620B5F898319A4257
:102B78000ADD336813F0010301BFAE4A3221118028
:102B8800AD4A08BF82F8BB303368DA030AD5AB4BCD
:102B98001A782AB9AA4A127812B9A64A322111809B
:102BA80001220BE0A64A13784BB13B7803F00403EB
:102BB80003F0FF011BB9A34B117001221A70DBF857
:102BC80000A0002333600AF17B090AF1CB0B99F8C6
:102BD800002099F8013019F8010C9A420BD24946A5
:102BE8000FF0F6FA38B119F8022C012303FA02F2B1
:102BF80033681343336009F10409D945E7D1924B8F
:102C08001B7843B1914B924E1A6812F0020F994605
:102C180040F0408337E30AF1CA060AF58979327829
:102C2800737816F8010C9A4225D231460FF0D0FA83
:102C380008B3B37896F804E0864A96F803A07E486D
:102C48000C21013B01FB0E4103EB43031344D1F874
:102C5800C0209A420FD0C1F8C030002390F8EC2071
:102C6800C1F8C430012303FA0EF322EA030381F802
:102C7800BCA080F8EC3006364E45D0D1764B1E68A5
:102C8800764B1B68039394F82B300493744B029390
:102C980000230193029B1B68002B00F0E98293F844
:102CA80000A0BAF1000F00F0E382029A039952687B
:102CB8008A1A002A0CDB01F5FA7202994A60019916
:102CC80001228A4094F8EC1021EA020284F8EC20F0
:102CD800049A002A00F0CC82029A597812F8042C3F
:102CE8000432D2B2002940F082825E4931F91210D2
:102CF800B5F8962102F1C800814202DD93F802B0CE
:102D080015E0C83A914203DA9978C1F1000B0EE058
:102D1800019A0123934094F8EC2022EA030384F8F3
:102D2800EC30039B029A03F5FA735360A0E294F81F
:102D3800EC30019A1341DB0700F19A82BBF1000FD6
:102D4800CCBF022001200FF041FB0AF1FF33DFF86E
:102D5800E890132B00F28482DFE813F014002500BA
:102D680037004B0064008C00EF005201B901E70105
:102D7800170282024B005A008C00EF005201C1007A
:102D88002401890196F80090D944B9F1FA0FA8BF37
:102D98004FF0FA0929EAE979304686F800900FF0F1
:102DA800FDF901200FE096F80190D944B9F1640FBC
:102DB800A8BF4FF0640929EAE979304686F80190FE
:102DC8000FF0ECF902204946DCE196F803A0DA445A
:102DD800BAF1640FA8BF4FF0640A2AEAEA7A86F8C3
:102DE80003A03046D9F8F01005F00EF8032051463C
:102DF800C8E1717959446429A8BF642121EAE171C5
:102E080071710D200FF04CFABAF10D0F00F0288205
:102E1800317959446429A8BF642121EAE1713171EB
:102E28000E20AFE1B179594481F30801B171052051
:102E3800A8E100BF30270020A00E0020482700206E
:102E4800492700204A270020193400207410002048
:102E580054190020A0810108D8100020142E002049
:102E6800600F00202C2E002000007A440000C84289
:102E780000000000D9F8F4301A78022A20D107EEB1
:102E880090BAB8EEE70A5FED077A93ED097A80EE1B
:102E9800270A30EE070AB5EEC00AF1EE10FA07D499
:102EA800B4EE670AF1EE10FAC8BFB0EE670A01E0A7
:102EB8001FED110A83ED090A0F200FF0DBF90AE074
:102EC80099785944C829A8BFC82121EAE1719970A5
:102ED8000F200FF0E5F9BAF10F0F00F0C181D9F812
:102EE800F4301A78022A1ED107EE90BAB8EEE78AB3
:102EF8005FED227A93ED080A88EE278A38EE000AF9
:102F0800B5EEC00AF1EE10FA07D4B4EE670AF1EE96
:102F180010FAC8BFB0EE670A01E01FED2B0A83ED77
:102F2800080A122056E159785944C829A8BFC8216F
:102F380021EAE1715970122024E1D9F8F4301A78A5
:102F4800022A20D107EE90BAB8EEE70A5FED397A87
:102F580093ED0C7A80EE270A30EE070AB5EEC00A28
:102F6800F1EE10FA07D4B4EE670AF1EE10FAC8BF12
:102F7800B0EE670A01E01FED420A83ED0C0A10204B
:102F88000FF078F90AE0197B5944C829A8BFC8216D
:102F980021EAE171197310200FF082F9BAF1100FCC
:102FA80000F05E81D9F8F4301A78022A1ED107EEB3
:102FB80090BAB8EEE78A5FED537A93ED0B0A88EE84
:102FC800278A38EE000AB5EEC00AF1EE10FA07D4E7
:102FD800B4EE670AF1EE10FAC8BFB0EE670A01E076
:102FE8001FED5D0A83ED0B0A1320F3E0D97A5944EB
:102FF800C829A8BFC82121EAE171D9721320C1E00C
:10300800D9F8F4301A78022A22D107EE90BA1FEDC7
:103018006A0AF8EEE77A87EE800AD3ED0F7A30EE87
:10302800270AB5EEC00AF1EE10FA09D45FED717AFD
:10303800B4EE670AF1EE10FAC8BFB0EE670A01E015
:103048001FED750A83ED0F0A11200FF013F90AE03E
:10305800997D5944C829A8BFC82121EAE171997509
:1030680011200FF01DF9BAF1110F00F0F980D9F80D
:10307800F4301A78022A20D107EE90BA1FED860A9A
:10308800B8EEE78A88EE008A93ED0E0A38EE000A59
:10309800B5EEC00AF1EE10FA09D45FED8C7AB4EE01
:1030A800670AF1EE10FAC8BFB0EE670A01E01FED3B
:1030B800900A83ED0E0A14208CE0597D5944C829E2
:1030C800A8BFC82121EAE171597514205AE0D9F83E
:1030D800F4301A78022A1ED107EE90BAB8EEE78AC1
:1030E8005FED9E7A93ED0A0A88EE278A38EE000A89
:1030F800B5EEC00AF1EE10FA07D4B4EE670AF1EEA5
:1031080010FAC8BFB0EE670A01E01FEDA70A83ED09
:103118000A0A09205EE0D9785944C829A8BFC821FD
:1031280021EAE171D97009202CE0D9F8F4301A7835
:10313800022A1ED107EE90BAB8EEE78A5FEDB57A9B
:1031480093ED0D0A88EE278A38EE000AB5EEC00A1C
:10315800F1EE10FA07D4B4EE670AF1EE10FAC8BF20
:10316800B0EE670A01E01FEDBE0A83ED0D0A0A20E2
:1031780030E0597B5944C829A8BFC82121EAE17128
:1031880059730A200FF08CF86AE0D9F8F4301A78ED
:10319800022A22D107EE90BA1FEDCD0AB8EEE78ACF
:1031A80088EE008A93ED100A38EE000AB5EEC00AE0
:1031B800F1EE10FA09D45FEDD37AB4EE670AF1EEB6
:1031C80010FAC8BFB0EE670A01E01FEDD70A83ED19
:1031D800100A0B200FF04EF842E0D97D5944C82957
:1031E800A8BFC82121EAE171D9750B20CAE70129D6
:1031F80036D19878BA4B33F91230B3F5617F05DBD5
:1032080040F633029342A8BF134601E04FF46173BE
:10321800BAF10C0F24D14FF4966292FBF0F0B14A48
:10322800A3F5617393FBF0F35FFA83F913784B45C9
:1032380016D0B9F1040F34BF4B4602231370AA4AC3
:103248000AFB035303F2B673136008F0A7FA50465B
:1032580049460FF025F809F10100C0B20FF0B6F8A1
:10326800019A0123934094F8EC20134384F8EC303E
:10327800019B01330193029B0C330293019B042BA6
:103288007FF408ADBEE4D8F80030D80510D5974BC8
:10329800DB786BB1336899070AD5954B1B8813F017
:1032A800010A0AD10CF0B2FB012008F093F904E0FE
:1032B800012008F07FF9012300E00023D9F800205D
:1032C80052070DD563B1012008F074F9884B1B88AB
:1032D800980708D40CF09AFB022008F07BF902E06A
:1032E800022008F067F9336813F00A0F29D0D9F8DB
:1032F8000030D9060BD57E4B1B885A070AD4042008
:1033080008F068F97B4B1B88A4F8F83002E0042029
:1033180008F050F9D9F800309B0607D5744B1B8884
:10332800580606D4402008F055F902E0402008F07D
:1033380041F9D9F80030590642BF6E4B1B88A4F8F2
:10334800FA3033689A0609D4D9F800301B0540F1E1
:1033580094804FF4807008F03DF992E0664BDFF8F6
:1033680090A11B7813F0020F53D0644B1B78042BE9
:103378004FD9D9F8003013F4007B0FD0BAF80030D9
:10338800DE063AD4102008F025F9202008F012F9BA
:103398005B48011D05F03AF902232AE0BAF80060FB
:1033A80006F01006B6B22EB1102008F003F9012677
:1033B80084F8FCB0D9F80030580512D5D4F800319B
:1033C80050495A89B1F90030002BB8BF5B4293428B
:1033D80007DAB1F90230002BB8BF5B429342C0F262
:1033E8000781BAF80030990608D5202008F0E2F8DD
:1033F800002384F8FC30012600E0002694F804310C
:10340800BBB90E200EF0C0FF3F4B012283F8042108
:103418000FE0BAF8003003F03003002B94D01020EE
:1034280008F0C8F8202008F0C5F8002384F8FC301C
:1034380001E0002E88D0354B002003F1280603F167
:103448005004334A002122F81010324A596022F8F9
:1034580010100432716022F8101000221A609A606D
:103468003260B26022606160A26014331436143492
:1034780000287FF469AF0120E3E74FF4807008F07B
:1034880099F86B79082B01D00E2B02D1402008F057
:1034980091F8D8F800305A0540F1C08095F81C32F0
:1034A8001BB93B7813F0040F03E0D9F8003013F48C
:1034B800002F0BD0184B00221A703C2008F0D4FCC7
:1034C800002800F0AB800EF077FBF6E709F0ECFC83
:1034D80009B0BDEC028BBDE8F04F08F0E0BB00BFBF
:1034E8002C2E0020542E0020D8100020C03300209D
:1034F8001C1A002050110020581900205E190020C5
:10350800E010002058110020A00E0020A80F002075
:103518001034002020100020C9280020012000E0DD
:1035280002205FFA80F909F1FF3385F8B43708F013
:103538009BF808F057F948460EF048FFFFF708BB1C
:10354800BAF1000F02D07E2B3FF400AB94F8B930EB
:10355800972B05D1344B4FF4C8721A80FFF7F8BA8D
:10356800A72B06D1314A137843F004031370FFF7F1
:10357800EFBA0022BB2B079201D1022303E0B72B3D
:1035880004D14FF6FE73ADF81E3009E0BE2B01D111
:10359800022303E0BD2B1AD14FF6FE73ADF81C30A1
:1035A800DBF80030BDF81C10B3F858200A44A3F823
:1035B8005820BDF81E10B3F85A200A44A3F85A2020
:1035C80008F0BCFA002384F8BA30FFF7C1BA792BA7
:1035D80004D1174AD37823F0010306E07A2B7FF44D
:1035E800B7AA134AD37843F00103D370FFF7B0BAF0
:1035F800BAF800309B063FF501AF202007F0EAFF3C
:103608000C480D4B011D1A685B684360026004F0AA
:10361800FDFF0A4B012683F8FC60EFE609B0BDEC1C
:10362800028BBDE8F08F00BF1E270020581900202C
:10363800302A0020E810002060190020A00E002089
:103648002DE9F04FC14BB3F90610C14B2DED028B9C
:103658001F687A8989B0914201930EDBB1F5FA6F40
:10366800FC79BDBF8B1A6343A2F5FA64C4F1640404
:10367800BCBF93FBF4F4643400E06424B54AB64B51
:10368800B2F896A192F95E211868049092B2059258
:10369800054600220293AD4B33F912300393CAEB6F
:1036A800030303F2F31640F2E63086424FEA420B78
:1036B80003D8002BB8BF5B4201E04FF4FA73022A2B
:1036C800049E4FF064002FD096F811E1BEF1000F70
:1036D80004D07345CCBFCEEB03030023DFF8C0E270
:1036E80093FBF0FC6FF063093EF81C809B4E09FBCE
:1036F8000C390CF1010C3EF91CE00FFA88FCCCEBFC
:103708000E0E0EFB09FE9EFBF0FEC64426F80BE0EB
:10371800BE1836797343924E93FBF6F364339BB22B
:10372800634393FBF0F02EE096F812E1BEF1000F30
:1037380004D07345CCBFCEEB03030023DFF84C82E3
:1037480093FBF0F06FF0630C0CFB003938F910E0D4
:103758000130002B38F91000CEEB000000FB09F90E
:10376800BDF8140099FBFCF9CEEB090919FB00F927
:103778007A48A0F80490B879B8BF5B4243437848C8
:1037880093FBF0F064306B78764E4FF0640E434351
:1037980093FBFEF3B354744EEB7A434393FBFEF36F
:1037A800B3546B7D6D4E5843704B90FBFEF0022A6C
:1037B80098546F4B0FD183F802E0039B53450EDBFF
:1037C800644CB4F89821914215DBB1F5FA6FA8BFA3
:1037D8004FF4FA6110E09C54039B534504DA36F821
:1037E8000B305B4226F80B300132032A05F1010544
:1037F8007FF451AFE4E71146891A4FF47A73DFF882
:10380800A4E1564D59436FF063036427C2F5FA6289
:10381800B1FBF2F191FBF7F23EF8120003FB021143
:10382800013203B23EF91220D21A514391FBF7F349
:103838000344F3804F4B1B885F0635D54E4B4F4AE8
:103848001B881288DFED4E7A9B1A1BB208EE103ADD
:10385800B8EEC88A28EE278AB0EE480A07F0A2FE1A
:10386800F0EE408AB0EE480A07F03CFEB5F90230A7
:1038780006EE903AB5F90030F8EEE66A07EE903AAF
:1038880020EE667AF8EEE77AA7EEA87A67EE807AF5
:10389800BDEEC77AE6EEA87A17EE103AFDEEE77AA3
:1038A8002B8017EE903A6B80364D2B68980740F1C5
:1038B800A180354B354F1A687B6945F20721D31A29
:1038C8008B4240F397807A6108F012FF304BDFF8A3
:1038D800D8901A78032A9846B9F8003022D10A2BD2
:1038E8002AD90023282088F800300EF014FD08F0AB
:1038F800FFFE284B188808F0E5FE274B1A68D37896
:1039080090FBF3F001300828244BA8BF082018705A
:10391800537980B213FB00F33B83137913FB00F058
:10392800788309E00A2B07D803231C4A88F800305B
:10393800002313703B837B8398F80030144A012BD3
:103948003DD033D3022B4CD054E000BF2C2E0020A6
:10395800D810002060110020B0100020581100205D
:103968000CFEFFFFF4260020361000200827002058
:10397800702600201C1A0020501100209A0F0020E9
:1039880035FA8E3CF02D0020F83300202810002056
:10399800A41900205029002040190020740000209C
:1039A800982E00202E1A0020441900203A8BB9F8CE
:1039B80000309A421EDD012388F800300FE0B9F884
:1039C80000107B8B8B4202DD022313700FE0A34BA8
:1039D8001B8B0133994202DD002313700AE0082093
:1039E80006E07B8BB9F8002001339A42E3DC07201C
:1039F8000EF0CAFC2D68290577D5994B974F1A68A0
:103A0800FB69C3EB020845F2072398456DDD954B2A
:103A1800B6F906B0D3F80090FA6199F80A30B4F80C
:103A28004E11914E012B4FF47A70ABF57A7B98FBCF
:103A3800F0F803D042D3022B20D041E08B4B396AF7
:103A48005A7B8B4B33F812204FF0080E92B291FB41
:103A5800FEF3C91A8B18BA843B6240F6E44293FB22
:103A6800FEF39BB25343B9F80820C2EB1333584313
:103A7800B9F9063090FBF3F0306021E07D4BB9F8DE
:103A880008A01B78C6F800A05A0719D57A480EF086
:103A9800D6FB20B915F0100F18BF4FF0000B3222DB
:103AA8000BFB0BF393FBF2F3B9F906205B445A4383
:103AB8004FF47A7392FBF3F3534400E0002333602E
:103AC800D7E90A0133686D4A03FB08F84FF47A73A3
:103AD80098FBF3F810EB080041EBE8710023C7E905
:103AE8000A010FF0D5FC664B1860664E3368DB049C
:103AF80027D52F0622D5644B1B789D071ED5634B0F
:103B0800187804281AD90022614BD7180521951C6A
:103B18004FF00A0E122AD154E9B287F801E004D016
:103B2800B0EB510F2A46EFD800E014215A18322082
:103B380002F8010CFF225A540F2000E00A200EF070
:103B480023FC544D2A68002A50D0534B534F186811
:103B580039688142984649D8514BDFF85091197815
:103B68005268E1B94FF0010A83F800A0B9F80030B3
:103B7800D35C23B350460EF0EDFB4A4B83F800A00C
:103B88000FF03EFAB9F80030CBB92B681B78053B2B
:103B9800534514D80EF098FB434B18600FE04FF0D4
:103BA800000A83F800A0B9F80030D35C3BB1504656
:103BB8000EF0D0FB3B4B83F800A00FF021FA2A68E7
:103BC800B9F8003052683948D25CFE2A01D1002386
:103BD8000BE0FF2A02D10EF0C3FB07E0D8F8005033
:103BE8000A2111FB02523A6001330380214D2B78E0
:103BF800580703D52E4B08221A8571E03268D10781
:103C08005CBF43F001032B701F4B1B781F075EBF7F
:103C18002B7823F001032B70D60248BF2B78214A5A
:103C280044BF23F001032B70224B1B6813F0040FD1
:103C380002D02149098851B92049098809B1980752
:103C480005D41F4B1B88003318BF0123D3B30223AD
:103C580013702B7823F001032B7038E02810002014
:103C6800F8330020401900204C1900203829002082
:103C78004829002016340020E8120020407E050064
:103C88005019002074100020581900205E190020D7
:103C9800802E0020C02E0020142E0020B82E0020D8
:103CA800B42E0020E433002044320020BC2E002033
:103CB80000040048541900200C3400201E2700205E
:103CC8000E3400202978C90758BF022313700EF05C
:103CD800FBFAB44B1B68C01A002801DB0FF090F9FF
:103CE800B14F09F0E1F83E78002E00F0AC80AF4B00
:103CF8001A689846002A00F02387D8F800000EF0CA
:103D0800E1FB002800F01C87A84BA94C18680EF0AE
:103D1800D6FB092801D03F2852D14FF0000A266867
:103D2800DFF8C892554636B1A248D9F80010324695
:103D380012F042FB10B9CA4605B94D469E4B09F12F
:103D480010099945EFD3EDB1D5F800C0DAF8009025
:103D580023681CF803E019F80300704512D15A1CB7
:103D6800944958B92D2B09D8DFF844E2CEF8002041
:103D78004FF0200E01F803E0885403E001F803E057
:103D88002260E5E723680BB1554510D08B480EF04B
:103D98000DF8554507D855F8100B0EF007F809200F
:103DA8000DF0FCFFF5E786480EF000F800262368C2
:103DB8009E42A2D27F4B985D0DF0F0FF0136F6E7E8
:103DC8002368002B40F0A286042840F0D886794862
:103DD80009F0C8FE00F0B4BED8F80000DFF8ECA186
:103DE8000EF070FB28B3DAF800000EF068FBDBF881
:103DF800003093F848100246A9BB24286CD1012250
:103E080083F84820DBF80030DFF8E4A193F8482075
:103E1800062AE1D193F8490000F040FF83460028C4
:103E280000F083800DF016FFD9F80030002283F8E7
:103E38004820644B93F83530002B40F055864C36BB
:103E4800982E00F07D86604BF21892F84A100129EE
:103E5800F5D1DFF89C91F358C9F800205B4ACB46AE
:103E680013609046B8E7012904D14D2814BF0022F9
:103E78000222C5E7022904D13C2814BF00220322EC
:103E8800BEE703290CD140284FF0000102D983F87E
:103E98004810B7E758711971D97198710422AFE7C2
:103EA800042906D1997983F849004A409A71052274
:103EB800A6E70529A6D1587919798842987906D9AB
:103EC80050409871481C18710B441A729AE7904236
:103ED8000CBF0622002293E72B783D49580791D45E
:103EE800232ADAF8003013D1012038702F480491C2
:103EF800036034480392036336480DF057FF304897
:103F08000DF054FF0499039A0B7843F002030B70E9
:103F1800314B1B681B78934201BF304B304A1A6003
:103F2800304B04BF304ADA606CE7DAF8002092F8C8
:103F380049304C2B00F08A8400F28680332B00F045
:103F4800DD8421D8292B00F04D8409D8252B00F0D9
:103F58002584272B00F02884232B40F00C860AE2C6
:103F68002D2B00F0508407D82B2B40F004860DF041
:103F780043FE607100F0B3BD2F2B00F02B85312B71
:103F880000F03D8500F0F7BD3E2B00F0E68046D8F6
:103F9800372B00F0E6842DD8352B00F0278200F06F
:103FA800EABD00BFE833002019340020702E00203D
:103FB8006C2A00203C2A0020C08D01086CA301084F
:103FC80071A301082810002028280020001A0020CA
:103FD80016340020A1A30108CC280020FC9F002053
:103FE800EFBEADDE00ED00E00400FA05E08B01084D
:103FF800FC190020392B00F0E4833C2B40F0BB85F2
:10400800DFF84884D8F800A00DF0F6FD8AF8000023
:10401800D8F80030187806F0E7FE00F060BD432BB2
:1040280000F07D8406D8412B40F0A5854FF00008AC
:1040380000F069BC442B00F01785482B40F09B85A5
:1040480004F038FD00F04BBDD12B00F068831FD879
:10405800CC2B00F00B820ED8C82B61D004D84E2B85
:1040680000F01E8400F087BDC92B00F03183CA2BF5
:104078007DD000F080BDCE2B00F01D83C0F01283F0
:10408800CF2B00F04782D02B00F0018300F073BDE6
:10409800D82B00F001810BD8D32B3BD027D3D42BBE
:1040A80000F07C82D62B40F066854FF000086AE26B
:1040B800F22B00F0C18212D8EF2B40F05C85DFF8BC
:1040C8008C83D8F800A00DF0A1FDAAF85A00D8F802
:1040D80000800DF09BFDA8F8580000F000BDF32B00
:1040E80000F0C784FA2B00F0EF8200F044BD2B7873
:1040F80003F0040303F0FF08002B40F0F0840DF0F8
:104108007BFD022884F8B40740F2C782CB4B83F8C2
:10411800B487C2E20DF07AFDC94B188000F0DFBC0D
:1041280092F805804FEA5808B8F1120F03D907F042
:1041380097FE00F0D4BC4FF0000AC24507D20DF03C
:1041480065FDC04B23F81A000AF1010AF5E7BE4BDA
:10415800012283F8342000F0C2BC0DF04DFD84F834
:10416800E0010DF049FD84F8DF0100F0B8BCB74B61
:104178001A681278022A4FF0000A984670D1D8F8C7
:1041880000B00DF039FD07EE900AF8EE677AB2EE4E
:10419800048AC7EE887A0BEB8A0BCBED087AD8F83D
:1041A80000B00DF029FD07EE900A9FEDA97AF8EE10
:1041B800677A0BEB8A0BC7EE877ACBED0B7AD8F8C8
:1041C80000B00DF019FD07EE900A9FEDA27AF8EE07
:1041D800677A0BEB8A0BC7EE877A0AF1010ABAF104
:1041E800030FCBED0E7ACAD1BAF1070FD8F800B099
:1041F8001CD10DF001FD07EE900AF8EE677AC7EEC4
:10420800887ACBED117AD8F800B00DF0F5FC07EEFE
:10421800900AF8EE677AC7EE887ACBED127AD8F86A
:1042280000B00DF0E9FC8BF84C0012E00DF0E4FC56
:10423800D3448BF80100D8F800B00DF0DDFCD3446E
:104248008BF80B00D8F800B00DF0D6FCD3448BF8EF
:1042580015000AF1010ABAF10A0FC5D100F03FBCF6
:10426800D8F800B00DF0C8FCD3448BF80100D8F89A
:1042780000B00DF0C1FCD3448BF80B00D8F800B0A7
:104288000DF0BAFCD3440AF1010ABAF10A0F8BF80F
:104298001500E5D100F023BC8246DFF8B0819FED20
:1042A8006D8AD8F800B00DF0B1FC07EE900AF8EE70
:1042B800677A0BEB8A0BC7EE887ACBED087AD8F8C9
:1042C80000B00DF0A3FC07EE900AF8EE677A0BEB4E
:1042D8008A0BC7EE887ACBED0B7AD8F800B00DF0D0
:1042E80095FC07EE900AF8EE677A0BEB8A0BC7EE9F
:1042F800887A0AF1010ABAF1030FCBED0E7ACCD114
:10430800BAF1070FD8F800B01CD10DF07FFC07EE0A
:10431800900AF8EE677AC7EE887ACBED117AD8F86A
:1043280000B00DF073FC07EE900AF8EE677AC7EE5E
:10433800887ACBED127AD8F800B00DF067FC8BF8CC
:104348004C0012E00DF062FCD3448BF80100D8F861
:1043580000B00DF05BFCD3448BF80B00D8F800B02C
:104368000DF054FCD3448BF815000AF1010ABAF198
:104378000A0FC5D1B3E30DF03FFC132883463FF67F
:10438800D6AEDFF8C8A0DAF800800DF035FC0023BF
:10439800314A0C2101FB0322117A814222D10FFA02
:1043A8008BFB08EB8B08137888F879300DF024FC28
:1043B80088F87A000DF020FC88F87B000DF01CFCD2
:1043C800264B274A1A6088F87C00264BDAF800004A
:1043D8001860002179300DF021FF234B80F0010097
:1043E80018707CE301331C2BD2D1A0E60DF004FC3D
:1043F8000B2882463FF69BAE144BD3F800800DF095
:10440800FBFB03283FF693AE062303FB0A8888F8D4
:10441800CE000DF0F1FB88F8C9000DF0EDFB88F82F
:10442800CA000DF0E9FB88F8CB000DF0E5FB88F831
:10443800CC000DF0E1FB88F8CD0050E360110020BE
:10444800980F00202C2E002028100020B0100020EB
:104458000000C84200007A440C820108900F002036
:10446800A0120020940F00200C0000205379092B83
:104478007FF65DAE019BD3F800800DF0BDFB019B7C
:1044880088F80000D3F800800DF0B6FB88F801002A
:104498000DF0B2FB019B64281B68A8BF642018714B
:1044A8000DF0AAFB019B64281B68A8BF6420587103
:1044B8000DF0A2FB019BFF281B68A8BFFF20987185
:1044C8000DF09AFB019B6428D3F8008028BF642074
:1044D80088F807000DF090FB019B88F80200D3F8DC
:1044E80000800DF089FB019B88F80300D3F8008059
:1044F8000DF08CFBDAF80030A8F80A005B790A2B7B
:1045080040F2ED82D84BD3F800800DF075FB88F8A7
:104518000800E4E20DF07AFB6FF4AF6283189BB2F7
:10452800C62B98BFA4F896010DF070FBA4F84001C3
:104538000DF06CFBA4F842010DF068FBA4F84401EF
:104548000DF064FBA4F8D8010DF056FB84F8ED01DA
:104558000DF052FB0DF050FB84F8EE010DF04CFB12
:1045680084F885010DF048FB84F892010DF044FBB6
:10457800BE4BD3F800800DF049FB00EB80004000F3
:10458800A8F856001DE10DF041FBB94B23F81800BF
:1045980008F10108B8F1080FF5D1A0E253790F2B03
:1045A8007FF4C5AD0DF028FB072880463FF6BFAD68
:1045B800029BD3F800A00DF029FB0E2303FB08F89B
:1045C800C244029BAAF81901D3F800A00DF01EFB03
:1045D800C244029BAAF81B01D3F800A00DF016FBF9
:1045E800C244029BAAF81D01D3F800A00DF004FBF9
:1045F800C244029B8AF81F01D3F800A00DF0FCFA10
:10460800C244029B8AF82001D3F800A00DF0F4FA06
:10461800C244029B8AF82101D3F800A00DF0ECFAFD
:10462800C244029B8AF82201D3F800A00DF0F8FAE0
:10463800D044C8F8230152E20DF0DEFA0F28804674
:104648003FF675ADC8EBC8080DF0D6FA04EB0803C1
:1046580003F1D00883F8D0000DF0CEFA88F80100F5
:104668000DF0CAFA88F802000DF0C6FA88F80300BF
:104678000DF0C2FA88F804000DF0BEFA88F80500BB
:104688000DF0BAFA88F806000EF0CAF827E22B787F
:104698005B0700F124820CF01DFA06F0E5FF07F035
:1046A800A1F81CE22B78580700F11982714B4FF4DE
:1046B800C8721A8013E22B78590700F110826E4AEB
:1046C800137843F0040328E02B785A07E5D552E223
:1046D8000DF092FA684B1A7810B142F0020201E02C
:1046E80022F002021A700DF087FA644BDFF8AC81F1
:1046F80018700DF095FAC8F800000DF091FAC8F896
:1047080004000DF083FA5E4B18800DF07FFA5D4BC4
:104718005D4A1880137843F002031370DFE10DF04F
:104728006BFA03900DF07CFA83460DF079FA824615
:104738000DF076FA80460DF069FA0DF067FA0DF083
:104748005BFA039BA3B9514B1020C3F800B0C3F820
:1047580004A006F02FFF484A137843F001031370B2
:10476800B8F1000F00F0BB81494BC3F80080B6E1F7
:10477800102B40F0B481474BC3F800B0C3F804A035
:10478800B8F1000F02D0424BC3F800804148424BB9
:104798000222011D1A7003F039FFA0E1A0600DF09C
:1047A8003FFA06F02FFF9AE10DF030FAA4F858010D
:1047B8000DF02CFAA4F85A010DF028FAA4F85C01BF
:1047C8008DE10DF019FA84F87A010DF015FA84F8E4
:1047D8007E010DF011FA84F87D010DF00DFA84F8D0
:1047E8007F017CE10DF012FAA4F880010DF00EFAB9
:1047F800A4F882010DF000FA84F884010DF006FA9D
:10480800A4F886016BE10DF0F7F984F890010DF03A
:10481800FDF9A4F89A010DF0F9F9A4F896010DF044
:10482800F5F9A4F898010DF0E7F9DAF8003084F802
:1048380091015B79082B40F252810DF0E7F9A4F859
:104848009C010DF0E3F9A4F89E0148E10DF0D4F9BC
:1048580084F8D6010DF0D0F984F8D7010DF0D6F917
:10486800A4F8D8013BE100BFD8100020B010002008
:10487800562E00201E270020581900205E190020FF
:104888005C1900205A190020DE100020E0100020DA
:10489800F0100020E81000209C0F00206019002074
:1048A80092F805800323B8FBF3F8B8F1120F3FF62E
:1048B8003EACDFF8E4A34FF0000BC34580F00F8156
:1048C8000DF09AF98AF8A0010DF0A0F940F2ED2355
:1048D800984205DD40F6CA039842A8BF184601E091
:1048E80040F2EE20A0F2EE2019230BF1010B90FB11
:1048F800F3F00AF1020A8AF89F01DEE70DF07CF96D
:1049080084F89201EBE00DF077F904EB080308F165
:104918000108B8F1080F83F88801F4D1DFE00DF041
:104928006BF9C4F808B060710DF07AF906F06AFE08
:104938000DF062F984F890010DF068F9A4F85801B7
:104948000DF064F9A4F85A010DF060F9A4F85C01BF
:104958000DF05CF9A4F880010DF058F9A4F8820173
:10496800BDE053794FF0070AB3FBFAF2C2EBC2027B
:104978009A1A12F0FF0F7FF4DAABB3FBFAFA0AF1D6
:10498800FF3A5FFA8AFABAF1FF0F00F0A8800DF03B
:1049980033F95FFA80FB4FFA8BF003F055F9804644
:1049A80000283FF4C4AB80F800B00DF02FF9A8F848
:1049B80002000DF021F988F804000DF01DF988F8BF
:1049C80005000DF019F988F807000DF015F988F8B9
:1049D8000600D4E7DFF8C08208F1400A0DF016F9A6
:1049E800A8F8AC020DF008F988F8AE020DF004F949
:1049F80008F1040888F8AB02D045EFD16FE00DF05C
:104A0800FBF81F2880463FF692ABD9F800305B7957
:104A1800082B7FF48CAB0DF0F9F808F18A0804EB49
:104A2800880800F03F00A8F806000DF0EFF8B8F885
:104A38000630800100F4FE501843A8F806000DF077
:104A4800DBF8000188F804000DF0D6F898F8043077
:104A580000F00F00184388F804000DF0CDF888F82E
:104A680005000BF03DFC3AE0784B012283F8352035
:104A780035E00DF0C1F8FF2882461BD100238DF8E0
:104A88001F309DF81F30072B29D89DF81F00704A4A
:104A98009DF81F3052F8300002EBC30301215B6818
:104AA800994089B2042202F0E1FF9DF81F300133DA
:104AB800DBB2E4E707283FF63AAB00200DF0EEF84A
:104AC8000DF0C8F8D8F800000DF0F3FC18B9322042
:104AD8000DF021FCF6E74FFA8AF002F0D5FF00202E
:104AE8000DF0DCF8FFF79EB95A4B98590DF0E1FC30
:104AF80018B932200DF00FFCF6E70DF051FE06F064
:104B080089FD554B554ADA60FFF799B90C2838D01A
:104B18000A283FD1524D53480DF048F92846232121
:104B280011F033FC08B1401B20602368002B54D1DE
:104B38004B4823600021302211F0F1FB3B781BBB6E
:104B4800494B1B689B060FD5484B40491B688A6B2D
:104B58009A1A002A08DB464A1278042A82BF03F50B
:104B6800123303F5F8738B63424B9B68002B67D0B5
:104B78004148984764E007F073F9FFF753B90C28E8
:104B880004D13E480DF012F93D480DE07F2812D1BE
:104B9800FFF7B3B80D28BDD07F2809D1013B304AB3
:104BA800384823600021D1540DF000F9FFF7A5B86B
:104BB8002F2B3FF6A2A8A0F12002D2B25E2A3FF620
:104BC8009CA813B920283FF498A85A1C2260244AAC
:104BD800D0540DF0E3F8FFF790B85A1EA95C2029CD
:104BE80001D11346A2E71E4A23600021D154264B67
:104BF800264DD3F800A0D5F800B0DFF864905846E9
:104C080011F0D1FB064632464846594611F0D4FB0E
:104C18001F4A28B919F8063053445B785B0703D05C
:104C280010359542E7D306E0954204D2701CEB6834
:104C38004844984702E017480DF0B8F8002377E792
:104C480009B0BDEC028BBDE8F08F00BF2810002032
:104C580010A701082828002000ED00E00400FA054C
:104C68003C2A0020E7B2010854190020F83300203C
:104C78005E190020642B00206410002076A3010830
:104C880071A301089DA3010884000020E08B01089E
:104C9800C08D010881A30108601100202DE9F047AB
:104CA8002DED028B4D28A0B0044600F04F8600F28F
:104CB800BD80302800F0CC8651D8222800F09C8492
:104CC80023D8032800F00E8214D8012800F0FE81B2
:104CD800022840F0288704200CF0E0FF43200CF065
:104CE800A8FF4C200CF0A5FF46200CF0A2FF4C209A
:104CF80000F052BE042800F0FE81052840F013871A
:104D08001A200CF0CBFF002405E2282800F0EC85DF
:104D180015D8242800F0D385262840F00487D34CE2
:104D280006200CF0BBFFB4F858010CF0BAFFB4F839
:104D38005A010CF0B6FFB4F85C0100F0BDBD2C2898
:104D480000F0E5852E2800F052862A2840F0EB86F0
:104D580001200CF0A3FFC54B587900F01DBE3D287B
:104D680000F002831ED8362800F027860BD8322898
:104D780000F00C86342840F0D68648200CF08EFFD0
:104D8800002500F05BBC3A2800F0C3823B2800F005
:104D98002C84382840F0C78604200CF07FFFB34CE1
:104DA80000F093BD452800F0AB8627D8402800F0D6
:104DB800F685422840F0B786AC4C10200CF06EFF08
:104DC80060790CF036FFA0680CF074FF94F890013D
:104DD8000CF02FFFB4F858010CF063FFB4F85A0137
:104DE8000CF05FFFB4F85C010CF05BFFB4F88001D5
:104DF8000CF057FFB4F8820100F05EBD472800F0C0
:104E08005D86C0F04A864B2840F08D86974C04207A
:104E18000CF044FF94F8D6010CF00BFF94F8D7017E
:104E28000CF007FFB4F8D80100F046BD702800F078
:104E3800F18200F2E580692800F04B8200F2B6802A
:104E4800662800F0A58100F2A680642800F07C8125
:104E5800652840F06886864C0B200CF01FFF2088E0
:104E68000CF01FFF6268834B9A420CBF208960894F
:104E780080B20CF016FF804B1B68C3F3C000C3F36D
:104E88008002800040EA4200C3F340021043C3F3AB
:104E9800401240EAC20003F0100318430CF001FF6F
:104EA800764B1A88E368247C02F0080103F447591A
:104EB80049EA010903F4804149EA010903F4004180
:104EC80049EA010903F4803149EA010903F4003190
:104ED80049EA010903F4802149EA010903F40021A0
:104EE80049EA010903F4801149EA010903F0007352
:104EF80049EA0303DFF8A49199F8009012F0010F32
:104F0800C9F3800914BF4FF002084FF0000843EAC4
:104F1800090312F0020F43EA080314BF4FF0040C10
:104F28004FF0000C12F0040F43EA0C0C14BF4FF0C2
:104F3800100E4FF0000E12F0400F14BF202700276C
:104F48004CEA0E0E12F0100F14BF4FF40076002634
:104F58004EEA070712F0200F14BF4FF480650025B2
:104F68003E4312F4807F14BF4FF4006000203543A5
:104F780012F4007F14BF4FF400110021284312F4EB
:104F8800806F41EA000114BF4FF0806300230020C6
:104F980019430346E8E0672800F02281682840F0BA
:104FA800C28510200CF07AFE002489E16C2800F0FC
:104FB800A38117D86A2800F003846B2840F0B385D2
:104FC80005200CF06BFE2E4B18880CF06AFE2D4B5A
:104FD80018880CF066FE264B93F8760000F0010066
:104FE80000F0DABC6E28224D00F0998100F2EA81C7
:104FF80006200CF053FE686E0CF05CFE224B86E136
:10500800782800F0FA8018D8742800F038830AD875
:10501800722800F09583732840F0858508200CF0ED
:105028003DFE0124C5E3762800F0EA8300F2688398
:105038002F200CF033FE154CCFE2A42800F0088492
:105048002ED87B2800F06F82A02840F06C850C20B9
:105058000CF024FE0E4B18680CF02CFE0D4B186853
:105068000CF028FE0C4B186800F059BD60110020A8
:105078006810002000540040541900201C1A002019
:10508800D2190020D419002048110020DB81010822
:10509800ACF7FF1FB0F7FF1FB4F7FF1F163400204F
:1050A800F12800F0E680FE2800F0F983F02840F0AF
:1050B8003A85B34C04200CF0F1FDA36CB3F85A0008
:1050C8000CF0EFFDA36CB3F85800F5E303200CF0E7
:1050D800E5FD00200CF0ADFD20460CF0AAFD0D20EA
:1050E80000F05ABC0CF0DAFD01200CF0A2FD0A20F9
:1050F8000CF09FFDAAE306200CF0D0FD53200CF025
:1051080098FD52200CF095FD46200CF092FD3320BE
:105118000CF08FFDCFE39B4B185D01340CF089FD3B
:105128000B2CF8D10024984B185D01340CF081FD4C
:10513800082CF8D10024954B185D01340CF079FD4A
:10514800072CF8D100F0EDBC07200CF0A7FDE720F4
:105158000CF06FFD8E4B58790CF06BFD00200CF0B5
:1051680068FD042000F0DBBCA3420AD2894A9D5C9A
:10517800012202FA05F50D421CBF9A401043013383
:10518800F2E70CF097FD824B93F8B40700F004BCEB
:1051980012200CF083FD804B1B88B3F5806F8CBF09
:1051A8000825012500247D4B33F9140090FBF5F008
:1051B800013480B20CF075FD032CF4D1704CA08D35
:1051C8000CF06FFDE08D0CF06CFD208E0CF069FD8D
:1051D800608E0CF066FDA08E0CF063FDE08E6BE334
:1051E80010200CF05BFD00246D4B185D01340CF0B1
:1051F80020FD102CF8D100F094BC70200CF04EFD6E
:1052080000265F4D0E24AB6C744323440136B3F87B
:1052180019010CF046FDAB6C2344B3F81B010CF0EC
:1052280040FDAB6C2344B3F81D010CF03AFDAB6CA8
:10523800234493F81F010CF0FCFCAB6C234493F857
:1052480020010CF0F6FCAB6C234493F821010CF020
:10525800F0FCAB6C234493F822010CF0EAFCAB6C35
:105268001C44D4F823010CF025FD082EC9D100F008
:1052780058BC7020464C0CF011FD04F1700594F8F0
:10528800D0000CF0D6FC94F8D1000CF0D2FC94F8C5
:10529800D2000CF0CEFC94F8D3000CF0CAFC94F8C1
:1052A800D4000CF0C6FC94F8D5000CF0C2FC07340E
:1052B80094F8CF000CF0BDFCAC42E0D100F031BC5A
:1052C800384B185D01340CF0B4FC102CF8D100F008
:1052D80028BC354D2878400000F0FE000CF0DEFCBC
:1052E80000242B789C4280F01C84304B33F8140047
:1052F8000CF0D7FC0134F4E72D4C06200CF0CEFC62
:1053080020880CF0CEFC60880CF0CBFC294B188868
:10531800D2E204200CF0C2FC194B986EFFE3072080
:105328000CF0BCFC244B1888FF28A8BFFF20C0B293
:105338000CF07FFC214B186880F3100080B20CF051
:10534800B0FCB5F86C000CF0ACFC114B93F885215F
:105358001B4B186822B10A23584380F3100001E060
:1053680000F30F0080B2A7E2094C02200CF096FC73
:1053780094F8E0010CF05DFC94F8DF010CE300BF49
:105388006810002098A00108A4A0010879A00108CD
:105398006011002079100020200000204211002018
:1053A800A0100020B4100020C42800202C2E0020BB
:1053B800E82D002050110020441900205019002029
:1053C8004C1900200B200CF069FC2B6F18780CF09E
:1053D80030FC2B6F58780CF02CFC00262B6FC44C3B
:1053E8003344013618790CF024FC032EF6D1236FD0
:1053F800D8790CF01EFC236F98780CF01AFC236FF8
:10540800D8780CF016FC236F58890CF04AFC236FEF
:10541800187AC1E2B64C1E200CF040FCA36C1B7835
:10542800022B4FF000056BD1A36C03EB850393EDC2
:10543800080AB2EE048A20EE080A11F07FF980F318
:105448000800C0B20CF0F5FBA36CDFEDAA7A03EB01
:10545800850393ED0B0A20EE270A11F06FF980F30C
:105468000800C0B20CF0E5FBA36CDFEDA37A03EBF8
:10547800850393ED0E0A20EE270A11F05FF980F3F9
:105488000800C0B201350CF0D4FB032DCCD1072D98
:10549800A36C23D193ED110A20EE080A11F04EF9FE
:1054A80080F30800C0B20CF0C4FBA36C93ED120AA1
:1054B80020EE080A11F042F980F30800C0B20CF09F
:1054C800B8FBA36C93F84C3000EE103AB8EE400AE3
:1054D80011F034F980F30800C0B20BE02B4458787F
:1054E8000CF0A7FBA36C2B44D87A0CF0A2FBA36C9E
:1054F8002B44587D01350CF09CFB0A2DC7D110E3D5
:10550800A36C2B4458780CF094FBA36C2B44D87AEA
:105518000CF08FFBA36C2B440135587D0CF089FBF4
:105528000A2DEDD1FDE23C200CF0B8FB0024704DB3
:105538009FED718AAB6C03EB840393ED080A20EEB0
:10554800080A11F0FBF880B20CF0ABFBAB6C03EB74
:10555800840393ED0B0A20EE080A11F0EFF880B2ED
:105568000CF09FFBAB6C03EB840393ED0E0A20EE6B
:10557800080A11F0E3F8013480B20CF092FB032C16
:10558800D5D1072CAB6C16D193ED110A20EE080A81
:1055980011F0D4F880B20CF084FBAB6C93ED120AD6
:1055A80020EE080A11F0CAF880B20CF07AFBAB6C56
:1055B80093F84C000BE0234458780CF072FBAB6C6A
:1055C8002344D87A0CF06DFBAB6C2344587D01342E
:1055D8000CF067FB0A2CD4D1A3E214F8010F0028C1
:1055E80000F09F820CF025FBF7E701200CF056FB3A
:1055F8003F4B9B6C1878CFE150200CF04FFB0025F7
:105608003B4B9C6C3D4B04EB85040C2194F87920B2
:1056180001FB0233013593F838000CF00AFB94F8CB
:105628007A000CF006FB94F87B000CF002FB94F86F
:105638007C000CF0FEFA142DE2D172E22C4B9C6C2B
:10564800062303FB0544013594F8CE000CF0F1FA6B
:1056580094F8C9000CF0EDFA94F8CA000CF0E9FAD5
:1056680094F8CB000CF0E5FA94F8CC000CF0E1FAD1
:1056780094F8CD000CF0DDFA0C2DDFD151E24FF09B
:105688000008012600271A4B1A7C974227DA1133A3
:105698000024FA5C194D0C2305F130016343595C71
:1056A800914207D12B44586B10F07DFE82462EB9EB
:1056B800B14605E001341C2CECD10EE080440CE02E
:1056C800D1450ADA0C2303FB04535B6B13F809007A
:1056D8000CF0AFFA09F10109F2E70137D3E7002E20
:1056E80000F01F825FFA88F00CF0D8FA0026C9E7AC
:1056F800681000200000C84200007A44DC810108DC
:10570800C64D287C0CF0CAFA00242B7C9C4280F001
:105718000882C34BE65C0021C2480C2200F1300726
:1057280002FB01F3DA5DB24205D1034493F8380075
:105738000CF07FFA02E001311C29EDD10134E4E7D5
:10574800B94C16200CF0AAFAB4F896010CF0A9FA94
:10575800B4F840010CF0A5FAB4F842010CF0A1FA33
:10576800B4F844010CF09DFAB4F8D8010CF099FA99
:1057780094F8ED010CF05DFA00200CF05AFA94F858
:10578800EE010CF056FA94F885010CF052FA94F8F0
:1057980092010CF04EFA00200CF04BFA9F4B9B6CD8
:1057A8000A20B3F9563093FBF0F080B20CF079FA86
:1057B8008BE0E0B201340CF03CFA092CF9D1B0E1ED
:1057C80010200CF06BFA994B994C187800F00200F5
:1057D8000CF02FFA974B18780CF02BFA20680CF085
:1057E80069FA60680CF066FA934B18880CF059FA5D
:1057F800924B18880CF055FA884BB3F874005BE0AC
:105808000CF0FAF9074612200CF048FA834C17B945
:10581800A66FE56F07E0102F13BF0025D4F880604E
:10582800D4F884502E4638460CF003FA30460CF073
:1058380041FA28460CF03EFAD4F888000CF03AFAFF
:1058480000200CF02EFA00200CF02BFA0020A3E028
:10585800724D95F88C0080000130C0B20CF01EFA31
:1058680095F88C000CF0E5F900242E4696F88C305B
:105878009C4280F05681724D285D0CF0DAF905F1F2
:105888001003185D0CF0D5F905F120033035185DCB
:105898000CF0CFF9285D0CF0CCF90134E6E70820CC
:1058A8000CF0FCF900200CF0FCF900200CF0F9F9E0
:1058B80000200CF0F6F900200CF0F3F931E1042097
:1058C8000CF0ECF9584B986829E194F87A010CF03F
:1058D800B0F994F87E010CF0ACF994F87D010CF065
:1058E800A8F994F87F0157E04F4C07200CF0D6F93F
:1058F800B4F880010CF0D5F9B4F882010CF0D1F9B4
:1059080094F884010CF095F9B4F88601D4E7464C74
:105918000C200CF0C3F994F890010CF08AF9B4F853
:105928009A010CF0BEF9B4F896010CF0BAF9B4F883
:1059380098010CF0B6F994F891010CF07AF9B4F8E2
:105948009C010CF0AEF9B4F89E01B5E73D4C3E4D14
:10595800207800EB4000C0B20CF0A0F900262378B4
:105968009E4205F1020580F0DC8015F8020C0CF06F
:1059780060F915F8010C00EB800000EB800000F2E4
:10598800EE2080B20CF08DF90136E8E701200CF02A
:1059980085F9254B93F892010CF04BF9C1E00820EA
:1059A8000CF07CF90024204B2344013493F888013F
:1059B8000CF03FF9082CF6D1B3E0184B1A4C93F8C9
:1059C800CD00C0EBC000C0B20CF068F904F12805A6
:1059D80094F8F40100231D4AD25C904200F0A5809F
:1059E8000C333C2BF7D10834AC42F1D199E040207C
:1059F8000D4C0CF053F904F14005B4F8AC020CF06E
:105A080050F994F8AE020CF014F9043494F8AB028F
:105A18000CF00FF9AC42F0D183E000BF6810002011
:105A280079100020DC81010860110020581900203D
:105A3800601900205E1900205C1900205A19002006
:105A4800F5100020C428002000130020D0280020D2
:105A5800E020444C0CF022F904F18005B4F82E0241
:105A680000F03F000CF01DF9B4F82E02C0F38610C8
:105A78000CF017F994F82C0200090CF0DAF894F8F5
:105A88002C0200F00F000CF0D4F8043494F829022A
:105A98000CF0CFF8AC42E1D143E0334C0D200CF0D0
:105AA800FDF803F01FFD0CF0C4F820880CF002F993
:105AB800E0680CF0FFF802F007FF30E00CF0B0F8F7
:105AC800054684200CF0EAF828460CF0F3F8264B3B
