:020000040800F2
:1000000000A00020EDD60008B9AD000831C80008F6
:10001000B7AD0008B5AD0008B3AD000800000000A2
:10002000000000000000000000000000B1AD00086A
:10003000AFAD000800000000ADAD0008D3A100087E
:1000400055D7000855D7000855D7000855D70008E0
:1000500055D7000855D7000855D7000855D70008D0
:1000600055D7000855D7000855D7000855D70008C0
:1000700055D70008A5AA00086F95000855D70008B5
:1000800055D7000855D7000855D7000855D70008A0
:1000900019AE000855D7000855D7000855D70008F5
:1000A00091840008BD84000881840008CD84000884
:1000B000B1840008A184000855D7000855D700086E
:1000C00055D7000855D7000855D7000855D7000860
:1000D00055D70008898600087D86000871860008CB
:1000E000E1A1000855D7000899C7000855D70008B6
:1000F00055D7000855D7000855D7000855D7000830
:1001000000000000000000000000000055D70008BB
:1001100055D7000855D7000855D7000855D700080F
:1001200055D7000855D7000855D7000855D70008FF
:1001300055D7000855D70008000000000000000057
:1001400055D7000855D7000855D700080000000013
:10015000000000000000000000000000000000009F
:10016000000000000000000055D7000855D7000827
:1001700055D700080000000000000000000000004B
:080180000000000055D7000843
:100188002DE9F04F2DED028B924D934B2B60A9B0CA
:1001980000236B6007F043FE18B907F063FE05F013
:1001A80025FE05F0E1FE8D4B8D4C1A7842F00102D8
:1001B8001A708C4A4FF47001C2F888100022099214
:1001C8000A92226842F4803222600493236803F47E
:1001D80000330A93099B013309930A9B1BB9099BB6
:1001E800B3F5A04FF2D1236813F4003318BF0123ED
:1001F8000A930A9B012B6FD07A4F7B4BFB60636A93
:10020800AB60636ADFF814A2DFF81482DFF8149297
:1002180043F080736362636943F4FC0328AE63614F
:1002280003238DF8523041F6FF7326F8503D4FF006
:10023800904031460AF04AFC4FF6FF73504631466B
:10024800ADF850300AF042FC684831460AF03EFCEE
:10025800674831460AF03AFC664831460AF036FCEF
:10026800314665480AF032FC304604F02DFF149BF5
:10027800624AB3FBF2F3624A62491360624B00229E
:100288001A60624B5960F02187F823109A60604F1A
:1002980007221A60BB68C8F8003099E80F0086E8A2
:1002A8000F006369149843F480236361636943F41E
:1002B800802363611023CAF818302023CAF8183045
:1002C80015A90AF003FC169817A90AF0FFFBD8F83D
:1002D8000030180729D4A7E04E4B12221A60636831
:1002E800636063686360636843F480636360636842
:1002F80023F47C136360636843F4E8136360236842
:1003080043F0807323602268354B9101FBD55A680E
:1003180022F003025A605A6842F002025A60636887
:1003280003F00C03082BFAD166E797F89231012BFA
:100338007AD8D9F8100030603146504697F893B112
:100348000AF0C4FB0A2009F02BFFBAF8103003F4B6
:1003580080539BB2002B67D11E4A9268D20040F1AD
:100368008784DB0760D52C4BDFF8B0A018684FF006
:10037800200BAAF828B0314614904FF090400AF0AC
:10038800A5FB4FF0904308229A613C2009F013FF27
:10039800CAF818B04FF0000A97F893319A4543DA33
:1003A8001E4A4FF0904B1021082391617820069146
:1003B8000592ABF82830039309F0F2FE059A0699E6
:1003C800039B11857820CBF8183009F0E9FE0AF173
:1003D800010AE1E770010020A9560008CA2200209E
:1003E8000010024000ED00E00005FA050008004892
:1003F800000C0048001000480014004840420F005C
:10040800D81700203F190100DC17002010E000E099
:10041800CC1A0020002002407007010800040048A0
:10042800082200205C070108642009F0C4FEC822E5
:10043800CB4800210EF035FDE369CA4A43F00303B7
:10044800E361A36943F4A123A361636943F4C0236F
:10045800636102F1B00C937B506892F80FE003F0EF
:100468000701DB0800EB83038900186A4FF00F0AC5
:100478000EFA01FE0AFA01F120EA01011962196A6D
:1004880010324EEA010162451962E4D10023DFF817
:100498000CA30AF10C020021995401330B2BF6D15D
:1004A800FF23B14A8AF817308AF818308AF81930C9
:1004B8008AF81A308AF81B30AC4BDFF8E4B21360C4
:1004C800AB4A039304201070584630220EF0E9FC22
:1004D800142202218BF800208BF824100122A54950
:1004E800039B8BF8182097F805B081F800B0A3F5A6
:1004F800EE71CAF81C10A049D8F80080A3F58E73D5
:100508000B609E4B03EBCB0318F0200F5B78CAF807
:10051800203018BFCAF820200023994A40F2DC5145
:1005280022F813100133082BF7D10DA800211C2243
:100538000EF0B7FCBBF10E0F03D00BF0EF03082B46
:1005480002D101238DF84430022007F0B7F818B122
:100558004088003018BF0120C8F340038DF83A30B6
:10056800C8F380138DF83C30C8F340338DF834302D
:10057800C8F3C03300F001008DF8373018F4006379
:100588008DF8390007D097F8863103F1FF3EDEF188
:10059800000343EB0E038DF83830C8F300438DF8A1
:1005A8003D302B6AB7F84801ADF84800003318BF52
:1005B80001238DF83E30C8F300538DF83F30B7F86B
:1005C8004A31ADF8423018F4805FB7F8563118BF99
:1005D8006C48ADF84030C8F380438DF83B30B7F82D
:1005E80054311CBFB0F85001ADF84800B3F5FA7F9C
:1005F800ADF8463084BF0023ADF84830624897F81C
:10060800D63185F82430002385F8253043709DF8CD
:10061800443008F00101002BC8F3C0028DF83510F2
:100628008DF836200CBF0023022301B902B1013333
:1006380009EB83094FF0000AD9F818309A1E1433D1
:1006480003920593039A32F8023F03924FF6FF7222
:10065800934200F04581DAB2190A9DF839307BB12E
:10066800404B4A4F03EB02135868B84208D11B8924
:10067800B3F5806F00F02F81B3F5006F00F02B8188
:100688009DF83A3053B1374B03EB02135868B0F179
:10069800904F03D11B89102B00F01D81022902D134
:1006A8009DF8343003E0012904D19DF83530002B42
:1006B80000F011812B4F9DF83F304FEA02194F444B
:1006C80033B19DF844301BB9043A032A40F2EC8058
:1006D8000129CBB266D1FF2385F86C3085F86D30DF
:1006E800204BEF6703EB09024FF00008517B50687D
:1006F8008DF8521002F1080B1289ADF8502014A998
:10070800022285F8708006938DF8532085F828809A
:10071800C5F82C80C5F83080C5F83480C5F86880E5
:1007280085F86E8085F86F800AF0D0F9069B9BF8F3
:10073800021053F8090042460AF0FAF838460AF05F
:10074800EBFF134B1349C5F88030134BC5F88430C1
:10075800C5F8888038460A1D07F02CFFBBE000BFAB
:100768002818002068200108640F0020BC1C002005
:10077800060400206C0600206C190020B022010835
:10078800F6030020CC1A0020950100200004004840
:10079800F1A60008F0010020D1A700087001002090
:1007A8002C0F0020022B46D15FFA8AF21C2101FB94
:1007B80002FC05EB0C089B4A88F871A0012188F817
:1007C800701002EB09014FF0000B91F80DE048683A
:1007D80088F872B001F108020989ADF8501088F85C
:1007E8007AB014A9C8F87C70CDF81CC08DF852E016
:1007F80006928DF853300AF069F98A4B069A53F835
:10080800090091785A460AF093F838460AF084FFAE
:10081800DDF81CC08449854AC8F880206144844AB0
:10082800C8F88420C8F888B038460A1D07F0C2FE08
:100838000AF1010A4FE0032B34D19DF83B30DFF871
:100848002C823BB195F82690384608214FF6FF7266
:1008580000231BE0BDF846207649BDF8483091F8E2
:100868002690B2F5FA7F0BD97349B1FBF2F23846FC
:10087800082192B20AF053F9704B48F829000AE0AF
:100888006F49B1FBF2F23846012192B20AF047F9FA
:100898006C4B48F82900C36095F82630013385F879
:1008A800263018E0042B16D195F82580BDF8402095
:1008B800634B93FBF2F23846BDF84230012192B205
:1008C8000AF02DF995F8253005EB88080133C8F8AA
:1008D800500185F82530039B059A93427FF4B2AE08
:1008E80095F8252085F87021574A584B92F800E072
:1008F800AEF117020027022A1F709C461AD8EB692E
:100908003B44D3ED007AF5EE407AF1EE10FA02D1CD
:100918002B6A73BB26E04E4A07EB02080FCB88E828
:100928000F009CF8003010370133C02F8CF80030CE
:10093800E5D1EDE7474B13F83E908CF8009003EBB8
:10094800CE03D3F804A0BAF1000FE1D04F45DFDAA7
:100958003F4A3B0103EB020853440FCB013788E8B9
:100968000F00F3E73C4B03931A6812F4805F24D11D
:100978001DE03A4B3A4A13F83E00107003EBCE03E1
:100988005D68002DEED000238342EBDAC3EBC30190
:100998006A18DFF8DC80D2F8009041F8089001EB83
:1009A80008079188B9809279BA710133ECE70EF0A3
:1009B800EF03082B2B4B20D122E09CF80020012AC2
:1009C800F5D9294B03EB0212103210339342EED0C3
:1009D80053ED047AB6EE007A67EE877A43ED047A2F
:1009E80053ED057A67EE877A43ED057A53ED037A7E
:1009F80067EE877A43ED037AE7E7BEF10E0F09D178
:100A08001A7842F010021A70BEF1180F32D109F0AC
:100A180093FD2FE01A7822F010021A70BEF1190F18
:100A2800F4E700BF68200108F001002035AA00089B
:100A3800C9A600087001002000127A00F1A700087A
:100A480040420F00E1A700086C060020D6170020DE
:100A5800A8050020B022010808220020B40B0108D4
:100A6800F81800209A0B0020B0050020F817002085
:100A7800F918002009F044FD039B1B685D0358BF6B
:100A8800AE4BAF4D5CBF01221A70049B049A1B78D1
:100A980043F0040313702023ADF8503011238DF870
:100AA800523063694FF0020843F4003331468DF841
:100AB80053804FF0904063610AF008F8A14BA24AB6
:100AC8001A60002009F090FBA04B1D60636943F495
:100AD80000336361E36943F48003E361236B23F02C
:100AE80020032363236B43F080534FF0904743F078
:100AF800200323637B6A23F0F0037B627B6A43F065
:100B080040037B627B6A23F470637B627B6A43F4F5
:100B180080634FF000097B6231464FF400734FF059
:100B2800030A384614938DF856908DF857908DF82F
:100B380054808DF855A004F035FC4FF4806331469D
:100B48003846149304F02EFC2B68814E23F00103E1
:100B58002B602A687F4B13402B607F4B2B612B68DF
:100B680043F001032B60C5F80890C5F80C90C5F850
:100B78000890AB6843F40043AB602B682B606B684C
:100B880023F0784323F400436B602B6843F00103A0
:100B98002B60039B4FF0100B1D68304649465A46A0
:100BA8000EF07FF905EA08054FF6FF730B938DF8F1
:100BB80031808DF832908DF833908DF830A065B182
:100BC80028A9384641F874BD04F0ECFB0125072339
:100BD800357086F80190F370B570E36A23F4F87302
:100BE800E362E36A43F4D873E362636943F08053D2
:100BF80043F002036361594C204604F0D9F90023FD
:100C0800169318931E9319934FF480731A934FF405
:100C18008063534A1B932023204614921C93514A05
:100C280015924FF4005314A91D93ADF85C5004F0CD
:100C3800A1F9236843F0010323604B4CA36823F018
:100C48004053A360A36843F08053A3600A2009F0CF
:100C5800B2FAA36823F08043A360A368A360A368E3
:100C680043F00043A360A3683F4A002B08DAFAE781
:100C78000BF1FF33092B8CBF00230123FFF771BB56
:100C880093683A4923F040539360936843F00053C4
:100C980093608868364B034043F468338B60D168AF
:100CA800344B0B4043F40053D360136B013D23F0E6
:100CB8000F031D431563002401233219917800297D
:100CC80000F08B805D1C042B375DD078DFF898E04E
:100CD800EDB20ED803EB43035A00DEF830101F23A1
:100CE800934021EA030107FA02F30B43CEF83030B0
:100CF80050E0092B0ED8053B06225A43DEF8341083
:100D08001F23934021EA030107FA02F30B43CEF8AD
:100D180034303FE00E2B4FF006012DD8A3F10A0224
:100D28004A43DEF838C01F2393402CEA030107FA30
:100D380002F30B43CEF838302CE000BFD80A00206D
:100D480000580040D4220020E9990008901A002099
:100D5800EC0D0020FFE0CF007A25E00008040240F7
:100D680040010050FC0D002000010050000300501D
:100D7800E010FCFF07C0FFFD0F3B01FB03F2DEF8AC
:100D88003CC01F2393402CEA030107FA02F30B43EC
:100D9800CEF83C30092FA34A0FD99369A7F10A036B
:100DA80003EB430397690721994027EA0101916101
:100DB80091699840084390610EE053697B1E03EBEC
:100DC800430357693821994027EA01015161516964
:100DD80003339840084350612B460434102C7FF4A9
:100DE8006CAF904B9A6842F001029A601A461168FB
:100DF8008C4BC807FBD5DA688B4C22F00202DA600C
:100E0800DA6842F00202DA60DA6842F00102DA6077
:100E18009A6842F004029A60B4F85C31002B40F002
:100E28007384B4F95E21002A40F06E84B4F960211D
:100E3800002A40F069847D4B7D4E1B687D48B3F8DD
:100E48005630049300210C22B4F8647194F863B10D
:100E5800B4F80C9094F80FA0DFF80C82764D0EF0E1
:100E680020F83046002114220EF01BF8002388F8E1
:100E78000030C5F8743107F0EBFA002833D06F4B17
:100E880033606F4B73606F4BF360B7F5807F6E4BC9
:100E980033616E4B01D1002216E0BB2F01D901222C
:100EA80012E0612F01D902220EE0292F01D9032275
:100EB8000AE0132F01D9042206E0092F01D90522DF
:100EC80002E0002FE7D006221A706149614A0591B5
:100ED800042388F8003002230B70136843F00103E1
:100EE80013605A460EE0012006F0BEFDF8E04FF010
:100EF800010B0BFA02F140F2B2330B4043B1012A65
:100F08005BD9002254490023092A0B70F9D8EEE76F
:100F180011F04D0FF3D00692C5F8743107F098FA26
:100F2800069A0028EBD00620014614AA0AF070FBA6
:100F38009DF8551001EA0B029DF8531001EA0B01C8
:100F480001FA0BF343EA82019DF8512002EA0B03F0
:100F58000B430AD05BB25B4501D1002302E0022BB0
:100F68000DD1012385F8783110E00C2059460BAAE1
:100F78000AF04EFB9DF82C3013F00F0303D1032029
:100F880006F072FD02E0042BEBD1E6E7294B334A69
:100F98001A60334A5A6095F87821002A0CBF6F22EC
:100FA8006E221A722C4B04221A70059A032353706E
:100FB800284A136843F002031360264B1A6812F09C
:100FC800020F9B4602D01B4B1B689847254ABAF173
:100FD800000F4BD017F0FF0F0BD1DBF8003013F0E8
:100FE800020F4FF07D0140F2712308BF4FF4FA73EE
:100FF80002E04FF47A731946994505DBB9F57A6F23
:10100800A8BF4FF47A6900E099464B1E4B44B3FBE6
:10101800F1F3013BDBB203FB011185F87931116073
:1010280028E000BF00010050CC1A0020F40E002078
:10103800F010002054220020700100201D7D0008BF
:10104800517C0008B17B000890C1793D0000002068
:10105800FC00002050220020EB220020797D0008AF
:10106800917C0008080500202804002085F879A153
:10107800C2F8009033689847BF4B00221A7094F862
:1010880058210AB188F8002094F859210AB1BB49BF
:101098000A7094F85A2102B11A70DBF80030B84986
:1010A80013F0080F1AD0BDF91000DFEDB66A6422FC
:1010B80090FBF2F302FB130212B207EE902AB8EE8D
:1010C800E77A07EE903AF8EEE77AE7EE267AB2EE9C
:1010D800047A67EE877AC1ED007A01E000230B609D
:1010E800A94B1A7842F002021A70A84A20211185E9
:1010F800102191610A279946DFF89082B8F81430D8
:101108009BB283F02003A8F81430B8F814309BB2CF
:1011180083F01003A8F81430192009F04CF80120C6
:1011280009F062F8192009F046F8013F002009F09B
:101138005BF817F0FF07DFD11023C8F81830202319
:10114800C8F81830924B9FED938A1B689FED920A5E
:101158001B7BDFF8708207EE903AF8EEE77AA7EE8D
:10116800880A04F0E6FCB8F8003007EE903AF8EE8A
:10117800E77A27EE800A0EF0A3F8884B9FED887A6D
:101188001880B8F8003007EE903AF8EEE77A854B09
:10119800C7EE277AFF211B229FED837AC7EE877A55
:1011A8009FED827AC5ED5F7AD6ED047A804E67EEC0
:1011B800887A304667EE877AC3ED007A0DF071FEC3
:1011C8007C4A7D4B12683770012112F0020F18BF5C
:1011D800717019701FBF032119700221B170510776
:1011E80048BF1978304641BF4E1C1E70032646542E
:1011F80012F00A0F0CD01A7804218154511CC9B27C
:1012080005264654D11C0232D2B2197006218154E7
:10121800039A11688A0641BF1A78561C1E70072661
:1012280048BF86546679082E01D00E2E04D11A784C
:10123800571C1F700B2787541A7811F0040F4FF0B2
:101248000C0E00F802E002F101071CBFDFF868E1AC
:101258000232FFB21F701FBF8EF80020544A4FF0B1
:10126800100E02F807E01A78571CFFB24FF0120E62
:1012780011F4806F1F7000F802E00ED094F814E2A9
:10128800BEF1000F09D0DFF830E102328EF80020FD
:10129800474A4FF0130E02F807E01A7811F4007F5E
:1012A8004FF0140E00F802E002F101071CBFDFF84E
:1012B80008E10232FFB21F701FBF8EF800203C4ABF
:1012C8004FF0150E02F807E0182E0DD11A781627E0
:1012D8008754571CFFB24FF0170E00F807E0D71CD1
:1012E8000232D2B21F708654CE0541BF1A78511C03
:1012F80019701A2348BF8354002198222F480DF0F3
:10130800D0FD012006F0AEFA002600285CD0012EA0
:101318005AD82A4B4FF04C0A0AFB06F803EB080B85
:101328000BF148039F78049317B10136F6B2ECE746
:1013380090F9003090F804E01846214B03228DE81C
:10134800840001213A4653F82E3006F073F80590D0
:1013580068B15246584639460DF0A3FD174A059B19
:1013680042F808300123049A1E449370F6B2012013
:1013780006F05EFAC9E700BFEA220020EB2200204F
:10138800781900208988883CCA2200200004004877
:10139800B404002035FA8E3CDB0FC93FD00400208E
:1013A8000AE81C41B004002000401C46BD378635C1
:1013B800D503002050220020D40300203803002049
:1013C8002812010802000020A14BA24A1A60A24B71
:1013D800B4F852111980A14900230B808B70A049E1
:1013E8000A60B4F8982190B29E4921F8130001339D
:1013F800122BF9D1039B1B68D8045CBFB4F89E017B
:1014080008801F0740F1C18094F89231062B00F242
:10141800B680DFE803F004070E3C5674740045F20A
:10142800F05201E042F6F8228F4B1A800AF03BFB9B
:10143800A4E007EE902ADFED8D6A8B4BB8EEE77AD1
:10144800DFED8B7AE7EE267A42F6F8211980002341
:10145800FCEEE77A874A17EE901A42F82310013318
:10146800122BF7D1844A85491160854A40201370B0
:1014780006F0F8F9002800F082800123072690F989
:101488000000804A8DE8480040217F4B71E0764B90
:1014980042F6F8221A80784B7C4A1A60784B102260
:1014A80040201A7006F0DEF9002868D001230025D4
:1014B80090F90000764A8DE8280040214FF4E13386
:1014C80057E0694B42F6F8221A806B4B714A1A6052
:1014D8006B4B082240201A7006F0C4F900284ED041
:1014E8000121002390F900006B4A8DE80A00402191
:1014F8004FF4E13305F09EFFC5F880013BE05A4AFE
:10150800DFF8F8C1DFF8F8E1644F654E654D6648CD
:1015180042F6F82111805A490C22062B0A700DD088
:1015280000238CF800308EF800303B701B2333709A
:1015380005232A7003704FF4E1350AE000218CF886
:1015480000108EF8001039702A702121574D317023
:101558000370494B564A1A60402006F083F970B16F
:101568000122002390F900008DE80C00514A402127
:101578002B4605F05FFF003018BF012028B908206E
:1015880004F0FAFB3C4B4C4A1A604C4D3C4A2B6821
:1015980013F4804F1FBF082111703749484818BFFE
:1015A800086042F20101194003F0010003F40056FB
:1015B80079B12D4B44F62061198026B108231370A8
:1015C8002D4B4049196020B10C2313702A4B3E491A
:1015D80019601378043B537008F0C6FD3B4B186044
:1015E8006379052B02BF3A4B4FF4C8721A80394B06
:1015F8004FF47A721A80384A137843F0080313704C
:10160800364A137823F0020313702A6840F602035F
:1016180013406BB1324B334A1A60334B03221A70B2
:10162800324B01221A70324A00231380314A138048
:10163800A3682B60304B01221A7099F8003063F0D0
:101648007F0389F8003029B0BDEC028BBDE8F08F2C
:10165800940B0020561C0020980B00201422002018
:1016680004220020E80C002024050020CDCCCC3F2B
:101678000000B0C4A00C002074000020714A0008CB
:10168800C0210020DD4C0008A08601005D4A00084A
:10169800314C0008454A0008E54B00082C0D002095
:1016A8002E0D00202B0C00202F0D002090D00300C1
:1016B80061490008C54A000881BB000808220020CB
:1016C800A54A000875BB0008B54A000800050020B7
:1016D800AA0B0020E82200209A0B0020ED2200200F
:1016E800E80D0020481C00204C22002000010020AA
:1016F8001003002012030020D80A00202C0C002020
:101708002D0D002035FA8E3C1BB207EE903A5FEDA6
:10171800036AB4F95E31104AF8EEE77A07EE103A38
:1017280067EEA67AB4F96031CDED147A07EE903AF7
:10173800B8EEC77AF8EEE77A002127EE267A67EE48
:10174800A67A117014A805498DED157ACDED167A93
:1017580004F052FAFFF76FBB46000020C40D0020CA
:101768002DE9F04FC14BB3F90610C14B2DED028B9B
:101778001E68728989B09142039311DBB1F5FA6F43
:1017880096F807B0BDBF8B1A03FB0BF3A2F5FA6BF3
:10179800CBF1640BBCBF93FBFBFB0BF1640B01E0CB
:1017A8004FF0640BB34DB44B2A68059293F962214C
:1017B800B3F898A1059C029392B2079200225300B5
:1017C8000693AA4B33F912300493CAEB030303F2CE
:1017D800F31740F2E630874203D8002BB8BF5B42CC
:1017E80001E04FF4FA73022A01934FF06400059B5D
:1017F800A24F34D093F811E1BEF1000F06D0019B3F
:101808007345CCBFCEEB030300230193019BDFF8A4
:10181800B8E293FBF0FC6FF063093EF81C8009FB0B
:101828000C390CF1010C069B3EF91CE00FFA88FC00
:10183800CCEB0E0E0EFB09FE9EFBF0FEC64427F80D
:1018480003E0B718019B3F797B438D4F93FBF7F378
:1018580064339BB20BFB03F393FBF0F031E093F896
:1018680012E1BEF1000F06D0019B7345CCBFCEEB51
:10187800030300230193019BDFF8388293FBF0F008
:101888006FF0630C38F910E00CFB00390130BDF83B
:101898001C3038F91000CEEB000000FB09F999FB69
:1018A800FCF9CEEB090919FB03F9019BA7F8049091
:1018B800B079002BB8BF5B424343714893FBF0F00B
:1018C800643063786F4F4FF0640E434393FBFEF32D
:1018D800BB546D4FE37A434393FBFEF3BB54637DE4
:1018E800664F5843694B90FBFEF0022A9854684BA8
:1018F8000FD183F802E0049B53450FDB5E4CB4F82C
:101908009A21914216DBB1F5FA6FA8BF4FF4FA613C
:1019180011E003F802B0049B534504DA069B0698CD
:10192800FB5A5B423B520132032A04F101047FF463
:1019380046AFE3E71146891A4FF47A735943554B7A
:101948004E4E6FF0630CC2F5FA624FF0640EB1FBB5
:10195800F2F191FBFEF233F812000CFB0211013296
:1019680033F9122003B2D21A514391FBFEF3034418
:10197800FB80494B1B88580637D5484B484A1B887B
:101988001288DFED487A9FED480A9B1A1BB208EED1
:10199800103AB8EEC88A28EE278A38EE000A04F012
:1019A800C8F8F0EE408AB0EE480A04F0C2F8B6F97A
:1019B800023006EE903AB6F90030F8EEE66A07EE25
:1019C800903A20EE667AF8EEE77AA7EEA87A67EE04
:1019D800807ABDEEC77AE6EEA87A17EE103AFDEEE9
:1019E800E77A338017EE903A7380304E3368990760
:1019F80040F1AA802E4B2F491A684B6945F20720FF
:101A0800D31A8342884640F39F804A6103F0B8FDA9
:101A1800294BDFF8B8A01A78032A9946BAF800309B
:101A280056D10A2B60D90023282089F8003008F005
:101A3800C2FB03F0A5FD214B188803F08BFD204B5A
:101A48001A68D37890FBF3F0013008281D4BA8BF23
:101A580008201870537980B213FB00F3A8F81830E7
:101A6800137913FB00F0A8F81A003DE0E80C0020F9
:101A7800E8210020F40E0020CC1A00202E170020A8
:101A88000CFEFFFFD017002006030020D31700200C
:101A98003C1700206A0F00202C170020A40B002000
:101AA800C822002035FA8E3CDB0FC93F08220020EF
:101AB800D0220020F80200204C220020040E002032
:101AC800E80D002000010020820F0020900E002069
:101AD8000A2B09D80323A64A89F80030002313707B
:101AE800A8F81830A8F81A3099F80030A14A012B44
:101AF8000DD002D3022B1DD026E0B8F81820BAF872
:101B080000309A4220DD012389F8003010E0BAF84D
:101B18000010B8F81A308B4202DD0223137010E06F
:101B2800954B1B8B0133994202DD002313700BE0A8
:101B3800082007E0B8F81A30BAF8002001339A42B2
:101B4800E1DC072005F052FFD6F800B08B4E1BF4FD
:101B5800006F7ED08A4B88491A68CB69C3EB0209AB
:101B680045F207239945884673DD864BB7F9067019
:101B7800D3F800A0CA619AF80A30B4F85211012BC0
:101B88004FF47A72A7F57A7799FBF2F903D045D327
:101B9800022B23D045E07C4BD8F82000597B7B4BA7
:101BA80033F81110082789B290FBF7F3C01A4318CD
:101BB800A8F82410C8F8203040F6E44193FBF7F366
:101BC8009BB24B43BAF80810C1EB13335A43BAF926
:101BD800063092FBF3F2C8F8282022E03278BAF8EF
:101BE8000830C8F8283052071BD56948019305F01A
:101BF800CBFE019B18B91BF0100F18BF002707FB7D
:101C080007F2322192FBF1F21744BAF90620574342
:101C18004FF47A7297FBF2F73B4400E00023C8F8D0
:101C28002830D8E90C01D8F828305A4A03FB09F3C0
:101C38004FF47A7993FBF9F310EB030A41EBE37B5A
:101C4800C8E90CAB5046594600230AF007FEC8F80D
:101C58003800514B1A6812F4805F984602D00A2067
:101C680005F0C4FE4D4F3B68002B52D0DFF854E11D
:101C78004B4ADEF8000011688142F246914648D886
:101C8800484ADFF828B110785968D8B90123137089
:101C9800BBF800208A5C22B31846019308F0A4FA26
:101CA800414A019B13700AF0C5F8BBF80030C3B96C
:101CB8003B681B78053B012B13D808F055FA2E4BCF
:101CC800D8630EE000231370BBF800208A5C42B191
:101CD8001846019308F088FA334A019B13700AF0FA
:101CE800A9F83A68BBF8003052683048D25CFE2A3E
:101CF80001D100230CE0FF2A02D105F05FFE08E0C5
:101D0800DAF800700A2111FB0272C9F800200133C9
:101D1800038033785F0703D5254B10221A8561E0CD
:101D2800D8F80020D0075EBF144943F001030B70B8
:101D3800204B1B7819075EBF337823F001033370FB
:101D4800D30242BF337823F0010333701A4B1A8849
:101D5800154B1AB1194A1268970702D4184A128803
:101D680092B302221A70337823F00103337030E003
:101D7800000100204C220020F8020020ED22002063
:101D8800D0220020E80D0020EC0D0020FC0D0020E2
:101D9800561C0020407E0500740B00209C0F00207C
:101DA800940F0020900F002038220020980F002068
:101DB800000400489A0B0020AA0B002050220020A3
:101DC800E8220020C41A00203178C80758BF022230
:101DD8001A7008F0C9F9B44B1B68C01A002801DB57
:101DE8000AF028F8B14F3E78002E00F0D080B04BB2
:101DF8001A689846002A01F01C80D8F80000036889
:101E08005B689847002801F01480A94BA94C186812
:101E180003689B689847092801D03F2852D14FF0A2
:101E2800000A2668DFF8CC92554636B1A248D9F8A0
:101E3800001032460DF082F810B9CA4605B94D4671
:101E48009E4B09F110099945EFD3EDB1D5F800C0C3
:101E5800DAF8009023681CF803E019F803007045CD
:101E680012D15A1C944958B92D2B09D8DFF844E2ED
:101E7800CEF800204FF0200E01F803E0885403E06C
:101E880001F803E02260E5E723680BB1554510D05F
:101E98008B480AF0C5F8554507D855F8100B0AF0D5
:101EA800BFF809200AF0B4F8F5E786480AF0B8F850
:101EB800002623689E42A0D27F4B985D0AF0A8F8BE
:101EC8000136F6E72368002B40F09487042841F098
:101ED8006C84794804F028FB00F0ABBFD8F8000008
:101EE800DFF8F0B103685B689847002845D0DBF855
:101EF800000003689B689847D9F8003093F8482099
:101F08008246002A51D1242840F08880012283F893
:101F18004820D9F8002092F848000628DED192F827
:101F280049304B2B00F0DB8600F28781322B00F022
:101F3800088700F22181222B00F06C8500F2DC80FA
:101F4800032B00F01D8200F2A480012B40F090804A
:101F5800032009F0DDFF002009F0ADFF012009F0A2
:101F6800AAFF0D2009F0A7FF574F3B68987909F0A1
:101F7800A2FF3B68002283F84820544B93F81331A2
:101F8800002B40F025874C36982E00F05287504A97
:101F9800931993F84A100129F5D14B4FB2583B6079
:101FA8004C4BB9461A60984698E7012A04D14D2847
:101FB80014BF00220222AAE7022A04D13C2814BF37
:101FC80000220322A3E7032A0AD140284FF0000287
:101FD8009FBF1A71DA715871987198BF042296E7F9
:101FE800042A08D19A7983F8490080EA020A83F81A
:101FF80006A005228BE7052A8BD159791A799142D7
:10200800997906D941409971511C19711344187274
:102018007FE781420CBF0622002278E72E4B1A7810
:1020280052073FF576AF2328DBF8002013D11F496C
:102038000193012008701E4928480A602349C1F805
:10204800D82009F0EDFF1F4809F0EAFF019B1A7834
:1020580042F002021A70224B1B681B78534501BFDD
:10206800204B214A1A60214B04BF214ADA6050E70D
:10207800022B40F00187042009F04AFF432009F0B1
:102088001AFF4C2009F017FF462009F014FF4C20D6
:1020980068E7042B00F07F81052B40F0ED861A20BD
:1020A80009F036FF002787E13C220020EC220020BF
:1020B80048220020F00E0020C00E0020F40A01087B
:1020C800182101081D21010840220020F8020020E3
:1020D8003803002044220020ED2200204D21010871
:1020E800640F0020FC9F0020EFBEADDE00ED00E095
:1020F8000400FA0574090108282B00F0D68515D8C4
:10210800242B00F0B885262B40F0B686B64F062063
:1021180009F0FEFEB7F85C0109F0FDFEB7F85E01B4
:1021280009F0F9FEB7F8600100F022BE2A2B00F092
:10213800CF852C2B40F0A086AB4F0C2009F0E8FE91
:1021480097F8920109F0B7FEB7F89C0109F0E3FE91
:10215800B7F8980109F0DFFEB7F89A0109F0DBFE3D
:1021680097F8930109F0A7FEB7F89E0109F0D3FE8E
:10217800B7F8A00100F0FCBD3D2B00F01D8323D86B
:10218800382B00F07E8512D8342B00F06684362B6D
:1021980040F07286954B944F93F80E01C0EBC00047
:1021A800C0B209F0B5FE07F1200800F0F0BD3A2BE7
:1021B80000F0A8823B2B40F05F86012009F0A8FEC2
:1021C8008B4B1B681878CDE6452B00F0EE8527D899
:1021D800402B00F0BE85422B40F04E86824F1020E7
:1021E80009F096FE787909F066FEB86809F09CFE59
:1021F80097F8920109F05FFEB7F85C0109F08BFED1
:10220800B7F85E0109F087FEB7F8600109F083FEB0
:10221800B7F8820109F07FFEB7F8840100F0A8BD85
:10222800462B00F0B885492B40F02686022009F09D
:102238006FFE6D4B988900F09BBD702B00F0E88213
:1022480056D8682B00F0368224D8652B00F0E4803D
:1022580015D84D2B00F05285642B40F00D860720D1
:1022680009F056FEE72009F026FE5F4B587909F081
:1022780022FE002009F01FFE042000F0A5BD662BF9
:1022880000F08B81672B40F0F785102009F040FEA5
:102298000027A3E16D2B00F02F8213D8692B00F0E3
:1022A80015826C2B40F0E885524F062009F030FE6D
:1022B800388809F030FE788809F02DFE4E4B1888D2
:1022C80000F056BD6E2B00F021826F2B40F0D485B4
:1022D8004A4F0B2009F01CFE3B68187809F0EBFD0B
:1022E8003B68587809F0E7FD4FF00009B8466FE2FF
:1022F800782B00F07B811ED8742B00F0D7830BD885
:10230800722B00F04984732B40F0B685082009F041
:10231800FFFD012700F090BC752B00F06F83772B31
:1023280040F0AA85DFF8C48098F8DC0009F0F0FDD9
:10233800002700F027BCF02B00F0908414D87B2BEA
:1023480000F0F882A02B40F097850C2009F0E0FD02
:102358002B4B186809F0E8FD2A4B186809F0E4FDD2
:10236800294B186800F030BDF12B00F07D81FE2B61
:1023780040F08285082009F0CBFD002000F064BC05
:10238800184609F0C5FD012009F095FD0A2009F05D
:1023980092FD0020E6E5062009F0BAFD412009F08B
:1023A8008AFD572009F087FD462009F084FD332077
:1023B80009F081FD00F050BC144BD85D013709F0DD
:1023C8007AFD0B2FF8D10027114BD85D013709F0A2
:1023D80072FD082FF8D100270E4BD85D013709F0A0
:1023E8006AFD072FF8D1BFE5CC1A0020F8020020BB
:1023F800F40E00209A1A0020A40B0020E8210020E7
:10240800ACF7FF1FB0F7FF1FB4F7FF1F85210108C6
:10241800912101089A2101080B2009F079FDCF4B81
:10242800188809F078FDCE4B1A68CE4B9A420CBF3B
:10243800CD4BCE4B188880B209F06DFDCC4B1B6894
:10244800C3F3C000C3F38002800040EA4200C3F334
:1024580040021043C3F3401240EAC20003F01003E5
:10246800184309F058FDC34B1A88C34B12F0010FEB
:1024780014BF4FF002084FF0000812F0020F14BF0B
:102488004FF0040C4FF0000C12F0040F14BF4FF083
:10249800100E4FF0000E12F0400F14BF2027002737
:1024A80012F0100F14BF4FF40070002012F0200F2C
:1024B8001B6814BF4FF4806B4FF0000B12F4807F41
:1024C80014BF4FF400610021019102F0080903F4E0
:1024D800475141EA090903F4804149EA010903F433
:1024E800004149EA010903F4803149EA010903F48A
:1024F800003149EA010903F4802A49EA0A0903F488
:10250800002149EA010103F4801941EA090903F0AD
:10251800007349EA0303DFF8909299F80090C9F331
:10252800800943EA090343EA080343EA0C0C4CEA2E
:102538000E0E4EEA07073843019B12F4007F40EA6B
:102548000B0B4BEA030B14BF4FF4001100218B4B0C
:1025580012F4806F4BEA01014FF0000014BF4FF0F6
:10256800806B4FF0000B93F8DC7041EA0B010346D7
:10257800BB420CD2824A13F802E0012202FA0EFE94
:102588001EEA010F1CBF9A4010430133F0E709F01F
:10259800CBFC7C4B93F8C806E4E4122009F0B8FCA5
:1025A800794B1B88B3F5806F8CBF4FF008084FF04C
:1025B80001080027754B33F9170090FBF8F0013735
:1025C80080B209F0A8FC032FF4D1714F388809F0C4
:1025D800A2FC788809F09FFCB88835E36D4BD85D7C
:1025E800013709F068FC102FF8D1BDE4702009F01C
:1025F8008FFC4FF000082B680E2707FB08F73B44B9
:1026080008F10108B3F8190109F085FC2B683B446F
:10261800B3F81B0109F07FFC2B683B44B3F81D019C
:1026280009F079FC2B683B4493F81F0109F043FC3F
:102638002B683B4493F8200109F03DFC2B683B4490
:1026480093F8210109F037FC2B683B4493F82201E9
:1026580009F031FC2B681F44D7F8230109F064FC0A
:10266800B8F1080FC7D17FE47020464F09F050FC3D
:1026780007F1700897F8D40009F01DFC97F8D50009
:1026880009F019FC97F8D60009F015FC97F8D7005F
:1026980009F011FC97F8D80009F00DFC97F8D9005B
:1026A80009F009FC073797F8D30009F004FC4745FF
:1026B800E0D159E4102009F02BFC0027364BD85DF7
:1026C800013709F0F8FB102FF8D14DE4DFF8DC8072
:1026D80098F80000400000F0FE0009F019FC0027FF
:1026E80098F800309F42BFF43FAC2C4B33F81700EA
:1026F80009F011FC0137F3E709F00AFC002009F0A2
:1027080013FCA9E2042009F003FC5CE3072009F0AC
:10271800FFFB234B194F1888FF28A8BFFF20C0B222
:1027280009F0C9FBB86B4FF6FF784045A8BF404693
:1027380020EAE07080B209F0EEFB1A4B188809F025
:10274800EAFB104BB86A93F887318BB30A235843D6
:102758004045A8BF404620EAE0702BE064220020F4
:10276800901A0020005400406022002062220020BD
:10277800502200202C170020740B0020F8020020A3
:10278800D5030020CC1A002002000020F00300200E
:1027980036170020F6030020E0170020E80C002080
:1027A800900E0020780B0020ED220020C021002090
:1027B80000F30F0080B2DBE2D24F022009F0A8FB41
:1027C80097F8E20109F077FB97F8E101FFF7CABB38
:1027D800D8F80030CC4F4B4409F10109187909F0B9
:1027E8006AFBB9F1030FF3D13B68D87909F063FBB1
:1027F8003B68987809F05FFB3B68D87809F05BFB89
:102808003B68588909F087FB3B68187AFFF7AABB31
:10281800BE4F1E2009F07CFB3B681B78022B4FF053
:10282800000871D13B6803EB880393ED080AB2EE08
:10283800048A20EE080A0CF043FD80F30800C0B2B9
:1028480009F039FB3B68DFEDB27A03EB880393EDBF
:102858000B0A20EE270A0CF033FD80F30800C0B203
:1028680009F029FB3B68DFEDAB7A03EB880393EDB6
:102878000E0A20EE270A0CF023FD80F30800C0B2F0
:1028880008F1010809F017FBB8F1030FCAD1B8F134
:10289800070F3B6823D193ED110A20EE080A0CF0CC
:1028A8000FFD80F30800C0B209F005FB3B6893ED0B
:1028B800120A20EE080A0CF003FD80F30800C0B2EB
:1028C80009F0F9FA3B6893F84C3000EE103AB8EE8C
:1028D800400A0CF0F5FC80F30800C0B20BE043445A
:1028E800587809F0E8FA3B684344D87A09F0E3FAE3
:1028F8003B684344587D08F1010809F0DCFAB8F157
:102908000A0FC4D1FFF730BB3B684344587809F03D
:10291800D2FA3B684344D87A09F0CDFA3B6843447D
:1029280008F10108587D09F0C6FAB8F10A0FEBD191
:10293800FFF71ABB3C2009F0EBFA0027DFF8CC813F
:102948009FED748AD8F8003003EB870393ED080AEB
:1029580020EE080A0CF0B4FC80B209F0DCFAD8F8D2
:10296800003003EB870393ED0B0A20EE080A0CF006
:10297800A7FC80B209F0CFFAD8F8003003EB870340
:1029880093ED0E0A20EE080A0CF09AFC013780B28B
:1029980009F0C1FA032FD1D1072FD8F8003018D188
:1029A80093ED110A20EE080A0CF08AFC80B209F0B7
:1029B800B2FAD8F8003093ED120A20EE080A0CF0AB
:1029C8007FFC80B209F0A7FAD8F8003093F84C00E1
:1029D8000DE03B44587809F09EFAD8F800303B44A3
:1029E800D87A09F098FAD8F800303B44587D013776
:1029F80009F091FA0A2FCFD1FFF7B6BA2F2009F0C4
:102A080087FA454F17F8010F00283FF4ADAA09F0DF
:102A180052FAF7E7502009F07BFA00273B4B1B6876
:102A280003EB87083D4B98F879200C2101FB023312
:102A3800013793F8380009F03EFA98F87A0009F05F
:102A48003AFA98F87B0009F036FA98F87C0009F011
:102A580032FA142FE2D1FFF787BA482009F058FA62
:102A68004FF00008294B1F68062303FB087708F17D
:102A7800010897F8CE0009F01EFA97F8C90009F086
:102A88001AFA97F8CA0009F016FA97F8CB0009F075
:102A980012FA97F8CC0009F00EFA97F8CD0009F071
:102AA8000AFAB8F10C0FDDD1FFF75EBA4FF0000853
:102AB8004FF001094FF0000A194B93F8DC209245BA
:102AC80042DADD334FF0000B1AF80320134F0C23C2
:102AD80007F1300103FB0BF3595C914209D13B44E8
:102AE800586B0CF022FA0246B9F1000F07D14B4699
:102AF80018E00BF1010BBBF11C0FE7D121E080447A
:102B08001FE000BFCC1A0020E8210020F40E0020AE
:102B18000000C84200007A44B7070108B807010856
:102B2800F802002093420CDA0C2101FB0B7104928D
:102B3800496B0193C85C09F0BEF9019B049A013303
:102B4800F0E70AF1010AB7E7B9F1000F3FF40CAA60
:102B58005FFA88F009F0DCF94FF00009AAE70131C3
:102B68001C290ED0CC480C2200F1300C02FB01F3DA
:102B780013F80C207245F2D1034493F8380009F099
:102B88009AF9013798F8DC309F42BFF4EDA9C34B9E
:102B9800002117F803E0E5E7162009F0B9F9029BD0
:102BA800B3F8980109F0B7F9029BB3F8440109F0AA
:102BB800B2F9029BB3F8460109F0ADF9029BB3F8EC
:102BC800480109F0A8F9029BB3F8DA0109F0A3F962
:102BD800002009F070F9002009F06DF9002009F0D3
:102BE8006AF9029B93F8870109F065F9029B93F84B
:102BF800940109F060F9002009F05DF9A84B1B6801
:102C08000A20B3F9563093FBF0F080B209F083F94B
:102C1800029B93F87C0109F04EF9029B93F880011E
:102C280009F049F9029B93F87F0109F044F9029BE6
:102C380093F88101FFF796B9F8B2013709F03BF92B
:102C4800092FF9D1FFF790B909F065F9002009F0CB
:102C580062F9002009F05FF9002089E0904F042014
:102C680009F056F93B68B3F85A0009F054F93B6883
:102C7800B3F858007CE0042009F04AF9894B9868B9
:102C8800A2E0884F042009F043F997F87C0109F085
:102C980012F997F8800109F00EF997F87F0109F009
:102CA8000AF997F88101FFF75DB97E4F072009F00F
:102CB8002FF9B7F8820109F02EF9B7F8840109F065
:102CC8002AF997F8860109F0F6F8B7F888014FE075
:102CD800012009F01DF9734B5879FFF743B9714F7B
:102CE800042009F015F997F8D80109F0E4F897F8E5
:102CF800D90109F0E0F8B7F8DA0139E06A4FDFF8EE
:102D0800D081387800EB4000C0B209F001F94FF0EB
:102D180000093B78994508F10208BFF425A918F87D
:102D2800020C09F0C8F818F8010C00EB800000EB61
:102D3800800000F2EE2080B209F0EDF809F10109F7
:102D4800E7E7012009F0E4F8564B93F89401FFF700
:102D580009B9082009F0DCF80027524B3B44013739
:102D680093F88A0109F0A7F8082FF6D1FFF7FCB805
:102D780009F0D1F8FFF7F8B84C4AD25C904264D019
:102D88000C33302BF8D1083747453FF4EDA897F8B6
:102D9800F2010023F0E70D2009F0BAF8002009F04D
:102DA8008AF8002009F0C0F80AE0132009F0B0F80A
:102DB80000273F4BD85D013709F07DF80B2FF8D17C
:102DC800002009F0B1F8002009F0AEF8FFF7CCB800
:102DD800384BF05807F00EFA18B9322007F0EBF923
:102DE800F6E707F069FB02F0D7FF334B334ADA60A6
:102DF800FFF7C9B80C2800F0DA840A2840F0DB8411
:102E08002F4D304809F00CF9284623210CF07FF8A3
:102E180008B1401B20602368002B40F0D08428486C
:102E28002360002130220CF03CF83B78002B40F066
:102E3800FB84254B9B68002B00F01D85234809B0B7
:102E4800BDEC028BBDE8F04F184709F034F8B7F82D
:102E5800F40109F060F897F8F60109F02CF897F8F2
:102E6800F70109F028F897F8F90109F024F897F81C
:102E7800F80109F020F886E74C2B3BD108F0FEFF5B
:102E8800084F87F8D80108F0F9FF87F8D90108F04A
:102E9800FFFFA7F8DA0128E0B8070108D5030020EA
:102EA800F40E0020CC1A0020C02100202C0F002096
:102EB800852101083803002000ED00E00400FA0530
:102EC800C00E0020F12C0108F01000200C04002096
:102ED8006E1C0020D42B00F05183D22B40F061846B
:102EE800CA4B1B785B0740F19083002009F010F86B
:102EF800FFF73AB800F27B81352B27D108F0BEFFE7
:102F08000B28804602D908F00FFEEEE7C04B1F6879
:102F180008F0B4FF0328F6D8062303FB087787F8E0
:102F2800CE0008F0ABFF87F8C90008F0A7FF87F8C4
:102F3800CA0008F0A3FF87F8CB0008F09FFF87F8C6
:102F4800CC0008F09BFF87F8CD00CEE700F2A58003
:102F5800292B11D108F09CFFAE4FA7F8820108F089
:102F680097FFA7F8840108F089FF87F8860108F021
:102F78008FFFA7F88801B8E759D8252B07D1A54BAB
:102F880000229A6008F08EFF02F0FEFEADE7272BC4
:102F98000DD108F07DFF9F4FA7F85C0108F078FF7E
:102FA800A7F85E0108F074FFA7F860019DE7232BDE
:102FB80040F0F78308F062FF13288146A3D8DFF8B2
:102FC8005082D8F8007008F059FF002292490C236B
:102FD800534301EB030E9EF838E0864523D10B449A
:102FE8000FFA89F907EB890793F8303087F87930B9
:102FF80008F044FF87F87A0008F040FF87F87B0064
:1030080008F03CFF854B864A1A6087F87C00854BA0
:10301800D8F800001860793008F0F6FC824B80F090
:103028000100187061E701321C2ACFD16BE72D2B04
:1030380023D108F023FFDFF8DC8188F8920108F03B
:1030480027FFA8F89C0108F023FFA8F8980108F0CA
:103058001FFFA8F89A0108F011FF3B6888F8930150
:103068005B79082B7FF641AF08F012FFA8F89E01A4
:1030780008F00EFFA8F8A00137E7332B05D108F0B8
:10308800FDFE644B83F894012FE72B2B40F08983D6
:1030980008F0F4FE5F4B587127E73E2B09D108F082
:1030A800EDFE5C4F87F8E20108F0E8FE87F8E101E1
:1030B8001BE759D8392B11D108F0E0FE554F87F896
:1030C8007C0108F0DBFE87F8800108F0D7FE87F85E
:1030D8007F0108F0D3FE87F8810106E73C2B0BD16E
:1030E8004B4FD7F8008008F0C9FE88F800003B680D
:1030F800187807F0C1FAF8E6372B40F05283537975
:103108000727B3FBF7F2C2EBC2029A1A12F0FF0FBD
:103118007FF4F9AEB3FBF7F7013FFFB2FF2F3FF49F
:10312800E4AE08F0ABFE5FFA80F94FFA89F004F0DC
:10313800C5FA804600283FF4E6AE80F8009008F013
:10314800A7FEA8F8020008F099FE88F8040008F025
:1031580095FE88F8050008F091FE88F8070008F049
:103168008DFE88F80600D7E7432B22D108F086FEAB
:10317800284F0023BB60787108F094FE02F004FE2B
:1031880008F07CFE87F8920108F082FEA7F85C013F
:1031980008F07EFEA7F85E0108F07AFEA7F8600145
:1031A80008F076FEA7F8820108F072FEA7F88401FD
:1031B8009BE60DD8412B40F0F482002708F05EFE14
:1031C800144B3B440137082F83F88A01F6D18CE66B
:1031D800442B04D1154B012283F8132185E64A2B91
:1031E80040F0DF8208F054FE0A4B98817DE6D02B30
:1031F8001ED1064B1B7858073FF577AE04F032FE18
:1032080002F0F4FD02F0B0FE6FE600BFED220020F0
:10321800F40E0020CC1A0020B8070108E40B0020A7
:10322800101C0020E80B002014000020F8020020E9
:1032380000F28E81CC2B50D15379092B7FF663AEE7
:10324800039BD3F8008008F019FE039B88F8000060
:10325800D3F8008008F012FE88F8010008F00EFE8E
:10326800039B64281B68A8BF6420187108F006FE39
:10327800039B64281B68A8BF6420587108F0FEFDF2
:10328800039BFF281B68A8BFFF20987108F0F6FD74
:10329800039B6428D3F8008028BF642088F80700BF
:1032A80008F0ECFD039B88F80200D3F8008008F0D2
:1032B800E5FD039B88F80300D3F8008008F0E8FDDB
:1032C8003B68A8F80A005B790A2B7FF60EAEDC4B48
:1032D8001F6808F0D3FD387207E600F2DC80C82BBF
:1032E80015D157797F08122F3FF60DAE4FF0000821
:1032F800B84507D208F0CCFDD24B23F8180008F1E6
:103308000108F5E7D04B012283F81221EDE5CA2B1D
:1033180040F09280CD4F3B681B78022B4FF000089D
:103328006FD1D7F8009008F0A9FD07EE900AF8EEE3
:10333800677AB2EE048AC7EE887A09EB8809C9ED84
:10334800087AD7F8009008F099FD07EE900A9FEDEB
:10335800C07AF8EE677A09EB8809C7EE877AC9ED73
:103368000B7AD7F8009008F089FD07EE900A9FEDD8
:10337800B97AF8EE677A09EB8809C7EE877A08F117
:103388000108B8F1030FC9ED0E7ACAD1B8F1070FD9
:10339800D7F800901CD108F071FD07EE900AF8EEFE
:1033A800677AC7EE887AC9ED117AD7F8009008F0E5
:1033B80065FD07EE900AF8EE677AC7EE887AC9EDE0
:1033C800127AD7F8009008F059FD89F84C0012E0FD
:1033D80008F054FDC14489F80100D7F8009008F0BE
:1033E8004DFDC14489F80B00D7F8009008F046FD60
:1033F800C14489F8150008F10108B8F10A0FC5D1D0
:1034080073E5D7F8009008F039FDC14489F8010048
:10341800D7F8009008F032FDC14489F80B00D7F8BE
:10342800009008F02BFDC14408F10108B8F10A0F1B
:1034380089F81500E5D158E54E2B40F0B28157794F
:103448000323B7FBF3F7122F3FF65DADDFF81082C9
:103458004FF00009B945BFF448AD08F00FFD88F8F2
:10346800A20108F015FD40F2ED23984205DD40F673
:10347800CA039842A8BF184601E040F2EE20A0F225
:10348800EE20192309F1010990FBF3F008F1020875
:1034980088F8A101DEE7CE2B0AD16F4B1B785A07BB
:1034A8003FF523AD6D4A137843F0040313701CE510
:1034B80044D908F0EDFC6FF4AF67C3199BB2C62B73
:1034C8009CBF674BA3F8980108F0E2FCA4F84401FC
:1034D80008F0DEFCA4F8460108F0DAFCA4F848017C
:1034E80008F0D6FCA4F8DA0108F0C8FC08F0C6FC1D
:1034F80008F0C4FC08F0C2FC84F8870108F0BEFCA0
:1035080084F8940108F0BAFC504B1F6808F0C0FC1E
:1035180000EB80004000A7F8560008F0AFFC84F8E4
:103528007C0108F0ABFC84F8800108F0A7FC84F863
:103538007F0108F0A3FC84F88101D6E4464B1B7890
:1035480059073FF5D2AC474B4FF4C8721A80CCE408
:10355800D62B09D1002708F09BFC434B23F8170012
:103568000137082FF7D1C0E45BD8D32B7FF4B2AC76
:1035780008F08EFC344BA3F81001B6E453790F2BF6
:103588007FF4C1AC08F07AFC072807463FF6BBACCD
:10359800DFF8B880D8F8009008F07AFC0E235F4373
:1035A800B944A9F81901D8F8009008F071FCB94499
:1035B800A9F81B01D8F8009008F06AFCB944A9F8EA
:1035C8001D01D8F8009008F059FCB94489F81F018A
:1035D800D8F8009008F052FCB94489F82001D8F8CE
:1035E800009008F04BFCB94489F82101D8F8009004
:1035F80008F044FCB944D8F8008089F8220108F0A2
:1036080051FC4744C7F823016FE408F037FC144B1A
:10361800022883F8C8067FF6F3AD002283F8C8268F
:10362800EEE5EF2B22D1094FD7F8008008F030FCE7
:10363800A8F85A003F6808F02BFCA7F8580054E493
:10364800E8210020E80C0020F8020020F40E0020F9
:103658000000C84200007A44ED2200209A0B0020A6
:10366800CC1A0020AA0B0020EC2100206DD8D82B02
:1036780040F097800027DFF834829FED818AD8F8E0
:10368800009008F005FC07EE900AF8EE677A09EB5F
:103698008709C7EE887AC9ED087AD8F8009008F04B
:1036A800F7FB07EE900AF8EE677A09EB8709C7EE91
:1036B800887AC9ED0B7AD8F8009008F0E9FB07EE94
:1036C800900AF8EE677A09EB8709C7EE887A01371E
:1036D800032FC9ED0E7ACED1072FD8F800901CD150
:1036E80008F0D6FB07EE900AF8EE677AC7EE887AFC
:1036F800C9ED117AD8F8009008F0CAFB07EE900AD5
:10370800F8EE677AC7EE887AC9ED127AD8F8009091
:1037180008F0BEFB89F84C0012E008F0B9FBB94488
:1037280089F80100D8F8009008F0B2FBB94489F88C
:103738000B00D8F8009008F0ABFBB94489F81500E5
:1037480001370A2FC8D1FFF7D0BBF22B22D108F0DE
:1037580095FB0F2807463FF6D6AB08F08FFB494B81
:10376800C7EBC7071F44387108F088FB787108F069
:1037780085FBB87108F082FBF87108F07FFB38729E
:1037880008F07CFB787208F079FBB87206F0D4FE7A
:10379800FFF7ABBBFA2B04D13B4B1B785B077FF5DC
:1037A8002FAD08F0C1F9FEF7DFBB0C284AD1374826
:1037B80008F036FC38E00D2838D1FFF721BB5A1E37
:1037C800A95C202902D11346FFF726BB304A2360A3
:1037D8000021D1542F4B304DD3F800A0D5F800B0BC
:1037E800DFF8AC9058460BF0A0FB06463246484638
:1037F80059460BF0A3FB294A28B919F80630534457
:103808005B78590703D010359542E7D306E0954217
:1038180004D2701CEB684844984702E0204808F03E
:10382800FFFB0023FFF7FBBA1E4807E07F280DD1F6
:10383800013B174A1C4823600021D15408F0F0FBD3
:10384800FEF7DBBA7F2804D1FEF7D7BA2F2B3EF656
:10385800D4AAA0F12002D2B25E2A3EF6CEAA13B9AB
:1038680020283EF4CAAA5A1C2260094AD05408F0FB
:10387800CFFBFEF7C2BA09B0BDEC028BBDE8F08FF2
:1038880000007A449C1B0020ED2200202221010820
:10389800C00E00200401002074090108F40A010880
:1038A8002D2101081D21010849210108F40E0020DD
:1038B8009B4A2DE9F04F15689A4C05F59C43203337
:1038C8002360994B196889B011F4804F05929B4683
:1038D80005D108F0A3FA10B9237901332371934B6A
:1038E8001F78C7B1924A1268954240F2E080013FC2
:1038F8001F70DCE0D8F800308E48072D98BF595D5E
:103908008D4B88BF29461B689847032D0BD904EBBC
:1039180045050137E880874BDFF834821E78FDB211
:10392800AE42E7D820E0D8F8002005F10E0302EBFC
:1039380083039988DA880028E9D04FF47A73401A0B
:103948005843531A90FBF3F040F6C90300F57A7018
:10395800984205DC40F2EE239842B8BF184601E0D1
:1039680040F6CA0080B2D2E70F23277984F82A30BC
:1039780094F82B300193032594F82C30B7FBF5F518
:1039880005EB45057D1B0393D8F800300293DFF85B
:10399800CC91EBB204930025B54254DA6749019BF8
:1039A80031F815A04FEA450853B908F037FA28B19D
:1039B800039B002B08BF4FF0000A01E0DDF804A0CC
:1039C800029B988A504502D8D88A50450ED2E8B250
:1039D80008F0D6F9032D8246DFBF94F82AE00120CB
:1039E800A8402EEA0000D8BF84F82A0008F016FA8A
:1039F80018B1534828F800A021E0049B94F87600F9
:103A080029F813A028B9022F15D94649012081F8B1
:103A18007600B9F80210B9F800000844B9F80410A3
:103A28000844484980B228F8010000B2032190FBFD
:103A3800F1F080B200E05046414928F80100013514
:103A480009F10609A8E794F82A203F483F4BA2F15C
:103A58000F014A424A4184F8902072B1314AD2F8A3
:103A68009420520109D40268D9689A60521AC82A67
:103A78001DD9012283F8212019E002689868DA60CC
:103A88005B68121A9A4288BF304B4FF0000184F8E5
:103A98002B1088BF83F821100025B54207DAE8B259
:103AA80008F06EF9264B23F815000135F5E7DBF829
:103AB8000030DF0405D5D4F89430DE0701D408F0CF
:103AC800A5FE059B1968224B1F68BB7A002B47D0BF
:103AD800013B1B483A7B30F813301AB1C3F53B63FE
:103AE80008339BB21BB2A3F57A73B3F57A7FA8BFEC
:103AF8004FF47A7323EAE37307EE903A9FED157A51
:103B0800F8EEE77AC7EE877A9FED137A67EE877A41
:103B1800FCEEE77A17EE903AA4F8983067E000BF19
:103B2800D0220020E00A00200822002010220020D5
:103B38000C220020C021002074000020E60A00208A
:103B4800E80C0020580B0020C41A00201422002082
:103B58000422002000007A4400C07F440E0B00209D
:103B6800DBF80020150442D5D4F89C208E4E8A1A22
:103B7800002A3CDB01F59C422032C6F89C208B4A87
:103B880050798B4A32F81050A8B2FD7A90FBF5F5BF
:103B980096F8A000013000F00F0286F8A020324409
:103BA80082F8A1501A46804800F1A1055D5D0133F5
:103BB8002A44102B92B2F6D112B292FBF3F31BB245
:103BC800642BA8BF642323EAE37307EE903A9FEDC2
:103BD800797AF8EEE77AC7EE877A9FED777A67EE1B
:103BE800877AFCEEE77A17EE903AA0F89830DBF87F
:103BF8000030724E13F4807F00F0F780704B714DE7
:103C0800994203D9AB780BB90123AB70AB78002B81
:103C180000F0EB806B4B96F8008093F82170D4F895
:103C28009430781E47424741002FC8F38008C3F3F9
:103C3800806914BF4FF0000A4FF0030A95F820304E
:103C4800052B00F2CC80DFE803F0034C5175829C11
:103C5800B8F1000F38D0D4F8B400B4F8B81003F0B5
:103C680093FE012808D1584A584B12681B68D2881D
:103C7800642101FB02332B61B9F1000F0CD0524BC8
:103C88001B681B7943B105F0AFFB032385F820308F
:103C98004FF47A73EB61D1E7002F40F0A0804B4BD3
:103CA80048491A682B699A420AD9019105F09CFB88
:103CB8000199032381F8203040F6B833CB61BDE782
:103CC800012381F82030B9E74FF48060B9F1000F83
:103CD80002D002F041F801E002F02DF800232B6138
:103CE8007DE0002F44D105F07FFBA7E727B105232E
:103CF80085F82030012100E03946B8F1000F0CD0DA
:103D0800D4F8B430DA89324B1A805A809A802E4A15
:103D180012685288DA804FF0020A2C4B1A686B69D5
:103D28009A4202D8B8F1000F56D147F23053EB61EE
:103D380003231EE0337843F00203337008F066FD76
:103D4800224BEA691B681344AB61042311E01F4B43
:103D580097B11A68AB699A4241D91E4B1B781BB9B7
:103D6800D4F89430D9073AD4337823F00203337067
:103D7800052385F8203061E71B68EA691344AB61C5
:103D88002DE0114A114B12681B68D288642101FB8F
:103D980002332B614FF48060002385F82030EB70EC
:103DA80001F0C9FF4AE700BFE00A0020EC0D00203F
:103DB800FC0D00200000C84200C07F44ED22002016
:103DC800404B4C001422002028110020C41A002067
:103DD800E80C00201400002000297FF42FAFBAF16E
:103DE800000F02D0504603F001FEA84D05F5C5703E
:103DF800B5F8521103F0C8FD074650B905F0E6FAC8
:103E0800A34B1F605F609F60A24B00221A605A603C
:103E18009A6033785A0738D5DBF80030DB0634D59A
:103E280094F8BA30DFF87882D8062ED49A4B1B78EB
:103E380033B395F8E2318FB95BB1984B1A68D8F86B
:103E4800BC309B1A002B04DA08F0E0FC88F8C0703C
:103E58001BE0102003F0CAFD01230EE03BB18F4A9E
:103E680012684FF47A7101FB0323C8F8BC3094F848
:103E7800C03053B103F0A2FD002384F8C03004E041
:103E8800002FE6D098F8C030F3E7002295F8E091CB
:103E980095F8E101B5F89AE1B5F89CC11346DFF849
:103EA800148238F912109B087145C4BF63F07F0370
:103EB800DBB201326145B8BF43F04003042AEED1BA
:103EC80094F8C12076499A4205D191F8C220F92A7E
:103ED80004D8013200E0002281F8C22084F8C13001
:103EE8006D4B6F4A19789A46C9B9D2F89430D907F8
:103EF80006D5A7B93378DA0711D508F051FC0EE0DA
:103F080033785B070BD592F82B3043B1654BDB78E0
:103F18002BB910B108F07AFC01E0002FFAD094F820
:103F2800C2305F4A604F142B40F083809AF800300B
:103F380019F1000918BF4FF001096BB392F8C130AD
:103F48005F2B11D1337803F0040303F0FF0113B1A1
:103F580008F05CFC08E00B200291019203F046FD9A
:103F6800019A029982F8C210B9F1000F14D094F89E
:103F7800C1307D2B10D1337803F0040303F0FF0226
:103F880013B108F043FC07E00B20019203F02EFD6B
:103F9800434B019A83F8C220337803F0040303F0FB
:103FA800FF01002B45D194F8C1303D4A572B0BD166
:103FB8003E4B4FF47A7119803D4B1B6813F0080390
:103FC80037D1A2F8C43034E0DBF80000400717D539
:103FD8005A2B15D192F8C6302BB1012382F8C6109E
:103FE80082F8C73025E092F8C83083F0010382F8E0
:103FF800C8300BB10C2000E00D2003F0F7FC18E0EE
:104008005D2B00F004845B2B00F003845E2B00F032
:104018000284562B01D102F039F99AF80030002BAE
:1040280000F0C98394F8C1306F2B40F0BE8308F0CC
:10403800B7FBDBF8003058074CD594F8C830184A5D
:1040480093B1337859070FD5B8F90610B5F89A31F6
:10405800994209DDD2F8943013F0010302BF3221EE
:10406800A2F8CC1082F8C830D4F894200C4BD203B4
:1040780022D593F8CE202AB993F8C62012B9322255
:10408800A3F8CC20012384F8CE3023E0CC1A0020FA
:104098005C170020BC17002014000020C41A002060
:1040A800E00A002014220020F40E0020E82200205C
:1040B80050220020E80C002093F8C62052B1327834
:1040C80002F0040202F0FF0122B9012283F8C610AF
:1040D80083F8C7203F680023C4F8943007F17B06B3
:1040E80007F1CB093278737816F8010C9A420DD291
:1040F800314603F023FC48B116F8022C012303FAD9
:1041080002F2D4F894301343C4F8943004364E4580
:10411800E8D1C34B1B783BB1D4F89430C14F13F0AE
:10412800020F40F0FB82F2E207F1CA0607F5897731
:104138003278737816F8010C9A4225D2314603F08A
:10414800FDFB08B3B37896F804E0B74A96F80390F5
:10415800B6480C21013B01FB0E4103EB430313441A
:10416800D1F8D4209A420FD0C1F8D430002390F867
:104178000021C1F8D830012303FA0EF322EA030321
:1041880081F8D09080F800310636BE42D0D1A849D7
:10419800A84B0A680192D3F8009094F82B20A64FF8
:1041A8000292002603933868002800F0A98201785B
:1041B800002900F0A5827B68019AD31A002B0ADB3C
:1041C80002F5FA7394F800E17B600123B3402EEA0C
:1041D800030384F80031029B002B00F0918217F84A
:1041E800043C42780433DBB2002A40F04F8238F9AD
:1041F80013E0B5F8983103F1C80CE64502DD90F8F4
:1042080002A013E0C83B9E4503DA8378C3F1000A95
:104218000CE094F800110123B34021EA030384F869
:104228000031019B03F5FA737B6069E294F80001A1
:104238003041C30700F16482BAF1000FCCBF0220FD
:104248000120049103F0F8FB0499784A481E1328CA
:1042580000F24F82DFE810F0140020002F00400029
:1042680059006200C10030018F01BE01EB014D020F
:1042780040004D006200C10030019200030160015E
:1042880099F8001001EB0A03FA2BA8BFFA2323EAD6
:10429800E37389F800300AE099F8011001EB0A038A
:1042A800642BA8BF642323EAE37389F801304846E6
:1042B80003F02AFB1DE299F8031001EB0A03642BB3
:1042C800A8BF642323EAE37389F803304846D2F889
:1042D800041103F0CFFA0CE299F805005044642861
:1042E800A8BF642020EAE0700D2989F8050000F0D5
:1042F800008299F8041001EB0A03642BA8BF642319
:1043080023EAE37389F80430F3E199F8061001EB26
:104318000A0383F3080389F80630EAE1D2F8083182
:10432800187802281FD107EE90AAF8EEE77AB2EEC5
:10433800047AC7EE877A93ED097A77EE877AF5EEF5
:10434800C07AF1EE10FA09D49FED3D7AF4EE477A7F
:10435800F1EE10FAC8BFF0EE477A01E0DFED397AE6
:10436800C3ED097A07E098785044C828A8BFC82048
:1043780020EAE07098700F2900F0BB81D2F808019C
:10438800017802291FD107EE90AAF8EEE77AB2EE7B
:10439800047AC7EE877A90ED087A77EE877AF5EE99
:1043A800C07AF1EE10FA09D49FED257AF4EE477A37
:1043B800F1EE10FAC8BFF0EE477A01E0DFED217A9E
:1043C800C0ED087A95E1417801EB0A03C82BA8BF34
:1043D800C82323EAE37343708BE1D2F808311878D5
:1043E800022831D107EE90AA9FED157AD3ED0C6A19
:1043F800F8EEE77AC7EE877A77EEA67AF5EEC07A16
:10440800F1EE10FA07D4F4EE477AF1EE10FAC8BFCD
:10441800F0EE477A01E0DFED0B7AC3ED0C7A1BE092
:10442800EC2200202C17002038090108E00A00209F
:10443800C41A0020E8210020B40B002000007A44B0
:104448000000C84200000000187B5044C828A8BFDC
:10445800C82020EAE0701873102900F04A81D2F8C9
:104468000801017802291DD107EE90AA1FED0C7AE8
:10447800D0ED0B6AF8EEE77AC7EE877A77EEA67A80
:10448800F5EEC07AF1EE10FA07D4F4EE477AF1EEC1
:1044980010FAC8BFF0EE477A01E05FED167AC0ED7A
:1044A8000B7A26E1C17A01EB0A03C82BA8BFC823FF
:1044B80023EAE373C3721CE1D2F8083118780228A2
:1044C8001FD107EE90AA1FED237AF8EEE77AC7EE20
:1044D800877A93ED0F7A77EE877AF5EEC07AF1EE68
:1044E80010FA09D41FED2A7AF4EE477AF1EE10FAA1
:1044F800C8BFF0EE477A01E05FED2E7AC3ED0F7A80
:1045080007E0987D5044C828A8BFC82020EAE0707A
:104518009875112900F0ED80D2F808010178022978
:104528001FD107EE90AA1FED3B7AF8EEE77AC7EEA7
:10453800877A90ED0E7A77EE877AF5EEC07AF1EE0B
:1045480010FA09D41FED427AF4EE477AF1EE10FA28
:10455800C8BFF0EE477A01E05FED467AC0ED0E7A0B
:10456800C7E0417D01EB0A03C82BA8BFC82323EA93
:10457800E3734375BDE0D2F80801017802291FD121
:1045880007EE90AAF8EEE77AB2EE047AC7EE877AD9
:1045980090ED0A7A77EE877AF5EEC07AF1EE10FAA6
:1045A80009D41FED597AF4EE477AF1EE10FAC8BF34
:1045B800F0EE477A01E05FED5D7AC0ED0A7A98E0A7
:1045C800C17801EB0A03C82BA8BFC82323EAE37309
:1045D800C3708EE0D2F80801017802291DD107EED8
:1045E80090AA1FED697AD0ED0D6AF8EEE77AC7EE6A
:1045F800877A77EEA67AF5EEC07AF1EE10FA07D44C
:10460800F4EE477AF1EE10FAC8BFF0EE477A01E00F
:104618005FED747AC0ED0D7A6BE0417B01EB0A0324
:10462800C82BA8BFC82323EAE373437361E0D2F819
:104638000811087802281FD107EE90AA1FED817A89
:10464800F8EEE77AC7EE877A91ED107A77EE877AF7
:10465800F5EEC07AF1EE10FA09D41FED877AF4EE80
:10466800477AF1EE10FAC8BFF0EE477A01E05FED45
:104678008B7AC1ED107A3CE0C87D00EB0A03C82BA9
:10468800A8BFC82323EAE373CB7532E0012A30D1EF
:1046980090F802E038F91300B0F5617F05DB40F6C9
:1046A80033039842A8BF184601E04FF461700C2903
:1046B8001FD16D4A4FF4966393FBFEFE1378A0F565
:1046C800617090FBFEF0C0B2834212D0042834BF60
:1046D80003460223137001FB0351039B049001F26C
:1046E800CA61196001F01CFC04980130C0B203F0E3
:1046F800A3F994F800110123B3400B4384F8003167
:104708000136042E07F10C077FF44DAD04E5DBF804
:104718000030DE0510D5554BDB786BB1544B1B6868
:10472800980709D53B8813F001060AD104F04EFE1C
:10473800012001F011FB04E0012001F0FCFA012343
:1047480000E00023D4F8942051070CD55BB1012078
:1047580001F0F1FA3B889A0708D404F037FE0220EA
:1047680001F0FAFA02E0022001F0E5FA3B8813F0C2
:10477800030F404B4FF020020CBF9A611A85D4F802
:1047880094301B054FF4807002D501F0E5FA01E082
:1047980001F0D1FA6B79082B01D00E2B61D14020A2
:1047A80009B0BDE8F04F01F0C6BAB9F1000F02D068
:1047B8007E2B3FF43CAC94F8C1302F4A972B04D1A0
:1047C8004FF4C873A2F8CA3033E4A72B06D192F885
:1047D800BA3043F0040382F8BA302AE40022BB2B33
:1047E800079201D1022303E0B72B04D14FF6FE73E1
:1047F800ADF81E301FE0BE2B01D1022304E0BD2B13
:104808007FF417AC4FF6FE73ADF81C3013E00120AF
:1048180002E0022000E003205FFA80F909F1FF338B
:1048280085F8C83601F0E2FA01F09EFB484603F02D
:1048380003F9FFF7FEBB3B68BDF81C10B3F858201E
:104848000A44A3F85820BDF81E10B3F85A200A44A9
:10485800A3F85A2001F01AFD002384F8C230FFF7AC
:10486800E8BB09B0BDE8F08FE42100201422002045
:104878005022002000040048E00A002010B5214A18
:1048880018B9136802221A8210BD1F481468002341
:104898000380217811F07F0102460DD1637A9906D1
:1048A80044BF0221017013F0400F037814BF43F096
:1048B800010323F0010315E0012921D002291ED1AB
:1048C800637913F0800F03F00F034FEA830303F1BA
:1048D800804303F5B8431B6806D003F03003102B60
:1048E80007D10123137004E003F44053B3F5805F4C
:1048F800F6E7064B1B681B699847034810BD184626
:1049080010BD00BF881A0020F00B0020781A002084
:1049180010B5064C18B9236801221A8210BD044B41
:104928001B689B68984720680C3010BD881A0020C7
:10493800781A002010B5064C18B9236801221A828B
:1049480010BD044B1B681B68984720680A3010BDCF
:10495800881A0020781A002003788B4283BF034B03
:1049680003EB410148880020704700BFF00B00208E
:1049780070B500221346244914180C44A47E83EA17
:104988000423082413F4004F4FEA430318BF83F4A9
:10499800815304F1FF3418BF83F0010314F0FF04BE
:1049A8009BB2EFD10132192AE5D100F1190200F1C9
:1049B8001A050A440D44967EAA7E02EB062292B29C
:1049C8009A421FD1104B93F83B50E2B2AA4216D23A
:1049D800431C03EB4203DBB2CA1801330B44927E3B
:1049E8009B7E03EB02239BB24FF4AF6253431B132E
:1049F800064A03F5487322F814300134E5E7012329
:104A080081F83C3070BD00BFF00B0020F20B002095
:104A180003788B420BD9074B1A78074B8900194446
:104A2800086C02B1400800F5777080B2704700202A
:104A3800704700BFC4210020F00B002007299DBF4C
:104A4800034B03EB8101B1F870000020704700BFF1
:104A5800F00B0020034B03EB4101B1F89000C008B4
:104A6800704700BFF00B00200A4BDFED0B7A03EB19
:104A7800810191ED2C7AB8EE477AF6EE046AE7EEFA
:104A8800267A82B0FCEEE77ACDED017ABDF8040013
:104A980002B07047F00B002000005C44024B03EBAF
:104AA8004101B1F8F8007047F00B0020024B03EB0E
:104AB8004101B1F81C017047F00B002070B5334C70
:104AC800054605F051FBD4F83431C4F83401C31A53
:104AD800B3F5FA5FC4F8383182BF002384F83C315B
:104AE80084F83D3194F83C312BB9A12D02BF274AF7
:104AF800012182F83D1194F83D11244A29B1D118B9
:104B0800EDB201338D7682F83C3194F83C5194F83B
:104B18003E31AB4239D11D4B93F83F31052B02D0C2
:104B2800062B03D02CE00020FFF722FFE37E1E2B8C
:104B380026D100200246C1B26B1E994219DA2144DF
:104B48008B7E0821DBB283EA0206F60744BF83F0B6
:104B58001803C3F3460301F1FF3154BF5B0843F068
:104B6800800311F0FF01C2F34702ECD101301A466D
:104B7800E1E723449B7E9A4202D10320FFF7F8FE27
:104B8800002384F83D3184F83C3170BDF00B0020DF
:104B980010B5044605F0E8FA0F4BD3F84021C3F8E6
:104BA8004001821A41F288318A42C3F8442184BF05
:104BB800002283F8482193F84821074913440F2A13
:104BC800E4B218BF013283F8494112BF81F8482185
:104BD800012381F8593110BDF00B002010B50446AF
:104BE80005F0C2FA0F4BD3F85C21C3F85C01821AB6
:104BF80041F288318A42C3F8602184BF002283F8D9
:104C0800642193F8642107491344142A18BF013218
:104C180083F8654112BF81F86421012381F87A3154
:104C280010BD00BFF00B002038B5044605F09CFA13
:104C3800274A2749D2F87C31C2F87C01C31AB3F558
:104C48007A6F84BF002382F8803192F8803133B9BB
:104C5800A82C3BD181F88131A1F8823106E0022BE2
:104C680002D181F8844101E0242B02D8D11881F8BF
:104C7800854192F88411164D01330231DBB24900A7
:104C88008B4282F8803118DAB5F88231E0B283EAD3
:104C98000020082310F4004F4FEA400018BF80F4AA
:104CA800815003F1FF3318BF80F0010013F0FF03B8
:104CB80080B2EFD1A2F8820138BD01318B4201BF29
:104CC800002385F88031012385F8813138BD00BF84
:104CD800F00B002010B5044605F046FA104AD2F849
:104CE800AC3140F6AC51C31A8B42C4BF002382F8E2
:104CF800B03192F8B031D11881F8B14123B90F2CF5
:104D08000DD10749C1F8AC010133DBB2192B0449B5
:104D180082F8B0310CBF0123002381F8CA3110BDDD
:104D2800F00B00202DE9F843324F3D682A8A2E7A8D
:104D3800B2B9042E14D1304C30482378012B0BD152
:104D48002F4B19682F4B89B20B445B0019681A6006
:104D580030230380227048E010230380072644E0B4
:104D6800AC8AAB69A24294BF04260226944228BFAB
:104D780014461FFA84F840469847214A13689BB2A4
:104D880003F1005303F540535B0004F1010E1B6867
:104D98009BB203F1005303F540534FEA6E0E5B00DC
:104DA8000021714500F1020009D010F8019C10F8AB
:104DB80002CC4CEA092C23F821C00131F1E7126832
:104DC800104B92B213445B001A681C602B8AC8EB24
:104DD80003032B826B8A9844084BA5F81280302273
:104DE8001A80094B4FF440521A803B681E72BDE886
:104DF800F88300BF881A0020EF220020721A0020D2
:104E0800505C004002300020701A00200E4B0F4A00
:104E18001B689BB203EBC00002443E294FEA4202E2
:104E280009D94B09C80604BF03F1FF339BB29B02A3
:104E380043F4004304E04B08C90748BF01339B0211
:104E480011681360704700BF505C004006300020B6
:104E580010B5454B1A68107810F07F0004D1537ACA
:104E680023F02003537210BD02287AD15388002BF7
:104E780078D11379002B75D1537923F08000840001
:104E880004F1804101F5B84113F0800F096814BF9F
:104E980001F0300101F44051032862D8002960D0A4
:104EA800927A002A5DD004F1804404F5B8441906CA
:104EB800226825D502F03002102A4CD103F07F0376
:104EC8009B0003F1804303F5B8431A68510641BFBC
:104ED800196840F60F720A4042F4004244BF42F09B
:104EE800C0021A601A6822F4E04222F0400292B22C
:104EF80082F0300242F4004242F080021A602AE056
:104F080002F44052B2F5805F25D128B9174B93F8C7
:104F18002C10FFF77BFF11E09B0003F1804303F5A2
:104F2800B8431A68520441BF196840F60F720A4024
:104F380042F4404244BF42F080021A60236823F4DE
:104F4800804323F070039BB283F4405343F400433F
:104F580043F080032360064B1B685B699847002079
:104F680010BD022010BD00BF881A0020AC00002030
:104F7800781A00208A68036810B50C6A14430A6915
:104F880014434A6914438A691443CA6914434A6A30
:104F980014438A6A23F4FF4323F070032243134324
:104FA80003608B8943600B6883604B68C36010BDE6
:104FB80002684FF6FE7313400360002303604360EA
:104FC8008360C360284B984201D1284A27E0284BC8
:104FD800984201D1254A2AE0264B984201D1234A1A
:104FE8002DE0254B984201D1204A30E0234B9842CE
:104FF80001D11E4A33E0224B984204D11B4A536820
:1050080043F470032EE01F4B984204D1174A5368AB
:1050180043F0706326E01C4B984204D11B4A536846
:1050280043F00F031EE01A4B984204D1174A536805
:1050380043F0F00316E0174B984204D1134A536823
:1050480043F470630EE0144B984204D10F4A53683E
:1050580043F4704306E0114B984204D10B4A53685D
:1050680043F4702353607047080002400000024078
:105078001C00024030000240440002405800024038
:105088006C00024080000240080402400004024014
:105098001C04024030040240440402405804024008
:1050A800084BDA68D10709D4DA68D20608D4DB6875
:1050B80013F0040F14BF0320042070470120704729
:1050C8000220704700200240994A536803F00C03FD
:1050D800042B2DE9F04105D0082B06D09549016035
:1050E800B3B916E0934B036012E053685468C3F3F6
:1050F8008343991CE30349BFD36A8F4B8D4C03F05C
:105108000F0344BF0133B4FBF3F34B43036000E0E8
:1051180000235168894FC1F303117D5C0168EDB22A
:1051280021FA05F444605668C6F30226BE5D24FAE7
:1051380006FEC0F808E05668C6F3C226BE5DF6B2A1
:10514800F440C460D2F82C80C8F3041808F00F0C9F
:1051580007EB4C0C18F0100FBCF810C01FFA8CFCB1
:1051680007D0BCF1000F04D0B3FBFCFCC0F810C0A2
:1051780000E00161D2F82CC0CCF3442C0CF00F08ED
:1051880007EB48071CF0100F3F8ABFB204D01FB1CD
:10519800B3FBF7F7476100E04161176BFF065ABFA1
:1051A800644F87618161176BBF065ABF614FC76142
:1051B800C161176B7F065ABF5E4F07620162176BAA
:1051C800FF0506D5994204D1AE4202D14F0047628D
:1051D80000E04462176BFF0406D5994204D1AE4241
:1051E80002D14F00876200E08462176BBF0506D5C5
:1051F800994204D1AE4202D14F00C76200E0C462B6
:10520800176B7F0506D5994204D1AE4202D14F00F3
:10521800476400E04464176B3F0506D5994204D102
:10522800AE4202D14F00876400E08464176BBF046C
:1052380006D5994204D1AE4202D14B00C36400E0C6
:105248008464156B3A4BAD0701D1046315E01C6B00
:1052580004F00304012C01D101630EE01C6B04F07F
:105268000304022C02D14FF4004305E01B6B03F04A
:105278000303032B01D12F4B0363146B2C4B14F442
:10528800403F02D1C0F834E018E01C6B04F440340D
:10529800B4F5803F01D1416310E01C6B04F4403445
:1052A800B4F5003F02D14FF4004306E01B6B03F452
:1052B8004033B3F5403F01D11E4B4363146B1C4B85
:1052C80014F4402F02D1C0F838E018E01C6B04F445
:1052D8004024B4F5802F01D1816310E01C6B04F4E5
:1052E8004024B4F5002F02D14FF4004306E01B6BB5
:1052F80003F44023B3F5402F01D10E4B8363146BA5
:105308000B4B14F4401F02D1C0F83CE020E01C6BAA
:1053180004F44014B4F5801F01D1C16318E01C6B7C
:1053280004F44014B4F5001F0AD14FF400430EE012
:105338000010024000127A0000093D00160000200B
:105348001B6B03F44013B3F5401F01D1134BC36328
:10535800126B134B12F4400F03D1C0F840E0BDE8C4
:10536800F0811A6B02F44002B2F5800F02D1016499
:10537800BDE8F0811A6B02F44002B2F5000F02D1C9
:105388004FF4004306E01B6B03F44003B3F5400FF2
:1053980001D1024B0364BDE8F08100BF00127A001E
:1053A80000100240F0B500230E681C460125A540F8
:1053B80005EA060EAE452BD10F797A1E012A15D8BB
:1053C800856803229A4025EA020282604D79826844
:1053D8009D4015438560828892B222EA0E0282803F
:1053E8008A798588A2402A4392B28280032205687E
:1053F8009A40D2431540056005689F402F430760D7
:10540800C7681740CA7902FA03F547EA0502C2607D
:105418000134102C03F10203C8D1F0BD38B52DEDCD
:10542800048B4A4C0368C4F8CC318388A4F8D03183
:10543800013A0D46072A42D8DFE802F0040A10189C
:1054480022292F35B4F8CC310B80B4F8CE3113E0D3
:10545800B4F8CE310B80B4F8CC3105E0B4F8CC31D7
:105468005B420B80B4F8CE315B4205E0B4F8CE3134
:105478005B420B80B4F8CC316B80B4F8D0311DE0BE
:10548800B4F8CC315B420B80B4F8CE3112E0B4F8FA
:10549800CE310B80B4F8CC310CE0B4F8CC310B80B1
:1054A800B4F8CE3105E0B4F8CE315B420B80B4F8E5
:1054B800CC315B426B80B4F8D0315B42AB80244B7B
:1054C80093F83030002B3ED1B5F9003094ED780ACE
:1054D800D4ED757A09EE103AB5F9023008EE103AB3
:1054E800B8EEC88AB5F90430B8EEC99A28EE000AB1
:1054F80008EE903AA7EE890AF8EEE88AD4ED7B7AAE
:10550800A7EEA80A09F0DCFE94ED790AD4ED767AC4
:10551800288028EE000AA7EE890AD4ED7C7AA7EE47
:10552800A80A09F0CDFE94ED7A0AD4ED777A68805E
:1055380028EE000AA7EE890AD4ED7D7AA7EEA80A1C
:1055480009F0BEFEA880BDEC048B38BDF00B00202E
:1055580016000020094BD3F8F821137844F6FB71A4
:1055680003EB431300FB03135078C0EB0030B3FB8D
:10557800F0F39078B3FBF0F080B27047F00B0020A6
:1055880010B50A4C94F8FD3104EB43030A22B3F832
:105598000C1204F5067089B2A4F8141204F030FE57
:1055A80080B2FFF7D7FFA4F8A00210BDF00B0020CF
:1055B800F0B50124B0FBF4F58D4201D34C43F9E773
:1055C8000026D4B1B0FBF4F504FB1500B4FBF1F4EC
:1055D8001EB9002D01DC002CF3D1092D03F1010EB9
:1055E800EFB204DD002A14BF3725572500E0302527
:1055F8003D441D7001367346E3E71C70F0BDF0B5FD
:105608000124B0FBF4F58D4201D34C43F9E70026A1
:10561800D4B1B0FBF4F504FB1500B4FBF1F41EB9EA
:10562800002D01DC002CF3D1092D03F1010EEFB29E
:1056380004DD002A14BF3725572500E030253D44F6
:105648001D7001367346E3E71C70F0BD2DE9F84381
:10565800089E002B07468846144614BF4FF03009B1
:105668004FF02009334613F8012B0AB9254603E009
:10567800002CFBDD013CF6E7002D04DD38464946E9
:10568800C047013DF8E724EAE4743546A01B2844E6
:1056980015F8011B11B13846C047F7E7BDE8F88394
:1056A800014B186804F0A9BDD003002090ED017AE1
:1056B80007EE901AB5EE407AF1EE10FA01BFF8EE57
:1056C800E77A9FED0E7A67EE877AB7EE007A04BF25
:1056D800C7EE277AC0ED017A90ED017AD0ED007A15
:1056E80030EE877A30EE670AC0EE870AE0EE807AFD
:1056F800B0EE670AC0ED007A704700BFDB0FC94003
:1057080010B50278202A034600F10100F9D0092AD1
:10571800F7D02D2A03D10346BFEE000A04E02B2A56
:1057280008BF0346B7EE000ADFED387A1A4613467B
:1057380012F8010BA0F13001CCB2092C0AD807EEFF
:10574800101AB8EEC77AF2EE046AA7EEA67AF0EE5F
:10575800477AECE72E2816D1F2EE046A1146B0EE2D
:10576800666A0B4611F8012B303AD0B209280AD8DC
:1057780007EE102AB8EEC77A87EE267A66EE866AB2
:1057880077EE877AEDE71A7802F0DF02452A35D1FD
:105798005A782D2A02D10233012004E02B2A14BFA3
:1057A800013302330020013B002213F8011F303976
:1057B800CCB2092C03D80A2404FB0212F5E7B2F58F
:1057C8009A7F28BF4FF49A721346B7EE007A072BD8
:1057D80005D9DFED0F6A083B27EE267AF7E702F0D6
:1057E80007032BB1F2EE046A27EE267A013BF8E7AD
:1057F800F0EE476A20B1C7EE877A03E0F7EE006A59
:1058080067EEA67A20EE270A10BD00BF0000000050
:1058180020BCBE4C30B52DED028B87B0B0EE408A6F
:105828000C220021054603A809F03BFBB5EEC08A0F
:10583800DFED2A7AF1EE10FACCBF38EE278A38EE7F
:10584800678ADFED277A28EE278A6946FDEEC87A4F
:1058580017EE904A84EAE470A0EBE47006F012F9BF
:10586800002CACBF20232D2368468DF80C3009F09E
:105878005CFB012807D130238DF80D308DF80E30F0
:105888008DF80F300CE0022805D130238DF80D304B
:105898008DF80E3004E0032804BF30238DF80D3056
:1058A800694603A809F024FB03A809F03EFB033866
:1058B800C4B2224603A9284609F064FB00232B55ED
:1058C8002846084909F014FB03AB2846191909F0C2
:1058D8000FFB284607B0BDEC028B30BD6F12033AB0
:1058E80000007A448722010870B506461546084626
:1058F800B6FBF2F414B12046FFF7F6FF05FB14647B
:10590800024B1B5D00F8013B70BD00BF89220108F6
:105918000FB42DE9F04F7C4B89B012ACD3F800805E
:105928007A4B54F8046BD3F800900494002531782E
:10593800002900F08680252902D00136404674E00F
:105948007278302A08BFB278A2F1300319BFB71CA9
:105958004FF0000BF71C4FF0010B092B4FF0000A1A
:1059680019D8A2F13003D9B2092905D80A2202FBB5
:105978000A3A17F8012BF4E7A2F16103052B02D8C4
:10598800A2F1570305E0A2F14103052B03D8A2F1C8
:1059980037030A2BEADD6C2A30D13A78642A07F1FA
:1059A800010600F088800AD8252A3CD002D8002AAF
:1059B80047D0BCE7582A0CD0632A19D0B7E7732A16
:1059C80022D002D86E2A37D0B1E7752A62D0782A59
:1059D800ADD1271D2068A2F1580462424FF0100192
:1059E80062415BE02CD9582A38D0632A34D13E462C
:1059F80040462178271DC84701350FE0642A6AD040
:105A08000ED9732A14D13E4623680093404649466E
:105A180052460023FFF71AFE271D05443C4686E739
:105A2800252ADFD13E4640462521C84701357EE775
:105A38000ED86E2A10D13E46236804341D6076E7DE
:105A480052B9334B186804F0D5FB0028F9D054E05C
:105A5800752A28D0782A01D03E4668E7A2F1580373
:105A680004F1040C5A422068CDF80CC04FF0100124
:105A78005A4105ABFFF79CFDDDF80CC03E46644675
:105A880005AB00934046494652465B46FFF7DEFDAC
:105A980005444CE72068271D0A21002205ABFFF7C3
:105AA800AEFD3C46ECE704F1040CCDF80CC02068D0
:105AB8000A210022DDE72068002804F1040708DA3B
:105AC8002D238DF8143040420DF115030A210022D0
