:020000040800F2
:100000000050002001A30008A1A30008F98D0008FA
:10001000A1A30008A1A30008A1A3000800000000FC
:10002000000000000000000000000000A1A3000884
:10003000A1A3000800000000A1A30008594900087E
:10004000A1A30008A1A30008A1A30008A1A3000880
:10005000A1A30008A1A30008A1A30008A1A3000870
:10006000A1A30008A1A30008A1A30008A1A3000860
:10007000A1A30008A1A30008317C0008A1A30008E7
:10008000A1A30008A1A30008A1A30008A1A3000840
:10009000A1A30008A1A30008A1A30008A1A3000830
:1000A000A1A30008657A0008A1A30008757A0008DA
:1000B000597A0008497A0008397A0008D3200008E4
:1000C000D7200008CD200008D1200008A1A30008F7
:1000D000A1A30008297C0008217C0008A1A3000836
:1000E00069490008A1A30008A1A3000800000000BE
:1000F0000000000000000000000000000000000000
:0C01000000000000000000005FF808F1A3
:10010C002DE9F04F664B674C97B02360002363607A
:10011C0007F090FA18B907F0AFFA04F0FDFF05F0FC
:10012C00C5F8614A614D1378614F43F001031370B8
:10013C00002309930A930B934FF4E0130C932B6851
:10014C00B87B43F480332B60AB6943F01003AB6195
:10015C002B6803F400330A93099B013309930A9B20
:10016C001BB9099BB3F5A06FF2D12B684F4913F45F
:10017C00003301D0022315E00A6842F001020A6044
:10018C0009932B6803F002030A93099B013309932B
:10019C000A9B1BB9099BB3F5A06FF2D12B689B0787
:1001AC0034D501230B93434B43491A683F4E42F01D
:1001BC0010021A601A6822F003021A601A6842F0E0
:1001CC0002021A606B686B606B686B606B6843F45F
:1001DC0080636B60394B1A68043B22F070425A60A2
:1001EC00374A1160696821F47C116960596841F0E3
:1001FC0000415960D96821F40041D9604FF4E011F5
:10020C000C910B990293012901D118E0FEE7022908
:10021C0019D168B10C9BB3F5801F02D14FF4A01318
:10022C0005E00C9BB3F5E01F02D14FF400130C93C7
:10023C000C996B680B4343F480336B6003E0736879
:10024C0043F4601373602B6843F080732B60296850
:10025C00164B8E01FBD5596821F003015960596882
:10026C0041F0020159606B68104903F00C03082B34
:10027C00F9D14B68DFF8509003F00C03042B03D03A
:10028C00082B03D00C4B27E0136825E04B6848681B
:10029C00C3F38343C00303F1020317D4094A1AE0E2
:1002AC00754A0008B0030020FC1600200010024024
:1002BC00F00900200020024000127A0004100140D6
:1002CC002400002000093D00380000204968126815
:1002DC00890348BF52085343C9F800306B68BD4AC4
:1002EC00C3F30313D15CD9F800309046CB40C9F866
:1002FC000030029BDFF820B39B6816AE13F4004F5E
:10030C00B54B14BF022201221A70B44B4FF0000AF5
:10031C00CBF80C30AB69B24843F00103AB616B6AAC
:10032C00A3606B6A43F080736B62AB6943F01C0390
:10033C00AB614FF6FF7326F8183D31468DF842A09D
:10034C0001F0A2F9A748314601F09EF93146A648C2
:10035C0001F09AF9A54A3046536843F00073536094
:10036C0005F096FC109BA24AB646B3FBF2F3A14AE9
:10037C00DFF8A8C21360A04B4FF47A72C3F800A048
:10038C00D9F80030DFF89892B3FBF2F39B4A013BAB
:10039C005360F0238BF823300723C2F808A01360B6
:1003AC00BB68C9F80030BCE80F00AEE80F009CE851
:1003BC000300AB698EE8030043F01003AB61AB693B
:1003CC00029A43F01003AB61AB6943F01003AB61CD
:1003DC004FF480431361029A4FF400531361029A55
:1003EC004FF4004313610AF1040156F80A0031443A
:1003FC000AF1080A01F048F9BAF1180FF3D1D9F84B
:10040C0000301B0712D597F82231012B0ED8A268A9
:10041C007B4B12F0805B93F8233100F0768605E07D
:10042C00774B002283F8232105F0C8F8642004F0F0
:10043C003EFAA022734800210CF07DFAEB690022F1
:10044C0043F00703EB61AB6943F4006343F00C0327
:10045C00AB616D4D002305F10C01535401320E2A92
:10046C00F7D1FF22AA76EA762A776A77DFF8B4B159
:10047C00664ADFF8B4A1C2F800B0654A02211170D7
:10048C0050461946182203930CF055FA0122039B8F
:10049C008AF80C2097F805A0ABF5B3722A623046A7
:1004AC001946142285F81EA00CF045FABAF10E0F6D
:1004BC0004D00AF0EF0ABAF1080F02D101238DF82B
:1004CC004A30012003F024FF18B14088003018BFD7
:1004DC000120D9F8003000F00100C3F340028DF880
:1004EC004620C3F380128DF84820C3F340328DF8B8
:1004FC004020C3F3C0328DF8432013F400628DF812
:10050C00450004D097F81621561E72427241B7F876
:10051C00D8508DF84420ADF84E50C3F30042DD04A2
:10052C00C3F3804003F001018DF84920C3F3C002EE
:10053C0048BF334B8DF8470048BFB3F8E030B7F8ED
:10054C00E40048BFADF84E30B0F5FA7F84BF00230D
:10055C00ADF84E3097F86631ADF84C002D4884F864
:10056C002430002384F8253043709DF84A308DF8F0
:10057C004110002B8DF842200CBF0023022301B93F
:10058C0002B1013308EB8308D8F828304FF000088B
:10059C00A3F1020A1A3303934FF6FF723AF8023FA3
:1005AC00934200F00A81D9B2DFF880909DF84500A3
:1005BC000F011B0A09EB07054A4618B1023901293C
:1005CC0040F2F780022B33D19DF84020002A71D1E4
:1005DC00EFE000BFD4D400080C1700200005FA058A
:1005EC0000080140000C01400010014000000140D7
:1005FC0040420F00F8070020FC07002010E000E04C
:10060C00F009002008110020B0030020A4070020EE
:10061C0054070020D503002000ED00E0E4D40008CE
:10062C00D80F00206A0B0020580700208CE500082A
:10063C00012B3FD19DF84130002B00F0BA80FF23F5
:10064C0084F86C3084F86D30D3195A7B586803F1F8
:10065C00080B1B890026ADF834300DA9022384F851
:10066C007060E5678DF837308DF8362084F8286097
:10067C00E66226636663A66684F86E6084F86F6033
:10068C0001F002F89BF80210324659F8070006F008
:10069C00F7FD284605F0B4F9B74BB849C4F88030DB
:1006AC00B74BC4F88860C4F8843028460A1D07F09C
:1006BC0055FA7EE0022BDAB246D15FFA88F24FF09F
:1006CC001C0909FB02F9DFF828C304EB0906012118
:1006DC0086F870100CEB070191F80DE001F108029F
:1006EC00486809894FF0000B86F87180ADF834101A
:1006FC0086F872B00DA986F87AB0F5678DF836E0F9
:10070C008DF83730CDF814C0049200F0BDFFDDF841
:10071C0014C0049A5CF8070091785A4606F0B0FDB4
:10072C00284605F06DF9974A9449C6F88020964AF8
:10073C004944C6F88420C6F888B028460A1D07F03C
:10074C000DFA08F1010834E0032A32D19DF8473044
:10075C008E4E3BB194F82670284608214FF6FF7256
:10076C0000231BE0BDF84C208949B2F5FA7FBDF897
:10077C004E3091F826700BD986492846B1FBF2F21F
:10078C00082192B200F0B2FF834B46F827000AE032
:10079C0082492846B1FBF2F2012192B200F0A6FF89
:1007AC007F4B46F82700C36094F82630013384F859
:1007BC002630039B9A457FF4EFAE7A4B04221A70D5
:1007CC000026794D794B354433441036402E0FCBEF
:1007DC0085E80F00F5D106F0E3FA754B754E1A68F3
:1007EC00039312F4802F02BF734B01221A703378DB
:1007FC00724D43F004030020337001F00BF9B5F88F
:10080C00EC000496002840F0C684B5F9EE30002BBD
:10081C0040F0C184B5F9F030002B40F0BC8495F861
:10082C00FB3000210593664B0C221B686548B3F81E
:10083C005630B5F8F470069395F8F380B5F80C9033
:10084C0095F80FA00CF077F85F4B00211846142296
:10085C0007930CF070F85D490022C4F850210A701F
:10086C0001F034FC079B8346494E1C46002800F0DF
:10087C00B284574BB7F5807F2360564B6360564B61
:10088C00E360564B2361564B01D1002216E0BB2F7F
:10089C0001D9012212E0612F01D902220EE0292F89
:1008AC0001D903220AE0132F01D9042206E0092FF3
:1008BC0001D9052202E0002FE7D006221A70494B1D
:1008CC0001221A70484A136843F00103136043462F
:1008DC0046490022092B0A7001D90023F8E740F29F
:1008EC00B2324FF0010808FA03F10A40002A40F036
:1008FC00968011F04D0F00F092800793C6F85021AE
:10090C0001F0E4FB079B002800F0898006210A46D1
:10091C000DAB682001F046FA9DF8391001EA080287
:10092C009DF8371001EA080101FA08F343EA820145
:10093C009DF8352002EA08030B430AD05BB243450D
:10094C0001D1002302E0022B0FD1012386F8543190
:10095C0050E00DF1230368200C21424601F022FAED
:10096C009DF8233013F00F0303D1032003F0A9FFEC
:10097C0040E0042BE9D1E4E7B91200083004002070
:10098C00991300083916000891120008D81000209D
:10099C00B003002000127A00B913000840420F0087
:1009AC00A9130008B3100020E40200200CD50008A5
:1009BC00D80F0020FC160020A8030020F00900200E
:1009CC00500700203001002098160020D80000208D
:1009DC00451D0008492000082116000890C1793DEA
:1009EC000C0000202C000020E80600200A17002034
:1009FC008CE500085D4B5E4A1A605E4A5A6096F8B8
:100A0C005421002A0CBF6F226E221A725A4B0322F9
:100A1C005A705A4A136843F00203136002E0012B28
:100A2C003FF65BAF554B1A68984612F0020F02D096
:100A3C004E4B1B689847FFB25149BAF1000F2AD0B0
:100A4C00D8F800304FB940F2596213F0020F40F25F
:100A5C00712318BF13467D2208E09A0759BF4FF443
:100A6C007A731A464FF4FA634FF47A72994505DBA0
:100A7C00B9F57A6FA8BF4FF47A6900E09946531E16
:100A8C004B44B3FBF2F3013BDBB203FB022286F8CF
:100A9C0055310A6003E086F855A1C1F80090394B36
:100AAC001B689847059F384A00231370924617B16C
:100ABC00022F40F06B834FF0000916AB03F8249D16
:100ACC001E200A210122C6F8589101F06BF9C0B121
:100ADC009DF83430482B40F082832C4B2C4AD9465D
:100AEC001A602C4A5A60BBF1000F00F07883224B3D
:100AFC000222DA70D8F8003043F00803C8F800304E
:100B0C0001E081466BE395F8E8300BB1224A137093
:100B1C0095F8E9300BB1214A137095F8EA300BB116
:100B2C008AF80030D8F80030DFF87C8013F0080F1A
:100B3C003CD0BDF918B04FF064099BFBF9F738466F
:100B4C0008F028FA824609FB17B000B208F022FA26
:100B5C00134908F073FA0146504608F067F9114939
:100B6C0008F06CFAC8F8000023E000BF3001002048
:100B7C00F51900088B2000082C000020E806002046
:100B8C00C8010020981600200B170020B800002088
:100B9C00A91E00082D1E0008D80000200A170020EE
:100BAC008988883C00002041B81100200023C8F837
:100BBC000030049B049A1B780A2743F0020313703D
:100BCC00029A4FF400535361029A4FF4804313611D
:100BDC00029B029ADB68192083F40053D360029BBA
:100BEC00029ADB68013F83F48043D36003F05FFE1D
:100BFC00192003F05CFE17F0FF07DFF83883E7D10C
:100C0C004FF480434FF40059AC4FC8F81030C8F87B
:100C1C0010903B681B0709D5A94BC8F814901B68AA
:100C2C009847A84B0122C8F810901A70A64BDFF811
:100C3C0008831B68187B08F0ADF9A44908F0FEF98D
:100C4C00A34908F0F3F804F0CEF88146B8F8000098
:100C5C0008F0A0F9494608F0F1F90BF0CBFF9D4BD9
:100C6C001880B8F8000008F095F901469A4808F089
:100C7C0099FA9A4908F096FA9449C6F85C012069E9
:100C8C0008F0DCF9964908F0D9F9964C964BFF21FF
:100C9C0018601B2220460BF04EFE204600222270CC
:100CAC003A68924B012112F0020F18BF6170197053
:100CBC001FBF032119700221A170540741BF19787D
:100CCC004C1C1C70032448BF445412F00A0F0CD067
:100CDC001A7804218154511CC9B205244454D11CE6
:100CEC0002321970D2B206218154039A126891060D
:100CFC0041BF19784C1C1C70072448BF44546979B7
:100D0C00082901D00E2904D119784C1C1C700B2415
:100D1C00445419780C274754570748BF734F01F1B7
:100D2C000104E4B248BF02311C7041BF39706D49F7
:100D3C0010270F55197812274C1CE4B2475457054D
:100D4C001C7008D595F88C712FB1684F0231397031
:100D5C00644913270F55970541BF19784C1C1C701B
:100D6C00152448BF4454D40548BF1A784FF00004EA
:100D7C0041BF511C19701A238354002198225C48DE
:100D8C000BF0D9FD012003F06FFCB8B3012C35D862
:100D9C004FF04C0B0BFB04F9DFF854A10AEB090CD8
:100DAC000CF1480898F8027017B10134E4B2ECE782
:100DBC0090F9003090F804E018464E4B03228DE871
:100DCC00840001213A4653F82E30CDF814C003F0BC
:100DDC0071FA029070B1DDF814C0394660465A467B
:100DEC000BF0A9FD029B4AF8093001231C4488F83A
:100DFC000230E4B2012003F01DFCC6E73E4A3F4B33
:100E0C00B5F8E2101A603E4BB5F8280119803D493F
:100E1C0000230B808B703C490A6081B23B4A22F85C
:100E2C0013100133122BF9D1039B1B68D9045CBF3F
:100E3C00B5F82E1111801B0740F1008195F8223175
:100E4C00062B00F2F580DFE803F004070E7994B26C
:100E5C00B20045F2F05201E042F6F8222C4B1A8017
:100E6C0004F059FEE3E042F6F822294B1A8008F010
:100E7C0091F8284908F0E2F8274907F0D5FF08F067
:100E8C00C9FA0023254A42F823000133122BF9D169
:100E9C00234A244940201160234A137003F0E4FBD9
:100EAC00002800F0C58001234FF0070C90F90000DA
:100EBC0040218DE808101D4A1D4BB3E0E8060020C8
:100ECC00B8000020D00000207401002035FA8E3CC0
:100EDC00DB0FC93F900100200AE81C4100401C4672
:100EEC00BD378635F506002070010020F406002081
:100EFC003C020020CCD700080A0B002088060020FA
:100F0C008C060020E80F0020D40F00201C090020C4
:100F1C00E4010020CDCCCC3F0000B044D40800202C
:100F2C0020000020055700080C0F002081590008F4
:100F3C00A0860100001001401E00002042F6F8229D
:100F4C00AA4B40201A80AA4AAA4B1A60AA4B10221C
:100F5C001A7003F089FB00286AD001234FF0000EB1
:100F6C0090F9000040218DE80840A44A4FF4E13389
:100F7C0058E042F6F8229D4B40201A80A04A9D4B27
:100F8C001A609D4B08221A7003F06EFB00284FD09C
:100F9C000123002790F9000040218DE88800994A30
:100FAC004FF4E13303F086F9C6F860013CE042F6F9
:100FBC00F8218E4A062B11808F494FF00C02DFF876
:100FCC00B8C2DFF8B8E2904F904E914C91480A703D
:100FDC000DD000238CF800308EF800303B701B23B2
:100FEC0033700523227003704FF4E1340AE00021C2
:100FFC008CF800108EF80010397022702121864C6C
:10100C0031700370854A7B4B40201A6003F02CFB37
:10101C0070B10123002690F900008DE848002346AA
:10102C007F4A402103F046F9003018BF012028B94F
:10103C00082004F03FF87B4A6E4B1A60039B1A6839
:10104C006D4B12F4804F1FBF082119707648694907
:10105C0018BF086042F20101114099B144F62060BA
:10106C0062490880910441BF082119706F48614999
:10107C0048BF0860D20741BF0C221A706C495D4A08
:10108C0048BF11601A78043A5A7003F0E9FB694BB7
:10109C0018606B79052B02BF674B4FF4C8721A802E
:1010AC00664B4FF47A721A80654A137843F0080342
:1010BC001370644A137823F002031370039B1A68AD
:1010CC0040F6020313406BB15F4A604B1A60604BF1
:1010DC0003221A705F4B01221A705F4A002313809F
:1010EC005E4A13805E4B4FF400425A61AB68039A20
:1010FC0013605C4B01221A70049B049A1B7863F0FA
:10110C007F03137017B0BDE8F08F013B092B3FF63E
:10111C008DA9029A4FF400535361534ADFF860A132
:10112C001068314630605046039300F0ADFA082247
:10113C00CAF810203C2003F0BAFB029B1A46039B12
:10114C00136197F823319B45BFF66AA9029B4FF4B4
:10115C0080411961029B4FF4004205911A610823EA
:10116C0004927820CAF81430039303F095FB029B89
:10117C000599049A5961029B78205A61039B0BF1E3
:10118C00010BCAF8103003F087FBDAE7012F7FF66A
:10119C00BAAC1F4687E4354B00221A7000B207F038
:1011AC00F9FE334907F04AFF0D90B5F9EE0007F050
:1011BC00F1FE2F4907F042FF0E90B5F9F00007F051
:1011CC00E9FE2B4907F03AFF2A490F900DA803F0CE
:1011DC007DFEFFF724BB012003F073FBE9E4012F34
:1011EC007FF691AC00278AF8009064E4E4010020BB
:1011FC00F1560008200000200C0F0020D5580008E4
:10120C00D9560008895800087C0900207E09002066
:10121C00610800207F09002090D0030005560008CB
:10122C00B557000865570008355700085557000892
:10123C0045570008C00100209A060020081700201E
:10124C008E0600200D170020FC0A00203C0F002009
:10125C00F8160020340000201C0200201E02002082
:10126C0000100140A80300204CD5000828000020E5
:10127C0035FA8E3C180F0020620800207D090020F2
:10128C000008014010F80A3C0133DBB20A2B84BF82
:10129C0010F8131C044A00F80A3C82BF002322F801
:1012AC00113000F80A3C704740090020334A70B5F1
:1012BC00136C9068194440F68C23081A984291607C
:1012CC00D060516013463BD9127893F94510104603
:1012DC008A420BD1111F082908D893F846101829F7
:1012EC0001D8013103E083F8442002E0002183F8A7
:1012FC00461093F944402149A24219D191F8474034
:10130C00B4B10C310024944206DA51F8046F1C4D30
:10131C0025F814600134F6E70C2805D01849002490
:10132C0021F810400130F7E71648017801310170BF
:10133C0083F84520002201211A7083F8471070BDF4
:10134C0092F84710C9B140F2DA51A0F2EF248C4266
:10135C0008D811780B2905D80B1D0131117042F8F2
:10136C00230070BD002283F84720074B03F13002A5
:10137C00002143F8041F9342FAD170BDD80300201A
:10138C0040090020AD000020E4030020024A136C49
:10139C000133194411647047D8030020024B53F8F1
:1013AC0020301B6819807047D8100020074BA1F51E
:1013BC007A7153F820301A681B8959434FF47A73A9
:1013CC0091FBF3F189B21180704700BFD810002057
:1013DC008F4A70B51368988A80B2C1B2CE072ED5E9
:1013EC00198821F400610904090C1980198889B243
:1013FC0041F48061198000211171517999B1917971
:10140C0011B9D179FF290ED101219171117A0229DB
:10141C0001BF198889B241F400611980517A41F0F9
:10142C0001011982DFE0517A01F0FE011982D379B2
:10143C00FF2B00F0D880764BFF211971D3E08D077C
:10144C003AD5BFF35F8F107AC0B2012813D151790E
:10145C0089B1917979B1198821F480610904090C59
:10146C001980BFF35F8F198B1988907289B241F480
:10147C00007119801BE0198BBFF35F8F107A6449E0
:10148C0002280AD1487940B1897931B1198821F4FF
:10149C0080610904090C19809FE0107A5C490328CB
:1014AC0005D1487918B18979002940F0968099883E
:1014BC0089B241F4806195E04C0754D501219172B9
:1014CC005179002936D09179002933D0117A1888B6
:1014DC00022911791CD920F480600004000C1880BA
:1014EC001C8AD568C8B2E4B249B26C54198889B266
:1014FC0041F400711980811C1171198A0130C9B233
:10150C0040B22954998889B241F48061998026E0CF
:10151C0080B240F4007018801C8AD568C8B2E4B25E
:10152C0049B26C541C8A411C49B2E4B203306C546D
:10153C00107114E09179364809B9017C41B11988D0
:10154C0089B241F40071198011790131117106E0F1
:10155C00198889B241F4807119800121817119882F
:10156C00C905FCD43FE001F0400101F0FF04E1B1FA
:10157C0010791E8AD568C4B2611C40B2F6B22E54E2
:10158C00C9B2157A117149B2C81C854201BF98883D
:10159C0020F480600004000C08BF9880137A8B4202
:1015AC0021D11B4B02341C711DE006061BD5117991
:1015BC0048B2451C0AD054690131205CC9B218826A
:1015CC00107A117149B288420DD106E0D1791471AB
:1015DC001982517909B9117A29B9998821F4806154
:1015EC000904090C9980117A92F90400013188429E
:1015FC00074B0CD100219971997A31B119688B88FC
:10160C0023F440731B041B0C8B800023137670BDDA
:10161C0014050020044A537E23B1012303700023D8
:10162C0053767047037070471405002038B510F8D6
:10163C000E2C044650F8043C5AB9012200F80E2C2A
:10164C0020F80C1C997A18680222BDE8384005F085
:10165C0017BE30F80C2C20F80A1C891A89B220F815
:10166C00081C084A10F80F0C002522F8101004F87A
:10167C000E5C1868997A2A4605F002FE04F8065C9E
:10168C0038BD00BF40090020F0B5B1F800E00023E0
:10169C004EFA03F2D50725D58E784FEAD30CF40613
:1016AC0048BFCC7806F00F0203F0070748BF22436F
:1016BC00BF0050F82C500F24BC4025EA0404BA405B
:1016CC002243282E40F82C2005D1C46801229A40D0
:1016DC0024EA020205E0482E04D1C46801229A4093
:1016EC002243C2600133102BD2D1F0BD2DE9F74358
:1016FC008E460546DFF89892114699F81A40006814
:10170C00164698467246631C89F81A3006F0B4F9EE
:10171C002B8901A9ADF8043018238DF806306868C0
:10172C0002238DF80730FFF7AFFFAB7A09F11C07E6
:10173C00240127442A6849460C2B00F2F680DFE886
:10174C0013F00D00F400F400F4005100F400F40068
:10175C00F4008A00F400F400F400C200138CDFF8EB
:10176C0034C223F001031B041B0C1384138CB2F83A
:10177C0004E0108B624520F073004FEA00404FEA02
:10178C0010409BB21FFA8EFE40F0700014D00CF586
:10179C00006C624510D00CF5406C62450CD00CF519
:1017AC00806C624508D00CF5806C624504D023F047
:1017BC00020343F0030307E023F00E032EF4407EF4
:1017CC0043F003034EF4807EA2F804E01083A2F8E9
:1017DC0034801384138B23F008031B041B0C43F07D
:1017EC00080336E0138CDFF8ACC123F010031B04A4
:1017FC001B0C1384138CB2F804E0108B624520F49C
:10180C00E6404FEA00404FEA10409BB21FFA8EFEB2
:10181C0040F4E04008D00CF5006C624504D023F095
:10182C00200343F0300307E023F0E0032EF4406E76
:10183C0043F030034EF4806EA2F804E01083A2F85B
:10184C0038801384138B23F400631B041B0C43F4A8
:10185C000063138369E0138CDFF838C123F48073C1
:10186C001B041B0C1384138CB2F804E0908B6245A0
:10187C0020F073004FEA00404FEA10409BB21FFA71
:10188C008EFE40F0700008D00CF5006C624504D060
:10189C0023F4007343F4407307E023F460632EF4E5
:1018AC00405E43F440734EF4805EA2F804E09083F3
:1018BC00A2F83C801384938B23F008031B041B0CAD
:1018CC0043F0080330E0138CDFF8C8C023F48053D6
:1018DC001B041B0C1384108CB2F804E0938B20F4C3
:1018EC00005023F4E6431B0400041B0C000C62455F
:1018FC001FFA8EFE43F4E04340F4405003D00CF545
:10190C00006C624503D12EF4804E4EF4804EA2F84A
:10191C0004E09383A2F840801084938B23F400633B
:10192C001B041B0C43F4006393832B7B43B1B2F871
:10193C0044306FEA43436FEA53439BB2A2F84430FE
:10194C0013889BB243F001031380AB7A0C2B18D88D
:10195C00DFE803F0071717170B1717170F171717D1
:10196C0013000B1902F134000AE00B1902F13800D4
:10197C0006E00B1902F13C0002E00B1902F14000E9
:10198C00D86138460C44A684226203B0BDE8F083CB
:10199C0014050020002C0140104B13B593F8DC20EB
:1019AC001C46CAB90E4B1B68B3B11A681AB10D4963
:1019BC00886902438A619A889868ADF804200222EB
:1019CC008DF8072004220DEB02018DF80620FFF79D
:1019DC005BFE012384F8DC3002B010BD140500203E
:1019EC00000500200010024008B5FFF7D5FF074B9B
:1019FC001B7813B1012B03D008BD4FF4006201E03A
:101A0C004FF48052024B1A8008BD00BF0405002021
:101A1C001E000020012828BF01202DE9F04F0646AA
:101A2C00142000FB06F3704F89B0F918FC586F4B6B
:101A3C000A691C6083F8DD606D4BB1F80880DD69C4
:101A4C00B1F80AA02A43DA61A2884D6822F44072E8
:101A5C001204120C4AEA0809A28003A9C5F81090D6
:101A6C0002228DF80E0028460193ADF80C908DF8EB
:101A7C000F20FFF709FE019B00971F464FF0080B44
:101A8C00AA6818EA020F03D10A2002F005FFF7E753
:101A9C000A20C5F8148002F0FFFEC5F810800A2059
:101AAC0002F0FAFEBBF1010BEAD1C5F814A00A2032
:101ABC0002F0F2FEC5F814800A2002F0EDFEC5F823
:101ACC0010800A2002F0E8FE0222C5F810A0284679
:101ADC0003A98DF80F201C228DF80E20ADF80C9068
:101AEC00FFF7D2FD434A03A894423A690BBF42F474
:101AFC00001242F480023A613A610BBF3A693A69CA
:101B0C0022F4001222F480023A61A38823F4407379
:101B1C001B041B0CA38023889BB243F0010323807E
:101B2C00A58804F0B5F80599334B25F03F05B1FBBA
:101B3C00F3F32D042D0C1D43ADB2A5802288002596
:101B4C0022F001021204120C22802C4A03A8B1FBD1
:101B5C00F2F100298AB208BF012242F400414FF48D
:101B6C00967253434FF47A7293FBF2F301339BB2A8
:101B7C002384A1832388009A9BB243F00103238022
:101B8C00238823F4816323F002031B041B0C2380A2
:101B9C004FF480432381142303FB0626737B01241B
:101BAC008DF80C308DF80D508DF80E508DF80F40CF
:101BBC0003F008FF337B9DF80F208DF80C308DF867
:101BCC000D508DF80E501AB103A803F0FBFE08E07F
:101BDC005A0903F01F039C4002F12003084A42F803
:101BEC00234009B0BDE8F08F78D50008140500201B
:101BFC00001002400054004040420F00804F120081
:101C0C0000E100E010B5214C2368998A89B211F4E7
:101C1C00706F1CBF012284F8DE2011F4E06F2BD012
:101C2C001A8B9A88890522F480624FEA02424FEAA5
:101C3C0012429A8020D41A8892051DD41A88D00595
:101C4C000FD51A88D105FCD41A8892B242F40072CE
:101C5C001A801A889205FCD494F8DD00FFF7DAFE9E
:101C6C000AE01A8892B242F400721A809A8822F41E
:101C7C0040721204120C9A802268938A23F47063C7
:101C8C001B041B0C93820023237610BD140500202B
:101C9C00064A08B5138801339BB21380044B93F8A2
:101CAC00DD00FFF7B7FE002008BD00BFE6060020F0
:101CBC001405002013B51F4B4000C0B2587202AC83
:101CCC001868D97104F8012D002101221A745C6185
:101CDC005971DC601A721A7683F8DE1040B3828870
:101CEC00920515D40288D4050DD447F230520188E0
:101CFC00890502D5013AFAD112E08AB1028892B272
:101D0C0042F480720280828892B242F440728280E5
:101D1C0047F23052197E11B1013AFBD100E012B9F1
:101D2C00FFF7B6FF04E0034B93F8DE0080F00100F0
:101D3C0002B010BD1405002008B5FFF72DFE6B2175
:101D4C0080226820FFF7B6FF642002F0B0FD6B2103
:101D5C0003226820FFF7AEFF0F2002F0A8FD0F4B07
:101D6C0019211A786820FFF7A5FF0F2002F09FFDBC
:101D7C000B4B1A211A786820FFF79CFF1B211822A5
:101D8C006820FFF797FF1C2110226820FFF792FFB5
:101D9C00BDE808406820372100228BE705050020AC
:101DAC000C00002010B540001C4CC0B26072E171F8
:101DBC000120002121746071227220762068E3607A
:101DCC00636184F8DE1040B383889B0515D40388C7
:101DDC00D9050DD447F230530288920502D5013B48
:101DEC00FAD112E08BB103889BB243F48073038069
:101DFC0083889BB243F44073838047F23053227E36
:101E0C0012B1013BFBD100E013B9BDE810403FE734
:101E1C00024B93F8DE0080F0010010BD1405002089
:101E2C0037B5044603211E2006226B46FFF7BAFF86
:101E3C0078BB9DF801309DF80000174D43EA002057
:101E4C0000B207F0A7F8296807F0F8F807F0BCFA19
:101E5C009DF8033020809DF8020043EA002000B278
:101E6C0007F098F8A96807F0E9F807F0ADFA9DF8C3
:101E7C000530A0809DF8040043EA002000B207F072
:101E8C0089F8696807F0DAF807F09EFA608001209B
:101E9C0000E0002003B030BD100000202DE9FF4110
:101EAC00604B1B689BB11A681AB15F498869024381
:101EBC008A619A889868ADF8042002228DF8072070
:101ECC0004220DEB02018DF80620FFF7DDFB32201A
:101EDC0002F0EDFC002111221E20FFF7EBFE012188
:101EEC0060221E20FFF7E6FE642002F0E0FC0024D6
:101EFC0002A8FFF795FF274626460A250221012254
:101F0C001E20FFF7D7FE322002F0D1FC02A8FFF70B
:101F1C0087FFBDF90820BDF90A1014448A42A8BFF6
:101F2C000A46BDF90C300F4493421E44A8BF134619
:101F3C0013F5805F09DD3D4A013DD36883F40053FE
:101F4C00D360DBD14FF0010801E04FF000081E20F8
:101F5C0000211222FFF7AEFE0A25022101221E20CB
:101F6C00FFF7A8FE322002F0A2FC02A8FFF758FFF0
:101F7C00BDF90820BDF90A10A41A8A42A8BF0A4666
:101F8C00BDF90C307F1A9342A6EB0306A8BF13468B
:101F9C0013F5805F07DD254A013DD36883F40053B8
:101FAC00D360DAD101E04FF00008204606F0F2FFD2
:101FBC0001461F4807F0F6F81E4D20F0004028603F
:101FCC00384606F0E7FF0146194807F0EBF820F019
:101FDC0000406860304606F0DDFF0146164807F009
:101FEC00E1F820F00040A860002170221E20FFF7CD
:101FFC0061FE012120221E20FFF75CFE1E20022123
:10200C000022FFF757FE642002F051FCB8F1000FDC
:10201C0004D14FF07E532B606B60AB6004B0BDE815
:10202C00F08100BF080500200010024000100140A4
:10203C0000406F461000002001C05E4613B506221A
:10204C000446432168206B46FFF7ACFEA8B19DF80F
:10205C0000209DF80130012043EA022323809DF8E3
:10206C0002209DF8033043EA022363809DF804208C
:10207C009DF8053043EA0223A38002B010BD13B5CE
:10208C00062204463B2168206B46FFF78BFEA8B165
:10209C009DF800209DF80130012043EA02232380A3
:1020AC009DF802209DF8033043EA022363809DF8DB
:1020BC0004209DF8053043EA0223A38002B010BD32
:1020CC00FFF786B99EE5FFF783B99BE507B523209B
:1020DC0002F0EDFB6820752101220DF10703FFF7DB
:1020EC0061FE28B19DF80700A0F1680358425841E1
:1020FC0003B05DF804FB00BF7C492DE9F04F0C6880
:10210C007B4A04F59C43203313607A4B89B01868E2
:10211C00059110F4804F9046019307D104F05EF8BE
:10212C0020B998F80430013388F80430724B1E78CB
:10213C00BEB1724A1268944240F2F680013E1E70A3
:10214C00F2E03B68072C98BF195D6D4B88BF2146A8
:10215C001B686C489847032C0AD908EB4404E080B0
:10216C000136684BF4B21D78674FA542E9D81FE0E1
:10217C003A6804F10E0302EB83039988DA8800288D
:10218C00EBD04FF47A73401A5843531A90FBF3F088
:10219C0040F6C90300F57A70984205DC40F2EE2354
:1021AC009842B8BF184601E040F6CA0080B2D4E7A6
:1021BC0098F804600324B6FBF4F40F2388F82A3053
:1021CC0098F82C3004EB440403933B68341B0293C3
:1021DC0098F82BA0E3B2DFF84CB104930024AC4286
:1021EC0051DA4A4B670033F81490BAF1000F09D159
:1021FC0003F0F4FF28B1039B002B08BF4FF000093C
:10220C0000E0D146029B988A484502D8D88A4845B6
:10221C000ED2E0B203F090FF032C8146DFBF98F89A
:10222C002AE00120A0402EEA0000D8BF88F82A003E
:10223C0003F0D4FF18B1364827F800901FE0049B38
:10224C0098F876002BF8139028B9022E14D9284B45
:10225C00012083F87600BBF80000BBF80230034481
:10226C00BBF8040003442B489BB23B521BB2032027
:10227C0093FBF0F39BB200E04B4625483B520134F4
:10228C000BF1060BABE798F82A202348A2F10F07B5
:10229C007A427A4188F89020204B6AB1204A126821
:1022AC00560109D40268D9689A60521AC82A3BD9D7
:1022BC00012283F8212037E002689868DA605B68B5
:1022CC00121A9A4288BF154B4FF0000188F82B1058
:1022DC0088BF83F821100024AC4225DAE0B203F069
:1022EC002BFF0B4B23F814000134F5E704170020E7
:1022FC00F4050020D80F0020E00F0020DC0F002098
:10230C00200000200C0F0020D40F0020FA05002024
:10231C001C0900206C060020E40F0020E80F0020B0
:10232C00F006002022060020019B1B68DC0405D56A
:10233C00884B1B68D80701D406F04AFD864B1A68F7
:10234C00937AFBB18549013B31F81300137B1BB128
:10235C00C0F53B60083080B200B2A0F57A70B0F5E1
:10236C007A7FA8BF4FF47A7020EAE07006F012FE74
:10237C007B4906F017FF7B4906F060FE07F04AF830
:10238C00794B1880019B794C1B6813F4807F00F00B
:10239C000281059BDFF8DCA11A68754B9A4205D9BE
:1023AC009AF8023013B901238AF802309AF80230F5
:1023BC00002B00F0F0806F4B267893F82150654B82
:1023CC00691E4D424D411F68002DC6F38006C7F3B0
:1023DC008067029314BF4FF000094FF003099AF87D
:1023EC002030052B00F2D180DFE803F0034B507353
:1023FC00829F002E39D0D8F89400B8F8981002F0CB
:10240C00C1F9012809D15C4A5C4B12681B68D2885F
:10241C00642101FB0233CAF810306FB1564B1B68B4
:10242C001B794BB106F0BAF803238AF820304FF42D
:10243C007A73CAF81C30D2E7002D40F0A6804F4BBF
:10244C00DFF830B11A68DAF810309A4209D906F080
:10245C00A5F803238BF8203040F6B833CBF81C30AA
:10246C00BDE701238BF82030B9E74FF4806017B13A
:10247C0002F010FE01E002F0FCFD0023CAF810305F
:10248C0083E0002D46D106F089F8A8E725B1052395
:10249C008AF82030012100E0294666B1D8F8943042
:1024AC004FF00209DA892D4B1A805A809A80324AF1
:1024BC0012685288DA80314B1A68DAF814309A4272
:1024CC0001D8002E5ED147F23053CAF81C300323DA
:1024DC0021E0237843F00203237006F079FC274BAC
:1024EC00DAF81C201B681344CAF81830042312E0D5
:1024FC00224B9DB11A68DAF818309A4245D9204B14
:10250C001B781BB9029B1B68DA073ED4237823F097
:10251C000203237005238AF8203060E71B68DAF881
:10252C001C201344CAF818302FE0134A134B1268BE
:10253C001B68D288642101FB02334FF48060CAF817
:10254C00103000238AF820308AF8033002F091FD15
:10255C0045E700BFF0060020D40F00201C09002026
:10256C0000007A4400C07F44440700200D1700206F
:10257C00404B4C00E80F0020D0160020E40F002048
:10258C001C00002000297FF42AAFB9F1000F02D003
:10259C00484602F023F99E4D05F58D70B5F8E21012
:1025AC0002F0F0F8AA46814668B905F0E9FF994BAC
:1025BC000022C3F80090C3F80490C3F80890964B1F
:1025CC001A605A609A6023785B073AD5019B1B68A6
:1025DC00DF0636D598F89A30904DDE0631D4904B04
:1025EC001B7843B39AF87231B9F1000F11D15BB17A
:1025FC008C4B1A68D5F89C309B1A002B04DA06F029
:10260C00E7FB85F8A0901CE0102002F0E7F801230E
:10261C000EE03BB1834A4FF47A71126801FB03233D
:10262C00C5F89C3098F8A0305BB102F0C5F80023D7
:10263C0088F8A03005E0B9F1000FE5D095F8A0308E
:10264C00F2E7002216469AF870719AF87111BAF8EE
:10265C002A51BAF82CE1744BB60833F912000293E4
:10266C00A842C4BF66F07F03DEB201327045B8BF2A
:10267C0046F04006042AEED198F8A1206748B242F1
:10268C0005D190F8A220F92A04D8013200E00022EA
:10269C0080F8A220624A88F8A16092F800B0634DDD
:1026AC000392BBF1000F1CD12A68D00708D5B9F1F1
:1026BC00000F16D12278D10713D506F053FB10E08A
:1026CC00227852070DD5554A92F82B204AB1584A18
:1026DC00D27832B911B106F07BFB02E0B9F1000FF0
:1026EC00F9D098F8A220DFF85891142A63D100375A
:1026FC0018BF0127BBF1000F13D05F2E02D087B19A
:10270C007D2E0ED1227802F0040202F0FF0B12B1E2
:10271C0006F05EFB05E00B2002F060F83F4B83F8FF
:10272C00A2B0227802F0040202F0FF01002A42D18A
:10273C00572E0BD13F4B4FF47A721A803E4B1B68CD
:10274C0013F0080337D13D4A138034E0019B1A681B
:10275C00530718D55A2E16D198F8A3302F4A2BB1FF
:10276C00012382F8A31082F8A43024E092F8A5305B
:10277C0083F0010382F8A5300BB10C2000E00D2092
:10278C0002F02CF817E05D2E00F0F6835B2E00F0C3
:10279C00F5835E2E01D10320F1E3562E01D102F018
:1027AC000DFF039B1A78002A00F0F9836F2E40F07E
:1027BC00F28306F0D7FA019B1B68580751D598F89D
:1027CC00A530164A93B1237859070FD5029BB3F95C
:1027DC000610BAF82A31994208DD2B6813F0010370
:1027EC0002BF3221A2F8A81082F8A5302B68DA03B8
:1027FC0028D598F8AA20094B2AB993F8A32012B926
:10280C003222A3F8A820012388F8AA3029E000BFBF
:10281C00F009002040100020BC100020F40500201E
:10282C001C000020E40F00201C090020F0060020F2
:10283C00E80F002008170020E80600203E070020C3
:10284C005007002098F8A330A54A53B1237803F021
:10285C00040303F0FF0123B9012382F8A31082F8CB
:10286C00A430D9F8006000232B6006F17B0406F13C
:10287C00CB072278637814F8010C9A420BD22146CC
:10288C0001F05CFF38B114F8022C012303FA02F2B8
:10289C002B6813432B600434BC42EAD1914B1B7858
:1028AC0043B1914C914E2368914D13F0020F40F0BF
:1028BC00F682EDE206F1CA0406F589762278637891
:1028CC0014F8010C9A4223D2214601F037FFF8B1DB
:1028DC00A378884A013B03EB4303257913440C226C
:1028EC0002FB0582D2F8B01094F803E099427C48C0
:1028FC000ED0C2F8B0300023C2F8B43082F8ACE08D
:10290C00012390F8DC20AB4022EA030380F8DC3092
:10291C000634B442D2D1784A784B12681C680292C1
:10292C0098F82B20764F0392002604933A68002ADD
:10293C0000F0A7821578002D00F0A3827B68029925
:10294C00CB1A002B0ADB01F5FA737B6098F8DC10CC
:10295C000123B34021EA030388F8DC30039B002BEE
:10296C0000F08F8217F8043C51780433DBB2002955
:10297C0040F04C82634931F91310BAF8283103F155
:10298C00C800814202DD92F802B014E0C83B9942C3
:10299C0004DA92F802B0CBF1000B0CE098F8DC20D2
:1029AC000123B34022EA030388F8DC30029B03F5D1
:1029BC00FA737B6065E298F8DC303341DB0700F199
:1029CC006082BBF1000FCCBF0220012001F02CFF74
:1029DC006B1E434A132B00F24D82DFE813F01400F8
:1029EC0020002F00400057005E00D3002F018B0108
:1029FC00B701E3014B0240004B005E00D3002F01F6
:102A0C00A60002015E0123789B44BBF1FA0FA8BF1C
:102A1C004FF0FA0B2BEAEB7B84F800B00AE06378FA
:102A2C009B44BBF1640FA8BF4FF0640B2BEAEB7B0C
:102A3C0084F801B0204601F067FE1BE2E3782046E3
:102A4C009B44BBF1640FA8BF4FF0640B2BEAEB7BEC
:102A5C0084F803B0D2F8E01001F00EFE0AE26379BC
:102A6C005B44642BA8BF642323EAE3730D2D6371CD
:102A7C0000F0008223799B44BBF1640FA8BF4FF098
:102A8C00640B2BEAEB7B84F804B0F3E1A3799B4451
:102A9C008BF3080B84F806B0ECE1D2F8E49099F8CB
:102AAC000020022A34D1584606F074FA164906F072
:102ABC0079FBD9F8241006F0B9F90021059006F03D
:102ACC005BFC40B9059A1149104606F073FC059A57
:102ADC0010B10E4A00E00022C9F8242022E000BF09
:102AEC00F40500200E170020F0060020E806002058
:102AFC00EC060020A0D50008E40F00204C070020B5
:102B0C00A40600201C090020000020410000C8423F
:102B1C0099F802205A44C82AA8BFC82222EAE272B5
:102B2C0089F802200F2D00F0A581B44BD3F8E450A6
:102B3C002B78022B1AD1584606F02CFAB04906F025
:102B4C0031FB296A06F072F90021834606F014FC69
:102B5C0038B95846AB4906F02DFC20B1DFF8A4B2C9
:102B6C0001E04FF0000BC5F820B083E16B789B447B
:102B7C00BBF1C80FA8BF4FF0C80B2BEAEB7B85F855
:102B8C0001B077E1D2F8E49099F80020022A1BD129
:102B9C00584606F0FFF99B4906F004FBD9F83010B3
:102BAC0006F044F90021059006F0E6FB40B9059AC1
:102BBC009449104606F0FEFB059A10B1914A00E0CC
:102BCC000022C9F8302009E099F80C205A44C82A90
:102BDC00A8BFC82222EAE27289F80C20102D00F05E
:102BEC004981864BD3F8E4502B78022B1AD15846E6
:102BFC0006F0D0F9834906F0D5FAE96A06F016F921
:102C0C000021834606F0B8FB38B958467D4906F0DA
:102C1C00D1FB20B1DFF8ECB101E04FF0000BC5F8AF
:102C2C002CB027E1EB7A9B44BBF1C80FA8BF4FF047
:102C3C00C80B2BEAEB7B85F80BB01BE1D2F8E490C8
:102C4C0099F80020022A1BD1584606F0A3F96E49C8
:102C5C0006F0A8FAD9F83C1006F0E8F80021059027
:102C6C0006F08AFB40B9059A6649104606F0A2FBAD
:102C7C00059A10B1634A00E00022C9F83C2009E033
:102C8C0099F816205A44C82AA8BFC82222EAE27230
:102C9C0089F81620112D00F0ED80584BD3F8E45034
:102CAC002B78022B1AD1584606F074F9564906F0C7
:102CBC0079FAA96B06F0BAF80021834606F05CFBA2
:102CCC0038B958464F4906F075FB20B1DFF834B1DE
:102CDC0001E04FF0000BC5F838B0CBE06B7D9B44A6
:102CEC00BBF1C80FA8BF4FF0C80B2BEAEB7B85F8E4
:102CFC0015B0BFE0D2F8E4502B78022B1AD158460D
:102D0C0006F048F93E4906F04DFAA96A06F08EF82D
:102D1C000021834606F030FB38B95846394906F095
:102D2C0049FB20B1DFF8DCB001E04FF0000BC5F837
:102D3C0028B09FE0EB789B44BBF1C80FA8BF4FF0C5
:102D4C00C80B2BEAEB7B85F803B093E0D2F8E45088
:102D5C002B78022B1AD1584606F01CF9294906F09B
:102D6C0021FA696B06F062F80021834606F004FB39
:102D7C0038B95846234906F01DFB20B1DFF884B062
:102D8C0001E04FF0000BC5F834B073E06B7B9B4453
:102D9C00BBF1C80FA8BF4FF0C80B2BEAEB7B85F833
:102DAC000DB067E0D2F8E4502B78022B1AD15846BC
:102DBC0006F0F0F8144906F0F5F9296C06F036F82F
:102DCC000021834606F0D8FA38B958460D4906F06A
:102DDC00F1FA20B1DFF82CB001E04FF0000BC5F890
:102DEC0040B047E0EB7D9B44BBF1C80FA8BF4FF050
:102DFC00C80B2BEAEB7B85F817B03BE0F405002001
:102E0C00000020410000C84200007A44012931D161
:102E1C009078844A32F913B0BBF5617F05DB40F63C
:102E2C0033039B45A8BF9B4601E04FF4617B0C2DFF
:102E3C0020D14FF4966393FBF0F0ABF5617B9BFBD9
:102E4C00F0FB794A5FFA8BFB13785B4512D0BBF130
:102E5C00040F34BF5B46022305FB03A51370049BD0
:102E6C0005F2F2451D6002F0FDF90BF10100C0B254
:102E7C0001F0DAFC98F8DC200123B340134388F806
:102E8C00DC300136042E07F10C077FF44FAD08E55A
:102E9C00019B1B68D8050FD5644BDB7863B1336895
:102EAC00990709D52B8813F001070AD105F068FBA7
:102EBC00012002F0EFF804E0012002F0DAF801231F
:102ECC0000E00023226852070CD55BB1012002F010
:102EDC00D0F82B889B0708D405F052FB022002F097
:102EEC00D9F802E0022002F0C4F82B88504A13F003
:102EFC00030F4FF4005114BF51611161326812F08D
:102F0C000A0F23D02268D70609D55E070AD40420FD
:102F1C0002F0C0F8474B1B88A8F8E83002E0042008
:102F2C0002F0A7F82368980606D52B88590606D414
:102F3C00402002F0AFF802E0402002F09AF823683B
:102F4C005A0642BF3B4B1B88A8F8EA3023684FF463
:102F5C0080701B0502D502F09DF801E002F089F8A3
:102F6C009AF80530082B01D00E2B58D1402009B00F
:102F7C00BDE8F04F02F07DB8012000E00220C7B29E
:102F8C007B1E8AF8F03402F0C7F802F08FF938464D
:102F9C0001F04AFC0FE417B17E2E3FF40AAC972ED9
:102FAC0004D14FF4C873A8F8A63004E4A72E07D1B7
:102FBC0098F89A3043F0040388F89A30FFF7FBBB7B
:102FCC000022BB2E079201D1022303E0B72E04D1BD
:102FDC004FF6FE73ADF81E300AE0BE2E01D102236F
:102FEC0004E0BD2E7FF4E7AB4FF6FE73ADF81C305A
:102FFC00D9F80030BDF81C10B3F858200A44A3F8D7
:10300C005820BDF81E10B3F85A200A44A3F85A20D1
:10301C0002F0D4FA002388F8A230FFF7CCBB09B039
:10302C00BDE8F08F1C090020D4160020E80F00200A
:10303C00001001403E07002010B5044680B205F098
:10304C0093FB200CBDE8104005F08EBB38B5044650
:10305C000D46242005F076FB4D2005F073FB002C6B
:10306C00094C14BF21203E2005F06CFB2368002284
:10307C0028469A7105F066FB236893F84900BDE871
:10308C00384005F05FBB00BFE00600200146002081
:10309C00DCE746282DE9F047044600F0918500F264
:1030AC0091802C2800F0DD844BD8052800F0268177
:1030BC0029D8022800F009810ED8012840F09A8501
:1030CC000320FFF7E3FF002005F03CFB204605F052
:1030DC0039FB0D2000F012BD032800F005810428F7
:1030EC0040F088850620FFF7D1FF432005F02AFB2E
:1030FC004A2005F027FB4D2005F024FB312005F07C
:10310C0021FB00F05EBC262800F07A840CD8222823
:10311C0000F07983242840F06D850420FFF7B6FF7A
:10312C00D84B986800F061BD282800F087842A28C5
:10313C0040F060850120FFF7A9FFD24B587900F0D1
:10314C00DDBC3A2800F006821AD8342800F07D83C2
:10315C000AD8322840F04E850120FFF797FFC94B63
:10316C0093F8240100F0CABC362800F00E853828EC
:10317C0040F040850420FFF789FFC24C00F04FBCA3
:10318C00402800F0BE8411D83B2800F035833D2840
:10319C0040F03085BB4C0220FFF778FF94F87201A9
:1031AC0005F0D0FA94F8710100F0A8BC422800F0A8
:1031BC00CB84452840F01E851320FFF767FF0024C1
:1031CC0000F008BD6E2800F0C98142D8652800F0D7
:1031DC00B28022D84B2800F0638408D8492840F0EC
:1031EC0009850220FFF752FFA64B9889EAE34D2888
:1031FC0000F06584642840F0FD840720FFF746FF4B
:10320C00E72005F09FFA9F4B587905F09BFA0020B8
:10321C0005F098FA042000F0E8BC692800F07881E9
:10322C000AD8662800F04281682840F0E384102018
:10323C00FFF72CFF002463E16C2800F07C816D28E3
:10324C0040F0D8840620FFF721FF0020FFF7F4FEA2
:10325C00B7E3752800F0C48215D8722800F06F838C
:10326C0007D86F2800F0A681702800F0CD8100F0FF
:10327C00C1BC732800F09A83742840F0BB844FF0D3
:10328C00000801260EE3A02800F0AC830AD87728AA
:10329C0000F035837B2840F0AD843C20FFF7F6FE30
:1032AC00002433E2F02800F09083FE2840F0A28442
:1032BC000820FFF7EBFE002005F056FA002005F081
:1032CC0053FA002005F050FA7BE30420FFF7DEFEF2
:1032DC00432005F037FA4C2005F034FA462005F06F
:1032EC0031FA4C2000F00ABCFFF7D0FE012005F0AB
:1032FC0029FA0A2005F026FA0020FFE31A20FFF72E
:10330C00C5FE0024604B185D013405F01BFA0B2C34
:10331C00F8D100245D4B185D013405F013FA082C2C
:10332C00F8D100245A4B185D013405F00BFA072C28
:10333C00F8D100F05CBC574C0B20FFF7A7FEA0881F
:10334C0005F012FAE08880B205F00EFAA368C3F318
:10335C00C000C3F38002800040EA4200C3F3400285
:10336C001043C3F3401240EAC20003F010031843A9
:10337C0005F0FAF9A289236902F0080103F4475910
:10338C0049EA010903F4804149EA010903F40041C7
:10339C0049EA010903F4803149EA010903F40031D7
:1033AC0049EA010903F4802149EA010903F40021E7
:1033BC0049EA010903F4801149EA010903F0007399
:1033CC0049EA0303DFF8D49012F0010F99F800904A
:1033DC0018BF4FF00208C9F3800908BF4FF000086E
:1033EC0043EA090312F0020F43EA080314BF4FF03B
:1033FC00040C4FF0000C12F0040F43EA0C0C14BF39
:10340C004FF0100E4FF0000E12F0400F14BF20279B
:10341C0000274CEA0E0E12F0100F14BF4FF400767A
:10342C0000264EEA070712F0200F14BF4FF48065F8
:10343C0000253E4312F4807F14BF4FF4006000203F
:10344C00354312F4007F14BF4FF4001100212843C0
:10345C0012F4806F41EA000114BF4FF08063002327
:10346C00002019430346247DA34219D20A4A9D5CCD
:10347C00012202FA05F50D421CBF9A40104301339C
:10348C00F2E700BFF00900206CE6000878E60008BF
:10349C0081E60008E0060020F50600200D1700204C
:1034AC00FFF7CAFDBB4B93F8F00427E31220FFF79C
:1034BC00EDFDB94B00251B88B3F5806F8CBF08263A
:1034CC000126B64C04F1300333F91500013590FB9D
:1034DC00F6F080B205F048F9032DF2D1E08E05F03C
:1034EC0043F9208F05F040F9608F05F03DF9A08F6E
:1034FC0005F03AF9E08F05F037F9B4F8400061E2D5
:10350C00A74B185D013405F01DF9102CF8D16EE3B2
:10351C00A44D00242878400000F0FE00FFF7B6FD13
:10352C002B789C4280F063839F4B33F8140005F09A
:10353C001BF90134F4E7994C0620FFF7A7FDB4F80A
:10354C005A0005F011F9B4F85C0005F00DF9B4F867
:10355C005E0037E20420FFF799FD45E34FF6FF7557
:10356C000720FFF793FD914B8C4C1888FF28A8BFC0
:10357C00FF20C0B205F0E6F8206EA842A8BF28468E
:10358C0020EAE07080B205F0EFF8B4F8640005F0C2
:10359C00EBF8804BA06E93F817313BB10A235843DC
:1035AC00A842A8BF284620EAE07001E000F30F0013
:1035BC0080B207E2794C0B20FFF768FDE36E2546DD
:1035CC00187805F0BFF8E36E0026587805F0BAF8C5
:1035DC00EB6E724C33441879013605F0B3F8032EB8
:1035EC00F6D1E36ED87905F0ADF8E36E987805F076
:1035FC00A9F8E36ED87805F0A5F8E36E588905F0C4
:10360C00B3F8E36E187A79E2644C1E20FFF73EFDA6
:10361C00236F00251B78022B65D1236F05F108025F
:10362C0053F82200624905F009FD09F0E3FA80F332
:10363C000800C0B205F086F8236F5E4903EB8503E2
:10364C00D86A05F0FBFC09F0D5FA80F30800C0B28B
:10365C0005F078F8236F05F10E0253F82200564955
:10366C0005F0ECFC09F0C6FA80F30800C0B2013595
:10367C0005F068F8032DD0D1072D236F21D1586C9C
:10368C004B4905F0DBFC09F0B5FA80F30800C0B239
:10369C0005F058F8236F4649986C05F0CFFC09F0FB
:1036AC00A9FA80F30800C0B205F04CF8236F93F828
:1036BC004C0005F06BFC09F09DFA80F30800C0B2D9
:1036CC000BE02B44587805F03DF8236F2B44D87A47
:1036DC0005F038F8236F2B44587D013505F032F88E
:1036EC000A2DC9D183E2236F2B44587805F02AF8B0
:1036FC00236F2B44D87A05F025F8236F2B44587D83
:10370C00013505F01FF80A2DEDD170E2234D04F1BF
:10371C0008022B6F284953F8220005F08FFC09F0A2
:10372C0069FA80B205F020F82B6F234903EB840370
:10373C00D86A05F083FC09F05DFA80B205F014F844
:10374C002B6F04F10E0253F822001B4905F076FC96
:10375C0009F050FA013480B205F006F8032CD5D1EB
:10376C00072C2B6F2AD1586C134905F067FC09F014
:10377C0041FA80B204F0F8FF2B6F0F49986C05F0FA
:10378C005DFC09F037FA80B204F0EEFF2B6F93F872
:10379C004C001FE0F00900201E000020E006002075
:1037AC00220700200C0F00201C090020D00F002045
:1037BC00000020410000C84200007A44234458789D
:1037CC0004F0D2FF2B6F2344D87A04F0CDFF2B6F7B
:1037DC002344587D013404F0C7FF0A2CC0D106E203
:1037EC002F20FFF753FCCE4C14F8010F002800F0EB
:1037FC00FE8104F0A7FFF7E70120FFF747FCC94B58
:10380C001B6F18787AE15020FFF740FC0025C54B60
:10381C000C211C6FC44B04EB850494F87920013502
:10382C0001FB023393F8380004F08CFF94F87A0013
:10383C0004F088FF94F87B0004F084FF94F87C007B
:10384C0004F080FF142DE2D1D1E14820FFF71EFCDB
:10385C000025B44B1C6F062303FB054494F8CE00E3
:10386C0004F070FF94F8C90004F06CFF94F8CA00DF
:10387C0004F068FF94F8CB0004F064FF94F8CC00DB
:10388C0004F060FF013594F8CD0004F05BFF0C2DC3
:10389C00DFD1ACE1002E00F0AA815FFA88F0FFF7CF
:1038AC00F5FB002600279F4B1A7D9742F2DA153361
:1038BC00FA5C00240C2363439B4D05F13001595CE9
:1038CC00914207D12B44586B09F079F882462EB9F6
:1038DC00B14605E001341C2CECD10EE080440CE028
:1038EC00D1450ADA0C2303FB04535B6B13F8090074
:1038FC0004F028FF09F10109F2E70137D3E7894DFC
:10390C000024287DFFF7C2FB2B7D9C4280F06F8149
:10391C00864B0021E65C0C2202FB01F3824800F18D
:10392C003007DA5DB24205D1034493F8380004F055
:10393C0009FF02E001311C29EDD10134E4E77C4C94
:10394C001620FFF7A3FBB4F8280104F00DFFB4F820
:10395C00D40004F009FFB4F8D60004F005FFB4F865
:10396C00D80004F001FFB4F86A0104F0FDFE002059
:10397C0004F0E8FE002004F0E5FE002004F0E2FE76
:10398C0094F8170104F0DEFE94F8240104F0DAFE3A
:10399C00002004F0D7FE634B0A201B6FB3F956309E
:1039AC0093FBF0F080B204F0DFFE38E00820FFF764
:1039BC006DFB0124E0B2013404F0C4FE092CF9D1F2
:1039CC0015E1002004F0D0FE11E1564C0420FFF765
:1039DC005DFB236FB3F85A0004F0C6FE236FB3F8F7
:1039EC005800EFE70C20FFF751FB524B1868FFF71C
:1039FC0023FB514B1868FFF71FFB504B1868F4E082
:103A0C004B4C0620FFF742FBB4F8EC0004F0ACFE84
:103A1C00B4F8EE0004F0A8FEB4F8F000D2E794F885
:103A2C000C0104F08FFE94F8100104F08BFE94F856
:103A3C000F0104F087FE94F811015FE03C4C072065
:103A4C00FFF724FBB4F8120104F08EFEB4F8140155
:103A5C0004F08AFE94F8160104F074FEB4F8180110
:103A6C00B0E7334C0C20FFF711FB94F8220104F063
:103A7C0069FEB4F82C0104F077FEB4F8280104F0C8
:103A8C0073FEB4F82A0104F06FFE94F8230104F0DD
:103A9C0059FEB4F82E0104F067FEB4F8300191E73A
:103AAC00234C0420FFF7F2FA94F8680104F04AFE64
:103ABC0094F8690104F046FEB4F86A0182E7204CE0
:103ACC00204D2078002600EB4000C0B2FFF7DEFA54
:103ADC00237802359E4280F08A8015F8020C04F09F
:103AEC0031FE15F8010C013600EB800000EB800074
:103AFC0000F2EE2080B204F037FEE9E704F022FE7B
:103B0C0075E00820FFF7C2FA0024094B234493F810
:103B1C001A01013404F016FE082CF6D167E000BF40
:103B2C00DBD50008E0060020DCD50008F5060020F7
:103B3C00F0090020E8F7FF1FECF7FF1FF0F7FF1F5D
:103B4C000C0F0020220B0020374C1020FFF79EFAA0
:103B5C00607904F0F7FDA068FFF76EFA94F8220183
:103B6C0004F0F0FDB4F8EC0004F0FEFDB4F8EE0047
:103B7C0004F0FAFDB4F8F00004F0F6FDB4F812010C
:103B8C0004F0F2FDB4F814011CE7284D264C95F80E
:103B9C00740004F11006C0EBC000C0B2FFF776FA57
:103BAC0094F87C0195F9782043B29A4225D01F4AAB
:103BBC0092F984209A4220D00834B44217D0EFE70F
:103BCC000D20FFF763FA002004F0BCFD0020FFF786
:103BDC0033FA06E0164B185D013404F0B3FD0B2CE0
:103BEC00F8D10020FFF728FA0020FFF725FA012072
:103BFC00BDE8F0870020BDE8F08704F0A3FDB4F821
:103C0C007E0104F0B1FD94F8800104F09BFD94F862
:103C1C00810104F097FD94F8830104F093FD94F86E
:103C2C00820104F08FFDC7E7F0090020E0060020B8
:103C3C006CE60008034B1A68D379591C1344D171F4
:103C4C00187A7047E006002010B5FFF7F3FF84B236
:103C5C00FFF7F0FF04EB002080B210BD70472DE998
:103C6C00F047054608F0ABFE314E0446D6F8088006
:103C7C0090B9304804F0E8FD2F4B53F8241049B1AB
:103C8C000123A34013EA080F02D02C4800F09CFF3C
:103C9C000134F1E72A4822E028462A49224608F056
:103CAC0097FE58B9284804F0CFFD284C54F8041F4F
:103CBC000029EFD0214800F087FFF7E72B784FF071
:103CCC0000092D2B03BF013504F1FF344FF0010A1D
:103CDC004FF0000A184B53F8297027B91C48BDE85F
:103CEC00F04704F0B1BD28463946224608F070FE74
:103CFC00D8B9012000FA09F0020601D51548EEE703
:103D0C008305FBD4BAF1000F03D001F0D3F91248AC
:103D1C0003E040EA0800B060104804F095FD394615
:103D2C00BDE8F0470E4800F04FBF09F10109D1E79B
:103D3C00F00900206EE7000868D7000878E7000853
:103D4C00B1EB00087CE7000881E7000864D70008A5
:103D5C008DE700089CE70008AAE70008B3E7000815
:103D6C0010E9000810B5084804F06EFD074B00245C
:103D7C001C701C63064B1C7003F012F804F0BAFFA5
:103D8C00044B1C6010BD00BFBBE70008700700208F
:103D9C000E170020F416002070B5064600240B4BBD
:103DAC00E518AA8816420AD0E158094800F00CFF21
:103DBC002846002104F0E1FC064804F045FD40F6DD
:103DCC00C82314349C42EAD170BD00BF04D900084A
:103DDC00E7E70008B1EB0008F8B504460E461746B5
:103DEC0000252046202108F0DCFD0446D0B101342A
:103DFC00204608F039FEB0F5617F05DB40F6340350
:103E0C009842A8BF184601E04FF46170A0F56170AC
:103E1C00192390FBF3F00DB9307000E070703B7813
:103E2C0001333B700DB90125DBE72046F8BD7FB5AA
:103E3C0004780646E4B9364B1921186800EB840067
:103E4C0090F87B5090F879204D4305F5617590F80A
:103E5C007A30009590F87C00414301F56171019135
:103E6C002C482146013400F0AFFE142CE3D14CE079
:103E7C0008F0FAFD1328054641DC254B701C1C6824
:103E8C00202100238DF80F3008F08BFD1E350646DF
:103E9C0070B10136304608F0E7FD1A289FBF04EBDD
:103EAC00850358709DF80F30013398BF8DF80F3093
:103EBC003046202108F075FD064670B101363046BB
:103ECC0008F0D2FD0D289FBF04EB850398709DF878
:103EDC000F30013398BF8DF80F3004EB850430465A
:103EEC00E11C0DF10F02FFF777FF9DF80F30042B4B
:103EFC000BD0601C0021042208F01DFD05E00648D3
:103F0C0006490022132300F05FFE04B070BD00BF11
:103F1C0050070020F1E7000806E8000825E8000833
:103F2C00014804F091BC00BF2BE800082DE9F041DA
:103F3C00047806467CB9334D2146B5F85621B5F8C0
:103F4C0058313148013400F03FFE042C05F10405D2
:103F5C00F2D1BDE8F0812D4908F0F6FCB0B9294B3F
:103F6C004FF47A714FF4FA62A3F85611A3F8582162
:103F7C00A3F85A11A3F85C21A3F85E11A3F86021F1
:103F8C00A3F86211A3F86421BDE8F081304608F073
:103F9C006BFD032805462CD83046202108F001FD86
:103FAC00044630B10134204608F05EFD0126074678
:103FBC0000E006462046202108F0F3FC10B9BDE8CD
:103FCC00F041ADE7013008F04FFD012EF7D140F282
:103FDC00DC53A7F2EE229A42F1D8A0F2EE229A42DA
:103FEC00EDD8084B543503EB8503DF801881BDE811
:103FFC00F0810748074900220323BDE8F04100F097
:10400C00E3BD00BFF009002039E800084CE80008C7
:10401C0006E80008A2EE0008F0B5047887B0064662
:10402C0014BB514B19201968062303FB041191F89A
:10403C00CA5091F8CE20454305F5617591F8C93009
:10404C00009591F8CB50C831684300F56170019030
:10405C00087902904979454803912146013400F0D2
:10406C00B3FD0C2CDDD17DE008F0FEFC0B280446E2
:10407C0072DC3D4B701C1D68202100238DF817301D
:10408C0008F08FFC064680B10136304608F0ECFC97
:10409C0003289FBF062303FB045383F8CE009DF82F
:1040AC0017309CBF01338DF817303046202108F0B3
:1040BC0078FC074680B10137384608F0D5FC0D284E
:1040CC009FBF062303FB045383F8C9009DF81730E8
:1040DC009CBF01338DF8173006266643A919384664
:1040EC00CA310DF11702FFF777FE202108F059FCB9
:1040FC00074670B10137384608F0B6FC14289FBF4C
:10410C009DF817307619013386F8CC0098BF8DF8DE
:10411C0017303846202108F044FC78B1013008F003
:10412C00A3FC0D289FBF062303FB045383F8CD008B
:10413C009DF817309CBF01338DF817309DF8173060
:10414C00062B0FD0062202FB04500021C93008F0C8
:10415C00F2FBFFF7E5FE05E00548064900220B23BC
:10416C0000F032FD07B0F0BD5007002052E8000807
:10417C0006E8000825E800082DE9F347047807460F
:10418C004CB9204601A901F0B5FC0134FFF7F4FF4E
:10419C00122CF6D17EE008F067FCC5B2112D73D855
:1041AC003E4C05F1980604EB4603781C202193F84D
:1041BC00028008F0F6FB3A4F034630B9A8F1020230
:1041CC00D2F1000848EB020848E007F1580800F16A
:1041DC00010A5978404608F0E4FB68B1032D8CBF06
:1041EC0003230023C8EB0000C0B23B44184490F8F2
:1041FC005C90B9F1030F02D1FFF792FE4AE0A9F1EE
:10420C000203D3F1000850464FF0200148EB03089D
:10421C0008F0C7FBD8B1B8F1000FEDD0013008F0B1
:10422C0023FC40F2ED2380B2984205DD40F6CA0330
:10423C009842A8BF184601E040F2EE20A0F2EE2012
:10424C00192290FBF2F004EB4603D87002E0B8F1AF
:10425C00000FD1D104EB460383F8029004EB460423
:10426C00A3781F4497F85820B8F1000F07D0E178D5
:10427C0019234B430B48294603F2EE2308E0294649
:10428C00094800F0A1FC05E0084809490022112367
:10429C0000F09AFC02B0BDE8F08700BFF0090020E6
:1042AC0068D7000872E8000884E8000806E80008EF
:1042BC00A2EE0008F7B50546124C0E4694F9000024
:1042CC001146A8421A469DF824709DF8203004D05F
:1042DC0094F90C00A84211D10C34207A70B925B194
:1042EC00012D0CD10097084801E00848009702F016
:1042FC0093FE20B105712672606000E0002003B0CF
:10430C00F0BD00BF580700200044004000380140B9
:10431C00074B5B6B93F90220824201D1981C7047CA
:10432C0093F90A2082420CBF03F10A000020704767
:10433C0070070020F0B5027887B08AB94B4C04F1B5
:10434C0010064B4B94F97C1193F900208A426DD0E6
:10435C0093F90C308B4269D00834B442F1D183E02C
:10436C00002204920592451C08F07EFBC4B260B298
:10437C00FFF7CEFF074618B18DF81040012400E07E
:10438C0004462846202108F00CFB054638B10135BF
:10439C00284608F069FB0134ADF81200E4B200269F
:1043AC002846202108F0FDFAA8B3451C284608F041
:1043BC005BFB00222F49D3B251F82210814203D06B
:1043CC000132082AF6D100232B4A02EB8302526EEB
:1043DC00824220D1022E0FD0032E12D05A1E012E53
:1043EC00D2B204D0042A13D88DF814300EE0042A6B
:1043FC000ED88DF8153009E0052B09D88DF817303B
:10440C0004E09A1E052A03D88DF816300134E4B264
:10441C000136042EC4D1052C03D807B0BDE8F040FA
:10442C007EE504AB03CB386079601DE094F8810124
:10443C00114B94F8805103EB8000406EB4F87E2150
:10444C00009094F8830103EB850503EB8000406E2C
:10445C00019094F8820103EB80035B6E0748029392
:10446C006B6E00F0B1FB77E707B0F0BDF0090020F0
:10447C0058070020CCD7000868D7000893E800083C
:10448C002DE9FF415149044608F05EFA50490028D5
:10449C0020460CBF0126072608F056FA4D49002885
:1044AC00204608BF022608F04FFA002808BF042651
:1044BC00F10752D5484804F0C7F9002004F08DF8F4
:1044CC00464804F0C1F9464F464804F0BDF9464849
:1044DC0004F0BAF9454CD7F8088054F8041F19B108
:1044EC00434800F071FBF8E70D46424B53F825406A
:1044FC0054B10123AB4013EA080F03D03E482146C8
:10450C0000F062FB0135F0E73C4804F09DF92146D0
:10451C007B1893F81A3104AA1344394A8A5C013186
:10452C00082903F8102CF3D10023694635488DF87F
:10453C00083000F049FB344804F086F93348FFF7A3
:10454C00F9FE334800F040FB4020FFF725FC3148D2
:10455C0004F07AF92D48FFF70FFEB20720D52E484C
:10456C0004F072F92D4804F06FF9284804F076F83D
:10457C002B4804F069F92548FFF759FC294804F049
:10458C0063F92248FFF748FD274800F01DFB1F4840
:10459C00FFF7CCFC1E4800F017FB8020FFF7FCFB5C
:1045AC0073070FD5214804F04FF9214804F04CF95A
:1045BC00164804F02DF8164800F006FB4FF48070F6
:1045CC00FFF7EAFB04B0BDE8F08100BFB2E80008D9
:1045DC0065ED0008B9E80008BFE80008CDE8000860
:1045EC00F0090020DFE80008EBE8000864D70008B9
:1045FC00FBE8000868D7000809E9000816E900087C
:10460C00A8EA000822E900082BE9000850E5000898
:10461C00B1EB00083AE9000847E900085AE900083C
:10462C0068E9000872E9000881E900088FE90008D0
:10463C00A0E900080B4B30B51A465C6B93F83810A8
:10464C0001290BD80B464D1C04EBC303E9B29D8822
:10465C002842F5D082F83810981C30BD82F83810FA
:10466C00002030BD70070020024B002283F8382058
:10467C00E0E700BF700700202DE9F047877890F83D
:10468C0003C0BBB2C7F1640E03EB83065C42C3F1FB
:10469C0078001C4D5FFA8EFE7600CCF16408A4B253
:1046AC0080B2A3B20FFA83F9B9F1000F04DC002B2E
:1046BC0014BF3B46012300E0734609FB09F25B4340
:1046CC0002FB0CF292FBF3F3434403FB09F30A22C3
:1046DC0093FBF2F333449BB225F8023FB1F8009000
:1046EC004A880A34C9EB020A1AB202FB0AF24FF4E6
:1046FC007A7392FBF3F3A4B24B4484422B80D0D157
:10470C00BDE8F087A807002010B544780078002297
:10471C0040F6C41102FB02F3193B634303F6C413C6
:10472C005343434393FBF1F3034921F81230013215
:10473C00072AEDD110BD00BFC2070020104B04307A
:10474C0033F91000B0F5617F05DB40F63303984276
:10475C00A8BF184601E04FF461700A7819235A4338
:10476C0002F28332824208DA4A78534303F28333EB
:10477C008342B4BF0020012070470020704700BF67
:10478C001C0900200A4B1B6813F4805F094BB3F91A
:10479C00063005D0C089421A934207DD084400E078
:1047AC00008A8342B4BF002001207047012070476B
:1047BC00D80F00201C09002010B5064B00241C70DB
:1047CC0001F018FD044B83F860405C66A3F8684068
:1047DC00DC6610BD0C1000207007002030B510B93D
:1047EC00BDE83040E8E700230D4CD90004F1840209
:1047FC0012F83350854203D00133102BF4D130BD65
:10480C00084B0A44D86E28B1214491F88540417870
:10481C008C4204D2DA660022A3F868205A6630BDB6
:10482C0068D700087007002010B540001428A8BFF6
:10483C00142000230949022401F170029C542344E2
:10484C001A441424834202F8014CF3DB0B44FF227C
:10485C0083F870200F20BDE81040BFE770070020E0
:10486C0010B50A4A0A4B11689B6800BF1268914246
:10487C00F7D1084A4FF47A70D2F8884000FB04F262
:10488C00D31AB3FBF4F300FB013010BDE40F00208E
:10489C0010E000E07007002038B50446FFF7E0FF99
:1048AC000546FFF7DDFF401BA042FAD338BD10B51B
:1048BC0004462CB14FF47A70FFF7EEFF013CF8E799
:1048CC0010BD2DE9F84381460B26013E32D01C4C1D
:1048DC004FF4005363614FF48043236109F10107E6
:1048EC004FF032080525E368404683F40053E3603B
:1048FC00E36883F48043E360FFF7D9FFE368404645
:10490C0083F40053E360E36883F48043E360FFF7D0
:10491C00CEFF45B1013DE6D14FF4FA70FFF7C7FF6A
:10492C004FF0FA08DFE7013FDDD14FF47A70FFF763
:10493C00BEFFCAE7034A044BDA60BDE8F88300BF48
:10494C00001001400400FA0500ED00E0024A136873
:10495C0001331360704700BFE40F0020024BD3F803
:10496C008C3003B1184770477007002003681B692F
:10497C00184703681B681847F0B50124B0FBF4F521
:10498C008D4201D34C43F9E70026D4B1B0FBF4F5CA
:10499C0004FB1500B4FBF1F41EB9002D01DC002C56
:1049AC00F3D1092D03F1010EEFB204DD002A14BF7F
:1049BC003725572500E030253D441D7001367346E0
:1049CC00E3E71C70F0BDF0B50124B0FBF4F58D42AB
:1049DC0001D34C43F9E70026D4B1B0FBF4F504FB4A
:1049EC001500B4FBF1F41EB9002D01DC002CF3D141
:1049FC00092D03F1010EEFB204DD002A14BF372597
:104A0C00572500E030253D441D7001367346E3E721
:104A1C001C70F0BD2DE9F843089E002B0746884614
:104A2C001446334614BF4FF030094FF0200913F8E9
:104A3C00012B0AB9254603E0002CFBDD013CF6E70F
:104A4C00002D04DD38464946C047013DF8E73546A0
:104A5C0024EAE474A01B284415F8011B11B1384654
:104A6C00C047F7E7BDE8F883014B1868FFF781BF33
:104A7C00D4020020F8B507460C46486800211546BC
:104A8C001E4604F06FFC58B1284604F083FA104916
:104A9C0004F0D4FA01464FF07E5004F083FB6060C2
:104AAC006168304604F0C2F90146304604F07AFBE6
:104ABC00256806462946384604F0B6F901463046C4
:104ACC0004F0BCFA0146284604F0B0F92060F8BDA9
:104ADC00DB0FC94030B5054687B00C4603A8002152
:104AEC000C2207F028FF2846002104F063FC20B1BB
:104AFC002846284904F09AF903E02846254904F091
:104B0C0093F9254904F09AFA04F05EFC054680EA14
:104B1C00E0706946A0EBE57000F0ECFF002DACBF37
:104B2C0020232D2368468DF80C3007F048FF012810
:104B3C0007D130238DF80D308DF80E308DF80F30F5
:104B4C000CE0022805D130238DF80D308DF80E3095
:104B5C0004E0032804BF30238DF80D30694603A808
:104B6C0007F010FF03A807F02AFF0338C5B22A4646
:104B7C0003A9204607F04EFF002363552046074942
:104B8C0007F000FF03AB2046591907F0FBFE204647
:104B9C0007B030BD6F12033A00007A4481EA000876
:104BAC0070B50646B6FBF2F40846154614B120461D
:104BBC00FFF7F6FF05FB1464024B1B5D00F8013B8D
:104BCC0070BD00BF83EA00080FB42DE9F04F7B4B9A
:104BDC0089B012ACD3F80080794B54F8046BD3F83D
:104BEC000090049400253178002900F08580252957
:104BFC0002D00136404673E072784FF0000A302A3A
:104C0C000CBFB278B71CA2F1300312BF4FF0000BEF
:104C1C00F71C4FF0010B092B19D8A2F13003D9B2B4
:104C2C00092905D80A2202FB0A3A17F8012BF4E7E6
:104C3C00A2F16103052B02D8A2F1570305E0A2F102
:104C4C004103052B03D8A2F137030A2BEADD6C2AAA
:104C5C002FD13A787E1C642A00F088800AD8252A45
:104C6C003CD002D8002A47D0BDE7582A0CD0632A82
:104C7C0019D0B8E7732A22D002D86E2A37D0B2E7FF
:104C8C00752A62D0782AAED1271D2068A2F158046B
:104C9C0062424FF0100162415BE02CD9582A38D0A7
:104CAC00632A34D13E4640462178271DC84701353A
:104CBC000FE0642A69D00ED9732A14D13E462368BA
:104CCC0040460093494652460023FFF7A3FE271D9A
:104CDC0005443C4687E7252ADFD13E464046252140
:104CEC00C84701357FE70ED86E2A10D13E4623689F
:104CFC0004341D6077E752B9324B1868FFF736FE63
:104D0C000028F9D053E0752A28D0782A01D03E46E5
:104D1C0069E7A2F1580304F1040C5A422068CDF85B
:104D2C000CC04FF010015A4105ABFFF725FEDDF822
:104D3C000CC03E46644605AB00934046494652467D
:104D4C005B46FFF767FE05444DE72068271D0A21E7
:104D5C00002205ABFFF737FE3C46ECE704F1040CF0
:104D6C00CDF80CC020680A210022DDE72068271D41
:104D7C00002808DA2D238DF8143040420DF115036C
:104D8C000A210022E6E705ABFAE7206804F1040CDF
:104D9C0000280ADA2D238DF8143040420DF115034A
:104DAC00CDF80CC00A210022BFE705ABF8E7284676
:104DBC0009B0BDE8F04F04B0704700BFB403002049
:104DCC00B0030020D402002080EAE073A3EBE07370
:104DDC008B4206DB002801DD401A704702D00844E4
:104DEC0070470020704770B5044604F0EDFA20308F
:104DFC00402857D820462C4904F0DCFA28B120462C
:104E0C002A4904F011F80446F4E72046284904F036
:104E1C00B3FA28B12046254904F008F80446F4E713
:104E2C002046244904F0C6FA30B12249204603F04A
:104E3C00FBFF01461F480AE020461F4904F09CFA7C
:104E4C0040B11C49204603F0F1FF01461A4803F01B
:104E5C00EBFF04462146204604F0F0F805462046B8
:104E6C00294604F0EBF815490646284604F0E6F806
:104E7C00134903F0D9FF0146284604F0DFF8114925
:104E8C0003F0D4FF0146284604F0D8F80E4903F08D
:104E9C00CBFF0146304604F0D1F80146204603F022
:104EAC00C5FF70BD002070BDDB0F4940DB0FC94052
:104EBC00DB0F49C0DB0FC93FDB0FC9BF9A7C2E3615
:104ECC00FAAF4F393587083CA4AA2A3E2DE9F04F9A
:104EDC00056885B00C4681463B49284603F0A6FF81
:104EEC00FFF781FF80462846FFF77DFFD9F8045075
:104EFC0006463549284603F099FFFFF774FF07462D
:104F0C002846FFF770FFD9F8089005462E49484609
:104F1C0003F08CFFFFF767FF82464846FFF763FFFD
:104F2C0041468146504604F089F84146834648463E
:104F3C0004F084F851460190304604F07FF849465D
:104F4C000290304604F07AF839460390504604F04B
:104F5C0075F84946206007F1004004F06FF82946C7
:104F6C006060A560029804F069F80146019803F0AE
:104F7C005DFF2946E060039804F060F8014658464E
:104F8C0003F052FF3946206106F1004004F056F858
:104F9C0029466061584604F051F80146039803F025
:104FAC0043FF2946A061019804F048F80146029895
:104FBC0003F03CFF4146E061384604F03FF82062C4
:104FCC0005B0BDE8F08F00BFDB0FC93F2DE9F04104
:104FDC0007688AB0466885680446084601A9FFF749
:104FEC0075FF0199384604F029F80499804630463B
:104FFC0004F024F80146404603F018FF0799804658
:10500C00284604F01BF80146404603F00FFF0299B6
:10501C002060384604F012F805998046304604F0BA
:10502C000DF80146404603F001FF089980462846DA
:10503C0004F004F80146404603F0F8FE0399606062
:10504C00384603F0FBFF06990746304603F0F6FF9F
:10505C000146384603F0EAFE09990646284603F055
:10506C00EDFF0146304603F0E1FEA0600AB0BDE85A
:10507C00F081074B10B51A881C4622EA00009042BA
:10508C00188002D00120FFF7CFFB208810BD00BF95
:10509C00EC060020064B10B51A881C4610439042B3
:1050AC00188002D00120FFF7BFFB208810BD00BF85
:1050BC00EC060020024A936823EA000090607047D7
:1050CC00F009002008B5104B1A780023D9B2914290
:1050DC0007D20E49002051F82310013309680880CB
:1050EC00F4E73220FFF7E3FB094B1B685A0309D5A1
:1050FC00084B9B685B0305D4BDE8084040F2DC50CC
:10510C00FFF7D5BB08BD00BFB3100020D81000209E
:10511C00D80F0020F00900202DE9F34101F048F8E8
:10512C004B4A692313704FF4A3635380BE2313714E
:10513C00EF2382F8163500231946164682F81735E8
:10514C00F25C0133B3F5A36F81EA0201F8D1404B55
:10515C00404A83F81715404B04275A6002F18832F5
:10516C005A600020013F17F0FF075ED03A4B342203
:10517C003A4CDA6004F17848A8F57848C8F309038A
:10518C0053B100234FF4005056F80880019300F0FF
:10519C00C9FD0428E6D11CE04FF4302000F0C2FD1C
:1051AC000428DFD12C4D4FF430202B6943F002033F
:1051BC002B616C612B6943F040032B6100F0B2FD55
:1051CC0041F6FD732A69042803EA02032B61D8D047
:1051DC00C8E7214D4FF400502B6943F001032B61BC
:1051EC001FFA88F3238000F09DFD042813D1A31C23
:1051FC000193019B4FEA1848A3F800804FF400502C
:10520C0000F090FD41F6FE732A69042803EA0203BC
:10521C002B6106D0A6E741F6FE732A6913402B6179
:10522C00A0E70F4B04349C42A4D10B4A0428136909
:10523C0043F08003136102D102F0FCF910B9052090
:10524C00FFF73FFB00F0A0FF02B0BDE8F08100BF0C
:10525C00F0090020230167450020024000F80008F7
:10526C0018FD000810B50E4C2068FFF74DFA2068A9
:10527C000022047A02FB02F3193B634303F6C413C6
:10528C005343192193FBF1F3064921F812300132F3
:10529C00072AEFD1BDE810400349FFF7EDB900BF75
:1052AC004C07002004020020C40A00202DE9F04124
:1052BC0002F0C0F910B90420FFF703FBA34C00F077
:1052CC0077FFA3494FF4A362204607F029FB94F81B
:1052DC00F0344FF48E71022B84BF002384F8F03429
:1052EC0094F8F0249B4D01FB02F3E01800F5CE700E
:1052FC002344286093F8F00101FB0242022803F5D5
:10530C00F47384BF0020187292F8F031924A137033
:10531C000C2202FB0343914A03F2F243136046F260
:10532C000902A3681A401AB9884A43F400539360DF
:10533C00A368D80703D54FF40050FFF7BBFEA36852
:10534C00590409D50820FFF7B5FE4FF40050FFF7BC
:10535C00B1FE0120FFF7AEFEA3681A0706D54FF485
:10536C000050FFF7A7FE0120FFF7A4FEA3689B04E3
:10537C0013D54FF40040FFF79DFE744B93F8163194
:10538C00012B03D14FF40060FFF794FE4FF48030F3
:10539C00FFF790FE4020FFF78DFE94F870216B4BC9
:1053AC002AB193F8742112B1002283F874214FF0C2
:1053BC00000C67466A4E6B4B1E6004EB0C03B3F893
:1053CC007EE14FEA5E0101F077314FEA9E0303F074
:1053DC003333C1EB0E00C11A4FEADE0303F0113375
:1053EC00CB1A03EB231303F00F32FF2392FBF3F3DF
:1053FC001EF00108C3EB032318BF0137A2EB030314
:10540C0018BFFFB2012B0ADD022B40F09C80B8F1D3
:10541C00000F00F098801EF0BC0F00F094800CF18F
:10542C00080CBCF1100FC8D1013F012F00F28B808A
:10543C00FFF718FF002130224B4807F07CFADFF809
:10544C0078814A4B2F68C3F80080494B07F17900EB
:10545C001F6000F023FB474B80F001001870464B97
:10546C0008F126021A60387801F02AFD434B94F8B3
:10547C00681108F194021A6064224A43404BC83206
:10548C005A6000229A60DA601A615A619A61DA6194
:10549C0083F8202083F821203A4B08F12C021A6063
:1054AC00394B08F108021A60384B394FC3F80080A9
:1054BC00384B08F1A0021A6008F1A4033B60364B8C
:1054CC00B4F8F6001E6003F061FDB860B4F8F800A3
:1054DC0003F05CFD2D683A1D95F85C30F8603B716B
:1054EC0095F87830286E7B7194F873317D613B743C
:1054FC002A4B2B491A602B4B05F164021A6003F0FE
:10550C009DFD01464FF07C5003F04CFEB5F8164162
:10551C00254B1860204603F03DFD0146234803F05F
:10552C0041FE234903F08AFD224BBD61186005F151
:10553C00680305F21115FB613D62C7F82480BDE8D4
:10554C00F04100F021BE00F087FA71E7F00900206D
:10555C0000F8000850070020D41600204C0700204B
:10556C000A0B0020D40F0020A0060020D406002037
:10557C00D80600201C000020DC000020D0160020E3
:10558C00E80F002044010020A8110020AC110020DD
:10559C0000080020E0020020A40300207401002079
:1055AC00DB0F4940AC010020A80100200000614441
:1055BC004C3D0F44DC020020C40A002008B5FFF764
:1055CC00ABFDFFF773FEBDE808400120FFF72CB9D7
:1055DC00084BDA68D10709D4DA68520708D4DB68BB
:1055EC0013F0100F14BF03200420704701207047E4
:1055FC00022070470020024003788B4286BF024B8A
:10560C0033F81100002070472808002000221346B0
:10561C0070B5234914180C44247E83EA042308240F
:10562C0013F4004F4FEA430318BF83F4815304F182
:10563C00FF3418BF83F0010314F0FF049BB2EFD1C9
:10564C000132192AE5D100F1190200F11A050A44B8
:10565C000D44167E2A7E02EB062292B29A421ED18D
:10566C000F4B93F83950E2B2AA4215D2431C03EB0C
:10567C004203DBB2CA1801330B44127E1B7E03EBD0
:10568C0002239BB24FF4AF6253431B1303F54873D1
:10569C0021F814300134E6E7012381F83A3070BD6B
:1056AC002808002003788B420BD9074B890093F80C
:1056BC003B201944C86B02B1400800F5777080B2EA
:1056CC0070470020704700BF2808002007299DBFA5
:1056DC00034B03EB8101B1F86C000020704700BF55
:1056EC0028080020034B03EB4101B1F88C00C008E3
:1056FC00704700BF2808002008B5084B03EB810158
:10570C00D1F8AC0003F042FC054903F097FC0549C5
:10571C0003F08CFB03F07EFE80B208BD280800204D
:10572C000000203F00005C44024B03EB4101B1F848
:10573C00F400704728080020024B03EB4101B1F83C
:10574C001801704728080020024B03EB4101B1F807
:10575C0018017047280800200020704710B5044637
:10576C00FFF77EF841F288310E4BE4B2D3F83021CA
:10577C00C3F83001821A8A42C3F8342184BF002254
:10578C0083F8382193F8382106490F2A134418BF9F
:10579C00013283F8394112BF81F83821012381F895
:1057AC00493110BD2808002070B50546FFF758F8A0
:1057BC00314CD4F84C31C4F84C01C31AB3F5FA5F30
:1057CC00C4F8503182BF002384F8543184F8553129
:1057DC0094F854312BB9A12D02BF274A012182F82C
:1057EC00551194F85511244A29B1D118EDB2013351
:1057FC000D7682F8543194F8545194F85631AB42EA
:10580C0039D11D4B93F85731052B02D0062B03D001
:10581C002CE00020FFF7FAFE637E1E2B26D1002021
:10582C000246C1B26B1E994219DA21440B7E082143
:10583C00DBB283EA0206F60744BF83F01803C3F316
:10584C00460301F1FF3154BF5B0843F0800311F0B4
:10585C00FF01C2F34702ECD101301A46E1E72344C1
:10586C001B7E9A4202D10320FFF7D0FE002384F85E
:10587C00553184F8543170BD2808002010B5044609
:10588C00FEF7EEFF41F288310E4BD3F85821C3F8E6
:10589C005801821A8A42C3F85C2184BF002283F823
:1058AC00602193F860210749142A134418BF013270
:1058BC0083F8614112BF81F86021012381F87631B0
:1058CC0010BD00BF2808002038B50446FEF7C8FFFD
:1058DC00274A2749D2F87831C2F87801C31AB3F5B0
:1058EC007A6F84BF002382F87C3192F87C3133B913
:1058FC00A82C3BD181F87D31A1F87E3106E0022B3A
:10590C0002D181F8804101E0242B02D8D11881F812
:10591C00814192F8801101330231DBB249008B4294
:10592C00134D82F87C3118DAB5F87E31E0B283EA97
:10593C000020082310F4004F4FEA400018BF80F4F9
:10594C00815003F1FF3318BF80F0010013F0FF0307
:10595C0080B2EFD1A2F87E0138BD01318B4201BF7C
:10596C00002385F87C31012385F87D3138BD00BFDB
:10597C002808002010B50446FEF772FF40F6AC5123
:10598C000F4AD2F8A831C31A8B42C4BF002382F845
:10599C00AC3192F8AC31D11881F8AD4123B90F2C50
:1059AC000DD10749C1F8A8010133DBB2192B044909
:1059BC0082F8AC310CBF0123002381F8C63110BD35
:1059CC00280800200C4B0D49DA684378D243C2F307
:1059DC000222C2F10402934002781B01DBB20A449A
:1059EC0082F8003303780122580903F01F0302FAEE
:1059FC0003F341F82030704700ED00E000E100E0D7
:105A0C0073B5054600210068012202F035F82A68BA
:105A1C000124138800269BB243F001031380EB7A18
:105A2C0001A88DF804308DF805408DF806608DF8CE
:105A3C000740FFF7C7FFEB7A1B2B0BD1192301A8EB
:105A4C008DF804308DF805408DF806608DF8074010
:105A5C00FFF7B8FF02B070BD10B50F4C0021122239
:105A6C0004F2423006F067FF0523042184F8483322
:105A7C0084F84A3384F8503384F852335223012289
:105A8C0084F8491384F8511384F8423384F84C2376
:105A9C00A4F8462310BD00BF2808002000F15003D5
:105AAC0002781AB98178C278914204D304309842B2
:105ABC00F6D1002070470120704770B50646441E91
:105ACC0014F8011F89B1094D284606F06AFF002819
