:020000040800F2
:100000000050002001560108A1560108E93F0108EF
:10001000A1560108A1560108A156010800000000E0
:10002000000000000000000000000000A1560108D0
:10003000A156010800000000A1560108370C010874
:10004000A1560108A1560108A1560108A1560108B0
:10005000A1560108A1560108E99F0008E59F000884
:10006000A1560108A1560108A1560108A156010890
:10007000A1560108A156010869B40008A15601085B
:10008000FDCF0008A1560108A1560108A15601089C
:10009000A1560108A1560108A1560108E19F0008D8
:1000A000A156010899C30008A1560108A9C3000878
:1000B00089C3000879C3000869C30008E564000823
:1000C000E9640008DD640008E1640008A156010845
:1000D000A156010861B4000859B4000851B40008E1
:1000E000450C0108A1560108A156010800000000B6
:1000F0000000000000000000000000000000000000
:0C01000000000000000000005FF808F1A3
:100110002DE9F04F754B764EA3B03360002373602A
:1001200011F01DFF18B911F03BFF08F0C7FF09F0EF
:100130008FF8704A704C1378704D43F001031370C0
:1001400000230A930B930C934FF4E0130D93236851
:10015000287B43F480332360A36943F01003A36139
:10016000236803F400330B930A9B01330A930B9B20
:100170001BB90A9BB3F5A06FF2D123685E4913F453
:10018000003301D0022315E00A6842F001020A6040
:100190000A93236803F002030B930A9B01330A932B
:1001A0000B9B1BB90A9BB3F5A06FF2D123689B0789
:1001B00039D501230C93524B52491A6842F0100270
:1001C0001A601A6822F003021A601A6842F00202EA
:1001D0001A606368636063686360636843F48063A4
:1001E0006360494B1A68043B22F070425A60474AE8
:1001F0001160616821F47C116160596841F000412F
:100200005960D96821F40041D9609B681F0449BF37
:100210003F4B4FF4E01313604FF480130D930C9B8E
:10022000012B01D117E0FEE7022B18D168B10D9B1D
:10023000B3F5801F02D14FF4A01305E00D9BB3F579
:10024000E01F02D14FF400130D930D9963680B4327
:1002500043F4803302E0636843F46013636023680F
:1002600043F0807323602168234B8901FBD55968D3
:1002700021F003015960596841F002015960636837
:100280001D4903F00C03082BF9D14B68DFF88C8073
:1002900003F00C03042B03D0082B03D0194B12E0FE
:1002A000136810E04B684868C3F38343C70303F146
:1002B000020301D4174905E0496811F4003F1168B1
:1002C00018BF49084B43C8F8003063681249C3F3AC
:1002D00003130B44197ED8F80030CB40C8F8003027
:1002E0001368084A93421BD101221DE0338900089C
:1002F000C8000020D03300200010024098100020D9
:100300000020024000127A00041001403800002052
:10031000001BB70000093D00A8910108540000200F
:100320008A4A934202D10222894B1A70DFF878A2DE
:10033000884BDFF878C2CAF80C30A3690DF1880B3E
:1003400043F00103A361636A834FB360636A60464D
:1003500043F080736362A3694FF0000943F01C030C
:10036000A3614FF6FF732BF82C3D5946CDF80CC016
:100370008DF85E900CF04DFF384659460CF049FF61
:10038000594676480CF045FF754A5846536843F085
:10039000007353600FF0E6FF724A179B4946B3FBA8
:1003A000F2F3714A714813600C2217F050FAD8F832
:1003B00000304FF47A72B3FBF2F36D4A013B5360A5
:1003C000F0238AF823300723C2F808901360AB6843
:1003D000DFF8DC91DFF8DC81C9F8003098E80F0025
:1003E0008BE80F00A3694FF0100A43F00803A361E4
:1003F000A369179843F00803A36108233B6118A978
:10040000C7F810A00CF005FF19981AA90CF001FF0D
:10041000D9F80020100713D5564B93F89021012AE4
:100420000ED8554993F89121896811F0805300F056
:10043000E48505E04F4B002283F8912109F0D8F8BC
:10044000642010F0EEFBA0224C48002117F0FFF9C9
:10045000E369002243F00703E361A36943F4006307
:1004600043F00C03A361444B4FF0000803F10C016F
:1004700002F8018001320E2AF5D1FF229A76DA764F
:100480001A775A773E4B3F4A41461A603E483C2213
:10049000D9F8004017F0DBF94146C4F38017052373
:1004A0003A4ADFF8E4E0885C0C224A4302F80E0086
:1004B00047B91E3801289FBFFF2003F1FF3302F820
:1004C0000E00DBB201310529EAD1314A95F805A0C9
:1004D0001370304B304983F800A0304B264A33620A
:1004E000C0330B602E4BA10603EBCA035B7848BFF9
:1004F00001235362002340F2DC512A4A22F81310F0
:100500000133082BF7D110A800211C2217F09FF906
:1005100014F4007CDFF8A09004F400684ED0A3042B
:100520000AD4B8F1000F0AD095F8842109F10C0320
:10053000012A08BF4B4604E0CDF8109002E009F113
:100540000C030493CDF858B03AE000BF001BB7008D
:10055000FB3300200005FA05000C014000100140AB
:100560000000014040420F00C82C00203420002031
:1005700010E000E098100020C8000020102D00209E
:100580007C2000208A12002080200020E1BC01088D
:100590004D100020C80800202C2E0020A81000209C
:1005A00058BA0108B80F002000ED00E00008014033
:1005B000E02F0020D0910108A8910108CDF810C0CB
:1005C000BAF10E0F04D00AF0EF0ABAF1080F02D107
:1005D00001238DF852300120CDF814C007F0F6FA4F
:1005E000DDF814C018B14088003018BF0120C4F3F2
:1005F00040038DF84630C4F3403300F001008DF81D
:100600004030C4F3C0338DF845008DF849708DF843
:100610004330B8F1000F07D095F8848108F1FF3717
:10062000D7F1000848EB0708C4F300438DF84A30BF
:100630001CF1000318BF01238DF84B30736A04F0DE
:100640000101003318BF01238DF84C30C4F300536F
:100650008DF84D30B5F84631C4F3C002ADF85030D6
:10066000B5F85231B5F84471ADF84E30C4F380435B
:100670008DF8473095F85431ADF85670181C18BFF6
:100680000120E40448BFAF4C8DF8480048BFB4F8DF
:100690004C41B5F8500148BFADF85640B0F5FA7F6F
:1006A0008DF844808DF841108DF84220ADF854004B
:1006B00002D90BB9ADF8563095F8D431A24886F876
:1006C0002830002386F8293043709DF85230002BE3
:1006D0000CBF0023022301B902B1013309EB8309E6
:1006E000D9F838309A1E1A330793002306920593DF
:1006F000069B33F8024F06934FF6FF739C4200F0BF
:100700009F819DF84520E3B2240AE5B21AB19A1EF2
:10071000012A40F290819DF8492032B18B491A019B
:1007200089588B4A914200F086819DF84A0030B189
:1007300086491A018958864A914200F07C819DF8C9
:10074000462052B18149039E01EB03114A68B2422F
:1007500003D10A89102A00F06E819DF8432052B11E
:100760007A49039E01EB03114A68B24203D10A8918
:10077000022A00F060819DF8442052B17349754E01
:1007800001EB03114A68B24203D10A89022A00F040
:100790005281169E7EB16D4F326807EB0317796860
:1007A000914208D13A89B188914200F04481F188A0
:1007B000914200F04081022C02D19DF8402003E0DC
:1007C000012C04D19DF84120002A00F034819DF8CD
:1007D0004C205E4C1E015AB19DF8522042B9A3F143
:1007E0000802012A04D8A2595B498A4208BF04259D
:1007F0009DF84D20344452B19DF852203AB910B1C1
:100800000C3B012B01E0043B032B40F2FC80012D4B
:1008100048D1524FDFF834A1FF2387F8703087F8B2
:1008200071300AEB06035A7B586803F108091B89EB
:100830004FF00008ADF85C3017A9022387F87480E8
:10084000C7F880408DF85F308DF85E2087F82C80E7
:10085000C7F83080C7F83480C7F83880C7F86C8094
:1008600087F8728087F873800CF0D3FC5AF8060082
:1008700099F80210424609F004FA204641462A46F9
:100880000AF042FD364BC7F88C80C7F88430354BF0
:100890002046C7F8883007F1840107F188020AF082
:1008A0007BFDC8E0022D63D19DF814204FF01C0C95
:1008B0000CFB02FC294B002703EB0C0808939DF866
:1008C00014304FF0010988F87530204B88F87670A5
:1008D0009A19517B506802F1080A12898DF85E104E
:1008E00088F87E7017A988F87490C8F88040CDF811
:1008F00024C0ADF85C208DF85F500CF08AFC134BDF
:100900009AF8021098593A4609F0BBF92046394640
:100910004A460AF0F9FC1449089BDDF824C0C8F8DF
:10092000841012496344C8F8881003F18401C8F8A0
:100930008C7020460A1D0AF02FFD059B4B44059341
:1009400079E000BF98100020F1000020D8B4010821
:1009500000040040000C0140002C0140C8000020B1
:10096000F1960008D1970008BD9C0008C7960008C2
:10097000032D46D19DF84730964D974ED3B19DF843
:100980004830964F95F82A8053B1954BBDF85420C6
:100990002046B3FBF2F2082192B2BDF8563003E0D4
:1009A00020464FF6FF72082109F0C0F946F82800EA
:1009B000C76020E0BDF8542095F82A70B2F5FA7FA0
:1009C000BDF856300BD986492046B1FBF2F208211A
:1009D00092B209F0ABF9834B46F827000AE082494E
:1009E0002046B1FBF2F2012192B209F09FF97B4B54
:1009F00046F82700C36095F82A30013385F82A307D
:100A000019E0042D17D1BDF84E20774B714D93FBA3
:100A1000F2F22046BDF85030012192B295F82960DB
:100A200009F084F995F8293005EB86060133C6F8FC
:100A3000540185F82930069B079A93427FF458AEFB
:100A4000644F6A4E97F82930002487F87431684B58
:100A500034701D78A5F11703022B18D83B6A0021CA
:100A6000185903EB040813F083FF10B17B6A5BBBDA
:100A700025E0604B04EB030E98E80F008EE80F00B2
:100A8000337810340133C02C3370E7D1EEE75A4B82
:100A900013F835C003EBC503D3F8048086F800C013
:100AA000B8F1000FE2D06445E0DA524A230103EBCB
:100AB000020E43440FCB01348EE80F00F3E74F4F93
:100AC0003B68DB0424D41DE04D4B4E4A13F835003F
:100AD00003EBC5035C681070002CF0D00023834248
:100AE000EDDAC3EBC3016218D2F800C0DFF83CE1D5
:100AF000013341F80EC001EB0E079188B98092795D
:100B0000BA71ECE705F0EF03082B3F4B24D125E049
:100B10003378012BF6D93D4C04EB031303F1100697
:100B20001034B442EED054F8100C4FF07C5113F056
:100B30008BFD4FF07C5144F8100C54F8140C13F05A
:100B400083FD4FF07C5144F8140C54F80C0C13F056
:100B50007BFD44F80C0CE3E70E2D08D11A78182D14
:100B600042F010021A7008D110F0FEFA05E01A786F
:100B7000192D22F010021A70F5E710F0D9FA3B682F
:100B8000234D5E035EBF234B01221A70224A234E7F
:100B90001378234843F0040313702B784FF48052EA
:100BA000022B34BF142310238DF85E304FF0020364
:100BB0008DF85F30B369ADF85C2043F00403B36196
:100BC00034BF0024012417A90CF023FB154B7CB380
:100BD000154A2EE0C8000020DC2C0020E197000818
:100BE00000127A00F197000840420F000C2D0020FF
:100BF000C80800200408002058BA0108E02F00208F
:100C0000CCA30108B82D0020981800200C08002063
:100C1000FB330020300D0020D033002000100240B4
:100C200000080140E0330020B9090108B92D002077
:100C3000BD4A00201A6010F013F8BC4BBC4C93E87E
:100C40000300B3698BE8030043F00803B36117980E
:100C500018A90CF0DEFAF3694FF0030943F480435E
:100C6000F3613369204643F48043336118238DF8E0
:100C70005E3059464FF42043ADF85C304FF0040A23
:100C80008DF85F900CF0C5FA4FF48043204659462A
:100C90004FF48058ADF85C308DF85EA00CF0B9FAD6
:100CA0001023204659468DF85E30ADF85C800CF07C
:100CB000B0FA3369322043F480433361336923F45B
:100CC000804333619B4B1A8802F4415242F44572CF
:100CD00042EA09021A80998B072221F40061090473
:100CE000090C99831A821A8892B242F040021A8043
:100CF0009F23C4F810808DF83C3000238DF83D30E0
:100D00008DF83E308DF83F300FF08BFF5246C4F81F
:100D1000148058460FA912F0D7F8C4F810809DF837
:100D20005E309DF85D201B0243EA02439DF85F2080
:100D30001343814A934214D032200FF072FFC4F85B
:100D40001480F52012F0F6F8FF2012F0F3F8702866
:100D5000C4F8108005D12B78022B04BF774B83F8A1
:100D600000902B78032B0CBF1F20022006F0B1FE51
:100D70002B78032B03D001200CF09CFC07E0022011
:100D800006F024FF0028F6D04388002BF3D095F816
:100D900000906B4D4FF0100B284600215A463C68DE
:100DA00016F055FD4FF6FF73ADF83C30022304F406
:100DB000004804F400674FF0000A1C408DF83E30F4
:100DC0008DF83FA00DD05F480FA9ADF83CB00FF0F3
:100DD00075FC04232B700124072385F801A0AC7057
:100DE000EB70B8F1000F0ED0022356480FA9ADF8F2
:100DF0003C300FF063FC0123E2182B71AB71072329
:100E00006C71EB71D4B2B9F1010F0FD920234D48A9
:100E10000FA9ADF83C300FF051FC052301222B72D5
:100E2000AA72631C07226C72EA72DCB27FB10223E1
:100E30003F480FA9ADF83C300FF040FC09230122D8
:100E40002B73AA73631C07226C73EA73DCB273689A
:100E50003D4843F44043736073693B4F43F00103E3
:100E60007361B36943F40073B3610FF003FA374B56
:100E700000261793364B012C189394BF33468023DA
:100E80001C934FF480731D934FF480631E932023B3
:100E900017A91F9338464FF400531A9420931996BC
:100EA0001B9621960AF0E0F83B682A4A43F00103BA
:100EB0003B605368012C23F4702394BF002101216F
:100EC00023F4807343EA012353609168224B013C71
:100ED0000B40314643F4602343F002039360D36A2E
:100EE000E4B223F4700343EA0454D46201236A1881
:100EF000907800286CD06C5C581C092CC0B2D27859
:100F0000144F2BD9A4F10A06D7F80CC006EB4606FD
:100F10004FF0070E0EFA06FE2CEA0E0EB2404EEA15
:100F20000202FA6027E000BFCD090108F091010834
:100F3000000C01400038004015202000FB33002049
:100F4000F82B002000080140080002404C2401401A
:100F5000082C002000240140FDF7F1FF3E6904EB5E
:100F6000440C4FF0070E0EFA0CFE26EA0E0602FAAB
:100F70000CF232433A61062B3A4E0CD85A1E776B6C
:100F800002EB82021F23934027EA030704FA02F3CD
:100F90003B4373631BE00C2B0CD8DA1F376B02EB5F
:100FA00082021F23934027EA030704FA02F33B431C
:100FB00033630CE0A3F10D02F76A02EB82021F23F8
:100FC000934027EA030704FA02F33B43F362034624
:100FD000043110298BD1234B9A6842F480729A60B5
:100FE0009A6842F001029A609A6842F008029A6098
:100FF00099681C4A0D0739D5FAE7013A092A3FF6E4
:101000001FAAD8F82C0004935946C7F814A0CBF8AF
:10101000000003980CF0FDF8039B3C201A460823BF
:1010200013610FF0FEFD049BC7F810A01F4695F852
:1010300091319F42BFF6FEA9039BDFF82CA04FF031
:101040000808CAF810807820C3F814800FF0DEFD7D
:10105000039BCAF814807820C3F810800FF0D6FDE7
:101060000137E4E700240140000C0140936843F09D
:1010700004039360AC4B9A6812F004020392F9D116
:101080009A6842F4A0029A60A84BB3F8580100286D
:1010900040F0A686B3F95A21002A40F0A186B3F9A0
:1010A0005C31002B40F09C86A14D2B689C0320D521
:1010B000C8200FF0B6FDAE200CF067FA08B10CF0B6
:1010C00069FA9C4C84F87501C8200FF0AAFD9A4B70
:1010D0000021C4F87831994C0C22204616F0B7FB59
:1010E0000223E3700BF077FB0FF074FD944B034485
:1010F000A360944E8D4C336894F85F0194F86911A5
:1011000094F86A21B3F9563009F038FB059610B906
:1011100001200FF0F9FD8C4A0A26137843F00203F0
:1011200013708A4B10225A6108221A61874F1920C6
:10113000FB68013E83F01003FB60FB6883F008034B
:10114000FB600FF06EFD01200FF08AFD19200FF0FB
:1011500068FD00200FF084FD16F0FF06E6D108239D
:101160003B6110267A4B3E611B68180707D5794B07
:101170007E611B689847784B01223E611A70774B5D
:1011800000271E68DFF80C82307B13F009FA7449DF
:1011900013F05AFA07F036FF724B1860724B18883A
:1011A00013F0FEF901464FF07E5013F001FB6F4B38
:1011B0006B4918606E4B186913F046FA6D4B186056
:1011C000307813F0EDF901464FF07E5013F0F0FA4D
:1011D000694B014618604FF07E5013F02BF9674BB6
:1011E0004FF07E521860664B38469A601F605F6011
:1011F000644B9A601F605F6007F004FF0646384644
:1012000007F08EFE31460746304613F01DFA394688
:101210008246384613F018FA31468146504613F09C
:1012200013FA39468346484613F00EFA01465846EB
:1012300013F002F93146C8F80000384613F004FAFA
:101240003146069013F000FA069B8346394618464D
:1012500013F0FAF9034658461946069313F0EAF8D4
:10126000069BC8F804001946584613F0E5F83946BD
:10127000C8F80800504613F0E7F9314607464846DB
:1012800013F0E2F90146384613F0D4F83E4F3F4BD5
:101290000026C8F80C00FF2138461B221E7016F0ED
:1012A000D6FA38463E702A4E394B3268012112F088
:1012B000020F18BF797019701FBF03211970022126
:1012C000B970510741BF19784F1C1F70032748BFE1
:1012D000475412F00A0F0CD01A7804218154511C83
:1012E000C9B205274754D11C02321970D2B2062167
:1012F00081542A68970641BF19784F1C1F70072731
:1013000048BF4754110608D51978092747548F1C40
:1013100001311F70C9B20A2747546779082F3BD0A3
:101320000E2F42D138E000BF002401409810002069
:10133000E02F0020C8000020201200208829002073
:10134000404B4C00C80F0020D0330020000C01405F
:10135000941800206C200020EC050020602B002059
:1013600035FA8E3C5C2B00201C000020142B002042
:10137000C41F0020182B0020742B0020642B002099
:10138000782B0020682B0020910F0020D22A00200B
:10139000900F00204C2B0020197801F1010E83F8EA
:1013A00000E04FF00B0E00F801E0197812F4803FD6
:1013B0004FF00C0C00F801C001F1010E1CBFDFF86A
:1013C00074C202315FFA8EFE83F800E01FBF8CF812
:1013D000001097494FF00E0C01F80EC0510748BF9E
:1013E00019784FF0120C41BF01F1010E83F800E0B3
:1013F000102343548F4912F4806F0B7803F1010ED0
:101400005FFA8EFE81F800E000F803C00BD094F87C
:101410001CC2BCF1000F06D002330B70844B4FF09E
:10142000130C03F80EC00B7812F4007F4FF0140C6D
:1014300000F803C003F1010E1CBFDFF8F8C102334E
:101440005FFA8EFE81F800E01FBF8CF80030784B09
:101450004FF0150C03F80EC0182F13D10B784FF076
:10146000160E00F803E003F1010E5FFA8EFE4FF056
:10147000170C00F80EC003F1030E0233DBB281F843
:1014800000E0C754110341BF6A490B785F1C0F701D
:1014900044BF1921C154D30541BF664A1378591C72
:1014A000117044BF1A22C25400219822624816F0DB
:1014B000CEF909F096F8614A614BB4F84E111A6002
:1014C000604BB4F8960119805F4900230B808B7044
:1014D0005E490A605E4A81B213705E4A22F81310B8
:1014E0000133122BF9D12B68DF0458BFB4F89C11DB
:1014F0001B07D18040F1028194F89031062B00F255
:10150000F780DFE803F004070E395576760045F2E0
:10151000F05201E042F6F8224F4B1A8009F0EAF847
:10152000E5E042F6F8224C4B1A8013F039F84B49AB
:1015300013F08AF84A4912F07DFF13F071FA002384
:10154000484A42F823000133122BF9D1464A474951
:1015500040201160464A13700FF05CFA002800F03A
:10156000C78001234FF0070990F9000040218DE862
:101570000802404A404BB5E042F6F822364B402084
:101580001A803E4A384B1A60394B10221A700FF0FD
:1015900041FA002800F0AC8001234FF0000890F9D8
:1015A000000040218DE80801354A4FF4E13399E00D
:1015B00042F6F822284B40201A80324A2A4B1A6001
:1015C0002B4B08221A700FF025FA002800F09080AB
:1015D00001234FF0000C90F9000040218DE8081025
:1015E000294A4FF4E13306F0A1FA284BC3F87C01F5
:1015F0007AE042F6F821184A062B11801C494FF078
:101600000C02DFF8A0E0224F22480A704CD00023E1
:101610003B708EF8003003701F4B1B2119701F4B5D
:101620004FF4E1371A701E4B05221A7049E000BFD3
:10163000910F0020900F0020141F00202012002086
:10164000680E00206C0E00209433002088330020A8
:10165000EB0D00201C30002072070020CDCCCC3FC9
:101660000000B0447432002024000020313801080A
:10167000B01F0020D9390108A08601001D380108DB
:101680002D39010809380108E1380108C800002097
:10169000A92B0020A82B0020CB2B00208333002077
:1016A000CC2B0020843300200021397001708EF88B
:1016B00000103C49212008703B493C4F0A703C4ACD
:1016C00013703C4A3C4B40201A600FF0A3F978B1EC
:1016D00001234FF0000E90F900008DE808403B46D2
:1016E000364A402106F022FA003018BF012028B9FE
:1016F000082007F0B1FC324A2F4B1A602B68314AA0
:1017000013F4804F1FBF122111702F482A4918BFB0
:10171000086042F20101194099B144F620602B495A
:101720000880980441BF082111702948224948BF08
:101730000860D90741BF0C21117026481E4948BFD7
:10174000086011781F06A1F10401517040F18580F5
:101750002148DFF890A04FF00008204F41461522A5
:10176000C0F880A1DFF8809000F5C27087F8018092
:10177000C7F80480C7F8088016F069F8AAF10503D5
:101780004046C9F800300AF030FB154B02201B68B8
:10179000FB600FF03FF9CE4640BB802007F05CFCB9
:1017A00053E000BFCB2B00208333002090D00300F8
:1017B000CC2B002089010108240000209D01010894
:1017C00091380108B01F002061380108720700201D
:1017D0008138010871380108C80000202007002066
:1017E000043000208A1200204007002090F805C035
:1017F0007B78C5490C2202FB03125278624504D063
:101800000133DBB2042BF4D900237B70DEF8003007
:101810007A781B7890F90000002B4FF00C0303FB43
:10182000021314BF4FF0030E4FF0010E00225B783D
:10183000CDF800E00192022106F078F9B34B186070
:101840000028AAD001200AF0D0FA059B1868B04BF6
:1018500000F5C5721A600AF06FFB2B68980553D526
:10186000AC4AAD4F049B4FF010083B609369AB4806
:1018700043F001039361049B0EA91B888DF83A8005
:10188000ADF8383002238DF83B300BF0C2FC3B68DA
:10189000A2485B880EA9ADF8383004238DF83A30A1
:1018A0000BF0B7FC3B680120197A0BF09DFC3B68FC
:1018B0009B4A5B684FF00009536117A88DF861805F
:1018C0004FF0010817938DF860908DF862800EF04C
:1018D000B7FE3B680FA85B7A8DF83E908DF83C30E0
:1018E00003238DF83D308DF83F8011F0CFFA8D4BFA
:1018F0008D4A1B683C3B136033684FF0FF3243F066
:1019000010033360894B1A60894B8A4A8A4E1360F0
:101910008A4A803313602B680027D903377040F15F
:10192000B28040F22A39DFF84CA2DFF8E8B10FF0BC
:1019300037FD4FF001084A465046394686F8008088
:1019400015F085FFDBF818307D4843F00403CBF831
:1019500018304023ADF8383018238DF83B300EA9ED
:1019600003238DF83A300EF0A9FEDBF81C30754ADF
:1019700043F00203CBF81C30734B744E1B68ABF67C
:10198000947BB3FBF2F33288013B22F45C721204C5
:10199000120C32809BB21D22B2853385A6F81480CA
:1019A000338C23F001031B041B0C3384338CB1886C
:1019B000328B23F0020322F0730212041B04120C78
:1019C0001B0C89B242F0600243EA0803B180328303
:1019D000B7863384338B23F008031B041B0C43F0BE
:1019E00008033383B6F844306FEA43436FEA534346
:1019F0009BB2A6F84430DBF8A83F43EA0803CBF8D3
:101A0000A83F58460EF036FC514BCDF860A0179316
:101A100080231C934FF480734FF0100A1D93584697
:101A20004FF4005317A920931B971E971F972197D8
:101A3000CDF864A0CDF8689009F016FBB3890FA823
:101A40009BB243F40073B381DBF8003043F0020330
:101A5000CBF800308DF83CA08DF83D808DF83E70BD
:101A60008DF83F8011F012FA3A4B03991A683A4BFD
:101A700043F821200B460133202B0393F4D10BF0C4
:101A8000D5FA0BF0D3FA2B685A0540F19080334E0B
:101A9000334BD6F8C4840420C3F800800EF0BAFF9C
:101AA0000421C6F8C80406F047F92E4B86F8CC048A
:101AB0000820C3F800800EF0ADFF2B4B0821186002
:101AC00006F03AF9294F86F8CD04002138462C2239
:101AD00015F0BDFE8E237B704FF07C0AE0234FF0A3
:101AE0007D09FB7087F800A087F82B90204F2C22EF
:101AF0000021384615F0ABFE8A237B701020A0230E
:101B0000FB7087F800A037E06C9201088429002060
:101B1000BC0E0020001002401C070020000C0140F9
:101B2000000401400430002018070020E80F0020C6
:101B3000C412002060190020310D0020C8290020A7
:101B40000008014000366E015400002000040040EF
:101B500034040040F8910108320D0020C800002034
:101B600088180020E01800202C190020B018002050
:101B7000E51800206102002087F82B90C6F8D08479
:101B80000EF048FF1021C6F8D40406F0D5F886F808
:101B9000D8042020C6F8DC840EF03CFF2021C6F8D3
:101BA000E00406F0C9F886F8E4040AF0EBFC734B95
:101BB000734E1B78022B67D1724A0027138832209C
:101BC00023F040031B041B0C138013884FF4805830
:101BD00023F038031B041B0C138013889BB243F0C3
:101BE000400313809F238DF83C308DF83D708DF8B5
:101BF0003E708DF83F700FF014F88DF85D70624FF5
:101C00000422C7F8148017A80FA911F05DF9C7F8CE
:101C100010809DF85E309DF85D201B0243EA024271
:101C20009DF85F301343594A934219D00AD8A2F560
:101C30001A42033A93420CD002F51A4202329342FE
:101C400009D01CE0524A934205D00132934207D09A
:101C500015E0202300E0802333804FF4807302E0FE
:101C60004FF4807333807380B38832881B02B36073
:101C70005343F360474B012283F8E52404E000233B
:101C800033807380B360F360F66826B3F60AB0461B
:101C90004FF00009B1450BDA09EB06077F100DF193
:101CA0005C0AF802514610220BF020FC0F2807DCDA
:101CB0000AF0F4FA374B4FEAC822C3F8E8240AE0E6
:101CC00000235AF82320013254D10133042BF8D1D8
:101CD000B8463E46DEE72B682F4A13F4002318BFB0
:101CE000012313700EF076FF2C4B2D491860637999
:101CF000052B02BF2B4B4FF4C8721A802A4B4FF4AE
:101D00007A721A80294BC8221A80294A137843F024
:101D100008031370274A137823F00203137040F668
:101D200002030A6813406BB12348244B1860244B0C
:101D300003201870234B01201870234800230380D0
:101D400022480380930341BF214B04221A71DA78A1
:101D500044BF42F00102DA701E4B01229B680B6007
:101D60001D4B1A701D4A137863F07F03137023B064
:101D7000BDE8F08F07F101093746AAE7FB330020E1
:101D80000C00002000380040000C014018BA200070
:101D90001740EF00C800002040300020440700201A
:101DA000E02F0020E62A0020F6330020F033002048
:101DB00098180020F933002012120020801800200B
:101DC000E418002048000020600F0020620F00206F
:101DD0008829002098100020300D0020D0330020EA
:101DE000424B00221A7000B212F0DAFB404912F0A6
:101DF0002BFC404C0646B4F95A0112F0D1FB3C4989
:101E000012F022FC0546B4F95C0112F0C9FB384916
:101E100012F01AFC0446304607F0F4F880463046CB
:101E200007F07EF80646284607F0ECF807462846F5
:101E300007F076F80546204607F0E4F8824620468B
:101E400007F06EF841468146504612F0FDFB4146D0
:101E50008346484612F0F8FB51460590304612F092
:101E6000F3FB49460690304612F0EEFB39460790E8
:101E7000504612F0E9FB204C4946206007F1004033
:101E800012F0E2FB29466060A560069812F0DCFBC8
:101E90000146059812F0D0FA2946E060079812F042
:101EA000D3FB0146584612F0C5FA3946206106F1C7
:101EB000004012F0C9FB29466061584612F0C4FB8D
:101EC0000146079812F0B6FA2946A061059812F06B
:101ED000BBFB0146069812F0AFFA4146E061384676
:101EE00012F0B2FB2062FFF7DFB800BF3C00002019
:101EF00035FA8E3C98100020D42B002093492DE910
:101F0000F04F0A68924C02F59C4320332360914BBA
:101F100089B01E788946DFF86882C6B18E490968A3
:101F20008A4240F2EA80013E1E70E6E0D8F80030B6
:101F3000072D98BF595D894B88BF29461B68884883
:101F40009847032D0AD904EB4505A8800136844B38
:101F5000F5B21A78AA421A46E8D820E0D8F800204C
:101F600005F10E0302EB83039988DA880028EAD092
:101F70004FF47A73401A5843531A90FBF3F040F62B
:101F8000C90300F57A70984205DC40F2EE239842CE
:101F9000B8BF184601E040F6CA0080B2D3E742F26B
:101FA0000107704B1B681F40B7FA87F794F8283079
:101FB0007F0923B92FB1664B93F8293002E0012342
:101FC00000E03B4692F800A094F82B200326B2FBD9
:101FD000F6F60F2106EB460684F82A10961BD8F871
:101FE0000010DFF8A0B1F6B2002555454DDA1BB15F
:101FF0005D4830F8150000E01846B1F814E0864559
:1020000003D8B1F816E0864515D2E8B203920291E2
:10201000019311F055FD032DDFBF4FF0010E94F831
:102020002AC00EFA05FE2CEA0E0E019B0299039AB5
:10203000D8BF84F82AE007BB94F874E02BF81600A8
:10204000BEF1000F06D1022A17D941484FF0010E08
:1020500080F874E0BBF800E0BBF802007044BBF805
:1020600004E07044DFF820E180B22EF8150000B2E1
:102070004FF0030E90FBFEF080B2DFF8FCE00BF1B6
:10208000060B2EF815000135AFE794F82A203748E3
:10209000A2F10F077A427A4184F88E20344B6AB15C
:1020A000344A1268560109D40268D9689A60521AF3
:1020B000C82A1DD9012283F8212019E002689868F6
:1020C000DA605B68121A9A4288BF294B4FF0000110
:1020D00084F8281088BF83F821100025554507DAB9
:1020E000E8B211F0EDFC244B23F815000135F5E7BB
:1020F00094F82B30013384F82B301A4E3368DD040A
:1021000005D51C4B1B68D80701D411F035FBD8F856
:102110000020D9F80070907A002837D01649137B38
:10212000013831F810001BB1C0F53B60083080B2B7
:1021300000B2A0F57A70B0F57A7FA8BF4FF47A703C
:1021400020EAE07012F02CFA0C4954E0DC33002055
:10215000C00D0020903300208C330020240000208C
:10216000B01F0020E02F0020C40D0020043000200C
:10217000943300208C0F00201C30002000007A4493
:1021800088330020EC0D0020360E0020336819043F
:102190003AD5D4F89030904DFB1A002B34DB07F57C
:1021A0009C432033C5F890308C4BD27A59798C4BB4
:1021B00033F8113095F894109BB293FBF2F3013190
:1021C00001F00F0285F894202A4482F895300346E6
:1021D000844A825C0130134410289BB2F8D11BB2B0
:1021E00093FBF0F000B26428A8BF642020EAE070FE
:1021F00012F0D6F97C4912F0DBFA7C4912F024FA8D
:1022000012F00EFC7A4B188033687A4D13F4807FFD
:1022100000F00981784BDFF8F0919F4205D999F8D9
:10222000022012B9012289F8022099F80220002A1E
:1022300000F0F980714A94F828709246116895F878
:102240000080002FC1F38063C8F38008019314BF9E
:102250004FF0000B4FF0030B99F82020052A00F2F5
:10226000DC80DFE802F0034E537988A5B8F1000F57
:102270003AD0D4F8A800B4F8AC100EF068FC0128ED
:1022800009D15F495F4A09681268C988642000FB68
:102290000122C9F81020019B6BB1594A12681279CA
:1022A0004AB111F083FE032289F820204FF47A729C
:1022B000C9F81C20D0E7002F40F0AF80514AD9F870
:1022C00010101068504A88420AD9029211F06EFE2E
:1022D000029A032182F8201040F6B831D161BBE7A1
:1022E000012182F82010B7E7019B4FF4806013B101
:1022F00006F0A2FE01E006F08FFE0022C9F81020D1
:102300008BE0002F49D111F051FEA5E727B105223E
:1023100089F82020012000E03846B8F1000F0CD0E9
:10232000D4F8A8204FF0020BD189384A118051808F
:102330009180334909684988D180324A1168D9F8B7
:102340001420914202D8B8F1000F63D147F2305205
:10235000C9F81C20032221E02A7842F002022A70E8
:1023600011F00AFA274AD9F81C1012680A44C9F871
:102370001820042212E0234A9FB11168D9F81820CE
:1023800091424AD9224A12781AB9DAF80020D307C2
:1023900043D42A7822F002022A70052289F82020EC
:1023A0005AE71268D9F81C100A44C9F8182034E01A
:1023B0001349144A09681268C988642000FB012285
:1023C0004FF48060C9F81020002289F8202089F895
:1023D000032006F021FE3FE7C00D0020F82B00206F
:1023E000082C0020550E00200000C84200C07F4489
:1023F000EC0F0020F9330020404B4C008C0F0020E4
:10240000CC33002004300020943300201C30002006
:102410000800002000287FF41FAFBBF1000F02D09E
:1024200058460EF037FC924F07F5C470B7F84E11BE
:102430000EF08DFB0197834668B911F0A9FD8D4B15
:102440000022C3F800B0C3F804B0C3F808B08A4B48
:102450001A605A609A602B785F0736D53368D806C1
:1024600033D5864B1B78D9062FD4854B1B789BB16F
:10247000019B93F8E031BBF1000F15D17BB1814B8B
:102480001A68D4F8B0309B1A002B08DA11F074F9EE
:102490007D4B83F8B4B018E0BBF1000F0DD11020D4
:1024A0000EF0F8FB01230EE03BB1764A4FF47A714F
:1024B000126801FB0323C4F8B03094F8B43023B1A0
:1024C0000EF0D4FB002384F8B430019B93F8DEA116
:1024D00093F8DF11B3F898E1B3F89AC100231846D6
:1024E0006A4F800837F9132001337245C4BF60F08A
:1024F0007F00C0B26245B8BF40F04000042BB9462F
:10250000EED194F8B530604A834205D192F8B630E6
:10251000F92B04D8013300E0002382F8B630584B81
:1025200084F8B5001A785A4F9846E2B93B68DA0742
:1025300008D5BBF1000F16D12B78DB0713D510F0AF
:102540006BFF10E02B7858070DD54F4B93F82830D0
:102550004BB1504BDB7833B911B111F00DF902E0FA
:10256000BBF1000FF9D094F8B630474A142BDFF8CE
:1025700040B140F0AF8098F800301AF1000A18BF5F
:102580004FF0010A6BB392F8B5305F2B11D12B7865
:1025900003F0040303F0FF0113B111F0EDF808E0BC
:1025A0000B20039102920EF075FB029A039982F8B8
:1025B000B610BAF1000F14D094F8B5307D2B10D1BD
:1025C0002B7803F0040303F0FF0213B111F0D4F8E9
:1025D00007E00B2002920EF05DFB2B4B029A83F872
:1025E000B6202B7803F0040303F0FF01002B71D118
:1025F00094F8B530244A572B15D1274B4FF47A72F3
:102600001A803368190601D509F0E6FC234B1B68D4
:102610005A0742BF224A0A21118013F0080359D1F8
:10262000204A138056E03068400716D55A2B14D143
:102630001D4B187820B119701C4B01221A7049E00B
:1026400092F8B73083F0010382F8B7300BB10C2059
:1026500000E00D200EF01EFB3CE05D2B00F01D8520
:102660005B2B00F01C855E2B24D1032000F018BDED
:1026700098100020242A0020D82900209818002033
:102680000800002004300020C00D00201C30002075
:102690008C0F002094330020F63300209418002083
:1026A000F033002088100020112B0020122B002076
:1026B000C80F0020562B01D106F09AFF98F8003081
:1026C000002B00F0038594F8B5306F2B40F0F884B0
:1026D00010F0A2FE3368580732D594F8B730A3B192
:1026E0002B78590711D5019BB9F90620B3F8983119
:1026F0009A420ADD3B6813F0010301BFAC4A322164
:102700001180AC4A08BF82F8B7303B68DA030AD5BB
:10271000A94B1A782AB9A94A127812B9A44A3221C7
:10272000118001220BE0A54A13784BB12B7803F0FE
:10273000040303F0FF011BB9A14B117001221A70B1
:10274000DBF8009000233B6009F17B0809F1CB0A1C
:1027500098F8002098F8013018F8010C9A420BD232
:1027600041460EF0BFF938B118F8022C012303FAE4
:1027700002F23B6813433B6008F10408D045E7D1FF
:10278000904B1B7853B1904B904F1A68984612F0BB
:10279000020FDFF8509240F0388330E309F1CA07A6
:1027A00009F589783A787B7817F8010C9A4225D296
:1027B00039460EF097F908B397F804E00C21BB787E
:1027C00001FB0E41824A013B03EB43031344D1F862
:1027D000BC2097F803909A4276480FD0C1F8BC30DD
:1027E000002390F8E820C1F8C030012303FA0EF36B
:1027F00022EA030381F8B89080F8E83006374745AD
:10280000D0D1744BDFF8E0A1D3F80080724B4FF0C9
:10281000000B1B68029394F828300393DAF8003019
:10282000002B00F0E38293F80090B9F1000F00F064
:10283000DD82DAF8042002998A1A002A0CDB01F5FD
:10284000FA72CAF8042094F8E810012202FA0BF296
:1028500021EA020284F8E820039A002A00F0C682E6
:102860001AF8042C59780432D2B2002940F07F8241
:102870005A4931F912105A4AB2F8962102F1C800A9
:10288000814201DD9F7814E0C83A914202DA9978DA
:102890004F420EE094F8E820012303FA0BF322EAFA
:1028A000030384F8E830029B03F5FA73CAF8043096
:1028B0009CE294F8E83043FA0BF3DB0700F19682D0
:1028C000002FCCBF022001200EF006FA09F1FF32E2
:1028D000384B132A00F28282DFE812F01400230042
:1028E0003200440061008800ED005201B701EA01A6
:1028F00019028002440055008800ED005201BF001B
:102900002401890198F8001040460F44FA2FA8BF0F
:10291000FA2727EAE77788F800700EF0C9F8012057
:102920001EE098F8011040460F44642FA8BF6427AA
:1029300027EAE77788F801700EF0BAF802200FE076
:1029400098F8031040460F44642FA8BF642727EA75
:10295000E77788F80370D3F8EC100EF061F80320E5
:102960003946D1E198F805100D2039446429A8BFF3
:10297000642121EAE17188F805100EF017F9B9F128
:102980000D0F00F02B8298F804100E2039446429B2
:10299000A8BF642121EAE17188F80410B4E198F835
:1029A00006100520394481F3080188F80610ABE1D0
:1029B000F82A0020C00D0020102B0020112B002031
:1029C000122B0020FE3300208C0F002094180020D2
:1029D00074960108F00F0020043000201C30002005
:1029E000981000205C1900207C0E0020D3F8F030F5
:1029F0001A78022A22D13846049311F0D1FDA94950
:102A000011F0D6FE049B596A059311F015FD0021C3
:102A1000049011F0B7FF059B48B9049AA1491046EC
:102A200011F0CEFF049A059B10B19E4A00E00022EF
:102A30005A620F2011460EF0A5F80AE099780F208F
:102A40003944C829A8BFC82121EAE17199700EF064
:102A5000ADF8B9F10F0F00F0C181934BD3F8F090AE
:102A600099F80030022B1AD1384611F099FD8D49A2
:102A700011F09EFED9F8201011F0DEFC002107466F
:102A800011F080FF30B93846864911F099FF10B136
:102A9000844F00E00027C9F82070122057E199F810
:102AA000011012203944C829A8BFC82121EAE171C8
:102AB00089F8011028E1D3F8F0301A78022A22D1DF
:102AC0003846049311F06CFD764911F071FE049BB9
:102AD000196B059311F0B0FC0021049011F052FF26
:102AE000059B48B9049A6F49104611F069FF049A92
:102AF000059B10B16B4A00E000221A6310201146BA
:102B00000EF040F80AE0197B10203944C829A8BF0C
:102B1000C82121EAE17119730EF048F8B9F1100FDC
:102B200000F05C81604BD3F8F09099F80030022BF4
:102B30001AD1384611F034FD5A4911F039FED9F84E
:102B40002C1011F079FC0021074611F01BFF30B961
:102B50003846544911F034FF10B1524F00E00027BD
:102B6000C9F82C701320F2E099F80B1013203944A7
:102B7000C829A8BFC82121EAE17189F80B10C3E078
:102B8000D3F8F0301A78022A22D13846049311F093
:102B900007FD464911F00CFE049BD96B059311F01B
:102BA0004BFC0021049011F0EDFE059B48B9049AFE
:102BB0003C49104611F004FF049A059B10B1394AB4
:102BC00000E00022DA63112011460DF0DBFF0AE07D
:102BD000997D11203944C829A8BFC82121EAE17193
:102BE00099750DF0E3FFB9F1110F00F0F7802E4B4E
:102BF000D3F8F09099F80030022B1AD1384611F032
:102C0000CFFC2A4911F0D4FDD9F8381011F014FC8A
:102C10000021074611F0B6FE30B93846214911F0BF
:102C2000CFFE10B11F4F00E00027C9F83870142004
:102C30008DE099F8151014203944C829A8BFC8217F
:102C400021EAE17189F815105EE0D3F8F09099F867
:102C50000030022B1AD1384611F0A2FC114911F0B4
:102C6000A7FDD9F8281011F0E7FB0021074611F065
:102C700089FE30B938460B4911F0A2FE10B1094F58
:102C800000E00027C9F82870092060E099F80310D7
:102C900009203944C829A8BFC82121EAE17189F86F
:102CA000031031E00000C842C00D002000007A444B
:102CB000D3F8F09099F80030022B1AD1384611F071
:102CC0006FFCB44911F074FDD9F8341011F0B4FB65
:102CD0000021074611F056FE30B93846AD4911F0D3
:102CE0006FFE10B1AB4F00E00027C9F834700A2026
:102CF0002DE099F80D100A203944C829A8BFC82131
:102D000021EAE17189F80D100DF050FF66E0D3F86B
:102D1000F09099F80030022B1DD1384611F040FC9C
:102D20009D4911F045FDD9F8401011F085FB0021B7
:102D3000074611F027FE30B93846964911F040FE9B
:102D400010B1944F00E00027C9F840700B203946BD
:102D50000DF018FF42E099F817100B203944C829EC
:102D6000A8BFC82121EAE17189F81710CCE7012931
:102D700034D19878894B33F91230B3F5617F05DB94
:102D800040F633029342A8BF134601E04FF461734B
:102D9000B9F10C0F22D14FF4966292FBF0F0A3F53B
:102DA000617393FBF0F37E4ADFB21378BB4215D018
:102DB000042F34BF3B4602231370019A09FB0323FF
:102DC000784A03F2B673136006F01EFA4846394695
:102DD0000DF0ECFE781CC0B20DF07EFF94F8E820F8
:102DE000012303FA0BF3134384F8E8300BF1010BD2
:102DF000BBF1040F0AF10C0A7FF410ADC3E4336891
:102E0000D80510D5684BDB786BB13B6899070AD5BC
:102E1000B9F8003013F0010A0AD111F0B9F8012015
:102E200006F00AF904E0012006F0F6F8012300E0BC
:102E30000023D8F8002052070DD563B1012006F019
:102E4000EBF8B9F800309B0708D411F0A1F8022084
:102E500006F0F2F802E0022006F0DEF8B9F80030E1
:102E6000524A13F0030F4FF0100114BF516111616A
:102E70003A6812F00A0F27D0D8F80020D00609D5FA
:102E800059070AD4042006F0D7F8494B1B88A4F848
:102E9000F43002E0042006F0BFF8D8F800309A06BB
:102EA00007D5B9F800305B0606D4402006F0C4F818
:102EB00002E0402006F0B0F8D8F80030580642BFD3
:102EC0003B4B1B88A4F8F6303B68990609D4D8F828
:102ED00000301A0540F1B0804FF4807006F0ACF875
:102EE000AEE0344B1B789B076ED5334B1B78042B1D
:102EF0006AD9D8F8003013F4007A0FD0B9F800304E
:102F0000DF063AD4102006F097F8202006F084F867
:102F10002A48011D08F0CAFF02232AE0B9F8007010
:102F200007F01007BFB22FB1102006F075F8012787
:102F300084F8F8A0D8F80030580512D5D4F8FC3041
:102F40001F495A89B1F90030002BB8BF5B42934248
:102F500007DAB1F90230002BB8BF5B429342C0F2EE
:102F60000781B9F80030990608D5202006F054F8FA
:102F7000002384F8F830012700E0002794F800319E
:102F80009BBB0E200DF086FE0E4B012283F8002124
:102F90002BE000BF0000C84200007A441C30002033
:102FA000982F0020F00F002094330020000C0140E7
:102FB00088100020981800209E180020F80F00208C
:102FC00090100020C00D0020B9F8003003F030034D
:102FD000002B3FF47CAF102006F01EF8202006F0F6
:102FE0001BF8002384F8F83002E0002F3FF46FAFA5
:102FF000002214466B4B002023F814006A4B191D65
:1030000003F10A0721F814000021D1511744786018
:10301000B96023F8140003F132075A33D151D1506B
:10302000174413447860B960586099601432002CDA
:103030007FF44DAF0124DDE74FF4807005F0ECFF25
:103040005A4B5A791C46082A01D00E2A02D1402038
:1030500005F0E2FF33685A0540F1A08094F81C3275
:103060001BB92B7813F0040F03E0D8F8003013F4E9
:10307000002F0BD04E4B00221A703C2007F0C2FFED
:10308000002800F08B800FF035FCF6E709F07AFAA3
:1030900009B0BDE8F04F07F0A4BA012000E002201B
:1030A0005FFA80F8019A08F1FF3382F8B43706F02E
:1030B00005F806F0CDF840460DF00EFEFFF70ABB0E
:1030C000BAF1000F02D07E2B3FF402AB94F8B5307A
:1030D000972B05D1374B4FF4C8721A80FFF7FABA15
:1030E000A72B06D1344A137843F004031370FFF77B
:1030F000F1BA0022BB2B079201D1022303E0B72BC8
:1031000004D14FF6FE73ADF81E3009E0BE2B01D19D
:10311000022303E0BD2B1AD14FF6FE73ADF81C302D
:10312000DBF80030BDF81C10B3F858200A44A3F8AF
:103130005820BDF81E10B3F85A200A44A3F85A20AC
:1031400006F056FA002384F8B630FFF7C3BA792B9D
:1031500004D11A4AD37823F0010306E07A2B7FF4D6
:10316000B9AA164AD37843F00103D370FFF7B2BA75
:10317000B9F800309B063FF501AF202005F05CFF59
:103180000F4B10481A685B68011D4360026008F02D
:103190008DFE0D4B012783F8F870EFE609B0BDE80E
:1031A000F08F00BFF2330020C20E002098100020E4
:1031B00078200020E62A0020981800208829002086
:1031C000A018002000100020C00D0020BA4B2DE9EF
:1031D000F04FB3F90610B94B91B01F6801937A898B
:1031E00091420EDBB1F5FA6FFC79BFBF8B1A6343D6
:1031F000A2F5FA6493FBF4F4ACBFC4F16404643444
:1032000000E06424AE4BAF4A1868B2F896A10546B8
:1032100092F95E21049092B205920293002240F24C
:10322000E630A54B4FEA420B33F912300393CAEB59
:10323000030303F2F316864203D8002BB8BF5B42A8
:1032400001E04FF4FA73022A049E4FF064002FD07D
:1032500096F811E1BEF1000F04D07345CCBFCEEB60
:103260000303002393FBF0FCDFF8A0E26FF0630997
:103270003EF81C8009FB0C390CF1010C3EF91CE0F6
:103280000FFA88FCCCEB0E0E0EFB09FE9EFBF0FE47
:103290008D4EC64426F80BE0BE18367973438B4E2C
:1032A00093FBF6F364339BB2634393FBF0F02DE0A2
:1032B00096F812E1BEF1000F04D07345CCBFCEEBFF
:1032C0000303002393FBF0F0DFF82C826FF0630C14
:1032D0000CFB003938F910E0013038F91000002BF0
:1032E000CEEB000000FB09F999FBFCF90598CEEB49
:1032F000090909FB00F97448B8BF5B42A0F80490C3
:10330000B8794343714893FBF0F064306B784FF029
:10331000640E434393FBFEF36D4E022AB354EB7AE3
:103320006C4E00FB03F393FBFEF3B3546B7D664ED0
:1033300000FB03F090FBFEF0674B9854674B0FD1F6
:1033400083F802E0039B53450EDB5E4CB4F89821F2
:10335000914215DBB1F5FA6FA8BF4FF4FA6110E0A6
:103360009C54039B534504DA36F80B305B4226F835
:103370000B300132032A05F101057FF450AFE4E779
:103380001146891A4FF47A735943C2F5FA62B1FBB8
:10339000F2F1642791FBF7F2DFF874E16FF0630359
:1033A0003EF8120003FB021101323EF9122003B273
:1033B000D21A514391FBF7F30344F380484B424D3B
:1033C0001B885F063BD5474A474B10881B88181A55
:1033D00000B211F0E5F8454911F036F9074605F05D
:1033E00011FE8046384605F09BFD0746B5F9020000
:1033F00011F0D6F88146B5F9000011F0D1F8414638
:10340000824611F021F939468346484611F01CF9ED
:103410000146584611F00EF811F0DCFA41462880BA
:10342000484611F011F939468046504611F00CF922
:103430000146404611F000F811F0CCFA68802C4F9C
:103440003B68980740F19F8045F20721294B2A4DA0
:103450001A686B69D31A8B4240F395806A610DF04C
:1034600091FA264BDFF8AC901A789846032AB9F8FF
:10347000003051D10A2B59D90023282088F8003078
:103480000DF0CFFB0DF07EFA1D4B18880DF064FA9D
:103490001C4B1A68D37890FBF3F0013008281A4BC4
:1034A000A8BF08201870537980B243432B83137947
:1034B000584368833AE000BF1C300020F00F002022
:1034C000C80F002098100020901000200CFEFFFF75
:1034D000E4290020560F0020F8290020142A00209B
:1034E0005C190020B60E00208810002035FA8E3CB2
:1034F000E02F0020DC330020480F0020E4180020DB
:10350000102C00208018002048000020BA2C002039
:10351000A22C0020841800200A2B07D803239D4AE0
:1035200088F80030002313702B836B8398F80030E9
:10353000994A012B0CD002D3022B1BD023E02A8BFB
:10354000B9F800309A421EDD012388F800300FE000
:10355000B9F800106B8B8B4202DD022313700FE071
:103560008E4B1B8B0133994202DD002313700AE05E
:10357000082006E06B8BB9F8002001339A42E3DCA7
:1035800007200DF087FB3D68290573D5844B834FD9
:103590001B68FA69C2EB030845F20722904569DD12
:1035A000FB61804BB6F906B0D3F80090B4F84E1129
:1035B00099F80A30ABF57A7B012B7B4E03D042D3CE
:1035C000022B20D041E0794B396A5A7B784B082096
:1035D00033F8122091FBF0F392B2C91A8B183B62B8
:1035E00093FBF0F3BA8440F6E4429BB25343B9F83C
:1035F0000820C2EB13334FF47A725343B9F9062013
:1036000093FBF2F320E06B4BB9F808A01B78C6F8E7
:1036100000A05A0719D568480DF099FA20B915F09D
:10362000100F18BF4FF0000B0BFB0BF3322293FB74
:10363000F2F3B9F906205B445A434FF47A7392FBD4
:10364000F3F3534400E0002333603368D7E90A0101
:1036500003FB08F84FF47A7398FBF3F810EB0800BB
:1036600041EBE8710023C7E90A01544A11F0F8F967
:10367000534B1860534E3368DB0427D52F0622D5F1
:10368000514B1B789D071ED5504B187804281AD92A
:1036900000224F4B0521D718951C4FF00A0E122A15
:1036A000D154E9B287F801E004D0B0EB510F2A46BB
:1036B000EFD800E014215A18322002F8010CFF2242
:1036C0005A540F2000E00A200DF0E4FA414D2A6818
:1036D000002A56D0404B414F1868396898468142BD
:1036E0004FD83F4BDFF804911878516808BB012090
:1036F0001870B9F80030CB5C5BB31378013B00FA6B
:1037000003F2D4F8E0371A4201D10DF0A9FA354B93
:1037100001221A7010F026FAB9F80030CBB92B68E4
:103720001B78053B012B14D80DF054FA2E4B186072
:103730000FE04FF0000A83F800A0B9F80030CB5C2E
:103740003BB150460DF08CFA264B83F800A010F0E8
:1037500009FA2B68B9F800205B6824499B5CFE2BB2
:1037600002D100230B800CE0FF2B02D10DF07EFA7A
:1037700007E0D8F800000A2505FB030301323B608F
:103780000A800C4D2B78580734D5194B08225A6102
:103790006EE000BF48000020E4180020480F002021
:1037A000DC330020801800208C180020F82B00202B
:1037B000082C0020F933002020120020407E050054
:1037C000901800208C0F0020981800209E180020D0
:1037D000B82F0020D82C002004300020D02C00204E
:1037E000CC2C0020B8330020F4310020D42C002051
:1037F000000C01403268D1075CBF43F001032B701D
:103800009A4B1B781F075EBF2B7823F001032B70A8
:10381000D60248BF2B78964A44BF23F001032B7091
:10382000944B1B6813F0040F02D09349098851B9D7
:103830009249098809B1980705D4914B1B88003338
:1038400018BF012333B1022313702B7823F0010337
:103850002B7004E02978C90758BF022313700DF0BC
:10386000B9F9884B1B68C01A002801DB10F07AF9FF
:10387000854F08F087FE3E78002E00F0AD80834B28
:103880001A689846002A00F05487D8F800000DF016
:10389000A3FA002800F04D877C4B7D4C18680DF092
:1038A00098FA092801D03F2852D14FF0000A554616
:1038B0002668DFF8FC9136B17648D9F80010324618
:1038C00014F012F810B9CA4605B94D46724B09F109
:1038D00010099945EFD3EDB1D5F800C0DAF80090A2
:1038E00023681CF803E019F80300704512D15A1C34
:1038F000684958B92D2B09D8DFF894E1CEF800209B
:103900004FF0200E01F803E0885403E001F803E0D3
:103910002260E5E723680BB1554510D05F480FF0F2
:10392000DFF8554507D855F8100B0FF0D9F80920E6
:103930000FF0CEF8F5E75A480FF0D2F800262368CA
:103940009E42A2D2534B985D0FF0C2F80136F6E7C3
:103950002368002B40F0D386042840F00E874D48A2
:103960000AF044F900F0E5BED8F80000DFF83CA109
:103970000DF032FA30B3DAF800000DF02AFADBF875
:103980000030024693F84810B1BB242840F09480E0
:10399000012283F84820DBF80030DFF818A193F803
:1039A0004820062AE0D193F8490000F075FF8346CD
:1039B000002800F0AB800EF0EBFFD9F800300022B9
:1039C00083F84820374B93F83530002B40F085863C
:1039D0004C36982E00F0AD86334BF21892F84A1010
:1039E0000129F5D1DFF8CC90F358C9F800202F4A0F
:1039F000CB4613609046B7E7012904D14D2814BF88
:103A000000220222C5E7022904D13C2814BF00226B
:103A10000322BEE703290CD140284FF0000102D950
:103A200083F84810B7E758711971D9719871042259
:103A3000AFE7042906D1997983F849004A409A7181
:103A40000522A6E70529A6D15879197988429879DF
:103A500006D950409871481C18710B441A729AE7A5
:103A600090420CBF0622002293E700BF9818002066
:103A7000B833002094180020F0330020E62A0020FC
:103A8000F6330020BC330020FE330020B42F00208A
:103A9000C4290020942900200CA30108E4B80108DF
:103AA000E9B80108480F0020141F00204019002029
:103AB0002CA101083C1900202B78C94958073FF573
:103AC0006AAF232ADAF8003013D101203870C548D4
:103AD00004910360C44803920363C4480FF000F8E4
:103AE000C3480EF0FDFF0499039A0B7843F00203DC
:103AF0000B70C04B1B681B78934201BFBE4ABF4B83
:103B00001A60BF4A04BFBF4BDA6044E7DAF800200E
:103B100092F849304C2B00F090845CD8332B00F0A5
:103B2000C78421D8292B00F0548409D8252B00F014
:103B30002B84272B00F02F84232B40F01A8617E2CA
:103B40002D2B00F0578407D82B2B40F012860EF057
:103B5000F1FE607100F0BCBD2F2B00F01685312BFB
:103B600000F0408500F005BE3E2B00F0D2801DD84D
:103B7000372B00F0D18404D8352B00F0328200F0CE
:103B8000F8BD392B00F014843C2B40F0F285DFF8AF
:103B90008482D8F800A00EF0CDFE8AF80000D8F894
:103BA000003018780CF0B8FA00F092BD432B00F00A
:103BB000908406D8412B40F0DC854FF0000800F0DF
:103BC0007CBC442B00F04385482B40F0D28508F0A4
:103BD000A3FB00F07DBDD12B00F0978320D8CC2B28
:103BE00000F027820FD8C82B62D004D84E2B00F0EB
:103BF000318400F0BEBDC92B00F06083CA2B00F0F9
:103C0000928000F0B6BDCE2B00F04B83C0F0408315
:103C1000CF2B00F06282D02B00F02F8300F0A9BDE3
:103C2000D82B00F037810BD8D32B3BD027D3D42B04
:103C300000F09782D62B40F09C854FF0000885E27B
:103C4000F22B00F0EF8212D8EF2B40F09285DFF8D4
:103C5000C481D8F800A00EF077FEAAF85A00D8F870
:103C600000800EF071FEA8F8580000F031BDF32B73
:103C700000F0F284FA2B00F01D8300F07ABD2B785F
:103C800003F0040303F0FF08002B40F021850EF041
:103C900051FE022884F8B40740F2F5825A4B83F8AB
:103CA000B487F0E20EF050FE584B188000F010BDC3
:103CB00092F805804FEA5808B8F1120F03D907F0BF
:103CC0009DF900F005BD4FF0000AC24507D20EF085
:103CD0003BFE07AB23F81A000AF1010AF5E742465A
:103CE0000023434507DA07A931F81300484921F8B2
:103CF00013000133F5E7122A05D0454B002123F8C4
:103D000012100132F7E7384B012283F8342000F01B
:103D1000DFBC0EF00FFE84F8E0010EF00BFE84F81D
:103D2000DF0100F0D5BC3B4B1A6898461278022A96
:103D300040F092804FF00008DFF8D8A008F1080B9F
:103D4000DAF8003003930EF0F5FD10F025FC32494F
:103D500010F02EFD039B43F82B00DAF800B00EF0B4
:103D6000E9FD08F10A030BEB830B10F015FC2B495E
:103D700010F01EFDDAF80030CBF8040003930EF0CB
:103D8000D9FD10F009FC264910F012FD08F10E0BC8
:103D9000039B08F10108B8F1030F43F82B00CBD1C6
:103DA000B8F1070FDAF800B03CD10EF0C3FD10F007
:103DB000F3FB194910F0FCFCCBF84400DAF800B032
:103DC0000EF0B8FD10F0E8FB134910F0F1FCCBF851
:103DD0004800DAF800B00EF0ADFD8BF84C0034E08E
:103DE000F9330020B42F0020480F002019B9010832
:103DF000E9B801087C200020EFBEADDEF04F0020C6
:103E00000400FA0500ED00E098100020B40E002038
:103E1000BC320020C80F0020000020410000C84232
:103E200000007A440EF086FDC3448BF80100DAF8F6
:103E300000B00EF07FFDC3448BF80B00DAF800B041
:103E40000EF078FDC3448BF8150008F10108B8F1B5
:103E50000A0FA5D100F03CBC4FF0000AD8F800B022
:103E60000EF068FDD3448BF80100D8F800B00EF0D6
:103E700061FDD3448BF80B00D8F800B00EF05AFD6A
:103E8000D3440AF1010ABAF10A0F8BF81500E5D103
:103E900000F01EBC8046DFF880A308F1080BDAF8BA
:103EA000003003930EF050FD10F076FBD44910F073
:103EB0007FFC039B43F82B00DAF800B00EF044FDC2
:103EC00008F10A030BEB830B10F066FBCC4910F0F2
:103ED0006FFCDAF80030CBF8040003930EF034FDE9
:103EE00010F05AFBC64910F063FC08F10E0B039B5F
:103EF00008F10108B8F1030F43F82B00CBD1B8F15A
:103F0000070FDAF800B01AD10EF01EFD10F044FBD6
:103F1000BB4910F04DFCCBF84400DAF800B00EF0CD
:103F200013FD10F039FBB64910F042FCCBF8480005
:103F3000DAF800B00EF008FD8BF84C0012E00EF03D
:103F400003FDC3448BF80100DAF800B00EF0FCFC6E
:103F5000C3448BF80B00DAF800B00EF0F5FCC34454
:103F60008BF8150008F10108B8F10A0FC7D1AFE3CB
:103F70000EF0E0FC132883463FF6A1AEDFF898A2CE
:103F8000DAF800800EF0D6FC00239E490C2202FBDA
:103F90000312117A814220D1137808EB8B0888F83C
:103FA00079300EF0C7FC88F87A000EF0C3FC88F870
:103FB0007B000EF0BFFC944A944B88F87C001A609A
:103FC000DAF80000924B0021186079300CF0AEFD59
:103FD000904B80F0010018707AE301331C2BD4D190
:103FE0006DE60EF0A7FC0B2882463FF668AE8A4BC2
:103FF000D3F800800EF09EFC03283FF660AE062347
:1040000003FB0A8888F8CE000EF094FC88F8C900FB
:104010000EF090FC88F8CA000EF08CFC88F8CB00FB
:104020000EF088FC88F8CC000EF084FC88F8CD00F7
:104030004EE35379092B7FF642AE019BD3F8008003
:104040000EF078FC019B88F80000D3F800800EF099
:1040500071FC88F801000EF06DFC019B64281B6860
:10406000A8BF642018710EF065FC019B64281B68D2
:10407000A8BF642058710EF05DFC019BFF281B68EF
:10408000A8BFFF2098710EF055FC019B6428D3F85F
:10409000008028BF642088F807000EF04BFC019BCD
:1040A00088F80200D3F800800EF044FC019B88F8E9
:1040B0000300D3F800800EF047FCDAF80030A8F8CF
:1040C0000A005B790A2B40F20383544BD3F800803B
:1040D0000EF030FC88F80800FAE20EF035FC6FF4C0
:1040E000AF6283189BB2C62B98BFA4F896010EF05E
:1040F0002BFCA4F840010EF027FCA4F842010EF0BE
:1041000023FCA4F844010EF01FFCA4F8D8010EF023
:1041100011FC84F8ED010EF00DFC0EF00BFC84F8A0
:10412000EE010EF007FC84F885010EF003FC84F824
:1041300092010EF0FFFB384BD3F800800EF004FC28
:1041400000EB80004000A8F8560031E10EF0FCFBC7
:10415000334B23F8180008F10108B8F1080FF5D126
:10416000B6E253790F2B7FF4AAAD0EF0E3FB0728DC
:1041700080463FF6A4AD029BD3F800A00EF0E4FB0E
:104180000E2303FB08F8029BC244AAF81901D3F8D6
:1041900000A00EF0D9FBC244029BAAF81B01D3F881
:1041A00000A00EF0D1FBC244029BAAF81D01D3F877
:1041B00000A00EF0BFFBC244029B8AF81F01D3F897
:1041C00000A00EF0B7FBC244029B8AF82001D3F88E
:1041D00000A00EF0AFFBC244029B8AF82101D3F885
:1041E00000A00EF0A7FBC244029B8AF82201D3F87C
:1041F00000A00EF0B3FBD044C8F8230168E200BF72
:1042000000007A44E0960108D8110020AC0E00208E
:10421000B00E002008000020C80F0020F00F002082
:104220009A2F00200EF086FB0F2880463FF647AD00
:104230000EF080FBC8EBC80804EB080383F8D0003D
:1042400003F1D0080EF076FB88F801000EF072FB47
:1042500088F802000EF06EFB88F803000EF06AFB8F
:1042600088F804000EF066FB88F805000EF062FB8B
:1042700088F806000CF078FF2AE22B785B0700F143
:1042800027820DF08DFE04F019FF04F0E1FF1FE21C
:104290002B78580700F11C82C64B4FF4C8721A8065
:1042A00016E22B78590700F11382C34A137843F0C2
:1042B000040328E02B785A07E5D55AE20EF03AFBC2
:1042C000BD4B1A7810B142F0020201E022F0020266
:1042D0001A700EF02FFBB94BDFF8008318700EF048
:1042E0003DFBC8F800000EF039FBC8F804000EF0E2
:1042F0002BFBB34B18800EF027FBB24BB24A188051
:10430000137843F002031370E2E10EF013FB039005
:104310000EF024FB83460EF021FB82460EF01EFBBE
:1043200080460EF011FB0EF00FFB0EF003FB039B1B
:10433000A3B9A64B1020C3F800B0C3F804A004F042
:104340006BFE9D4A137843F001031370B8F1000F20
:1043500000F0BE819E4BC3F80080B9E1102B40F005
:10436000B7819C4BC3F800B0C3F804A0B8F1000FAC
:1043700002D0974BC3F800809648974B0222011D4C
:104380001A7007F093FDA3E1A0600EF0E7FAA368AE
:104390001843A0609CE10EF0D7FAA4F858010EF083
:1043A000D3FAA4F85A010EF0CFFAA4F85C018FE119
:1043B0000EF0C0FA84F87A010EF0BCFA84F87E019F
:1043C0000EF0B8FA84F87D010EF0B4FA84F87F019B
:1043D0007EE10EF0B9FAA4F880010EF0B5FAA4F867
:1043E00082010EF0A7FA84F884010EF0ADFAA4F869
:1043F00086016DE10EF09EFA84F890010EF0A4FAA9
:10440000A4F89A010EF0A0FAA4F896010EF09CFA16
:10441000A4F898010EF08EFADAF8003084F89101D1
:104420005B79082B40F254810EF08EFAA4F89C01BF
:104430000EF08AFAA4F89E014AE10EF07BFA84F8A5
:10444000D6010EF077FA84F8D7010EF07DFAA4F8C1
:10445000D8013DE192F805800323B8FBF3F8B8F1E9
:10446000120F3FF62CACDFF878A14FF0000BC345DC
:1044700080F02E810EF05EFA8AF8A0010EF064FA48
:1044800040F2ED23984205DD40F6CA039842A8BFEA
:10449000184601E040F2EE20A0F2EE20192390FB36
:1044A000F3F00BF1010B8AF8A1010AF1020ADEE731
:1044B0000EF040FA84F892010AE10EF03BFA04EBA8
:1044C000080308F10108B8F1080F83F88801F4D156
:1044D000FEE00EF02FFAC4F808B060710EF03EFA5C
:1044E000A3681843A0600EF025FA84F890010EF03E
:1044F0002BFAA4F858010EF027FAA4F85A010EF08E
:1045000023FAA4F85C010EF01FFAA4F880010EF063
:104510001BFAA4F88201DBE053794FF0070AB3FBE2
:10452000FAF2C2EBC2029A1A12F0FF0F7FF4C7AB85
:10453000B3FBFAFA0AF1FF3A5FFA8AFABAF1FF0F0F
:1045400000F0C6800EF0F6F95FFA80FB4FFA8BF0B0
:1045500003F03CFB804600283FF4B1AB80F800B08C
:104560000EF0F2F9A8F802000EF0E4F988F8040061
:104570000EF0E0F988F805000EF0DCF988F8070085
:104580000EF0D8F988F80600D4E7DFF8548008F177
:10459000400A0EF0D9F9A8F8AC020EF0CBF988F871
:1045A000AE020EF0C7F908F1040888F8AB02D04556
:1045B000EFD18DE0E62A0020981800209E180020F8
:1045C0009C1800209A180020F60F0020F80F0020F9
:1045D0000810002000100020B80E0020A0180020B5
:1045E000981000200EF0A6F91F2880463FF667AB12
:1045F000D9F800305B79082B7FF461AB0EF0A4F999
:1046000008F18A0804EB880800F03F00A8F80600CB
:104610000EF09AF9B8F80630800100F4FE50184305
:10462000A8F806000EF086F9000188F804000EF0E4
:1046300081F998F8043000F00F00184388F804005E
:104640000EF078F988F805000CF0AAFE40E07D4BEA
:10465000012283F835203BE00EF06CF9FF288246FA
:1046600022D100238DF81B309DF81B30052B14D868
:104670009DF81B00744A9DF81B30012102EBC30317
:104680005B6852F83000994089B2482203F076F90D
:104690009DF81B300133DBB2E4E76C484FF48051E6
:1046A000042203F06BF913E005283FF608AB002065
:1046B0000EF092F90EF06CF9D8F800000CF083FBC4
:1046C00018B932200CF0ADFAF6E7504603F064F961
:1046D00000200EF081F9FFF76EB95D4B98590CF090
:1046E00072FB18B932200CF09CFAF6E70CF0FCFCD7
:1046F00004F0BAFC574A584BDA60FFF769B90C2846
:104700003DD00A2844D1554D55480EF0E9F92846C8
:10471000232113F0D2F808B1401B20602368002B3E
:1047200059D14E4800213022236013F090F83B7895
:1047300043BB4C4B1B689B0614D54B4B41491B6834
:104740008A6B9A1A002A0DDB484A1278042A09D982
:1047500003F5123303F5F873454A8B63D36883F08E
:104760001003D360434B9B68002B67D042489847A7
:1047700064E006F043FCFFF71EB90C2804D13F4863
:104780000EF0AEF93E480DE07F2812D1FFF77DB85C
:104790000D28B8D07F2809D1304A013B0021394883
:1047A0002360D1540EF09CF9FFF76FB82F2B3FF622
:1047B0006CA8A0F12002D2B25E2A3FF666A813B917
:1047C00020283FF462A85A1C2260244AD0540EF0DC
:1047D0007FF9FFF75AB85A1EA95C202901D1134668
:1047E0009DE71E4A00212360D154274B274DD3F863
:1047F00000A0D5F800B0DFF86490584613F06BF8CD
:10480000064659463246484613F06EF8204A28B903
:1048100019F8063053445B785B0703D01035954296
:10482000E7D306E0954204D2701CEB6848449847F1
:1048300002E018480EF054F9002372E711B0BDE809
:10484000F08F00BF480F00204CBC01080008014059
:10485000141F00200400FA0500ED00E09429002058
:1048600036C8010894180020DC3300209E18002070
:10487000000C0140C41F0020840F0020EEB8010886
:10488000E9B8010815B901085C0000202CA1010855
:104890000CA30108F9B801082DE9F0474D28A0B094
:1048A000044600F0488600F2BD80302800F0A9865A
:1048B00051D8222800F0938423D8032800F00A82DC
:1048C00014D8012800F0FA81022840F01E87042045
:1048D0000EF082F843200EF04AF84C200EF047F814
:1048E00046200EF044F84C2000F04ABE042800F0A8
:1048F000FA81052840F009871A200EF06DF800248F
:1049000003E2282800F0E58515D8242800F0CC859E
:10491000262840F0FA86DD4C06200EF05DF8B4F84B
:1049200058010EF05CF8B4F85A010EF058F8B4F8DB
:104930005C0100F0B6BD2C2800F0DE852E2800F0CA
:104940004A862A2840F0E18601200EF045F8CF4B38
:10495000587900F015BE3D2800F0FF821ED8362899
:1049600000F01F860BD8322800F00486342840F06F
:10497000CC8648200EF030F8002500F052BC3A28D2
:1049800000F0C0823B2800F02384382840F0BD8628
:1049900004200EF021F8BD4C00F08CBD452800F03D
:1049A000A18627D8402800F0EE85422840F0AD8649
:1049B000B64C10200EF010F860790DF0D8FFA0680A
:1049C0000EF016F894F890010DF0D1FFB4F85801EC
:1049D0000EF005F8B4F85A010EF001F8B4F85C01D5
:1049E0000DF0FDFFB4F880010DF0F9FFB4F882017D
:1049F00000F057BD472800F05386C0F027864B28AB
:104A000040F08386A14C04200DF0E6FF94F8D60117
:104A10000DF0ADFF94F8D7010DF0A9FFB4F8D8015F
:104A200000F03FBD702800F0EF8200F2E1806928BD
:104A300000F0488200F2B280662800F0A28100F205
:104A4000A280642800F07A81652840F05E86904C50
:104A50000B200DF0C1FF20880DF0C1FF608880B2EF
:104A60000DF0BDFF8B4B1B68C3F3C000C3F3800286
:104A7000800040EA4200C3F340021043C3F34012F7
:104A800040EAC20003F0100318430DF0A8FF824B68
:104A90001A88636802F0080103F4475949EA0109DA
:104AA00003F4804149EA010903F4004149EA01099C
:104AB00003F4803149EA010903F4003149EA0109AC
:104AC00003F4802149EA010903F4002149EA0109BC
:104AD00003F4801149EA010903F0007349EA030372
:104AE000DFF8D49112F0010F99F8009018BF4FF041
:104AF0000208C9F3800908BF4FF0000843EA090320
:104B000012F0020F43EA080314BF4FF0040C4FF0F9
:104B1000000C12F0040F43EA0C0C14BF4FF0100EFF
:104B20004FF0000E12F0400F14BF202700274CEA70
:104B30000E0E12F0100F14BF4FF4007600264EEA4E
:104B4000070712F0200F14BF4FF4806500253E4385
:104B500012F4807F14BF4FF400600020354312F43C
:104B6000007F14BF4FF400110021284312F4806F1E
:104B700041EA000114BF4FF0806300230020194375
:104B8000247A0346EAE0672800F02381682840F091
:104B9000BC8510200DF020FF00248AE16C2800F075
:104BA000A48117D86A2800F002846B2840F0AD85F4
:104BB00005200DF011FF394B18880DF010FF384B10
:104BC00018880DF00CFF324B93F86E0000F00100D6
:104BD00000F0D6BC6E282E4D00F09A8100F2C881FC
:104BE00006200DF0F9FEE86D0DF002FF2D4B87E178
:104BF000782800F0FB8018D8742800F033830AD896
:104C0000722800F09483732840F07F8508200DF00F
:104C1000E3FE0124C4E3762800F0E98300F25B831D
:104C20002F200DF0D9FE204CCAE2A42800F0058404
:104C300014D87B2800F06A82A02840F066850C20FA
:104C40000DF0CAFE194B18680DF0D2FE184B18680B
:104C50000DF0CEFE174B186800F053BDF12800F0A0
:104C60000181FE2800F01084F02840F04E85084CA9
:104C700004200DF0B1FE236CB3F85A000DF0AFFE26
:104C8000236CB3F8580000F00CBC00BF9810002053
:104C9000880F0020941800205C19002012190020B1
:104CA0001419002080100020AF960108E8F7FF1FBC
:104CB000ECF7FF1FF0F7FF1FF933002003200DF082
:104CC0008BFE00200DF053FE20460DF050FE0D200F
:104CD00000F056BC0DF080FE01200DF048FE0A20C9
:104CE0000DF045FEA7E306200DF076FE41200DF005
:104CF0003EFE46200DF03BFE4E200DF038FE4120DA
:104D00000DF035FEAE4B1878CBE3AE4B185D013499
:104D10000DF02DFE0B2CF8D10024AB4B185D0134A7
:104D20000DF025FE082CF8D10024A84B185D0134A5
:104D30000DF01DFE072CF8D100F0E5BC07200DF0AA
:104D40004BFEE7200DF013FEA14B58790DF00FFE3E
:104D500000200DF00CFE042000F0D3BCA3420AD2C8
:104D60009C4A9D5C012202FA05F50D421CBF9A4047
:104D700010430133F2E70DF03BFE954B93F8B40777
:104D8000FEE312200DF028FE934B00241B88B3F5A0
:104D9000806F8CBF08250125904B33F91400013436
:104DA00090FBF5F080B20DF01AFE032CF4D18C4C80
:104DB000A08C0DF014FEE08C0DF011FE208D0DF096
:104DC0000EFE608D0DF00BFEA08D0DF008FEE08D47
:104DD00067E310200DF000FE0024824B185D0134C3
:104DE0000DF0C5FD102CF8D100F08DBC70200DF039
:104DF000F3FD00260E247443794D01362B6C2344B9
:104E0000B3F819010DF0EBFD2B6C2344B3F81B0133
:104E10000DF0E5FD2B6C2344B3F81D010DF0DFFD13
:104E20002B6C234493F81F010DF0A1FD2B6C234440
:104E300093F820010DF09BFD2B6C234493F8210186
:104E40000DF095FD2B6C234493F822010DF08FFD9E
:104E50002B6C1C44D4F823010DF0CAFD082EC9D1D7
:104E600000F051BC70200DF0B7FD594C04F17005F5
:104E700094F8D0000DF07BFD94F8D1000DF077FD93
:104E800094F8D2000DF073FD94F8D3000DF06FFD8F
:104E900094F8D4000DF06BFD94F8D5000DF067FD8B
:104EA000073494F8CF000DF062FDAC42E0D100F081
:104EB0002ABC4D4B185D01340DF059FD102CF8D172
:104EC00000F021BC494D00242878400000F0FE008D
:104ED0000DF082FD2B789C4280F01584444B33F812
:104EE00014000DF07CFD0134F4E7424C06200DF077
:104EF00073FD20880DF073FD60880DF070FD3E4B52
:104F00001888CEE204200DF067FD354B186EF8E3EB
:104F100007200DF061FD394B1888FF28A8BFFF203E
:104F2000C0B20DF024FD364B186880F3100080B23B
:104F30000DF055FDB5F864000DF051FD244B93F8CC
:104F40008521304B186822B10A23584380F31000A2
:104F500001E000F30F0080B2A3E21D4C02200DF02F
:104F60003BFD94F8E0010DF002FD94F8DF0107E34A
:104F70000B200DF031FDAB6E002618780DF0F7FC1C
:104F8000AB6E58780DF0F3FCAB6E154C33441879CA
:104F900001360DF0ECFC032EF6D1A36ED8790DF09E
:104FA000E6FCA36E98780DF0E2FCA36ED8780DF0C5
:104FB000DEFCA36E58890DF012FDA36E187ADFE2B5
:104FC000FB33002010B601081CB60108F1B501083A
:104FD00098100020910F00201C0000207A10002063
:104FE000880F0020B80F0020CC0F0020B01F002039
:104FF0001C300020D82F00208810002084180020AA
:10500000901800208C180020C04C1E200DF0E4FCED
:10501000236C00251B78022B65D1236C05F1080257
:1050200053F82200BA490FF00FFB12F01DFE80F377
:105030000800C0B20DF09BFC236CB64903EB85035E
:10504000D86A0FF001FB12F00FFE80F30800C0B227
:105050000DF08DFC236C05F10E0253F82200AE49D1
:105060000FF0F2FA12F000FE80F30800C0B2013532
:105070000DF07DFC032DD0D1072D236C21D1586C70
:10508000A3490FF0E1FA12F0EFFD80F30800C0B27F
:105090000DF06DFC236C9E49986C0FF0D5FA12F060
:1050A000E3FD80F30800C0B20DF061FC236C93F8BF
:1050B0004C000FF071FA12F0D7FD80F30800C0B277
:1050C0000BE02B4458780DF052FC236C2B44D87A1B
:1050D0000DF04DFC236C2B44587D01350DF047FC41
:1050E0000A2DC9D10FE3236C2B4458780DF03FFCF7
:1050F000236C2B44D87A0DF03AFC236C2B44587D5A
:1051000001350DF034FC0A2DEDD1FCE23C200DF010
:1051100063FC00247D4D04F108022B6C7E4953F89A
:1051200022000FF091FA12F09FFD80B20DF057FCB3
:105130002B6C794903EB8403D86A0FF085FA12F0DF
:1051400093FD80B20DF04BFC2B6C04F10E0253F872
:10515000220071490FF078FA12F086FD013480B216
:105160000DF03DFC032CD5D1072C2B6C16D1586CBF
:1051700069490FF069FA12F077FD80B20DF02FFC4B
:105180002B6C6549986C0FF05FFA12F06DFD80B2E0
:105190000DF025FC2B6C93F84C000BE02344587861
:1051A0000DF01DFC2B6C2344D87A0DF018FC2B6CF1
:1051B0002344587D01340DF012FC0A2CD4D1A2E214
:1051C00014F8010F002800F09E820DF0D0FBF7E7E5
:1051D00001200DF001FC4D4B1B6C1878D0E15020E4
:1051E0000DF0FAFB0025494B0C211C6C4B4B04EBDA
:1051F000850494F87920013501FB023393F83800D7
:105200000DF0B5FB94F87A000DF0B1FB94F87B003B
:105210000DF0ADFB94F87C000DF0A9FB142DE2D14C
:1052200071E23A4B1C6C062303FB054494F8CE0054
:105230000DF09DFB94F8C9000DF099FB94F8CA009D
:105240000DF095FB94F8CB000DF091FB94F8CC0099
:105250000DF08DFB013594F8CD000DF088FB0C2D81
:10526000DFD150E24FF0000801260027274B1A7AC1
:10527000974227DA0933FA5C00240C236343274D55
:1052800005F13001595C914207D12B44586B12F063
:1052900022FB82462EB9B14605E001341C2CECD12C
:1052A0000EE080440CE0D1450ADA0C2303FB0453E2
:1052B0005B6B13F809000DF05AFB09F10109F2E7E5
:1052C0000137D3E7002E00F01E825FFA88F00DF060
:1052D00083FB0026C9E70D4D0024287A0DF07CFBE6
:1052E0002B7A9C4280F00F820D4B0021E65C0C2251
:1052F00002FB01F3094800F13007DA5DB24211D137
:10530000034493F838000DF032FB0EE0880F0020C4
:10531000000020410000C84200007A44B096010815
:10532000910F002001311C29E1D10134D8E7D04C84
:1053300016200DF051FBB4F896010DF050FBB4F8B7
:1053400040010DF04CFBB4F842010DF048FBB4F8FD
:1053500044010DF044FBB4F8D8010DF040FB94F883
:10536000ED010DF004FB00200DF001FB94F8EE01BF
:105370000DF0FDFA94F885010DF0F9FA94F8920118
:105380000DF0F5FA00200DF0F2FABA4B0A201B6C72
:10539000B3F9563093FBF0F080B20DF020FB89E0BA
:1053A000E0B201340DF0E3FA092CF9D1ABE11020A1
:1053B0000DF012FBB04BB14C187800F002000DF06C
:1053C000D6FAAF4B18780DF0D2FA20680DF010FB2A
:1053D00060680DF00DFBAB4B18880DF000FBAA4B7D
:1053E00018880DF0FCFAA34BB3F86C0059E00DF0EF
:1053F000A1FA074612200DF0EFFA9E4C17B9266F5E
:10540000656F05E0102F19BF00252E46A66FE56FCA
:1054100038460DF0ACFA30460DF0EAFA28460DF0A9
:10542000E7FAD4F880000DF0E3FA00200DF0D7FA87
:1054300000200DF0D4FA0020A2E08E4D002495F853
:1054400084002E4680000130C0B20DF0C5FA95F8F8
:1054500084000DF08CFA96F884309C4280F05381E1
:105460008A4D285D0DF083FA05F11003185D0DF0EB
:105470007EFA05F12003185D30350DF078FA285DCD
:105480000DF075FA0134E6E708200DF0A5FA0020CA
:105490000DF0A5FA00200DF0A2FA00200DF09FFA01
:1054A00000200DF09CFA2EE104200DF095FA704BCF
:1054B000986826E194F87A010DF059FA94F87E0183
:1054C0000DF055FA94F87D010DF051FA94F87F0132
:1054D00056E0674C07200DF07FFAB4F880010DF01C
:1054E0007EFAB4F882010DF07AFA94F884010DF096
:1054F0003EFAB4F88601D4E75D4C0C200DF06CFA4E
:1055000094F890010DF033FAB4F89A010DF067FAAF
:10551000B4F896010DF063FAB4F898010DF05FFA53
:1055200094F891010DF023FAB4F89C010DF057FAAC
:10553000B4F89E01B5E7564C564D2078002600EB96
:105540004000C0B20DF048FA237802359E4280F048
:10555000DA8015F8020C0DF00AFA15F8010C013684
:1055600000EB800000EB800000F2EE2080B20DF036
:1055700036FAE9E701200DF02FFA3D4B93F892013E
:105580000DF0F5F9BFE008200DF026FA0024384BA5
:10559000234493F8880101340DF0E9F9082CF6D181
:1055A000B1E0344B324C93F8C50004F12805C0EB50
:1055B000C000C0B20DF010FA94F8F4010023364A8E
:1055C000D25C904200F0A3800C333C2BF7D108341E
:1055D000AC42F1D197E040200DF0FEF9244C04F1EB
:1055E0004005B4F8AC020DF0FAF994F8AE020DF0F3
:1055F000BEF9043494F8AB020DF0B9F9AC42F0D125
:1056000081E0E0200DF0E8F9194C04F18005B4F8D0
:105610002E02043400F03F000DF0E1F9B4F82A0244
:10562000C0F386100DF0DBF994F8280200090DF0A4
:105630009EF994F8280200F00F000DF098F994F804
:1056400029020DF094F9AC42E1D15CE0134C0D203D
:105650000DF0C2F907F016FF0DF089F920880DF062
:10566000C7F9E0680DF0C4F906F05EFD49E000BF3F
:1056700098100020880F002098180020A018002003
:105680009E1800209C1800209A1800200D10002061
:10569000B01F002038120020802000200C000020C5
:1056A0000DF05CF9054684200DF096F928460DF0C2
:1056B0009FF9244BDC6805F18003A3428CBF641B77
:1056C000802406F0EBFD28462246694607F00EFFCF
:1056D00005460024AC4216DA1DF804000DF047F927
:1056E0000134F7E713200DF077F90024164B185D0D
:1056F00001340DF03CF90B2CF8D100200DF078F9B5
:1057000000200DF075F9012018E0002016E00DF0E2
:105710002EF9B4F8F6010DF062F994F8F8010DF0E5
:1057200026F994F8F9010DF022F994F8FB010DF037
:105730001EF994F8FA010DF01AF948E720B0BDE817
:10574000F08700BF0C00002010B601086B4B6C4ABC
:105750002DE9F04F5E8914684FEA062AB4EB0A0A75
:105760009C884FF000054FEA04481C894FF0000B5D
:10577000A4FB0A6765EB0B0B04FB0B77F40944EA07
:10578000476418EB04065C884FF000094FEAE71500
:105790004FEAC438DC8849EB050787B0CDE90467D8
:1057A000A4FB0A6704FB0B77340A44EA076418EB8E
:1057B00004064FEA27259C894FF0000949EB0507AD
:1057C000CDE90067AAFB046704FB0B77F40D44EAFC
:1057D000472414F5FA664FEAE75545F10007B6F598
:1057E000FA6F77F10003CDE90267964666DADDE9E4
:1057F0000489A4FB046704FB05F34FF0050C07EBD9
:105800004307A6FB0C230CFB07335F104FEA32065D
:10581000B8EB06084FEA920646EA837669EB070979
:105820009F10DDE90023921B63EB0703CDE9002302
:10583000DDE90267334A4FF0FF33964277EB03030B
:10584000CDE9048927DA40F6AC520023A4185D4163
:1058500004FB05F3A4FB04456FF0060205EB4305CA
:10586000664202FB0566A4FB0223334418EB0206E2
:1058700049EB0307CDE904670B26A4FB062306FBCF
:105880000533DDE900455B104FEA3202A41A65EBEF
:105890000305CDE90045DDE902450AFB0BF3AAFB50
:1058A0000AAB0BEB430B4FEADA7242EA4B02A41A43
:1058B0004FEAEB7365EB0305CDE90245DEF80440E2
:1058C000009B019DA4FB032304FB05334FEA5258C0
:1058D00048EAC3284FEA6359DDE90423B8EB020222
:1058E00069EB03039946D30B43EA494300B10360D4
:1058F00009B1029B0B6007B0BDE8F08FE41F0020E8
:105900005010002024FAFFFF2DE9F04FDFF85892E5
:1059100085B00746D9F808000E460EF041FE8E4CC1
:10592000804620880EF038FE4FF05C510546404618
:105930000EF08AFE4FF06451824628460EF084FE37
:10594000014650460EF076FD4FF0625182464046C9
:105950000EF07AFE4FF06A51804628460EF074FE33
:10596000014640460EF066FD0546B4F902000EF011
:1059700017FE014628460EF067FE51460546504682
:105980000EF062FE8046B4F904000EF009FE0146F6
:1059900040460EF059FE014628460EF04DFD804669
:1059A0000FF018F86D490546A06140460EF000FF63
:1059B000D9F80C308046284601930EF0F1FD4FF0E7
:1059C0007C510EF041FE66490EF034FD0546E38938
:1059D000B4F90A0002930EF0E3FD29460EF034FEFE
:1059E00029460EF031FE4FF058510EF02DFE814643
:1059F000B4F90800B4F810B0B4F80CA00EF0D0FD63
:105A000029460EF021FE014648460EF015FD4FF0E6
:105A100058510EF019FE4FF060510EF015FE4FF088
:105A20007E510EF009FD8146E0880EF0B5FD01467D
:105A300048460EF009FE002181460EF099FF00282D
:105A40007BD1294628460EF0FFFD03900FFA8BF01C
:105A50000EF0A6FD039B014618460EF0F5FD4FF033
:105A600060510EF0F1FD8346BDF908000EF098FD7F
:105A7000014628460EF0E8FD01460EF0DDFC014629
:105A800058460EF0D9FC4FF07A510EF0DDFD8346FA
:105A900001980EF085FD01464FF093400EF0CAFCD0
:105AA00005460FFA8AF00EF07BFD4FF08F410EF0A5
:105AB000CBFD014658460EF0BFFC4FF066510EF08C
:105AC000C3FD014628460EF0B5FC26490EF0BCFD8C
:105AD00049460EF06DFE0546B4F916000EF060FD65
