:020000040800F2
:1000000000A00020690601080DC400089DF6000844
:100010000BC4000809C4000807C400080000000061
:1000200000000000000000000000000005C40008FF
:1000300003C400080000000001C400081BB1000850
:10004000D1060108D1060108D1060108D106010830
:10005000D1060108D1060108D1060108D106010820
:10006000D1060108D1060108D1060108D106010810
:10007000D1060108FD2E0008372A0008D106010824
:10008000D1060108D1060108D1060108D1060108F0
:100090006DC40008D1060108D1060108D106010887
:1000A000B9A60008F9A60008A9A6000821A700081B
:1000B000E9A60008D9A60008C9A60008D1060108CB
:1000C000D1060108D1060108D1060108D1060108B0
:1000D000D1060108E5A80008D9A80008D106010842
:1000E00029B10008D106010881F50008D1060108F0
:1000F000D1060108D1060108D1060108D106010880
:10010000000000000000000000000000D10601080F
:10011000D1060108D1060108D1060108D10601085F
:10012000D1060108D1060108D1060108D10601084F
:10013000D1060108D10601080000000000000000FF
:10014000D1060108D1060108D1060108000000000F
:10015000000000000000000000000000000000009F
:100160000000000000000000D1060108D1060108CF
:10017000D10601080000000000000000000000009F
:0801800000000000D106010897
:100188002DE9F04F2DED068B6B4D6C4B2B60A1B01C
:1001980000236B600DF006FE18B90DF025FE09F07E
:1001A80037FB09F0F3FB664B664C1A7842F0010204
:1001B8001A70654A4FF47001C2F88810002208923C
:1001C8000992226842F4803222600493236803F47F
:1001D80000330993089B01330893099B1BB9089BBB
:1001E800B3F5A04FF2D1236813F4003318BF0123ED
:1001F8000993099B012B69D0DFF84C81534BC8F850
:100208000C30636AAB60636A514EDFF870A1DFF8A7
:10021800709143F080736362636943F4FC0320AF19
:10022800636103238DF8323041F6FF7327F8503DA0
:100238004FF09040394602F075FE4FF6FF73304696
:100248003946ADF8303002F06DFE4248394602F0CA
:1002580069FE4148394602F065FE4048394602F0D9
:1002680061FE39463E4802F05DFE384607F058F810
:100278000C9B3C4AB3FBF2F33B4A3C4913603C4BB2
:1002880000221A603B4B5960F02188F823109A60CD
:1002980007221A60DFF8EC80DAF80830C8F8003076
:1002A80099E80300636987E8030043F480236361E6
:1002B8004FF48053B3610C980DA902F033FED8F8BF
:1002C800003013F0080F564629D163E02A4B12225A
:1002D8001A606368636063686360636843F480639B
:1002E8006360636823F47C136360636843F4881372
:1002F8006360236843F0807323602268114B920186
:10030800FBD55A6822F003025A605A6842F002028A
:100318005A60636803F00C03082BFAD16CE79AF86B
:100328009031012B36D8044A9AF89131926812F02C
:10033800805A00F0D7872DE09008002039910008F6
:10034800A82600200010024000ED00E00005FA0594
:100358000004004800080048000C0048001000484D
:100368000014004840420F00182000203F190100E7
:100378001C20002010E000E000200240D8110020DE
:10038800CC38010830260020C34B002283F8912185
:1003980009F098FC64200AF0B2FE4FF48C72BF4852
:1003A800002112F08EF9E369BD4A43F00703E361C7
:1003B800A36943F4E123A361636943F4C023636140
:1003C80002F1E00E937BD07B4FEAD30C03F00701D8
:1003D800536803EB8C038900D3F820C04FF00F0A51
:1003E80088400AFA01F12CEA01011962196A1032EF
:1003F800084372451862E5D10022AA4900235354E4
:1004080001320E2AF9D1DFF8CCA20AF11A02FF2133
:1004180099540133072BF6D1A34AA44B1360DFF894
:10042800B8B2A34A0393032111705846002124222D
:1004380012F047F914228BF800209E49039BD8F844
:10044800008001228BF8182096F805B081F800B0DA
:10045800A3F5F171CAF824109749A3F591730B60BD
:10046800964B03EBCB0318F0200F5B78CAF82830C3
:1004780018BFCAF828200023914A40F2DC5122F81C
:1004880013100133082BF7D1384600211C2212F033
:1004980018F9BBF10E0F04D00BF0EF0BBBF1080FEE
:1004A80002D101238DF84030022006F0C7F818B1B8
:1004B8004088003018BF0120C8F340038DF836305B
:1004C800C8F380138DF83830C8F340338DF83030D6
:1004D800C8F3C03300F001008DF8333018F400631E
:1004E8008DF8350004D096F884315F1E7B427B413D
:1004F8008DF83430C8F300438DF83930AB6AB6F85C
:100508004401ADF84400003318BF01238DF83A3098
:10051800C8F300538DF83B30B6F84631ADF83E309D
:1005280018F4805FB6F8523118BF5B48ADF83C301C
:10053800C8F380438DF83730B6F850311CBFB0F897
:100548004C01ADF84400B3F5FA7FADF8423084BFF2
:100558000023ADF844305B4896F8D43185F82C3048
:10056800002385F82D3043709DF8403008F00101D4
:10057800002BC8F3C0028DF831108DF832200CBF63
:100588000023022301B902B1013309EB83094FF0BB
:10059800000AD9F808309A1E1A3303920593039B70
:1005A80033F8022F03934FF6FF739A4200F0358118
:1005B800110A0229CBB202D19DF8301003E00129BB
:1005C80004D19DF83110002900F022819DF83A10DD
:1005D800D2B261B19DF8401049B99DF8381009B1FF
:1005E800111F01E0A2F10801012998BF04232C4F33
:1005F8009DF83B104FEA02194F4431B19DF8401065
:1006080019B9043A032A40F2EC80012B66D1FF2382
:1006180085F8743085F87530214BC5F8847003EB84
:1006280009024FF00008517B50688DF82A1002F13A
:10063800080B1289ADF828200AA9022285F87880CB
:1006480006938DF82B2085F83080C5F83480C5F8DE
:100658003880C5F83C80C5F8708085F8768085F8C4
:10066800778002F05FFC069B9BF8021053F80900A4
:10067800424602F089FB38460EF0F4FB124B134950
:10068800C5F88830124BC5F88C30C5F890803846CC
:100698000A1D0AF0C3F8BBE0D81100205020002042
:1006A800945601089C08002064240020CA130020E6
:1006B800B91100201C040020E421002090590108F1
:1006C8002A110020BD0800207927000818090020F9
:1006D800592800089008002068240020022B46D1E1
:1006E8005FFA8AF21C2101FB02FC05EB0C089D4A0B
:1006F80088F879A0012188F8781002EB09014FF0F9
:10070800000B91F80DE0486888F87AB001F108020A
:100718000989ADF8281088F882B00AA9C8F8847049
:10072800CDF81CC08DF82AE006928DF82B3002F027
:10073800F9FB8C4B069A53F8090091785A4602F057
:1007480023FB38460EF08EFBDDF81CC08649874A2D
:10075800C8F888206144864AC8F88C20C8F890B048
:1007680038460A1D0AF05AF80AF1010A50E0032B2C
:1007780035D19DF83730DFF82C82DFF82C923BB169
:1007880098F82EB0384608214FF6FF7200231AE079
:10079800BDF8422098F82EB0BDF84430B2F5FA7F83
:1007A8000BD97449B1FBF2F23846082192B202F033
:1007B800E2FB714B49F82B000AE07049B1FBF2F2F9
:1007C8003846012192B202F0D6FB6D4B49F82B0056
:1007D800C36098F82E30013388F82E3018E0042BC7
:1007E80016D195F82D80BDF83C20644B93FBF2F2AE
:1007F8003846BDF83E30012192B202F0BCFB95F8B4
:100808002D3005EB88080133C8F8580185F82D30DC
:10081800039B059A93427FF4C2AE95F82D2085F884
:100828007821584A584B92F800E0AEF11702002799
:10083800022A1F709C461AD86B6A3B44D3ED007A93
:10084800F5EE407AF1EE10FA02D1AB6A63BB26E00E
:100858004E4A07EB02080FCB88E80F009CF80030DF
:1008680010370133C02F8CF80030E5D1EDE7484B45
:1008780013F83E908CF8009003EBCE03D3F804A055
:10088800BAF1000FE1D04F45DFDA404A3B0103EBF4
:10089800020853440FCB013788E80F00F3E73D4FB8
:1008A8003B68DD0425D41DE03B4B3C4A13F83E0071
:1008B800107003EBCE035D68002DF0D00023834257
:1008C800EDDAC3EBC3016A18DFF8E080D2F80090D4
:1008D80041F8089001EB08079188B9809279BA71BC
:1008E8000133ECE70EF0EF03082BDFF8C48020D1CA
:1008F80022E09CF80020012AF4D9294B03EB0212CC
:10090800103210339342EDD053ED047AB6EE007AEC
:1009180067EE877A43ED047A53ED057A67EE877AB6
:1009280043ED057A53ED037A67EE877A43ED037A50
:10093800E7E7BEF10E0F0BD198F8003043F0100333
:1009480088F80030BEF1180F34D10AF0AFFD31E05D
:1009580098F8003023F0100388F80030BEF1190F22
:10096800F2E700BF94560108180900208D2E0008F0
:100978005127000800127A007928000840420F0029
:10098800692800081C0400201720002058030020B4
:1009980090590108302600206C3D01087021002084
:1009A80060030020900800202020002071210020F2
:1009B800001900200AF05EFD3B68DFF84093C34D44
:1009C80058035EBFC24B01221A70049B049A1B781D
:1009D80043F0040313704FF48063ADF828301123FB
:1009E8008DF82A3063694FF0020A43F480230AA97C
:1009F8008DF82BA04846636102F094FAB54BB64ACD
:100A08001A6000200AF094FBB44B1D60636943F43C
:100A180080236361E36943F40013E361236B23F0EC
:100A280010032363236B43F010032363D9F82030AA
:100A380023F07063C9F82030D9F8203043F0806380
:100A4800C9F82030D9F8203023F07043C9F8203095
:100A5800D9F8203043F08043C9F82030032300241C
:100A68008DF82D30484640230AA98DF82E408DF880
:100A78002F400A938DF82CA006F0C0FD802348462D
:100A88000AA90A9306F0BAFD2B6823F001032B602C
:100A98002A68934B13402B60924B2B612B6843F0D1
:100AA80001032B60AC60EC60AC60AB688E4C43F427
:100AB8000043AB602B682B606B6823F0784323F40A
:100AC80000436B602B6843F001032B60B4F8583186
:100AD800002B40F08984B4F95A21002A40F084841C
:100AE800B4F95C21002A40F07F8400210C227F4861
:100AF8007F4E11F0E6FD002114227E4811F0E1FD41
:100B08007D4B002201201A7005F0BAFF337843F0BC
:100B180002033370794B4FF480529A610A25DFF84B
:100B2800DC91B9F814309BB283F48053A9F81430DF
:100B380019200AF0E4FA01200AF0FAFA19200AF05A
:100B4800DEFA013D00200AF0F3FA15F0FF05E6D1C0
:100B58004FF48053C9F81830694B9FED6A8AD3F86F
:100B68000090DFED698A99F80C3000EE103AB8EE83
:100B7800C00A20EE080A08F0F1FD644B83ED000A74
:100B8800634B4FF06E521A605A4BD3ED047A614BA7
:100B980067EE887AB7EE007AC3ED007A99F80030EC
:100BA80007EE903AF8EEE77A5B4BC7EE277AB0EE9D
:100BB800680AC3ED007A77EE677A584BC3ED007A7E
:100BC800574B83ED027AC3ED008AC3ED018A554B7A
:100BD80083ED027AC3ED008AC3ED018A08F0BEFDF9
:100BE800B0EE408AB0EE680A08F058FD20EE006AC0
:100BF80068EE086A66EE007A4B4BE6EE887AFF21CB
:100C08001B2220EE087AC3ED007A67EE007AF0EE38
:100C1800675AD7EE085AE7EE087A28EE468AC3EDF7
:100C2800015AA6EE808AC3ED027A83ED038A3F4B10
:100C38001D703F4B184611F044FD3E4ADFF8F8E0BE
:100C480012680570012112F0020F8EF800101FBF04
:100C5800417003218EF80010022118BF81705107DE
:100C680041BF9EF800104D1C8EF80050032548BF68
:100C7800455412F00A0F73460ED09EF80020042146
:100C88008154511CC9B205254554D11C0232D2B237
:100C98008EF800100621815439688D0641BF1A78F4
:100CA800551C1D70072548BF85540A0608D51A78B3
:100CB80009258554951C0132D2B21D700A25855428
:100CC8006579082D3AD00E2D41D137E00054004007
:100CD80088080020B026002005A90008FC10002084
:100CE800FFE0CF007A25E000D81100203023002053
:100CF800A826002004220020A001002000040048AB
:100D08008002002035FA8E3C000000007C020020A2
:100D180034020020380200209402002084020020BF
:100D280098020020880200206C020020F6010020B2
:100D380009110020FC180020081100201A7802F17F
:100D4800010E83F800E04FF00B0E00F802E01A786D
:100D580011F0040F4FF00C0C00F802C002F1010E64
:100D68001CBFDFF8C8C202325FFA8EFE83F800E0CB
:100D78001FBF8CF80020944A4FF0100C02F80EC0E8
:100D88001A7802F1010E5FFA8EFE4FF0120C11F480
:100D9800806F83F800E000F802C00ED094F80CC20F
:100DA800BCF1000F09D0DFF884C202328CF80020B1
:100DB800854A4FF0130C02F80EC01A7811F4007F20
:100DC8004FF0140C00F802C002F1010E1CBFDFF84E
:100DD8005CC202325FFA8EFE83F800E01FBF8CF817
:100DE8000020794A4FF0150C02F80EC0182D13D1C7
:100DF8001A784FF0160E00F802E002F1010E5FFAC1
:100E08008EFE4FF0170C00F80EC002F1030E0232EE
:100E1800D2B283F800E085540A0341BF1A78551C02
:100E28001D70192548BF8554CD0541BF1A78511C3E
:100E380019701A2348BF835400219822634811F07F
:100E480040FC0DF0E2FC624B624A1A60624BB4F857
:100E58004E111980614900230B808B7060490A602C
:100E6800B4F8962190B25F4921F813000133122B90
:100E7800F9D13B68D8045CBFB4F89C0108801B0713
:100E880040F1058194F89031062B00F2FA80DFE8F2
:100E980003F004070E3D5979790045F2F05201E05C
:100EA80042F6F822504B1A800DF065FDE8E007EE97
:100EB800902ADFED4E6A4C4BB8EEE77ADFED4C7ABC
:100EC800E7EE267A42F6F82119800023FCEEE77A4D
:100ED800484A17EE901A42F823100133122BF7D123
:100EE800454A46491160464A4020137005F08EFC79
:100EF800002800F0C68001234FF0070C90F900008D
:100F0800404A8DE8081040213F4BB4E0364B42F68A
:100F1800F8221A80384B3D4A1A60394B102240207B
:100F28001A7005F073FC002800F0AB8001234FF025
:100F3800000E90F90000364A8DE8084040214FF431
:100F4800E13398E0284B42F6F8221A802A4B314ABE
:100F58001A602B4B082240201A7005F057FC002815
:100F680000F08F800123002590F900002A4A8DE8BF
:100F7800280040214FF4E13305F020FA274BC3F84D
:100F88007C017AE0184ADFF8A890DFF8A8C0DFF8FB
:100F9800A8E0234D234842F6F821118018490C2275
:100FA800062B0A704AD0002389F800308CF80030EC
:100FB8008EF800301B232B701B4B027005221A7011
:100FC8004FF4E13547E000BF09110020C02300209D
:100FD800E40A002060130020E80A00207C26002094
:100FE80070260020481B0020D6020020CDCCCC3F24
:100FF8000000B0C4001B00209C000020056D000804
:101008005C240020716F0008A0860100F16C0008C4
:10101800C56E0008D96C0008796E00089008002099
:101028008E1B00208B1A00208F1B00200811002027
:101038008C1A00208D1B00208C1B0020002189F8B1
:1010480000108CF800108EF8001002702121BF4AA1
:101058002970BF4D1370BF4BBF4A1A60402005F07E
:10106800D5FB70B101210023BC4A90F900008DE83E
:101078000A0040212B4605F0A1F9003018BF0120D5
:1010880028B9082008F092FBB24BB54A1A603B68B1
:10109800B44A13F4804F1FBF08211170AD49B248FC
:1010A80018BF086042F20101194003F0010003F47F
:1010B800005581B1AD4944F6206EA1F800E025B194
:1010C80008211170A349AA4D0D6020B10C2111709F
:1010D800A049A84808601178043951701A065ED5ED
:1010E800A548A64DDFF8ECA2C0F880A14FF0000992
:1010F8004946152200F5C270DFF8DCB285F8019088
:10110800C5F80490C5F8089011F0DBFAAAF10503B8
:101118004846CBF8003009F035F9994B02201B6896
:10112800EB6005F073FB18B9802008F03FFB2EE058
:101138006B7890F805E093490C2202FB0312527871
:10114800724504D00133DBB2042BF4D900236B7051
:10115800DBF800306A781B7890F90000002B4FF01C
:101168000C0303FB021314BF4FF0030E4FF0010EE4
:1011780000225B78CDF800E00192022105F01EF90B
:10118800814B18600028CFD0012009F0FBF87F4B75
:1011980018687F4B00F5C5721A6009F0A1F93B6821
:1011A8005B055DD5744D7B4BD5F89CA1C3F800A0B9
:1011B800042005F02BFB0421C5F8A00105F000FB75
:1011C800754B85F8A4010820C3F800A005F01EFBA4
:1011D800724BDFF808921860082105F0F1FA002137
:1011E80085F8A5012C22484611F06BFA8E227C2343
:1011F80089F801204FF07D0BE02289F8003089F84A
:10120800032089F82BB0DFF8D89103932C22002112
:10121800484611F056FA039B89F800308A2389F86A
:1012280001301020A02389F8033089F82BB0C5F8C5
:10123800A8A105F0EBFA1021C5F8AC0105F0C0FA39
:1012480085F8B0012020C5F8B4A105F0DFFA202107
:10125800C5F8B80105F0B4FA85F8BC010BF018FD23
:101268003B684F4A13F4002318BF0123137009F099
:101278001FFF4C4B18606379052B02BF4A4B4FF494
:10128800C8721A80494B4FF47A721A8098F8003065
:10129800474A43F0080388F80030137823F0020324
:1012A80013703A6840F6020313406BB1414B424A4F
:1012B8001A60424B03221A70414B01221A70414AAC
:1012C80000231380404A1380A3683B603F4B0122F0
:1012D8001A70337863F07F03337021B0BDEC068B4E
:1012E800BDE8F08F013B092B3FF654A8D9F8180048
:1012F800386039464FF0904001F014FE4FF09043AB
:1013080008229A613C2009F0FAFE96F891319A4534
:10131800BFF63AA82E4A4FF0904B4FF4805108235D
:101328009161782006910592ABF82830039309F073
:10133800DBFE059A0699039B11857820CBF81830B7
:1013480009F0D2FE0AF1010ADFE700BF8F1B002077
:1013580090D003009C000020F56B0008596D000830
:101368009DF500085C240020396D0008D602002095
:1013780091F50008496D0008900800207C010020C4
:1013880054260020F4340108D81C00203C11002009
:101398003C0B0020F0180020481900209419002068
:1013A8008E240020A8020020F60A0020C42600206F
:1013B800CC260020E8180020521300204C190020E9
:1013C800EC000020D0100020D21000208808002057
:1013D80000040048CA1300209C01002018190020AE
:1013E8004D19002035FA8E3C1BB208EE103AB6F9BA
:1013F8005A315FED047A344A09EE103AB6F95C3195
:10140800B8EEC88A08EE903A28EE278AB8EEC99A4C
:10141800F8EEE88A0021B0EE480A29EE279A68EE2D
:10142800A78A117008F09AF9F0EE409AB0EE480ACF
:1014380008F034F9B0EE408AB0EE490A08F08EF9A7
:10144800B0EE40AAB0EE490A08F028F9F0EE40AA3A
:10145800B0EE680A08F082F9B0EE409AB0EE680A79
:1014680008F01CF960EE296A68EE097AF0EE665A0F
:10147800E7EEAA5A154B29EE296A28EE007AC3ED41
:10148800035AF0EE465A2AEE400AE7EE6A5AE6EEAA
:10149800AA7AA6EE6A7A29EE0A9A83ED010A28EE5C
:1014A8004A8A2AEE290A83ED009AC3ED02AAC3EDFF
:1014B800045A83ED058A83ED067AC3ED077A83ED36
:1014C800080AFFF712BB00BF58000020241C0020A8
:1014D800804A2DE9F04F15687F4C05F59C43203371
:1014E8002DED028B23607D4B196889B011F4804F74
:1014F8000592984605D10EF09BF810B9237901336F
:101508002371774B1F78C7B1764A1268954240F22B
:10151800FF80013F1F70FBE0D9F800307248072DAB
:1015280098BF595D714B88BF29461B689847032DA2
:101538000BD904EB45050137E8806B4BDFF8C89100
:101548001E78FDB2AE42E7D820E0D9F8002005F1B8
:101558000E0302EB83039988DA880028E9D04FF458
:101568007A73401A5843531A90FBF3F040F6C903B4
:1015780000F57A70984205DC40F2EE239842B8BF35
:10158800184601E040F6CA0080B2D2E70F23277957
:1015980084F82A3094F82B300193032594F82C30E2
:1015A800B7FBF5F505EB45057D1B0393D9F800302E
:1015B8000293DFF858A1EBB204930025B54254DA40
:1015C8004B49019B31F815B04FEA450953B90EF064
:1015D8002FF828B1039B002B08BF4FF0000B01E048
:1015E800DDF804B0029B988A584502D8D88A584535
:1015F8000ED2E8B20DF0D0FF032D8346DFBF94F87A
:101608002AE00120A8402EEA0000D8BF84F82A006A
:101618000EF00EF818B1374829F800B021E0049B05
:1016280094F876002AF813B028B9022F15D92A4958
:10163800012081F87600BAF80210BAF800000844D0
:10164800BAF8041008442C4980B229F8010000B205
:10165800032190FBF1F080B200E05846254929F8B3
:10166800010001350AF1060AA8E794F82A20234860
:10167800234BA2F10F0EDEF1000242EB0E0284F8BA
:1016880090206AB11F4A1268570109D40268D968C4
:101698009A60521AC82A3BD9012283F8212037E0E0
:1016A80002689868DA605B68121A9A4288BF144B1D
:1016B8004FF0000184F82B1088BF83F82110002513
:1016C800B54225DAE8B20DF067FF0A4B23F815009A
:1016D8000135F5E7AC260020500A0020302600200E
:1016E80078260020742600205C2400209C0000201E
:1016F800560A0020481B0020C80A00205426002053
:101708007C26002004110020702600207E0A00207C
:10171800D8F80030DE0405D58C4B1B68DD0701D4F2
:101728000DF04DFB8A4B1A68937A2BB3013B89491C
:10173800127B31F813301AB1C3F53B6308339BB2FF
:101748001BB2A3F57A73B3F57A7FA8BF4FF47A7307
:1017580023EAE37307EE903A9FED7F7A7F4AF8EE2B
:10176800E77AC7EE877A9FED7E7A67EE877AFCEE96
:10177800E77A17EE903A1380D8F80030794F13F4CF
:10178800807F00F00481059BDFF8E0911A68764BB2
:101798009A4205D999F8022012B9012289F8022043
:1017A80099F80220002A00F0F280704A3E7892F8F8
:1017B8002150664A681E454211684541002DC1F313
:1017C8008063C6F380060193924614BF4FF0000B66
:1017D8004FF0030B99F82020052A00F2D280DFE8A9
:1017E80002F0034D527584A1002E3AD0D4F894002B
:1017F800B4F8981005F0ADF8012809D15C495D4AA4
:1018080009681268C988642000FB0122C9F8102001
:10181800019B6BB1564A126812794AB10AF0AEFDC3
:10182800032289F820204FF47A72C9F81C20D1E7E6
:10183800002D40F0A6804F4AD9F8101010684B4A86
:1018480088420AD902920AF099FD029A032182F885
:10185800201040F6B831D161BCE7012182F8201090
:10186800B8E7019B4FF4806013B107F08FFF01E0E8
:1018780007F07CFF0022C9F8102082E0002D46D135
:101888000AF07CFDA6E725B1052289F82020012071
:1018980000E0284666B1D4F89420D1892D4A1180F9
:1018A80051809180324909684988D1804FF0020BF4
:1018B800304A1168D9F81420914201D8002E5DD120
:1018C80047F23052C9F81C20032221E03A7842F04E
:1018D80002023A700DF073FA264AD9F81C10126801
:1018E8000A44C9F81820042212E0224A9DB111685E
:1018F800D9F81820914244D91F4A12781AB9DAF84F
:101908000020D1073DD43A7822F002023A7005222D
:1019180089F820205EE71268D9F81C100A44C9F833
:1019280018202EE01249134A09681268C9886420F1
:1019380000FB0122C9F810204FF48060002289F8CA
:10194800202089F8032007F011FF43E70411002045
:1019580070260020481B002000007A4458110020FF
:1019680000C07F44CC260020404B4C007C26002041
:1019780024220020542600200100002000287FF4A3
:1019880029AFBBF1000F02D0584605F03DF8AD4D28
:1019980005F5C470B5F84E1104F0DBFF834668B94D
:1019A8000AF0DEFCA84BC3F800B0C3F804B0C3F8D3
:1019B80008B0A64B00221A605A609A603B785A0712
:1019C80036D5D8F80030DB0632D5A14B1B78DE06B9
:1019D8002ED4A04B1B7893B195F8E031BBF1000FE2
:1019E80015D17BB19C4B1A68D4F89C309B1A002BFC
:1019F80008DA0DF0E4F9994B83F8A0B018E0BBF1D0
:101A0800000F0DD1102004F0FFFF01230EE03BB1C1
:101A1800914A12684FF47A7101FB0323C4F89C3091
:101A280094F8A03023B104F0D9FF002384F8A03043
:101A3800002295F8DEA195F8DF11B5F898E1B5F820
:101A48009AC11346864E019636F912009B087045D6
:101A5800C4BF63F07F03DBB201326045B8BF43F017
:101A68004003042AEED194F8A1207C489A4205D17B
:101A780090F8A220F92A04D8013200E0002280F868
:101A8800A22084F8A130734B764E1A789946E2B9B1
:101A98003368D80708D5BBF1000F16D13B78D907B2
:101AA80013D50DF009F810E03B785A070DD56B4BAC
:101AB80093F82B304BB16C4BDB7833B911B10DF087
:101AC8007EF902E0BBF1000FF9D094F8A230634A26
:101AD800DFF8A4B1142B40F0898099F800301AF18E
:101AE800000A18BF4FF0010A6BB392F8A1305F2BC0
:101AF80011D13B7803F0040303F0FF0113B10DF09B
:101B08005EF908E00B200391029204F07DFF029A2F
:101B1800039982F8A210BAF1000F14D094F8A130FA
:101B28007D2B10D13B7803F0040303F0FF0213B1BF
:101B38000DF045F907E00B20029204F065FF474BD2
:101B4800029A83F8A2203B7803F0040303F0FF0114
:101B5800002B4BD194F8A130404A572B11D1434B5D
:101B68004FF47A721A80D8F800301B0601D508F0B5
:101B780019FD3F4B1B6813F0080337D13D4A13800A
:101B880034E0D8F80000400717D55A2B15D192F841
:101B9800A3302BB1012382F8A31082F8A43025E0EA
:101BA80092F8A53083F0010382F8A5300BB10C2020
:101BB80000E00D2004F028FF18E05D2B00F0FA8407
:101BC8005B2B00F015855E2B00F01485562B01D198
:101BD80008F078F899F80030002B00F0BE8494F8EB
:101BE800A1306F2B40F0B3840CF066FFD8F80030BA
:101BF8005A0752D594F8A530184A93B13B785B0739
:101C08000FD5019BB3F90610B5F89831994208DD54
:101C1800336813F0010302BF3221A2F8A81082F83A
:101C2800A5303368D80329D594F8AA200B4B2AB9D4
:101C380093F8A32012B93222A3F8A820012384F82C
:101C4800AA302AE0D8110020901F0020EC1F0020A5
:101C5800001900200100002054260020500A00200E
:101C6800481B0020041100207C260020C4260020E8
:101C7800FC180020CC1100203C11002094F8A3305F
:101C8800B64A53B13B7803F0040303F0FF0123B9CC
:101C9800012382F8A31082F8A430DBF800A0002307
:101CA80033600AF17B090AF1CB0B99F8002099F807
:101CB800013019F8010C9A420BD2494604F012FE81
:101CC80038B119F8022C012303FA02F233681343DE
:101CD800336009F10409D945E7D1A14B1B7843B119
:101CE800A04BA14E1A6812F0020F994640F03883B3
:101CF8002FE30AF1CA060AF589793278737816F85B
:101D0800010C9A4225D2314604F0ECFD08B3B378B1
:101D180096F804E0954A96F803A090480C21013BF8
:101D280001FB0E4103EB43031344D1F8B0209A4260
:101D38000FD0C1F8B030002390F8DC20C1F8B430DF
:101D4800012303FA0EF322EA030381F8ACA080F81A
:101D5800DC3006364E45D0D1854B1E68854B1B6856
:101D6800039394F82B300493834B0193002302933D
:101D7800019B1B68002B00F0E18293F800A0BAF1E8
:101D8800000F00F0DB82019A039952688A1A002A30
:101D98000CDB01F5FA7201994A60029901228A4026
:101DA80094F8DC1021EA020284F8DC20049A002A64
:101DB80000F0C482019A597812F8042C0432D2B285
:101DC800002940F07A826D4931F91210B5F8962150
:101DD80002F1C800814202DD93F802B015E0C83A6A
:101DE800914203DA9978C1F1000B0EE0029A0123BF
:101DF800934094F8DC2022EA030384F8DC30039B48
:101E0800019A03F5FA73536098E294F8DC30029A69
:101E18001341D90700F19282BBF1000FCCBF022019
:101E2800012004F015FE0AF1FF33DFF83091132B7F
:101E380000F27C82DFE813F01400250037004B0025
:101E480064006B00E7004A01B101DF010F027A026A
:101E58004B005A006B00E7004A01B9001C018101E0
:101E680096F80090D944B9F1FA0FA8BF4FF0FA09D3
:101E780029EAE979304686F8009004F019FD012036
:101E88000FE096F80190D944B9F1640FA8BF4FF05C
:101E9800640929EAE979304686F8019004F008FDDA
:101EA80002204946D4E196F803A0DA44BAF1640F57
:101EB800A8BF4FF0640A2AEAEA7A86F803A03046F7
:101EC800D9F8E01004F0AAFC03205146C0E171796A
:101ED80059446429A8BF642121EAE17171710D2078
:101EE80004F068FDBAF10D0F00F0208231795944F1
:101EF8006429A8BF642121EAE17131710E20A7E1AC
:101F0800B179594481F30801B1710520A0E1D9F8EC
:101F1800E4301A78022A39D107EE90BAB8EEE70A07
:101F2800DFED187A93ED097A80EE270A30EE070A7A
:101F3800B5EEC00AF1EE10FA07D4B4EE670AF1EE76
:101F480010FAC8BFB0EE670A01E09FED0F0A83EDF3
:101F5800090A0F2004F018FD23E000BF500A0020F2
:101F6800CD26002004110020FC1800205439010857
:101F78005C11002054260020000B0020481B002084
:101F880000007A440000C8420000000099785944D3
:101F9800C829A8BFC82121EAE17199700F2004F06F
:101FA80009FDBAF10F0F00F0C181D9F8E4301A78B1
:101FB800022A1ED107EE90BAB8EEE78A5FED0F7AD3
:101FC80093ED080A88EE278A38EE000AB5EEC00AB3
:101FD800F1EE10FA07D4B4EE670AF1EE10FAC8BFB2
:101FE800B0EE670A01E01FED180A83ED080A122017
:101FF80056E159785944C829A8BFC82121EAE17196
:102008005970122024E1D9F8E4301A78022A20D134
:1020180007EE90BAB8EEE70A5FED267A93ED0C7AF0
:1020280080EE270A30EE070AB5EEC00AF1EE10FA84
:1020380007D4B4EE670AF1EE10FAC8BFB0EE670A2B
:1020480001E01FED2F0A83ED0C0A102004F09CFC20
:102058000AE0197B5944C829A8BFC82121EAE171BF
:102068001973102004F0A6FCBAF1100F00F05E817D
:10207800D9F8E4301A78022A1ED107EE90BAB8EEE1
:10208800E78A5FED407A93ED0B0A88EE278A38EEEF
:10209800000AB5EEC00AF1EE10FA07D4B4EE670AEA
:1020A800F1EE10FAC8BFB0EE670A01E01FED4A0A68
:1020B80083ED0B0A1320F3E0D97A5944C829A8BF45
:1020C800C82121EAE171D9721320C1E0D9F8E430BE
:1020D8001A78022A22D107EE90BA1FED570AF8EEB5
:1020E800E77A87EE800AD3ED0F7A30EE270AB5EE4D
:1020F800C00AF1EE10FA09D45FED5E7AB4EE670A11
:10210800F1EE10FAC8BFB0EE670A01E01FED620AEF
:1021180083ED0F0A112004F037FC0AE0997D594439
:10212800C829A8BFC82121EAE1719975112004F0D6
:1021380041FCBAF1110F00F0F980D9F8E4301A78AF
:10214800022A20D107EE90BA1FED730AB8EEE78A8B
:1021580088EE008A93ED0E0A38EE000AB5EEC00A42
:10216800F1EE10FA09D45FED797AB4EE670AF1EE70
:1021780010FAC8BFB0EE670A01E01FED7D0A83EDD3
:102188000E0A14208CE0597D5944C829A8BFC821DB
:1021980021EAE171597514205AE0D9F8E4301A7827
:1021A800022A1ED107EE90BAB8EEE78A5FED8B7A65
:1021B80093ED0A0A88EE278A38EE000AB5EEC00ABF
:1021C800F1EE10FA07D4B4EE670AF1EE10FAC8BFC0
:1021D800B0EE670A01E01FED940A83ED0A0A0920B0
:1021E8005EE0D9785944C829A8BFC82121EAE1711D
:1021F800D97009202CE0D9F8E4301A78022A1ED1C7
:1022080007EE90BAB8EEE78A5FEDA27A93ED0D0A71
:1022180088EE278A38EE000AB5EEC00AF1EE10FA09
:1022280007D4B4EE670AF1EE10FAC8BFB0EE670A39
:1022380001E01FEDAB0A83ED0D0A0A2030E0597B5F
:102248005944C829A8BFC82121EAE17159730A2055
:1022580004F0B0FB6AE0D9F8E4301A78022A22D1F7
:1022680007EE90BA1FEDBA0AB8EEE78A88EE008A40
:1022780093ED100A38EE000AB5EEC00AF1EE10FA36
:1022880009D45FEDC07AB4EE670AF1EE10FAC8BF60
:10229800B0EE670A01E01FEDC40A83ED100A0B20B7
:1022A80004F072FB42E0D97D5944C829A8BFC8216F
:1022B80021EAE171D9750B20CAE7012936D198784E
:1022C800BD4B33F91230B3F5617F05DB40F63302BD
:1022D8009342A8BF134601E04FF46173BAF10C0FA3
:1022E80024D14FF4966292FBF0F0B44AA3F56173DF
:1022F80093FBF0F35FFA83F913784B4516D0B9F1E5
:10230800040F34BF4B4602231370AD4A0AFB035334
:1023180003F2E663136007F015FB5046494604F0E4
:1023280049FB09F10100C0B204F092FB029A0123B3
:10233800934094F8DC20134384F8DC30029B01338B
:102348000293019B0C330193029B042B7FF410AD85
:10235800C6E4D8F80030DA0510D59A4BDB786BB1B3
:1023680033689B070AD5984B1B8813F0010A0AD1DA
:1023780009F0F6FF012007F009FA04E0012007F050
:10238800F5F9012300E00023D9F8002050070DD506
:1023980063B1012007F0EAF98B4B1B88990708D431
:1023A80009F0DEFF022007F0F1F902E0022007F051
:1023B800DDF933689A0609D4D9F800301B0540F1D5
:1023C80094804FF4807007F0E1F992E07F4BDFF8DA
:1023D800F8A11B7813F0020F53D07D4B1B78042B08
:1023E8004FD9D9F8003013F4007B0FD0BAF8003079
:1023F800DE063AD4102007F0C9F9202007F0B6F914
:102408007448011D08F022F802232AE0BAF8006097
:1024180006F01006B6B22EB1102007F0A7F9012673
:1024280084F8E8B0D9F80030580512D5D4F8EC3063
:1024380069495A89B1F90030002BB8BF5B42934211
:1024480007DAB1F90230002BB8BF5B429342C0F201
:10245800F880BAF80030990608D5202007F086F9E8
:10246800002384F8E830012600E0002694F8F030D4
:10247800BBB90E2004F0C8FA584B012283F8F020AB
:102488000FE0BAF8003003F03003002B94D010208E
:1024980007F06CF9202007F069F9002384F8E83088
:1024A80001E0002E88D04E4B002003F1280603F1EE
:1024B80050044C4A002122F810104B4A596022F867
:1024C80010100432716022F8101000221A609A600D
:1024D8003260B26022606160A26014331436143432
:1024E80000287FF469AF0120E3E74FF4807007F01C
:1024F8003DF96B79082B01D00E2B02D1402007F053
:1025080035F9D8F800305A0540F1B18095F80C3209
:102518001BB93B7813F0040F03E0D9F8003013F42B
:10252800002F0BD0314B00221A703C200CF06CFAB3
:10253800002800F09C800BF02BF9F6E70AF0A8FBC6
:1025480009B0BDEC028BBDE8F04F0CF05EB9BAF1F2
:10255800000F02D07E2B3FF447AB94F8A130972BA5
:1025680006D11E4B4FF4C872A3F8A620FFF73EBB56
:10257800A72B06D1154A137843F004031370FFF70D
:1025880035BB0022BB2B079201D1022303E0B72BF6
:1025980004D14FF6FE73ADF81E303BE0BE2B01D1DF
:1025A800022304E0BD2B7FF421AB4FF6FE73ADF898
:1025B8001C302FE001201EE0481B002010230020C3
:1025C8005C1100207C260020C4190020001900207E
:1025D8000619002064110020D0110020500A0020A4
:1025E800440B0020C6260020BC0B002061240020DC
:1025F800022000E003205FFA80F909F1FF3385F833
:10260800E43607F005F907F0C1F9484604F020FA66
:10261800FFF7ECBADBF80030BDF81C10B3F858200F
:102628000A44A3F85820BDF81E10B3F85A200A44EB
:10263800A3F85A2007F046FB002384F8A230FFF7DE
:10264800D5BABAF800309B063FF510AF202007F046
:102658009DF80948094B011D1A685B6843600260D0
:1026680007F0F4FE064B012683F8E860FEE609B0A1
:10267800BDEC028BBDE8F08F6C110020081900201A
:10268800500A0020026BC168034610B5406942B188
:102698001A6C8C1A013A005D08BF0A46C0B21A6467
:1026A80010BD1A6A805C01328A4228BF0022C0B27B
:1026B8001A6210BD436B13B190F844007047836AE7
:1026C800406A1B1A584258417047036B13B15B6844
:1026D800016C01E0C369016A8B423CBFC2689B1868
:1026E800581AC0B27047836A8169426B1944D16035
:1026F800416A99429DBF0169CB1A5360CB1A96BFB4
:102708000023536083624FF0000380F8443013685D
:1027180088BF816243F0010313607047436A82698E
:10272800D154436A02690133934228BF00234362AC
:10273800436B1BB11B68DB0705D4D4E7026D136834
:1027480043F080031360704710F80A3C0133DBB292
:102758000A2B84BF10F8131C044A00F80A3C82BFF5
:10276800002322F8113000F80A3C70476C1B002047
:10277800334A136C90681944081A40F68C2398421F
:1027880070B513469160D06051603BD9127893F9C7
:1027980045108A4210460BD1111F082908D893F812
:1027A8004610182901D8013103E083F8442002E0DB
:1027B800002183F8461093F944402149A24219D1D7
:1027C80091F84740B4B10C310024944206DA1D4D0B
:1027D80051F8046F25F814600134F6E70C2805D089
:1027E8001849002421F810400130F7E7164801780D
:1027F8000131017083F84520002201211A7083F805
:10280800471070BD92F84710C9B1A0F2EF2440F20A
:10281800DA518C4208D811780B2905D80B1D0131E3
:10282800117042F8230070BD002283F84720074B3F
:1028380003F13002002143F8041F9342FAD170BD1E
:10284800C00800206C1B00206C010020CC08002070
:10285800024A136C0133194411647047C008002000
:10286800024B53F820301B68196070472020002065
:10287800064B53F820301A681B89A1F57A71594321
:102888004FF47A7391FBF3F1116070472020002018
:10289800F0B5046D8668236823F00103236083790B
:1028A800054613F0020F40790CBF4FF0000E4FF4AD
:1028B800005E13F0040F14BF4FF48067002710F078
:1028C800010F14BF042100218307206820F00100B4
:1028D8002060626822F440524EEA02026260226876
:1028E80022F4B05323F00C0348BF41F008013B43E6
:1028F8000B432360A36895B023F44073A360684634
:1029080004F00EFD284B9C4201D10C9B0EE0274B96
:102918009C4201D10D9B09E0254B9C4201D10E9BA5
:1029280004E0244B9C420CBF0F9B109B2268A879A3
:10293800170448BF5B00B3FBF6F206FB1233B3EB98
:10294800560F236828BF01321E0441BF4FF6F073AB
:10295800C2F34201134041EA03026B7992B213F0C9
:10296800020FA28100F0010114BF4FF400320022CF
:10297800DC0748BF42F480322B6D11B159680A4315
:1029880002E0596821EA02025A609A6801074CBFBE
:1029980042F0080222F008029A601A6842F0010226
:1029A8001A6015B0F0BD00BF003801400044004077
:1029B80000480040004C0040417169E7816067E7CA
:1029C800026D036B70B50446D5699BB9A90611D58C
:1029D800C36A1BB1908C80B298470BE0E169928C76
:1029E80040694E1CD2B2E6614254E169E268914204
:1029F80028BFE361616BA1B92A0612D5636AA26A8E
:102A08009A42236D09D0501CA669A062B25C1A854F
:102A18002369984205D3A16203E01A6822F0800274
:102A28001A602B0742BF236D08221A6270BD0D4B36
:102A38000D484FF400525A600C4A11684FF6FE7365
:102A48000B401360426B11684FF6FE730B40136026
:102A5800426A836A9A4200D045E6012380F84430EE
:102A6800704700BF000002402C1F002044000240B5
:102A78002DE9FF471D46B24B9DF8306098428846C5
:102A8800174640F08680AF4BAF4A1A60AF4A5A618A
:102A980002F580729A614FF48072DA601A61AC4A6A
:102AA8001A63143A5A63A2F54842203ADA640432A7
:102AB8009A649F601865A74B9A6942F480429A61AC
:102AC8005A6942F001025A6102238DF80C3003233F
:102AD80016F0010A8DF80D304FF000038DF80E3016
:102AE80014BF0223012331078DF80F301BD54FF097
:102AF80090444FF40079CDF808908AF001038DF8DE
:102B08000E30636A23F0F0036362636A43F0700374
:102B18006362204602A904F071FDBAF1000F28D1C2
:102B2800C4F8189025E0AA0710D504A94FF400733B
:102B380041F8083D4FF09040436A23F0F0034362A8
:102B4800436A43F07003436204F058FDEB0710D565
:102B580004A94FF4806341F8083D4FF09040436A60
:102B680023F470634362436A43F4E063436204F00E
:102B780045FD0E238DF804300022012301A88DF8AD
:102B880005308DF806208DF807306E4C0CF04CF9A6
:102B980075E0714B984240F0F380704B6A4A1A60B6
:102BA8004FF48072DA601A616D4A5A6102F58072D8
:102BB8009A61684A9F601865D36943F40033D3610A
:102BC80002238DF80C30032316F0010A8DF80D301E
:102BD8004FF000038DF80E3014BF02230123340791
:102BE8008DF80F301AD55F4C4FF02009CDF80890BA
:102BF8008AF001038DF80E30236A23F470032362F0
:102C0800236A43F4E0032362204602A904F0F6FC99
:102C1800BAF1000F24D1C4F8189021E0A8070ED506
:102C280004A9202341F8083D4E48036A23F47003A1
:102C38000362036A43F4E003036204F0DFFCE9077C
:102C48000ED504A9402341F8083D4648036A23F0FD
:102C580070630362036A43F0E063036204F0CEFC2E
:102C680026238DF804300022012301A88DF80530B1
:102C78008DF806208DF807300CF0D6F8374CC4F8DC
:102C88002C80012384F8443000232362E361A3628B
:102C980063626571A760A6712046FFF7F9FDEA0730
:102CA80029D5206B00B3D4F84C80E668676904F036
:102CB800ABFA236B216D1A6822F4FF4222F07002EE
:102CC80042F48552B6B21A605E60C3F80880DF60CD
:102CD8001A6842F001021A608A6842F040028A606B
:102CE8005B689BB2236406E0236D20221A621A688F
:102CF80042F020021A60AB073BD5606B002833D046
:102D0800A66C256904F080FA636B1A6822F4FF4206
:102D180022F0700242F4845242F010021A60ADB2FE
:102D280000225D609E60DA60196841F00201196056
:102D38005A605A60226D936843F08003936018E0EC
:102D4800003801402C1F002090390108C40B0020D6
:102D5800580002400010024000440040D81E0020E5
:102D6800C40D0020000C0048226D136843F0800356
:102D78001360226D136843F001031360204600E0DE
:102D8800002004B0BDE8F0873D4B1B78012B30B51F
:102D980014BF00240324B1B9036A23F001030362BA
:102DA8008169036A21F0F30123F00A0341F001016C
:102DB80042F001021A4341EA041181610262836907
:102DC80023F00C031BE004291DD1016A4FF6EF73B1
:102DD8000B4003628169056A120121F473414FF6C1
:102DE8005F7342F0100241F480712B4092B213439A
:102DF80041EA043181610362836923F4406383619A
:102E08008369836130BD0829016A1AD14FF6FF63CF
:102E18000B400362C169036A9BB289B223F4206341
:102E280043F4807321F0F30143EA022241F00101E7
:102E380092B241EA0411C1610262C2694FF6F373AA
:102E480019E04EF6FF730B400362C369056A40F64A
:102E5800FF41194045F6FF732B4043F4805343EA82
:102E6800023241F4807192B241EA0431C1610262D6
:102E7800C2694FF2FF331340C361C369C36130BDF8
:102E8800BC08002038B510F80E2C50F8043C044655
:102E980052B9012200F80E2C20F80C1C997A1868F7
:102EA8000222BDE838406FE730F80C2C20F80A1CE5
:102EB800891A89B220F8081C074A10F80F0C002557
:102EC80022F8101004F80E5C1868997A2A46FFF761
:102ED8005BFF04F8065C38BD6C1B0020044B53F8FC
:102EE80020301BB107289CBF1B681960704700BFC2
:102EF800E8090020084A13689B050BD5074B0021F9
:102F08001970074908684FF6FE7303400B604FF4C9
:102F180000735360704700BF00000240CB260020BA
:102F28003000024073B506460D46002401232A8866
:102F3800A34013421AD0AA78009302F003038DF835
:102F48000430EB78022B03D0032B0CBF032301239F
:102F58008DF805303046C2F301136946C2F3810289
:102F68008DF806308DF8072004F048FB0134102C4A
:102F7800DCD102B070BD2DE9F743DFF81C9299F857
:102F8800004405468E460068114616469846724625
:102F9800631C89F8003407F0C7FB2B89ADF80430AF
:102FA80001A9022368688DF806308DF80730FFF70D
:102FB800B9FFAB7A2A6809F2044724012744494635
:102FC8000C2B00F2B780DFE803F007B5B5B53EB5C6
:102FD800B5B56AB5B5B59300136ADFF8C0C123F07B
:102FE80001031362136AD2F804E0906920F4803078
:102FF80020F07300624540F0700012D00CF5006CB0
:1030080062450ED00CF5406C62450AD00CF5806C18
:10301800624506D00CF5806C624502D043F003038C
:1030280007E023F00E032EF4407E43F003034EF432
:10303800807EC2F804E09061C2F83480136293691C
:1030480043F0080329E0136ADFF850C123F01003A6
:103058001362136AD2F804E0906920F0807020F4BB
:10306800E640624540F4E04006D00CF5006C62454D
:1030780002D043F0300307E023F0E0032EF4406E63
:1030880043F030034EF4806EC2F804E09061C2F859
:1030980038801362936943F4006393614AE0136ACA
:1030A800DFF8F8C023F480731362106AD2F804E0E2
:1030B800D369624523F0730343F0700306D00CF51F
:1030C800006C624502D040F4407007E020F4606074
:1030D8002EF4405E40F440704EF4805EC2F804E086
:1030E800D361C2F83C801062D36943F0080320E042
:1030F800136ADFF8A8C023F480531362106AD2F869
:1031080004E0D369624523F4E64343F4E04340F422
:10311800405003D00CF5006C624501D14EF4804E4E
:10312800C2F804E0D361C2F840801062D36943F466
:103138000063D3612B7B1BB1536C43F4004353648E
:1031480013889BB243F001031380AB7A0C2B19D878
:10315800DFE803F0071818180B1818180F181818B4
:1031680013000B1902F134000AE00B1902F13800C0
:1031780006E00B1902F13C0002E00B1902F14000D5
:10318800C3F804040C443846A4F80C64C4F80824B2
:1031980003B0BDE8F08300BFC40B0020002C014041
:1031A8002DE9F04FC14BB3F90610C14B2DED028B41
:1031B8001F687A8987B0914201930EDBB1F5FA6FE7
:1031C800FC79BDBF8B1A6343A2F5FA64C4F16404A9
:1031D800BCBF93FBF4F4643400E06424B54AB64BF6
:1031E800B2F896A192F95E211868049092B20592FD
:1031F800054600220293AD4B33F912300393CAEB14
:10320800030303F2F31640F2E63086424FEA420B1C
:1032180003D8002BB8BF5B4201E04FF4FA73022ACF
:10322800049E4FF064002FD096F811E1BEF1000F14
:1032380004D07345CCBFCEEB03030023DFF8C0E214
:1032480093FBF0FC6FF063093EF81C809B4E09FB72
:103258000C390CF1010C3EF91CE00FFA88FCCCEBA0
:103268000E0E0EFB09FE9EFBF0FEC64426F80BE090
:10327800BE1836797343924E93FBF6F364339BB2D0
:10328800634393FBF0F02EE096F812E1BEF1000FD5
:1032980004D07345CCBFCEEB03030023DFF84C8288
:1032A80093FBF0F06FF0630C0CFB003938F910E079
:1032B8000130002B38F91000CEEB000000FB09F9B3
:1032C800BDF8140099FBFCF9CEEB090919FB00F9CC
:1032D8007A48A0F80490B879B8BF5B42434378486D
:1032E80093FBF0F064306B78764E4FF0640E4343F6
:1032F80093FBFEF3B354744EEB7A434393FBFEF314
:10330800B3546B7D6D4E5843704B90FBFEF0022A10
:1033180098546F4B0FD183F802E0039B53450EDBA3
:10332800644CB4F89821914215DBB1F5FA6FA8BF47
:103338004FF4FA6110E09C54039B534504DA36F8C5
:103348000B305B4226F80B300132032A05F10105E8
:103358007FF451AFE4E71146891A4FF47A73DFF826
:10336800A4E1564D59436FF06303C2F5FA6264272E
:10337800B1FBF2F191FBF7F23EF8120003FB0211E8
:10338800013203B23EF91220D21A514391FBF7F3EE
:103398000344F3804F4B1B885B0635D54E4B4F4A91
:1033A8001B881288DFED4E7A9B1A1BB208EE103A82
:1033B800B8EEC88A28EE278AB0EE480A06F0CEF999
:1033C800F0EE408AB0EE480A06F068F9B5F9023026
:1033D80006EE903AB5F90030F8EEE66A07EE903A54
:1033E80020EE667AF8EEE77AA7EEA87A67EE807A9A
:1033F800BDEEC77AE6EEA87A17EE103AFDEEE77A48
:103408002B8017EE903A6B80364D2B689F0740F162
:10341800A180354B354F1A687B6945F20721D31ACD
:103428008B4240F397807A6104F0D6F9304BDFF88D
:10343800D8901A78032A9846B9F8003022D10A2B76
:103448002AD90023282088F8003007F058FE04F015
:10345800C3F9284B188804F0A9F9274B1A68D378C0
:1034680090FBF3F001300828244BA8BF08201870FF
:10347800537980B213FB00F33B83137913FB00F0FD
:10348800788309E00A2B07D803231C4A88F8003000
:10349800002313703B837B8398F80030144A012B78
:1034A8003DD033D3022B4CD054E000BF481B002042
:1034B8005C110020D81100203C110020D011002000
:1034C8000CFEFFFF00200020C61000201420002062
:1034D800801F0020C4190020CC1100208C2400205B
:1034E80035FA8E3C30260020AC260020B81000208B
:1034F8004C190020481C0020E8180020EC0000208F
:10350800321A00201A1A0020EC1800203A8BB9F859
:1035180000309A421EDD012388F800300FE0B9F828
:1035280000107B8B8B4202DD022313700FE09B4B54
:103538001B8B0133994202DD002313700AE0082037
:1035480006E07B8BB9F8002001339A42E3DC0720C0
:1035580003F05AFA2F683D0570D5914B8F4D1A68C4
:10356800EB69C3EB020845F20723984566DD8D4BEE
:10357800B6F906B0D3F80090EA6199F80A30B4F8C1
:103588004E11894E012B4FF47A70ABF57A7B98FB7C
:10359800F0F803D03BD3022B19D03AE02A6A08216D
:1035A80092FBF1F3D31A00222B62AA8493FBF1F366
:1035B80040F6E4429BB25343B9F80820C2EB1333F8
:1035C8005843B9F9063090FBF3F0306021E0774BAF
:1035D800B9F808A01B78C6F800A0580719D5744890
:1035E80003F0B7F920B917F0100F18BF4FF0000B10
:1035F80032220BFB0BF393FBF2F3B9F906205B4481
:103608005A434FF47A7392FBF3F3534400E00023D8
:103618003360D5E90A013368664A03FB08F84FF4BA
:103628007A7398FBF3F810EB080041EBE87100237C
:10363800C5E90A010CF050FA5F4B18605F4E336819
:10364800D90427D53A0622D55D4B1B789B071ED592
:103658005C4B187804281AD900225B4BD71805212F
:10366800951C4FF00A0E122AD154E9B287F801E0EE
:1036780004D0B0EB510F2A46EFD800E014215A18B5
:10368800322002F8010CFF225A540F2000E00A20D1
:1036980003F0BAF94D4D2A68002A50D04C4B4D4FD3
:1036A800186839688142984649D84B4BDFF83491FD
:1036B80019785268E1B94FF0010A83F800A0B9F807
:1036C8000030D35C23B3504607F032FD434B83F8F8
:1036D80000A00BF0B9FFB9F80030CBB92B681B7804
:1036E800053B534514D807F0E3FC3D4B18600FE049
:1036F8004FF0000A83F800A0B9F80030D35C3BB162
:10370800504607F015FD354B83F800A00BF09CFFE1
:103718002A68B9F8003052683248D25CFE2A01D1D2
:1037280000230BE0FF2A02D103F058F907E0D8F88C
:1037380000500A2111FB02523A60013303801B4DED
:103748002B785F0704D5284B4FF480521A8561E027
:103758003268D0075CBF43F001032B70184B1B780D
:1037680019075EBF2B7823F001032B70D30242BFE9
:103778002B7823F001032B701C4B1A88174B1AB1B6
:103788001B4A1268970702D41A4A1288A2B3022267
:103798001A702B7823F001032B7032E0B810002048
:1037A800AC260020E8180020F4180020CC260020C1
:1037B80060130020407E0500F81800200411002046
:1037C80000190020061900203C2300204C1A002074
:1037D80054260020441A0020401A0020A026002069
:1037E80010260020481A002000040048F60A00208D
:1037F800FC180020C42600202978CE0758BF0222D2
:103808001A7007F055FCB14B1B68C01A002801DB81
:103818000BF01AFF09F03CFAAD4B03931E78002E0B
:1038280000F0AD80AB4F3B68002B00F08A8638680B
:1038380007F08DFC002800F08486A64BA64C18687B
:1038480007F082FC092801D03F2852D14FF0000927
:103858002668DFF8C4824D4636B1A048D8F8001073
:1038680032460EF07BFF10B9C14605B945469C4B60
:1038780008F110089845EFD3EDB1D5F800C0D9F894
:10388800008023681CF803E018F80300704512D183
:103898005A1C924958B92D2B09D8DFF83CE2CEF8CA
:1038A80000204FF0200E01F803E0885403E001F8EF
:1038B80003E02260E5E723680BB14D4510D0894845
:1038C8000AF05AF84D4507D855F8100B0AF054F885
:1038D80009200AF049F8F5E783480AF04DF8002670
:1038E80023689E42A3D27D4B985D0AF03DF80136CD
:1038F800F6E72368002B40F00886042840F0448649
:10390800764804F0B7F800F01CBED8F80000DFF8DD
:10391800E89107F01CFC40B3D9F8000007F014FC4C
:10392800DAF8003093F848208346002A35D1242855
:103938006CD1012283F84820DAF80030DFF8B4911E
:1039480093F848B0BBF1060FDFD193F8490000F0B7
:10395800A9FE8046002800F081803B68987909F02C
:1039680054FF3B68002283F84820604B93F83730B7
:10397800002B40F0B8854C36982E00F0E2855C4B61
:10398800F21892F84A100129F5D15A4FF3583A60C3
:10399800594ABA4613609046B7E7012A04D14D2820
:1039A80014BF00220222C5E7022A04D13C2814BF12
:1039B80000220322BEE7032A0AD140284FF0000262
:1039C8009FBF1A71DA715871987198BF0422B1E7D4
:1039D800042A08D19A7983F8490080EA020B83F80F
:1039E80006B00522A6E7052AA6D159791A79914287
:1039F800997906D941409971511C1971134418726B
:103A08009AE781420CBF0622002293E72B783B4AB3
:103A1800590791D42328D9F8003012D10492039A77
:103A28003748012111702B490B6030490B6309F0AD
:103A3800A3FF2D4809F0A0FF049A137843F002036E
:103A48001370304B1B681B785B4501BF2E4B2F4A08
:103A58001A602F4B04BF2F4ADA606DE7D9F80020AF
:103A680092F849304E2B00F09D8476D8352B00F023
:103A78004B821BD8292B00F0448409D8252B00F051
:103A88001B84272B00F01F84232B40F0798500E24C
:103A98002D2B00F04784332B00F0B0842B2B40F003
:103AA8006F8509F095FE607100F018BD3E2B00F09F
:103AB800D68033D8392B00F013843C2B00F0D98002
:103AC800372B40F05D8500F0CDBC00BFA426002058
:103AD800CD2600202C2300200C1D0020DC1C0020FB
:103AE800143D01087457010879570108B8100020DF
:103AF800C0230020A4190020A8190020CC260020EB
:103B0800A957010864240020FC9F0020EFBEADDE09
:103B180000ED00E00400FA05843B0108432B00F0A7
:103B28007E8406D8412B40F02B854FF0000800F02A
:103B38006ABC442B00F0CE844C2B40F0218509F060
:103B480047FE84F8D60109F043FE84F8D70109F04E
:103B580049FEA4F8D80100F0C1BCD12B00F06B835A
:103B68001AD8CC2B00F00E8209D8C92B00F03C8360
:103B7800CA2B00F08D80C82B40F0028542E0CE2B86
:103B880000F02583C0F01A83CF2B00F04F82D02B92
:103B980000F0098300F0F4BCD62B00F0808207D82F
:103BA800D32B29D015D3D42B00F0848200F0E8BCA5
:103BB800EF2B44D005D8D82B40F0E2844FF0000911
:103BC800F9E0F22B00F0C482FA2B00F0098300F030
:103BD800D7BC2B7803F0040303F0FF08002B40F058
:103BE8007D8409F0F5FD022884F8E40640F2E182BC
:103BF800D94B83F8E486DCE209F0F4FDD74B9886CC
:103C080000F06CBC92F805804FEA5808B8F1120F22
:103C180003D90AF0F5FE00F061BC4FF00009C14578
:103C280007D209F0DFFDCE4B23F8190009F101098D
:103C3800F5E7CA4B012283F8362000F04FBCDFF8C5
:103C48002483D8F8009009F0CDFDA9F85A00D8F8D7
:103C5800008009F0C7FDA8F8580000F03FBC09F043
:103C6800B7FD84F8E00109F0B3FD84F8DF0100F046
:103C780035BCDFF8F082D8F8009009F0A9FD89F882
:103C88000000D8F80030187807F09DFC00F026BC3A
:103C9800B44B1A681278022A4FF0000998466FD17F
:103CA800D8F800A009F094FD07EE900AF8EE677ABC
:103CB800B2EE048AC7EE887A0AEB890ACAED087A56
:103CC800D8F800A009F084FD07EE900A9FEDA67AC7
:103CD800F8EE677A0AEB890AC7EE877ACAED0B7A9B
:103CE800D8F800A009F074FD07EE900A9FED9F7ABE
:103CF800F8EE677A0AEB890AC7EE877A09F10109B3
:103D0800B9F1030FCAED0E7ACAD1B9F1070FD8F885
:103D180000A01CD109F05CFD07EE900AF8EE677A66
:103D2800C7EE887ACAED117AD8F800A009F050FDDC
:103D380007EE900AF8EE677AC7EE887ACAED127A2B
:103D4800D8F800A009F044FD8AF84C0012E009F008
:103D58003FFDCA448AF80100D8F800A009F038FDF0
:103D6800CA448AF80B00D8F800A009F031FDCA440B
:103D78008AF8150009F10109B9F10A0FC5D1ADE3B7
:103D8800D8F800A009F024FDCA448AF80100D8F840
:103D980000A009F01DFDCA448AF80B00D8F800A05D
:103DA80009F016FDCA4409F10109B9F10A0F8AF8A8
:103DB8001500E5D192E3DFF8AC819FED6C8AD8F865
:103DC80000A009F00FFD07EE900AF8EE677A0AEBFB
:103DD800890AC7EE887ACAED087AD8F800A009F0EF
:103DE80001FD07EE900AF8EE677A0AEB890AC7EE3A
:103DF800887ACAED0B7AD8F800A009F0F3FC07EE30
:103E0800900AF8EE677A0AEB890AC7EE887A09F110
:103E18000109B9F1030FCAED0E7ACCD1B9F1070F38
:103E2800D8F800A01CD109F0DDFC07EE900AF8EEE6
:103E3800677AC7EE887ACAED117AD8F800A009F037
:103E4800D1FC07EE900AF8EE677AC7EE887ACAEDD9
:103E5800127AD8F800A009F0C5FC8AF84C0012E0E4
:103E680009F0C0FCCA448AF80100D8F800A009F09B
:103E7800B9FCCA448AF80B00D8F800A009F0B2FCD3
:103E8800CA448AF8150009F10109B9F10A0FC5D128
:103E980024E309F09DFC132882463FF6BAAEDFF80A
:103EA800C490D9F800B009F093FC0023304A0C21E3
:103EB80001FB0322117A814222D10FFA8AF80BEB17
:103EC8008808137888F8793009F082FC88F87A0035
:103ED80009F07EFC88F87B0009F07AFC254B264A1D
:103EE8001A6088F87C00254BD9F80000186000217A
:103EF800793002F01DFD224B80F001001870EDE2D0
:103F080001331C2BD2D184E609F062FC0B288046D1
:103F18003FF67FAE134BD3F8009009F059FC032805
:103F28003FF677AE0BFB089B8BF8CE0009F050FCF0
:103F38008BF8C90009F04CFC8BF8CA0009F048FC62
:103F48008BF8CB0009F044FC8BF8CC0009F040FC5E
:103F58008BF8CD00C2E200BFD8110020B8100020B5
:103F6800481B00203C1100200000C84200007A4491
:103F7800E0390108300B002018130020340B002012
:103F8800010000205379092B7FF643AE019BD3F83B
:103F9800008009F01DFC019B88F80000D3F8008020
:103FA80009F016FC88F8010009F012FC019B64284E
:103FB8001B68A8BF6420187109F00AFC019B6428DB
:103FC8001B68A8BF6420587109F002FC019BFF28F8
:103FD8001B68A8BFFF20987109F0FAFB019B6428B1
:103FE800D3F8008028BF642088F8070009F0F0FBA8
:103FF800019B88F80200D3F8008009F0E9FB019BD7
:1040080088F80300D3F8008009F0ECFBD9F80030F9
:10401800A8F80A005B790A2B40F26082D34BD3F8E8
:10402800008009F0D5FB88F8080057E209F0DAFBB0
:104038006FF4AF6283189BB2C62B98BFA4F89601A1
:1040480009F0D0FBA4F8400109F0CCFBA4F8420128
:1040580009F0C8FBA4F8440109F0C4FBA4F8D8018E
:1040680009F0B6FB84F8ED0109F0B2FB09F0B0FBEA
:1040780084F8EE0109F0ACFB84F8850109F0A8FB8F
:1040880084F8920109F0A4FBB94BD3F8008009F039
:10409800A9FB00EB80004000A8F8560020E109F0D9
:1040A800A1FBB44B23F8180008F10108B8F1080F78
:1040B800F5D113E253790F2B7FF4ABAD09F088FBF0
:1040C800072880463FF6A5AD029BD3F8009009F07B
:1040D80089FB0E2303FB08F8C144029BA9F81901C8
:1040E800D3F8009009F07EFBC144029BA9F81B019C
:1040F800D3F8009009F076FBC144029BA9F81D0192
:10410800D3F8009009F064FBC144029B89F81F01B1
:10411800D3F8009009F05CFBC144029B89F82001A8
:10412800D3F8009009F054FBC144029B89F821019F
:10413800D3F8009009F04CFBC144029B89F8220196
:10414800D3F8009009F058FBC844C8F82301C5E12A
:1041580009F03EFB0F2880463FF65BADC8EBC80868
:1041680009F036FB04EB080303F1D00883F8D0000C
:1041780009F02EFB88F8010009F02AFB88F80200F4
:1041880009F026FB88F8030009F022FB88F80400F0
:1041980009F01EFB88F8050009F01AFB88F80600EC
:1041A80007F084F99AE12B785B0700F1978109F011
:1041B8001BFE05F02DFB05F0E9FB8FE12B78580776
:1041C80000F18C816C4B4FF4C8721A8086E12B7811
:1041D800590700F18381694A137843F0040328E002
:1041E8002B785A07E5D5CBE109F0F2FA634B1A7838
:1041F80010B142F0020201E022F002021A7009F046
:10420800E7FA5F4BDFF89881187009F0F5FAC8F8FB
:10421800000009F0F1FAC8F8040009F0E3FA594B74
:10422800188009F0DFFA584B584A1880137843F081
:104238000203137052E109F0CBFA834609F0DCFA65
:10424800824609F0D9FA814609F0D6FA804609F083
:10425800C9FA09F0C7FA09F0BBFABBF1000F14D18B
:104268004B4B1020C3F800A0C3F8049005F07EFA69
:10427800424A137843F001031370B8F1000F00F0BD
:104288002D81444BC3F8008028E1BBF1100F40F0AA
:104298002581414BC3F800A0C3F80490B8F1000F82
:1042A80002D03C4BC3F800803B483C4B0222011D26
:1042B8001A7006F0CBF811E1A06009F09DFAA36826
:1042C8001843A0600AE109F08DFAA4F8580109F032
:1042D80089FAA4F85A0109F085FAA4F85C01FDE00E
:1042E80009F076FA84F87A0109F072FA84F87E0106
:1042F80009F06EFA84F87D0109F06AFA84F87F0102
:10430800ECE009F06FFAA4F8800109F06BFAA4F860
:10431800820109F05DFA84F8840109F063FAA4F8CF
:104328008601DBE009F054FA84F8900109F05AFAA2
:10433800A4F89A0109F056FAA4F8960109F052FA7D
:10434800A4F8980109F044FAD9F8003084F89101EA
:104358005B79082B40F2C28009F044FAA4F89C016A
:1043680009F040FAA4F89E01B8E000BF5C110020F3
:104378003C11002012230020F60A0020001900201A
:1043880006190020041900200219002062110020DB
:1043980064110020741100206C110020380B0020DB
:1043A8000819002092F805900323B9FBF3F9B9F135
:1043B800120F3FF62EACDFF8E8A2C84580F08E80D9
:1043C80009F006FA8AF8A00109F00CFA40F2ED2388
:1043D800984205DD40F6CA039842A8BF184601E096
:1043E80040F2EE20A0F2EE20192308F1010890FB1C
:1043F800F3F00AF1020A8AF89F01DEE709F0E8F90A
:1044080084F892016AE009F0E3F904EB080308F183
:104418000108B8F1080F83F88801F4D15EE009F0CB
:10442800D7F9C4F80880607109F0E6F9A368184361
:10443800A06009F0CDF984F8900109F0D3F9A4F847
:10444800580109F0CFF9A4F85A0109F0CBF9A4F8FA
:104458005C0109F0C7F9A4F8800109F0C3F9A4F8D0
:1044680082013BE053794FF00709B3FBF9F9C9EB37
:10447800C9029B1A13F0FF0F7FF4CBAB5FFA89F9DF
:1044880009F1FF395FFA89F9B9F1FF0F26D009F070
:104498009FF95FFA80FA4FFA8AF002F0CFF8804667
:1044A80000283FF4B6AB80F800A009F09BF9A8F803
:1044B800020009F08DF988F8040009F089F988F8F4
:1044C800050009F085F988F8070009F081F988F8EE
:1044D8000600D5E7604B012283F83720002009F059
:1044E800C3F9FFF73ABA5D4B985906F027FE18B999
:1044F800322006F004FEF6E706F098FF05F05EF9B4
:10450800574B584ADA60FFF736BA0C283ED00A28CB
:1045180040D1554D554809F02FFA284623210EF071
:1045280006F908B1401B20602368002B35D14E489E
:104538002360002130220EF0C4F8039B1B78002B67
:104548005ED14B4B1B689B060FD54A4B42491B68F3
:104558008A6B9A1A002A08DB474A1278042A82BF13
:1045680003F5123303F5F8738B63444B9B68002BF8
:104578006DD0434807B0BDEC028BBDE8F04F18473B
:104588000AF03EFAFFF7E9B90C2847D13D4809F08F
:10459800F3F935E00D2835D1BBE75A1EA95C20296F
:1045A80001D11346C1E7304A23600021D154364B6C
:1045B800364DD3F80090D5F800A0DFF8AC8050460F
:1045C8000EF0C3F806463246404651460EF0C6F88D
:1045D8002F4A28B918F806304B445B78580703D09F
:1045E80010359542E7D306E0954204D2701CEB687B
:1045F8004044984702E0274809F0BEF9002396E7AF
:10460800254807E07F280DD1013B174A234823603E
:104618000021D15409F0B0F9FFF709B97F2804D176
:10462800FFF705B92F2B3FF602A9A0F12002D2B25D
:104638005E2A3FF6FCA813B920283FF4F8A85A1CB4
:104648002260094AD05409F08FF9FFF7F0B807B093
:10465800BDEC028BBDE8F08FB8100020C02300200D
:1046680000ED00E00400FA05DC1C0020A762010848
:10467800FC180020AC260020061900200422002087
:10468800CE1100207E570108FC000020843B010861
:10469800143D01088957010879570108A5570108F1
:1046A800D81100202DE9F04764282DED028B04462F
:1046B80000F0BF8100F2D580322800F05F8667D80D
:1046C800222800F08C8423D8032800F07E8114D897
:1046D800012800F06E81022840F09186042009F03C
:1046E800C3F8432009F091F84C2009F08EF84620D1
:1046F80009F08BF84C2000F047BE042800F06F81C9
:10470800052840F07C861A2009F0AEF8002477E1ED
:10471800282800F0EC8515D8242800F0CF85262815
:1047280040F06D86CB4C062009F09EF8B4F858018D
:1047380009F09DF8B4F85A0109F099F8B4F85C0149
:1047480000F033BE2A2800F0E5852C2840F0578673
:10475800C04C0C2009F088F894F8900109F055F83D
:10476800B4F89A0109F083F8B4F8960109F07FF8D3
:10477800B4F8980109F07BF894F8910109F045F82C
:10478800B4F89C0109F073F8B4F89E0100F00DBE6E
:104798003D2800F0E68224D8382800F0958512D804
:1047A800342800F03E84362840F02986AA4BA94CCC
:1047B80093F8C100C0EBC000C0B209F055F804F18D
:1047C800180500F000BE3A2800F099823B2840F016
:1047D8001686012009F048F89F4B5B6C187800F0AA
:1047E800D3BD452800F0F88527D8402800F0CF85AC
:1047F800422840F00486974C102009F035F860797B
:1048080009F003F8A06809F03BF894F8900108F063
:10481800FCFFB4F8580109F02AF8B4F85A0109F075
:1048280026F8B4F85C0109F022F8B4F8800109F020
:104838001EF8B4F8820100F0B8BD4B2800F070856E
:104848004D2800F07C85462840F0D9850D2009F0D8
:104858000BF8002008F0D9FF002009F011F800F04B
:10486800C6BD722800F05B8455D86A2800F09B8486
:104878002FD8672800F0B8811CD8652800F002817D
:10488800662840F0BC85754C122008F0EDFF2088A2
:1048980008F0EDFF608808F0EAFFA0886E4C08F089
:1048A800E6FFA08D08F0E3FFE08D08F0E0FF208E22
:1048B80000F0FABC682800F00482692840F09F855F
:1048C800674D2878400000F0FE0008F0CDFF002476
:1048D80003E26D2800F00C8213D86B2800F0838463
:1048E8006C2840F08C855F4C062008F0BDFF2088BE
:1048F80008F0BDFF608808F0BAFF5B4B188800F02D
:1049080054BD6F2800F05282C0F0FD81702800F07D
:10491800778200F074BD782800F0728119D8752864
:1049280000F0518309D8732800F03284742840F0CD
:1049380066854FF000080126A0E3762800F064841D
:10494800772840F05C85444D287C08F08DFF0024D2
:10495800DDE3A42800F07D8414D87B2800F0D982F8
:10496800A02840F04C850C2008F07EFF3F4B1868CB
:1049780008F086FF3E4B186808F082FF3D4B186828
:1049880000F039BDF12800F07681FE2800F0888417
:10499800F02840F03485304C042008F065FF636C43
:1049A800B3F85A0008F063FF636CB3F8580000F0DE
:1049B800FCBC032008F058FF002008F026FF204622
:1049C80008F023FF0D2000F0DFBC08F04DFF0120A8
:1049D80008F01BFF0A2008F018FF00F038BC06207A
:1049E80008F042FF412008F010FF462008F00DFFB4
:1049F800462008F00AFF332008F007FF00F05CBCEF
:104A08001D4B185D013408F000FF0B2CF8D1002471
:104A18001A4B185D013408F0F8FE082CF8D1002470
:104A2800174B185D013408F0F0FE072CF8D100F0A0
:104A3800E4BC072008F018FFE72008F0E6FE054B65
:104A4800587908F0E2FE002008F0DFFE042000F0AC
:104A5800D2BC00BFD8110020F8100020C6110020D9
:104A68005C24002026260020CC110020ACF7FF1F74
:104A7800B0F7FF1FB4F7FF1FD6530108E253010830
:104A8800B7530108BC4C0B2008F0EEFE208808F054
:104A9800EEFE6268B94B9A420CBF2089608980B2E9
:104AA80008F0E5FEB64B1B68C3F3C000C3F38002F1
:104AB800800040EA4200C3F340021043C3F34012AF
:104AC80040EAC20003F01003184308F0D0FEAD4BD3
:104AD8001A88E368247C02F0080103F4475949EA7C
:104AE800010903F4804149EA010903F4004149EA54
:104AF800010903F4803149EA010903F4003149EA64
:104B0800010903F4802149EA010903F4002149EA73
:104B1800010903F4801149EA010903F0007349EA25
:104B28000303DFF8849299F8009012F0010FC9F39B
:104B3800800914BF4FF002084FF0000843EA090348
:104B480012F0020F43EA080314BF4FF0040C4FF0B1
:104B5800000C12F0040F43EA0C0C14BF4FF0100EB7
:104B68004FF0000E12F0400F14BF202700274CEA28
:104B78000E0E12F0100F14BF4FF4007600264EEA06
:104B8800070712F0200F14BF4FF4806500253E433D
:104B980012F4807F14BF4FF400600020354312F4F4
:104BA800007F14BF4FF400110021284312F4806FD6
:104BB80041EA000114BF4FF080630023002019432D
:104BC8000346A3420AD2704A9D5C012202FA05F507
:104BD8000D421CBF9A4010430133F2E708F050FE23
:104BE8006A4B93F8E406CFE3102008F03DFE00245A
:104BF800674B185D013408F008FE102CF8D1FCE36F
:104C0800702008F031FE00265B4D0E246B6C744357
:104C180023440136B3F8190108F029FE6B6C2344CC
:104C2800B3F81B0108F023FE6B6C2344B3F81D0195
:104C380008F01DFE6B6C234493F81F0108F0E5FD96
:104C48006B6C234493F8200108F0DFFD6B6C234460
:104C580093F8210108F0D9FD6B6C234493F82201E5
:104C680008F0D3FD6B6C1C44D4F8230108F008FE4F
:104C7800082EC9D1C1E37020444C08F0F5FD04F1B9
:104C8800700594F8D00008F0C0FD94F8D10008F041
:104C9800BCFD94F8D20008F0B8FD94F8D30008F0F1
:104CA800B4FD94F8D40008F0B0FD94F8D50008F0ED
:104CB800ACFD073494F8CF0008F0A7FDAC42E0D172
:104CC8009BE3102008F0D0FD0024324B185D01341E
:104CD80008F09BFD102CF8D18FE32B789C4280F0D4
:104CE8008C832D4B33F8140008F0C1FD0134F4E730
:104CF800062008F0B9FD002008F0C2FDDCE204201F
:104D080008F0B2FD76E3072008F0AEFD234B1888C3
:104D1800FF28A8BFFF20C0B208F077FD204B186815
:104D28004FF6FF74A042A8BF204620EAE07080B288
:104D380008F09DFD104BB3F8600008F098FD134B88
:104D480093F88521174B18683AB10A235843A042B3
:104D5800A8BF204620EAE07001E000F30F0080B20F
:104D680023E30A4C022008F07FFD94F8E00108F0E4
:104D78004CFD94F8DF0107E3F810002000540040D0
:104D8800FC180020C419002009110020D8110020A7
:104D98002A11002040110020481B0020EC18002098
:104DA800F8180020F4180020CC260020C24C0B2054
:104DB80008F05AFD636E187808F027FD636E58787E
:104DC80008F023FD002625466B6EBB4C33440136A4
:104DD800187908F01AFD032EF6D1636ED87908F019
:104DE80014FD636E987808F010FD636ED87808F0AB
:104DF8000CFD636E588908F03AFD636E187AC3E2B9
:104E0800AD4C1E2008F030FD636C1B78022B4FF070
:104E180000056BD1636C03EB850393ED080AB2EED2
:104E2800048A20EE080A0DF05BFE80F30800C0B289
:104E380008F0EBFC636CDFEDA17A03EB850393EDDF
:104E48000B0A20EE270A0DF04BFE80F30800C0B2D3
:104E580008F0DBFC636CDFED9A7A03EB850393EDD6
:104E68000E0A20EE270A0DF03BFE80F30800C0B2C0
:104E7800013508F0CAFC032DCCD1072D636C23D172
:104E880093ED110A20EE080A0DF02AFE80F30800BF
:104E9800C0B208F0BAFC636C93ED120A20EE080A5F
:104EA8000DF01EFE80F30800C0B208F0AEFC636C83
:104EB80093F84C3000EE103AB8EE400A0DF010FEB0
:104EC80080F30800C0B20BE02B44587808F09DFC32
:104ED800636C2B44D87A08F098FC636C2B44587D9B
:104EE800013508F092FC0A2DC7D186E2636C2B4489
:104EF800587808F08AFC636C2B44D87A08F085FC53
:104F0800636C2B440135587D08F07FFC0A2DEDD1E8
:104F180073E23C2008F0A8FC0024674D9FED688AE6
:104F28006B6C03EB840393ED080A20EE080A0DF07E
:104F3800D7FD80B208F09BFC6B6C03EB840393ED08
:104F48000B0A20EE080A0DF0CBFD80B208F08FFCAA
:104F58006B6C03EB840393ED0E0A20EE080A0DF048
:104F6800BFFD013480B208F082FC032CD5D1072C98
:104F78006B6C16D193ED110A20EE080A0DF0B0FD06
:104F880080B208F074FC6B6C93ED120A20EE080AEC
:104F98000DF0A6FD80B208F06AFC6B6C93F84C002B
:104FA8000BE02344587808F062FC6B6C2344D87AF1
:104FB80008F05DFC6B6C2344587D013408F057FC05
:104FC8000A2CD4D119E22F2008F04EFC3D4C14F8DD
:104FD800010F002800F0118208F017FCF7E75020B5
:104FE80008F042FC0025344B5C6C374B04EB85041D
:104FF8000C2194F8792001FB0233013593F838002D
:1050080008F003FC94F87A0008F0FFFB94F87B00A2
:1050180008F0FBFB94F87C0008F0F7FB142DE2D1B4
:10502800EBE1482008F020FC0025234B5C6C0623AC
:1050380003FB0544013594F8CE0008F0E6FB94F82C
:10504800C90008F0E2FB94F8CA0008F0DEFB94F807
:10505800CB0008F0DAFB94F8CC0008F0D6FB94F803
:10506800CD0008F0D2FB0C2DDFD1C6E1002E00F0F8
:10507800C4815FFA88F008F0F7FB002600270E4B82
:105088001A7C9742F2DA11330024FA5C0E4D0C2395
:1050980005F130016343595C914207D12B44586BA9
:1050A8000DF053FB82462EB9B1460FE001341C2C9B
:1050B800ECD118E0804416E0F81000200000C84247
:1050C80000007A44AF390108B0390108D1450ADA3D
:1050D8000C2303FB04535B6B13F8090008F095FBE2
:1050E80009F10109F2E70137C9E701311C290DD09F
:1050F800C4480C2200F1300702FB01F3DA5DB2422A
:10510800F3D1034493F8380008F07FFB01342B7C7B
:105118009C4280F07281BC4B0021E65CE8E7BB4C06
:10512800162008F0A1FBB4F8960108F0A0FBB4F82B
:10513800400108F09CFBB4F8420108F098FBB4F871
:10514800440108F094FBB4F8D80108F090FB94F8F7
:10515800ED0108F05AFB002008F057FB94F8EE0127
:1051680008F053FB94F8850108F04FFB94F892017E
:1051780008F04BFB002008F048FBA54B5B6C0A20AD
:10518800B3F9563093FBF0F080B208F070FB9FE063
:10519800082008F069FB0124E0B2013408F035FB6F
:1051A800092CF9D129E1102008F05EFB994B9A4CA3
:1051B800187800F0020008F028FB984B187808F0DF
:1051C80024FB206808F05CFB606808F059FB944BEE
:1051D800188808F04CFB934B188808F048FB8C4B58
:1051E800B3F86800E1E0052008F03EFB8E4B188814
:1051F80008F03DFB8D4B188808F039FB844B93F879
:105208006A0000F00100BFE008F0E2FA0746122049
:1052180008F02AFB7E4C17B9E66E256F05E0102FC3
:1052280013BF0025666FA56F2E46384608F0EDFAC5
:10523800304608F025FB284608F022FBE06F08F00E
:105248001FFB002008F013FB002008F010FB0020D3
:105258009AE06F4D95F8800080000130C0B208F0E8
:1052680003FB95F8800008F0D0FA00242E4696F843
:1052780080309C4280F0C1806D4D285D08F0C5FAF1
:1052880005F11003185D08F0C0FA05F12003303568
:10529800185D08F0BAFA285D08F0B7FA0134E6E7B5
:1052A800082008F0E1FA002008F0E1FA002008F0F0
:1052B800DEFA002008F0DBFA002076E0042008F08F
:1052C800D3FA524B986896E0042008F0CDFA4F4C78
:1052D80094F87A0108F099FA94F87E0108F095FAA2
:1052E80094F87D0108F091FA94F87F014CE0474C5E
:1052F800072008F0B9FAB4F8800108F0B8FAB4F851
:10530800820108F0B4FA94F8840108F07EFAB4F83F
:1053180086014AE0012008F0A7FA3C4B587933E0AF
:105328003A4C042008F0A0FA94F8D60108F06DFA77
:1053380094F8D70108F069FAB4F8D80135E03D4C83
:105348003D4D207800EB4000C0B208F08DFA0026F1
:1053580023789E4205F102054FD215F8020C08F099
:1053680054FA15F8010C00EB800000EB800000F205
:10537800EE2080B208F07BFA0136E9E7012008F058
:1053880073FA224B93F8920108F03FFA35E00820AF
:1053980008F06AFA00241D4B2344013493F888016D
:1053A80008F033FA082CF6D127E008F060FA24E078
:1053B80092F90C10994245D092F918209A4241D09E
:1053C8000834AC4219D01D4A94F8F40192F900103F
:1053D80043B29942ECD135E0132008F045FA002495
:1053E800174B185D013408F010FA0B2CF8D1002087
:1053F80008F046FA002008F043FA012039E00020BE
:1054080037E000BFB039010809110020D811002089
:10541800F8100020001900200819002006190020A3
:1054280004190020021900207A1900207C19002094
:10543800791100205C2400207813002068240020C3
:10544800D653010808F0E1F9B4F8F60108F00FFAAC
:1054580094F8F80108F0D9F994F8F90108F0D5F9A9
:1054680094F8FB0108F0D1F994F8FA0108F0CDF9A5
:10547800A6E7BDEC028BBDE8F08700BF2DE9F04739
:10548800D44CD54E237886B00746002B00F0FE8119
:1054980032686368D31A7C2B40F2F881237A626001
:1054A80001332372002505F12400DFF82883C0B2F8
:1054B80007F0DEFB08F10A039FEDC87A33F91530CF
:1054C80007EE903AFAEECC7A013567EE877AFDEE70
:1054D800E77ACDED037ABDF90C0007F0B7FB032D91
:1054E800E1D1302007F0C4FB002007F0AFFB07F044
:1054F800B7FB98F8085015F0030520D1D8F8042018
:1055080041F288339A420BD9102007F0B1FB2846A4
:1055180007F09CFB212007F0ABFB284607F096FB21
:10552800142007F0A5FBB4F9100007F08FFB1C202E
:1055380007F09EFB002007F089FB07F091FB237A18
:10554800DFF890825B0740F07E81022007F090FB35
:105558000A23B8F9120090FBF3F007F077FB032059
:10556800B8F91A50DFF8909207F082FB9C4B1B7831
:1055780013F0040F4FF0050A95FBFAF5ADB20DD004
:1055880008F5D270394601F0E4F928B9D9F80030A5
:1055980013F0100F18BF002528B205E0D8F82C37F3
:1055A8009889B0FBFAF000B207F050FBD9F8003048
:1055B8009F0740F18A80DFF84492B4F8327799F86F
:1055C8000030B4F83027834D3F014FF06408BFB274
:1055D80008FB02325B00B2FBF3F347EA0327BFB2D2
:1055E800C3F303231F43062007F042FB38B207F03A
:1055F8002DFBB4F8323799F8001001339BB293FBB6
:10560800F1F201FB1233A4F83237D4F834379B7B1C
:10561800012B05D1392007F02BFBB5F930071AE02B
:10562800B5F830576E233A205D43152707F020FB65
:1056380095FBF7F5AFB2B7FBF8F528B207F006FB14
:1056480008FB15753B2007F013FBA8B2451D0A207F
:1056580095FBF0F000B207F0F9FA282007F008FBF4
:10566800D4F838375B4D0A2093FBF0F000B207F00E
:10567800EDFA042007F0FCFAD4F82C37D5F83C07EB
:105688009A894FF6FF739842A8BF1846C2B10028FE
:10569800ACBF131A134607EE903A9FED527AF8EE14
:1056A800E77A67EE877A07EE102AB8EEC77AC7EE70
:1056B800877AFDEEE77A17EE900A6428A8BF64207F
:1056C80020EAE07000B207F0C1FAD4F84037414F41
:1056D8009D0640F1AD8097F8443798071DD51120F5
:1056E80007F0C6FAB7F846073F4B4FF4F36568432F
:1056F80090FBF3F000B207F0A9FA192007F0B8FA06
:10570800B7F846074543642095FBF0F595FBF0F3A1
:1057180000FB135000B207F099FA94F84437B4F834
:10572800485713F0020F08BF0025012007F0A0FA20
:1057380028B207F08BFA092007F09AFA002007F040
:1057480085FA2A4B94F84A571A88B2F5967F0AD9EF
:10575800204B1B7A03F00F03072B04D842F20F7576
:10576800954228BF1546052007F082FAD4F8343749
:105778005B7B0BB928B21CE0A5F1200307EE903A39
:105788009FED1B7AF8EEE77AF6EE006AC7EE877AA5
:10579800BEEE007AF5EEC07AF1EE10FA58BFB0EE20
:1057A800667A77EE877AFDEEE77ACDED037ABDF972
:1057B8000C0007F04BFA94F84427064B910703D4E2
:1057C80093F84B27012A1DD1012384F84B37094848
:1057D80035E000BFBC1100205426002000007A44A8
:1057E800CC2600200000C842A0860100EE00002060
:1057F8006666E63F0819002030260020EC000020ED
:105808008096184BD3F834375FED036A93ED017A2D
:10581800D3ED027A27EE267A67EEA67ABDEEC77A2E
:10582800FDEEE77A8DED047ACDED057A04A806E061
:10583800B74A92E8030004AB83E80300184603F074
:10584800C3FB07F00DFA237A282B1FD1B14B002296
:105858001A723C2733684FF47A70B3FBF0F81720BC
:1058680007F006FAB8FBF7F5B5FBF7F007FB1050A1
:10587800000200B207F0EAF9182007F0F9F907FB6F
:10588800158000B207F0E2F907F0EAF994F8543706
:10589800A04D002B00F05D8105F00AFCD5F85837C3
:1058A8009D4AC31A9342074640F2C680002385F8F2
:1058B8005E3785F86037B5F83037DAB21B0A85F8F5
:1058C8007A2785F87B3785F8702785F87137D5F8FA
:1058D800882733689A1AD5F88C37D97B4FF47A73AE
:1058E8004B439A420ED38D4B1B68C5F8883795F801
:1058F8009037013B012B9FBF102385F85E370223A9
:1059080085F860370A20D4F8382792FBF0F284F83B
:105918007827121284F8792794F84427D4F83C376A
:1059280093FBF0F384F87C371B1284F87D379207D9
:1059380094F84A37774984F8AB3703D42D2381F894
:10594800AC3777E0042BD4F84C97D4F85067DFF8DD
:10595800DC81734A8CBF3323322381F8AC374FF094
:10596800060C704B99FBF3F096FBF3F308FB0091E0
:1059780008FB036803EB83030CFB01F103EB8303D0
:1059880091FBF2FE642502FB1E119B0091FBF5F1D1
:1059980084F89D1709120CFB08FC84F89E179CFBE1
:1059A800F2F143FA81F39BB202FB11C292FBF5F2CA
:1059B80084F8A227121284F8A03784F8A3271B0AB8
:1059C800B4F8462784F8A1372423534393FBF5F50D
:1059D800B4F8BE3784F8A43700EB80001B0A00EB4C
:1059E8008000800084F8A5370A22B4F84837B3FB52
:1059F800F2F303F5FA739BB240FA8EF080B284F8A2
:105A0800A6371B0A4FEAD97984F89B07F60F000AD4
:105A180084F8985784F8A737C5F30725B4F8C03732
:105A280084F89A9784F89C0784F89F6784F89957B4
:105A380084F8AD37C4F8587794F8C287354DB8F173
:105A4800000F0DD1D5F8C80705F081FB012807D94B
:105A58000228354E00F0538203F0A8FA0123337070
:105A6800D4F8CC272B4D002A73D095F8C2673EB1E5
:105A7800D5F8D43740F6B731FB1A8B4219D868E00D
:105A88000123D5F8C80785F8C23700F07CFCD5F8A3
:105A9800D83793F9000002238DE8480008213246E0
:105AA8004FF4964300F08AFC85F8DC67C5F8C80710
:105AB8004DE095F8D067CEB9D5F8C807C5F8CC67DA
:105AC80085F8C26700F05FFCD5F8D83793F9000075
