:020000040800F2
:10000000005000208D3100083D3200087144000886
:100010003D3200083D3200083D320008000000007B
:100020000000000000000000000000003D32000859
:100030003D320008000000003D3200080D6B000852
:100040003D3200083D3200083D3200083D320008D4
:100050003D3200083D3200083D320008E12400082E
:100060003D3200083D3200083D3200083D320008B4
:100070003D3200083D320008C16900083D320008E9
:100080003D3200083D3200083D3200083D32000894
:100090003D3200083D3200083D320008E5240008EA
:1000A0003D3200083D3200083D3200086131000851
:1000B0006D31000875310008813100087561000854
:1000C000F564000879610008F16400083D32000819
:1000D0003D320008F5690008316A00083D32000829
:1000E000691B00083D3200083D3200080000000096
:1000F0000000000000000000000000000000000000
:0C01000000000000000000005FF808F1A3
:1001100010B5054C237833B9044810B10448AFF347
:1001200000800121217010BDA40500200000000006
:100130004437010808B5064B1BB106480649AFF322
:1001400000800648016811B1054A02B1904708BD18
:100150000000000044370108A8050020A405002085
:100160000000000081F0004102E000BF83F0004386
:1001700030B54FEA41044FEA430594EA050F08BF42
:1001800090EA020F1FBF54EA000C55EA020C7FEA06
:10019000645C7FEA655C00F0E2804FEA5454D4EB83
:1001A0005555B8BF6D420CDD2C4480EA020281EA4D
:1001B000030382EA000083EA010180EA020281EA85
:1001C0000303362D88BF30BD11F0004F4FEA0131D7
:1001D0004FF4801C4CEA113102D0404261EB4101E6
:1001E00013F0004F4FEA03334CEA133302D052426C
:1001F00063EB430394EA050F00F0A780A4F1010428
:10020000D5F1200E0DDB02FA0EFC22FA05F2801861
:1002100041F1000103FA0EF2801843FA05F3594147
:100220000EE0A5F120050EF1200E012A03FA0EFCC6
:1002300028BF4CF0020C43FA05F3C01851EBE371F0
:1002400001F0004507D54FF0000EDCF1000C7EEB0D
:1002500000006EEB0101B1F5801F1BD3B1F5001F4B
:100260000CD349085FEA30004FEA3C0C04F101046A
:100270004FEA445212F5800F80F09A80BCF1004F93
:1002800008BF5FEA500C50F1000041EB045141EA15
:10029000050130BD5FEA4C0C404141EB010111F416
:1002A000801FA4F10104E9D191F0000F04BF0146C1
:1002B0000020B1FA81F308BF2033A3F10B03B3F19F
:1002C00020020CDA0C3208DD02F1140CC2F10C022F
:1002D00001FA0CF021FA02F10CE002F11402D8BF8D
:1002E000C2F1200C01FA02F120FA0CFCDCBF41EA59
:1002F0000C019040E41AA2BF01EB0451294330BD28
:100300006FEA04041F3C1CDA0C340EDC04F1140404
:10031000C4F1200220FA04F001FA02F340EA0300DB
:1003200021FA04F345EA030130BDC4F10C04C4F121
:10033000200220FA02F001FA04F340EA0300294601
:1003400030BD21FA04F0294630BD94F0000F83F44B
:10035000801306BF81F480110134013D4EE77FEA2E
:10036000645C18BF7FEA655C29D094EA050F08BF7A
:1003700090EA020F05D054EA000C04BF194610465B
:1003800030BD91EA030F1EBF0021002030BD5FEA9F
:10039000545C05D14000494128BF41F0004130BDC7
:1003A00014F580043CBF01F5801130BD01F000451B
:1003B00045F0FE4141F470014FF0000030BD7FEA8E
:1003C000645C1ABF194610467FEA655C1CBF0B4689
:1003D000024650EA013406BF52EA033591EA030FA0
:1003E00041F4002130BD00BF90F0000F04BF002198
:1003F000704730B54FF4806404F132044FF00005CB
:100400004FF0000150E700BF90F0000F04BF002143
:10041000704730B54FF4806404F1320410F00045A9
:1004200048BF40424FF000013EE700BF42004FEAA4
:10043000E2014FEA31014FEA02701FBF12F07F4321
:1004400093F07F4F81F06051704792F0000F14BF1E
:1004500093F07F4F704730B54FF4607401F0004562
:1004600021F0004120E700BF50EA010208BF7047B9
:1004700030B54FF000050AE050EA010208BF7047AE
:1004800030B511F0004502D5404261EB41014FF417
:10049000806404F132045FEA915C3FF4DCAE4FF01B
:1004A00003025FEADC0C18BF03325FEADC0C18BF02
:1004B000033202EBDC02C2F1200300FA03FC20FA53
:1004C00002F001FA03FE40EA0E0021FA02F11444A0
:1004D000C1E600BF70B54FF0FF0C4CF4E06C1CEAB5
:1004E00011541DBF1CEA135594EA0C0F95EA0C0F2A
:1004F00000F0DEF82C4481EA030621EA4C5123EA9D
:100500004C5350EA013518BF52EA033541F48011CB
:1005100043F4801338D0A0FB02CE4FF00005E1FB7E
:1005200002E506F00042E0FB03E54FF00006E1FBC8
:1005300003569CF0000F18BF4EF0010EA4F1FF040B
:10054000B6F5007F64F5407404D25FEA4E0E6D414B
:1005500046EB060642EAC62141EA55514FEAC5205C
:1005600040EA5E504FEACE2EB4F1FD0C88BFBCF5D8
:10057000E06F1ED8BEF1004F08BF5FEA500E50F189
:10058000000041EB045170BD06F0004646EA01014F
:1005900040EA020081EA0301B4EB5C04C2BFD4EB81
:1005A0000C0541EA045170BD41F480114FF0000E7A
:1005B000013C00F3AB8014F1360FDEBF002001F0E8
:1005C000004170BDC4F10004203C35DA0C341BDC62
:1005D00004F11404C4F1200500FA05F320FA04F034
:1005E00001FA05F240EA020001F0004221F0004168
:1005F00010EBD37021FA04F642EB06015EEA430EDB
:1006000008BF20EAD37070BDC4F10C04C4F120050A
:1006100000FA04F320FA05F001FA04F240EA0200BD
:1006200001F0004110EBD37041F100015EEA430E8E
:1006300008BF20EAD37070BDC4F1200500FA05F2AE
:100640004EEA020E20FA04F301FA05F243EA02032D
:1006500021FA04F001F0004121FA04F220EA02003C
:1006600000EBD3705EEA430E08BF20EAD37070BD82
:1006700094F0000F0FD101F00046400041EB010162
:1006800011F4801F08BF013CF7D041EA060195F044
:10069000000F18BF704703F00046520043EB0303FE
:1006A00013F4801F08BF013DF7D043EA06037047EB
:1006B00094EA0C0F0CEA135518BF95EA0C0F0CD0F6
:1006C00050EA410618BF52EA4306D1D181EA03013C
:1006D00001F000414FF0000070BD50EA410606BF36
:1006E0001046194652EA430619D094EA0C0F02D17B
:1006F00050EA013613D195EA0C0F05D152EA0336C0
:100700001CBF104619460AD181EA030101F00041DD
:1007100041F0FE4141F470014FF0000070BD41F026
:10072000FE4141F4780170BD70B54FF0FF0C4CF400
:10073000E06C1CEA11541DBF1CEA135594EA0C0F1F
:1007400095EA0C0F00F0A7F8A4EB050481EA030E6C
:1007500052EA03354FEA013100F088804FEA033353
:100760004FF0805545EA131343EA12634FEA022221
:1007700045EA111545EA10654FEA00260EF00041E2
:100780009D4208BF964244F1FD0404F5407402D234
:100790005B084FEA3202B61A65EB03055B084FEAC5
:1007A00032024FF480104FF4002CB6EB020E75EBC2
:1007B000030E22BFB61A754640EA0C005B084FEAEA
:1007C0003202B6EB020E75EB030E22BFB61A754667
:1007D00040EA5C005B084FEA3202B6EB020E75EBB2
:1007E000030E22BFB61A754640EA9C005B084FEA2A
:1007F0003202B6EB020E75EB030E22BFB61A754637
:1008000040EADC0055EA060E18D04FEA051545EA25
:1008100016754FEA06164FEAC30343EA52734FEACE
:10082000C2025FEA1C1CC0D111F4801F0BD141EA47
:1008300000014FF000004FF0004CB6E711F4801FAC
:1008400004BF01430020B4F1FD0C88BFBCF5E06F8C
:100850003FF6AFAEB5EB030C04BFB6EB020C5FEA9C
:10086000500C50F1000041EB045170BD0EF0004EF1
:100870004EEA113114EB5C04C2BFD4EB0C0541EA23
:10088000045170BD41F480114FF0000E013C90E620
:1008900045EA060E8DE60CEA135594EA0C0F08BFE4
:1008A00095EA0C0F3FF43BAF94EA0C0F0AD150EAE3
:1008B00001347FF434AF95EA0C0F7FF425AF104676
:1008C00019462CE795EA0C0F06D152EA03353FF49E
:1008D000FDAE1046194622E750EA410618BF52EA1B
:1008E00043067FF4C5AE50EA41047FF40DAF52EAEF
:1008F00043057FF4EBAE12E74FF0FF3C06E000BF8C
:100900004FF0010C02E000BF4FF0010C4DF804CD98
:100910004FEA410C7FEA6C5C4FEA430C18BF7FEA58
:100920006C5C1BD001B050EA410C0CBF52EA430C86
:1009300091EA030F02BF90EA020F0020704710F106
:10094000000F91EA030F58BF994208BF90422CBF95
:10095000D8176FEAE37040F0010070474FEA410C8E
:100960007FEA6C5C02D150EA013C07D14FEA430CAC
:100970007FEA6C5CD6D152EA033CD3D05DF8040B1D
:10098000704700BF8446104662468C46194663464F
:1009900000E000BF01B5FFF7B7FF002848BF10F126
:1009A000000F01BD4DF808EDFFF7F4FF0CBF01206B
:1009B00000205DF808FB00BF4DF808EDFFF7EAFFE7
:1009C00034BF012000205DF808FB00BF4DF808EDA2
:1009D000FFF7E0FF94BF012000205DF808FB00BF97
:1009E0004DF808EDFFF7CEFF94BF012000205DF821
:1009F00008FB00BF4DF808EDFFF7C4FF34BF01202E
:100A000000205DF808FB00BF4FEA4102B2F1E0436D
:100A100024BFB3F5001CDCF1FE5C0DD901F0004CE5
:100A20004FEAC0024CEA5070B2F1004F40EB830035
:100A300008BF20F00100704711F0804F21D113F161
:100A40003872BCBF01F00040704741F480114FEA9A
:100A50005252C2F11802C2F1200C10FA0CF320FA23
:100A600002F018BF40F001004FEAC1234FEAD32340
:100A700003FA0CFC40EA0C0023FA02F34FEA4303AA
:100A8000CCE77FEA625307D150EA01331EBF4FF033
:100A9000FE4040F44000704701F0004040F0FE404E
:100AA00040F40000704700BF80F0004002E000BF4B
:100AB00081F0004142001FBF5FEA410392EA030F49
:100AC0007FEA226C7FEA236C6AD04FEA1262D2EB93
:100AD0001363C1BFD218414048404140B8BF5B4298
:100AE000192B88BF704710F0004F40F4000020F031
:100AF0007F4018BF404211F0004F41F4000121F047
:100B00007F4118BF494292EA030F3FD0A2F1010290
:100B100041FA03FC10EB0C00C3F1200301FA03F1CE
:100B200000F0004302D5494260EB4000B0F5000FF1
:100B300013D3B0F1807F06D340084FEA310102F1B0
:100B40000102FE2A51D2B1F1004F40EBC25008BF62
:100B500020F0010040EA03007047490040EB00002C
:100B600010F4000FA2F10102EDD1B0FA80FCACF15B
:100B7000080CB2EB0C0200FA0CF0AABF00EBC2505A
:100B800052421843BCBFD0401843704792F0000F48
:100B900081F4000106BF80F400000132013BB5E79B
:100BA0004FEA41037FEA226C18BF7FEA236C21D011
:100BB00092EA030F04D092F0000F08BF0846704776
:100BC00090EA010F1CBF0020704712F07F4F04D144
:100BD000400028BF40F00040704712F100723CBF57
:100BE00000F50000704700F0004343F0FE4040F481
:100BF000000070477FEA226216BF08467FEA23633F
:100C00000146420206BF5FEA412390EA010F40F429
:100C1000800070474FF0000304E000BF10F0004375
:100C200048BF40425FEA000C08BF704743F096435C
:100C300001464FF000001CE050EA010208BF704777
:100C40004FF000030AE000BF50EA010208BF7047FE
:100C500011F0004302D5404261EB41015FEA010C13
:100C600002BF84460146002043F0B64308BFA3F10B
:100C70008053A3F50003BCFA8CF2083AA3EBC253ED
:100C800010DB01FA02FC634400FA02FCC2F120020C
:100C9000BCF1004F20FA02F243EB020008BF20F043
:100CA0000100704702F1200201FA02FCC2F12002A9
:100CB00050EA4C0021FA02F243EB020008BF20EA9E
:100CC000DC7070474FF0FF0C1CEAD0521EBF1CEACC
:100CD000D15392EA0C0F93EA0C0F6FD01A4480EABA
:100CE000010C400218BF5FEA41211ED04FF00063A3
:100CF00043EA501043EA5111A0FB01310CF00040CF
:100D0000B1F5000F3EBF490041EAD3715B0040EAF4
:100D1000010062F17F02FD2A1DD8B3F1004F40EBC4
:100D2000C25008BF20F00100704790F0000F0CF097
:100D3000004C08BF49024CEA502040EA51207F3A5B
:100D4000C2BFD2F1FF0340EAC250704740F4000036
:100D50004FF00003013A5DDC12F1190FDCBF00F027
:100D600000407047C2F10002410021FA02F1C2F1D5
:100D7000200200FA02FC5FEA310040F1000053EA71
:100D80004C0308BF20EADC70704792F0000F00F0BF
:100D9000004C02BF400010F4000F013AF9D040EAC5
:100DA0000C0093F0000F01F0004C02BF490011F459
:100DB000000F013BF9D041EA0C018FE70CEAD15357
:100DC00092EA0C0F18BF93EA0C0F0AD030F0004CD7
:100DD00018BF31F0004CD8D180EA010000F000408B
:100DE000704790F0000F17BF90F0004F084691F049
:100DF000000F91F0004F14D092EA0C0F01D1420283
:100E00000FD193EA0C0F03D14B0218BF084608D14B
:100E100080EA010000F0004040F0FE4040F4000095
:100E2000704740F0FE4040F4400070474FF0FF0C28
:100E30001CEAD0521EBF1CEAD15392EA0C0F93EA6F
:100E40000C0F69D0A2EB030280EA010C49024FEAC1
:100E5000402037D04FF0805343EA111143EA10137A
:100E60000CF000408B4238BF5B0042F17D024FF432
:100E7000000C8B4224BF5B1A40EA0C00B3EB510F0D
:100E800024BFA3EB510340EA5C00B3EB910F24BFF6
:100E9000A3EB910340EA9C00B3EBD10F24BFA3EB7B
:100EA000D10340EADC001B0118BF5FEA1C1CE0D143
:100EB000FD2A3FF650AF8B4240EBC25008BF20F0F6
:100EC000010070470CF0004C4CEA50207F32C2BF4A
:100ED000D2F1FF0340EAC250704740F400004FF0E7
:100EE0000003013A37E792F0000F00F0004C02BF18
:100EF000400010F4000F013AF9D040EA0C0093F0E2
:100F0000000F01F0004C02BF490011F4000F013B3B
:100F1000F9D041EA0C0195E70CEAD15392EA0C0FA3
:100F200008D142027FF47DAF93EA0C0F7FF470AFDB
:100F3000084676E793EA0C0F04D14B023FF44CAF1E
:100F400008466EE730F0004C18BF31F0004CCAD1B3
:100F500030F000427FF45CAF31F000437FF43CAFEF
:100F60005FE700BF4FF0FF3C06E000BF4FF0010C11
:100F700002E000BF4FF0010C4DF804CD4FEA4002F3
:100F80004FEA41037FEA226C18BF7FEA236C11D03D
:100F900001B052EA530C18BF90EA010F58BFB2EBF0
:100FA000030088BFC81738BF6FEAE17018BF40F070
:100FB000010070477FEA226C02D15FEA402C05D124
:100FC0007FEA236CE4D15FEA412CE1D05DF8040BA9
:100FD000704700BF844608466146FFE70FB5FFF73C
:100FE000C9FF002848BF10F1000F0FBD4DF808EDF4
:100FF000FFF7F4FF0CBF012000205DF808FB00BFE5
:101000004DF808EDFFF7EAFF34BF012000205DF83E
:1010100008FB00BF4DF808EDFFF7E0FF94BF01208B
:1010200000205DF808FB00BF4DF808EDFFF7D2FF88
:1010300094BF012000205DF808FB00BF4DF808EDCB
:10104000FFF7C8FF34BF012000205DF808FB00BF98
:101050004FEA4002B2F1FE4F0FD34FF09E03B3EBC5
:1010600012620DD94FEA002343F0004310F0004F05
:1010700023FA02F018BF404270474FF0000070475B
:1010800012F1610F01D1420205D110F0004008BFFA
:101090006FF0004070474FF00000704742000ED2E2
:1010A000B2F1FE4F0BD34FF09E03B3EB126209D4A3
:1010B0004FEA002343F0004323FA02F070474FF059
:1010C0000000704712F1610F01D1420202D14FF0CE
:1010D000FF3070474FF00000704700BF2E4B2DE9E6
:1010E000F34105461878002838D0002426462746C4
:1010F000A0463221082253206B4605F0D7F89DF810
:1011000001109DF80000013400EB01239DF803104D
:101110009DF802001AB200EB01239DF805109DF81E
:101120000400E4B290441AB200EB01239DF80710CA
:10113000BF18202C1AB2164401F07F0001D00028FD
:10114000D7D1164B98FBF4F897FBF4F796FBF4F61F
:10115000A5F800806F80AE801C701AE03221062254
:101160006B46532005F0A2F89DF801209DF8001071
:101170009DF8030001EB02239DF802202B8002EB77
:1011800000219DF804309DF80500698003EB0022E2
:10119000AA80BDE8FC8100BFC0050020C105002079
:1011A00008B5134B53201B782D2108227BB105F085
:1011B00041F931210A22532005F03CF92C210C225F
:1011C000532005F037F953203821902209E005F02B
:1011D00031F931210A22532005F02CF953202C211A
:1011E0000A2205F027F9034840F20912028008BDDF
:1011F000C00500201A00002037B5104B05461A68BC
:101200000F480C46002182428DF8071001D10020C2
:1012100013E0532001220DF1070305F047F80028E1
:10122000F5D09DF80710E529F1D12A780548064B3D
:10123000064920601A70616001203EBD5401002003
:10124000001BB700A1110008C0050020DD10000838
:1012500013B50622044602216B46182005F026F835
:101260009DF800309DF8012098089DF8023000EBB1
:1012700002219DF8032098089DF80430218000EB9E
:1012800002219DF805209808618000EB0221A180D1
:101290001CBD000008B50F210822182005F0CAF86F
:1012A0000E221820102105F0C5F8024B4FF4805291
:1012B0001A8008BD1A00002037B5002402AB05468D
:1012C00003F8014D18202146012204F0EFFF50B130
:1012D0009DF80730FB2B05D103480449286069605D
:1012E000012000E020463EBD951200085112000882
:1012F00013B506220446A8216B46682004F0D6FFE9
:101300009DF800209DF8013043EA022001B2042339
:1013100091FBF3F29DF802009DF80310228041EA50
:10132000002210B290FBF3F19DF805209DF8040017
:10133000618042EA002108B290FBF3F3A3801CBD58
:1013400008B5642005F015FC68202321F02205F083
:1013500071F810B9032005F0ABFC052005F009FC7D
:10136000044B68201A78202142F00F02BDE80840A3
:1013700005F060B8C205002037B5054619200C46B7
:1013800005F0F7FB68200F2101220DF1070304F09F
:101390008DFF9DF80730D32B16D10C480C490D4A10
:1013A0004E2C28606960EA600B4B07D05D2C09D099
:1013B000362C01D0002002E0402000E08020187090
:1013C000012002E0C020FAE700203EBD41130008E2
:1013D000F1120008DDE9A731C205002013B506228D
:1013E000044601216B461C2004F060FF9DF800209C
:1013F0009DF8013043EA022040F38D01042391FB64
:10140000F3F29DF802009DF80310228041EA0022C9
:1014100042F38D0090FBF3F19DF805209DF8040048
:10142000618042EA002141F38D0090FBF3F3A38039
:101430001CBD000013B50421202302248DF80610E2
:101440001A486944ADF804308DF8074005F05AF8A1
:101450002A2100221C2004F0EDFF0E211C20224630
:1014600004F0E8FF0F2103221C2004F0E3FF2B21EE
:1014700012221C2004F0DEFF2C211C20224604F046
:10148000D9FF2D2101221C2004F0D4FF2E2100229F
:101490001C2004F0CFFF05221C202A2104F0CAFFE3
:1014A00003484FF4807202801CBD00BF0008014059
:1014B0001A00002013B504461048114902680023A1
:1014C0008A428DF8073001D1002015E01C200D2143
:1014D00001220DF1070304F0E9FE0028F4D09DF885
:1014E00007302A2B01D01A2BEED10648064A0749AD
:1014F000206062600B7001201CBD00BF5401002001
:10150000001BB70035140008DD130008C3050020D8
:1015100013B5022204461B2101AB682004F0C6FE6D
:101520009DF804209DF8053043EA022000F54E5155
:1015300010314FF48C7291FBF2F3233323801CBDE6
:1015400013B5062204461D216B46682004F0AEFE4A
:101550009DF800209DF8013043EA022001B20423E7
:1015600091FBF3F29DF802009DF80310228041EAFE
:10157000002210B290FBF3F19DF805209DF80400C5
:10158000618042EA002108B290FBF3F3A3801CBD06
:1015900008B5192005F0EDFA68201521002204F0A5
:1015A00049FF10B9032005F083FB0C4B16211A7874
:1015B000682042F0180204F03DFF17210022682045
:1015C00004F038FF3D210122682004F033FF682039
:1015D0003E210122BDE8084004F02CBF000000209D
:1015E00038B5054619200C4605F0C3FA68201521C8
:1015F000002204F01FFF18B3124B13481349144A7A
:10160000622C2B606860A960EA60124B0FD004D88E
:101610000A2C12D0142C0CD10DE0BC2C04D0B4F543
:10162000807F06D1002009E00120187038BD02201B
:1016300004E0032002E0042000E0052018700120EF
:1016400038BD00BF911500084115000811150008AC
:101650001844923100000020064B187820B1012870
:1016600006D14FF4805201E04FF4006202490A8033
:10167000704700BFC40500201A00002013B50622E1
:10168000044643216B46682004F010FE9DF80020BC
:101690009DF8013043EA022001B2042391FBF3F2EA
:1016A0009DF802009DF80310228041EA002210B24A
:1016B00090FBF3F19DF805209DF80400618042EA5B
:1016C000002108B290FBF3F3A3801CBD13B50622E2
:1016D00004463B216B46682004F0E8FD9DF800209D
:1016E0009DF801309DF8021043EA02209DF8032086
:1016F000208042EA01239DF804009DF805106380D4
:1017000041EA0022A2801CBD07B5204A02204FF406
:101710000053ADF804308DF8070013681C4804210D
:1017200083428DF8061001D11A4803E01A498B4212
:1017300003D11A4801A904F0E5FE6B21802268203C
:1017400004F078FE052005F014FA19210022682023
:1017500004F070FE6B210322682004F06BFE372139
:101760000222682004F066FE0D4A1A2168201278D1
:1017700004F060FE1B211822682004F05BFE682044
:101780001C21102204F056FE0EBD00BF54010020A3
:1017900000127A00000C0140001BB700001001404D
:1017A000010000202DE9FF41064623200D46144686
:1017B00005F0DFF96820752101220DF1070304F01F
:1017C00075FD00286DD09DF80780B8F1680F67D1CE
:1017D00006210A4602AB404604F068FD9DF80B3036
:1017E0009DF80D7003F0010107F001004A0042EA84
:1017F00080079DF8090000F001031F4307D0012F67
:10180000294801D1002318E0022F0CD114E00C214B
:10181000012240460DF1070304F048FD9DF8071032
:1018200011F00F0203D1052005F042FA06E0042A68
:101830001D4801D1077001E0012303701A481B49BC
:1018400003781B4A31607260002B14BF6E216F2138
:10185000184A1948194B142C31722A606860EB60E1
:10186000174915D004D8052C16D00A2C0ED111E03A
:10187000BC2C08D0B4F5807F03D0622C06D10222A4
:101880000BE0002209E0012008700AE0032204E0D6
:10189000042202E0052200E006220A70012000E096
:1018A000002004B0BDE8F081C405002059160008EE
:1018B000CD160008091700087D160008194492315A
:1018C000010000202DE9F041057890B00035064672
:1018D000334818BF01250BF04BFC00243148A542CA
:1018E000314B0CBF2146802106904FF400500CBFB5
:1018F0004FF001084FF002084FF4807205930A91EF
:1019000020234FF480670E9005A925480B920D9374
:101910000C970794CDF8208009940F940BF0A0FC4D
:101920001F4801210BF0C9FC4FF4602101270291EF
:101930001E48694600948DF804508DF80570039494
:101940008DF810800AF0BAFD184804213A460323A6
:101950000AF005FE2DB115483178022203230AF062
:10196000FEFD124801210AF0D6FD104801210AF0BF
:10197000C9FD0E480AF0D8FD0C480AF0DAFD00282F
:10198000FAD10A480AF0D9FD08480AF0DBFD002820
:10199000FAD1064801210AF0D9FD10B0BDE8F08166
:1019A00008000240C60500204C24014000240140EC
:1019B000024B33F8100080B2704700BFC60500200C
:1019C000334B2DE9F0411C88324B5A891E89A51AE8
:1019D0007543B3F91240B3F91420EF13BE18E502B2
:1019E00095FBF6F43F19A7F57A6202FB02F4B3F90E
:1019F0000480B3F902C00A257D43DF6102FB0CFCC1
:101A0000B3F90E7002FB08F2B3F90C80241367439C
:101A100004FB08F4241404EB6232941CA210DC884A
:101A2000083502F5004262432E114FEAEC24B3F967
:101A30002050B3F9003004EBE72404EB830303FAEE
:101A400005F39C1C144BD20B1B68A3EBA4044CF2B3
:101A5000503343FA05F3634303D45C00B4FBF2F361
:101A600002E0B3FBF2F253001A12524340F6DE34A6
:101A700062430A4C5C43241404EB224202F6CF6218
:101A800003EB221300B1036001B10E60BDE8F081E9
:101A9000FA050020D0050020F405002043E3FFFFF5
:101AA000104B07B5187818B90F490A88531C0B80DA
:101AB000F621032201AB772004F0F8FB9DF8051016
:101AC0009DF804000A02094942EA00409DF80630E8
:101AD000B1F920201843C2F1080320FA03F00449A9
:101AE00008600EBDCA050020CC050020D0050020EE
:101AF000F40500200B4B07B5187818B90A490A8875
:101B0000531C0B80F621022201AB772004F0CEFBA0
:101B10009DF804009DF80510044B41EA00221A804C
:101B20000EBD00BFCA050020CC050020FA0500202C
:101B3000064B074893F820200021920134320170AF
:101B400002F0FC027720F42104F074BCD0050020E0
:101B5000CA050020034B00221A707720F4212E22A0
:101B600004F068BCCA05002010B54FF480400AF0AC
:101B700027FC0128044605D14FF480400AF030FCD0
:101B8000014B1C7010BD00BFCA0500202DE9F047B5
:101B90006B4B05461A686B488CB0824200F0CA80D5
:101BA000DFF8C0A19AF80080B8F1000F40F0C480BF
:101BB000654F102102264FF400598DF80A1038465F
:101BC00002A94FF480448DF80B60ADF8089004F042
:101BD00099FC0423384602A98DF80A30ADF8084074
:101BE00004F090FC0E213046C7F8109004F0C6FCBB
:101BF0000126082204A88DF8152004948DF814807D
:101C00008DF816600AF0A0FB28200F218DF80C003B
:101C100003A88DF80D108DF80E108DF80F600AF0E6
:101C2000F5FC142004F0A5FF7720D02132460DF1F9
:101C3000070304F03BFB9DF80730444C0322552B6F
:101C4000E375228418BFC7F8149073D1D1213246AE
:101C50000DF10703772004F029FB9DF807001622F9
:101C600000F00F01030921766376AA2106AB7720E5
:101C700004F01CFB9DF818209DF819009DF81B30FE
:101C800040EA02219DF81A20218043EA02209DF8B3
:101C90001C109DF81D20608042EA01239DF81E0063
:101CA0009DF81F10A38041EA00229DF821309DF885
:101CB0002000E28043EA00219DF822209DF82300C5
:101CC000218140EA02239DF824109DF8252063819C
:101CD00042EA01209DF827309DF82610A08143EAB2
:101CE00001229DF828009DF82910E28141EA002395
:101CF0009DF82A209DF82B00238240EA02219DF8BE
:101D00002D309DF82C20618243EA0220104B41F2D5
:101D1000707146F67812A0828AF800600D4829801A
:101D20006A806B600C490D4A0D4BA860E9602A611E
:101D30006B6101E0002000E001200CB0BDE8F087FD
:101D400054010020001BB70000100140D005002006
:101D5000551B0008F51A0008311B0008A11A0008DD
:101D6000C1190008F80500202DE9F04F4E4E4F4BE9
:101D700085B07789039119683289844638020F1A31
:101D800087FB0201C00940EA4162CB11F188B488A7
:101D900087FB01012404002514EB020845EB03092D
:101DA000000A40EA01620B12B189748887FB0101C5
:101DB000E403002514EB020A45EB030BC00D40EAD7
:101DC00041224FF4FA60CB150021801841EB03014A
:101DD000CDE90001B0F5FA6F71F1000147DAA2FB1D
:101DE000024502FB03F605EB4607B80040EA947192
:101DF000A0002646241847EB010569104FEA34007D
:101E0000A408B8EB000869EB0109A91044EA857041
:101E1000BAEB000A6BEB010B25484FF0FF31DDE90F
:101E2000004584428D4122DA40F6AC5000218018F2
:101E300041EB03014143A0FB00236FF0060003EBDD
:101E40004103544200FB0344A2FB000118EB0008CD
:101E5000214449EB01090B24A2FB040104FB0311FB
:101E600049104FEA3000BAEB000A6BEB010B114A44
:101E70001368A3FB0A0103FB0B11400D40EAC122CA
:101E80004B15B2EB080263EB0903D20B42EA434362
:101E9000BCF1000F01D0CCF80030039808B10099D4
:101EA000016005B0BDE8F08F0406002000060020A8
:101EB00024FAFFFFFC05002007B50021032201AB37
:101EC000772004F0F3F99DF805009DF80430010235
:101ED0009DF8062041EA034010430EBD08B5FFF708
:101EE000EBFF014B186008BDFC05002008B5FFF7AB
:101EF000E3FF014B186008BD000600207720482151
:101F0000012204F097BA77205821012204F092BAF6
:101F1000454B73B51A680446444882420FD01025D9
:101F20008DF80650424D02214FF400568DF80710EF
:101F3000284601A9ADF8046004F0E4FA6E610A20B5
:101F400004F017FE7720A02101220DF1030304F015
:101F5000ADF9002866D01E210122772004F06AFA2C
:101F60004FF42F6004F0FAFD0025A5F16003002670
:101F7000D9B20222772001AB8DF804608DF805609C
:101F800004F094F99DF804209DF80500294B40EADF
:101F90000221E9520235102DE7D1DA8902F47F459A
:101FA00002F00F00DD81324601232249515A0232EC
:101FB000002918BF0023102AF7D113BB1A4612F0CC
:101FC000010F1C494FEA620604D011F816104B406D
:101FD000082104E031F8161083EA1123F8E713F41E
:101FE000004F18BF83F4C0535B000139F7D10132B1
:101FF000102AE4D10F49C3F3033305439842CD813E
:1020000001D000200EE00C4A42F210702080608067
:1020100062600A480A490B4B0B4A2061A160E360E9
:10202000626101207CBD00BF54010020001BB7008D
:102030000010014004060020071F0008DD1E0008F4
:10204000ED1E0008FD1E0008691D0008F8B5134BC1
:1020500005469B890E461446ECB116B116F8017B75
:1020600000E0FF270D4802210AF022FA0028F9D0EB
:102070000A4839460AF017FA084801210AF018FA06
:102080000028F9D005480AF010FAC0B20DB105F8E1
:10209000010B013CE0E70120F8BD00BF0038004023
:1020A0002DE9F047012188B04FF480400AF05CFF31
:1020B000374C01214FF480400AF06EFF03214FF4AA
:1020C00020401823ADF800008DF803102046694623
:1020D0008DF802304FF0040804F014FA2D4E4FF43E
:1020E000804220466946ADF800204FF480554FF0FD
:1020F000100A8DF8028004F005FA69462046ADF812
:1021000000508DF802A004F0FDF930460AF06EF997
:1021100007214FF4007000230222ADF81600ADF83D
:102120001C104FF00109304603A94FF48277ADF837
:102130000C30ADF81030ADF81A30ADF81220ADF813
:102140000E70ADF814901F46ADF818A00AF080F993
:10215000304649460AF09BF99F238DF804308DF8EC
:1021600005708DF806708DF807700DEB080142467A
:10217000656102A8FFF76AFF25619DF80900B0F1CB
:10218000EF014A4252EB010008B0BDE8F08700BF02
:10219000000C01400038004007B5002202AB03F8F4
:1021A000012D1E200A21012204F080F830B19DF893
:1021B0000700B0F14803594251EB03000EBD000087
:1021C00037B50622044603216B461E2004F06EF844
:1021D0009DF801309DF80000154D43EA002108B23A
:1021E000FEF71CFD2968FEF76DFDFEF731FF9DF837
:1021F000022020809DF8030040EA022318B2FEF777
:102200000DFDA968FEF75EFDFEF722FF9DF8052093
:102210009DF80410A08042EA012000B2FEF7FEFC07
:102220006968FEF74FFDFEF713FF60803EBD00BFFB
:10223000040000202DE9FF41634B644A1868904276
:102240000DD104274FF480550226ADF804508DF8C7
:1022500007608DF806705E480DEB070108E05D49E8
:10226000884207D104A94FF480445B4821F80C4D03
:1022700004F048F9322004F07CFC002111221E20D9
:1022800004F0D8F8012160221E2004F0D3F8642065
:1022900004F06FFC02A8FFF793FF00240A252746ED
:1022A0002646012202211E2004F0C4F8322004F048
:1022B00060FC02A8FFF784FFBDF90800BDF90A2001
:1022C000BDF90C3024188242B8BF1046F618984267
:1022D000B8BF034613F5805F174409DD3C49013D53
:1022E000C86880F01002CA60DBD14FF0010801E03D
:1022F0004FF000081E200021122204F09BF80A254E
:10230000022101221E2004F095F8322004F031FC55
:1023100002A8FFF755FFBDF90800BDF90A10BDF985
:102320000C30241A8142B8BF0846F61A9842B8BF4A
:10233000034613F5805FC1EB070707DD2448013D25
:10234000C26882F01001C160DAD101E04FF00008EC
:102350002046FEF763FC01462048FEF767FD204D4E
:1023600020F000432B603846FEF758FC01461B481E
:10237000FEF75CFD20F0004068603046FEF74EFC42
:1023800001461848FEF752FD20F00042AA600021E5
:1023900070221E2004F04EF8012120221E2004F09D
:1023A00049F81E200221002204F044F8642004F0C1
:1023B000E0FBB8F1000F04D14FF07E512960696055
:1023C000A960BDE8FF8100BF5401002000127A001F
:1023D000000C0140001BB7000010014000406F4698
:1023E0000400002001C05E467FB5274C0E462378CE
:1023F0009BB9264A7A21B2F900000222C0F1B40347
:102400008DF8041093FBF2F18DF8051001AB6D20EF
:10241000FF2103F0ADFF012334E0012B1DD179250D
:102420008DF804500A2592FBF5F00021B4225A30B1
:1024300001F06EFC8DF8050096FBF5F00021B4224A
:102440005A3001F065FC01AB8DF80600FF216D20CC
:10245000032203F08DFF022314E0022B13D101228B
:10246000002814BF1046002064218DF804108DF858
:1024700005208DF8060001AB6D20FF21032203F03B
:1024800077FF002323707FBD14060020F21D00207B
:102490000E4B0F4A9868118810B501420D4C03D0BD
:1024A00004F03CFB20600BE004F038FB236898420A
:1024B00006D9094AC01A12683B2190FBF1F3136058
:1024C000064A1068BDE8104009F08ABF000C0140C0
:1024D0001C060020200600202C06002028060020D4
:1024E000FFF7D6BFFFF7D4BF30B52F4B85B02F4ACB
:1024F00050B1012816D12E4C2E4D02211880287083
:102500001180216007200BE04FF4807119804FF497
:1025100000731380274D264A092413602C7017205E
:10252000254908702048214D0388022210242348A1
:1025300001A98DF80720ADF804308DF8064003F0AE
:10254000E1FF29880423ADF804101C480DEB0301BA
:102550008DF8063003F0D6FF164A154D117801208C
:1025600004F00CF8286809F03BFF2868002102906D
:102570008DF80D4002A801248DF80C108DF80E4046
:1025800009F0E2FE0C4B1A7802F01F0304FA03F480
:1025900050B20B4A410942F8214004F0D9FA0949E6
:1025A0003C38086005B030BD300600201C06002015
:1025B000280600202506002024060020000C0140EB
:1025C00000E100E01806002038B5044604F0C0FA27
:1025D000084B19683C3188420BD31860064D0748F8
:1025E0002A880460064C0B20226104F0B7FA2B887D
:1025F000636138BD18060020300600202C0600203C
:10260000000C0140074BA1F57A7153F82000838834
:1026100002684B434FF47A7093FBF0F18BB2138056
:10262000704700BF34070020024B53F820000268B7
:1026300011807047340700202DE9F04FDFF8288122
:102640004FEA001558F805408E468BB008EB050799
:1026500011468346924620467246019300F0CEFC16
:10266000B96807F108024FF0020C18237868ADF83A
:10267000141005A98DF816308DF817C00392CDF807
:1026800008C003F03FFF0398364E077906A80AF00A
:10269000B2F970220198DDF808C0ADF818200121C8
:1026A00000234FF4807206EB0509ADF81A10ADF85F
:1026B0001C30ADF81E00ADF820C0ADF824200C2F62
:1026C0002BD8DFE807F0072A2A2A102A2A2A192AF3
:1026D0002A2A2200204606A90AF086F82046082168
:1026E0000AF0BEF919E0204606A90AF0C1F8204612
:1026F00008210AF0BDF910E0204606A90AF0FCF80E
:10270000204608210AF0BEF907E0204606A90AF093
:1027100035F9204608210AF0BDF908EB0B118B7B37
:102720001BB1204601210AF084F9204601210AF05C
:1027300074F90C2F10D8DFE807F0070F0F0F090FFF
:102740000F0F0B0F0F0F0D00343404E0383402E08C
:102750003C3400E040347451A9F804A048460BB062
:10276000BDE8F08F48060020601001081F4A08B538
:1027700013881180C91A1E4889B240F68C229142F2
:1027800003801C4B02D90020187008BDA1F2EF2075
:1027900080B240F2DA5290421DD81B78072B1AD82B
:1027A0001548032B20F81310144A09D81448008840
:1027B000884205D2012101FA03F310780343137014
:1027C00012780F2A07D10F480C4B026800211970AC
:1027D00011684B68984707480A4B0278511C0170F2
:1027E000186802681168884708BD00BF2A070020E2
:1027F0003206002084070020360600203406002020
:1028000010000020241300207FB5044601A80D46C7
:1028100016460AF0FAF800200123ADF80A00ADF8D8
:102820000C0001A92046ADF80450ADF80660ADF8E3
:1028300008300AF06BF97FBD2DE9F743DFF85880C7
:102840000501144E05EB0804A36889467619282172
:102850000746B271606802228DF8061001A9ADF832
:1028600004308DF8072003F04DFE55F80800217B59
:102870000022FFF7C9FF204601224FF6FF7100F04A
:10288000DFFB204639464A4600F09AFB3046BDE859
:10289000FE8300BF480600206010010810B5144BED
:1028A00000011B18DA795AB901221981DA71114B2A
:1028B00002221918097B1858BDE81040FFF7A4BF81
:1028C0001C8959810C4A091B9C7989B222F8141081
:1028D00000229981DA71074B1918097B1858FFF704
:1028E00093FF0648026813681968884710BD00BF47
:1028F000480600206010010836060020241300203E
:102900004B4B2DE9F0410446028A19604948A179F0
:1029100065780280002914BF0227002705B101371E
:10292000454B002553F827707A5DFF2A02F00F000F
:1029300002F0F00308D1228940484149B2F5FA7FFC
:10294000016070D8BDE8F081A17811B1811E012924
:1029500065D9E17811B1011F032960D9E17909B185
:1029600081425CD012F0300F03D02278002A08BFD9
:102970000023217931B1A27922B9A0F108010129FE
:1029800098BF802362792AB1A17919B9021F032A5D
:1029900098BF802303F01001CAB23AB1002229493E
:1029A000FFF74AFF284B08221A7038E003F0200195
:1029B000CAB242B1244E25493278FFF73DFF307844
:1029C000411C31702BE003F04001CAB292B123895F
:1029D0001F4AB3F5FA7F94BF012108214A431D4ED7
:1029E000B2FBF3F39AB2A38996F80080FFF724FEB6
:1029F000194B0EE01B0612D563891549174E91FB42
:102A0000F3F292B2E389012196F80080FFF714FEF9
:102A1000134B43F8280008F1010886F800800135BF
:102A20000E2D81D187E70F4B0360BDE8F08100BF19
:102A300024130020100000201C1001083007002083
:102A4000292600086D2700082D0700209D28000872
:102A500040420F002C0700203407002028070020E8
:102A6000640700200526000808B5044B1A78824246
:102A700002D9034B1A68904708BD00BF2C070020FD
:102A800030070020044B1A78824204D9034B53F8D4
:102A9000200002681180704728070020640700208A
:102AA000014B33F810007047360600207047017163
:102AB0007047426A806A131A594251EB030070470B
:102AC000037913F001010BD0026AC3699A4205D061
:102AD0009CBFC0681218D01AC0B27047002070475F
:102AE00008467047037910B513F0010104460ED073
:102AF000FFF7E6FF60B1E3696269E168D05C4A1EF6
:102B0000934201D2013300E00023E36110BD084687
:102B100010BD03799A070AD5436A8269D154416A84
:102B200003694A1CB2FBF3F103FB112242627047B6
:102B300090F842321BB1D1F1010138BF0021D0F829
:102B400034014268836809B113617047536170476B
:102B500007B5034699684822ADF80410022340687F
:102B600001A98DF806208DF8073003F0CBFC0EBDCF
:102B700058B50E4B044618680E460346B3FBF2F1F7
:102B8000B1F5803F03D3012BF8D95B08F6E7084A7B
:102B900089B2B0FBF2F3DAB2204600F051FA054AEE
:102BA00020463146BDE8584000F00ABA58010020DE
:102BB00040420F00292F00087FB5044601A80D46AA
:102BC000164609F022FF00200123ADF80A00ADF8F7
:102BD0000C0001A92046ADF80450ADF80660ADF830
:102BE000083009F093FF7FBD38B504460D46002A32
:102BF0000CBF02220022217B0068FFF7DDFF034AA1
:102C000020462946BDE8384000F0DAB9BD2D00085D
:102C100007B5034699681022ADF8041002234068F6
:102C200001A98DF806208DF8073003F06BFC0EBD6E
:102C300000F134034FF48072436100F59C7100236E
:102C4000C2600362C3618161026183624362704753
:102C50002DE9F0411D46194B0E4603210360017119
:102C6000044690460127FFF7E3FF002084F83C026A
:102C700084F83902A4F84402A4F8460284F83872B1
:102C8000D4F8340184F84252FFF7C2FF206BFFF7FB
:102C90005FFF39462046FFF74BFF322003F069FF04
:102CA000D4F8340131464246FFF762FF206B3146CB
:102CB0002A46BDE8F041FFF797BF00BF4810010862
:102CC00010B5084A044608480B4602631032C0F8A3
:102CD000342100212246FFF7BBFF044B01201C607A
:102CE000187110BDA01001082813002088070020CB
:102CF000034607490748084AC0F87812126810319D
:102D0000C0F87C1300F512700121FFF7A1BF00BFCE
:102D1000C01001082813002088070020C268036A39
:102D2000511E8B4201D3002300E001330362704740
:102D300010B590F83C220446AAB9836A416A9942C8
:102D400025D080692169C05C01338B42A36228BF12
:102D5000A26242000A2342F4007084F83D32A4F8D3
:102D60003E02012311E090F93D3273B1B0F83E12FA
:102D70004A08A0F83E2201F00101FFF7D9FE94F8BD
:102D80003D02431E84F83D3210BD84F83C3210BD34
:102D900090F83B3210B583B990F83A3290F8392266
:102DA00093420AD2012101FA03F1B0F84042013303
:102DB0002143A0F84012DBB2F2E710BD2D4B10B555
:102DC0004FF4127404FB00342079C10751D594F8F4
:102DD000381221B3236B0021186809F065FE94F8BE
:102DE0003C1221B1B4F84402421CA4F84422236BE3
:102DF00094F842221868197B002A14BF022200228C
:102E0000FFF7DAFE0020012184F83B1284F8390232
:102E100084F83A02A4F8400284F8380210BD94F80D
:102E20003B222046012A04BF94F8392284F83A2232
:102E3000FFF7AEFF94F83B02236B58B9012094F8DA
:102E4000422284F83B021868197B002A14BF022230
:102E500000220AE0002184F83B1294F8422218680C
:102E6000197B002A0CBF02220022BDE81040FFF7A8
:102E7000A3BE10BD2813002090F83B1200230122AE
:102E8000012980F8393280F838220CD180F83B32A1
:102E9000036B90F84222197B1868002A0CBF0222AB
:102EA0000022FFF789BE704702790346D20713D587
:102EB000B0F8402202F4007189B209B9D10705D4F3
:102EC000B3F84602421CA3F8462270474169036AE0
:102ED0005208CA54FFF722BF704710B590F8383235
:102EE0000446002B1ED190F839124A1CD3B2092B8C
:102EF00080F8393203D1BDE81040FFF749BF0A2BF3
:102F000010D190F83B0228B9B4F8401241F0010208
:102F1000A4F840222046FFF7C7FF2046BDE8104036
:102F2000FFF7AABF10BD0000064B10B54FF4127496
:102F300004FB00342046FFF7FBFE2046BDE81040AE
:102F4000FFF7CBBF2813002030B500240E4D55F8F5
:102F50002450854202D00134E4B2F7E7A400E4B281
:102F600000200A4D2D5C8D4202D0451CE8B2F8E7E6
:102F70000019C0B20F2805D8054C04EB001083607F
:102F80000171027330BD00BF4011010850110108EA
:102F9000B81700200C2912D8DFE801F00711111131
:102FA000091111110B1111110D00022104E004216E
:102FB00002E0082100E01021012209F048BD70471D
:102FC00038B504460D461346217B00682A46FFF7B4
:102FD000BBFF2068217BBDE83840FFF7DBBF07B5AA
:102FE0008DF80400012000238DF806008DF80700FD
:102FF00001A88DF8053009F009FB0EBD7FB5044628
:1030000001A80D46164609F0EDFC0B4B0B485E433C
:1030100001680023B1FBF6F2013D561E204601A9CE
:10302000ADF80850ADF80460ADF80A30ADF80630E0
:1030300009F090FB7FBD00BF40420F005801002007
:1030400010B504460068FFF7D9FF2068012109F098
:10305000E4FC607BBDE81040FFF7C1BF00230C4AD1
:1030600052F82320824202D05A1CD3B2F7E79B00C9
:10307000D8B20023074AD25C8A4202D05A1CD3B28B
:10308000F8E71818044BC1B203EB0110704700BFFA
:103090004011010850110108B817002070B504460E
:1030A00000262E4BF55C95B90221204609F0D7FD8C
:1030B00001284FD12046022109F0DCFD2946204697
:1030C000FFF7CCFF0546204609F0BCFD3DE0042D8E
:1030D00012D12046294609F0C2FD01283AD12046E6
:1030E000294609F0C7FD29462046FFF7B7FF0546E8
:1030F000204609F0AAFD28E0082D12D120462946D5
:1031000009F0ADFD012825D12046294609F0B2FD80
:1031100029462046FFF7A2FF0546204609F098FD04
:1031200013E00C2D16D11021204609F098FD01283E
:1031300010D12046102109F09DFD29462046FFF7B9
:103140008DFF0546204609F086FDAA6801460AB1B2
:10315000287B90470136042EA3D170BD5011010881
:103160000148FFF79BBF00BF002C01404FF080409B
:10317000FFF794BF0148FFF791BF00BF0004004074
:103180000148FFF78BBF00BF000800401D481E49E3
:10319000026800608A4200F01F80002100F004B83D
:1031A0001A4B5B584350043119481A4B42189A4243
:1031B000FFF4F6AF184A00F003B8002342F8043BCE
:1031C000164B9A42FFF4F9AF08F0A0FF0CF014FE82
:1031D00001F018F8FFF7FEBF114E12483060124898
:1031E000016821F070610160410201600F4C1820FC
:1031F00020600F490F4808600F48D0F800D04068A1
:1032000000470000F04F0020EFBEADDE6837010838
:1032100000000020A4050020A40500201C1F0020A1
:10322000181002400900000004000140140C014085
:10323000000C01404434434400F0FF1FFFF7FEBF81
:10324000014B186803F0B4B90C1F0020014900209D
:1032500000F082BE4132000810B5FDF7DFFC0A49DC
:10326000FDF730FD0949FDF7E1FD094B04461868FB
:103270000078FDF7D3FC01462046FDF723FDFDF75E
:103280000DFF80B210BD00BF3333534000F07F45C7
:10329000A407002038B50D4C00202578FEF788FBE8
:1032A0000B4A05F0070322F81300013500232570AF
:1032B0001846D15A02334018102B80B2F9D1C008F9
:1032C000FFF7CAFF034A107038BD00BF9007002007
:1032D00092070020B8180020074B084A1978108878
:1032E000884207D3064B1A68907888428CBF00202A
:1032F0000120704700207047B8180020BA1800203D
:10330000A4070020124B70B518602024002500206F
:10331000FEF74EFB2D180A2003F02BFC013CF6D1E2
:10332000C5F34F10FFF798FF094902230A68517847
:103330004D006619B04203D30133062B0C44F8D17B
:10334000044892780370534303490B8070BD00BF5B
:10335000A407002012000020BA1800202DE9F04F29
:103360000446008885B048B9B4F9023043B9B4F9CD
:103370000420D2F1010138BF002102E0002100E069
:10338000014611F0010377D13D4D00B22B7000F0E2
:1033900013FD0646B4F9020000F00EFD0546B4F92F
:1033A000040000F009FD0446304609F0A9FF074675
:1033B00030460AF019F88046284609F0A1FF064673
:1033C00028460AF011F80546204609F099FF824682
:1033D00020460AF009F8394681465046FDF772FC4E
:1033E000394683464846FDF76DFC514601904046FC
:1033F000FDF768FC494602904046FDF763FC314604
:1034000003905046FDF75EFC1E4C4946206006F1D5
:103410000040FDF757FC29466060A5600298FDF763
:1034200051FC01460198FDF745FB2946E0600398F1
:10343000FDF748FC01465846FDF73AFB314620614E
:1034400008F10040FDF73EFC294660615846FDF753
:1034500039FC01460398FDF72BFB2946A061019832
:10346000FDF730FC01460298FDF724FB3946E06188
:103470003046FDF727FC206205B0BDE8F08F00BFA5
:1034800013000020A80700202DE9F8434D4B0C46FF
:103490000168013A196080889880072A30D8DFE8EF
:1034A00002F004080F14191E2226188820805A885A
:1034B00003E0598821801A88524262809A881EE06F
:1034C0001988484220805A88F6E759884842208067
:1034D0001A88F2E719884842208058880CE05A88F8
:1034E0002280188808E0198821805A8803E05988CA
:1034F000484220801A88504260809B885A42A280AD
:10350000314B1A78002A5AD1B4F90000FDF786FB36
:103510008046B4F90200FDF781FB0746B4F90400C8
:10352000FDF77CFB294D064629684046FDF7CAFB9E
:10353000E96881463846FDF7C5FB01464846FDF778
:10354000B9FAA96981463046FDF7BCFB01464846F9
:10355000FDF7B0FA09F008FF696820804046FDF7E2
:10356000B1FB296981463846FDF7ACFB0146484668
:10357000FDF7A0FAE96981463046FDF7A3FB014655
:103580004846FDF797FA09F0EFFEA96860804046CB
:10359000FDF798FB696980463846FDF793FB0146C5
:1035A0004046FDF787FA296A07463046FDF78AFB51
:1035B00001463846FDF77EFA09F0D6FEA080BDE848
:1035C000F88300BFCC07002013000020A8070020CC
:1035D000F8B5174C06462378274673B903F0B8FAB6
:1035E000144D2A683232904207D30120207003F034
:1035F0006FFA03F0ADFA2860F8BD3878B0B103F087
:10360000A7FA0C4C2168731898420FD3084A00207F
:10361000107003F05DFA03F09BFA20600648017811
:1036200009B14B1E0370054801220270F8BD00BFAE
:10363000D2070020DC070020D5070020D607002095
:1036400037B58DF8051022498DF807300B788DF8C5
:10365000040002A88DF80620C21812F8044C0D468A
:10366000443CE0B20A282CD81A49022B31F8104009
:1036700003D814B12046FFF7ABFF2B78022B0BD9F0
:10368000154D2D6803F064FA021B954204D21049CF
:10369000124B002008701870114802780146012A68
:1036A00000D094B90A4B1878022801D8421C1A702D
:1036B000002008700B49087003B0BDE8304003F0EB
:1036C00007BA3224022BD5D9D7E703B030BD00BFEB
:1036D000D307002054110108DC070020D507002083
:1036E000D6070020D2070020014B1860704700BFAA
:1036F0002413002070B53F4B04465A7B3E4802B16C
:10370000012202704FF4007000F056F9002828D012
:103710003A4E3B4B316858780D68003018BF012095
:10372000AA68904748B13368364D1868012102698C
:103730002970904708B102212970304D2B68186814
:10374000C268904728B12E494B7813B92D4A022000
:10375000107029680B689869804710B129490022C8
:103760000A70202005F0FAFE60B12248264B827ACA
:103770000AB9C17A21B12248C27A0AB9012100E00E
:10378000002119701F4B1878022802D14C204E21BD
:103790001DE0012807D14D2153204C220B46BDE8E6
:1037A0007040FFF74DBF184A1178012903D153200B
:1037B00001464E2206E0104B1878012804D1532010
:1037C000014602464D23EAE724B153204D210A4623
:1037D0004423E4E70D4A117821B13220BDE870405E
:1037E000FFF7F6BE0A4B20461C70BDE8704003F0A0
:1037F0006FB900BF981E0020D707002024130020B7
:10380000871E0020D4070020D8070020D5070020FD
:10381000D20700200E4B1A78402A16D15888B0F5EE
:10382000667F12D11979BE290FD193F89523002014
:10383000EF2A0CD113F8011B064A48409342F9D1F4
:10384000D0F1010038BF002070470020704770475A
:1038500000F8010898FB010810B50C4C204605F053
:1038600031FF0B4B2046B3F8D010B3F8D2201F3CE9
:1038700005F042FF14F8B40B01F0DEF904F04CFE41
:103880002046BDE8104000F06BBC00BFDB180020F4
:103890008819002010B5FFF7BDFF10B90A2003F00A
:1038A00007FA0E4C0E4920464FF466720CF0EEFA01
:1038B00094F89433022B02D9002084F8940394F8EE
:1038C0009413CC2202FB0143064803F598710CF0D7
:1038D000DDFABDE81040FFF7BFBF00BF8819002028
:1038E00000F80108BC18002008B5FFF7D3FF0F202F
:1038F00014210122BDE8084008F0E2BB08B5054BE1
:10390000CC2202FB0030044900F598700CF0BEFA9E
:1039100008BD00BF88190020BC180020224A38B515
:10392000402313704FF466700023BE21EF245080B3
:10393000117182F8954382F896331D461A4A985CB5
:103940000133B3F5667F85EA0005F7D182F8965317
:1039500009F01CFA04250024691E11F0FF0516D099
:10396000342009F027FA114809F07AFA0F4C04289C
:103970000BD10F4A2046A15809F048FA0D4B0434E8
:103980009C42F4D10428044601D00446E4E709F03F
:1039900009FA042C02D1FFF73DFF20B90A20BDE847
:1039A000384003F085B938BD8819002000F80108B7
:1039B0008821FE1798FB0108034B996808420CBF49
:1039C00000200120704700BF88190020024B9A6830
:1039D00010439860704700BF881900202DE9F34715
:1039E000B74AB84D10685168B74C6B4603C34FF4E3
:1039F0006672002128460CF0F7FACC2200212046FE
:103A00000CF0F2FA40200321287002206971FFF7C0
:103A1000DDFFFA22A5F8F2202A236E22A5F8EE3067
:103A20004FF4FA7085F804212B2340F24C42A5F89C
:103A3000F60085F80531212002F54873202185F82C
:103A40000601A5F8163140F27E404FF47A73002744
:103A50004FF001094FF4167685F8F410A5F81421FB
:103A600040F2DC5100F52F72A5F8D00003F5CB70C1
:103A7000A5F8F060A5F81211A5F8D22085F8947386
:103A8000A5F8F870A5F8FA70A5F8FC7085F8E27052
:103A900085F8E37085F8E470A5F8E670A5F8E8709D
:103AA000A5F8EA7085F8ED7085F8EC9085F8077157
:103AB00085F82C7185F82D7185F82E7185F81071B7
:103AC00085F8187185F8197185F81A91A5F8D43020
:103AD000A5F8D6006C30A5F8D8004FF4C870A5F84A
:103AE000DE004FF41650322340F2B452C5F82401E0
:103AF00040F6AC50A5F8DA20A5F8DC301A46A5F857
:103B0000E030A8814FF4E1331E20C5F82031E07287
:103B100052232073552085F82A31E07017230B209B
:103B20004FF028086375A37560712D2314204FF0A2
:103B3000080E63732271A07185F81C7185F81D71E0
:103B400085F8287185F82971AF7385F81B71277086
:103B500084F8018084F80280E775A7732776E773FD
:103B6000677684F810E060745020E076E1845A2093
:103B70000421A37620722375E077412384F82E1068
:103B8000524853494FF00E0A84F82030514B84F8C4
:103B900007A04FF0640C4FF00A0A4FF0780E84F83B
:103BA000212060631522E1634B4805F5847184F898
:103BB0003120A36384F812A084F81CC084F8098023
:103BC00084F80AE084F81E9084F8237084F8247046
:103BD00084F8257084F822706785A785278584F886
:103BE0002F8084F8308084F8409005F0C3FD4FF4B6
:103BF0004872C8204FF4966340F2D9313E4684F8AB
:103C00006C7084F86D7084F86E8084F86F9084F81E
:103C10007270A4F8702084F8B4A084F8B500A4F8F9
:103C2000B630A4F8B8104FF47F724FF4FA601DF864
:103C30000710A4F87420A0F5FA73FF220137A4F846
:103C40007600A4F8783084F87A1084F87B20083461
:103C5000082FE8D11C4C0120C823142184F8BA0095
:103C600084F8BB0084F8BC00A4F8BE3084F8C0100F
:103C700084F8C2001E2264204FF49673282184F831
:103C8000C120A4F8C400A4F8C630A4F8C8100024C9
:103C90000C4A0023A0181034C02C0361F8D1002472
:103CA0000E49CC2260180849CC340CF0EFF8B4F57A
:103CB000197FF5D102B0BDE8F047FFF72FBE00BF76
:103CC000E00F010888190020BC1800209A99193FBC
:103CD0003D0A773FF6287C3F6A110108B81A002098
:103CE00008B5FFF797FD18B9BDE80840FFF776BEA5
:103CF00008BD0000024B9A6822EA000098607047F5
:103D000088190020014B9868704700BF881900206F
:103D1000884203DB8242B4BF114601460846704721
:103D20000023036170472DE9F0410669044601361E
:103D3000012E0D46066105D100236160216083607C
:103D4000BDE8F081D0F8008008464146FCF7B0FE9F
:103D500007463046FCF762FF01463846FDF766F835
:103D600001464046FCF7A6FE0646606031462846FE
:103D7000FCF79EFE01463846FCF7A4FFA168FCF75D
:103D800099FE2660E060A060BDE8F08110B50446B1
:103D90000069012807DD0138FCF740FF0146E068B3
:103DA000FDF744F810BD002010BD08B5FFF7EEFF89
:103DB000BDE8084009F03ABD08B5FCF725FB04A3AF
:103DC000D3E90023FCF786FBFCF71EFE08BD00BF0D
:103DD000399D52A246DF913F2DE9F041069C0646EF
:103DE0000F46002B0CBF4FF020084FF03008204644
:103DF00010F8013B0BB9154603E0002AFBDD013A40
:103E0000F6E7002D04DD30464146B847013DF8E7AE
:103E100014F8011B11B13046B847F9E7BDE8F0814D
:103E20002DE9F04389B006460F4603921C46039ADB
:103E3000134613F8011B0393002900F08A802529FB
:103E400001D0304683E0002004905578911C302D3D
:103E5000039105D19578033203924FF0010800E0F9
:103E60008046A5F13003D8B2092806D8284603A910
:103E70000A2204AB00F00CF905466C2D05D103991C
:103E8000012211F8015B039100E00022642D2FD084
:103E900010D8582D3AD006D8002D5AD0252DC6D18D
:103EA0003046294653E0632DC1D130462178251D87
:103EB000B8474AE0752D0DD0782D27D0732DB6D197
:103EC000251D2468304600943946049A0023FFF7E4
:103ED00083FF3AE0251D20680A2122B1002205ABAC
:103EE00000F060F802E005AB00F08CF82C4623E00F
:103EF00005AD04F104092068294612B100F077F8F5
:103F000001E000F0A4F84C46009517E004F1040924
:103F10002068102142B1B5F15804634253EB04020A
:103F200005AB00F03FF806E0B5F158035A425A419C
:103F300005AB00F067F84C4605A8009030463946BE
:103F4000049A4346FFF748FF71E72C466FE7B847EE
:103F50006DE709B0BDE8F083024B196002490860C3
:103F6000704700BFE0070020E40700200FB407B54A
:103F7000094904AB0868094953F8042B09680193FF
:103F8000FFF74EFF064B186802F031FB0028F9D00E
:103F9000BDE80E4004B07047E4070020E0070020B1
:103FA0000C1F0020F0B50124B0FBF4F58D4201D3C5
:103FB0004C43F9E70026C4B1B0FBF4F504FB15004F
:103FC000B4FBF1F41EB9002D01DC002CF4D1092D55
:103FD000EFB204DD002A0CBF5725372500E030255D
:103FE000ED1903F8015B0136E5E71C70F0BD002810
:103FF0000B4603DA2D22404203F8012B0A2100224E
:10400000FFF7D0BFF0B50124B0FBF4F58D4201D32A
:104010004C43F9E70026C4B1B0FBF4F504FB1500EE
:10402000B4FBF1F41EB9002D01DC002CF4D1092DF4
:10403000EFB204DD002A0CBF5725372500E03025FC
:10404000ED1903F8015B0136E5E71C70F0BD0028AF
:104050000B4603DA2D22404203F8012B0A210022ED
:10406000FFF7D0BFA0F13003DAB2092A01D8184611
:104070007047A0F16101052901D857387047A0F1B8
:104080004103052B01D8373870474FF0FF30704798
:104090002DE9F8430D6804460F46904699460026E0
:1040A0002046FFF7DFFF002806DB404504DC08FB65
:1040B000060615F8014BF3E73D602046C9F800609D
:1040C000BDE8F883014B00229A807047E807002082
:1040D000034BB3F90400D0F1010038BF0020704752
:1040E000E80700200649074B0A68B3F90400137873
:1040F00005214B439842D4BF00200120704700BFE8
:10410000F0070020E807002010B50446FFF7EAFF9B
:10411000002814BF2046002000F0010010BD000060
:10412000074B084A1968B2F904004B780A78D1188D
:10413000052251438842D4BF00200120704700BFB0
:10414000F0070020E8070020044B9A8811B21429D8
:1041500001DD143A00E000229A807047E807002051
:10416000024B00221860024882807047F00700204E
:10417000E8070020034B044918600448002201604E
:10418000C2807047F407002074110108E80700207E
:1041900008B502F0BFFD024B00221A7008BD00BF37
:1041A000871E002010B5FFF79DFFE0B1104B5C7833
:1041B000201C18BF0120FFF7A7FF70B10D480E4B60
:1041C00001680E484A8901681A805A809A804A8894
:1041D000DA800B4BD888411CD980FFF7A1FF00B9CA
:1041E0000CB9FFF7D5FF064B9A88501C988010BD7C
:1041F000871E0020F4070020C81E0020F0070020C2
:10420000E807002030B58C4C87B0A07B003018BF89
:10421000012002F0B9FCFFF719F8FFF761FDFFF785
:1042200039FB94F8073133B1012B01D0092B02D1AE
:104230008DF8003004E000218DF8001084F807119B
:104240006846FDF73FFB7D48FFF788F80E2005F034
:104250008FF903F089FB784A55790E2D01D0082D8E
:1042600001D1012400E000244FF480708DF80A4051
:10427000FFF7A2FB18B90820FFF79EFB00E0012022
:1042800000F001008DF806004020FFF795FB8DF847
:1042900007000120FFF790FB8DF805000820FFF7CD
:1042A0008BFB80F001038DF8043003F0ADFF624C0E
:1042B00063498DF8080091F8BC20B4F8DE00B4F82A
:1042C000E030C2F38005ADF80C004FF47A714FF482
:1042D00080408DF80950ADF80E30ADF81010FFF7A2
:1042E0006BFB18B1B4F8DA20ADF81020BDF80C5013
:1042F000B5F5FA7F02D90020ADF810005049B4F8A6
:10430000123194F80741B1F8B820012CADF8123001
:10431000ADF8142004D0092C01D1072400E00024BA
:1043200048488DF80B40FFF725FF474D2860FFF701
:10433000DBF901A82968FEF7E3FA4248296805F08D
:1043400047F94FF48070FFF737FB40B10820FFF7C3
:1043500033FB20B9384890F81D0104F02FF90120F3
:10436000FFF72AFB30B14FF48060FFF725FB08B15F
:1043700001F05EFD354B1021082259610A251A61B2
:10438000324C013DE06880F01003E360E1681920E1
:1043900081F00802E26002F0ECFB012002F098FBE1
:1043A000192002F0E6FB002002F092FB15F0FF0559
:1043B000E6D1082010232061236101F047FC02F0C0
:1043C0002FFD0220FFF7F8FA10B12148FEF79AFFFF
:1043D000204805F0A7FF4020FFF7EEFA50B1164C39
:1043E000D4F8240194F82811FEF76AFC94F8290106
:1043F000FEF77EFC4FF40060FFF7DEFA10B11648BE
:1044000005F074FC02F08AFB0B4A144955790860E8
:10441000052D03D1124B4FF4C87018801149124D6D
:10442000124B4FF47A74C82201200C802A805873F2
:1044300000F010FCFCE700BF881900206E1A002075
:10444000BC180020901A002024130020000C01400A
:104450008C1A0020A81A00200C1F00201808002029
:1044600096080020B4090020B40D0020871E00200B
:1044700008B5034BB3F9D40003F092FBFEE700BF8D
:10448000881900202DE9F04F794B0024B3F902A0E0
:10449000B3F9000087B0BAF1000FB8BFCAF1000A43
:1044A0000028B8BF40428245B8BF82462546A04694
:1044B00027460594A14626466E49CA7812B90B795B
:1044C000002B40D0022E3ED06B4B6C486849B0F8B0
:1044D000F620685EE95EDFF8B4B101EB40005142BE
:1044E000FFF716FC664A05EB0B0335F902C0B3F97A
:1044F0002A10CCEB00009BF8082000EB010902FB1E
:1045000009F09BF81C30642190FBF1F005226FF05C
:10451000040159435A43CDF81090FFF7F9FB594B6A
:10452000DDF810C0E258584981460CEB020042F217
:1045300010720493FFF7ECFB04999BF81230605063
:104540005843001305904B49CA781AB10B790BB93F
:10455000022E30D1464F4D48EF5F5021794306EB94
:10456000000B9BF801204A4BDFF83C8191FBF2F0F5
:10457000E95E54F80820401A801846494FF47A52F0
:104580000493FFF7C5FB049B48F80400E95E00298B
:10459000B8BF4942B1F5207F02DD002048F8040091
:1045A00058F804207D239BF80B1092FBF3FE01FBCF
:1045B0000EFC4FEAAC182F480279A2B1022E12D09D
:1045C0000AFB07F1CAF5FA7303FB09104FF4FA71FD
:1045D00090FBF1F20AFB08F0DDF814B003FB0B03CB
:1045E00093FBF1F308E0C3780BB1022E02D14346EE
:1045F0003A4601E0059B4A462549DFF8B0C0695AB2
:1046000016F80CB008B20BFB00FB6FF04F0C9BFBD5
:10461000FCFB9344204ACDF804B035F902C0A952FE
:10462000CCEB00001D4ADFF888C0029054F80C1053
:10463000A0584018029903904018A15844F80C1053
:104640000299A150164A0434B15C202201FB00F00B
:1046500090FBF2F15B1A134A9B44013625F802B035
:104660000235032E7FF428AF07B0BDE8F08F00BFFE
:10467000501D0020871E00206E0800208819002091
:10468000940D00207C080020F0D8FFFFBC1800200B
:10469000980D002080C1FFFF04080020540800206E
:1046A0009E1D0020581D0020F8070020A11D00209D
:1046B000340800202DE9F74F002425462646A2465F
:1046C000474BDA780AB91879C8B1022E19D0454B90
:1046D00045484649B0F8F6206F5EE85E514200EB6F
:1046E0004700FFF715FB424A424F35F902A0EB198C
:1046F000CAEB0001B3F92A0001EB000A0BE0022E1D
:1047000009D13C49394B91F82470B3F904201B3787
:1047100057437B1116E03249364ACF7877B9334890
:1047200092F823702B5E1B375F4309793B1149B127
:10473000927C02FB0AF703EB272303E0137A03FBC7
:104740000AF003112C48DFF8C8B0295EBBF800005E
:104750005F1A284B784306EB030898F80120DFF82E
:10476000B4907A4398F80B104FEAE21C54F80920F1
:10477000C31201FB0320214944F809004FF4001241
:10478000CDF804C0FFF7C4FA1D4B4FF6FF72E15895
:10479000E750791ABBF8007044F809003B09B2FBF6
:1047A000F3F74F43174A184B54F80290E158BF11E2
:1047B000A750494498F81520C9194A43DDF804C0A8
:1047C00012490CEB603044F80390013600EB2223D1
:1047D0006B5204340235032E7FF472AFBDE8FE8FB6
:1047E000871E00206E08002088190020501D002020
:1047F000940D0020BC180020980D00200000E0FF60
:1048000048080020600800201C080020581D0020D7
:1048100072080020F80700200B4B0C481A8852B988
:10482000817841B142786AB9012141700848094B49
:1048300002881A807047437823B90220FF210122A1
:1048400007F03EBC704700BFB4090020871E00205F
:10485000F21D00209C1D00202DE9F04FA24BA34A21
:10486000B3F90600D18C85B088420FDBB0F5FA6F42
:1048700092F8254007DA451A6C43A1F5FA6694FBD5
:10488000F6F4643403E0C4F1640400E06424984A5C
:10489000964BB2F8127192F9EC2093F8231000971E
:1048A000574293F86C50019193F86D60B9B293F848
:1048B00024300291002103930A468B4FDDF80080DB
:1048C00031F907C040F2E637C8EB0C0303F2F31EE0
:1048D000BE4503D8002BB8BF5B4201E04FF4FA732A
:1048E000022ADFF818822CD025B1AB42CCBFC5EB31
:1048F000030300236427DFF82CA293FBF7FE6FF07D
:10490000630B3AF81E900BFB0E3B0EF1010E3AF9C9
:104910001EA00FFA89FECEEB0A0E0EFB0BFE9EFBCD
:10492000F7FEF14428F80190DDF8048003FB08FE4F
:10493000704B9EFBF3F3DB199BB2634393FBF7F7DA
:1049400012E026B1B342CCBFC6EB03030023029FA3
:104950005F43A8F80470039F002BB8BF5B427B4302
:10496000644F93FBF7F76437604B02EB030E9EF83E
:104970000190642307FB09F898FBF3F9DFF8A8819D
:1049800002F808909EF80B909EF815E007FB09F8D6
:1049900007FB0EF798FBF3F9DFF8908197FBF3F331
:1049A00002F80890DDF80080534FC445D35503DA70
:1049B000524BCF5A7F42CF5201320231032A7FF449
:1049C0007CAF4B4C4FF4FA62B4F81411FFF7A0F926
:1049D000B4F814614FF47A75801B4543C6F5FA6349
:1049E000B5FBF3F56421464895FBF1F36FF06306E0
:1049F00030F8132006FB0355013330F9130013B2CE
:104A0000C01A45433F4B3D4C95FBF1F1587A8A184B
:104A1000E280002838D03C4F3C4D3E882988721AED
:104A200010B2FFF7C9F9074608F06AFC0646384697
:104A300008F0DAFC0546B4F90200FCF7EFF8074687
:104A4000B4F90000FCF7EAF831468046FCF73AF981
:104A5000294681463846FCF735F901464846FCF7B9
:104A600027F8FCF7F5FA314620803846FCF72AF99A
:104A7000294606464046FCF725F901463046FCF734
:104A800019F8FCF7E5FA60800220FEF795FF90B177
:104A90001F4806220378591CCBB20370B3FBF2F017
:104AA00002FB103111F0FF0F05D1FEF7F3FBFEF70B
:104AB00013FC184B1870174A1078003018BF0120EB
:104AC000FEF718FE14490B881BB9144A108828B940
:104AD0002EE0022004F042FD0028F6D0104BDA68E8
:104AE00082F00801D96030E0C81E0020BC18002008
:104AF000881900200CFEFFFF9E1D0020501D002085
:104B0000B01E0020871E0020F21D00209C1D0020EA
:104B10002E0800206C08002096080020B409002010
:104B2000000C0140EC1E0020A11D0020941D00205F
:104B3000364B997811B1364A082010615B7813B171
:104B400033480821416105F0ADF88020FEF734FFBD
:104B5000B0B13048304B02681968501A00280FDB9A
:104B600002F5434250321A60284B2C4A5978081CEF
:104B700018BF0120B2F90210B2F90020FDF734FC91
:104B80002448274A01681368C81A002810DB1F4B05
:104B9000587B58B998701E4B01F5F421D86880F005
:104BA0000800D86001F59073136001E0012199704D
:104BB00005F0C4FB1B4A107830B94FF40060FEF7D3
:104BC000FBFE08B105F0B6F8202004F0C7FCA0B148
:104BD0001049154B0A681868111A00290DDB134893
:104BE0000178042909D902F5123202F5F87018602B
:104BF000074BD96881F01002DA600D4883680BB169
:104C00000C48984705B0BDE8F08F00BF871E002014
:104C1000000C0140880800200C080020940D0020A2
:104C2000440800208C120020100800209A1D00204B
:104C3000E01D0020301D00200128034B14BF034A53
:104C4000034A1A60704700BF140000208544000822
:104C5000B546000870B50820FEF7AEFE90B1A04B37
:104C600093F8100103280CD8DFE800F002020508D1
:104C700004F0C6FF06E004F00FFE03E004F0CAFEF5
:104C800000E000209749984A0B681168591A0029DA
:104C900002DA002800F0028303F59C449348203494
:104CA0009349146004F0B6FC4FF48040FEF784FE94
:104CB00020B1904D297809B902F02CF8884A92F871
:104CC0001B01B0B18C4CC31C34F913504FF47A72F1
:104CD0000021A5F57A70FFF71BF8FBF79FFF8749C6
:104CE000FCF7A4F88649FBF7EDFFFCF7D7F98549F7
:104CF00008804FF40070FEF75FFE20B1824A106812
:104D000003685C69A047764D0022B5F81401B5F838
:104D10001641134678499B08555E8542C4BF63F02F
:104D20007F03DBB2A542B8BF43F040030232082A3A
:104D3000F0D17648764A047805469C4204D1107832
:104D4000F92803D8411C00E0002111704FF4804085
:104D50002B70FEF731FE68B1614D674BB5F812114B
:104D6000B5F8DC20B3F90640881A844202DD8B18BE
:104D70009C420CDB4FF48040FEF71EFEF8B95E4CFF
:104D80005749B4F90650B1F81421954217DA614D2C
:104D90006148624CB5F842100023036043608360B1
:104DA0002360636059B1534A5D4B1078002800F0CE
:104DB000D9831C78002C00F0D583FFF72DFD5449D2
:104DC0000A78142A40F0DD8055484478ECB1514A05
:104DD000B2F842502DB94D4908785F2801D101F051
:104DE00099FF3F4C94F81831002B00F0CA80494AD3
:104DF000B2F84250002D40F0C480444908787D2824
:104E000040F0BF8001F086FFBBE0404D2B78572B70
:104E100018D1444C4FF47A724FF480702280FEF720
:104E2000CBFD08B103F026FB042004F097FB10B182
:104E30003D490A250D80082004F090FBD8B93B4B72
:104E4000188018E00420FEF7B7FDA0B129785A2990
:104E500011D1374802781AB10470364B012009E0AD
:104E6000354C364B257885F00101217009B10220BF
:104E700000E003201870254802785D2A00F079834D
:104E80005B2A00F078835E2A00F077832148B0F82F
:104E9000422032B91D4C25786F2D02D1FFF7BCFCA2
:104EA00015E00F49194B91F8180118B112B91A7889
:104EB0007E2AF3D01C78972C04D1214B4FF4C87074
:104EC000188004E0A72C02D1154901258D730F4AE3
:104ED0001478BB2C36D10F4CA18D8D1C37E000BF50
:104EE00088190020880800208C080020901A0020D3
:104EF000AE1E0020981E0020C81E002000007A442C
:104F000000C07F44981D0020241300202C0800209E
:104F100084080020BC180020F80700207C0800202E
:104F2000871E0020B4090020B40D0020F21D0020CF
:104F30000A080020140800202A080020D5070020B5
:104F400096080020B72C04D1814CA28D951EA58512
:104F50000BE0BE2C03D17E4D6B8D981C04E0BD2C64
:104F60000FD17B4D698D881E68857A48002490F8A2
:104F70009403FEF7C3FCFEF7D1FCFEF7B5FC764BBD
:104F80001C700420FEF718FD00282CD0734C2378E9
:104F90008BB1734A557875B172496E4BB1F9060001
:104FA000B3F81421904206DD6F4D2B781BB96F4981
:104FB0003220088023706C4C627C52B16C4D2A7890
:104FC0002AB96C4B187810B9684C32212180012421
:104FD00008E0684D2B7833B16148417819B92970E0
:104FE000654D01242C700023644C1A4634F8020FDE
:104FF00040F2135501B2A942CCBF0025012505FAA4
:1050000003F5A0F21550B0F5C77F8CBF002001203A
:105010002A435D1C00FA05F0024340F2A46081427D
:10502000D4BF00210121981C01FA00F103330A4387
:105030000C2B92B2DAD1002345484B4900EB4300D8
:10504000B0F8420002420CBF002001205854013346
:10505000152BF1D14A7822B1022004F07FFA68B909
:1050600015E04FF40070FEF7A7FC80B144490868D2
:105070000368DA6890470028EED108E0384AD37810
:1050800043B9404901200B604B60D07002E03448C6
:105090000021C170344A324B917839B1187900211E
:1050A000D97020B9374A01211060506019712E4B18
:1050B0002B49187808B901220A70C878324B10B908
:1050C00027490A7912B11021596101E010201861B5
:1050D000042004F043FA10B3234B2148DA7882B15C
:1050E00082797AB9294B0121817118682849294BA5
:1050F0000860D8882849294B088029481A6002602E
:1051000000E082714FF40050FEF756FC38B1164AA9
:105110001349107910B1CB7B0BB90120C873022061
:1051200004F01CFA20B1104A0D4B517931B93DE021
:10513000082004F013FA0028F5D147E05879B0BBF5
:10514000184901225A710888174B18802FE000BFB8
:10515000BC18002088190020840800202A0800209C
:10516000871E0020C81E0020981E00203208002044
:10517000780800200A08002014080020CE1E002015
:10518000241300207C080020000C0140181E002081
:105190001C1E0020501D002086080020B80D002095
:1051A000F40D0020F21D0020F01D002059718749E8
:1051B000874B8A79084612B15A7A0AB901225A7283
:1051C000C17919B18348844B02881A80202004F0E9
:1051D000C5F9002852D07E4BD97A1846002948D00C
:1051E0007E4A1178042944D9784A917A79B1DA79DA
:1051F000002A43D17A480121D9711A72794B011DD5
:105200001A7003F043FA784A0220107036E0D07A20
:10521000D97118B37549764AB1F90000B2F8C820BF
:105220000028B8BF4042904218DAB1F902100029B4
:10523000B8BF4942914211DA187AF8B901241C72B8
:10524000684B6C4918706C480A684B68011D026015
:10525000436003F01BFA644804700FE061485C4B44
:10526000017800221A7249B90122027003F026F96E
:1052700004E00023C37103725B4803705349544B2D
:10528000087B00B101205D4A98725179082901D04C
:105290000E2944D14E4B0020587240E05848036814
:1052A000042B3CD8DFE803F0030C17222E00012268
:1052B0000260082004F052F910B100F083FB70BBCB
:1052C0004F490868431C04200B6004F047F910B1F3
:1052D00000F0A0FA18BB4A490A68501C0860042074
:1052E00004F03CF910B102F0AFF9C0B9444B4FF4EF
:1052F000807019684A1C1A60FEF75EFB10B103F05B
:105300005FFA0CE03E4B00201860102004F026F9F4
:1053100008B100F09BFD4FF40050FEF74DFB01F08B
:10532000FDFB384A354910608A89374B22B119682C
:10533000411A0029C0F231818018186001F088FFFD
:10534000FFF78AFA01F0EAFB304B2E4A1968106029
:10535000421A2F49186008200A8004F0FFF800283C
:105360005CD02248818801F145039AB28A2A194B00
:10537000284A51D81648407900284DD018881388FB
:10538000C21A92B293B218B2B330BCBF02F5B47372
:105390009BB21A481AB2B32A90F8EC200C48C8BF46
:1053A000A3F5B473407BC8BF9BB2002836D052B27D
:1053B000504243430E4A1BB2507A6FF01D024343E2
:1053C0000A4893FBF2F3C918818027E0981E002059
:1053D000871E0020F21D00209C1D00209A1D002029
:1053E000601D00201800002015080020501D00201E
:1053F000BC1800207C1D0020401D002088190020C2
:1054000040080020880800207408002018080020A8
:1054100072080020F01D002019881180042004F07B
:105420009DF8002877D05D4B9A79002A73D0187CBC
:105430005B4B002866D15B495B4C91F86F2032B31F
:10544000DE88248891F86E2035B221B26B1A002BC9
:10545000B8BF5B429342554B0CDD554CB6B2206051
:1054600001208D42187001DD524292B24C4B9119CD
:10547000D98050E01A7822B14E494F4A0968187015
:1054800011604E48464903681C19CC8043E0D88817
:10549000238805B21CB22C1B91F86E10002CB8BFEB
:1054A00064428C4213DD464A16888519E91A4FF486
:1054B000FA600CB294FBF0F100FB11443E4D1480F5
:1054C0002E683A4A761801202E60107009E037499C
:1054D000087830B1374C384824680A700460384C7A
:1054E00022803649374A0C68B2F8D010E3182C4CA9
:1054F00098B2E080963100B2B2F8D220FEF708FCF4
:10550000E08008E02F492D4891F91A210068598858
:1055100000FB02125A80234890F8722052B11F49B2
:10552000CB780BB9087928B11D4B274AD888118848
:105530000A18DA80202004F011F840B1174BD9790D
:1055400009B9187A18B11A7B0AB103F081FF1F4B11
:105550001968884702F036FB02F0B2FABDE87040E5
:1055600002F00ABB5D78002D3FF429AC01F0D2FBBC
:1055700025E4012402E0022400E00324114BE5B2FB
:10558000691E83F89413FEF7C9F9FEF783F9022028
:1055900028212A4606F094FD78E470BD871E00207D
:1055A000501D0020BC180020860800202B08002079
:1055B000B80D0020181E00201C1E0020F40D002035
:1055C00028080020881900209E0D002014000020CB
:1055D000F8B5664B1D88002D40D000231946B5F55F
:1055E000C87F634A01D100205050624E50589F5FDF
:1055F0005F4CC0195050604A002098539E180233E7
:105600000431062BA6F8F800E9D1012D22D121683A
:105610004FF4C87301F1C80191FBF3F1A2F8F8103F
:105620006168C83191FBF3F1A2F8FA10A168C831A2
:1056300091FBF3F3514909885B1A5149A2F8FC30F8
:105640004885888592F89403FEF758F9FEF766F9C5
:10565000FEF74AF945480288531E03800420FEF7EE
:10566000ABF900286FD047490A88322A11D1424D40
:10567000454CB5F8F860B5F8FA00B5F8FC3040498B
:1056800026806080A3804D8D404C8E8D2580668065
:1056900001E0002A32D000231946322A3C4801D1C9
:1056A00000244450334D44585E5FA619465032489A
:1056B00000245C531D1802330431062B2646A5F83E
:1056C000F840EAD1012A16D1324B33491A70334BD4
:1056D0000C70022119702C4B1988A0F8F810598809
:1056E0009B88A0F8FA102949A0F8FC30244B0888C0
:1056F000498858859985234B013A1A8028480178B2
:1057000009B30022027022481B4B0468322194FB2B
:10571000F1F4A3F8F8404468806894FBF1F490FB3E
:10572000F1F11648A3F8FA400088091A1448A3F8C2
:10573000FC104285828593F89403FEF7DFF8FEF7AC
:10574000EDF8FEF7D1F80B4B0B4A1888B2F8F810B9
:10575000401A1880B2F8FA105888B2F8FC20401AA3
:1057600099885880881A9880F8BD00BF9608002054
:10577000A4080020101E0020881900201A00002014
:10578000BC18002032080020B20800209008002039
:10579000980800200A08002078080020D50700207B
:1057A0001408002010B5074B074C5968204688475D
:1057B000064A204621461278FDF766FEBDE81040F5
:1057C000FFF706BFB41D0020101E00209408002023
:1057D00030B50B4B0B48196890F831400A4D4A1C04
:1057E000A24208BF002209482C681A6040F82140F4
:1057F000074950F822000D686419241A0C6030BD66
:10580000C4080020BC180020B00D0020CC080020E7
:10581000880D002070B5154B154D18682A68811A3F
:10582000002921DB134E28603368134C7BB12069BB
:1058300080476168884722882B681049D018286003
:1058400062690F48904700213160022070BDA06856
:105850008047E2689047FFF7BBFF2B686188012013
:10586000CA1830602A6070BD002070BD8808002012
:10587000BC080020C0080020C01D00207C0D0020B6
:10588000B00D0020F8B51D4C1D4A94F83130106859
:10589000591EB0FBF1F0FBF7BDF91A49FBF7C6FA48
:1058A000194907F02FFE01464FF07E50FBF700F933
:1058B0001649FBF707FA07F057FD154D646B0746CD
:1058C0002868FBF7ABF92146FBF7FCF9114B0646BC
:1058D0001968781AFBF7A2F9214607464FF07E5067
:1058E000FBF7E6F801463846FBF7ECF9014630468F
:1058F000FBF7E0F807F038FD2860F8BDBC18002081
:10590000880D002080E6C547B1DC423ED048874A7A
:10591000BC0D0020B808002010B5154B154A93F8AF
:105920003100154B1168441E18680823B0FBF4F0D1
:1059300091FBF3F4091B4018106090FBF3F0FBF7A8
:105940006DF90E49FBF772FA0D4907F0DBFD0146D0
:105950004FF07E50FBF7ACF80A49FBF7B3F9FBF7C1
:1059600077FB094B094A19881060481E188010BD42
:10597000BC180020C8080020880D002080E6C5471C
:10598000B1DC423ED048874AB40D0020B808002060
:10599000034B1888D0F1010038BF0020704700BFCA
:1059A000B40D002038B5054C10256561FCF742FCAC
:1059B000034B012225611A7038BD00BF000C014065
:1059C000A4090020F8B5414B414D18682A68811A96
:1059D000002978DB00F5C334A0342C603D4C3E4EEA
:1059E0002046FCF7EDFB32783C4E20462146FDF781
:1059F0004BFDB37BBBB12D68394F3A483A493B4A1E
:105A00003D6025880023A0F8FE300D801580A0F8A9
:105A100000316588A0F80231A0881F464D8055806E
:105A200088809080B373324B197881B1294B2D4A0D
:105A30001888B2F8FE10401A1880B2F80011588881
:105A4000B2F80221401A99885880881A9880244A0E
:105A50001368002B35D01E4C2168C81A254B98427C
:105A600016D825490023CA6882F00804CC6019487A
:105A70001D491A5A5C5E10B28442C8BF5A521B4973
:105A80005C5E8442B8BF5A520233062BEFD118E055
:105A900000231360144C15481C5F185E114A20182F
:105AA000022499181B1990FBF4F0062BA1F8FE00B4
:105AB000F0D192F89403FDF721FFFDF72FFFFDF7DA
:105AC00013FF0120F8BD0020F8BD00BF88080020AA
:105AD0009C090020D81D002092090020871E00206C
