:020000040800F2
:100000000050002075CD000821CE000805B800087A
:1000100021CE000821CE000821CE000800000000FB
:1000200000000000000000000000000021CE0008D9
:1000300021CE00080000000021CE0008F5B700081E
:1000400021CE000821CE000821CE000821CE0008D4
:1000500021CE000821CE000821CE00083DB70008BF
:1000600021CE000821CE000821CE000821CE0008B4
:1000700021CE000821CE000801B7000821CE0008DB
:1000800041B7000821CE000821CE000821CE00088B
:1000900021CE000821CE000821CE000839B7000883
:1000A00021CE000821CE000821CE00084DB6000860
:1000B00045B6000839B600082DB600087DB700081F
:1000C00075B7000879B7000871B7000821CE00089D
:1000D00021CE0008C5B6000859B6000821CE000898
:1000E00081B7000821CE000821CE000800000000E2
:1000F0000000000000000000000000000000000000
:0C01000000000000000000005FF808F1A3
:100110002DE9F04F6C4B6D4D6D4E2B6000236B60E5
:100120006C4BA3B01B8803F5FF3303F5FF739B02F1
:1001300033600AF0DBF818B907F068F908F0BCFA88
:1001400007F06AFB00230C93634C0D930E934FF45E
:10015000E0130F932368614943F480338A7B236063
:10016000A3698A4643F01003A361236803F40033B4
:100170000D930C9B01330C930D9B1BB90C9BB3F59A
:10018000A06FF2D12168544B11F4003101D0022349
:1001900015E0186840F0010018600C91236803F026
:1001A00002030D930C9B01330C930D9B1BB90C9B0D
:1001B000B3F5A06FF2D12368980732D501230E93CF
:1001C000474B196841F010011960196821F00301CB
:1001D0001960196841F0020119606368636063681F
:1001E0006360636843F4806363603E4B196821F089
:1001F000704119603C497160616821F47C11616053
:10020000196841F000411960996821F40041996032
:100210005968090406D52E4B344959604FF48013B0
:1002200002E0FEE74FF4E0130F930E9B012B16D074
:10023000022B18D16AB10F9BB3F5801F02D14FF486
:10024000A01305E00F9BB3F5E01F02D14FF400139C
:100250000F9362680F9B134343F4803302E063689B
:1002600043F460136360236843F080732360226863
:10027000194B9201FBD55A6822F003025A605A6862
:1002800042F002025A606268134B02F00C02082A24
:100290000692F8D15A68DFF85C8002F00C02042A5A
:1002A00003D0082A05D0104B00E07368C8F800306E
:1002B0002BE05A685968C2F38342CF0302F102026D
:1002C0001AD40B4B1EE000BFC53800086C06002096
:1002D00014000020E0F7FF1F00100240881C0020DF
:1002E000002002400410014000127A00001BB700F9
:1002F00000093D00A00000205B6813F4003F736814
:1003000018BF5B085A43C8F80020636822AFC3F3E4
:10031000031333441A7AD8F80030DFF8FCB2D34024
:10032000B04AC8F80030B04BB048DA60A369DFF8D3
:10033000049343F00103A361636A43F08073636233
:10034000A36943F01C03A36100238DF85E304FF6D0
:10035000FF7327F82C3D394606F02EF958463946EA
:1003600006F02AF9A248394606F026F9A14B5A6848
:1003700042F000725A6099E80F0087E80F00A36905
:10038000179843F00803A361A36918A943F0080371
:10039000A3610823CBF810301023CBF81030029360
:1003A00006F00AF919981AA906F006F9A26909F1E6
:1003B000100942F0040299E8030087E80300A261F3
:1003C000D6F804908C4A029B9145934605D19DF83E
:1003D0006220142A08BF8DF8623018A9179806F019
:1003E000EBF8D9450CBF854A854A864B00201A6038
:1003F00003F028F9844B4FF0070993E80300A36941
:1004000087E8030043F00803A36118A9179806F0D2
:10041000D3F8384608F0B8FF179B7C4AF021B3FBAD
:10042000F2F3D8F80020AB604FF47A73B2FBF3F22A
:10043000774B013A5A606C4A4FF0000882F823105B
:100440000120C3F80880C3F8009009F05FF8642029
:1004500003F05DF8DAF808306E4F03F400604FF0F7
:10046000100B059041465A4607F10C0002930EF01E
:10047000F0FD04222A7385F80F90029B02210122CD
:1004800018048DF84A10ADF848B08DF84B80AA7367
:1004900009D512233A747A74BA7487F81390ADF8B8
:1004A00048300F4600E017467368534A93420ED116
:1004B000BDF84830012243F02003ADF84830052351
:1004C0002B75AA757B1C07226F75EA75DFB247484A
:1004D00012A902F02BFE059B7BB102234E4812A904
:1004E000ADF8483002F022FE092301222B76AA76CD
:1004F0007B1C07226F76EA76DFB26369474843F0D8
:1005000001036361A3694FF0000843F40073A36122
:1005100008F0C2FE424B012F1793424BDFF8FC90CC
:1005200018930CBF434680231C934FF480731D9394
:100530004FF480631E93202317A91F9348464FF45E
:1005400000531A972093CDF86480CDF86C80CDF8D5
:10055000848008F083FED9F80030012F43F00103B6
:10056000C9F80030304B98BF00215A6888BF01217C
:1005700022F4702222F4807242EA01225A609968C1
:100580002A4A013F0A4042F4602242F002029A6085
:10059000DA6AFFB222F4700242EA0757DF6241468C
:1005A0000123234A50188778002F00F08A808A5C44
:1005B0005F1C092A90F803C0FFB21B483CD9A2F186
:1005C0000A0E0EEB4E0E4FF0070909FA0EF90CFA5F
:1005D0000EFED0F80C8028EA090848EA0E0EC0F892
:1005E0000CE039E00005FA0500ED00E000080140EC
:1005F0000010014000000140001BB700B12D0008B1
:10060000C52D0008A0210020C017010840420F009E
:1006100010E000E06C060020000C014008000240E1
:100620004C2401408806002000240140FDF7F1FF22
:1006300078060020A817010802EB420E4FF00709C8
:1006400009FA0EF90CFA0EFED0F8108028EA090813
:1006500048EA0E0EC0F810E0062BA1480FD8013B67
:1006600003EB83034FF01F0E0EFA03FE9A40D0F8FF
:1006700034C02CEA0E0E4EEA0203436322E00C2B38
:100680000FD8073B03EB83034FF01F0E0EFA03FE58
:100690009A40D0F830C02CEA0E0E4EEA02030363F3
:1006A00010E00D3B03EB83034FF01F0E0EFA03FE29
:1006B0009A40D0F82CC02CEA0E0E4EEA0203C36218
:1006C00000E01F460431102901D03B4669E7844B06
:1006D0009A6842F480729A609A6842F001029A60C5
:1006E0009A6842F008029A6099687D4A0907FBD42B
:1006F000936843F004039360794A936813F004030A
:10070000FAD19168BAF8E60041F4A0019160754A07
:1007100050B9B2F9E83033B9B2F9EA30D3F1010394
:1007200038BF002300E0034613F0010340F08D8042
:10073000337600B20BF0CEF967A3D3E900230BF0B8
:100740002FFA0BF03FFCDFF89C810746B8F9E80070
:100750000BF0C0F960A3D3E900230BF021FA0BF0F2
:1007600031FC0646B8F9EA000BF0B4F95AA3D3E914
:1007700000230BF015FA0BF025FC814638460EF0ED
:1007800097FE834638460EF007FF804630460EF04F
:100790008FFE074630460EF0FFFE064648460EF036
:1007A00087FE824648460EF0F7FE5946814650467F
:1007B0000BF066FD5946059048460BF061FD514629
:1007C000079040460BF05CFD4946089040460BF010
:1007D00057FD3946099050460BF052FD4946686274
:1007E00007F100400BF04CFD3146A862EE6208981C
:1007F0000BF046FD014607980BF03AFC31462863A2
:1008000009980BF03DFD014605980BF02FFC394689
:10081000686308F100400BF033FD3146A86305988A
:100820000BF02EFD014609980BF020FC3146E863E1
:1008300007980BF025FD014608980BF019FC594666
:10084000286438460BF01CFD6864274FDFF894805D
:100850003B68DFF8ACB043F00E033B60234B002253
:100860001B688BF80020B3F85A30B8F8EE6098F89F
:10087000ED900593049209F0A3F8DFF888B0824662
:10088000049A002840D01A4B142ECBF80030194B94
:10089000CBF80430184BCBF80C30184B13D004D8DD
:1008A000052E14D00A2E10D00AE0BC2E06D0B6F5C4
:1008B000807F06D0622E03D1022202E0012200E0F6
:1008C00003225A7645E00422FBE70522F9E70622D7
:1008D000F7E700BFAFF30080399D52A246DF913F9A
:1008E00000240140881C0020DC0100208C03002033
:1008F000D93C00088399000890C1793D140000207C
:10090000A603002090030020192002F000FE17AB80
:1009100068200F21012208F037FF9DF85C30D32BAF
:1009200040F0EC82AD4B4E2ECBF80030AC4BCBF808
:100930000430AC4BCBF80C3000F0DA825D2E00F0C6
:10094000D982362EA84B0ABF402283F848A083F8EC
:100950004820A64801230370A54E00233370A54DFF
:10096000B9F1080F00F2BD80DFE809F00A0A2E7F16
:10097000A5BBBBBB05003B6823F002033B60B0E0B6
:100980008DF85C309C4B4FF0000A5A689B4B9A42A2
:1009900016D053205146012217AB08F0F5FE78B16E
:1009A0009DF85C30E52B0BD18F4B954A83F849A01D
:1009B000944B1A60944A5A6001232B7004233370BD
:1009C000B9F1010F00F08D8008F0FAFF00284CD03B
:1009D000062117AB68200A4608F0D6FE9DF85F3066
:1009E0009DF861B003F001035B000BF0010B43EADB
:1009F0008B0B9DF85D30DFF8F0A103F001035BEA9B
:100A0000030B08D0BBF1010F01D1002317E0BBF1AC
:100A1000020F0BD112E012AB68200C21012208F06A
:100A2000B3FE9DF8483013F00F0302D1052001F00A
:100A300084BA042B02D18AF84AB002E001238AF872
:100A40004A30704B714A1A60714A5A609AF84A20CB
:100A5000002A14BF6E226F221A7202232B70B9F182
:100A6000020F4FF0010333703BD000238DF85C3050
:100A7000614B5A68614B9A421DD01C200D21012206
:100A800017AB08F081FEB0B19DF85C302A2B01D085
:100A90001A2B10D15B4A5F49B9F1030F11605E490F
:100AA0005160514A82F84B304FF003032B704FF0E6
:100AB0000203337015D0002122AB03F82C1D18203F
:100AC000012208F061FE60B19DF85C30FB2B08D17B
:100AD0004C4B524A1A60524A5A6004232B7001232D
:100AE00033702B7843B9B9F1000F01D0994633E741
:100AF0003B6823F002033B603F4B5D683F4B9D42E8
:100B000013D0A369474843F01003A36102234FF4B5
:100B100000548DF85F3017A910238DF85E30ADF8C2
:100B20005C4005F049FD3F4B5C610A2002F0EFFCA0
:100B30007720A021012212AB08F026FE2A4E0028C1
:100B400000F095801E210122772008F0DDFD4FF492
:100B50002F6002F0D1FC0024A4F160014FF00009E5
:100B6000022217AB7720C9B28DF85C908DF85D90AA
:100B700008F00AFE9DF85D309DF85C2043EA0222F1
:100B8000194B03F14C0E24F80E200234102CE3D143
:100B9000B3F85A004A4600F00F0100F47F40A3F872
:100BA0005A0001233EF802400232002C18BF0023F5
:100BB000102AF7D1002B40F00F821A46541012F081
:100BC000010F06EB440404D094F84C406340082421
:100BD0002AE0B4F84C4083EA1423F8E7D53E000835
:100BE000B39A0008325C8F3D6C060020A6030020FB
:100BF0000E0400209F21002014000020001BB700DD
:100C00002D3E0008FC030020359B00084D5D0008C8
:100C100045990008793D00085B9A0008093E0008E4
:100C2000F19A00080010014013F4004F18BF83F43C
:100C3000C053013C4FEA4303F6D10132102ABDD123
:100C4000C3F3033308439942A6F85A0040F0C48125
:100C5000C14B42F210721A805A80C04A5A60C04A90
:100C60009A60C04ADA60C04A1A61C04AEAE0814626
:100C7000BF4B9D4204D13B6823F004033B60E2E09C
:100C800096F85C30BB4C002B40F0DD8003F18043D4
:100C900003F504339A69B84D42F010029A610223B9
:100CA0004FF400568DF847302846102311A98DF8CF
:100CB00046304FF4804AADF8446005F07DFC11A940
:100CC000042328468DF84630ADF844A005F074FCA6
:100CD000AA4B2E615A6912A822F470625A615A69AD
:100CE00042F400725A6108238DF84C904FF00109CC
:100CF0008DF84D30CDF848A08DF84E9009F0E4F90C
:100D000028238DF8403010A80F238DF841308DF83E
:100D100042308DF8439002F0E3F9142002F0F7FB23
:100D20004A460DF12F037720D02108F02DFD9DF8C4
:100D30002F300322552B84F87730A4F8802018BF79
:100D40006E6198D1D1214A460DF12F03772008F02A
:100D50001BFD9DF82F30772003F00F021B0984F84C
:100D6000782084F87930162217ABAA2108F00CFD00
:100D70009DF85C209DF85D3043EA0223A4F86030C2
:100D80009DF85E209DF85F3043EA0223A4F86230AC
:100D90009DF860209DF8613043EA0223A4F8643096
:100DA0009DF862209DF8633043EA0223A4F8663080
:100DB0009DF864209DF8653043EA0223A4F868306A
:100DC0009DF866209DF8673043EA0223A4F86A3054
:100DD0009DF868209DF8693043EA0223A4F86C303E
:100DE0009DF86A209DF86B3043EA0223A4F86E3028
:100DF0009DF86C209DF86D3043EA0223A4F8703012
:100E00009DF86E209DF86F3043EA0223A4F87230FB
:100E10009DF870209DF8713043EA0223A4F87430E5
:100E20004D4B41F2707284F85C901A8046F678124D
:100E30005A80534A5A60534A9A60534ADA60534A76
:100E40001A61534A5A6198F8E2300BB1514A137053
:100E500098F8E3300BB1504A137098F8E4300BB1B6
:100E60004E4A13703B68990702D54D4B1B68984753
:100E70004C4C22AE23689847002306F82C3D1E20D8
:100E80000A210122334608F07FFC38B19DF85C301E
:100E9000482B03D1414B03221A7003E03B6823F037
:100EA00008033B603B68334C13F0080F1CD00598D7
:100EB0004FF0640A0FFA80FB9BFBFAF528460BF013
:100EC0008BF981460AFB15B000B20BF085F9364963
:100ED0000BF0D6F9014648460BF0CAF833490BF03F
:100EE000CFF9C4F884007AE00023C4F8843076E0B7
:100EF000802300E0C02385F848302AE5192002F05D
:100F000006FB68201521524608F0FEFB002801F080
:100F10001380274B622ECBF80030264BCBF80430E1
:100F2000254BCBF80830254BCBF80C30244B0FD099
:100F300004D80A2E4AD0142E46D043E0BC2E05D049
:100F4000B6F5807F3ED183F81AA041E0012200E08F
:100F500002229A763CE000BF40020020973C000845
:100F60009D9800088D3C0008AD980008195B0008AA
:100F7000001BB7006C06002000100140000001407B
:100F8000C53C00080D990008A13C0008BD98000868
:100F9000715C0008A60300200E04002097210020A9
:100FA000FC030020900300208988883C0000204139
:100FB000853E00081D9A0008EB99000890C1793D14
:100FC000140000200322C4E70422C2E70522C0E780
:100FD000914A01231370BFE44FF0000948E68F4B9C
:100FE00010225A6108221A614FF00A0A8B4D19200B
:100FF000EB680AF1FF3A83F01003EB60EB6883F0D3
:101000000803EB6002F083FA012002F01BFB1920B9
:1010100002F07DFA002002F015FB1AF0FF0AE5D17C
:1010200008232B6110232B617D4B7E4D1B6893F9A8
:101030000C000AF04FFD74A3D3E900230AF0B0FDC1
:101040000AF0C0FF0EF034FA824628880BF0C4F88C
:1010500051460BF015F90EF061FA734B1880288891
:101060000BF0BAF8014671480BF0BEF970490BF06D
:10107000BBF9704B704A1860D0680AF03DFD62A35E
:10108000D3E900230AF08CFD61A3D3E900230AF021
:1010900087FD0AF097FF694B98F805101860684BB8
:1010A000684A1970684B02EBC10191F82110C4F82D
:1010B0008830664B1960D8F808108A0602D5634854
:1010C000012303603B681B0740F10D815348102347
:1010D00043615F4B5F4A5B68934210D15E4B12A93C
:1010E0009A6942F008029A614FF48053ADF8483093
:1010F00002238DF84B3004238DF84A300DE0574A17
:1011000093420CD1544B22A99A69554842F01002DF
:101110009A614FF4804321F8403D05F04DFA3220AA
:1011200002F0F5F9002111221E2008F0EDFA01214C
:1011300060221E2008F0E8FA642002F0E8F9304648
:1011400008F05EFB00254FF00A0AA946AB460221D3
:1011500001221E2008F0D8FA322002F0D8F93046D9
:1011600008F04EFBBDF95C10BDF95E00BDF96020D2
:101170008B448842B8BF014615449142B8BF0A4625
:1011800012F5805F81440ADD244ABAF1010AD16870
:1011900081F01001D160DAD14FF0010A01E04FF087
:1011A000000A1E200021122208F0AEFA4FF00A0CAD
:1011B000022101221E20CDF80CC008F0A5FA322031
:1011C00002F0A5F9304608F01BFBBDF95C10BDF933
:1011D0005E00BDF96020C1EB0B0B8842B8BF014631
:1011E000AD1A9142B8BF0A4612F5805FC0EB0909FB
:1011F000DDF80CC036DD094ABCF1010CD16881F084
:101200001001D160D4D12FE0399D52A246DF913F29
:10121000000000A0F7C6B03EA6030020000C01406D
:1012200048040020000000206C0400200AE81C4153
:1012300000401C466003002090030020440400206E
:1012400038050020A8170108981C0020340500204C
:101250001400002000127A0000100240001BB700AA
:10126000001001404FF0000A58460AF0B5FF014651
:101270007D480BF0B9F87D4E20F00040F061484603
:101280000AF0AAFF014678480BF0AEF820F00040C3
:10129000306228460AF0A0FF014675480BF0A4F81A
:1012A00020F000407062002170221E2008F02CFA0D
:1012B000012120221E2008F027FA1E2002210022F0
:1012C00008F022FA642002F022F9BAF1000F04D1EA
:1012D0004FF07E53F36133627362664B10221A61E2
:1012E000654B01221A70654D00214FF4A07205F183
:1012F0008C000DF0AEFE624B624EDA6942F00702DE
:10130000DA619A6942F4006242F00C029A61C4F810
:10131000CC6109F09DF8152205F5E870FF210DF06C
:1013200098FE3A68002312F0020F84F8D0314FF093
:10133000010305D085F8D131022385F8D23103238A
:10134000570704D5E118032081F8D001013312F0CA
:101350000A0F0CD0E218042182F8D0110520991C44
:1013600082F8D10162180621033382F8D011D8F82F
:1013700008108E0604D5E218072082F8D001013348
:101380000D0609D5E0185A1C092580F8D0512244D1
:101390000A20023382F8D00198F80520082A01D0EB
:1013A0000E2A04D1E2180B2082F8D0010133E01894
:1013B0000C2580F8D051480703F1010205D52F48CC
:1013C0000244102082F8D0019A1CA018122580F83F
:1013D000D05198F84101531C00280CBF002101F0A6
:1013E000010129B125490B44132183F8D011931C25
:1013F000E218142182F8D0110133234800219822E9
:1014000084F8E5310DF025FE0025D8F82C214FF0A9
:1014100000090026009601203146032302F076FDE4
:10142000074638B9B9F1000F30D14FF496424FF06A
:101430000109EEE7012DE8D84C2202FB05F3DFF8A5
:10144000489005F1010A09EB03052846314602934D
:101450000DF0FFFD029B5FFA8AFA49F80370012341
:1014600085F84A305546D0E700406F46140000200A
:1014700001C05E46000C0140340200206C060020D2
:1014800000100240B01D002054080020022001F08E
:10149000B2FFD4F8CC510146C4F8800240B90091A3
:1014A00003230220AA6802F031FDBB4BC3F880027F
:1014B00012A8002112220DF0CCFD98F805300E2B59
:1014C00001D0082B02D101238DF85030D8F80850F4
:1014D00015F4005516D1B14A0023A85CD65CD1188A
:1014E000864203D01033602BF8D1002106F046F974
:1014F00083681B78012B03D01035602DEBD10023BE
:101500008DF84B30A64DA748AB680168C3F3801235
:10151000003118BF01218DF84C20C3F340328DF803
:1015200048208DF84E10C3F3C0329F498DF84A20F1
:10153000C3F300428DF84D20096803F001028DF8D5
:10154000492091F82611DF04C1F38001B5F8E000CD
:1015500048BFB5F8DA308DF84F10B5F8DE10ADF8A9
:1015600054004FF47A70ADF8560048BFADF85630CD
:10157000B1F5FA7F84BF0023ADF85630B5F81831C5
:10158000ADF85210ADF8583095F82031874984F8FD
:101590008432002384F885324B709DF85030002B44
:1015A00014BF0223002302B10133814A4FF0000827
:1015B00002EB8303D3F83831C3460593059B4FF6FE
:1015C000FF7233F808709742FBB20CD194F8853261
:1015D00084F88732774B93F80080B8F1160F40F00B
:1015E0005181002640E19DF84B201AB19A1E012A34
:1015F00040F225819DF84C201AB11A1F032A40F2AF
:101600001E81DFF8D0A19DF84D204FEA03190AEBA7
:1016100009062AB15AF8092067498A4200F00F8169
:101620009DF84A2012B1012B00F009813F0A022FD8
:1016300005D19DF84820002A08BF002703E0012FAC
:1016400008BF9DF849709DF84E203AB19DF8502092
:1016500022B9A3F10802012A98BF04279DF84F2060
:1016600032B19DF850201AB9043B032B40F2CF80D1
:10167000012F3BD1484A0023FF2182F88832C2F86B
:101680008C32C2F89032C2F89432C2F8C83282F872
:10169000CC1282F8CD1282F8CE32F17B82F8CF32B2
:1016A00082F8D032C2F8DC62B2687068ADF85C20B3
:1016B0008DF85E10022217A98DF85F20029304F0C6
:1016C0007BFF029B5AF809001A46317B01F0C4FCEB
:1016D00030463A464FF6FF7102F0FEFE029B30465E
:1016E0001946364A364B08F0ADFCA8E0022F38D137
:1016F0005FFA8BF3DFF8E0E018010EEB0001002247
:101700004FF0010C4B708A708A720EF800C0CE60E8
:10171000B16896F80FE07068ADF85C1017A98DF805
:101720005EE00293CDF80CC004928DF85F7004F077
:1017300043FF5AF80900317B049A01F08DFCDDF873
:101740000CC0304662464FF6FF7102F0C5FE029BA8
:10175000304619461B4A1C4B08F074FC0BF1010B78
:101760006DE0032F51D1BDF852300B4FB3F5FA7F26
:1017700097F8869232D9154A3046B2FBF3F2082127
:10178000BDF8563092B202F0C1FE07EB8907C7F8E8
:1017900050030F4B31E000BF6C0600208018010899
:1017A000881C0020340500208C030020F108002054
:1017B000A81701083805002000040040CF59000890
:1017C000D55A000895300008A95A000800127A007E
:1017D000F55A0008502D01083C090020884A30467F
:1017E000B2FBF3F20121BDF8563092B202F08EFE48
:1017F00007EB8907834BC7F850038360824B93F84C
:101800008622013283F8862219E0042F17D1BDF811
:1018100054307B4A7C4F92FBF3F23046BDF858308F
:10182000012192B297F8859202F070FE07EB8903CE
:10183000C3F8800397F88532013387F8853208F1C1
:101840000208B8F11C0F7FF4B9AEBFE66F4F99E8FC
:101850000F00374487E80F006D4B10361A78C02E02
:1018600002F101021A7009D0D4F888300021985989
:1018700003EB06090AF098FE0028E7D0AB68DE0407
:101880001ED418E06348624A00EBC80393F820E0D6
:10189000D3F824C082F800E0BCF1000FEED000269F
:1018A0007645EBDA594F33011F4463440FCB0136C1
:1018B00087E80F00F4E7B8F1080F574F26D128E06A
:1018C000534B93F80090B9F1010FF4D9534E002710
:1018D0004F4506F11006EEDA56F8100C4FF07C5129
:1018E0000AF0CEFC4FF07C5146F8100C56F8140C60
:1018F0000AF0C6FC4FF07C5146F8140C56F80C0C5C
:101900000AF0BEFC013746F80C0CE1E7B8F10E0F07
:1019100003D13B7843F0100302E03B7823F010033F
:101920003B7003F019FB3E493E4B3F483F4AC4F829
:101930006014C4F8643401600023B5F81811A4F8E9
:101940006A3484F86C34C4F87024C4F87424384CB5
:1019500019530233242BFAD1364BA4F58F641A6045
:10196000AB6813F0080F00F09080334B93F81631FA
:10197000032B00F28480DFE803F00202296D012BC3
:101980004FF0030208D184F89C24072284F89E3487
:1019900084F89D240C2308E0022384F89C3400235F
:1019A00084F89E3484F89D24072384F89F34002310
:1019B00000930820012321494FF4E13202F0A6FAF6
:1019C0001F4BC4F8A404C4F8A83454E001230093C6
:1019D0001C49052308201C4A02F098FAB5F8181192
:1019E000C4F8AC04A1F5777149000023174A995057
:1019F0000433302BFAD1164BC4F8A8340C2338E04A
:101A000040420F00E55A00086C0600200C0A002036
:101A10006C210020A817010822020020140A0020CF
:101A2000961D0020F018010814010020D00A0020A3
:101A3000E40A0020D0010020881C00202335000883
:101A400035580008E9350008A0860100340100205F
:101A5000E158000800230093082001233B494FF47C
:101A6000E13202F053FA3A4BC4F8B004C4F8A83497
:101A7000102384F89F34003018BF012028B90820B3
:101A800004F02CFC0023C4F8A834AB68580405D536
:101A9000082284F89F242F4AC4F8A82442F20102A5
:101AA0001A4003F0010103F400505AB12A4AC4F865
:101AB000A82418B1294A082082F89F0411B10C22E9
:101AC00084F89F2494F89F241906A2F1040284F854
:101AD000A02459D5214B2248D5F83411C3F8B404B9
:101AE0000023204A02EB0310D0F874011646884206
:101AF00004D00133DBB2042BF3D9002384F8B934CA
:101B0000194B0020C4F8D43402F0D0FE174B94F8DF
:101B1000B9241B680021C4F8C03495F8253106EBC0
:101B200002128B42C4F8BC144FF010000091D2F89E
:101B300074210CBF0123032302F0E8F9C4F8D80490
:101B4000B0B9802004F0CAFB15E000BF753500086D
:101B5000D1580008992D0008A52D00086C0600201A
:101B6000B01D0020A8170108AD1D0020841C002016
:101B7000012002F09BFEA04B1868A04B00F5947268
:101B800004301A6004F050FCAB689A050DD59B0434
:101B90004CBF9B489B4803F069FD9B4B1A6842F081
:101BA00010021A60994B00221A60AB68DE0340F104
:101BB000F780DFF89C929648D9F8183010A943F0C6
:101BC0000403C9F818304023ADF8403018238DF8CD
:101BD000433003238DF8423001F0A8FAD9F81C30C5
:101BE0008C4E43F00203C9F81C308B4B4FF0010AB6
:101BF0001A688A4B4FF00008B2FBF3F23388013ABF
:101C000023F45C731B041B0C338092B21D23B38539
:101C10003285A6F814A0338CA9F6947923F0010339
:101C20001B041B0C3384338CB188328B23F00203EA
:101C300022F0730212041B04120C1B0C89B242F036
:101C4000600243EA0A03B1803283A6F83480338409
:101C5000338B4FF0100B23F008031B041B0C43F0D5
:101C600008033383B6F844306FEA43436FEA5343C3
:101C70009BB2A6F84430D9F8A83F43EA0A03C9F852
:101C8000A83F484607F008FB654B48461793654B4D
:101C900017A9189340F2CA231A9380231C934FF478
:101CA00080731D934FF400532093CDF864B0CDF8AA
:101CB0006C80CDF87880CDF87C80CDF8848007F0FA
:101CC000CDFAB38911A89BB243F40073B381D9F85C
:101CD000003043F00203C9F8003002238DF844B00D
:101CE0008DF845A08DF846308DF847A001F0F8F941
:101CF0004D4B4E4A188808EB020128F802009878EC
:101D000008F10308B8F1540F887091461E46EFD1D0
:101D100008F0C0F80023318809EB030229F803100A
:101D2000B1780333542B9170F5D108F0B3F8002249
:101D3000114613463E48085C04310609964200F0FD
:101D40000F00A8BF721C9842A8BF431C7029F1D194
:101D500084F8A627374A384913705A08013AD2B294
:101D600022F0010008703549D0070A7005D501320C
:101D7000013B9A42B8BF13460B7094F8A617304A3D
:101D80004B08013BDBB223F0010013F0010F107090
:101D90002C4A04D0013301398B42A8BF0B46137083
:101DA000AB685A0540F18A80042002F0DAFF014650
:101DB000042005F0E3FC18B14368187A00F0010034
:101DC000AB6884F8A70713F480690BD0042002F0F5
:101DD000C8FF0146042005F0D1FC10F1000918BF2E
:101DE0004FF00109184B83F80090184B1E683378A8
:101DF00083BBC4F8A86757E08C03002028050020A7
:101E00006819010874190108DC0100209C000020F9
:101E10000008014000040040A000002000366E01D0
:101E200034040040480B0020A217010804060020DB
:101E3000CC1601086506002060060020620600201E
:101E400063060020610600204005002044050020B4
:101E500000100240012B27D1DFF808810021404605
:101E60002C22C4F8AC670DF0F4F88E2388F801300A
:101E70004FF07C0BE0234FF07D0A88F8033088F8A0
:101E800000B088F82BA0DFF8E080002140462C222B
:101E90000DF0DFF88A2388F80130A02388F800B01D
:101EA00088F8033088F82BA03378022B08BFC4F8D9
:101EB000B067B9F1000F01D002F094F801F0D2FA46
:101EC000204B18606B79052B03D11F4B4FF4C87260
:101ED0001A801E4B4FF47A721A801D4BC8221A804A
:101EE0003B7843F008033B701A4B1A7822F0020249
:101EF0001A70AB689B0722D5174BC4F8B43701F0B2
:101F00001DFA282001F003FB069A013A0692F6D149
:101F1000124B95F8051118780A460123904203D315
:101F20000133082B0A44F9D10D4A137095F80621A4
:101F30005343A4F8B83702E0032001F0CFFB23B0ED
:101F4000BDE8F08FA404002010040020942100209C
:101F50008C2100209E2100208C1D00205405002093
:101F6000960000206C05002099050020AFF300804A
:101F70002DE9F04F974B91B01B68BBB9964C237875
:101F8000013B042B00F2F886DFE813F01506150676
:101F90001506E606CC06206801F0D1FB8F4B0446FF
:101FA0001B681B784BB1012B00F0ED80894C206839
:101FB00001F0CAFB0028EED1E0E72428884D0CD0C0
:101FC00006D80A2800F08E800D2800F08B80C6E02D
:101FD0002A2806D02C2804D0C1E02B706B70AB707F
:101FE000CEE06A782E782A4400217D4BD170EEB97C
:101FF000DA789E74472A19D11A79502A16D15A795B
:10200000472A07D19A79472A04D1DA79412A01D19E
:1020100001229A746A79724B522A07D19A794D2A11
:1020200004D1DA79432A04BF02229A74AB7C6C4F44
:10203000012B02D0022B36D049E0B31E072B46D825
:10204000DFE803F0040810141C27452C08F0D4F82E
:1020500068613CE0EA78624B532A38D15A695242AF
:102060005A6134E008F0C8F8A86130E0EA785C4BC7
:10207000572A2CD19A6952429A6128E0EB78302B8A
:10208000584B1A788CBF42F0020222F002021A70FA
:102090001DE0002008F00AF9287718E0002008F079
:1020A00005F9E88313E0072E06D0082E0FD1012092
:1020B00008F0FCF878840AE0012008F0F7F841F213
:1020C000184358434FF47A72B0FBF2F33B84013665
:1020D00000232A2C424A2E706B704CD1012182F8C9
:1020E00024104DE095F82430002B34D03C4BDB78A5
:1020F000402B04D9A3F137021201D2B202E01B0136
:1021000003F0F0022B79A978402B8CBF373B303B92
:10211000DBB21344DBB29942314A1BD1937C012BD1
:1021200008D0022B16D1118C2F4B528C19802F4BBB
:102130001A800FE02B4909788E070CD52C4950697D
:10214000086090694860107F2A490870D18B2A4A3C
:10215000118000E00023002285F8242010E06B7835
:102160001F4A0E2B03D8591C13445170DC7095F88C
:1021700024301B4A1BB991784C40947000E0002336
:1021800003F001035BE1164B002193F82520082A98
:1021900000F25481DFE802F00B0514324353718DD5
:1021A0009A00622801D1022207E083F82510B52C9D
:1021B00040F0448193F82520013283F825203DE149
:1021C000032283F8252083F8260083F8270083F86C
:1021D000280033E1440B0020240B0020400B00209A
:1021E000280E002022020020C6050020D81A002058
:1021F0006005002098050020CA050020042283F80D
:10220000252093F8272093F828100244D2B283F8AF
:1022100027200A4483F8282083F829000EE10522AC
:1022200083F8252093F8272093F828100244D2B28F
:1022300083F827200A4483F828205885FEE00621E9
:1022400083F8251093F8271093F828002144C9B289
:1022500083F82710014483F82810598D6A4A01EB4E
:102260000424A4B2B4F5007F89BF002154855185B0
:1022700082F8251000229A85E0E093F8272093F851
:1022800028100244D2B283F827200A4483F8282079
:102290009A8DC72A03D85C49114481F83000013275
:1022A00092B29A855B8D934240F0C8800722564BCC
:1022B00083E7082283F8252093F82730834200F033
:1022C000BD80514A002382F82530B8E083F82510FC
:1022D00093F828104C4A814240F0B08092F82910BF
:1022E000062946D004D8022912D003292CD0A5E013
:1022F000122957D0302940F0A18092F83410434A77
:10230000102988BF1021117010784149002257E030
:102310004049506B4860906B0860116C4FF47A70C4
:1023200091FBF0F13C48018092F8F8103B4A19B15A
:10233000117841F0020102E0117821F002011170E0
:10234000012283F8F92050E092F8351011F00101D4
:1023500005D092F83420D41E6242624100E00A4661
:1023600083F8F820002A40D12C4A117821F002018C
:1023700016E092F83B1011F0010105D092F83A20D6
:10238000D01E4242424100E00A4683F8F82022B9BA
:10239000224A117821F00201117093F85F10204A4F
:1023A000117022E0516C1F480180916C42F2107054
:1023B00091FBF0F11C480180012182F8FA1014E031
:1023C000824201F10C0110DA11F8045C174C15552A
:1023D00011F8035C164C155511F8015C154C155598
:1023E0000D78154C15550132EAE793F8F930064A95
:1023F00023B392F8FA300BB3002382F8F93082F855
:10240000FA3001231BE000BF280E0020DA1A00205A
:10241000580E002060050020CA050020220200207E
:1024200098050020C6050020D81A0020DB1A0020DD
:10243000EB1A0020FB1A00200B1B00200023002BAE
:102440003FF4B4ADA54BA64E9A68DA6032689A6044
:10245000A44B1A6842F020021A60A34B1A78012A92
:102460000CBF002201221A70A04B1A7891077FF549
:102470009DAD9F49097804297FF698AD9D4909785B
:1024800001F0040101F0FF0011B922F001021A70FD
:102490001B78964F13F0010F974C984D11D180B1D6
:1024A0009B070ED5964B28686A6818605A6003F03F
:1024B0009DFF944B1B88A4F8FC303B7843F001034C
:1024C0003B7094F8FE304FF00509013393FBF9F9A6
:1024D00009EB8909C9EB03098B4B8C481B7884F8FD
:1024E000FE900593831D03EB890907900023DFF815
:1024F0000CE2874A53F80E00864F985090FBF7FC89
:1025000002F1080743F807C0834F03EB0E0107FBF6
:102510000C0742F2107097FBF0F00691079980B219
:1025200021F8020F02F1100A03EB830B04900791CC
:1025300053F80A0059F80B1049F80B70C1EB00086A
:1025400008EB0700734F4FF0050843F80A0090FBB3
:10255000F8F007FB0C0005991832012998507746CE
:1025600008D1DDF810E0AEF10202B2F5797F9CBF30
:10257000069908600433082BB9D1DFF87C813068F4
:10258000D8F84C31C01A09F023FE644909F02CFF39
:1025900033684FF07E51C8F84C3181460AF00EF88E
:1025A00010B94FF07E5000E048460CAAC4F8500124
:1025B000534B00920DAA019297E803000CCB03F055
:1025C000D3FE0C9B56496422B3FBF2F30D980B80AB
:1025D000544B90FBF2F21A80444A474E127812F0A4
:1025E000010208BF1A8098F8543108BF0A80002BF6
:1025F0003AD0D6F850114FF07E5009F0F5FED6F8DB
:10260000583181462868C01A09F0E6FD494609F0AC
:1026100037FE09F0FBFFD6F85C211FFA80FA6868E4
:102620000FFA8AFA801A09F0D7FD3F4B196809F0B2
:1026300027FE494609F024FE09F0E8FFB6F96231A9
:1026400000B2C218B6F960310221534492FBF1F294
:1026500093FBF1F392B29BB2A6F86621A6F864311F
:10266000A6F86221A6F86031012388F854312F4B77
:1026700079681B88386803F030031F4D1F4EC8F877
:102680005C11C8F85801002B3FF490AC05F5B87305
:10269000009305F5BA730193D5F86821D5F86C312C
:1026A00003F062FE7368D5F86C01C01A09F094FD5E
:1026B0001D4B196809F0E4FD09F0A8FFD5F8683151
:1026C0003268C5F87C019B1AC5F878310E4B1B782F
:1026D000012B2DD0022B00F0F98067E4240B0020A1
:1026E000841C0020DC010020A42100202202002004
:1026F000980500209E210020280E00206005002063
:10270000101500208404002020150020260F002032
:10271000540F002080969800806967FF00007A447B
:10272000C8050020CC0500206C000020F601002028
:10273000D5F88071D5F89C410497D5F8907104F1D3
:1027400000400597D5F89471D5F85061079709F0C6
:102750005DFF8046204609F059FF8F4BD5F8985110
:102760001B688E4C0695089009930025DFF84CA253
:102770005AF81570AAF11403384635F8039009F099
:102780002BFD049909F07CFD09F040FFC9EB000026
:1027900080B20AF1280A25F80A000FFA80FA50469A
:1027A00009F01AFD059909F06BFD09F02FFF1FFADA
:1027B00080FB0AEB070009F00FFD079909F060FDA7
:1027C000314609F05DFD216809F052FC09F01EFF59
:1027D000404505DBDDF820E07045A8BF704600E00D
:1027E000404609F0F9FC206009F010FF58441FFA38
:1027F00080FB606809F13109381A09F0EDFC3146B7
:1028000009F0F2FD0999206184468878D4F808A07F
:10281000CDF80CC009F0DCFC09F06EF95CA3D3E93B
:10282000002309F0BDF902460B4600205C4909F07F
:10283000E1FA09F0C7FB314609F01AFC01463046BF
:1028400009F0D2FDDDF80CC0034651466046039303
:1028500009F00CFC039B0146184609F011FD0146E6
:10286000504609F005FC1FFA89F9B9F1620F0146DB
:1028700020616760A0600ED9069809F001FD09F09B
:10288000C5FE484BB0F5FA6FA8BF4FF4FA60984206
:10289000B8BF184600E00020834440F6B8330FFA72
:1028A0008BFB9B45A8BF9B463F4B0A229B45B8BF6D
:1028B0009B466A433D4B54F8141B25F803B03C4B30
:1028C0000235042DD1503FF471AB4FE7324BD5F8B0
:1028D00070B11F68B5F8A461B7F808904FEA5B03C0
:1028E000994528BF994633B2994502DC1FFA89F908
:1028F0000BE03049D5F8500109F0C2FC09F086FE22
:1029000030441FFA80F9A5F8A491D8F87451D8F88A
:10291000A861AE1B304603F0D7FD0028D8BF404267
:1029200041F293139842CCBF00200120002847D0E9
:10293000304609F051FC204909F0A2FC0CF02CFEB5
:102940000646584609F044FC0146304609F098FC1A
:1029500009F05CFE80B240F6B83203B29342A8BFE1
:102960001346114AA8F8AC019342ACBFEB18AB1860
:1029700048F6A042934203DDA3F50C43A03B04E0DC
:10298000002BBCBF03F50C43A033C8F8B03119E0ED
:10299000182D4454FB21194028050020701B0020ED
:1029A0000000F03F30F8FFFF48F4FFFF3005002043
:1029B000981B00200000C842D3023739A00F002026
:1029C000C8F8B051D4F8B021C2F50C5028300492A8
:1029D00009F002FCAE4909F053FC05460CF068FD15
:1029E0000F9028460CF0D8FDD4F8C051D4F8B4317B
:1029F000D4F8B8E10E9005F100400793CDF828E037
:102A000009F004FE0590284609F000FED4F8508134
:102A1000D4F8BC410B9009949E4C0025484609F01F
:102A2000DBFB0EAB53F8151009F02AFCDFF8A0A26F
:102A300006463AF9050009F0CFFB0146304609F099
:102A400015FB09F0E3FD944B06B2B6F57A7FA8BFFB
:102A50004FF47A769E42B8BF1E46B0B20AF13C0AE5
:102A600025F80A0000B209F0B7FB0799824609F081
:102A700007FC09F0CBFD80B208900A99504609F096
:102A8000FFFB414609F0FCFB216809F0F1FA09F06F
:102A9000BDFD0599884204DB0B9A9042A8BF104601
:102AA00000E0059809F098FB8246206060681434C5
:102AB000301A09F091FB414609F096FC54F80C3CA1
:102AC00044F8040C8446B8780693CDF80CC009F09D
:102AD0007FFB09F011F86CA3D3E9002309F060F83B
:102AE00002460B4600206D4909F084F909F06AFAA4
:102AF000414609F0BDFA0146404609F075FCDDF893
:102B00000CC0034606996046039309F0AFFA039B95
:102B10000146184609F0B4FB0146069809F0A8FAE8
:102B200044F8106C014644F8040C44F80C0C099865
:102B300009F0A6FB09F06AFD089E0644504609F01C
:102B400065FD304440F6B83300B29842A8BF18463D
:102B5000534B0A229842B8BF18466A43514BE85279
:102B6000514B0235042D42F803A07FF457AF3B7957
:102B70002BB1049864224D4B90FBF2F21A803B88F3
:102B80004B4C9B450ED9D4F8A831D4F87401C01A27
:102B900003F09AFC42F210730028B8BF40429842FA
:102BA0007FF704AA434B01221A70B4F8FC203F4B74
:102BB0001A80FFF7FBB9404A116890460F7817B1A9
:102BC000012F0DD0ABE0012B00F2A98062783B4BC6
:102BD00003EB02133A4A5968106800F0ABFD9BE022
:102BE000374E306800F0A1FDB146002800F0978014
:102BF0002378344D022B29D0032B31D0012B40F008
:102C00008E80314B1F686B69FB1A632B40F2878003
:102C10002B69042B18D8DFF8A480306808EB031365
:102C2000596800F087FD6B78366808EB03139D68E0
:102C300015F8011B19B1304600F098FDF8E723693B
:102C40006761013323616AE0022066E06A781B4B0A
:102C5000306803EB0213596800F06CFD03205CE060
:102C60002B7E03B92F76237E164D012B36D12B698F
:102C70007B2B2FD8154AD9F80000D15C00F076FDE7
:102C80002B6901332B6129E0182D4454FB21194095
:102C9000D3023739981B002018FCFFFF0000F03FDB
:102CA00048F4FFFF30050020701B00201E050020A7
:102CB000280E002020150020400B002018190108C4
:102CC000440B0020240B0020841C00205C1E010803
:102CD0008C0F002000232B6102232B76237E284DAE
:102CE000022B16D12B690F2B11D8D8F800202549BB
:102CF0005278D9F8000002EB02120A44134493F808
:102D00007D1000F033FD2B6901332B6101E00323BB
:102D10002B76237E022B02D9042001F0C7FD00236D
:102D2000636029E0636805220133636063780120F2
:102D30000133DBB2B3FBF2F202EB82029B1A637047
:102D4000114B00221B68A360104B1A70104B1A78AD
:102D500022F002021A700DE00B4B1A68A368D21A17
:102D600040F6C4139A4207D90A4B05201A6822F08C
:102D700020021A6001F09AFD11B0BDE8F08F00BF8B
:102D8000240B00205C1E0108841C002098050020F4
:102D900022020020DC010020014B33F811007047B3
:102DA000E40A0020014B33F811007047EC0F0020BB
:102DB000034B4FF4805208B11A6170475A61704753
:102DC00000080140034B4FF4805208B15A6170472C
:102DD0001A6170470008014038B50C680546204666
:102DE0000CF078F9214602462868BDE838400CF01E
:102DF00079B9094BDA68D10709D4DA68520708D4DF
:102E0000DB6813F0100F0CBF042003207047012073
:102E100070470220704700BF00200240038A828969
:102E200011EA030092B203D011420CBF002001202E
:102E300070470A88F0B54B888F880E89CD88002AA4
:102E40003AD1048C834A24F001042404240C048421
:102E5000018B048C89B221F0F30141EA0616B6B267
:102E60009042A4B246EA070743F0010315D002F5E9
:102E70000062904211D0B0F1804F0ED0A2F598328E
:102E800090420AD002F58062904206D002F580623C
:102E9000904218BF24F00A0401D124F00204234315
:102EA00007830384038B23F00C031B041B0C038395
:102EB000038B9BB21D4344E0042A44D1048C654A31
:102EC00024F010042404240C0484018B048C21F4C9
:102ED00040710905090D41EA063189B241EA072727
:102EE0009042A4B2BFB212D002F5006290420ED05E
:102EF000B0F1804F0BD0A2F59832904207D002F586
:102F00008062904203D002F58062904207D124F0A3
:102F1000200444EA03139BB243F0100304E024F0BE
:102F2000A00443F01003234307830384038B23F49B
:102F300040631B041B0C0383038B9BB243EA0525F0
:102F4000ADB20583F0BD082A018C3ED121F4807119
:102F50000904090C0184818B3E4A89B221F0F301F6
:102F6000048C41EA0616B6B29042A4B246EA0707BC
:102F700012D002F5006290420ED0B0F1804F0BD01B
:102F8000A2F59832904207D002F58062904203D0B9
:102F900002F58062904207D124F4007444EA0323CE
:102FA0009BB243F4807304E024F4206443F4807300
:102FB000234387830384838B23F00C031B041B0CA4
:102FC0008383838B9BB21D4341E021F4805109042C
:102FD000090C0184828B048C22F440721205120DBC
:102FE00042EA072242EA06361A4AA4B29042B6B230
:102FF00012D002F5006290420ED0B0F1804F0BD09B
:10300000A2F59832904207D002F58062904203D038
:1030100002F58062904207D124F4005242EA033262
:1030200092B242F4805205E047F6FF52224043F448
:1030300080531A4386830284838B23F440631B04EA
:103040001B0C8383838B9BB243EA0525ADB285833A
:10305000F0BD00BF002C01401FB50123ADF80830C2
:103060000023ADF80C30ADF80A30094BADF8041070
:103070001B7801A9012B08BF0323ADF8062008BF68
:10308000ADF80C30FFF7D5FE05B05DF804FB00BFCE
:10309000F008002038B5104C04EB0014A278E36867
:1030A00042B90122A270A1801868197B0222BDE8F2
:1030B0003840D1E7A288E1806078891A074A89B24E
:1030C000002522F81010A57021811868197B2A4666
:1030D000FFF7C2FFA57238BD3C090020EC0F0020AD
:1030E00010B5104B4178DB688478DB43C3F30223CF
:1030F000C3F1040201FA02F20F21D9402140114329
:10310000094B02780901C9B21A4482F80013027807
:103110000120510902F01F0200FA02F243F82120B7
:1031200010BD00BF00ED00E000E100E0CB78F0B59D
:10313000DA0648BF8A78098803F00F0548BF1543AF
:1031400011F0FF0F1DD0046800220127974007EA05
:103150000106BE4211D197004FF00F0C0CFA07FC8C
:1031600005FA07F724EA0C04282B44EA070401D1E6
:10317000466102E0482B08BF06610132082AE4D10B
:103180000460FF291FD94468002202F108060127C4
:10319000B74007EA0106BE4211D197004FF00F0C6D
:1031A0000CFA07FC05FA07F724EA0C04282B44EA7A
:1031B000070401D1466102E0482B08BF06610132D5
:1031C000082AE2D14460F0BD2DE9F8434D4B0C468E
:1031D0000168013A996181889983072A30D8DFE82C
:1031E00002F004080C12191E22261A8B22805A8B18
:1031F0000DE05A8B22801A8B03E01A8B52422280F8
:103200005A8B524203E05A8B524222801A8B6280C0
:103210009B8B14E01A8B524222805A8B0CE05A8B03
:1032200022801A8B08E01A8B22805A8B03E05A8B7B
:10323000524222801A8B524262809B8B5B42A38057
:10324000314B1B78002B5AD1B4F9000008F0C4FFB1
:103250008046B4F9020008F0BFFF0746B4F9040045
:1032600008F0BAFF294D06462968404609F008F8DB
:10327000E9688146384609F003F80146484608F0F7
:10328000F7FEA9698146304608F0FAFF0146484634
:1032900008F0EEFE0CF042F969682080404608F024
:1032A000EFFF29698146384608F0EAFF01464846A3
:1032B00008F0DEFEE9698146304608F0E1FF01468C
:1032C000484608F0D5FE0CF029F9A9686080404610
:1032D00008F0D6FF69698046384608F0D1FF0146FC
:1032E000404608F0C5FE296A0746304608F0C8FF88
:1032F0000146384608F0BCFE0CF010F9A080BDE88D
:10330000F88300BFEC0F00202C0000209006002066
:10331000074B084A1B7812889A4207D3064A12685C
:10332000907898428CBF00200120704700207047A1
:1033300054050020240E0020200E002010B5174B4D
:103340009A7F511C9977164902F00702487815496F
:1033500003EB420331F81010198400231846124A77
:103360009A5A02331044102B80B2F8D1C00808F0EA
:1033700033FF0E4908F084FF0D4909F035F80D4B75
:1033800004461B68187808F027FF0146204608F01D
:1033900077FF09F061F9084B187010BDEC0F0020A1
:1033A00078060020880600200C100020333353409C
:1033B00000F07F45200E002054050020034B1B68C1
:1033C000DA79511CD9711344187A7047EC05002042
:1033D00010B5FFF7F3FF0446FFF7F0FF04EB002002
:1033E00080B210BD10B5FFF7F3FF0446FFF7F0FF02
:1033F00004EB004010BD0B4AA2F13003197A814260
:103400000BD00C339342F9D1074B197A014004D108
:103410000C339342F9D1084603E018460BB15868C3
:10342000704770476C0000203C00002000230549D5
:10343000DAB2595C814203D00133092BF7D11A4625
:10344000104670475C3601080146002304481844C2
:1034500042688A4203D00C33302BF7D100207047EA
:103460003C00002010B5094A094913688C681268AD
:103470009342F8D1074A106811684FF47A725043AA
:10348000001BB0FBF1F002FB030010BD841C002008
:1034900010E000E07406002038B5124B124C996819
:1034A000124B1A681D4652880A4203D0FFF7DAFF12
:1034B000206311E0FFF7D6FF236B98420CD9C01AA6
:1034C0000B4B3B22B0FBF2F01B68B0F5967FC8BFF8
:1034D0004FF0FF3003B118602B685A68054B5A61F2
:1034E00038BD00BF000C0140EC0F00208403002019
:1034F000800300200004014038B50446FFF7B2FF06
:103500000546FFF7AFFF401BA042FAD338BD10B508
:1035100004462CB14FF47A70FFF7EEFF013CF8E758
:1035200010BD38B5114C012384F834300546FFF73F
:1035300099FFA36B41F28832C31A9342E36384BFBD
:10354000002384F8403094F84030A063EDB21C446E
:103550000F2B84F8415003D1054B01221A7038BD5E
:10356000024A013382F8403038BD00BFEC0F002022
:103570001801002010B50446FFF774FF164A536D7A
:103580005065C31AB3F57A6F84BF002382F85830B0
:1035900092F8583023B9A82C1CD110490B7006E0C2
:1035A000022B02D10E490C7001E0242B01D80D49E9
:1035B000CC540133DBB282F85830094A12785200F9
:1035C0000532934206D1044B002283F85820034B66
:1035D00001221A7010BD00BFEC0F00206401002012
:1035E0008A0100206501002038B50446FFF73AFF44
:1035F000114B40F6C411DA6DD865821A8A4284BF35
:10360000002283F8602093F860200AB90F2C11D1B2
:103610000A480021017052B1094D182A154405F8D5
:10362000014C04D1012283F86010027038BD0132D0
:1036300083F8602038BD00BFEC0F00201901002086
:103640001A01002008B5024B1B68984708BD00BF4F
:10365000A02100202DE9F04106460F4690460025A6
:10366000EBB2434518D20024E3B2B3420FD20B4B66
:103670000120DA68013482F00802DA60FFF7E2FF25
:103680003846FFF744FF0020FFF7DCFFECE73C2063
:10369000FFF73DFF0135E3E7BDE8F081000C014095
:1036A0000B490B7813F0010F03F004020AD072B932
:1036B000980707D443F004030B70064B1A88064B97
:1036C0001A8070471AB90220FF210122C2E7704711
:1036D0009E21002084040020D814002040F2DB1436
:1036E000604308B50D4B10225A6108221A61841EEE
:1036F0000A4B2046DA6882F01002DA60DA6882F05B
:103700000802DA60FFF703FF0120FFF79BFF192093
:10371000FFF7FDFE0020FFF795FFE9E7000C0140F1
:1037200008B503685B69984708BD08B503681B695D
:10373000984708BD08B50368DB68984708BD08B519
:1037400003689B68984708BD08B503685B6898479D
:1037500008BD10B5044C2068FFF7F6FF18B12068CB
:10376000FFF7EDFFF6E710BDD405002008B50368AC
:103770001B68984708BD064B10B5044621461868DB
:10378000FFF7F4FF034B1B689A7954409C7110BDFE
:10379000F0050020EC05002038B5044624200D4635
:1037A000FFF7E9FF4D20FFF7E6FF002C084C0CBFA8
:1037B0003E202120FFF7DFFF2368002228469A7170
:1037C000FFF7D9FF236893F84900BDE83840D2E7F6
:1037D000EC05002001460020DEE7F8B50E4E0F4C48
:1037E0000F4DC1B20746306884F86110FFF7BEFF85
:1037F0002B6894F861109A7930684A409A71C7F33F
:10380000072184F86110FFF7B1FF2B6894F861106D
:103810009A794A409A71F8BDF0050020EC0F00201B
:10382000EC050020F8B51B4D1B4C1C4F0646C1B2E1
:10383000286884F86210FFF799FF3B6894F86210DB
:103840009A7928684A409A71C6F3072184F8621071
:10385000FFF78CFF3B6894F862109A7928684A4019
:103860009A71C6F3074184F86210FFF77FFF3B6847
:1038700094F862109A7928684A409A71310E84F857
:103880006210FFF773FF3B6894F862109A794A4020
:103890009A71F8BDF0050020EC0F0020EC05002027
:1038A00010B5441E14F8011F21B1034B1868FFF72F
:1038B0005DFFF7E710BD00BFEC0800200048EFE710
:1038C0000A2F0108014B186850E700BFA01A00201A
:1038D00038B5054C05465E212068FFF747FF206894
:1038E0002946BDE8384041E748050020014B5E21EC
:1038F00018683BE74805002010B50A4C5E280146D1
:10390000206805D15D21FFF731FF20683E2105E0E9
:103910005D2903D1FFF72AFF20683D21BDE8104053
:1039200024E700BF4805002010B50446C0B2FFF7E9
:10393000E3FFC4F30720BDE81040FFF7DDBF10B57B
:103940000024094BE0B21B7883420CD9074B33F8B3
:103950001010074B53F820301BB10B2801D89B687F
:1039600098470134EDE710BD6C2100206E21002046
:10397000BC090020054B1B6803EBC00090F9063022
:1039800019420CBF01204FF0FF307047D0190020C2
:103990000A4B1A6802EBC002D379FF2B07D0084903
:1039A0000978994203D9074A32F8130004E007283E
:1039B000D4BF908840F2DC5000B27047D01900208C
:1039C0000B0B0020E40A002010B5054C00202188D4
:1039D00002F0CBFD61880120BDE8104002F0C5BDBA
:1039E000860000202DE9F0418CB01E469DF848303D
:1039F0008846012B174608D19C4B984240F02D81F8
:103A0000042203F548431A615CE0994B984255D172
:103A10009848994B87600360984BB507436103F55D
:103A2000807383614FF48073C3600361904B0365BF
:103A300003F104038364C36403F5484303F15403AF
:103A40000363A3F11403D3F8D42F436342F48042F9
:103A5000C3F8D42FD3F8D02F42F00102C3F8D02FEF
:103A60004FF002038DF803304FF40073ADF80030CF
:103A70004FF018038DF8023003D58148694602F0F3
:103A80009BFD4FF48063ADF80030F4074FF048031E
:103A90008DF8023003D57A48694602F08DFD0E2379
:103AA0008DF8043001A801238DF805308DF806301B
:103AB0008DF807306F4CFFF713FB4EE06B4B9842CD
:103AC00040F0CF806F486C4B876003608023C360F9
:103AD000402303616C4B436180338361634B036517
:103AE00004338364C36403F5E53303F5FE73DA69D5
:103AF000B00742F40032DA615A6942F001025A61B9
:103B00004FF002038DF803304FF00403ADF800309E
:103B10004FF018038DF8023003D55948694602F07A
:103B20004BFD0823ADF80030F1074FF048038DF846
:103B3000023003D55248694602F03EFD26238DF837
:103B400004300222012301A88DF805308DF80620EB
:103B50008DF80730FFF7C4FA4A4C0025012384F89A
:103B600044302562E561A5626562C4F82C80667107
:103B7000A760A571204605F051FCE36CF2070193A4
:103B80004FF480530A934FF08003029503950495F8
:103B900005950795089509950B95069324D5206BF7
:103BA000D0B1E3680493202309936369029305F07D
:103BB00073FB01A9206B05F051FB236B1A6842F0DF
:103BC00001021A60226D918A89B241F0400191820E
:103BD0005B689BB2236407E0236D4FF6DF721A80A7
:103BE000DA6842F02002DA60A36C002501934FF4FA
:103BF00080530A9380230693B30702950395049597
:103C000005950795089509950B951ED5606BB8B17C
:103C1000236904931023039305F03EFB606B01A915
:103C200005F01CFB636B1A6842F002021A605D60CB
:103C30005D60236D9A8A92B242F080029A8204E01B
:103C4000236DDA6842F08002DA60236D20469A899B
:103C500092B242F400529A8104E0054B98423FF43C
:103C6000D7AE00200CB0BDE8F08100BF004400409A
:103C7000003801402C1C0020301F0108501000208B
:103C800000080140D81B0020501200207720482156
:103C9000012205F039BD77205821012205F034BDFD
:103CA000064B002193F82020054B92013432197005
:103CB0007720F42102F0FC0205F026BDCC0600209E
:103CC000801C0020034B00221A707720F4212E2242
:103CD00005F01ABD801C002007B54FF40053ADF865
:103CE000043002238DF8073004238DF806301C4B76
:103CF0001C4A1B68934201D11B4803E01B4A9342B4
:103D000003D11B4801A902F057FC6B2180226820D7
:103D100005F0FAFC0520FFF7FAFB192100226820C4
:103D200005F0F2FC6B210322682005F0EDFC372141
:103D30000222682005F0E8FC0E4B1A211A78682050
:103D400005F0E2FC1B211822682005F0DDFC1C2197
:103D50001022682005F0D8FC03B05DF804FB00BF1A
:103D60001800002000127A00000C0140001BB70070
:103D7000001001402D00002013B500222A211C2034
:103D800005F0C2FC0E2102221C2005F0BDFC0F2113
:103D900003221C2005F0B8FC2B2112221C2005F068
:103DA000B3FC164B02249A69154842F004029A614A
:103DB0002023ADF8043004230DEB03018DF8063009
:103DC0008DF8074002F0F8FB22462C211C2005F05C
:103DD0009BFC2D2101221C2005F096FC2E210022A7
:103DE0001C2005F091FC2A2105221C2005F08CFCEA
:103DF000044B4FF480721A8002B010BD00100240D4
:103E0000000801400000002008B50F2108221820FA
:103E100005F07AFC0E221820102105F075FC024BEB
:103E20004FF480521A8008BD0000002008B5134BE3
:103E300053201B782D2108227BB105F065FC312130
:103E40000A22532005F060FC2C210C22532005F09F
:103E50005BFC53203821902209E005F055FC31210C
:103E60000A22532005F050FC53202C210A2205F091
:103E70004BFC034B40F209121A8008BDB506002026
:103E80000000002008B51920FFF741FB682015212C
:103E9000002205F039FC10B90320FFF71FFC0C4B82
:103EA00016211A78682042F0180205F02DFC17211F
:103EB0000022682005F028FC3D210122682005F041
:103EC00023FCBDE8084068203E21012205F01CBC0F
:103ED0002E00002008B56420FFF719FB682023217D
:103EE000F02205F011FC10B90320FFF7F7FB0520C5
:103EF000FFF70DFB044B68201A78202142F00F02D7
:103F0000BDE8084005F000BCB40600202DE9F04FE4
:103F100087B0984682460F4616469DF8404000F00E
:103F200020FF0DF1080E0546034600F1100C18683D
:103F30005968724603C2083363459646F7D12B7B16
:103F40000BB903960496504602A903F017FC0546E8
:103F500040B14368586830B1504602A92A4601F082
:103F60003BFBF4E734E0AB6895F800B093F80090C1
:103F7000B9F1040F2CD8DFE809F003062B0F11006C
:103F80000094154801E015480094394632464346EE
:103F9000FFF728FD04460BE0002000E00120394631
:103FA0002346324603F026FE41460446FFF7B8FB9F
:103FB0006CB10B4B84F8049003EB8B03C3F8C04245
:103FC0006B6820465C60FFF73FFA80F809A0204646
:103FD00007B0BDE8F08F00BF00380140004400404A
:103FE000501000202DE9F74302F0A2F9814E05465A
:103FF0003378834200F0FB807F4C23681B780028D5
:1040000000F0A7806BBB0420FFF7F5F97B4F01465A
:104010003860DFF8F48198B143794FF4165188F88D
:10402000D0328368C8F8D432FFF784FB38680221A5
:10403000FFF776FB3868FFF707FA0423437210E0B6
:104040006F4B04201B684FF416529B780093022399
:10405000FFF75CFF4379386088F8D0328368C8F88E
:10406000D432236893F80090B9F1010F2AD10420CB
:10407000FFF7C1F9634F01463860DFF88C8198B1D2
:1040800043794FF4964188F8D8328368C8F8DC3217
:10409000FFF750FB38684946FFF742FB3868FFF7E7
:1040A000D3F9042343720DE000904B4604204FF4F3
:1040B0009642FFF72BFF4379386088F8D83283683F
:1040C000C8F8DC3223681F78022F40F0818004207A
:1040D000FFF791F94C4C0146C4F8E002A8B14379CE
:1040E0004FF4964184F8E4328368C4F8E832FFF76D
:1040F00021FBD4F8E0023946FFF712FBD4F8E002C6
:10410000FFF7A2F9042343720EE000903B4604201F
:104110004FF49642FFF7FAFE4379C4F8E00284F8C0
:10412000E4328368C4F8E832D4F8E072374C94F88B
:104130004A20022A4ED1364B1C60002C48D0204623
:1041400000214C220AF085FF0223276084F84A30C0
:104150003EE083B9294FDFF8B080386898F8D01274
:10416000FFF7DEFA3868D8F8D412FFF7E3FA3868B8
:10417000FFF76AF9457223681B78012B11D1214F93
:10418000DFF88480386898F8D812FFF7C9FA3868E1
:10419000D8F8DC12FFF7CEFA3868FFF755F900239C
:1041A000437223681B78022B12D1174CD4F8E0021B
:1041B00094F8E412FFF7B4FAD4F8E002D4F8E81265
:1041C000FFF7B8FAD4F8E002FFF73EF90023437294
:1041D00035700CE094F89630022B01D14C34AAE7EC
:1041E000002AA8D04C34002B18BF0024A3E703B04A
:1041F000BDE8F0834105002044050020480500206B
:10420000140E0020D4050020501000205408002077
:10421000E8050020F7B5284B1B78042B45D120205A
:10422000FFF7E9F8044670B12046FFF77EFA18B9A7
:104230000A20FFF76CF9F7E7204B20461B68196945
:10424000FFF778FA0AE01D4B21461B6800901A69B7
:1042500020200323FFF75AFE044630B3184B0822F0
:104260001A6110221A61174D2868FFF76DFA50B1D4
:10427000134E082777612868FFF761FA0146204648
:10428000FFF774FA37612046FFF75EFA0028EAD09C
:104290000B4E1027776120462D68FFF750FA014634
:1042A0002846FFF763FA3761DDE7074803B0BDE84A
:1042B000F040FFF7F5BA00BF240B0020200B0020D0
:1042C000000C0140440B0020382F01082DE9F04F6D
:1042D000694985B004460AF0C5FE684900282046B1
:1042E0000CBF012603260AF0BDFE002808BF0226E7
:1042F000F20740F1AC806248624F04F0F5FB62487F
:1043000004F0F2FB7A79614B013A614853F82210CC
:1043100004F0EAFB3869002108F046F900285CD176
:104320003C460546D4F810800021404608F03CF990
:1043300000284ED1013557482946D4F814B0D4F896
:1043400018A0D4F81C9004F0CFFB4046002108F0E0
:1043500035F910B1504804F0C7FB6946404604F0F7
:104360006DFD01464D4804F0BFFB5846002108F0A2
:1043700025F910B1484804F0B7FB6946584604F0E7
:104380005DFD0146454804F0AFFB5046002108F0B2
:1043900015F910B1404804F0A7FB6946504604F0F7
:1043A0004DFD01463D4804F09FFB4846002108F0C2
:1043B00005F910B1384804F097FB6946484604F007
:1043C0003DFD0146364804F08FFB0C2D04F110042E
:1043D000A8D13448691C04F087FB334804F084FBFF
:1043E000324CD7F8088054F8041F19B1304804F053
:1043F0007BFBF8E70C462F4B53F8245055B10123B3
:10440000A34013EA080F03D02B48294604F06CFBA5
:104410000134F0E7294804F067FB29467B1893F83C
:104420000E3104AA1344264A8A5C0131082903F894
:10443000102CF3D10023234869468DF8083004F08E
:1044400053FB214804F050FB402006F02BF8B30743
:104450000ED51E4804F048FB1D4804F045FB1D48DE
:1044600004F0BAFC184804F03FFB802006F01AF86C
:1044700005B0BDE8F08F00BF0E310108AD30010876
:1044800015310108881C002027310108142001087B
:10449000333101083E3101080F340108D3320108DD
:1044A0007E3601084631010858310108782101089B
:1044B000683101087C210108763101088331010847
:1044C000633201088F310108AD36010898310108C7
:1044D000AB3101084034010813B50446006805F00B
:1044E00037FE236801A81A8892B242F001021A80AE
:1044F000637B8DF8043001238DF805308DF806308C
:104500008DF80730FEF7ECFD02B010BD2DE9F74F36
:104510009F4E9B4633780C4691465A1C054606F83A
:10452000042B0068224649460C275F4305F010FE25
:10453000AB686868ADF8043018238DF8063001A91F
:1045400002238DF8073002F037F82B7B06EB070AC1
:104550002C680C2B00F2F280DFE813F00D00F00065
:10456000F000F0004D00F000F000F0008200F000DC
:10457000F000F000B600238C864823F001031B04F2
:104580001B0C2384218CA288238B844223F0730389
:104590004FEA03434FEA134389B292B243F07003E8
:1045A00014D000F50060844210D000F540608442D1
:1045B0000CD000F58060844208D000F58060844211
:1045C00004D021F0020141F0030107E021F00E01C7
:1045D00022F4407241F0030142F48072A2802383EE
:1045E000A4F834B02184238B23F008031B041B0C94
:1045F00043F0080332E0238C664823F010031B04C9
:104600001B0C2384218CA288238B844223F4E64351
:104610004FEA03434FEA134389B292B243F4E043B3
:1046200008D000F50060844204D021F0200141F060
:10463000300107E021F0E00122F4406241F0300156
:1046400042F48062A2802383A4F838B02184238BB3
:1046500023F400631B041B0C43F4006323836DE00D
:10466000238C4C4823F480731B041B0C2384218C63
:10467000A288A38B844223F073034FEA03434FEADB
:10468000134389B292B243F0700308D000F5006082
:10469000844204D021F4007141F4407107E021F418
:1046A000606122F4405241F4407142F48052A28091
:1046B000A383A4F83CB02184A38B23F008031B043C
:1046C0001B0C43F0080338E0B4F820C0314A2CF446
:1046D000805C4FEA0C4C4FEA1C4CA4F820C0B4F8A4
:1046E00020C0A388B4F81C802CF4005C28F4E648B1
:1046F0004FEA08484FEA0C4C4FEA18484FEA1C4C66
:1047000094429BB248F4E0484CF4405C03D002F57C
:104710000062944203D123F4804343F48043A38096
:10472000A4F81C80A4F840B0A4F820C0A38B23F404
:1047300000631B041B0C43F40063A383AB7B43B1F6
:10474000B4F844306FEA43436FEA53439BB2A4F892
:10475000443023889BB243F0010323802B7B0C2B36
:1047600010D8DFE803F0070F0F0F090F0F0F0B0F23
:104770000F0F0D00343404E0383402E03C3400E024
:104780004034F4515046AAF8049003B0BDE8F08FCD
:104790003C130020002C014038B5144B144D1A78FE
:1047A000144C2968A2B1D4F89420024491421BD33E
:1047B00000201870FEF746FF2B68C4F894300E4BAB
:1047C0001A780AB1013A1A70012384F8983038BD7A
:1047D000D4F89420C832914206D301201870FEF715
:1047E00031FF2B68C4F8943038BD00BFF3140020AB
:1047F000841C00203C1300203E04002037B5264DC9
:104800008DF8073095F899308DF8062002AA8DF8BA
:1048100004008DF805101A4412F8042C443AD2B260
:104820000F2A32D81D49022B01EB4202B2F85C403C
:1048300003D814B12046FFF7AFFF95F89930164A18
:10484000022B0BD9164B1968D2F89430091B8B42F6
:1048500004D2002382F89930124A137095F89830E8
:10486000012B00D0B4B995F89930022B03D80A4A2D
:10487000013382F899300C4B002085F898001870AD
:1048800003B0BDE83040FEF7DDBE022B4FF0C80498
:10489000D0D9D2E703B030BD3C130020142001086A
:1048A000841C00203E040020F31400200449054B22
:1048B0000968002218701A6159611A76704700BFA2
:1048C000841C0020240B0020F0B5934C934A2368ED
:1048D0009D8AADB2E9B211F0010F36D0198821F4EA
:1048E00000610904090C1980198889B241F48061BA
:1048F0001980002182F89A10894908788949B8B14D
:1049000092F89B0018B988480078FF2810D1012040
:1049100082F89B0085480078022804D1188880B26C
:1049200040F400601880097841F00101198216E115
:10493000097801F0FE0119827B4B1B78FF2B00F0F8
:104940000E81FF2382F89A3009E18F0740D5BFF32B
:104950005F8F76490878C0B2012816D1704D2D7846
:104960009DB192F89B5085B1198821F480610904AA
:10497000090C1980BFF35F8F198B198882F89C008E
:1049800089B241F4007119801DE0188BBFF35F8F6D
:10499000087802280CD16248007848B192F89B0050
:1049A00030B1198821F480610904090C1980D0E024
:1049B0000978032907D15A49097821B192F89B1047
:1049C000002940F0C680998889B241F48061C5E031
:1049D0004E0764D5012182F89C10514909780029BD
:1049E0003ED092F89B1000293AD0504992F89A0094
:1049F00009784F4D022919881FD921F480610904D3
:104A0000090C19801F8A2E68C1B2FFB240B2375418
:104A1000188880B240F4007018808B1C82F89A309D
:104A2000236828681D8A013149B2EDB2455499883E
:104A300089B241F4806199802CE089B241F400711F
:104A400019801E8A2D68C1B2F6B240B22E541B8A5C
:104A5000481C40B2DBB203312B5482F89A1019E0A3
:104A600092F89B1011B93349097851B1198889B26C
:104A700041F40071198092F89A30013382F89A302B
:104A800008E0198889B241F480711980234B012113
:104A900083F89B1021680B88D805FCD45FE001F0F7
:104AA000400101F0FF06214809B32149B3F810C0C5
:104AB0000F6892F89A105FFA8CFCCDB26E1C49B266
:104AC000F6B207F801C082F89A60077876B2F11C56
:104AD0008F4205D1998821F480610904090C9980DD
:104AE0000378B3423BD1023582F89A5037E0290669
:104AF00035D592F89A104DB26F1C1FD00E4E013171
:104B00003668C9B2755D82F89A10EDB21D820078E0
:104B100049B2884223D11CE0A41A00203C13002093
:104B2000AF1A0020AC1A0020AD1A0020B81A0020DD
:104B3000B41A0020AE1A0020B01A0020144982F8DE
:104B40009A600978C9B219821249097809B90178BD
:104B500029B9998821F480610904090C99800E4BC8
:104B600092F99A1018780D4B421C91420FD10022F5
:104B700083F89B2093F89C3033B12268938823F408
:104B800040731B041B0C9380054B00221A70F0BD70
:104B9000AD1A0020AF1A0020B81A00203C130020E4
:104BA000B91A00204B8830B5DC070CD50F4C0D78B6
:104BB000247805F00F05A54205DA0D4B00EB400007
:104BC000191814880EE05B070FD50A4B09781B787B
:104BD00001F00F01994208DB054B00EB400032F871
:104BE000064F19181C5293788B7030BD6006002058
:104BF0000406002062060020826A8169436B11442A
:104C0000D960416A914203D98A1A5A60816204E0EC
:104C100001698A1A5A6000228262002280F84420C8
:104C20001A6842F001021A60704700BF426A10B56C
:104C30008469A154416A02690131B1FBF2F402FBBB
:104C400014124262426B32B11368DB0708D4BDE82C
:104C50001040FFF7D1BF036DDA6842F08002DA60DE
:104C600010BD244B70B519684FF47A73B1FBF3F1A2
:104C7000214B22481A78224B224D1B7803F034FF37
:104C8000214B22481968224B2E68B1FBF3F103F047
:104C90002BFF00241F4BE2B253F8221049B101232D
:104CA00003FA02F2324202D01B4803F01DFF013426
:104CB000F0E72A6892070DD5184A1948127803EBD5
:104CC0008203196A03F010FF164B197A11B11648C6
:104CD00003F00AFF1548FEF7E3FDBDE87040144BF2
:104CE00014481A88144B92B2198840F2E44303F036
:104CF000FBBE00BF841C0020540500206C3201085C
:104D000096000020DC010020A0000020AA3201084B
:104D100040420F0090200108C83201089F21002066
:104D2000CC320108FC030020D6320108AD36010860
:104D3000AA1A0020DA320108A00400201FB50123BE
:104D4000ADF80830ADF80410002301A9ADF80A3021
:104D5000ADF80C30ADF80620FEF76BF805B05DF845
:104D600004FB30B5002205462D4910014318415C73
:104D7000A94204D00132062AF6D1002030BD294CC8
:104D8000042D0FCB84E80F00234618D007D8012D3F
:104D90000CD0022D42D1244B1B689B680DE0102DD6
:104DA00036D0202D06D0082D38D11CE01E4B1B68B4
:104DB0005B6830E01C4B1B681B6963602BE01B4A7F
:104DC000126812783AB1012A08D0022A0CBF4FF4B7
:104DD0009642002204E04FF4165201E04FF496424E
:104DE0005A609A601AE0124A1268127A032A15D899
:104DF000DFE802F0070702070E4A6260A2600322A2
:104E000004E04FF4E1326260A26001225A7305E0CF
:104E1000054B1B68DB68A360204630BD014830BDF0
:104E200080180108DC130020380800204405002009
:104E300014010020A08601003F4A2DE9F84F916837
:104E400040F201130B4040F201118B4293460AD10C
:104E50003A4B1A7C93F811905A74B9EB020918BFB7
:104E60004FF0010901E04FF001094FF00008344B09
:104E70005FFA88F41B78A3425CD9324B324E1B6830
:104E8000324F23B93B685B8926F814304FE03A680B
:104E9000072C94BF12F804A0A2462948514698470F
:104EA000DBF808300546DB0509D5B9F1000F06D05F
:104EB000274B50461B6829461B68DB699847A5F2BB
:104EC000EE2240F2DC5392B29A4288BF3B68DBF894
:104ED000082088BF5D8942F2010313402BB31D4BAC
:104EE0001978164B01F0030202EB840293F872006A
:104EF00003EB420255821A4620B9032915D9012134
:104F000083F8721002EBC403998A5D8A02EB4402B3
:104F10000D44D98A1B8B0D441D44ADB2A2F87450C8
:104F200004232DB295FBF3F5ADB226F8145008F129
:104F300001089CE7BDE8F88F881C0020DC130020E6
:104F40000B0B0020140B0020E40A002014010020A9
:104F5000D0010020241B0020094B30B59D68094B6F
:104F600005F480551868084B1C6800230DB1828831
:104F700000E0A28805495A520233182BF6D130BD01
:104F8000881C0020D4190020D8190020F814002013
:104F90002DE9F04FAF4E85B03778032F14D9AE4BC3
:104FA000AE48B3F90410B0F904200029B8BF494253
:104FB0006FF063035B1A9A4204DB01F164039342CE
:104FC000A8BF134683801FE0012F1DD8A44BA54C1A
:104FD0001B78013B142B00F2E381DFE813F0910012
:104FE000E101E10168009F00E101E1013101E1011E
:104FF000E101E101E101E101BD00E101E101E101C6
:10500000E101E101A301BA01934B9749B3F806A06E
:10501000924B0968B3F80280B3F80090B3F904B07A
:10502000924C02910025BD4204F11004CED20FFA39
:105030008AF007F0D1F854F8101C07F021F9034664
:105040000FFA88F0019307F0C7F854F8081C07F02E
:1050500017F9019B0146184607F00AF803460FFAB4
:1050600089F0019307F0B8F854F80C1C07F008F920
:10507000019B0146184606F0FBFF029A034692F98F
:105080000000019340420BFB00F007F0A5F854F834
:10509000041C07F0F5F8019B0146184606F0E8FFEE
:1050A00007F0B4FA724B23F815000135BBE7022173
:1050B0000420FEF75FFC694D0121AF8878431FFA99
:1050C00080F80420FEF756FC6D8800FB05801FFA6F
:1050D00080F80420FEF75CFC40442081022105207A
:1050E000FEF748FC7843012187B20520FEF742FC19
:1050F00000FB057087B20520FEF74AFC38440BE040
:1051000005200121FEF736FC544B9D88684385B28B
:105110000520FEF73DFC2844608141E1554B00200D
:105120001D68FEF735FCDFF8688195F90630B8F99F
:1051300002203227534393FBF7F3184420800120C9
:10514000FEF726FC95F90E30B8F90020534393FB87
:10515000F7F73844608023E1474B1B7813F0040FC6
:10516000464B02D11B689B880BE019683A4A0B88B2
:10517000B2F9062049889A4203DB9142B4BF0B463C
:105180001346E381E2893A4B3A4F1A803C4B1B6845
:105190001D7855B30220FEF7FBFB3A68B2F91030D8
:1051A000518A984203DB0BB29842B8BF0346354997
:1051B00009684889C3EB000E334B0FFA8EFEB3F833
:1051C0008C100FFA81FCF44501DA0D4401E002DD98
:1051D0004D1BA3F88C5092F91620B3F98C30534331
:1051E000642293FBF2F31844A080284B1B88D90556
:1051F0000CD5194B1A88D7F80090E28022819A8842
:10520000184F62815B880325A38101E0134BF1E70E
:1052100009EBC50393F90630B7F90680284608FB69
:1052200003F8642398FBF3F8A7F80680FEF7B0FBB9
:1052300001354044072DF88007F10207E8D1AFE0BF
:105240000D4B1B7813F0040F0C4B23D11B689B886C
:105250002CE000BF6C21002002020020241A002054
:1052600038050020860000203C0500200C0A0020A4
:105270006E210020D01900209E210020D819002086
:10528000DC190020E0190020DC130020F6010020CA
:10529000480300201968AD4A0B88B2F906204988F6
:1052A0009A4203DB9142B4BF0B461346E381E28985
:1052B000A74BA84D1A80A84B03201B880121DA05B3
:1052C00003D5FEF757FBA14F02E0FEF753FBA34FB8
:1052D000B7F80280022100FB08F01FFA80F90320D2
:1052E000FEF748FB3F88012100FB0790E88004207F
:1052F000FEF740FB00FB08F002211FFA80F80420B3
:10530000FEF738FB00FB078028810320FEF740FBF7
:10531000E3881844E0800420FEF73AFB2389184410
:1053200020813DE001210420FEF724FB8B4D6F8896
:10533000784387B204202781FEF72AFB3844208176
:1053400001210520FEF716FB2D88684385B2658193
:10535000DEE6824B0325B3F80490984628460221E6
:10536000FEF708FB00FB09F0012187B22846FEF793
:1053700001FBC5F106035B0838F8133000FB03702E
:1053800087B224F815702846FEF702FB384424F84B
:1053900015000135072DE1D16C4BDA886C4B1A8072
:1053A0006F4DDFF8E491AB6813F0200F33D000208D
:1053B000FEF7EEFA208080460120FEF7E9FA694BFD
:1053C000644FDB79608033B3674B1B681B7813F045
:1053D000020F664B23D0D9F800C0B3F900109CF936
:1053E0000E209CF906C0B3F902304A43CCF1000C00
:1053F00003FB0CF3322192FBF1F26FF0310C92B20D
:1054000093FBFCFC9444E04493FBF1F1A7F800808B
:105410000A4410447880D9F80010002319E0D9F824
:105420000010B3F902C091F90620B3F900300CFB6B
:1054300002FC32229CFBF2FCE044A7F8008091F9C8
:105440000E104B4393FBF2F2E3E7E2520233102BD0
:105450000CD0E05E31F9232001EB830790427F8876
:10546000F3DB3AB28242A8BF0246EEE73E4B1B682E
:105470001B785B0704D436493478088801231BE085
:105480003B4B00241F780423043FFFB25FFA87F8E8
:105490004FFA88F2D4420BD4364A03F10109381985
:1054A00032F813105FFA89F9C0B201F05EF84B468A
:1054B0000134042CECD1DEE7A34208D231F91320E9
:1054C00000B28242A8BF104680B20133F4E72A4BF3
:1054D0004FEA44081A68AB6803F480550395254DDC
:1054E00003F01009254BB5F90660254D1B782F6890
:1054F000244D03F00403DBB2D5F800C0029300236F
:10550000434563D0B2F802A004B2544505DD104C07
:10551000C0EB0A0A1D5B55441D53039D0C4C002D26
:1055200034D07D8931F903A0AE42CBBFBCF8025024
:105530009588B2F802B0BCF800B0AA4503DBDA45A2
:10554000B4BF55465D46E55239E000BF0202002077
:105550006E21002086000020F6010020241A002081
:10556000881C0020E0010020E419002048030020EE
:10557000F3080020E40A0020D81900209E21002012
:10558000E0190020D4190020D019002031F903A01F
:105590001588B2F802B0AA4503DBDA45B4BF554618
:1055A0005D46E55204EB030ABC89A64207DAB9F16D
:1055B000000F01D1148800E09488AAF80040029CF2
:1055C00014B9044C1C5BCC52023399E705B0BDE81A
:1055D000F08F00BFF81400202DE9F041204C137C1F
:1055E000A46804F0400C032B37D80C265E431D4CF6
:1055F00003F1010835192F7A38422BD0335D4BB1B6
:10560000012B07D0032B04D0042B14BF0423032346
:1056100000E00223144F1E01BC19BCF1000F03D19E
:10562000BE5D033E012E15D94E7B16B1277B3E424F
:1056300010D04F686668B7420CD38F68A668B7422F
:1056400008D8137094605560D16082F810801046BD
:10565000BDE8F0815FFA88F3C5E70020BDE8F0817E
:10566000881C00203C000020D82001087FB52B4B6F
:105670002B4C9A69206042F001029A61294D0388FF
:105680001026ADF804302846022301A98DF8073012
:105690008DF8066000F090FF236828465B88ADF81F
:1056A000043004230DEB03018DF8063000F084FF75
:1056B00022680F20137A03F003018900884003F069
:1056C000FC0303F1804303F580339D6825EA000065
:1056D000012505FA01F198609868014399605368C3
:1056E000114A02A85361029300238DF80C308DF803
:1056F0000E508DF80D6004F0E7FC23680B4A5B7ACE
:1057000059B203F01F039D404909094B42F821504B
:105710001A68084B3C3A1A6004B070BD0010024091
:1057200084030020000C01400004014000E100E07F
:10573000841C00207C030020032810B50F4B0DD8DB
:105740000F4A126894888C4208D2D2888A4205D9BE
:10575000012202FA00F01A78104318701B780F2B00
:105760000BD1064B00221A70064B998808B21428F8
:1057700002DD1439998010BD9A8010BD6C14002090
:10578000CC190020D00A0020024B9A8801329A805E
:10579000704700BFD00A0020074B1A68074B1178EA
:1057A000B3F9040053780B4403EB83039842D4BF4E
:1057B00000200120704700BFCC190020D00A002033
:1057C000064BB3F90400064B1B681B7803EB8303FD
:1057D0009842D4BF00200120704700BFD00A0020AB
:1057E000CC19002010B50446FFF7EAFF002814BFCB
:1057F0002046002000F0010010BD024B01221A7269
:10580000704700BFD00A0020014B187A704700BFD4
:10581000D00A0020034BB3F90400D0F1010038BFD7
:1058200000207047D00A0020014B00229A80704768
:10583000D00A00201F4B2DE9F0431A781D4612B301
:105840001D4B07781E781D4B93F800C002231C4C9B
:1058500003F10108E25C324102F00F02BA420DD2BC
:105860000B2A0BD814F8039014F80880154C04EB9D
:10587000820209EA0C0408EB042454600233102B62
:10588000E5D100232B7003788B420FD90E4B18788B
:1058900068B10E4B89001A780A4B1944486802B166
:1058A000400800F5777080B2BDE8F0830020BDE8C5
:1058B000F08300BF18010020080B0020090B002016
:1058C0002D1000206C140020201000200A0B002056
:1058D000024B53F82100C0F3CF0070478C01002029
:1058E000034B53F82100400800F5777080B27047F1
:1058F00034010020016B0346C26810B5406941B114
:10590000196C541A005D013918BF0A46C0B21A64F6
:1059100010BD196A405C0131B1FBF2F402FB1412B4
:10592000C0B21A6210BD026B03691AB15168013B23
:10593000026C02E0C169026A013B881A1840C0B2D9
:105940007047436B13B190F844007047826A436A12
:10595000D31A58425841704743799B070AD5436A86
:105960008269D154426A03690132B2FBF3F103FB4D
:10597000112343627047437913F0010307D0036991
:10598000C169026A013B881A1840C0B270471846C4
:105990007047437910B513F0010304460DD0FFF7AB
:1059A000EAFF58B1226A6369985CE3680132B2FB8E
:1059B000F3F103FB1123236210BD184610BD426AA8
:1059C000806A131A58425841704741717047334AF0
:1059D00010B5136C90681944081A40F68C2398424D
:1059E0009160D060516013463CD9127893F945100C
:1059F0008A420BD1111F082908D893F8461018299C
:105A000001D8013103E083F8442002E0002183F84B
:105A1000461093F944108A421CD1204991F847104E
:105A2000C1B1002191421E4806DA03EB81042469CA
:105A300020F811400131F5E7511E00EB410116300D
:105A4000814203D0002421F8024FF9E71549087874
:105A50000130087083F84520002201211A7083F874
:105A6000471010BD92F84710B9B1A0F2EF2440F2F0
:105A7000DA518C4208D811780B2905D80B1D013159
:105A8000117042F8230010BD002283F847209918B6
:105A900004320020302A0861F9D110BDF40800203A
:105AA000EC0F0020EC130020084B03EB0010837A6E
:105AB0000133DBB20A2B837207D983781BB9417893
:105AC000034A22F811300023837270473C090020FA
:105AD000EC0F0020024B1A6C11441964704700BF90
