:020000040800F2
:100000000050002009B50008B5B50008A9A00008F7
:10001000B5B50008B5B50008B5B50008000000008A
:10002000000000000000000000000000B5B500085E
:10003000B5B5000800000000B5B5000899A000089B
:10004000B5B50008B5B50008B5B50008B5B50008E8
:10005000B5B50008B5B50008B5B50008B5B50008D8
:10006000B5B50008B5B50008B5B50008B5B50008C8
:10007000B5B50008B5B50008319F0008B5B5000852
:10008000699F0008B5B50008B5B50008B5B500080A
:10009000B5B50008B5B50008B5B50008B5B5000898
:1000A000B5B50008B5B50008B5B500087D9E0008D7
:1000B000759E0008699E00085D9E0008A59F0008C7
:1000C0009D9F0008A19F0008999F0008B5B50008F2
:1000D000B5B50008F59E0008B5B50008899E000872
:1000E000B5B50008B5B50008B5B5000800000000BA
:1000F0000000000000000000000000000000000000
:0C01000000000000000000005FF808F1A3
:100110002DE9F04F664B674CA1B02360002363606C
:1001200006F0E4FD18B906F0AFFA06F003FE02F09F
:10013000CFF900230B93604D0C930D934FF4E01314
:100140000E932B685D4943F480338A7B2B60AB6947
:1001500043F01003AB612B6803F400330C930B9B4B
:1001600001330B930C9B1BB90B9BB3F5A06FF2D122
:100170002968514B11F4003101D0022315E01868B1
:1001800040F0010018600B912B6803F002030C9300
:100190000B9B01330B930C9B1BB90B9BB3F5A06F0F
:1001A000F2D12B68980739D501230D93444B454F65
:1001B000196841F010011960196821F003011960F4
:1001C000196841F0020119606B686B606B686B60C5
:1001D0006B6843F480636B603B4B1968043B21F010
:1001E0007041596039493960696821F47C1169604E
:1001F000596841F000415960D96821F40041D96043
:100200009B68190449BF324B4FF4E0133B604FF435
:1002100080130E930D9B012B01D117E0FEE7022BFB
:1002200018D16AB10E9BB3F5801F02D14FF4A01311
:1002300005E00E9BB3F5E01F02D14FF400130E93BF
:100240006A680E9B134343F4803302E06B6843F407
:1002500060136B602B6843F080732B602A68164B29
:100260009201FBD55A6822F003025A605A6842F0A4
:1002700002025A606B68104A03F00C03082B0793C4
:10028000F8D15168134B01F00C01042903D008295F
:1002900004D00E4A00E03A681A6027E051685068BE
:1002A000C1F38341C60301F1020117D40A4A1BE0DE
:1002B000993C00082C06002000100240C4160020C3
:1002C00000200240140000200410014000127A00B7
:1002D000001BB7007800002000093D00526812F4AE
:1002E000003F3A6818BF5208514319606A6820AE4F
:1002F000C2F303123A4411791A68DFF80093CA4036
:10030000B2491A60B24BDFF8F8A2D960A9694FF080
:10031000000841F00101A961696A484641F0807115
:100320006962A969DFF8DCB241F01C01A9614FF6EE
:10033000FF7126F82C1D3146049203938DF85680E8
:1003400008F00CFE5046314608F008FEA148314640
:1003500008F004FEA049486840F0007048609BE83F
:10036000030086E80300A969159841F00801A96116
:100370000821CAF810100BF1080B16A908F0EEFDC1
:100380009BE8030086E80300A969159841F008017D
:10039000A96116A908F0E2FD304603F090FC15991A
:1003A0008E48049AB1FBF0F1A1604FF47A71B2FB70
:1003B000F1F28B49039B013A4A604FF0070BF022A0
:1003C00083F82320C1F80880C1F800B009F0ECFDE3
:1003D00007F042F9642004F05EF982484146102299
:1003E0000DF08FF8012384F80FB0A373D9F8003013
:1003F000CB46012202FA08F202F00101914206D135
:100400004FEA88020F2101FA02F223EA020308F1FF
:100410000108B8F1080FECD1CBF800306B6908F196
:10042000804843F001036B61AB6908F5003843F481
:100430000073AB61404604F0FBFE6B4B0025159347
:100440006A4B4FF0010916934FF480731B934FF4DE
:1004500080631C9320231D9331464FF40053404684
:100460001E931795CDF8609019951A951F9504F075
:10047000C1FED8F800305E4A43EA0903C8F80030EC
:10048000536823F4702323F4807353609168594BAD
:100490000B4043F4602343F002039360D36A23F4D8
:1004A0007003D3624B464F4A5119887800285AD0BE
:1004B000AA5C581C092A91F803E0C0B24C4911D932
:1004C000A2F10A0606EB46064FF0070C0CFA06FCF2
:1004D0000EFA06FED1F80C8028EA0C0C4CEA0E0647
:1004E000CE600EE002EB42064FF0070C0CFA06FC61
:1004F0000EFA06FED1F8108028EA0C0C4CEA0E0623
:100500000E61062B3A490ED8013B03EB83034FF0F3
:100510001F0E0EFA03FE9A404E6B26EA0E0646EABE
:1005200002034B6320E00C2B0ED8073B03EB830345
:100530004FF01F0E0EFA03FE9A400E6B26EA0E06CF
:1005400046EA02030B630FE00D3B03EB83034FF01E
:100550001F0E0EFA03FE9A40CE6A26EA0E0646EAFF
:100560000203CB6200E018460435102D01D003468B
:1005700099E71F4B9A6842F480729A609A6842F039
:1005800001029A609A6842F008029A609968184AD3
:100590000D07FBD4936843F004039360144A9368F7
:1005A00013F00403FAD1916841F4A0019160124A5A
:1005B000B2F8E60048BBB2F9E8302BBBB2F9EA303A
:1005C000D3F1010338BF00231FE000BF0005FA0587
:1005D00000ED00E0001001400000014040420F002B
:1005E00010E000E0380600204C24014048060020BE
:1005F00000240140FDF7F1FFC4160020000801406F
:10060000000C0140CCF00008034613F0010340F059
:100610008C803B7500B209F0AFFEA5A3D3E900239F
:1006200009F010FF0AF020F9A34F0646B7F9E800D9
:1006300009F0A2FE9EA3D3E9002309F003FF0AF00C
:1006400013F90546B7F9EA0009F096FE98A3D3E935
:10065000002309F0F7FE0AF007F9814630460DF055
:100660007FF9074630460DF0EFF9804628460DF039
:1006700077F9064628460DF0E7F9054648460DF09D
:100680006FF9824648460DF0DFF9394681465046FB
:100690000AF048FA3946059048460AF043FA5146AE
:1006A000069040460AF03EFA4946089040460AF055
:1006B00039FA3146099050460AF034FA49466062E8
:1006C00006F100400AF02EFA2946A062E562089879
:1006D0000AF028FA014606980AF01CF92946206318
:1006E00009980AF01FFA014605980AF011F93146F7
:1006F000606308F100400AF015FA2946A0630598E6
:100700000AF010FA014609980AF002F92946E06356
:1007100006980AF007FA014608980AF0FBF83946ED
:10072000206430460AF0FEF96064644E644A33681F
:10073000002143F00203336013685F4DB3F85A3071
:10074000A4F8481006935F4BB5F8EE80197094F842
:100750004A1095F8ED70994609B906F0FBFBB8F11F
:10076000140F1CD009D8B8F1050F1ED0B8F10A0F2C
:1007700018D0B8F1000F0FD11AE0B8F1BC0F1AD0A1
:10078000B8F5807F05D0B8F1620F05D14FF00208AF
:1007900013E04FF0000810E04FF003080DE04FF0B9
:1007A00004080AE04FF0050807E04FF0060804E0EF
:1007B0004FF0070801E04FF00108434B4FF0100ADB
:1007C0001A881A2022F040021204120C1A801A8889
:1007D00022F038021204120C42F030021A801A88F9
:1007E00092B242F040021A80CBF814A002F05CFEF4
:1007F000404602F059FE0120CBF810A003F040FF64
:1008000015A806F077F99DF95630013303D19DF90B
:100810005430013303D0B4F848309BB22BB10023DD
:100820000320A4F8483005F03DF9DFF8BC80274BE1
:100830006420C8F80030264BC8F80430254BC8F8AF
:100840000C3003F028FF01200423059089F80030C4
:10085000DFF890B00022062F8BF80020DFF88CA084
:1008600008D0082F01D0DFB904E0336823F0020379
:10087000336015E00022A4F8482094F84A200AB911
:1008800006F068FB144A1549642011601449516050
:1008900003F001FF06228AF8002004228BF80020D2
:1008A0009AF8003043BB1FB31F46D1E7AFF3008077
:1008B000399D52A246DF913FC41600202802002035
:1008C000B8010020D201002000300140B5850008A9
:1008D000F56A000890C1793D2C020020A58500082A
:1008E000816A00083E020020BC010020951C002007
:1008F000336823F00203336095F8E2300BB189F8D6
:10090000003095F8E3300BB1BB490B7095F8E4303B
:100910000BB1BA4A137033689C0702D5B84B1B68F9
:100920009847D8F8003098473368B64C13F0080F52
:100930001BD0069A4FF064090FFA82FA9AFBF9F776
:1009400038460AF09BF8834609FB17A000B20AF06C
:1009500095F8AD490AF0E6F80146584609F0DAFF85
:10096000AA490AF0DFF8E06401E00023E364A84B41
:1009700008221A614FF00A09A54F1920FB6809F1F6
:10098000FF3983F00803FB6003F085FE192003F0B4
:1009900082FE19F0FF09EFD108233B619D4B9E4F6A
:1009A0001B6893F90C0009F0E7FC8FA3D3E900233F
:1009B00009F048FD09F058FF0CF0D2FF8146388855
:1009C0000AF05CF849460AF0ADF80CF0FFFF934BD3
:1009D000188038880AF052F8014691480AF056F912
:1009E00090490AF053F92065D8F80C0009F0D6FCBC
:1009F0007DA3D3E9002309F025FD7DA3D3E90023DE
:100A000009F020FD09F030FF874B884A18608849BB
:100A10006879884B107001EBC000407C6365864BA1
:100A2000784F1860A868984610F0200F18BF01236F
:100A30004FF000014FF4A07207F1580018BFC8F83A
:100A400000300CF05EFD7D4A536823F4406343F0B0
:100A5000706343F400635360794BDA6942F0070234
:100A6000DA619A6942F4006242F00C029A61754BB5
:100A7000C4F8983104F088F9152207F5CE70FF21EB
:100A80000CF03FFD002384F89C3133680122980765
:100A900084F8B12107D587F89D21032287F8B12179
:100AA000022287F89E21590708D594F8B121511CDC
:100AB00084F8B1112244032182F89C1113F00A0F2B
:100AC00014D094F8B1310421E21882F89C115A1C18
:100AD000D2B22244052182F89C11DA1C0233DBB227
:100AE00084F8B1212344062283F89C21AB689A063E
:100AF00008D594F8B121511C84F8B1112244072182
:100B000082F89C111F060ED594F8B1210920A11876
:100B100081F89C01911C0132D2B284F8B1112244B7
:100B20000A2182F89C116A79082A01D00E2A08D17C
:100B300094F8B121511C84F8B11122440B2182F8A0
:100B40009C1194F8B1210C27A618511CC9B286F843
:100B50009C715E072B4884F8B11106D5023280F8EB
:100B6000B1210144102281F89C2194F8B12112276F
:100B7000A61886F89C7195F84161511CC9B2002EE7
:100B80000CBF002303F001031E4884F8B11133B1F8
:100B900002320144132380F8B12181F89C3194F88A
:100BA000B13129485A1C84F8B1212344142283F816
:100BB0009C21002198220CF0A4FC0026D5F82C21C1
:100BC0004FF0000A0027009701203946032306F062
:100BD00089FB8146D0BBBAF1000F51D14FF4964248
:100BE0004FF0010AEEE700BF399D52A246DF913F68
:100BF000000000A0F7C6B03E3E020020961C002078
:100C00002C0200202C0600208988883C000020410E
:100C1000000C014078020020000000209C0200200F
:100C20000AE81C4100401C46740200209A03002080
:100C3000CCF00008D4160020BC04002000000140C5
:100C400000100240EC170020E0070020012EB5D86C
:100C50004C2202FB06F3DFF864A306F1010B0AEB5A
:100C600003063046394603930CF04BFC039B5FFAB6
:100C70008BFB4AF80390012386F84A305E469DE7D5
:100C8000022003F00DFC0146C4F84C0248B9009163
:100C900003230220D5F8302106F024FBB84BC3F81B
:100CA0004C0210A8002112220CF02BFC6B790E2BA9
:100CB00001D0082B02D101238DF84930AE6816F41B
:100CC000005618D1AF4A0023B05CD75CD1188742D8
:100CD00003D01033602BF8D1002105F0B7FF8368F3
:100CE0001B78012B04D01036602EEBD10023059326
:100CF00005988DF84300D8F80010A3480031AB6880
:100D000018BF01218DF847100168C3F340028DF828
:100D1000442091F82611C3F380128DF84520C3F3C7
:100D20004032C1F38001B5F8E0008DF84020C3F3F4
:100D3000C0328DF842208DF84810C3F30042B5F858
:100D4000DE108DF84620ADF84C0003F001024FF4A0
:100D50007A70DB048DF84120ADF84A10ADF84E00F2
:100D600004D58A4BB3F8DA30ADF84E30B1F5FA7FDE
:100D7000864E84BF0023ADF84E30B6F81831844952
:100D8000ADF8503096F8203184F85032002384F8C2
:100D900051324B709DF84930002B14BF02230023C1
:100DA00002B101337B49002701EB8303D3F82831DB
:100DB000BA460593059A4FF6FF71D35B8B42DAB2C0
:100DC0000CD1754B94F851221A70744B93F8008033
:100DD000B8F1160F40F04A8100253AE19DF8431022
:100DE00019B1911E012940F221819DF8451019B1D8
:100DF000111F032940F21A81DFF8C4919DF84610B3
:100E00004FEA021809EB080529B159F8081064489F
:100E1000814200F00B819DF8421011B1012A00F0CF
:100E200005819DF8441011B1042A00F0FF801B0ACF
:100E3000022B05D19DF84010002908BF002303E0D4
:100E4000012B08BF9DF841309DF8471039B19DF83E
:100E5000491021B9A2F10801012998BF04239DF886
:100E6000481031B19DF8491019B9043A032A40F2EB
:100E7000C480012B36D1424B4FF0000BFF2283F888
:100E800054B2C3F858B2C3F85CB2C3F860B2C3F846
:100E900094B283F8982283F8992283F89AB283F85F
:100EA0009BB283F89CB2C3F8A852AB68EA7B68682F
:100EB000ADF8543015A902238DF857308DF856201F
:100EC00008F04CF8297B5A4659F8080002F0C6FF92
:100ED000284602F047FE28465946324A324B08F06F
:100EE0008DFEA3E0022B30D1DFF8D8E05FFA8AFB59
:100EF0004FEA0B110EEB010000224FF0010C827043
:100F0000827280F801B00EF801C0E97BC560A86864
:100F10008DF85610ADF8540015A968688DF8573053
:100F2000049208F01BF8297B049A59F8080002F093
:100F300095FF284602F016FE284659461B4A1C4BD0
:100F400008F05CFE0AF1010A70E0032B53D1BDF8F2
:100F50004A30DFF82C80B3F5FA7F98F8529233D9F3
:100F6000144A2846B2FBF3F20821BDF84E3092B283
:100F700002F0BAFA08EB8903C3F81C030E4B32E007
:100F80002C06002094F10008B8010020C4160020AF
:100F90007D080020CCF00008780400209A0300208F
:100FA000000400405B840008618500085940000887
:100FB0003585000800127A0081850008E0070020CE
:100FC00068060108C8080020884A2846B2FBF3F2E8
:100FD0000121BDF84E3092B202F086FA08EB890387
:100FE000C3F81C03824B8360824B93F85222013278
:100FF00083F852221AE0042B18D1BDF84C307B4AFA
:10100000DFF8F08192FBF3F22846BDF85030012161
:1010100092B298F8519202F067FA08EB8903C3F88C
:101020004C0398F85132013388F851320237182FA7
:101030007FF4C0AEC5E6704F99E80F002F4487E8F3
:101040000F006E4B10351A78C02D02F101021A7094
:1010500008D0636D0021585903EB050909F0F6FE2D
:101060000028E8D0B368DF041ED418E06449634A5E
:1010700001EBC80393F810E0D3F814C082F800E045
:10108000BCF1000FEED000257545EBDA5A4F2B016D
:101090001F4463440FCB013587E80F00F4E7B8F134
:1010A000080F584F26D128E0544B93F80090B9F11F
:1010B000010FF4D9544D00274F4505F11005EEDA24
:1010C00055F8100C4FF07C5109F02CFD4FF07C517D
:1010D00045F8100C55F8140C09F024FD4FF07C5124
:1010E00045F8140C55F80C0C09F01CFD013745F8B7
:1010F0000C0CE1E7B8F10E0F03D13B7843F010037D
:1011000002E03B7823F010033B7002F0CBFB3F4939
:101110003F4B4048404AC4F86C13C4F87033016038
:101120000023B6F81811A4F8763384F87833C4F89D
:101130007C23C4F880239146384A99520233242BE9
:10114000FAD1374B2B4CC3F80090B36813F0080F5B
:1011500000F09180334B93F81631032B00F2858019
:10116000DFE803F00202296E012B4FF0030208D1E1
:1011700084F88423072284F8863384F885230C239B
:1011800008E0022384F88433002384F8863384F84B
:101190008523072384F88733002300930820012345
:1011A00021494FF4E13206F09DF8204BC4F88C033E
:1011B000C4F8903355E0012300931D49052308200E
:1011C0001C4A06F08FF8B6F81811C4F89403A1F57C
:1011D000777149000023184A99500433302BFAD113
:1011E000164BC4F890330C2339E000BF40420F0087
:1011F000718500082C060020A0030020681C002038
:10120000CCF000089E020020A8030020D217002086
:1012100004F20008EC0000209C0900207A04002061
:10122000A8010020C41600205D450008C93B000845
:1012300021460008A08601000C010020693C00083E
:101240000023009308200123BA494FF4E13206F04D
:1012500049F8B94BC4F89803C4F89033102384F8C4
:101260008733003018BF012028B9082007F0BAFCE6
:101270000023C4F89033B3685D0405D5082284F8D0
:101280008723AE4AC4F8902342F201021A4003F0C9
:10129000010103F400505AB1A94AC4F8902318B1CF
:1012A000A84A082082F8870311B10C2284F887230A
:1012B00094F887231806A2F1040284F8882346D5FF
:1012C000A04BA14AD6F83411C3F89C2300239F4AAF
:1012D00002EB0310D0F864011546884204D00133B4
:1012E000DBB2042BF3D9002384F8A133984B002000
:1012F000C4F8BC3304F084F8964B94F8A1231B681F
:101300000021C4F8A83396F8263105EB02128B426F
:10131000C4F8A4134FF010000091D2F864210CBF60
:101320000123032305F0DEFFC4F8C00318B98020B1
:1013300007F058FC02E0012004F062F8864B1868C0
:10134000864B00F5947204301A6007F055FDB368BF
:10135000D90340F1C28082498B6943F008038B6155
:10136000804B1A6800230120984000F01005854248
:1013700008D198000F25854022EA05020B2505FAC1
:1013800000F002430133082BEDD1764B764D1A6005
:10139000CB694FF0010A43F00203CB61734B4FF06E
:1013A00000081A68724BDFF8F4B1B2FBF3F22B8835
:1013B000013A23F45C731B041B0C2B8092B21D2397
:1013C000AB852A85A5F814A02B8C23F001031B0400
:1013D0001B0C2B842B8CA8882A8B23F0020322F071
:1013E000730212041B04120C1B0C42F0600280B248
:1013F00043EA0A03A8802A83A5F834802B842B8B28
:10140000584623F008031B041B0C43F008032B83EE
:10141000B5F844306FEA43436FEA53439BB2A5F8F3
:1014200044304B6943EA0A034B6103F001FF514B1F
:1014300040F22A32159318924F4B80221A924FF4A1
:10144000807216931B9210234FF40052584615A930
:1014500017931E920393CDF86480CDF87080CDF879
:101460007480CDF87C8003F0C5FEAA89039B92B2FC
:1014700042F40072AA81DBF800200FA842F00202B9
:10148000CBF800208DF83C3002238DF83DA08DF87C
:101490003E308DF83FA002F007FE384B1A68384BFB
:1014A00048F8032008F10408B8F1800FF5D104F0E2
:1014B000E1F804F0DFF8334A334B13608033C4F8AB
:1014C000F036324BC3F8009007F0D2FB07F00CFC6B
:1014D00007F0E6FB2E4B01221A70B3685A0540F163
:1014E0009380042005F0C6FC0146042005F0AEFB05
:1014F00018B14368187A00F00100B36884F8F40664
:1015000013F480690BD0042005F0B4FC01460420DC
:1015100005F09CFB10F1000918BF4FF001091D4BAD
:1015200083F800901C4B1D682B78CBBBC4F8F85691
:1015300060E000BFA9450008593C00087D3C000858
:10154000893C00082C060020EC170020CCF0000895
:10155000EA170020C0160020B801002088030020F0
:1015600000100240000C0140000400407800002000
:1015700000366E0134040040F00900208CF00008B1
:101580008C05002088050020081800201006002087
:1015900078050020C0040020C40400206C00024034
:1015A000012B27D1DFF8F880002140462C22C4F817
:1015B000FC560BF0A6FF8E2388F801304FF07C0B11
:1015C000E0234FF07D0A88F8033088F800B088F8EF
:1015D0002BA0DFF8D080002140462C220BF091FF99
:1015E0008A2388F80130A02388F800B088F80330F7
:1015F00088F82BA02B78022B08BFC4F80057B9F14C
:10160000000F01D005F0C2FE02F08EFF1D4B1860E6
:101610007379052B03D11C4B4FF4C8721A801B4BF6
:101620004FF47A721A803B7843F008033B70184BF2
:101630001A7822F002021A70B3689B071ED5154B68
:10164000C4F8043702F024FE282003F024F8079B96
:10165000013B0793F6D1104B96F8051118780A460E
:101660000123904203D30133082B0A44F9D10B4ADA
:10167000137096F806215343A4F8083721B0BDE84B
:10168000F08F00BFE802002040020020901C0020E4
:10169000941C0020C8170020D404002074000020EF
:1016A000EC040020190500202DE9F04F974B91B074
:1016B0001B68BBB9964C2378013B042B00F2F886DB
:1016C000DFE813F0150615061506E606CC062068B9
:1016D00002F0FAFF8F4B04461B681B784BB1012BBD
:1016E00000F0ED80894C206802F0F3FF0028EED175
:1016F000E0E72428884D0CD006D80A2800F08E8018
:101700000D2800F08B80C6E02A2806D02C2804D0B3
:10171000C1E02B706B70AB70CEE06A782E782A44F3
:1017200000217D4BD170EEB9DA789E74472A19D129
:101730001A79502A16D15A79472A07D19A79472A15
:1017400004D1DA79412A01D101229A746A79724B63
:10175000522A07D19A794D2A04D1DA79432A04BF53
:1017600002229A74AB7C6C4F012B02D0022B36D034
:1017700049E0B31E072B46D8DFE803F00408101435
:101780001C27452C08F0D0FA68613CE0EA78624BEF
:10179000532A38D15A6952425A6134E008F0C4FAE7
:1017A000A86130E0EA785C4B572A2CD19A69524202
:1017B0009A6128E0EB78302B584B1A788CBF42F0B6
:1017C000020222F002021A701DE0002008F006FB5F
:1017D000287718E0002008F001FBE88313E0072ECB
:1017E00006D0082E0FD1012008F0F8FA78840AE01C
:1017F000012008F0F3FA41F2184358434FF47A728B
:10180000B0FBF2F33B84013600232A2C424A2E70AF
:101810006B704CD1012182F824104DE095F82430F2
:10182000002B34D03C4BDB78402B04D9A3F137029A
:101830001201D2B202E01B0103F0F0022B79A97869
:10184000402B8CBF373B303BDBB21344DBB29942B9
:10185000314A1BD1937C012B08D0022B16D1118C5D
:101860002F4B528C19802F4B1A800FE02B4909788F
:101870008E070CD52C495069086090694860107F2C
:101880002A490870D18B2A4A118000E000230022E7
:1018900085F8242010E06B781F4A0E2B03D8591CC2
:1018A00013445170DC7095F824301B4A1BB99178B1
:1018B0004C40947000E0002303F001035BE1164B01
:1018C000002193F82520082A00F25481DFE802F075
:1018D0000B0514324353718D9A00622801D1022204
:1018E00007E083F82510B52C40F0448193F82520BB
:1018F000013283F825203DE1032283F8252083F877
:10190000260083F8270083F8280033E1EC09002043
:10191000CC090020E8090020380D00209E0200209C
:10192000460500201A0F0020E004002018050020C2
:101930004A050020042283F8252093F8272093F8F5
:1019400028100244D2B283F827200A4483F82820C2
:1019500083F829000EE1052283F8252093F827203B
:1019600093F828100244D2B283F827200A4483F85F
:1019700028205885FEE0062183F8251093F82710CB
:1019800093F828002144C9B283F82710014483F852
:101990002810598D6A4A01EB0424A4B2B4F5007FE3
:1019A00089BF00215485518582F8251000229A852F
:1019B000E0E093F8272093F828100244D2B283F88D
:1019C00027200A4483F828209A8DC72A03D85C4927
:1019D000114481F83000013292B29A855B8D9342B6
:1019E00040F0C8800722564B83E7082283F8252061
:1019F00093F82730834200F0BD80514A002382F8DB
:101A00002530B8E083F8251093F828104C4A81421D
:101A100040F0B08092F82910062946D004D8022957
:101A200012D003292CD0A5E0122957D0302940F03C
:101A3000A18092F83410434A102988BF10211170F8
:101A400010784149002257E04049506B4860906B44
:101A50000860116C4FF47A7091FBF0F13C48018002
:101A600092F8F8103B4A19B1117841F0020102E0F6
:101A7000117821F002011170012283F8F92050E061
:101A800092F8351011F0010105D092F83420D41EDF
:101A90006242624100E00A4683F8F820002A40D101
:101AA0002C4A117821F0020116E092F83B1011F057
:101AB000010105D092F83A20D01E4242424100E096
:101AC0000A4683F8F82022B9224A117821F002014F
:101AD000117093F85F10204A117022E0516C1F487A
:101AE0000180916C42F2107091FBF0F11C48018072
:101AF000012182F8FA1014E0824201F10C0110DA9F
:101B000011F8045C174C155511F8035C164C15556B
:101B100011F8015C154C15550D78154C1555013211
:101B2000EAE793F8F930064A23B392F8FA300BB398
:101B3000002382F8F93082F8FA3001231BE000BF5D
:101B4000380D00201C0F0020680D0020E00400204C
:101B50004A0500209E0200201805002046050020AE
:101B60001A0F00201D0F00202D0F00203D0F002018
:101B70004D0F00200023002B3FF4B4ADA54BA64E23
:101B80009A68DA6032689A60A44B1A6842F02002C0
:101B90001A60A34B1A78012A0CBF002201221A7086
:101BA000A04B1A7891077FF59DAD9F4909780429CC
:101BB0007FF698AD9D49097801F0040101F0FF001E
:101BC00011B922F001021A701B78964F13F0010F21
:101BD000974C984D11D180B19B070ED5964B286834
:101BE0006A6818605A6007F0E9F8944B1B88A4F8FB
:101BF000FC303B7843F001033B7094F8FE304FF02B
:101C00000509013393FBF9F909EB8909C9EB0309CC
:101C10008B4B8C481B7884F8FE900593831D03EB57
:101C2000890907900023DFF80CE2874A53F80E0079
:101C3000864F985090FBF7FC02F1080743F807C065
:101C4000834F03EB0E0107FB0C0742F2107097FB6A
:101C5000F0F00691079980B221F8020F02F1100A04
:101C600003EB830B0490079153F80A0059F80B100B
:101C700049F80B70C1EB000808EB0700734F4FF0F9
:101C8000050843F80A0090FBF8F007FB0C000599E3
:101C9000183201299850774608D1DDF810E0AEF1EE
:101CA0000202B2F5797F9CBF069908600433082BC5
:101CB000B9D1DFF87C813068D8F84C31C01A08F00F
:101CC000D9FE644908F0E2FF33684FF07E51C8F84E
:101CD0004C31814609F0C4F810B94FF07E5000E055
:101CE00048460CAAC4F85001534B00920DAA019229
:101CF00097E803000CCB07F01FF80C9B56496422B1
:101D0000B3FBF2F30D980B80544B90FBF2F21A8068
:101D1000444A474E127812F0010208BF1A8098F820
:101D2000543108BF0A80002B3AD0D6F850114FF03A
:101D30007E5008F0ABFFD6F8583181462868C01AAB
:101D400008F09CFE494608F0EDFE09F0B1F8D6F81F
:101D50005C211FFA80FA68680FFA8AFA801A08F084
:101D60008DFE3F4B196808F0DDFE494608F0DAFEAB
:101D700009F09EF8B6F9623100B2C218B6F96031C6
:101D80000221534492FBF1F293FBF1F392B29BB226
:101D9000A6F86621A6F86431A6F86221A6F860319B
:101DA000012388F854312F4B79681B88386803F079
:101DB00030031F4D1F4EC8F85C11C8F85801002BA6
:101DC0003FF490AC05F5B873009305F5BA73019331
:101DD000D5F86821D5F86C3106F0AEFF7368D5F8F8
:101DE0006C01C01A08F04AFE1D4B196808F09AFEF3
:101DF00009F05EF8D5F868313268C5F87C019B1AA5
:101E0000C5F878310E4B1B78012B2DD0022B00F03A
:101E1000F98067E4CC090020C016002028020020C9
:101E2000971C00209E02002018050020941C002012
:101E3000380D0020E004002044150020B8020020E6
:101E400058150020360E0020640E00208096980061
:101E5000806967FF00007A44480500204C05002097
:101E60004400002002030020D5F88071D5F89C4181
:101E70000497D5F8907104F100400597D5F8947156
:101E8000D5F85061079709F013F88046204609F00D
:101E90000FF88F4BD5F898511B688E4C069508901B
:101EA00009930025DFF84CA25AF81570AAF1140323
:101EB000384635F8039008F0E1FD049908F032FE49
:101EC00008F0F6FFC9EB000080B20AF1280A25F8F5
:101ED0000A000FFA80FA504608F0D0FD059908F084
:101EE00021FE08F0E5FF1FFA80FB0AEB070008F06F
:101EF000C5FD079908F016FE314608F013FE21686B
:101F000008F008FD08F0D4FF404505DBDDF820E0CF
:101F10007045A8BF704600E0404608F0AFFD206065
:101F200008F0C6FF58441FFA80FB606809F13109C8
:101F3000381A08F0A3FD314608F0A8FE099920617F
:101F400084468878D4F808A0CDF80CC008F092FD3B
:101F500008F024FA5CA3D3E9002308F073FA0246E0
:101F60000B4600205C4908F097FB08F07DFC3146E9
:101F700008F0D0FC0146304608F088FEDDF80CC0C1
:101F8000034651466046039308F0C2FC039B01469A
:101F9000184608F0C7FD0146504608F0BBFC1FFA82
:101FA00089F9B9F1620F014620616760A0600ED91E
:101FB000069808F0B7FD08F07BFF484BB0F5FA6FC4
:101FC000A8BF4FF4FA609842B8BF184600E000205E
:101FD000834440F6B8330FFA8BFB9B45A8BF9B4662
:101FE0003F4B0A229B45B8BF9B466A433D4B54F882
:101FF000141B25F803B03C4B0235042DD1503FF49F
:1020000071AB4FE7324BD5F870B11F68B5F8A461DA
:10201000B7F808904FEA5B03994528BF994633B259
:10202000994502DC1FFA89F90BE03049D5F85001D7
:1020300008F078FD08F03CFF30441FFA80F9A5F85D
:10204000A491D8F87451D8F8A861AE1B304606F0B8
:1020500023FF0028D8BF404241F293139842CCBFDF
:1020600000200120002847D0304608F007FD204915
:1020700008F058FD0BF0E8FC0646584608F0FAFC5C
:102080000146304608F04EFD08F012FF80B240F6DF
:10209000B83203B29342A8BF1346114AA8F8AC0164
:1020A0009342ACBFEB18AB1848F6A042934203DD55
:1020B000A3F50C43A03B04E0002BBCBF03F50C438D
:1020C000A033C8F8B03119E0182D4454FB21194051
:1020D00088030020B01500200000F03F30F8FFFF1B
:1020E00048F4FFFF90030020D81500200000C842EC
:1020F000D3023739B00E0020C8F8B051D4F8B0215F
:10210000C2F50C502830049208F0B8FCAE4908F033
:1021100009FD05460BF024FC0F9028460BF094FCBB
:10212000D4F8C051D4F8B431D4F8B8E10E9005F128
:1021300000400793CDF828E008F0BAFE0590284645
:1021400008F0B6FED4F85081D4F8BC410B90099445
:102150009E4C0025484608F091FC0EAB53F8151034
:1021600008F0E0FCDFF8A0A206463AF9050008F006
:1021700085FC0146304608F0CBFB08F099FE944BF5
:1021800006B2B6F57A7FA8BF4FF47A769E42B8BF02
:102190001E46B0B20AF13C0A25F80A0000B208F067
:1021A0006DFC0799824608F0BDFC08F081FE80B204
:1021B00008900A99504608F0B5FC414608F0B2FC78
:1021C000216808F0A7FB08F073FE0599884204DB3C
:1021D0000B9A9042A8BF104600E0059808F04EFC0C
:1021E0008246206060681434301A08F047FC41468B
:1021F00008F04CFD54F80C3C44F8040C8446B878C4
:102200000693CDF80CC008F035FC08F0C7F86CA3B5
:10221000D3E9002308F016F902460B4600206D4969
:1022200008F03AFA08F020FB414608F073FB01463B
:10223000404608F02BFDDDF80CC0034606996046C9
:10224000039308F065FB039B0146184608F06AFCFF
:102250000146069808F05EFB44F8106C014644F80D
:10226000040C44F80C0C099808F05CFC08F020FE03
:10227000089E0644504608F01BFE304440F6B83332
:1022800000B29842A8BF1846534B0A229842B8BFE2
:1022900018466A43514BE852514B0235042D42F81F
:1022A00003A07FF457AF3B792BB1049864224D4BC8
:1022B00090FBF2F21A803B884B4C9B450ED9D4F828
:1022C000A831D4F87401C01A06F0E6FD42F210738A
:1022D0000028B8BF404298427FF704AA434B01222E
:1022E0001A70B4F8FC203F4B1A80FFF7FBB9404A44
:1022F000116890460F7817B1012F0DD0ABE0012B7C
:1023000000F2A98062783B4B03EB02133A4A59680A
:10231000106802F0D4F99BE0374E306802F0CAF939
:10232000B146002800F097802378344D022B29D045
:10233000032B31D0012B40F08E80314B1F686B692D
:10234000FB1A632B40F287802B69042B18D8DFF827
:10235000A480306808EB0313596802F0B0F96B7879
:10236000366808EB03139D6815F8011B19B1304658
:1023700006F021F9F8E723696761013323616AE018
:10238000022066E06A781B4B306803EB0213596841
:1023900002F095F903205CE02B7E03B92F76237EB3
:1023A000164D012B36D12B697B2B2FD8154AD9F826
:1023B0000000D15C06F0FFF82B6901332B6129E0A6
:1023C000182D4454FB211940D3023739D815002069
:1023D00018FCFFFF0000F03F48F4FFFF90030020CF
:1023E000B015002040150020380D002058150020A1
:1023F000E80900202CF20008EC090020CC0900209C
:10240000C016002054F700089C0E002000232B610A
:1024100002232B76237E284D022B16D12B690F2BFE
:1024200011D8D8F8002025495278D9F8000002EBDD
:1024300002120A44134493F87D1006F0BCF82B698D
:1024400001332B6101E003232B76237E022B02D97B
:10245000042002F0D5FF0023636029E063680522B1
:1024600001336360637801200133DBB2B3FBF2F226
:1024700002EB82029B1A6370114B00221B68A3605F
:10248000104B1A70104B1A7822F002021A700DE0ED
:102490000B4B1A68A368D21A40F6C4139A4207D9A4
:1024A0000A4B05201A6822F020021A6002F0A8FFE9
:1024B00011B0BDE8F08F00BFCC09002054F7000830
:1024C000C0160020180500209E02002028020020CF
:1024D0002DE9F74F04F00AFC10B90A2003F0E2FAE4
:1024E0008C4C40F2A45220468B490BF001F894F832
:1024F000A0354FF49A72022B84BF002384F8A035D4
:1025000094F8A035854F02FB034303F501733B604C
:10251000A36842F201021A403AB944F208021A4092
:102520001AB97C4A43F400539360A368DB0703D5D0
:102530004FF4005006F056FBA3685E0409D508204E
:1025400006F050FB4FF4005006F04CFB012006F063
:1025500049FBA3681D0706D54FF4005006F042FB67
:10256000012006F03FFBA36898040ED54FF400400D
:1025700006F038FB4FF4006006F034FB4FF4803077
:1025800006F030FB402006F02DFBA368590603D56A
:102590004FF4803006F026FB614B624D1D6002F067
:1025A000F3FB614B05F11A0201201A6004F062FC92
:1025B0000146012004F04AFB002840D0022004F02C
:1025C00059FC0146022004F041FB002837D01020BE
:1025D00004F050FC0146102004F038FBA3681A06F2
:1025E00000D560B3082004F045FC0146082004F043
:1025F0002DFBA3681B0700D508B3042004F03AFCA8
:102600000146042004F022FBA3685E0503D40023E6
:102610001A46194609E00028F9D110E079B90121DC
:10262000C00708D40C33182B0BD040481844007A4C
:102630008507F5D5F2E70132D2B2022AF2D904F0C9
:1026400093FA3868002390F8516090F8505003FBDB
:1026500003F11939714301F6C4115943694340F636
:10266000C41291FBF2F1324A22F813100133072B06
:10267000EDD190F85230B4F8D0E0B4F8D22090F810
:1026800053C0CEEB0202C3F1640B03EB83085D423F
:1026900001925FFA8BFB4FEA4808CCF16409ADB2B6
:1026A0000022AEB231B2002904DC002E14BF1E4657
:1026B000012600E05E4601FB01FA76430AFB0CFAB4
:1026C0009AFBF6F64E4471434FF00A0A91FBFAF179
:1026D00008EB0106019936B24E434FF47A7196FB2E
:1026E000F1F614497644565202325544182AADB2D6
:1026F000D7D1114B114A1360114A4C331360027841
:10270000104B012A03D0022A22D00F4A21E00F4A9F
:102710001FE000BFC416002000F80108B801002027
:10272000EC000020D2170020C40700202C0000205D
:10273000F014002008150020B8170020D401002054
:10274000C404002070000020C55F0008315E00084E
:102750003F4A1A603F4B00F5947204301A6006F04D
:102760004BFB3D683C4E05F58E7333603B4B0022BE
:102770009A803B4B3B4A05F1DC0113603A4AB4F8BE
:10278000F0001160394AA3F122011160384AA3F127
:1027900028011160374A05F592711160364A2C33D1
:1027A0001360364B364A1A60364B05F593721A6041
:1027B00008F060F9B060B4F8F20008F05BF995F841
:1027C0006030321D337195F87C30F060737194F88D
:1027D0002331B5F8D80033742B4B1A602B1D73616D
:1027E00005F16C03B361294B05F168021A6008F02A
:1027F00045F90146264808F049FA07F0CFFD10A335
:10280000D3E9002307F01EFE08F02EF8214B1860D4
:10281000686E07F0C3FD0CA3D3E9002307F012FE96
:1028200002460B4600201C4907F036FF08F01CF852
:102830001A4B186003B0BDE8F08F00BFAFF3008003
:102840003B597E90A9E78140182D4454FB21094053
:102850004562000888030020FC0E00209C0900202F
:10286000BC1700204402002060040020A0040020C7
:10287000640400209C030020680400206C040020F5
:10288000D21700207404002078020020D402002017
:1028900000006144840300200000E03FC4020020E7
:1028A00070282DE9F84300F0858200F2D280692873
:1028B00000F00F8200F2A480662800F0668100F22A
:1028C0009480642800F03681652840F038840B201D
:1028D00001F06EFDCF4BB3F9000001F06CFDCE4B63
:1028E000988B00B201F067FDCC4B1B68C3F3C000AE
:1028F000C3F38002800040EA4200C3F34002104369
:10290000C3F3401240EAC20003F01003184301F081
:1029100052FDC34B1A88C34B02F0080493F806908B
:1029200093F8078093F808C044EA891444EAC8146D
:1029300044EA0C2493F80CC012F0010F44EA0C3462
:1029400093F80DC00CBF4FF0000E4FF0020E44EA9A
:102950004C3493F80FC012F0020F44EACC3493F8D1
:1029600010C00CBF0027042744EA0C4493F811C0A0
:1029700012F0040F44EA4C4493F812C00CBF002636
:10298000102644EA8C4493F813C01B7D44EACC44DF
:1029900044EA0354A44B12F0400F1B780CBF0025EF
:1029A0002025C3F380031C4344EA0E043C4312F089
:1029B000100F44EA06040CBF00204FF400702C43B3
:1029C00012F0200F0CBF00214FF480610443974B9D
:1029D00012F4807F44EA01040CBF00224FF400622D
:1029E0000020197814430346BAE0672800F00681F6
:1029F000682840F0A483102001F0DAFC002460E194
:102A00006C2800F0798117D86A2800F02A836B2897
:102A100040F09583052001F0CBFC854BB3F9000015
:102A200001F0C9FC834BB3F9000001F0C4FC824BF8
:102A3000187800F0010006E36E2800F06D8100F2C6
:102A40009381062001F0B4FC002001F0D9FC0020A5
:102A500060E3772800F0BD8245D8732800F0F68245
:102A600039D8712800F03882722840F06883734C9E
:102A7000162001F09DFC002001F09DFCB4F9D0006F
:102A800001F099FC6E4DB4F9D20001F094FCB4F958
:102A9000D40001F090FC2B68B3F91E0101F08BFC0F
:102AA000002001F088FC002001F0AAFC2B68B3F99B
:102AB0005A000A2390FBF3F001F07DFC94F8040126
:102AC00001F047FC94F8060101F043FC94F805017D
:102AD00001F03FFCB6E2752800F0F28100F294822A
:102AE000002701244DE2A02800F017830AD8782897
:102AF00000F0B8807B2840F02283082001F058FCC9
:102B00000024D2E0F02800F0F982FE2800F0EA82EA
:102B1000A42840F01483404D002495F820002E4650
:102B200080000130C0B201F043FC95F8200001F0B4
:102B300010FCBFE20720414C01F03AFCE62001F016
:102B400008FC607901F005FC002001F002FC94F81B
:102B500024013C4B3C4A00280CBF10461846E9E2D1
:102B60008B420CD2394A9D5C012202FA05F52542BE
:102B700018BF9A4003F1010318BF1043F0E701F0BA
:102B80003FFC2E4B93F8A0055DE2122001F010FCF3
:102B90002F4B304C1B88B3F5806F22D90025605F26
:102BA000082390FBF3F0023501F005FC062DF6D169
:102BB000294CB4F9000001F0FEFBB4F9020001F069
:102BC000FAFBB4F90400254C01F0F5FBB4F9000060
:102BD00001F0F1FBB4F9020001F0EDFBB4F90400DF
:102BE00098E2B4F9000001F0E6FBB4F9020001F04C
:102BF000E2FBB4F9040001F0DEFBD9E7102001F09C
:102C0000D7FB0024164B185D013401F0A2FB102CF9
:102C1000F8D191E2E4020020FC0E002028020020FE
:102C200002030020EC020020941C0020DD0700209D
:102C3000480500204C050020971C0020C4160020E9
:102C4000B80100203C00008034000080C80700204C
:102C50000000002088020020DC0200202606002060
:102C60005E000020382001F0A3FB0025B04E05F1E6
:102C70001B043368E4002344B3F9040001F09BFB18
:102C8000336801352344B3F9060001F094FB33683F
:102C90002344B3F9080001F08EFB33681C44A07A8A
:102CA00001F057FB082DE1D146E2A14B1B6803EB75
:102CB000C40393F8E300013401F04BFB082CF4D17A
:102CC0003AE29C4B185D013401F043FB102CF8D123
:102CD00032E2994D00242878400000F0FE0001F017
:102CE00067FB2B789C4280F02782944B33F91400C9
:102CF00001F061FB0134F4E7914C062001F058FB30
:102D0000B4F9000001F057FBB4F9020001F053FBE5
:102D10008C4BB3F90000FDE1072001F049FB8A4B21
:102D20004FF6FF74187801F014FB884B1868A04226
:102D3000A8BF204620EAE07000B201F03CFB844BC3
:102D4000B3F9000001F037FB824B93F80C21824B62
:102D500018680028B8BF40420AB10A235843A0426D
:102D6000A8BF204600B2D5E1714C072001F020FB3E
:102D7000236893F8500001F0ECFA236893F85100AF
:102D800001F0E7FA236893F8540001F0E2FA2368AF
:102D900093F8550001F0DDFA236893F8560001F02E
:102DA000D8FA236893F8520001F0D3FA236893F815
:102DB000530048E15E4D1E2001F0FAFA2B68002412
:102DC0001B78022B69D12B68644903EB8403586A92
:102DD00007F0A8FE0AF0FAFDFA28A8BFFA2020EAB8
:102DE000E070C0B201F0B5FA2B685D4903EB8403D3
:102DF000186B07F097FE0AF0E9FDFA28A8BFFA2041
:102E000020EAE070C0B201F0A4FA2B68554903EB48
:102E10008403D86B07F086FE0AF0D8FD6428A8BFAB
:102E2000642020EAE070C0B2013401F092FA032C71
:102E3000C9D1072C2B681ED1986C484907F072FE47
:102E40000AF0C4FDFA28A8BFFA2020EAE070C0B258
:102E500001F07FFA2B684149D86C07F063FE0AF055
:102E6000B5FDFA28A8BFFA2020EAE070C0B201F050
:102E700070FA00200BE02344187901F06AFA2B68FD
:102E80002344987B01F065FA2B682344187E0134B3
:102E900001F05FFA0A2CCCD14EE12B68234418795B
:102EA00001F057FA2B682344987B01F052FA2B6803
:102EB0002344187E013401F04CFA0A2CEDD13BE199
:102EC0002F2001F075FA284C14F8010F002800F0AB
:102ED000338101F03EFAF7E7244D00242878800082
:102EE00000F0FC0001F064FA2B789C420CD2204ADE
:102EF0000F4BA25C1B68203253F822000134C0F350
:102F00000B0001F058FAEFE700242B789C4280F088
:102F10001381074B164A1B68A25C013403EB820342
:102F2000B3F88200C0F30B0001F045FAEDE700BFF3
:102F3000B80100206A1C0020B30900207A04002098
:102F4000A8020020B8020020D4040020DC040020E5
:102F500066150020C4160020D8040020000020417F
:102F60000000C84200007A4427F80008DD0700206E
:102F7000C8070020002C00F0DF80F8B201F018FA3A
:102F8000002400256F4B1B789D42F3DA6E4BE95C01
:102F900000236E4A03EB02089A5C8A4204D00C3389
:102FA000B3F5847FF5D112E0D8F804000AF0EAFA0C
:102FB00081460CB9264601E0074408E04E4506DA92
:102FC000D8F80430985D01F0C4F90136F6E7013510
:102FD000D8E75C4D0024287801F0EAF92B789C4270
:102FE00080F0AA80584BE05C0023584A99189A5CFC
:102FF000824204D00C33B3F5847FF6D102E0087A24
:1030000001F0A7F90134E9E701F086F9064612203C
:1030100001F0CEF9002E46D14D4B1D685C6830465C
:1030200001F097F9284601F0EBF9204601F0E8F9A4
:10303000484B186801F0E4F9002001F0BCF90020C9
:1030400001F0B9F9002001F084F975E0082001F0E1
:10305000AFF90124E0B2013401F07BF9092CF9D178
:103060006AE0102001F0A4F93B4B3C4C187800F0CA
:10307000020001F06EF93A4B187801F06AF9206805
:1030800001F0BEF9606801F0BBF9364BB3F90000FE
:1030900001F091F9344BB3F9000001F08CF9334B96
:1030A000B3F91E0036E0102E01D1314BB5E70024F4
:1030B0002546B4E796F820309C423DD22D4D285D40
:1030C00001F047F905F11003185D01F042F905F12F
:1030D0002003185D303501F03CF9285D01F039F925
:1030E0000134E7E7082001F063F90024224B185F60
:1030F000023401F060F9082CF8D11DE01F4C0420C7
:1031000001F056F92368B3F95E0001F054F9236821
:10311000B3F95C0001F04FF90EE00C2001F048F922
:10312000174B186801F06CF9164B186801F068F934
:10313000154B186801F064F90120BDE8F883002000
:10314000BDE8F883DD070020C807002058F8000814
:10315000441500204C1500209E020020E0040020B1
:10316000180500204A05002046050020FC0E00201E
:10317000501500201D0F00205E0F0020B801002018
:10318000E8F7FF1FECF7FF1FF0F7FF1FAFF300801A
:10319000234B70B519684FF47A73B1FBF3F1214BEF
:1031A00021481A78214B224D1B7801F095FB214BC9
:1031B00021481968214B2E68B1FBF3F101F08CFB1B
:1031C00000241F4BE2B253F8221049B1012303FA45
:1031D00002F2324202D01B4801F07EFB0134F0E7DC
:1031E0002A6892070DD5184A1848127803EB820313
:1031F000196A01F071FB164B197A11B1154801F0EB
:103200006BFB154801F03AF9BDE87040134B1448C8
:103210001A88144B92B2198840F2A45301F05CBB97
:10322000C0160020D4040020B40801087400002057
:103230002802002078000020F208010840420F0018
:1032400060F9000810090108951C00201409010804
:103250002C0200201E09010866120108180F002028
:1032600022090108E40200202DE9F04F724985B0DF
:1032700004460AF04FF97149002820460CBF012688
:1032800003260AF047F9002808BF0226F20740F19A
:10329000BE806B4801F020FB6A4801F0EFF86A4FEE
:1032A0006A4801F019FB6A4801F016FB7A79694B0C
:1032B000694803EB8203596C01F00EFB3869002169
:1032C00007F0C4FD00285CD13C460546D4F81080C8
:1032D0000021404607F0BAFD00284ED101355F4875
:1032E0002946D4F814B0D4F818A0D4F81C9001F0F2
:1032F000F3FA4046002107F0B3FD10B1584801F041
:10330000EBFA6946404601F065FD0146554801F07B
:10331000E3FA5846002107F0A3FD10B1504801F030
:10332000DBFA6946584601F055FD01464D4801F06B
:10333000D3FA5046002107F093FD10B1484801F040
:10334000CBFA6946504601F045FD0146454801F07B
:10335000C3FA4846002107F083FD10B1404801F050
:10336000BBFA6946484601F035FD01463E4801F08A
:10337000B3FA0C2D04F11004A8D13C48691C01F0EB
:10338000ABFA3B4801F0A8FA3A4CD7F8088054F859
:10339000041F19B1384801F09FFAF8E70C46374B83
:1033A00053F8245055B10123A34013EA080F03D06A
:1033B0003348294601F090FA0134F0E7314801F032
:1033C0008BFA29467B1893F80E3104AA13442E4A2F
:1033D0008A5C0131082903F8102CF3D100236946D7
:1033E0002A488DF8083001F077FA294801F074FA7C
:1033F000284806F0E1F9284801F06EFA254801F066
:10340000D9FB264801F068FA402006F007FDB30713
:103410000ED5234801F060FA224801F05DFA1D48FC
:1034200001F096FB1D4801F057FA802006F0F6FCEB
:1034300005B0BDE8F08F00BF540901085B09010821
:103440006309010871090108C4160020A3090108D5
:10345000B509010860F90008C1090108CC09010893
:10346000570F01081B09010837120108D409010888
:10347000E609010800FA0008F609010804FA000844
:10348000040A0108110A0108050C01081D0A0108B7
:10349000260A0108880F0108320A0108661201088D
:1034A000400A0108530A010808B540F2E9330D4A01
:1034B0001189890709D5908140F2E933094A1189B8
:1034C000C9070AD59089C0B208BD013B9BB2002B49
:1034D000EDD105F07CFDFF2008BD013B9BB2002B28
:1034E000ECD1F6E7003001402DE9F74F9F4E9B46A7
:1034F00033780C4691465A1C054606F8042B0068A2
:10350000224649460C275F4306F0BAFBAB68686861
:10351000ADF8043018238DF8063001A902238DF888
:10352000073005F01BFD2B7B06EB070A2C680C2BE4
:1035300000F2F280DFE813F00D00F000F000F00080
:103540004D00F000F000F0008200F000F000F0000C
:10355000B600238C864823F001031B041B0C238434
:10356000218CA288238B844223F073034FEA034308
:103570004FEA134389B292B243F0700314D000F5BE
:103580000060844210D000F5406084420CD000F509
:103590008060844208D000F58060844204D021F02D
:1035A000020141F0030107E021F00E0122F4407214
:1035B00041F0030142F48072A2802383A4F834B066
:1035C0002184238B23F008031B041B0C43F0080306
:1035D00032E0238C664823F010031B041B0C238469
:1035E000218CA288238B844223F4E6434FEA0343D1
:1035F0004FEA134389B292B243F4E04308D000F596
:103600000060844204D021F0200141F0300107E045
:1036100021F0E00122F4406241F0300142F4806286
:10362000A2802383A4F838B02184238B23F4006381
:103630001B041B0C43F4006323836DE0238C4C4874
:1036400023F480731B041B0C2384218CA288A38B7E
:10365000844223F073034FEA03434FEA134389B2D2
:1036600092B243F0700308D000F50060844204D0A9
:1036700021F4007141F4407107E021F4606122F40B
:10368000405241F4407142F48052A280A383A4F8D6
:103690003CB02184A38B23F008031B041B0C43F0D4
:1036A000080338E0B4F820C0314A2CF4805C4FEABB
:1036B0000C4C4FEA1C4CA4F820C0B4F820C0A388DE
:1036C000B4F81C802CF4005C28F4E6484FEA084863
:1036D0004FEA0C4C4FEA18484FEA1C4C94429BB2FC
:1036E00048F4E0484CF4405C03D002F50062944298
:1036F00003D123F4804343F48043A380A4F81C80C7
:10370000A4F840B0A4F820C0A38B23F400631B04EA
:103710001B0C43F40063A383AB7B43B1B4F8443088
:103720006FEA43436FEA53439BB2A4F844302388C3
:103730009BB243F0010323802B7B0C2B10D8DFE8D6
:1037400003F0070F0F0F090F0F0F0B0F0F0F0D00D7
:10375000343404E0383402E03C3400E04034F451C6
:103760005046AAF8049003B0BDE8F08F680F00201F
:10377000002C0140434A2DE9F84F916840F20113B3
:103780000B4040F201118B4293460CD13E4B93F813
:10379000942093F8959083F89520B9EB020918BF0F
:1037A0004FF0010901E04FF001094FF00008374BDD
:1037B0005FFA88F41B78A34261D9354B354E1B68FC
:1037C000354F23B93B685B8926F8143054E03A68DA
:1037D000072C94BF12F804A0A2462C4851469847E3
:1037E000DBF808300546DB0509D5B9F1000F06D036
:1037F0002A4B50461B6829461B68DB699847A5F28F
:10380000EE2240F2DC5392B29A4288BF3B68DBF86A
:10381000082088BF5D8942F20103134053B3204B57
:103820001978194B01F0030202EB840293F8F600B9
:1038300003EB4202A2F896501A4620B9032919D97F
:10384000012183F8F61002EBC403B3F89810B3F823
:10385000965002EB44020D44B3F89A10B3F89C3032
:103860000D441D44ADB2A2F8F85004232DB295FBCF
:10387000F3F5ADB226F8145008F1010897E7BDE85A
:10388000F88F00BFC4160020680F0020B309002085
:10389000BC0900207A040020EC000020A8010020D0
:1038A00064150020094B30B59D68094B05F480551F
:1038B0001868084B1C6800230DB1828800E0A288BC
:1038C00005495A520233182BF6D130BDC4160020D8
:1038D000A004002064040020A40400202DE9F04F7F
:1038E000994D89B0D5F810319A8A92B20292029A13
:1038F00012F4706F1CBF012285F81421029A12F491
:10390000E06F00F013811A8B9A8822F4806212040F
:10391000120C9A80029A960500F108811A88940583
:1039200000F104811A88D00540F1F5801A88D1058C
:10393000FCD41A8892B242F400721A801A88920556
:10394000FCD495F81581814B1421B8F1010F28BFE3
:103950004FF0010801FB08327D4FD2F80001FC69ED
:10396000B2F8F860B2F8FAA0D2F8F0B02043D2F87A
:10397000F4404AEA06090222C5F810B185F815811B
:10398000F861C4F8109020468DF80E1003A98DF848
:103990000F20ADF80C90009305F0E0FA0822019298
:1039A000A268164203D10A2000F06AFEF8E70A2056
:1039B000666100F065FE26610A2000F061FE019B51
:1039C000013B0193ECD10A20C4F814A000F058FE8A
:1039D0000A20666100F054FE0A20266100F050FEC5
:1039E0000222C4F810A020468DF80F2003A91C2243
:1039F0008DF80E20ADF80C9005F0B0FA554A9345BD
:103A00003A6905D142F400123A614FF4001004E023
:103A100042F480023A614FF4800000F0FBF9BBF8F9
:103A2000042003A822F440721204120CABF8042004
:103A3000BBF80020142792B242F00102ABF800203C
:103A4000BBF8044000F03BF924F03F0405984249DC
:103A50002404B0FBF1F1240C0C43A4B2ABF80440F5
:103A6000BBF80020002422F001021204120CABF873
:103A700000203A4A0126B0FBF2F24FF4967041431F
:103A800092B24FF47A70002A91FBF0F108BF012244
:103A9000013142F4004289B2ABF82010ABF81C208F
:103AA000BBF8002003A892B242F00102ABF800205C
:103AB000BBF8002022F4816222F002021204120CF0
:103AC000ABF800204FF48042ABF808201F4A8DF875
:103AD0000D4007FB082898F8FD308DF80E408DF852
:103AE0000C308DF80F6000F0DFFA98F8FC309DF88C
:103AF0000F208DF80C308DF80D401AB103A800F09E
:103B0000D3FA13E0590903F01F039E40144A2031F1
:103B100042F821600AE01A8892B242F400721A80D8
:103B20009A8822F440721204120C9A80D5F810215F
:103B3000938A23F470631B041B0C9382002385F883
:103B4000163109B0BDE8F08F680F002060F9000859
:103B5000001002400054004040420F00804F12000D
:103B600000E100E013B5012204464FF6FF71006842
:103B700006F086F8236801A81A8892B242F0010282
:103B80001A80637B8DF8043001238DF805308DF8A1
:103B900006308DF8073000F087FA02B010BD00BF84
:103BA000084BDA68D10709D4DA68520708D4DB6811
:103BB00013F0100F0CBF0420032070470120704742
:103BC00002207047002002401E4B2DE9F0431A7876
:103BD0001D460AB31C4B07781E781C4B93F800C097
:103BE00002231B4A03F10108D45C344104F00F04A2
:103BF000BC420CD20B2C0AD812F8039012F80880A1
:103C000002EB840209EA0C0408EB04241461023379
:103C1000102BE6D100232B7003788B420FD90C4B6D
:103C200093F8400060B10B4A890012780B44186980
:103C300002B1400800F5777080B2BDE8F083002043
:103C4000BDE8F083F0000020B0090020B109002099
:103C500080100020B2090020024B53F82100C0F36D
:103C6000CF00704764010020034B53F82100400847
:103C700000F5777080B270470C010020014B33F8DB
:103C8000110070477A040020024B03EB4101B1F8A8
:103C90004200704780100020014B186804F08BBC74
:103CA000E011002038B50C680546204609F06AFC92
:103CB000214602462868BDE8384009F06BBC1F4B1E
:103CC00010B55A6802F00C02042A03D0082A04D066
:103CD0001B4A14E01B4A126811E05A685968C2F383
:103CE0008342C90302F1020201D4174906E0596870
:103CF00011F4003F1349096818BF49084A4302609C
:103D00005968124AC1F30311545C0168E1404160F3
:103D10005C68C4F30224145D21FA04F484605C68D6
:103D2000C4F3C224145DE140C1605B68C3F3813316
:103D30001A44137CB1FBF3F1016110BD0010024085
:103D400000127A001400002000093D004800002005
:103D500070B5447986B004F00403866803F0FF056B
:103D600023B14FF480654FF4005300E02B4614F06C
:103D7000010F14BF04220022A107046D48BF42F0C6
:103D80000802218A48BF92B289B221F440510B4304
:103D90002382A38901A89BB223F4B05323F00C0320
:103DA0001D432A43A281A38A23F440731B041B0CE6
:103DB000A382FFF784FF1649049A039B8C4208BF35
:103DC0001346A2891921594312B2002AB4BF7600C2
:103DD000B600B1FBF6F16423B1FBF3F21201100956
:103DE00003FB1011A08900B2002806DAC9003231A5
:103DF000B1FBF3F303F0070305E009013231B1FB36
:103E0000F3F303F00F031A4392B2228106B070BDA0
:103E100000380140024B1A6922EA0000186170471D
:103E20000010024010B50446FFF7BAFE012806D183
:103E30001CB1FFF7B5FE013CF8E7052010BD002CD2
:103E400008BF052010BD038A828911EA030092B2DF
:103E500003D011420CBF0020012070477C4B70B58D
:103E60001B78012B0CBF0325002599BB048C24F083
:103E700001042404240C0484038B048C9BB223F0DF
:103E8000F30343F0010343EA0515724BA4B29842D1
:103E900015D003F50063984211D0B0F1804F0ED0D9
:103EA000A3F5983398420AD003F58063984206D070
:103EB00003F58063984218BF24F00A0401D124F06E
:103EC000020444F00104224305830284038B23F09F
:103ED0000C033AE004293FD1048C5E4B24F010041B
:103EE0002404240C0484018B048C21F44071090502
:103EF000090D41F480719842A4B241EA053512D00F
:103F000003F5006398420ED0B0F1804F0BD0A3F5BB
:103F10009833984207D003F58063984203D003F5A5
:103F20008063984207D124F0200444F0100444EA4E
:103F3000021292B204E024F0A00444F010042243E0
:103F400005830284038B23F440631B041B0C03834F
:103F5000038B9BB2038370BD0829018C37D121F4F8
:103F600080710904090C0184838B048C9BB223F0BB
:103F7000F30343F0010343EA0515364BA4B298421C
:103F800012D003F5006398420ED0B0F1804F0BD0F1
:103F9000A3F59833984207D003F58063984203D085
:103FA00003F58063984207D124F4007444F48074CC
:103FB00044EA022292B204E024F4206444F48074BF
:103FC000224385830284838B23F00C0338E021F4A1
:103FD00080510904090C0184838B068C23F44073FF
:103FE0001B051B0D43F4807343EA0535194BB6B22C
:103FF000984212D003F5006398420ED0B0F1804F82
:104000000BD0A3F59833984207D003F5806398420C
:1040100003D003F58063984207D126F4005646F496
:10402000805646EA023292B205E047F6FF54344029
:1040300044F48054224385830284838B23F44063B9
:104040001B041B0C8383838B9BB2838370BD00BFD7
:104050007C080020002C014038B5114C04EB001402
:10406000A278E36842B90122A270A1801868197B86
:104070000222BDE83840F1E6A288E1806078891A22
:10408000084A89B202EB40020025A2F84210A5704E
:1040900021811868197B2A46FFF7E0FEA57238BD1A
:1040A000C80800208010002010B5104B4178DB6854
:1040B0008478DB43C3F30223C3F1040201FA02F262
:1040C0000F21D94021401143094B02780901C9B29F
:1040D0001A4482F8001302780120510902F01F02ED
:1040E00000FA02F243F8212010BD00BF00ED00E00D
:1040F00000E100E02DE9F843574B0C460168013A16
:10410000C3F85A108188A3F85E10072A42D8DFE866
:1041100002F0040A101822292F35B3F85A20228001
:10412000B3F85C2013E0B3F85C202280B3F85A2087
:1041300005E0B3F85A2052422280B3F85C20524284
:1041400005E0B3F85C2052422280B3F85A20628026
:10415000B3F85E301DE0B3F85A2052422280B3F823
:104160005C2012E0B3F85C202280B3F85A200CE007
:10417000B3F85A202280B3F85C2005E0B3F85C2045
:1041800052422280B3F85A2052426280B3F85E3025
:104190005B42A380314B1B78002B5AD1B4F900004D
:1041A00006F06CFC8046B4F9020006F067FC074696
:1041B000B4F9040006F062FC294D06462968404621
:1041C00006F0B0FCE9688146384606F0ABFC0146D3
:1041D000484606F09FFBA9698146304606F0A2FCDE
:1041E0000146484606F096FB09F0F0FB696820801E
:1041F000404606F097FC29698146384606F092FC55
:104200000146484606F086FBE9698146304606F0DD
:1042100089FC0146484606F07DFB09F0D7FBA968FA
:104220006080404606F07EFC69698046384606F0AC
:1042300079FC0146404606F06DFB296A0746304688
:1042400006F070FC0146384606F064FB09F0BEFB40
:10425000A080BDE8F88300BF801000202800002067
:1042600050060020074B084A1B7812889A4207D351
:10427000064A1268907898428CBF0020012070474F
:1042800000207047D4040020340D0020300D0020A1
:1042900010B5194B93F86020511C83F86010174932
:1042A00002F007024878164903EB420331F8101078
:1042B000A3F8621000231846124A9A5A0233104497
:1042C000102B80B2F8D1C00806F0D8FB0E4906F0DA
:1042D00029FC0E4906F0DAFC0D4B04461B681878E1
:1042E00006F0CCFB0146204606F01CFC06F006FE5C
:1042F000084B187010BD00BF801000203806002049
:1043000048060020E21000203333534000F07F4580
:10431000300D0020D4040020034B1B68DA79511CB7
:10432000D9711344187A70476C05002010B5FFF757
:10433000F3FF0446FFF7F0FF04EB002080B210BD4E
:1043400010B5FFF7F3FF0446FFF7F0FF04EB004062
:1043500010BD064B10B504462146186804F02BF931
:10436000034B1B689A7954409C7110BD7005002066
:104370006C05002038B5044624200D46FFF7E9FF00
:104380004D20FFF7E6FF002C084C0CBF3E202120FB
:10439000FFF7DFFF2368002228469A71FFF7D9FF55
:1043A000236893F84900BDE83840D2E76C05002047
:1043B00001460020DEE7F8B50E4E0F4C0F4DC1B29E
:1043C0000746306884F8721004F0F5F82B6894F80A
:1043D00072109A7930684A409A71C7F3072184F8BD
:1043E000721004F0E8F82B6894F872109A794A4039
:1043F0009A71F8BD70050020801000206C05002027
:10440000F8B51B4D1B4C1C4F0646C1B2286884F8FA
:10441000731004F0D0F83B6894F873109A79286808
:104420004A409A71C6F3072184F8731004F0C3F868
:104430003B6894F873109A7928684A409A71C6F3D9
:10444000074184F8731004F0B6F83B6894F87310D1
:104450009A7928684A409A71310E84F8731004F0F2
:10446000AAF83B6894F873109A794A409A71F8BD9B
:1044700070050020801000206C05002010B5441E3F
:1044800014F8011F21B1034B186804F094F8F7E702
:1044900010BD00BF780800200048EFE7710901084F
:1044A000064B197A814207D01A7D824203D0084216
:1044B00002D1104001D00C33586870472C00002006
:1044C000F0B5137C012B29D80C255D43144C013326
:1044D00005EB040C9CF8086030421DD02D5D1DB129
:1044E000022D14BF022501250E4C4E7B04EB051452
:1044F00016B1277B3E420FD04F686668B7420BD398
:104500008F68A668B74207D815709460C2F804C0D7
:10451000D16013741046F0BDDBB2D3E70020F0BDCC
:104520002C00002078FA000810B5094A09491368E0
:104530008C6812689342F8D1074A106811684FF4EA
:104540007A725043001BB0FBF1F002FB030010BD78
:10455000C016002010E000E03406002038B5104CF2
:104560000123054684F84030FFF7DEFF636F41F218
:104570008832C31A9342A36784BF002384F87C3037
:1045800094F87C30EDB20F2B6067E55403D1054BF6
:1045900001221A7038BD024A013382F87C3038BDDE
:1045A00080100020F000002010B50446FFF7BCFF8B
:1045B000174AD2F88030C2F88000C31AB3F57A6F78
:1045C00084BF002382F8843092F8843023B9A82C69
:1045D0001CD110490B7006E0022B02D10E490C7061
:1045E00001E0242B01D80D49CC540133DBB282F811
:1045F0008430094A127852000532934206D1044BA6
:10460000002283F88420034B01221A7010BD00BFE2
:10461000801000203C010020620100203D010020AC
:1046200038B50446FFF780FF124B40F6C411D3F8AB
:104630008820C3F88800821A8A4284BF002283F847
:104640008C2093F88C200AB90F2C11D10A48002134
:10465000017052B1094D182A154405F8014C04D1D6
:10466000012283F88C10027038BD013283F88C204F
:1046700038BD00BF80100020F1000020F2000020B3
:1046800038B50446FFF750FF0546FFF74DFF401BC6
:10469000A042FAD338BD10B504462CB14FF47A705D
:1046A000FFF7EEFF013CF8E710BD08B503685B6952
:1046B000984708BD08B503681B69984708BD08B549
:1046C0000368DB68984708BD08B503689B6898478E
:1046D00008BD08B503685B68984708BD10B5054C70
:1046E0002068FFF7F6FF18B12068FFF7EDFFF6E747
:1046F00010BD00BF5405002038B5064C05465E21AC
:10470000206803F058FF20682946BDE8384003F0D0
:1047100052BF00BFC8040020024B5E21186803F09E
:104720004ABF00BFC804002010B50446C0B203F061
:1047300047FFC4F30720BDE8104003F041BF00BFAE
:104740004171FFF705BB8160FFF702BB2DE9F04F18
:10475000064689B00F4615469B462978002900F089
:10476000B880252902D001353046B0E06C78302C75
:1047700003D002354FF0000903E0AC784FF0010997
:104780000335A4F13003092B4FF000081AD8A4F127
:104790003003DAB2092A07D80A2B13DC0A2202FBFB
:1047A000083815F8014BF2E7A4F16103052B02D894
:1047B000A4F15703F0E7A4F14103052B02D8A4F1BB
:1047C0003703E9E76C2C03BF2C7801220135002266
:1047D000632C66D006D8252C77D0582C3FD0002CDF
:1047E00077D0BAE7732C63D002D8642C11D0B4E729
:1047F000752C02D0782C32D0AFE70BF1040A05AC4F
:10480000DBF800000A2112B10022234613E0234600
:1048100020E00BF1040A05ACDBF8000072B10028BF
:1048200006DA2D238DF8143040420DF1150300E017
:1048300023460A21002204F075F90DE0002806DA6B
:104840002D238DF8143040420DF1150300E023466E
:104850000A21002204F03EF9D34600941AE00BF13D
:10486000040303930DF1140ADBF80000102132B1A8
:10487000583C62426241534604F054F906E0B4F1F8
:1048800058035A425A41534604F024F9DDF80CB05B
:10489000CDF800A03046394642464B4604F07EF93A
:1048A0005BE730469BF800100BF10404B8470AE0C0
:1048B000DBF80030304600933946424600230BF1C6
:1048C000040404F06BF9A34647E730462146B84795
:1048D00043E709B0BDE8F08F0FB407B50A4904AB50
:1048E00008680A4953F8042B09680193FFF72EFF63
:1048F000074B1868FFF7DEFE0028F9D003B05DF81B
:1049000004EB04B0704700BF300600202C060020E6
:10491000E01100202DE9F047054608F033FE304B4A
:104920000446D3F808809A4690B92E48FFF7A6FDB2
:104930002D4B53F8241049B10123A34013EA080F6B
:1049400002D02A48FFF7C8FF0134F1E7284821E0E8
:1049500028462849224608F01DFE58B92648FFF788
:104960008DFD264C54F8041F0029EFD01F48FFF797
:10497000B3FFF7E72B7800262D2B03BF013504F199
:10498000FF344FF001094FF00009174B53F8267020
:1049900027B91B48BDE8F047FFF770BD28463946E8
:1049A000224608F0F7FDC0B90120B040830501D5CB
:1049B0001448EFE7B9F1000F03D004F013F91248DF
:1049C00004E040EA0800CAF808001048FFF756FD66
:1049D00039460F48BDE8F0477EE70136D5E700BF0E
:1049E000C41600200E0C010804FA00081009010882
:1049F000661201082A110108210C010800FA0008BA
:104A0000360C01084D0C0108610C01086B0C010803
:104A100037120108F8B5074608F0B4FD044638B966
:104A2000194B1A485A791A4B013A53F8221028E0C8
:104A300038461849224608F0ADFD60B91648FFF720
:104A40001DFD164C54F8041F19B11548FFF744FF1B
:104A5000F8E7144805E000250D4B53F8256026B90A
:104A60001148BDE8F840FFF709BD384631462246F7
:104A700008F090FD01350028EED1034B0B485D7125
:104A80003146BDE8F84027E7C4160020740C010841
:104A9000A8F900082A110108880C0108A4F90008E7
:104AA00010090108661201089B0C0108B00C0108EE
:104AB00070B5044608F066FD08B91E482EE0204691
:104AC0001D4908F0D9FD00242646254678B12CB1B1
:104AD000012C06D108F0ABFD064602E008F0A7FD68
:104AE000054615490020013408F0C6FDEEE70B2D00
:104AF00004D9BDE8704011480C21EDE6012C07DC1B
:104B00000F4B294633F915200E48BDE87040E3E607
:104B1000A6F57A73B3F57A7F03D90B48BDE87040E8
:104B2000DAE60A4829463246FFF7D6FE044B23F858
:104B3000156070BDC20C0108570F0108FC0C01087C
:104B4000A4040020220D01083A0D01085C0D0108A3
:104B500038B5054608F016FDC0B270B90446124BD0
:104B600004F120021B682146104853F8222001342A
:104B7000FFF7B2FE152CF2D138BD284608F057FDDC
:104B8000142804460BDC2021284608F0EEFC08F02F
:104B90004EFD054B20341B6843F8240038BD044803
:104BA0001521BDE8384097E6B8010020750D0108D1
:104BB000810D01082DE9F743044608F0E3FCC0B27B
:104BC00090B9304C054694F8C711B4F8C42194F854
:104BD000C6312D48009129460135FFF77DFE102D85
:104BE00004F10404EFD14AE0204608F020FD0F282C
:104BF000054636DC2046202108F0B7FC234FEDB2F5
:104C0000D7F80090441CAD000026204608F00FFDA8
:104C10005FFA86F8B8F1010F83B208D0B8F1020F3D
:104C20000BD0B3F5B47F1ED23A6853530AE0FF2B82
:104C300019D83B682B44987004E0FF2B13D83B68CD
:104C40002B44D87020462C2108F08FFC044608B174
:104C5000441C02E0B8F1020F05D10136032ED4D175
:104C60000DE00B4806E009EB05000021042208F0E6
:104C700048FC0848102103B0BDE8F0432CE603B01F
:104C8000BDE8F083C4160020A70D01081C0D00200C
:104C9000BB0D0108DF0D0108054B5A68824204D0A4
:104CA0001A690C33824218BF002300225A727047DF
:104CB0002C00002070B50546441E14F8011F61B198
:104CC000064E304608F051FC0028F6D0861B0448FA
:104CD000631B304480F80E31EFE770BD050C01080E
:104CE000C41600207FB5044608F04CFC082824D1E7
:104CF00000231F49E25C09681144497801F003016F
:104D0000022908BF203AE2540133082BF1D10025D3
:104D1000665D1848314608F028FC28B10135601955
:104D2000314608F022FC18B11348FFF7A7FB1CE03E
:104D3000082DEDD12046FFF7BDFF1048FFF79EFB81
:104D400000230F4A04A91A4492F80E210A44094983
:104D5000595C0133082B02F80C1CF2D100230948DE
:104D600001A98DF80C30FFF7B7FD04B070BD00BF8E
:104D70007C000020050C0108ED0D01080D0E010856
:104D8000C4160020371201080F4970B500230C78B3
:104D90001A46D8B2844205D00D7B854208BF012057
:104DA0000CD100E000200C2505FB0010074D084E3B
:104DB000154495F828510132755D05720133052BB4
:104DC00001D0012AE5D970BD2C000020C4160020B6
:104DD000A80F010830B587B005460C4603A800218E
:104DE0000C2208F08EFB2846002106F057F820B16F
:104DF00028462A4905F08EFD03E02846274905F09C
:104E000087FD274905F08EFE06F052F8054685EA33
:104E1000E570A0EBE57069460A2203F0ABFE0023C3
:104E20009D420370ACBF20232D2368468DF80C30C3
:104E300008F0A8FB012807D130238DF80D308DF83C
:104E40000E308DF80F300CE0022805D130238DF89C
:104E50000D308DF80E3004E0032804BF30238DF8A8
:104E60000D30694603A808F073FB03A808F08AFB1D
:104E70000338C5B22A4603A9204608F0ADFB00233B
:104E800063552046074908F063FB03A920462944DF
:104E900008F05EFB204607B030BD00BF6F12033A3A
:104EA00000007A44220E010837B502790D4611063A
:104EB0000446836806D526494FF49A7091F8A015E8
:104EC00000FB013302F03F02042A12D006D8012A67
:104ED0000DD0022A2FD193F900102DE0102A0AD00C
:104EE000202A0AD0082A26D1B3F9001024E0197824
:104EF00022E0198820E019681EE069461868FFF76B
:104F000069FF01461348FFF7E7FCF5B1E06805F0DB
:104F1000B5FD6946FFF75EFF01460F48FFF7DCFC71
:104F2000206905F0ABFD6946FFF754FF01460A48CA
:104F3000FFF7D2FC09E000210848FFF7CDFC25B1BE
:104F40000748E1682269FFF7C7FC03B030BD00BF26
:104F5000C41600201B0901081A090108280E0108BF
:104F6000240E01082DE9F04389B0044608F00AFB3D
:104F7000C6B2002E6CD18B48FFF780FA8A4C2069AC
:104F8000002105F063FF40BB013688483146FFF73A
:104F9000A3FC206904A9FFF71DFF01468448FFF721
:104FA0009BFC606904A9FFF715FF01468048FFF7E5
:104FB00093FCA06904A9FFF70DFF01467C48FFF7A9
:104FC0008BFCE06904A9FFF705FF01467948FFF76C
:104FD00083FC0C2E04F11004D1D10025764C2F4611
:104FE0002B464FF00008B04504F1100415DA1846BE
:104FF00054F8101C05F08EFC54F80C1C8146284611
:1050000005F088FC54F8081C0546384605F082FC7B
:1050100008F101084B460746E5E768480193029509
:105020000397FFF72BFA002401ABE058644920F006
:10503000004005F033FF634B634A0434002814BF7B
:1050400010461846FFF71AFA0C2CEDD15F4891E094
:1050500020465F49052208F09DFA38B9524B0022DC
:1050600003441030C0281A61F8D197E0204659490E
:10507000042208F08FFA06462046002E40D1202157
:1050800008F073FA002800F08980451C284608F0D3
:1050900079FA34468046504B53F824600EB94F4895
:1050A00068E0284631465FFA88F208F073FA671C18
:1050B00020BB3D4B0021C2181030C02811619C4616
:1050C000F7D1474B002403EBC702D2F804E098461F
:1050D000BEF1000F04D143483146FFF7FDFB55E018
:1050E00018F837309C42F6DA23010CEB0305103533
:1050F00073440FCB013485E80F00F1E73C46CAE763
:1051000008F095FA461E0B2E074643DC2046202168
:1051100008F02BFA054640B1451C284603F044FC34
:10512000214B3F01D851012400E0044628462021AC
:1051300008F01BFA054640B1451C284603F034FC34
:10514000194B013403EB061358612846202108F05F
:105150000CFA054640B1451C284603F025FC124BCD
:10516000013403EB061398612846202108F0FDF96D
:1051700018B91D48FFF782F910E0013003F014FC64
:10518000094B032C03EB0616F061F2D11748FFF729
:10519000E9FE03E016480C21FFF79EFB09B0BDE8CD
:1051A000F08300BF330E0108C41600205E0E010814
:1051B000640E010837120108D8160020680E010895
:1051C0000AD7233C2F0E01082B0E01086612010896
:1051D000770E01087D0E0108A8F900089B0C010854
:1051E000DCF00008820E0108920E0108880F010809
:1051F000CC0E01088A6810B50C6A036814430A696A
:1052000023F4FF4314434A6923F0700314438A696B
:105210001443CA6914434A6A14438A6A22431343F3
:105220000360CB6843600B6883604B68C36010BD4C
:1052300002684FF6FE73134003600023036043606F
:105240008360C3602A4B984222D02A4B984229D0CF
:10525000294B984230D0294B984237D0284B98425E
:105260003ED0284B984206D153F8682C42F4700285
:1052700043F8682C7047244B984206D153F87C2C95
:1052800042F0706243F87C2C7047204B984206D164
:1052900053F8042C42F00F0243F8042C70471C4BC7
:1052A000984206D153F8182C42F0F00243F8182C1B
:1052B0007047184B984206D153F82C2C42F4706278
:1052C00043F82C2C7047144B984206D153F8402CCD
:1052D00042F4704243F8402C7047104B984205D17D
:1052E00053F8542C42F4702243F8542C704700BFFA
:1052F000080002401C00024030000240440002400E
:10530000580002406C000240800002400804024045
:105310001C0402403004024044040240580402408D
:1053200030B51049104A0C78104B84B11C681568D0
:105330000444A54214D3126800201A600C4A087075
:10534000117809B10139117001221A7130BD186844
:105350001468C830844203D31268012008701A60B0
:1053600030BD00BF3B150020C016002010110020EA
:105370006E02002037B51D4D8DF807306B798DF822
:10538000062002AA8DF804008DF805101A4412F8C0
:10539000042C443AD2B20F2A09D81549022B31F80D
:1053A000124008D894B12046FFF7BAFF0EE0022B56
:1053B0004FF0C804F7D90F4B1A682B68121B9342A1
:1053C00004D20A4A002353710B4A13702B79012B24
:1053D00000D04CB96B79022B02D8044A01335371C7
:1053E000064A00232B71137003B030BD101100204A
:1053F00098FA0008C01600206E0200203B1500201D
:105400000449054B0968002218701A6159611A761F
:10541000704700BFC0160020CC0900209248F0B5AC
:105420000368924A9C8AA4B2E1B211F0010F2ED017
:10543000198821F400610904090C1980198889B2BE
:1054400041F48061198000219171D17999B1117A6B
:1054500011B9517AFF290ED101211172917A0229D5
:1054600004D1198889B241F400611980D17A41F0E0
:1054700001011982E2E0D17A01F0FE011982537A2A
:10548000FF2B00F0DB80794BFF219971D6E08E076E
:105490003AD5BFF35F8F947AE4B2012C13D1D1795E
:1054A00089B1117A79B1198821F480610904090C54
:1054B0001980BFF35F8F198B1988147389B241F477
:1054C000007119801BE0198BBFF35F8F947A6749D5
:1054D000022C0AD1CC7944B1097A31B1198821F46E
:1054E00080610904090C1980A2E0947A5F49032CB9
:1054F00005D1CC791CB1097A002940F099809988AE
:1055000089B241F4806198E04D0756D501211173AD
:10551000D179002937D0117A002934D0917A947941
:10552000022919881DD921F480610904090C198008
:105530001E8A1169E5B2F6B264B20E551C88A4B297
:1055400044F400741C80AB1C9371036801351C8A01
:105550006DB2E4B24C55998889B241F4806199806A
:1055600026E089B241F4007119801E8A1569E1B202
:10557000F6B264B22E551B8A4C1C64B2DBB2033106
:105580002B55917114E0147A38490CB90C7D44B153
:10559000198889B241F400711980937901339371AC
:1055A00006E01C88A4B244F480741C8001230B72B2
:1055B00001680B88DB05FCD440E001F0400101F0FC
:1055C000FF05D9B191791F8A1669CCB2651C49B221
:1055D000FFB2EDB277549571967A6DB2E91C8E42A6
:1055E00005D1998821F480610904090C9980937A86
:1055F000AB4223D11D4B02349C711FE027061DD501
:1056000091794CB2661C0BD0956901312C5DC9B201
:10561000E4B21C82947A917149B28C420ED107E0B7
:10562000517A9571C9B21982D17909B9917A29B99A
:10563000998821F480610904090C9980947A92F97F
:105640000610621C9142094B0DD100221A721B7B7D
:1056500033B10268938823F440731B041B0C9380BE
:10566000034B00221A70F0BD7810002010110020AA
:105670007E100020F8B5624CE369624D581C297811
:1056800001F0FF0209B10346F7E7E3612284628477
:10569000668C5B4832B21F2A00F393805A4F07EBA7
:1056A0008201CB78897837F82220C1F1FF0189B2D5
:1056B00031B980F8243080F8253080F826306FE04A
:1056C000C1F1FF0159433C20B2FBF0F70912052F4D
:1056D00066D8DFE807F003112330405284F8243005
:1056E0005B1A5A433C27C8B2B2FBF7F2024484F873
:1056F000252084F8260053E0B2FBF0FE00FB1E22BA
:1057000092B2CFB2C2F13C02591A5143B1FBF0F050
:10571000384484F8240084F825303FE03C20CFB2A0
:1057200084F82530591AB2FBF0F300FB132384F8F8
:1057300024709BB22EE03C20B2FBF0FE00FB1E2248
:1057400092B2CFB2821A591A5143B1FBF0F084F8E9
:10575000247007440CE0B2FBF0FE00FB1E22CFB227
:1057600092B2591A5143B1FBF0F0384484F8240046
:1057700084F8257084F8263012E03C20CFB284F8FB
:105780002430591AB2FBF0F300FB13239BB284F8C8
:105790002570C31A4B43B3FBF0F0074484F826701E
:1057A0001A4B94F82500A36203F0BCFB94F8240084
:1057B00003F0B8FB013694F8260003F0B3FB6684CF
:1057C00066E7038C40F22932934205D8104A002143
:1057D000D15401339BB2F5E7238401232B700D4B89
:1057E00040F22A325A600C4A00219184118889B211
:1057F00041F0010111801A6842F001021A60F8BDFF
:1058000010110020921C00208C0500203411002073
:10581000F00900206C00024000040040826A8169A7
:10582000436B1144D960416A914203D98A1A5A6084
:10583000816204E001698A1A5A60002282620022B1
:1058400080F844201A6842F001021A6070474B88C1
:1058500010B5DC0607D52D4B14791B6853F824408E
:105860002B4B43F820404B889B0607D5274B547998
:105870001B6853F82440264B43F820404B881C07F4
:105880000DD5244B0C781B78B3EB141F07DB1F4B93
:10589000D4781B6853F824401D4B43F820404B88B4
:1058A0009B070DD51C4B0C781B78B3EB141F07DC42
:1058B000164B54781B6853F82440154B43F820408E
:1058C0004B88DC070ED5154B0C781B7804F00F04C1
:1058D0009C4207DC0D4B14781B6853F824400C4B9A
:1058E00043F820404B885B070ED50D4B09781B7899
:1058F00001F00F01994207DB044B92781B6853F8C3
:105900002220034B43F8202010BD00BF1C0D0020B7
:105910008C0500201F0600201D0600201C0600200C
:105920001E060020F8B501210446FEF78CFA012876
:105930003B4F01D0002616E04FF6FE732382A68D62
:105940000025B6B22046795D03F0B8FA354B142233
:1059500002FB0030C36813B1007C31469847023522
:10596000082DEFD1E6E7BD5D95B920460221FEF78F
:105970006AFA012850D14FF6FD732382294620464A
:1059800003F09CFA274B142202FB0030A18E3EE06C
:10599000042D12D120462946FEF755FA01283BD1A5
:1059A0004FF6FB7323822946204603F087FA1D4BEE
:1059B000142202FB0030218F29E0082D12D120464D
:1059C0002946FEF740FA012826D14FF6F7732382C5
:1059D0002946204603F072FA124B142202FB0030D3
:1059E000A18F14E00C2D17D120461021FEF72BFAC1
:1059F000012811D14FF6EF7323822946204603F088
:105A00005DFA084B142202FB0030B4F840108368A2
:105A100089B20BB1007C98470236082EA3D1F8BD9D
:105A2000B8FA0008840600202DE9F04106460F462A
:105A300090460025EBB2434512D20024E3B2B342B4
:105A400009D2084B3846DA68013482F00802DA607D
:105A5000FEF721FEF2E73C20FEF71DFE0135E9E7E7
:105A6000BDE8F081000C01400B490B7813F0010FE9
:105A700003F004020AD072B9980707D443F0040374
:105A80000B70064B1A88064B1A8070471AB9022011
:105A9000FF210122C8E77047941C0020B8020020B3
:105AA0002015002040F2DB14604308B5074B0822A4
:105AB0001A61841E054B2046DA6882F00802DA601B
:105AC000FEF7E9FD1920FEF7E6FDF3E7000C0140C3
:105AD000A14B2DE9F04F1B7885B0013B012B00F263
