:020000040800F2
:1000000000500020B9100008691100085D44000884
:10001000691100086911000869110008000000005A
:10002000000000000000000000000000691100084E
:10003000691100080000000069110008155300084C
:1000400069110008691100086911000869110008A8
:100050006911000869110008691100086911000898
:100060006911000869110008691100086911000888
:1000700069110008691100085D2A0008691100086B
:100080006911000869110008691100086911000868
:100090006911000869110008691100086911000858
:1000A0006911000869110008691100083D2D000858
:1000B000492D0008512D00085D2D00084D1800083D
:1000C000191A0008511800081D1A000869110008C3
:1000D00069110008912A0008CD2A0008691100085A
:1000E000691100086911000869110008000000008A
:1000F0000000000000000000000000000000000000
:0C01000000000000000000005FF808F1A3
:1001100010B5054C237833B9044B13B10448AFF341
:1001200000800123237010BDD405002000000000D2
:100130003C21010808B5064B1BB106480649AFF340
:1001400000800648036813B1054B03B1984708BD0A
:10015000000000003C210108D8050020D405002043
:100160000000000081F0004102E000BF83F0004386
:1001700030B54FEA41044FEA430594EA050F08BF42
:1001800090EA020F1FBF54EA000C55EA020C7FEA06
:10019000645C7FEA655C00F0E2804FEA5454D4EB83
:1001A0005555B8BF6D420CDD2C4480EA020281EA4D
:1001B000030382EA000083EA010180EA020281EA85
:1001C0000303362D88BF30BD11F0004F4FEA0131D7
:1001D0004FF4801C4CEA113102D0404261EB4101E6
:1001E00013F0004F4FEA03334CEA133302D052426C
:1001F00063EB430394EA050F00F0A780A4F1010428
:10020000D5F1200E0DDB02FA0EFC22FA05F2801861
:1002100041F1000103FA0EF2801843FA05F3594147
:100220000EE0A5F120050EF1200E012A03FA0EFCC6
:1002300028BF4CF0020C43FA05F3C01851EBE371F0
:1002400001F0004507D54FF0000EDCF1000C7EEB0D
:1002500000006EEB0101B1F5801F1BD3B1F5001F4B
:100260000CD349085FEA30004FEA3C0C04F101046A
:100270004FEA445212F5800F80F09A80BCF1004F93
:1002800008BF5FEA500C50F1000041EB045141EA15
:10029000050130BD5FEA4C0C404141EB010111F416
:1002A000801FA4F10104E9D191F0000F04BF0146C1
:1002B0000020B1FA81F308BF2033A3F10B03B3F19F
:1002C00020020CDA0C3208DD02F1140CC2F10C022F
:1002D00001FA0CF021FA02F10CE002F11402D8BF8D
:1002E000C2F1200C01FA02F120FA0CFCDCBF41EA59
:1002F0000C019040E41AA2BF01EB0451294330BD28
:100300006FEA04041F3C1CDA0C340EDC04F1140404
:10031000C4F1200220FA04F001FA02F340EA0300DB
:1003200021FA04F345EA030130BDC4F10C04C4F121
:10033000200220FA02F001FA04F340EA0300294601
:1003400030BD21FA04F0294630BD94F0000F83F44B
:10035000801306BF81F480110134013D4EE77FEA2E
:10036000645C18BF7FEA655C29D094EA050F08BF7A
:1003700090EA020F05D054EA000C04BF194610465B
:1003800030BD91EA030F1EBF0021002030BD5FEA9F
:10039000545C05D14000494128BF41F0004130BDC7
:1003A00014F580043CBF01F5801130BD01F000451B
:1003B00045F0FE4141F470014FF0000030BD7FEA8E
:1003C000645C1ABF194610467FEA655C1CBF0B4689
:1003D000024650EA013406BF52EA033591EA030FA0
:1003E00041F4002130BD00BF90F0000F04BF002198
:1003F000704730B54FF4806404F132044FF00005CB
:100400004FF0000150E700BF90F0000F04BF002143
:10041000704730B54FF4806404F1320410F00045A9
:1004200048BF40424FF000013EE700BF42004FEAA4
:10043000E2014FEA31014FEA02701FBF12F07F4321
:1004400093F07F4F81F06051704792F0000F14BF1E
:1004500093F07F4F704730B54FF4607401F0004562
:1004600021F0004120E700BF50EA010208BF7047B9
:1004700030B54FF000050AE050EA010208BF7047AE
:1004800030B511F0004502D5404261EB41014FF417
:10049000806404F132045FEA915C3FF4DCAE4FF01B
:1004A00003025FEADC0C18BF03325FEADC0C18BF02
:1004B000033202EBDC02C2F1200300FA03FC20FA53
:1004C00002F001FA03FE40EA0E0021FA02F11444A0
:1004D000C1E600BF70B54FF0FF0C4CF4E06C1CEAB5
:1004E00011541DBF1CEA135594EA0C0F95EA0C0F2A
:1004F00000F0DEF82C4481EA030621EA4C5123EA9D
:100500004C5350EA013518BF52EA033541F48011CB
:1005100043F4801338D0A0FB02CE4FF00005E1FB7E
:1005200002E506F00042E0FB03E54FF00006E1FBC8
:1005300003569CF0000F18BF4EF0010EA4F1FF040B
:10054000B6F5007F64F5407404D25FEA4E0E6D414B
:1005500046EB060642EAC62141EA55514FEAC5205C
:1005600040EA5E504FEACE2EB4F1FD0C88BFBCF5D8
:10057000E06F1ED8BEF1004F08BF5FEA500E50F189
:10058000000041EB045170BD06F0004646EA01014F
:1005900040EA020081EA0301B4EB5C04C2BFD4EB81
:1005A0000C0541EA045170BD41F480114FF0000E7A
:1005B000013C00F3AB8014F1360FDEBF002001F0E8
:1005C000004170BDC4F10004203C35DA0C341BDC62
:1005D00004F11404C4F1200500FA05F320FA04F034
:1005E00001FA05F240EA020001F0004221F0004168
:1005F00010EBD37021FA04F642EB06015EEA430EDB
:1006000008BF20EAD37070BDC4F10C04C4F120050A
:1006100000FA04F320FA05F001FA04F240EA0200BD
:1006200001F0004110EBD37041F100015EEA430E8E
:1006300008BF20EAD37070BDC4F1200500FA05F2AE
:100640004EEA020E20FA04F301FA05F243EA02032D
:1006500021FA04F001F0004121FA04F220EA02003C
:1006600000EBD3705EEA430E08BF20EAD37070BD82
:1006700094F0000F0FD101F00046400041EB010162
:1006800011F4801F08BF013CF7D041EA060195F044
:10069000000F18BF704703F00046520043EB0303FE
:1006A00013F4801F08BF013DF7D043EA06037047EB
:1006B00094EA0C0F0CEA135518BF95EA0C0F0CD0F6
:1006C00050EA410618BF52EA4306D1D181EA03013C
:1006D00001F000414FF0000070BD50EA410606BF36
:1006E0001046194652EA430619D094EA0C0F02D17B
:1006F00050EA013613D195EA0C0F05D152EA0336C0
:100700001CBF104619460AD181EA030101F00041DD
:1007100041F0FE4141F470014FF0000070BD41F026
:10072000FE4141F4780170BD70B54FF0FF0C4CF400
:10073000E06C1CEA11541DBF1CEA135594EA0C0F1F
:1007400095EA0C0F00F0A7F8A4EB050481EA030E6C
:1007500052EA03354FEA013100F088804FEA033353
:100760004FF0805545EA131343EA12634FEA022221
:1007700045EA111545EA10654FEA00260EF00041E2
:100780009D4208BF964244F1FD0404F5407402D234
:100790005B084FEA3202B61A65EB03055B084FEAC5
:1007A00032024FF480104FF4002CB6EB020E75EBC2
:1007B000030E22BFB61A754640EA0C005B084FEAEA
:1007C0003202B6EB020E75EB030E22BFB61A754667
:1007D00040EA5C005B084FEA3202B6EB020E75EBB2
:1007E000030E22BFB61A754640EA9C005B084FEA2A
:1007F0003202B6EB020E75EB030E22BFB61A754637
:1008000040EADC0055EA060E18D04FEA051545EA25
:1008100016754FEA06164FEAC30343EA52734FEACE
:10082000C2025FEA1C1CC0D111F4801F0BD141EA47
:1008300000014FF000004FF0004CB6E711F4801FAC
:1008400004BF01430020B4F1FD0C88BFBCF5E06F8C
:100850003FF6AFAEB5EB030C04BFB6EB020C5FEA9C
:10086000500C50F1000041EB045170BD0EF0004EF1
:100870004EEA113114EB5C04C2BFD4EB0C0541EA23
:10088000045170BD41F480114FF0000E013C90E620
:1008900045EA060E8DE60CEA135594EA0C0F08BFE4
:1008A00095EA0C0F3FF43BAF94EA0C0F0AD150EAE3
:1008B00001347FF434AF95EA0C0F7FF425AF104676
:1008C00019462CE795EA0C0F06D152EA03353FF49E
:1008D000FDAE1046194622E750EA410618BF52EA1B
:1008E00043067FF4C5AE50EA41047FF40DAF52EAEF
:1008F00043057FF4EBAE12E74FEA4102B2F1E04369
:1009000024BFB3F5001CDCF1FE5C0DD901F0004CF6
:100910004FEAC0024CEA5070B2F1004F40EB830046
:1009200008BF20F00100704711F0804F21D113F172
:100930003872BCBF01F00040704741F480114FEAAB
:100940005252C2F11802C2F1200C10FA0CF320FA34
:1009500002F018BF40F001004FEAC1234FEAD32351
:1009600003FA0CFC40EA0C0023FA02F34FEA4303BB
:10097000CCE77FEA625307D150EA01331EBF4FF044
:10098000FE4040F44000704701F0004040F0FE405F
:1009900040F40000704700BF80F0004002E000BF5C
:1009A00081F0004142001FBF5FEA410392EA030F5A
:1009B0007FEA226C7FEA236C6AD04FEA1262D2EBA4
:1009C0001363C1BFD218414048404140B8BF5B42A9
:1009D000192B88BF704710F0004F40F4000020F042
:1009E0007F4018BF404211F0004F41F4000121F058
:1009F0007F4118BF494292EA030F3FD0A2F10102A2
:100A000041FA03FC10EB0C00C3F1200301FA03F1DF
:100A100000F0004302D5494260EB4000B0F5000F02
:100A200013D3B0F1807F06D340084FEA310102F1C1
:100A30000102FE2A51D2B1F1004F40EBC25008BF73
:100A400020F0010040EA03007047490040EB00003D
:100A500010F4000FA2F10102EDD1B0FA80FCACF16C
:100A6000080CB2EB0C0200FA0CF0AABF00EBC2506B
:100A700052421843BCBFD0401843704792F0000F59
:100A800081F4000106BF80F400000132013BB5E7AC
:100A90004FEA41037FEA226C18BF7FEA236C21D022
:100AA00092EA030F04D092F0000F08BF0846704787
:100AB00090EA010F1CBF0020704712F07F4F04D155
:100AC000400028BF40F00040704712F100723CBF68
:100AD00000F50000704700F0004343F0FE4040F492
:100AE000000070477FEA226216BF08467FEA236350
:100AF0000146420206BF5FEA412390EA010F40F43B
:100B0000800070474FF0000304E000BF10F0004386
:100B100048BF40425FEA000C08BF704743F096436D
:100B200001464FF000001CE050EA010208BF704788
:100B30004FF000030AE000BF50EA010208BF70470F
:100B400011F0004302D5404261EB41015FEA010C24
:100B500002BF84460146002043F0B64308BFA3F11C
:100B60008053A3F50003BCFA8CF2083AA3EBC253FE
:100B700010DB01FA02FC634400FA02FCC2F120021D
:100B8000BCF1004F20FA02F243EB020008BF20F054
:100B90000100704702F1200201FA02FCC2F12002BA
:100BA00050EA4C0021FA02F243EB020008BF20EAAF
:100BB000DC7070474FF0FF0C1CEAD0521EBF1CEADD
:100BC000D15392EA0C0F93EA0C0F6FD01A4480EACB
:100BD000010C400218BF5FEA41211ED04FF00063B4
:100BE00043EA501043EA5111A0FB01310CF00040E0
:100BF000B1F5000F3EBF490041EAD3715B0040EA06
:100C0000010062F17F02FD2A1DD8B3F1004F40EBD5
:100C1000C25008BF20F00100704790F0000F0CF0A8
:100C2000004C08BF49024CEA502040EA51207F3A6C
:100C3000C2BFD2F1FF0340EAC250704740F4000047
:100C40004FF00003013A5DDC12F1190FDCBF00F038
:100C500000407047C2F10002410021FA02F1C2F1E6
:100C6000200200FA02FC5FEA310040F1000053EA82
:100C70004C0308BF20EADC70704792F0000F00F0D0
:100C8000004C02BF400010F4000F013AF9D040EAD6
:100C90000C0093F0000F01F0004C02BF490011F46A
:100CA000000F013BF9D041EA0C018FE70CEAD15368
:100CB00092EA0C0F18BF93EA0C0F0AD030F0004CE8
:100CC00018BF31F0004CD8D180EA010000F000409C
:100CD000704790F0000F17BF90F0004F084691F05A
:100CE000000F91F0004F14D092EA0C0F01D1420294
:100CF0000FD193EA0C0F03D14B0218BF084608D15D
:100D000080EA010000F0004040F0FE4040F40000A6
:100D1000704740F0FE4040F4400070474FF0FF0C39
:100D20001CEAD0521EBF1CEAD15392EA0C0F93EA80
:100D30000C0F69D0A2EB030280EA010C49024FEAD2
:100D4000402037D04FF0805343EA111143EA10138B
:100D50000CF000408B4238BF5B0042F17D024FF443
:100D6000000C8B4224BF5B1A40EA0C00B3EB510F1E
:100D700024BFA3EB510340EA5C00B3EB910F24BF07
:100D8000A3EB910340EA9C00B3EBD10F24BFA3EB8C
:100D9000D10340EADC001B0118BF5FEA1C1CE0D154
:100DA000FD2A3FF650AF8B4240EBC25008BF20F007
:100DB000010070470CF0004C4CEA50207F32C2BF5B
:100DC000D2F1FF0340EAC250704740F400004FF0F8
:100DD0000003013A37E792F0000F00F0004C02BF29
:100DE000400010F4000F013AF9D040EA0C0093F0F3
:100DF000000F01F0004C02BF490011F4000F013B4D
:100E0000F9D041EA0C0195E70CEAD15392EA0C0FB4
:100E100008D142027FF47DAF93EA0C0F7FF470AFEC
:100E2000084676E793EA0C0F04D14B023FF44CAF2F
:100E300008466EE730F0004C18BF31F0004CCAD1C4
:100E400030F000427FF45CAF31F000437FF43CAF00
:100E50005FE700BF4FF0FF3C06E000BF4FF0010C22
:100E600002E000BF4FF0010C4DF804CD4FEA400204
:100E70004FEA41037FEA226C18BF7FEA236C11D04E
:100E800001B052EA530C18BF90EA010F58BFB2EB01
:100E9000030088BFC81738BF6FEAE17018BF40F081
:100EA000010070477FEA226C02D15FEA402C05D135
:100EB0007FEA236CE4D15FEA412CE1D05DF8040BBA
:100EC000704700BF844608466146FFE70FB5FFF74D
:100ED000C9FF002848BF10F1000F0FBD4DF808ED05
:100EE000FFF7F4FF0CBF012000205DF808FB00BFF6
:100EF0004DF808EDFFF7EAFF34BF012000205DF850
:100F000008FB00BF4DF808EDFFF7E0FF94BF01209C
:100F100000205DF808FB00BF4DF808EDFFF7D2FF99
:100F200094BF012000205DF808FB00BF4DF808EDDC
:100F3000FFF7C8FF34BF012000205DF808FB00BFA9
:100F40004FEA4002B2F1FE4F0FD34FF09E03B3EBD6
:100F500012620DD94FEA002343F0004310F0004F16
:100F600023FA02F018BF404270474FF0000070476C
:100F700012F1610F01D1420205D110F0004008BF0B
:100F80006FF0004070474FF00000704742000ED2F3
:100F9000B2F1FE4F0BD34FF09E03B3EB126209D4B4
:100FA0004FEA002343F0004323FA02F070474FF06A
:100FB0000000704712F1610F01D1420202D14FF0DF
:100FC000FF3070474FF00000704700BF844641EA91
:100FD000000313F0030349D1403A23D30B680360A5
:100FE0004B6843608B688360CB68C3600B690361A7
:100FF0004B6943618B698361CB69C3610B6A03628F
:101000004B6A43628B6A8362CB6AC3620B6B036376
:101010004B6B43638B6B8363CB6BC363403040315B
:10102000403ADBD230320BD30B6803604B6843602D
:101030008B688360CB68C36010301031103AF3D2F4
:101040000C3205D351F8043B40F8043B043AF9D282
:10105000043208D0D2071CBF11F8013B00F8013B55
:1010600001D30B8803806046704700BF082A13D362
:101070008B07B1D010F00303AED0C3F10403D21A32
:10108000DB071CBF11F8013B00F8013BA4D331F88A
:10109000023B20F8023B9FE7043AD9D3013A11F80A
:1010A000013B00F8013BF9D20B7803704B78437099
:1010B0008B788370604670471D481E490268006047
:1010C0008A4200F01F80002100F004B81A4B5B58E0
:1010D0004350043119481A4B42189A42FFF4F6AFB4
:1010E000184A00F003B8002342F8043B164B9A421A
:1010F000FFF4F9AF0AF0E8FD0DF008FA03F0A8F9E3
:10110000FFF7FEBF114E124830601248016821F00F
:1011100070610160410201600F4C182020600F498E
:101120000F4808600F48D0F800D040680047000022
:10113000F04F0020EFBEADDE60210108000000206E
:10114000D4050020D40500201421002018100240EE
:101150000900000004000140140C0140000C014093
:101160004434434400F0FF1FFFF7FEBF064B1B78DB
:1011700013B1012B03D070474FF4006201E04FF42C
:101180008052024B1A807047F005002004000020B6
:1011900013B5062204466B463B21682000F0B4FCE0
:1011A0009DF800209DF8013043EA022323809DF83A
:1011B00002209DF8033043EA022363809DF8042057
:1011C0009DF8053043EA0223A38002B010BD13B599
:1011D000062204466B464321682000F095FC9DF8EA
:1011E00000209DF8013043EA022323809DF802206D
:1011F0009DF8033043EA022363809DF804209DF8A4
:10120000053043EA0223A38002B010BD07B52320B6
:1012100004F0B3F86820752101220DF1070300F0F6
:1012200073FC28B19DF80700B0F16803584258419B
:1012300003B05DF804FB000007B54FF40053ADF8B0
:10124000043002238DF8073004238DF806301C4B40
:101250001C4A1B68934201D11B4803E01B4A93427E
:1012600003D11B4801A900F053FD6B2180226820A7
:1012700000F040FC052004F080F8192100226820CD
:1012800000F038FC6B210322682000F033FC37218A
:101290000222682000F02EFC0E4B1A211A786820DA
:1012A00000F028FC1B211822682000F023FC1C21E0
:1012B0001022682000F01EFC03B05DF804FB00BFA4
:1012C0008401002000127A00000C0140001BB700CE
:1012D0000010014000000020F0B585B00546FFF782
:1012E00095FF074600283ED0062102AB68200A463B
:1012F00000F00AFC9DF80B309DF80D6003F001032F
:101300005B0006F0010643EA86069DF80930174C9B
:1013100003F001031E4306D0012E01D1002317E084
:10132000022E0CD113E00DF1070368200C210122DD
:1013300000F0EAFB9DF8073013F00F0303D10520FE
:1013400004F092F805E0042B01D1267001E001239E
:101350002370074B2B60074B6B602378002B14BF67
:101360006E236F232B72384605B0F0BDF0050020C8
:101370006D1100089111000838B505460C46FFF7BD
:1013800045FF18B3124B142C2B60124B6B60124BA1
:10139000EB60124B14D004D8052C15D00A2C11D0B8
:1013A0000CE0BC2C08D0B4F5807F03D0622C05D1B2
:1013B00002220AE0002208E0012206E0032204E003
:1013C000042202E0052200E006221A7038BD00BFA8
:1013D00039120008CF11000890C1793D00000020AB
:1013E000104A10B59178104B21B1517833F8114063
:1013F0000E490C80917929B10A49497933F8114095
:101400000A494C80917A29B10649497A33F811404A
:1014100006498C8002EB8002527833F8120080B2C9
:1014200010BD00BF721500206A150020721F002039
:10143000F0B54B4C0646102291B0204600210DF02D
:101440008DF8327822B1012207232271A271E37153
:10145000444F0421D7F800E0434F2170551C012070
:101460000721BE453E4BEDB26270A070E17006D11F
:10147000052702325D731F739873D973D5B27378E1
:1014800043B1092301222372A2726B1C07226572E9
:10149000E272DDB235480BF0E1FB354B00260593D7
:1014A000344B012D06930CBF334680230A934FF42F
:1014B00080730B934FF480630C9320230D932B4880
:1014C0004FF4005305A90E930796089509960F96B9
:1014D0000BF03CFC254801210BF063FC012D94BF6F
:1014E000002301238DF8043001274FF460232248A4
:1014F000694600968DF80570029303968DF810509A
:101500000AF05CFD3A46A319997839B1551CEDB241
:101510001948A15DDB780AF0A2FD2A460436102E98
:10152000F1D1154801210AF076FD134801210AF096
:1015300069FD11480AF078FD0F480AF07AFD00288D
:10154000FAD10D480AF079FD0B480AF07BFD00281E
:10155000FAD1094801210AF079FD11B0F0BD00BFB0
:101560007215002084010020001BB7000800024013
:101570004C2401406A150020002401402DE9F0416F
:101580008C4C2068878ABFB2FBB2DD0736D5038852
:10159000012123F400631B041B0C03800BF040FBB0
:1015A000854B00221A70854A1D461278844BC2B1C1
:1015B000844A117819B984490978FF2911D1012188
:1015C0001170824A1278022A05D12268118889B2E4
:1015D00041F4006111801978206801220BF035FB7D
:1015E0000DE11978206800220BF02FFB764B1B7859
:1015F000FF2B00F00481FF232B7000E103F00202B7
:1016000002F0FF01002A3AD0BFF35F8F6F4B1A78C8
:10161000012A14D1694A12788AB16A4A127872B1E1
:1016200000210BF0FDFABFF35F8F20680121038BCF
:101630000BF0EAFA664B01221A702068B6E0028BC2
:10164000BFF35F8F1A78022A0AD15C4A12783AB146
:101650005C4A127822B100210BF0E2FA2068C9E05E
:101660001B78032B07D1554B1B7823B1554B1B78A7
:10167000002B40F0BF804FF480610122BDE003F0F9
:10168000040202F0FF0C002A5AD04C4BDFF84081D4
:101690001A78012688F800604A4B002A3AD01A7856
:1016A000002A37D0494B444D1B784A4F022B1ED994
:1016B0000BF0B6FA2B78206899192970018A3A68DC
:1016C0005BB2C9B2D15431460BF09EFA2B78206838
:1016D00099192970018A3A685BB2C9B2D1544FF4A2
:1016E0008061324688F800600BF0A6FA23E03146AC
:1016F0000BF08AFA29783A68CBB248B221680E8A90
:10170000F6B21654098A581C40B2C9B203331154B8
:101710002B7010E01B78012113B92F4B1B782BB1D4
:101720000BF072FA244B1A78013203E00BF060FAE6
:10173000244B01221A7022681388D905FCD45EE07C
:1017400003F0400303F0FF021B4D204EE3B1214B99
:101750002978078A1A68FFB24B1C49B2DBB257548A
:101760002B7032785BB203339A4204D14FF480611C
:1017700062460BF061FA2B7831785AB291423ED131
:101780000D4A013313703AE03B0638D52B7859B235
:101790004F1C25D0114F01333F68DBB2795C2B70B1
:1017A000C9B2018231785BB2994228D14FF480618D
:1017B00023E000BF080600200C06002004060020DD
:1017C0000E060020F5050020F6050020F705002094
:1017D000FC050020F8050020F4050020000600208C
:1017E000134B2A701B78DBB20382124B1B780BB9A8
:1017F000337823B94FF4806100220BF01DFA0E4BB1
:101800000E4A1B7892F9002001339A420DD10C4BFD
:1018100000221A700B4B1B7823B120684FF44071E3
:101820000BF00AFA084B00221A70BDE8F08100BFE5
:10183000F605002004060020F70500200C06002015
:10184000F5050020FC0500200D060020FFF796BEE0
:10185000FFF794BE2DE9F041464C86B04FF4406549
:101860001C2380460227204601A9434EADF80450B0
:101870008DF806308DF8077000F04AFA14232046E0
:1018800002A9ADF80850C6F800808DF80B708DF8ED
:101890000A3000F03DFA25610825364CA3685B0547
:1018A00003D40A2003F05EFDF7E74FF480670A20B7
:1018B000676103F057FD013D27610A2003F052FDE7
:1018C00015F0FF05E9D14FF40068C4F814800A2030
:1018D00003F048FD67610A2003F044FD27610A20F8
:1018E00003F040FD4FF44063C4F81080ADF80830B9
:1018F000022302A98DF80B3020461C238DF80A30F4
:1019000000F006FA30680BF0D1F802A80BF056F997
:101910002A4630684FF440710BF08EF94BF6FF7396
:10192000ADF80E304FF48043ADF81430134B3068EF
:1019300001210293ADF80C500BF04EF902A930686A
:101940000BF0CEF822238DF80030684601238DF885
:1019500003308DF801508DF802500AF0D3FB21239B
:1019600068468DF800308DF801500AF0CBFB06B0C8
:10197000BDE8F081000C014008060020801A060036
:1019800037B5224C2068838A9BB20193019B13F4E4
:10199000706F02D01E4B01221A70019B13F4E06F8E
:1019A00028D04FF480610022038B0BF045F9019B96
:1019B00098051FD42068038899051BD4058805F471
:1019C0008075ADB265B10388DA05FCD401210BF056
:1019D0001BF9206803889B05FCD4FFF73BFF09E057
:1019E00001210BF011F9094B4FF4407118682A4698
:1019F0000BF022F92268938A23F470631B041B0CFA
:101A00009382044B00221A7003B030BD08060020F8
:101A1000FD0500200D060020FFF7B2BFFFF7B0BFA5
:101A200008B5054B1A88013292B21A80034B186828
:101A3000FFF710FF002008BDF20500200806002077
:101A400070B54000214CC0B22070214801240170C3
:101A5000204900200C702049087020490B60204963
:101A60000B60204B20491A70204A214B0C701070DB
:101A700018680D4684881E4614F4007F144614D15D
:101A80000388D9050BD447F230530288920502D55A
:101A9000013BFAD111E083B101210BF0A9F83068C4
:101AA0004FF4407101220BF0C7F847F230532A7807
:101AB00012B1013BFBD100E01BB9BDE87040FFF75C
:101AC000AFBF207880F0010070BD00BF0E0600207F
:101AD000F6050020F4050020040600200006002082
:101AE000F8050020F70500200D060020FD05002068
:101AF0000806002007B502AB03F8012D0122FFF70D
:101B00009FFF03B05DF804FB70B54000214CC0B2EC
:101B100020702148012401702049002008702049CC
:101B20000C7020490B6020490B60204B20491A7033
:101B3000204A214B0C70107018680D4684881E4690
:101B400014F4007F144614D10388D9050BD447F24E
:101B500030530288920502D5013BFAD111E083B1DE
:101B600001210BF045F830684FF4407101220BF071
:101B700063F847F230532A7812B1013BFBD100E001
:101B80001BB9BDE87040FFF74BBF207880F0010023
:101B900070BD00BF0E060020F6050020F4050020F1
:101BA00004060020F805002000060020F7050020AC
:101BB0000D060020FD05002008060020014B1888B6
:101BC00080B27047F2050020F8B5134B04469B899C
:101BD0000D461646EEB115B12F78013500E0FF270E
:101BE0000D4802210AF0E4F90028F9D00A483946E4
:101BF0000AF0D9F9084801210AF0DAF90028F9D0E9
:101C000005480AF0D2F9C0B20CB120700134013E8F
:101C1000E0E70120F8BD00BF003800402DE9F047A3
:101C20004FF4804088B001210AF014FF4FF4804047
:101C300001210AF027FF344D18238DF802304FF4AC
:101C40002043ADF800302846032369464FF00408CE
:101C50002E4F8DF8033000F05BF84FF48043284698
:101C60006946ADF800304FF480564FF0100A8DF8F9
:101C7000028000F04DF869462846ADF800608DF806
:101C800002A000F045F838460AF030F94FF48273AC
:101C9000ADF80E304FF40073ADF816300723002472
:101CA000ADF81C304FF001090223384603A9ADF806
:101CB0001230ADF80C40ADF81040ADF81A40ADF858
:101CC0001490ADF818A00AF043F9384649460AF0D6
:101CD0005EF99F238DF804308DF805408DF806409D
:101CE0008DF8074002A86E610DEB08014246FFF730
:101CF0006BFF2E619DF80900B0F1EF035842584187
:101D000008B0BDE8F08700BF000C0140003800407B
:101D10002DE9F0410F88002347FA03F2D2072BD5B3
:101D20008A7803F0070512F0100F18BF91F803C06E
:101D300002F00F0618BF46EA0C06AD004FF00F0C7C
:101D40000CFA05FC06FA05F5DC0850F82480282A70
:101D500028EA0C0C45EA0C0540F8245005D1012274
:101D60009A40C46824EA020205E0482A04D101220C
:101D70009A40C4682243C2600133102BCCD1BDE825
:101D8000F08100002DE9F843C3794278002B044626
:101D900014BF0223002302B10133344A002552F854
:101DA0002390A8462F462E4639F805304FF6FF728D
:101DB0009342D8B257D0E27812B1821E012A4FD98D
:101DC000227912B1021F032A4AD9A2780AB1012846
:101DD00046D01B0A022B04D12278002A08BF002318
:101DE00002E0012B08BF6378627932B1E27922B94F
:101DF000A0F10802012A98BF0423A27922B1E27956
:101E000012B9021F032A22D9012B02D100F0EAF9EC
:101E100026E0022B04D1F1B200F0AEF901361FE04A
:101E2000032B12D12289DFF848E00001B2F5FA7FD6
:101E30005FFA88F1A389704402D900F0E3F801E069
:101E400000F0F6F808F101080AE0042B08D1084B6D
:101E5000F9B203EB00106289E38900F0FFF8013763
:101E600002351C2DA0D1BDE8F88300BFD0F60008D4
:101E70004CF70008074BA1F57A7153F820304FF466
:101E80007A701A689B884B4393FBF0F39BB21380E4
:101E9000704700BF10060020024B53F820301B682B
:101EA00019807047100600202DE9F04F474D044679
:101EB00028788E4691460C26421C87B02A704643ED
:101EC000724620684946019300F008FFA2686068E6
:101ED000ADF808204FF0020A182202A98DF80A2056
:101EE0008DF80BA0FFF714FF02A8256894F80CB03A
:101EF0000AF0FDFA7022019B354FADF8082001224F
:101F0000ADF80A20ADF80E3000224FF4807307EBD5
:101F10000608ADF80C20ADF810A0ADF81430BBF1F8
:101F20000C0F2BD8DFE80BF0072A2A2A102A2A2ABE
:101F3000192A2A2A2200284602A90AF0D1F928469D
:101F400008210AF009FB19E0284602A90AF00CFA58
:101F5000284608210AF008FB10E0284602A90AF0EA
:101F600047FA284608210AF009FB07E0284602A99B
:101F70000AF080FA284608210AF008FBA37B1BB16F
:101F8000206801210AF0D1FA206801210AF0C1FA83
:101F9000237B0C2B14D8DFE803F0071313130A1369
:101FA00013130D13131310002368343307E0236851
:101FB000383304E023683C3301E023684033BB51ED
:101FC0004046A8F8049007B0BDE8F08F0F06002047
:101FD0006006002008B5044B53F820301BB10B28D5
:101FE00001D89B68984708BD10060020044B53F8A1
:101FF00020301BB107289CBF1B681980704700BFA9
:102000004006002010B50C460649B1FBF2F292B230
:102010000821FFF749FF044B43F82400034B83607A
:1020200010BD00BF00127A0010060020751E0008C7
:1020300010B50C460649B1FBF2F292B20121FFF74E
:1020400033FF044B43F82400034B836010BD00BFF3
:1020500040420F0010060020991E000810B50C46E3
:10206000054991FBF2F292B20121FFF71DFF034BEC
:1020700043F8240010BD00BF40420F00400600207E
:102080000E4A0F4813881180C91A038089B240F69E
:102090008C2399420B4B1A7807D9032A03D90A4A91
:1020A000117801311170002205E00B2A9CBF07480E
:1020B00020F8121001321A70704700BF0C07002080
:1020C000F00600209007002091070020F406002071
:1020D000034B1878034B1B78C01A18BF01207047B8
:1020E00091070020F2060020024B1A78024B1A706A
:1020F000704700BF91070020F20600207FB504461C
:1021000001A80D4616460AF0FCF90123ADF8083087
:102110000023ADF80A302046032301A9ADF804508E
:10212000ADF80660ADF80C300AF06CFA04B070BD82
:1021300010B50F4B03EB00108278C36832B901224F
:1021400082708180197B186802220CE08288C1802D
:102150004478891A074A89B222F8141000220181B2
:1021600082701868197BBDE81040FFF7C7BF00BF39
:1021700010070020F40600202DE9F3410D46164F0C
:1021800016492A014FEA001808EB07048B180126AC
:102190005D708E54DC60A368E27B6068ADF804304B
:1021A00001A902238DF807308DF80620FFF7B0FD56
:1021B00058F80700217B0022FFF7A0FF2046324697
:1021C0004FF6FF7100F0ACFD20462946044A00F0AE
:1021D00065FD02B0BDE8F0814CF700081007002053
:1021E00031210008F7B5134E0701134BBC19002528
:1021F0001D70DC60A368E27B6068ADF8043001A963
:1022000002238DF807308DF80620FFF781FDB859BD
:10221000217B2A46FFF772FF20464FF6FF7101220D
:1022200000F07EFD20462946044A00F037FD03B049
:10223000F0BD00BF4CF70008100700208120000807
:10224000014B33F810007047F406002041717047CD
:10225000426A806A131A5842584170477FB5044653
:1022600001A80D4616460AF04CF90123ADF80830D6
:102270002046002301A9ADF80450ADF80660ADF882
:102280000A30ADF80C300AF0BDF904B070BD4379E6
:1022900013F0010307D00369C169026A013B881A80
:1022A0001840C0B2704718467047437910B513F014
:1022B000010304460DD0FFF7EAFF58B1226A6369B3
:1022C000985CE3680132B2FBF3F103FB1123236254
:1022D00010BD184610BD43799B070AD5436A826931
:1022E000D154426A03690132B2FBF3F103FB1123BB
:1022F000436270478379012B03D1D1F1010138BFCB
:102300000021D0F834315A689B6809B113617047D5
:102310005361704707B503469B684068ADF80430C9
:1023200048238DF8063001A902238DF80730FFF706
:10233000EFFC03B05DF804FB2DE9F74391464FF441
:10234000127242431F463C4B0646D41808B93B481C
:1023500002E0012804D13A4820631030C4F8340167
:1023600038480025D050032363714FF480734FF039
:102370000108E3602361D4F8343184F83C5284F8D6
:10238000388284F8395284F8466258689B6804F1B0
:1023900034026261ADF8043004F59C721023A2612E
:1023A000E162256201A9E561A5626562A4F8425275
:1023B000A4F844528DF80630C4F808900223A7719F
:1023C0008DF80730FFF7A4FC206BFFF7A3FF414611
:1023D0002046FFF78FFF322002F0CFFF1A4BD4F8D0
:1023E00034811B681D46B5FBF9F1B1F5803F03D37D
:1023F000012DF8D96D08F6E7144A4046B3FBF2F216
:1024000089B2D2B200F08CFC40463146104A00F04E
:1024100045FC256B012F14BF022200222868297B6E
:10242000FFF71CFF284631460A4A00F037FC2046D9
:1024300003B0BDE8F08300BF841500208CF70008CE
:10244000ACF700081CF700088801002040420F008C
:102450006D260008F924000803460A4690F8460253
:10246000D96A9B79FFF768BF10B590F83C22044603
:10247000C2B9836A416A994228D08069591CA16215
:10248000C05C2369C0B299424FEA400343F4007331
:10249000A4F83E324FF00A0384F83D3228BFA2620E
:1024A000012311E090F93D3273B1B0F83E124B08B0
:1024B000A0F83E3201F00101FFF71CFF94F83D3215
:1024C000013B84F83D3210BD84F83C3210BD90F8D9
:1024D0003B3210B57BB990F83A3290F839229342EA
:1024E00009D201219940B0F8404201332143A0F8BC
:1024F0004012DBB2F3E710BD2B4B10B54FF4127452
:1025000004FB00346379DB074DD594F838321BB3F4
:10251000236B002118680AF043F894F83C3223B189
:10252000B4F842320133A4F84232A279236B012A73
:102530001868197B0CBF02220022FFF78FFE0123CF
:1025400084F83B32002384F8393284F83A3284F834
:102550003832A4F8403210BD94F83B322046012BAB
:1025600004BF94F8393284F83A32FFF7B0FF94F898
:102570003B12236BA27949B9012184F83B128A42AC
:102580001868197B0CBF0222002208E0002184F8A1
:102590003B12012A1868197B14BF02220022BDE8F1
:1025A0001040FFF75BBE10BD84150020012280F8AB
:1025B000382290F83B220023012A80F839320BD1CF
:1025C000827980F83B32036B012A1868197B14BFAB
:1025D00002220022FFF742BE7047427908B5034647
:1025E000D0071CD5B3F84002810501D4C20705D439
:1025F000B3F844220132A3F8442208BDDA6AC0F3DA
:1026000047000AB1904708BDDA6959698854D96909
:10261000DA680131B1FBF2F002FB1012DA6108BD99
:1026200010B590F838320446F3B990F839320133D6
:10263000DBB2092B80F8393203D1BDE81040FFF737
:1026400046BF0A2B10D190F83B322BB9B0F840327C
:1026500043F00103A0F840322046FFF7BEFF2046BA
:10266000BDE81040FFF7A2BF10BD0000064B10B53B
:102670004FF4127404FB00342046FFF7F5FE2046A9
:10268000BDE81040FFF7CCBF84150020436B13B1A9
:1026900090F844007047826A436AD31A58425841FE
:1026A00070471FB5836800930023ADF80430437969
:1026B00003F0040101F0FF0231B14FF40052ADF814
:1026C00006204FF4806201E0ADF80620ADF8082046
:1026D0000022ADF80C2013F0010218BF04229B0762
:1026E000ADF80A2005D5BDF80A3043F00803ADF86F
:1026F0000A30006D69460AF039F805B05DF804FB50
:102700008160FFF7CEBF4171FFF7CBBF026B03695A
:102710001AB15168013B026C02E0C169026A013BD7
:10272000881A1840C0B27047016B0346C26810B5E2
:10273000406941B1196C541A005D013918BF0A464D
:10274000C0B21A6410BD196A405C0131B1FBF2F4E9
:1027500002FB1412C0B21A6210BD00002DE9F04154
:102760001E464C4B8CB098428846174604D1104602
:10277000314600F0C9F807E0474B984240F08580A9
:102780001046314600F018F900250562C5618562E2
:102790004562C0F82C804671876085710446FFF75A
:1027A00080FF01A80AF0F0FAE36CF20701934FF4FE
:1027B00080530A934FF080030B9505950795069378
:1027C000089527D5206BD0B1E368039504932023A7
:1027D0000993636902930AF041FA206B01A90AF098
:1027E000B5FA206B01210AF0DCFA206D40210122AC
:1027F0000AF034F8206B0AF0E9FA20640AE0206D50
:1028000040F225510AF033F8206D40F225510122A3
:102810000AF00CF801A80AF0B7FAA36C002501939E
:102820004FF480530A938027B3070B9505950795BE
:102830000697089523D5606BD8B123690995049351
:10284000102303930AF00AFA606B01A90AF07EFADA
:10285000606B012202210AF0AFFA606B29460AF090
:10286000B3FA636B206D5D603946012209F0F6FF13
:1028700005E0206D40F22771012209F0D7FF206D9D
:10288000012109F0C7FF204600E000200CB0BDE8A0
:10289000F08100BF003801400044004003469A6ABE
:1028A0009969406B1144C160596A914203D98A1AEF
:1028B0004260996204E019698A1A426000229A62B1
:1028C000002283F8442001210AF06BBA10B5426A55
:1028D0008469A154416A02690131B1FBF2F402FB3F
:1028E00014124262426B32B11368DB070BD4BDE8AD
:1028F0001040FFF7D3BF006D40F227710122BDE801
:10290000104009F093BF10BD254B264A13B51A603D
:10291000254A98605A61254A0C469A614FF48072A4
:10292000DA601A61224A4FF480401A6504329A64D0
:10293000DA6402F5484254321A630121143A5A63A8
:102940000AF07CF802238DF803304FF40073ADF8E1
:102950000030A2074FF018038DF8023003D5154858
:102960006946FFF7D5F94FF48063ADF8003048238E
:102970008DF80230E30703D50E486946FFF7C8F922
:102980000E238DF8043001A801238DF805308DF851
:1029900006308DF8073009F0B5FB014802B010BDD4
:1029A000540A002034F70008920700205209002042
:1029B0000038014000080140224B234A13B51A6039
:1029C0008022DA6040221A61204A98605A61204AC7
:1029D0000C469A611F4A4FF400301A6501210432F7
:1029E0009A64DA640AF036F802238DF8033004237F
:1029F000ADF80030A2074FF018038DF8023003D570
:102A000015486946FFF784F90823ADF800304823DC
:102A10008DF80230E30703D50F486946FFF778F9D0
:102A200026238DF804300222012301A88DF80530F9
:102A30008DF806208DF8073009F064FB014802B0DC
:102A400010BD00BFA80A002034F70008920800203B
:102A500012090020004400400008014010B50B4C52
:102A60004FF400500AF0B6F9606B00210AF099F9B2
:102A7000626AA36A9A4204D02046BDE81040FFF77C
:102A80000DBF012384F8443010BD00BF540A00205C
:102A90000D4B186D0288120614D59A6A596A8A423B
:102AA0000BD09969895C0132C9B281801969B2FB86
:102AB000F1F001FB10229A62704740F22771002268
:102AC00009F0B4BE704700BF540A002038B51B4C53
:102AD000236D1D88ADB2AA0612D5E26A1AB1988894
:102AE00080B290470CE09B88E2696169DBB28B544D
:102AF000E269E3680132B2FBF3F103FB1123E36106
:102B00002B0619D5A26A616A0C4B8A420CD09869CF
:102B1000196D805C0132C0B288801969B2FBF1F096
:102B200001FB10229A6238BD186D40F22771002215
:102B3000BDE8384009F07ABE38BD00BFA80A0020C1
:102B400010B50023094CDAB254F822400133844214
:102B5000F8D10023064CD8B234F8104001338C422F
:102B6000F8D102EB8000C0B210BD00BF2CF8000805
:102B70003CF8000870B504460026324B9D5DA5B9AF
:102B80002046022109F0E3FD012857D12046022109
:102B900009F0E8FD29462046FFF7D2FF2A4D05EB54
:102BA0000015204609F0C6FD43E0042D14D120464F
:102BB000294609F0CCFD012840D12046294609F0DC
:102BC000D1FD29462046FFF7BBFF1F4D05EB001541
:102BD000204609F0B2FD2CE0082D14D120462946EC
:102BE00009F0B5FD012829D12046294609F0BAFD92
:102BF00029462046FFF7A4FF134D05EB001520469C
:102C000009F09EFD15E00C2D18D12046102109F089
:102C10009EFD012812D12046102109F0A3FD29466E
:102C20002046FFF78DFF084D05EB0015204609F003
:102C30008AFDAB6801460BB1287B98470236082E07
:102C40009BD170BD3CF80008FC0A002070B50C4612
:102C500015461E46FFF774FF0F2805D8034B03EBFC
:102C6000001086600471057370BD00BFFC0A00206F
:102C70000C2912D8DFE801F0071111110911111107
:102C80000B1111110D00022104E0042102E00821C2
:102C900000E01021012209F056BC704738B5044607
:102CA0000D461346217B00682A46FFF7CFFF2068B8
:102CB000217BBDE83840FFF7DBBF07B501238DF866
:102CC000040001A88DF805308DF806308DF8073026
:102CD00009F018FA03B05DF804FB00007FB5044664
:102CE00001A816460D4609F0F9FB0B4B013D5E436A
:102CF0000A4B20461B6801A9B3FBF6F6013E0023F0
:102D0000ADF80850ADF80460ADF80A30ADF8063003
:102D100009F09CFA04B070BD40420F008801002009
:102D200010B504460068FFF7D9FF2068012109F0BB
:102D3000F0FB607BBDE81040FFF7BFBF0148FFF725
:102D400019BF00BF002C01404FF08040FFF712BFB9
:102D50000148FFF70FBF00BF000400400148FFF724
:102D600009BF00BF00080040024800214FF48072F4
:102D70000BF0F4BBFC0A002010B5FDF7C7FE0A49B2
:102D8000FDF718FF0949FDF7C9FF094B04461B6809
:102D90001878FDF7BBFE01462046FDF70BFFFEF756
:102DA000F5F880B210BD00BF3333534000F07F45CB
:102DB000080C002010B50D4B00201C78621C1A7006
:102DC000FEF70EFB0A4A04F00704002322F8140061
:102DD0001846D15A02330844102B80B2F9D1C008EA
:102DE000FFF7CAFF034B187010BD00BF140C002082
:102DF000160C00200C0C0020074B084A1B78128888
:102E00009A4207D3064A1268907898428CBF0020F5
:102E100001207047002070470C0C0020141A00207D
:102E2000080C0020114B70B51860202500241E46A8
:102E30000020FEF7D5FA04440A2002F09EFA013D74
:102E4000F6D1C4F34F10FFF797FF316801234C7898
:102E50002246904203D30133082B2244F9D1044A7D
:102E600013708A785343034A138070BD080C002006
:102E700001000020141A002040F6E4435843074B99
:102E800040F6FF721B68B0FBF2F0DA88801A4FF44C
:102E90007A7250439A8890FBF2F07047080C002039
:102EA000F8B5114C08252268074692FBF5F6961BEB
:102EB00002202660FEF794FA3044206090FBF5F083
:102EC00080B2FFF7D9FF094A094B106078434FF4ED
:102ED0007A72B0FBF2F01A6810441860054BB0FB30
:102EE000F3F0054B1860F8BDFC0B0020040C00202B
:102EF000100C0020407E0500000C00202DE9F04F52
:102F00000446008885B048B9B4F9023043B9B4F931
:102F10000430D3F1010338BF002302E0002300E0B6
:102F2000034613F0010377D13D4A00B2137000F05D
:102F300003FE0646B4F9020000F0FEFD0546B4F9B2
:102F4000040000F0F9FD0446304609F04DFF074645
:102F5000304609F0BDFF8046284609F045FF064689
:102F6000284609F0B5FF0546204609F03DFF824698
:102F7000204609F0ADFF394681465046FDF71AFE5E
:102F8000394683464846FDF715FE514601904046B6
:102F9000FDF710FE494602904046FDF70BFE314614
:102FA00003905046FDF706FE1E4C4946206006F190
:102FB0000040FDF7FFFD29466060A5600298FDF71F
:102FC000F9FD01460198FDF7EDFC2946E060039804
:102FD000FDF7F0FD01465846FDF7E2FC3146206161
:102FE00008F10040FDF7E6FD294660615846FDF70F
:102FF000E1FD01460398FDF7D3FC2946A061019845
:10300000FDF7D8FD01460298FDF7CCFC3946E0619A
:103010003046FDF7CFFD206205B0BDE8F08F00BF60
:1030200002000020280C00202DE9F8434D4B0C46EF
:103030000168013A196081889980072A30D8DFE851
:1030400002F004080F14191E22261A8822805A88BA
:1030500003E05A8822801A88524262809B881EE0D0
:103060001A88524222805A88F6E75A8852422280B1
:103070001A88F2E71A88524222805A880CE05A884D
:1030800022801A8808E01A8822805A8803E05A8829
:10309000524222801A88524262809B885B42A380FF
:1030A000314B1B78002B5AD1B4F90000FDF72EFDEF
:1030B0008046B4F90200FDF729FD0746B4F9040083
:1030C000FDF724FD294D064629684046FDF772FDAF
:1030D000E96881463846FDF76DFD01464846FDF733
:1030E00061FCA96981463046FDF764FD014648460A
:1030F000FDF758FC09F0AEFE696820804046FDF7F8
:1031000059FD296981463846FDF754FD0146484678
:10311000FDF748FCE96981463046FDF74BFD014665
:103120004846FDF73FFC09F095FEA96860804046DF
:10313000FDF740FD696980463846FDF73BFD0146D5
:103140004046FDF72FFC296A07463046FDF732FD61
:1031500001463846FDF726FC09F07CFEA080BDE85C
:10316000F88300BF4C0C002002000020280C002037
:1031700070B5124D06462B78114C9BB102F0ECF85D
:1031800023683344984218D300232B7002F0E4F8EC
:103190000C4B20601A780AB1013A1A700A4B0122CE
:1031A0001A7070BD02F0D8F823683233984204D305
:1031B00001232B7002F0D0F8206070BD530C00206A
:1031C000600C0020550C0020540C002073B5214DDC
:1031D0008DF807302B788DF8062002AA8DF80400B0
:1031E0008DF805101A4412F8042C443AD2B20A2A77
:1031F00028D81949022B31F8124003D814B12046BF
:10320000FFF7B6FF2B78022B0BD9144B1E6802F088
:10321000A3F8001B864204D20E4A00231370104A02
:103220001370104B1A78012A1A4600D07CB92B78FB
:10323000022B02D8074901330B70002313700A4A8E
:10324000137004E0022B4FF03204D8D9DAE702B051
:1032500070BD00BF570C002044F80008600C00202F
:10326000550C0020540C0020530C0020014B18601A
:10327000704700BF5C0C00202DE9F0473F4A07462D
:10328000537B91463E4D03B101234FF400702B70E8
:1032900000F07CF93B4C30B33B4EDFF8F4803368F0
:1032A00098F802001B68003018BF01205B6898473F
:1032B00040B10123237033681B68DB68984708B16D
:1032C0000223237033681B689B68984720B198F8E5
:1032D00002300BB90223237033681B689B6998473F
:1032E00008B100232370202005F0E8F968B199F8AF
:1032F0000A20264B12B9214AD27A22B1244AD27A24
:103300000AB9012200E000221A702378022B02D1B0
:103310004C204E211CE0012B07D153204D214C2283
:103320000B46BDE8F047FFF751BF184B1B78012B48
:1033300003D1532001464E2205E02B78012B04D106
:103340005320014602464D23EBE727B153204D2180
:103350000A464423E5E70E4B5B7C1BB153204D210D
:103360000246DDE70B4B1B7823B13220BDE8F04766
:10337000FFF7FEBE084B1F70BDE8F087A5200020B8
:10338000520C0020580C00205C0C0020560C002031
:1033900093200020550C0020530C0020014B187086
:1033A000704700BF550C00200E4B1A78462A16D1E4
:1033B0005A88B2F58A6F12D11A79BE2A0FD193F8C2
:1033C0004D240020EF2A0CD113F8012B5040064A5F
:1033D0009342F9D1D0F1010038BF0020704700209E
:1033E0007047704700F8010850FC0108C8230380AB
:1033F000142383701E23C370012303716423C380CD
:103400004FF49673038128234381704710B5044617
:10341000272006F04BFB2070102006F047FB607061
:10342000002006F043FBA070002006F03FFB4FF4A5
:10343000E1336360A360E36023615223E07023758E
:1034400010BD000030B51C4C1C4D85B0204605F069
:103450006BF92946204605F081F905F1240001F0B9
:1034600007FE05F16C0005F045FE14F8500C02F063
:10347000ADFD04F1A60003F0C5FFA4F14C0004F07B
:1034800087FE04F19A0000F0A7FE05F1280001F084
:10349000E9FD05F15103009305F13E03019304F1A9
:1034A000A403029304F15A00A91D2A4604F1A203C1
:1034B00003F044FA05B030BDB81E0020E81A002021
:1034C00008B5054B4FF4827202FB0030034900F54A
:1034D000A070FDF77BFD08BD181A0020681E0020B3
:1034E000F8B5274B46221A704FF48A625A80BE22E2
:1034F0001A71EF2283F84D24002283F84E241146DE
:103500001F46BB5C0132B2F58A6F81EA0301F8D134
:103510001B4B042683F84E1409F0B0F90025013E38
:1035200016F0FF061ED0342009F0BCF9154CC4F388
:10353000090363B13A1902F17842A2F5FC32204640
:10354000116809F0F9F90428054607D0E7E7204695
:1035500009F0D4F904280546ECD0E0E70A4B04341E
:103560009C42E4D109F096F9042D02D1FFF71CFF2B
:1035700020B90A20BDE8F84001F076BFF8BD00BFD1
:10358000181A002000F8010850FC0108034B9B6842
:1035900018420CBF00200120704700BF181A0020FD
:1035A000024B9A6810439860704700BF181A0020B9
:1035B0002DE9F04FB74AB84D85B010685168B74C47
:1035C00002AB03C34FF48A62002128460AF0C6FF0B
:1035D00000214FF4827220460AF0C0FF46232B7070
:1035E000022003236B71FFF7DBFF4FF41673A5F87E
:1035F000F030FA23A5F8F2302A23A5F8EE304FF484
:10360000FA73A5F8F630202385F8F4306E2385F898
:10361000043140F24C412B2385F80531A5F81A11ED
:10362000212340F26C7100264FF0010840F2DC5279
:1036300085F80631A5F81C114FF4C87340F27E419D
:10364000A5F80831A5F8182185F84C64A5F8FA60AA
:10365000A5F8F860A5F8FC6085F8E26085F8E360FD
:1036600085F8E460A5F8E660A5F8E860A5F8EA60EA
:1036700085F8ED6085F8EC80A5F80A6185F83C6175
:1036800085F83E6185F83D6185F8166185F81E6113
:1036900085F8206185F8216185F82281A5F8D01090
:1036A00040F23A71A5F8D2104FF47A71A5F8D4100F
:1036B00040F27E51A5F8D61040F2EA514FF032099F
:1036C000A5F8D81005F5927040F2B451A5F8DA10BB
:1036D000A5F8DE300192A5F8DC90A5F8E09085F819
:1036E0002361FFF793FE40F6AC5308201E21AB8107
:1036F000E07417230E20A1732376E17363760B2108
:103700005523A0726420A37121722D231421E07728
:103710007820DFF8B0A1237461726377217560733C
:1037200050215F48E3755F4B2827A1774FF00A0BC4
:103730005A21E1726062AE73267027716771A676B6
:1037400084F807906674E676A674267784F815B038
:10375000277384F82180C4F830A0E36323644FF01A
:103760008243E3624FF07C53A3634F4B84F85010C5
:1037700063644E4B84F85460A3644D4B84F85560E9
:10378000E364412384F8513084F85660019AA062C2
:10379000C4F834A004F15C00A4F8582084F85290D6
:1037A00084F8536002F0D2F8042384F860301523C3
:1037B00084F864303F4BC4F868A0E3663E4B3F4852
:1037C000236705F58771A4F85A6084F8617084F85E
:1037D000627084F8748005F083F94FF44873A4F89C
:1037E000A630C82384F8EB304FF49663A4F8EC308D
:1037F00040F2D933A4F8EE3040F64303A4F8F03099
:1038000084F8A26084F8A36084F8A47084F8A5808A
:1038100084F8A86084F8EAB023464FF47F72A4F8D5
:10382000AA204FF4FA62A4F8AC2002A940F2DC52BC
:10383000A4F8AE208A5D013684F8B020082E4FF03F
:10384000FF0284F8B12004F10804E6D101221C48EB
:1038500083F8F22083F8F32083F8F420FFF7C6FD05
:103860000023EA1810330021C02B1161F9D1002484
:10387000281900F5A07009494FF4827204F582748A
:10388000FDF7A4FBB4F5437FF2D105B0BDE8F04FDE
:10389000FFF726BE98F60008181A0020681E0020C0
:1038A000000020408FC2753DCDCC4C3D0000A040B3
:1038B00000004040F6287C3F3D0A773F5AF8000858
:1038C0005E1F00209A99193F08B5FFF76DFD18B9E2
:1038D000BDE80840FFF76CBE08BD0000024B9A68C7
:1038E00022EA000098607047181A002010B5344C86
:1038F00048F20103A268134033B9324B13401BB99D
:103900004FF40040FFF74CFEA3681A040CD59B034C
:1039100003D54FF40030FFF7E1FFA368D80403D5C7
:103920004FF48050FFF7DAFFA368D90311D51A07C7
:1039300002D50820FFF7D2FFA3681B0403D54FF47C
:103940000040FFF7CBFFA368D80702D50120FFF79F
:10395000C5FFA36819070BD51A0403D54FF400401F
:10396000FFF7BCFFA368DB0702D50120FFF7B6FF16
:10397000A26848F20103134048F20102934203D1C6
:103980004FF40040FFF7AAFFA26848F2400313403B
:1039900048F24002934202D14020FFF79FFF0A48BD
:1039A00004F020FF094806F0FFF9084806F07AF90C
:1039B00020B90648BDE81040FFF728BD10BD00BF84
:1039C000181A002008000100261B00203C1B0020C4
:1039D00007B5FFF7E9FC10B90A2001F045FD104BCF
:1039E000104918464FF48A62FDF7F0FA90F84C241B
:1039F000022A84BF002280F84C2490F84C144FF423
:103A0000827202FB0101084801F5A071FDF7DEFAA0
:103A1000FFF76CFF03B05DF804EBFFF713BD00BFC9
:103A2000181A002000F80108681E002008B5FFF7EA
:103A3000CFFFBDE808400F201421012208F02AB969
:103A400008B5054B93F84C04FFF73AFDFFF748FD26
:103A5000BDE80840FFF7EABF181A0020014B98683C
:103A6000704700BF181A0020884203DB9042A8BFAD
:103A7000104670470846704770B504460E46154616
:103A8000FDF736FA30B920462946FDF74FFA18B14E
:103A9000284670BD304670BD204670BD00230361CE
:103AA00070472DE9F041066904460136012E0D46A6
:103AB000066105D10023616021608360BDE8F0816B
:103AC000D0F8008008464146FCF76AFF07463046BA
:103AD000FDF71CF801463846FDF720F9014640463F
:103AE000FCF760FF0646606031462846FCF758FF49
:103AF00001463846FDF75EF8A168FCF753FF2660E3
:103B0000E060A060BDE8F08110B5044600690128BE
:103B100007DD0138FCF7FAFF0146E068FDF7FEF823
:103B200010BD002010BD08B5FFF7EEFFBDE808404E
:103B300009F05EBA0000000008B5FCF765FC04A3BC
:103B4000D3E90023FCF7C6FCFCF7D6FE08BD00BF96
:103B5000399D52A246DF913F2DE9F041069C002B92
:103B600006460F460CBF4FF020084FF030082346A2
:103B700013F8011B09B9154603E0002AFBDD013AE1
:103B8000F6E7002D04DD30464146B847013DF8E731
:103B900014F8011B11B13046B847F9E7BDE8F081D0
:103BA000014B186801F08CBB6C0C00202DE9F0472C
:103BB00088B006460F4603921C46039A531C039393
:103BC0001178002900F08D80252901D0304686E04B
:103BD0000023911C049303915578302D05D1D31CFB
:103BE000039395784FF0010800E09846A5F1300363
:103BF000DBB2092B06D8284603A90A2204AB00F041
:103C000034F905466C2D05D1039B5A1C03921D788F
:103C1000012200E00022632D4FD006D8252D5CD074
:103C2000582D2AD0002D5CD0C7E7732D4AD002D87A
:103C3000642D14D0C1E7752D02D0782D1DD0BCE7BE
:103C400004F1040905AD20680A2122B100222B46A7
:103C500000F090F80EE02B4600F0BFF80AE005AD4A
:103C600004F104092068294612B100F0ABF801E024
:103C700000F0DBF84C46009518E004F1040A0DF161
:103C80001409206810213AB1B5F15804624262412A
:103C90004B4600F06FF806E0B5F158035A425A411E
:103CA0004B4600F09AF85446CDF80090304639461D
:103CB000049A4346FFF750FF7FE730462178251DE1
:103CC000B84708E02368304600933946049A002339
:103CD000251DFFF741FF2C466FE730462946B847C0
:103CE0006BE708B0BDE8F0870FB407B50A4904AB2D
:103CF00008680A4953F8042B09680193FFF756FF37
:103D0000074B186801F0FBFA0028F9D003B05DF802
:103D100004EB04B0704700BF680C0020640C002066
:103D20006C0C0020034A044B1A60044B00221A60FA
:103D3000704700BFA13B0008640C0020680C002005
:103D4000014B1860704700BF6C0C002070B5064630
:103D5000B6FBF2F40846154614B12046FFF7F6FF0D
:103D600005FB1464024B1B5D00F8013B70BD00BFF6
:103D700063F80008F0B50124B0FBF4F58D4201D3DF
:103D80004C43F9E70026DCB1B0FBF4F504FB150069
:103D9000B4FBF1F41EB9002D01DC002CF3D1092D88
:103DA00003F101075FFA85FC04DD002A0CBF5725EB
:103DB000372500E0302565441D7001363B46E2E7BB
:103DC0001C70F0BD00280B4603DA2D2240420A7019
:103DD0004B1C0A210022FFF7CDBFF0B50124B0FB38
:103DE000F4F58D4201D34C43F9E70026DCB1B0FB7A
:103DF000F4F504FB1500B4FBF1F41EB9002D01DC51
:103E0000002CF3D1092D03F101075FFA85FC04DDD5
:103E1000002A0CBF5725372500E0302565441D706A
:103E200001363B46E2E71C70F0BD00280B4603DA82
:103E30002D2240420A704B1C0A210022FFF7CDBF01
:103E4000A0F13003DAB2092A01D818467047A0F170
:103E50006103052B01D857387047A0F14103052BAA
:103E600094BF37384FF0FF3070472DE9F8430D68A5
:103E700004460F469046994600262046FFF7E0FF8D
:103E8000002806DB404504DC08FB060615F8014B5C
:103E9000F3E73D602046C9F80060BDE8F883931E53
:103EA000232B28BF0A22031E10B50C4603DA2D204F
:103EB00001F8010B5842FFF749FF00230370204629
:103EC00010BD000030B587B005460C4603A80021A0
:103ED0000C220AF043FB28460021FDF727F820B109
:103EE00028462949FCF75EFD03E028462649FCF7F1
:103EF00057FD2649FCF75EFEFDF722F8054685EAE8
:103F0000E570A0EBE57069460A22FFF7C8FF002DB7
:103F1000ACBF20232D2368468DF80C300AF014FF27
:103F2000012807D130238DF80D308DF80E308DF833
:103F30000F300CE0022805D130238DF80D308DF8BC
:103F40000E3004E0032804BF30238DF80D3069469D
:103F500003A80AF0FBFD03A80AF0F6FE0338C5B279
:103F60002A4603A920460AF047FF0023635520464E
:103F700007490AF0EBFD03A9204629440AF0E6FDB3
:103F8000204607B030BD00BF6F12033A00007A44EC
:103F9000EC0201082DE9F04102780346202A00F1E5
:103FA0000100F9D0092AF7D02D2A02D10346414D4C
:103FB00004E02B2A08BF03464FF07E551E4600241E
:103FC000334616F8012BA2F13007F9B209290DD8B2
:103FD00039492046FCF7EEFD04463846FCF796FDCD
:103FE00001462046FCF7DEFC0446E9E72E2A17D1FD
:103FF000314F334616F8010B3038C2B2092A0FD8B8
:10400000FCF784FD3946FCF789FE01462046FCF7A3
:10401000C9FC294904463846FCF7CCFD0746E8E7C9
:104020001A7802F0DF02452A38D15A782D2A02D1B7
:104030000233012604E02B2A14BF01330233002689
:10404000013B002713F8012F303AD1B2092903D8D8
:104050000A2101FB0727F5E7B7F59A7F28BF4FF440
:104060009A77B8464FF07E51B8F1070F07D9084646
:104070001249FCF79FFDA8F108080146F4E707F094
:10408000070737B108460C49FCF794FD013F01468C
:10409000F7E72EB12046FCF741FE04E04FF07E51D9
:1040A0002046FCF787FD01462846FCF783FDBDE866
:1040B000F08100BF000080BF0000204120BCBE4C4A
:1040C000014B00229A807047740C0020034BB3F917
:1040D0000400D0F1010038BF00207047740C0020AC
:1040E000014B187A704700BF740C0020014B01226D
:1040F0001A727047740C0020064BB3F90400064B8B
:104100001B681B7803EB83039842D4BF0020012077
:10411000704700BF740C0020800C002010B50446CE
:10412000FFF7EAFF002814BF2046002000F001003E
:1041300010BD0000074B1A68074B1178B3F9040053
:1041400053780B4403EB83039842D4BF0020012033
:10415000704700BF800C0020740C0020024B9A882E
:1041600001329A80704700BF740C002070B5FFF7D1
:10417000C3FF30B3134C237A0BB9A38070BD124E2A
:10418000B578281C18BF0120FFF7C8FF88B10123AC
:1041900073700E4B1A680E4B5189198051895980E2
:1041A00052899A800B4A12685288DA80E388013378
:1041B000E380FFF7BFFF00B91DB9BDE8704000F014
:1041C0006BBB70BD740C002093200020840C002079
:1041D000EE200020800C0020024B00221860024BD1
:1041E0009A807047800C0020740C0020044B1860EB
:1041F0000448054B03600023C3800372704700BF6F
:10420000840C0020740C002088F80008044B9A8865
:1042100011B21429CCBF143A00229A80704700BF13
:10422000740C0020032810B50D4B0DD80D4A1268F0
:1042300094888C4208D2D2888A4205D9012202FA97
:1042400000F01A78104318701B780F2B06D1044B1E
:1042500000221A70BDE81040FFF7D8BF10BD00BFA4
:10426000700C0020800C002070B56F4C86B0FFF7FA
:1042700059FDFFF729FBFFF7ABFBA07B003018BF10
:10428000012001F085F84FF40030FFF77FF98DF839
:1042900004004FF48050FFF779F98DF8050001A86C
:1042A000FDF7C6F80220FFF771F918B104F5827026
:1042B000FEF7B8FD5D485E4DFEF720FE022004F0DB
:1042C00007FA5C48B4F8EE1094F8ED20B5F95A30CE
:1042D00000F08EFF2E4610B9032001F0C5F80A2524
:1042E000192001F04AF8192001F047F86B1E13F06D
:1042F000FF05F5D101F0FCFE60794F4902F082FB29
:10430000FEF732FD4D4805F0E1FD63790E2B01D03B
:10431000082B03D101238DF80F3001E08DF80F50E9
:104320000121464805F004FD8DF80B004020FFF701
:104330002DF98DF80C004FF40040FFF727F98DF8A8
:1043400008004FF40030FFF721F98DF80A00012032
:10435000FFF71CF98DF8090002F084FF96F8F4309D
:104360008DF80D00C3F380038DF80E30B4F8DE3005
:104370004FF48040ADF81030B4F8E030ADF81230B2
:104380004FF47A73ADF81430FFF700F920B1264BE3
:10439000B3F8DA30ADF81430BDF81030224DB3F573
:1043A000FA7F84BF0023ADF81430B4F8183102A8A6
:1043B000ADF81630FDF7E6FC05F58770FFF716FF40
:1043C0001F4E3060FEF752FF05F58770316804F02C
:1043D00043FA4FF48070FFF7D9F840B1194A05F558
:1043E000927095F82311A2F1F20303F021FF4FF42C
:1043F0000060FFF7CBF808B104F004FF00F092FF73
:10440000114B18606379052B03D14FF4C87000F08D
:1044100011FD4FF47A7000F031FE0C4B01225A73FB
:1044200000225A7006B070BD181A0020FE1A002033
:10443000681E0020FA1A0020281A00203C1B0020C9
:104440006C1F00205E1F0020B00C00209320002075
:1044500008B5FFF709FF00F045FAFCE708B5034B84
:10446000B3F9D40002F0EAFBFEE700BF181A0020FF
:1044700038B5194B194C5D7D637CFDB153BBA378F6
:104480009BB101F00DF8164D08B92B781BB101F066
:104490007FF900232B70134810F8041C01F096F9E3
:1044A0000123114A6374137038BD01F03FFA88B1DB
:1044B000FFF7C6FABDE8384001F06AB913B101F060
:1044C000F3F96574A3782BB9074B1B7813B1044B30
:1044D00001221A7038BD00BFA520002093200020C3
:1044E0009D0C00206C1E0020940C002008B500F0EC
:1044F000A7FC28B100F0C8FD80F00100C0B205E0C3
:10450000022004F0DBF80028F4D0012000F00100C4
:1045100008BD0000044B1A6822B900F5F42000F52C
:1045200090701860704700BFA00C0020054A136807
:104530003BB1C01A002804DB03F5F42303F59073A4
:1045400013607047A00C0020AF4B2DE9F04FB3F97A
:104550000600AE4B85B0B3F8582090420FDBB0F5A3
:10456000FA6F93F8564007DA811A4C43A2F5FA62C3
:1045700094FBF2F4643403E0C4F1640400E06424C6
:10458000A34A93F85410B2F818C192F9EC2093F8AA
:10459000A25093F8A360524293F8553092B2019121
:1045A0000021029203930A46974B40F2E637CB5E16
:1045B0000093CCEB030303F2F31EBE4503D8002B9C
:1045C000B8BF5B4201E04FF4FA73022ADFF84C8275
:1045D0002CD025B1AB42CCBFC5EB0303002364272D
:1045E000DFF868A293FBF7FE6FF0630B3AF81E90BA
:1045F0000BFB0E3B0EF1010E3AF91EA00FFA89FEDD
:10460000CEEB0A0E0EFB0BFE9EFBF7FECE4428F807
:1046100001E0DDF8048003FB08FE7E4B9EFBF3F314
:104620003B449BB2634393FBF7F714E026B1B342DC
:10463000CCBFC6EB03030023DDF808E003FB0EF755
:10464000A8F80470039F002BB8BF5B427B43714FF7
:1046500093FBF7F764376D4BDFF8F48102EB030E41
:104660009EF80490642307FB09F999FBF3F902F81B
:1046700008909EF80E909EF818E007FB09F907FBDA
:104680000EF7DFF8D08199FBF3F902F80890DDF816
:10469000008097FBF3F3604FE045D3555F4F02DA9C
:1046A0007B5A5B427B520132032A01F102017FF403
:1046B0007BAF574C4FF4FA62B4F81A11FFF7D4F9F4
:1046C000B4F81A314FF47A75C01A4543C3F5FA634A
:1046D000B5FBF3F56421524895FBF1F36FF06306E7
:1046E00030F8132006FB0355013330F9130013B2E1
:1046F000C31A5D4395FBF1F14A4D0A446B7A474C6E
:10470000FA80002B38D0484B1888484B1B88C01AB9
:1047100000B2FFF711FA064608F066FB074630467E
:1047200008F0D6FB0646B4F90200FCF7EFF9804624
:10473000B4F90000FCF7EAF939468146FCF73AFA89
:10474000314682464046FCF735FA01465046FCF7B2
:1047500027F9FCF7F5FB394620804046FCF72AFA9A
:10476000314607464846FCF725FA01463846FCF72D
:1047700019F9FCF7E5FB60800120FEF707FF2C4CE0
:1047800020B32C4B2C4A1E4611881A680A442B4928
:104790001A600A780132D2B20A700621B2FBF1F037
:1047A00001FB102212F0FF0F10D10220FEF7EEFEE7
:1047B00008B1FEF7FFFA4FF48050FEF7E7FE10B1A4
:1047C0003068FEF76DFBFEF717FB20702078154C64
:1047D000003018BF0120FEF74FFDAB78002B41D110
:1047E000FFF784FE01232370637B03B92370144B0E
:1047F0005B7D0BB100232B702B78124C63B3124BF3
:1048000000221A602BE000BFEE200020681E00206E
:10481000181A00200CFEFFFFAB1F0020BC20002058
:10482000C420002093200020B21F00207A1F002007
:10483000AC0C0020880C0020A60C0020900C00205E
:10484000A52000208C0C0020A00C0020DC200020E3
:10485000AE1F0020A81F00202068FFF75BFE206825
:10486000FFF764FE04F0AEFC05F040FB202003F0EF
:1048700025FF18B1054B186803F0B2FE044B9B6886
:104880000BB10448984705B0BDE8F08F8C0C0020B0
:10489000901F0020701F0020024B9A780AB100225E
:1048A0009A707047932000200B4B19781A4651B12B
:1048B000997879B9597831B901229A70074B1A88D9
:1048C000074B1A807047937823B90220FF210122F9
:1048D00007F0E0B9704700BF93200020B21F00200E
:1048E0007A1F00202DE9F84F8D4F03F0FFFF386845
:1048F00004F024F88B4C002800F0E081386804F0C4
:10490000CDF84FF48040FEF741FE20B1864B1B7876
:104910000BB9FFF7C1FF386804F064F94FF4007079
:10492000FEF734FE90B17E4B804D1A68804B9A4260
:1049300008D92B681B681B6A984718B92B681B6835
:104940005B6A98472B681B685B6998470022B4F83C
:104950001A51B4F81C61134676489B08115E023266
:10496000A942C4BF63F07F03DBB2B142B8BF43F0DA
:104970004003082A8146EFD16F4EDFF8D8813278A4
:104980009A4205D198F80020F92A04D8013200E0B3
:10499000002288F800204FF480403370FEF7F6FDC7
:1049A00058B1B4F81811B4F8DC20B9F90630881AF7
:1049B000834202DD0A4493420ADB4FF48040FEF753
:1049C000E5FDC8B9B9F90620B4F81A319A4213DAEC
:1049D00000F0C0FF00F0C6FF584BB3F876305BB173
:1049E000514B1A78564B002A00F0DF811A78002AC2
:1049F00000F0DB81FFF758FF98F80030142B40F0EF
:104A0000BD804F4B4D4D93F802B09A46BBF1000F5D
:104A100018D0B5F8763023B933785F2B01D1FFF782
:104A20003BFF94F82031002B00F0A880B5F87630D9
:104A3000002B40F0A38033787D2B40F09F80FFF760
:104A40002BFF9BE03378572B11D14FF47A7000F095
:104A500015FB4FF48070FEF799FD08B102F03AFDA6
:104A6000082003F02BFEF0B9364B18801BE0042021
:104A7000FEF78CFDB8B1304B1B785A2B13D1324B5B
:104A80001A782AB183F800B0304B01221A700AE07C
:104A90002F4A137883F0010313700BB1022000E05A
:104AA0000320FEF77BFC33785D2B00F085815B2BC8
:104AB00000F084815E2B00F08381B5F876302BB94D
:104AC00032786F2A02D1FFF7EFFE13E094F820212D
:104AD0001AB113B933787E2BF5D03378972B04D1E4
:104AE0004FF4C87000F0A6F904E0A72B04BF01231F
:104AF0008AF80E303378BB2B03D1B5F85E30023321
:104B000004E0B72B05D1B5F85E30023BA5F85E3066
:104B100029E0BE2B20D1B5F85C30023321E000BF84
:104B20008C0C0020181A0020A52000206C1F0020EB
:104B3000404B4C00EE200020920C0020681E00200C
:104B400093200020B21F00209C0C0020930C00201A
:104B5000960C0020910C0020BD2B0FD1B5F85C30D5
:104B6000023BA5F85C3094F84C04FEF7A9FCFEF774
:104B7000B7FCFEF75BFF002388F800300420FEF747
:104B800005FD48B3974A984B117871B197498978D8
:104B900059B1B9F90600B4F81A11884205DD19783F
:104BA00019B993483225058011705B7C53B1914B44
:104BB0001A782AB9904A127812B98D4A3221118096
:104BC000012208E08C4B1A7832B1884A92781AB9DF
:104BD0001A708A4B01221A7089480123002230F88A
:104BE000021F5E1EA1F21555B5F5C77F8CBF0025CB
:104BF00001259D4009B22A4340F21355A942CCBF7A
:104C000000250125B5402A4340F2A465A942D4BF3E
:104C1000002101215D1CA94003330A430D2B92B2F0
:104C2000DDD100237749704E01EB4301B1F87610D6
:104C30000A420CBF0021012199550133162BF1D1F5
:104C400073786A4D23B1022003F038FD68B914E08F
:104C50004FF40070FEF79AFC78B16B4B1B681B6831
:104C60009B6898470028EED107E0EB783BB900F04D
:104C700071FE5E4B0122DA7001E00023EB70B37825
:104C80004BB10023EB702B7933B900F063FE574B27
:104C900001221A7100E02B71202003F00FFD08B1F2
:104CA00003F042FC337B03B10123AB726379082B21
:104CB00001D00E2B24D100236B7221E0534D2B68C1
:104CC000042B1DD8DFE803F00305080B16000123B1
:104CD0002B602B6801332B602B6801332B602B6812
:104CE0004FF4807001332B60FEF750FC10B102F0DE
:104CF00017FC05E000234FF400502B60FEF746FC44
:104D000000F010FBA2893860414B1AB11968411AB2
:104D100000293CDB1044186001F00AFCFFF714FC8A
:104D200000F000FB3B4B3C491A683860821A18605F
:104D30000A80FFF79DFB334B93F8A83053B12B4B00
:104D4000DA780AB91B792BB1344B354A1188DA88E5
:104D50000A44DA80202003F0B1FC40B1234BDA7919
:104D60000AB91A7A1AB11B7B0BB103F03BFB2D4831
:104D70002D4B00F14C01B4F8F6201D6800F15803EA
:104D8000A84701F06DFF01F0E9FE01F043FF274B5A
:104D90001B78002B4CD14FF40060FEF7F7FB002886
:104DA00046D0BDE8F84F04F057BA9B78002B3FF48B
:104DB00023AEFFF771FD1FE6012202E0022200E0B0
:104DC00003225FFA82FB0BF1FF3384F84C34FEF7C9
:104DD00087FBFEF7FDFD022028215A4606F05AFF08
:104DE0006BE600BF960C0020A52000209320002039
:104DF000A40C0020950C00209C0C0020930C00209B
:104E0000F4200020681E00206C1F0020A80C002049
:104E1000980C0020B00C0020A60C0020BC20002024
:104E2000A00E00206C1E002008000020C0140020EE
:104E3000BDE8F88F014B1880704700BFC00C002000
:104E4000034B1888D0F1010038BF0020704700BF25
:104E5000C00C0020204B00222DE9F041196880464B
:104E600013461E4C1E4E25881E4FB5F5C87F04BF45
:104E70000025F550F05832F907C0194D844446F822
:104E800003C0043300260C2BD6538E5202F10202CB
:104E9000E7D12388012B19D12B68404603F1C802C2
:104EA0004FF4C87392FBF3F20A806A68C83292FB2F
:104EB000F3F24A80AA68C83292FBF3F30A4A1288D6
:104EC0009B1A8B8000F042FDFEF7BAFD2388013B60
:104ED0002380BDE8F08100BFC40C0020C00C00207E
:104EE000C80C0020CC1F0020040000202DE9F04158
:104EF000354D04462B88322B0ED1344B1A68344B77
:104F0000118819805188928859809A80314B028883
:104F10001A8042885A8001E0002B34D02B490022AD
:104F2000D1F800C013460F46298832292A4904BF08
:104F30000020C8502948CE5832F900804644CE504F
:104F4000043300210C2B11522CF8021002F1020242
:104F5000EAD12B88012B13D1214A02201170214A5A
:104F60001370FEF71BFA1A4A3B68118819805188A2
:104F7000928859809A80174B1A885B8822806380B8
:104F80002B88013B2B80184B1A78DAB1124900228A
:104F90001A700E4B08681B68322290FBF2F01880E2
:104FA000486890FBF2F058808968204691FBF2F245
:104FB0000E490988521A9A8000F0C8FCBDE8F041F9
:104FC000FEF73EBDBDE8F081A40C0020C40C00201B
:104FD000B40C0020BC0C0020D40C0020CC1F0020FE
:104FE000950C00209C0C0020930C00200400002055
:104FF000064B028819888A1A1A80598842888A1AA8
:105000005A80998882888A1A9A807047CC1F00201B
:105010000F4B10B55B6804460E4898470E4B0D4881
:105020001A780146FEF700F80C4B1B8813B1204696
:10503000FFF710FF0420FEF7A9FA10B12046FFF792
:1050400055FFBDE81040064B1868FFF7D1BF00BF01
:105050007C1F0020CC1F0020BA0C0020C00C0020B8
:10506000C40C0020014B1860704700BFC40C002026
:10507000014B1860704700BFEC0C0020014B1880FA
:10508000704700BFF00C0020034B1888D0F10100DE
:1050900038BF0020704700BFF00C00203C4B2DE9CA
:1050A000F74F5B683B4898473B4B3A481A780146B4
:1050B000FDF7BAFF394B374F1A889846DFF8E8A05A
:1050C000002A3CD0364B00251B68364E93F800B0C2
:1050D0002C46B8F80030DFF8D490B3F57A7F05D1CC
:1050E0000023304649F80430FEF7D8FC785F59F8C1
:1050F0000430034449F80430FBF708FD014630460C
:10510000FEF7CFFC00237B532AF80530B8F80030B7
:10511000012B25D13046FEF706FD0346BBF1000FFB
:105120000FD058460193FBF7F1FC019B014618464E
:10513000FBF7FCFE28B1194B4FF47A721A8000235A
:105140001BE059F804304FF47A7203F5FA7393FBBD
:10515000F2F30A200F2101222AF8053006F09AFD09
:1051600004340C2C05F1020506F11406B1D1B8F88F
:105170000030013BA8F80030E1E7F95A3AF8032083
:105180008A1AFA520233062BF7D103B0BDE8F08F2A
:10519000901F0020B41F00203C0D0020F00C0020C8
:1051A000EC0C0020000D00207C0E0020F40C0020F0
:1051B000034B0146002203481A70FCF7DDB800BF1C
:1051C0003C0D0020901F002003780BB1054A13709E
:1051D00043780BB1044A137083780BB1034A137000
:1051E000704700BF3C0D0020BA0C0020E80C0020E6
:1051F0002DE9F8438046084614461E46FFF7D8FFBF
:10520000054600284AD0274B0022022C1A70264F50
:1052100007D0072C01D054B903E0022003F060FA54
:1052200005E02248FCF758F808B102233B703B78B0
:105230002BB90CB11C46E6E7022003F051FA4046B8
:10524000FFF7C2FF022003F039FA10B1174B1B68B9
:105250009847174B174C1B689847082003F02EFA05
:105260000746C8B14FF0640896FBF8F52846FBF7EF
:105270004DFC814608FB156000B2FBF747FC0E4968
:10528000FBF798FC01464846FBF78CFB0B49FBF704
:1052900091FC3D46206001E0002323602846BDE8E4
:1052A000F88300BFBA0C0020E00C00207C1F002017
:1052B000901F0020A40E00208988883C0000204117
:1052C00008B503681B68984708BD38B505460C4605
:1052D00014F8011B19B12846FFF7F2FFF8E738BDB3
:1052E00008B503685B68984708BD08B503689B6804
:1052F000984708BD08B50368DB68984708BD08B53E
:1053000003681B69984708BD08B503685B6998473F
:1053100008BD7047024B1A6801321A60704700BF1F
:10532000400D002010B5094A094913688C681268BD
:105330009342F8D1074A106811684FF47A725043CB
:10534000001BB0FBF1F002FB030010BD400D00207C
:1053500010E000E0440D0020014B1868704700BFCA
:10536000400D002038B50446FFF7DCFF0546FFF787
:10537000D9FF401BA042FAD338BD10B504462CB16A
:105380004FF47A70FFF7EEFF013CF8E710BD000024
:1053900030B587B006F0F4FC4FF4A06006F0A8FE2C
:1053A0002648012107F056FB44F61D20012107F095
:1053B00045FB0120014607F035FB002507F06EFB99
:1053C00006AC4FF6FF7369461D4824F8183D8DF86A
:1053D0000250FCF79DFC69461A48FCF799FC6946A7
:1053E0001948FCF795FC194B5A6842F000725A6054
:1053F000FFF78FFF01A807F0C9FA019B144AF021BB
:10540000B3FBF2F3134A14481360144B1A684FF4B9
:105410007A73B2FBF3F2124B013A5A60114A82F8E6
:10542000231007229D601A60FCF714FAFCF7F6FBC4
:105430006420FFF7A2FF07B030BD00BF07004000A7
:1054400000080140000C0140001001400000014034
:1054500040420F00440D0020005800408801002009
:1054600010E000E000ED00E040F2DB14604308B51E
:10547000841E2046FFF781FF1920FFF77EFFF8E723
:1054800010B1034A034B1A60034A044BDA607047B9
:10549000EFBEADDEF04F00200400FA0500ED00E0A5
:1054A000034B1878D0F1010038BF0020704700BFCF
:1054B000600D00202DE9F04F9F4B87B01B780591C0
:1054C000013B012B00F233819C4B1E78864240F059
:1054D0002E819B4B1B78022B00F02981994D0023D4
:1054E0002B80994B31F916009B5D0493049A974BDE
:1054F0001A70974A127803922AB9964B40421A685A
:1055000002F100421A60FBF701FB9349FBF706FC2E
:1055100091490446FBF74EFBFBF712FD8D4F80B21D
:10552000D7F800B08C49029068805846FBF742FBE0
:10553000FBF706FD894AA8801368002118460193ED
:10554000FBF7CCFCDFF80892DFF810A24FF0000860
:10555000834F019B002855D03B6820461946019394
:10556000FBF7E4FC019B38B17E4B029AC3F800B014
:10557000744B3C60DA80C0E018464146FBF7D6FC2D
:10558000002800F0BA80784F3B78002B32D12046BB
:105590005946FBF705FA4FF07E51FBF7A9FC734C17
:1055A00028B160687249FBF705FB60600FE0606836
:1055B0007049FBF7FFFADFF8D4B101905946FBF7C9
:1055C00097FC019B08B9636001E0C4F804B00123B3
:1055D0003B70694B049A1B68CAF800801344002290
:1055E0009A72039A82F0010389F800305C4BC3F889
:1055F000008082E0594B1C60FFF7AEFE5F4BFA3033
:1056000018607AE020461946FBF772FC20B1029B35
:105610004C4ACAF80040D3803868DAF80010FBF72B
:10562000BFF98346FFF798FE544B1B68C01A002849
:105630000DDA58464FF07E51FBF778FC00285CD01D
:10564000464B20461968FBF771FC002855D0454BA6
:1056500038681968FBF76AFC444C48B1012320689C
:1056600044492B80FBF7A6FA41492060A06809E075
:10567000022358464FF080412B80FBF757FC28B19E
:10568000A0683C49FBF796FAA06004E0206838491E
:10569000FBF790FA2060384B2C4A1B682E49206893
:1056A00092F800B00193FBF785FAFBF76FFC019BC2
:1056B00003F80B00A0689B44FBF768FC99F80030E6
:1056C0008BF8140083F0010389F80030264BCAF8E8
:1056D00000801A78C7F800800132D2B2032A01D0C4
:1056E0001A700AE000221A70204B25495868FBF70F
:1056F00061FAFBF74BFC8BF80A0016B92B88643370
:105700002B8099F800300BB11E4B00E01E4B114A64
:105710001360059B33F91600FBF7F8F90E49FBF708
:10572000FDFA0C4A01461068FBF73AF900E0104612
:1057300007B0BDE8F08F00BF600D0020BC0D002059
:10574000690D0020721F0020B0F80008610D0020D4
:10575000C40D0020B80D0020000020414C0D002099
:10576000480D00205C0D0020680D0020500D002029
:105770000AD7833FEC51783F640D0020C00D002014
:1057800000007A440000A0410000A0C16F12833ADB
:10579000044B00221A60044B00221A70034B0122B2
:1057A0001A707047B80D0020600D00200600002020
:1057B00001464C220148FBF709BC00BF6C0D0020DC
:1057C00001494C22FBF702BC6C0D0020254B264AF8
:1057D0001B7870B5032B04460E46137003D1BDE849
:1057E0007040FFF7EDBF012B204D03D1FFF7E0FF25
:1057F000002302E0022B01D101232B701C4A01235C
:1058000013701C4A13701C4A002313601B4A136058
:105810001B4B1C4A1C601C4B1E702B781B4DD65C0E
:105820001B4B1C4A1E701C4BA05D1A60FBF76EF9E7
:105830001A49FBF773FA34442860A07AFBF766F93B
:105840001749FBF76BFA6860207DFBF75FF9154994
:10585000FBF7B0F9A860FBF799FB00232075A37252
:1058600070BD00BF06000020600D0020BC0D0020B0
:10587000C40D0020680D00204C0D0020480D0020B4
:10588000640D0020B0F80008690D0020500D0020C4
:10589000610D00200000A041B80D00200000204153
:1058A00000007A445555553FF8B5194B194D1A78F3
:1058B000511E012921D8184B184F1C68184B194943
:1058C00078681E78FBF776F9FBF760FB26441649EB
:1058D000B072B868FBF76EF9FBF758FB30752078AB
:1058E000FBF714F90146FBF75DF8FBF74FFBA37AD2
:1058F000A0702373237DA37505E0032A03D1002242
:105900001A70012301E02B7801332B70F8BD00BF22
:10591000600D002006000020640D0020500D0020C6
:10592000610D002000007A449A99993F064B10B50A
:10593000186800214FF00104FBF7D0FA08B14FF0CE
:10594000000404F0010010BDB80D00200023038006
:1059500043807047024B00221A605A60704700BFB4
:10596000100E0020054B00221A605A609A60044B0A
:1059700000221A605A609A60704700BF040E00202F
:10598000C80D0020044B987818B1587C003018BF1F
:10599000012000F001007047932000202DE9F04F16
:1059A00087B00593884B0492B3F90220B3F9003015
:1059B000002AB8BF5242002BB8BF5B4200249A4273
:1059C000B8BF1A46804603922546A1462746029450
:1059D000019426467D4BDA7812B91B79002B54D0FE
:1059E000022E52D0784BDDF810C0E85E784BCCF137
:1059F0000001EB5E624603EB4000FEF735F8DFF88E
:105A0000F8A1DDF814C035F90AB03CF90530CBEB4C
:105A1000000000EB030BFFF7B5FFA0B16D4B58463C
:105A2000F35C0093FBF772F86B49FBF777F9009B87
:105A3000024651461846FFF73DFD6749FBF7BAF8A5
:105A4000FBF77EFA834698F8070098F81B2000FBC6
:105A50000BF064236FF0040190FBF3F0514302EB71
:105A60008202FEF701F8DFF894A1019054F80A00D1
:105A70005A49584442F21072FDF7F6FF98F8113077
:105A800044F80A00584300130290504BDA781AB1D8
:105A90001B790BB9022E33D14B4B5020EF5EDFF850
:105AA00044A1784318F8063035F90A20DFF8509100
:105AB00090FBF3F0042392FBF3F3C01A54F809307F
:105AC0004FF47A5218444649FDF7CEFF35F90A30B3
:105AD00049F80400002BB8BF5B42B3F5206FC4BF88
