:020000040800F2
:1000000000500020C9110008791200087556000838
:100010007912000879120008791200080000000027
:10002000000000000000000000000000791200083D
:10003000791200080000000079120008CD6C000859
:100040007912000879120008791200087912000864
:10005000791200087912000879120008092E0008A8
:100060007912000879120008791200087912000844
:100070007912000879120008F93B0008791200088B
:100080007912000879120008791200087912000824
:100090007912000879120008791200080D2E000864
:1000A000791200087912000879120008D93E000878
:1000B000E53E0008ED3E0008F93E0008A5260008D0
:1000C00071280008A9260008752800087912000880
:1000D000791200082D3C0008693C000879120008DC
:1000E000A11D000879120008791200080000000024
:1000F0000000000000000000000000000000000000
:0C01000000000000000000005FF808F1A3
:1001100010B5054C237833B9044B13B10448AFF341
:1001200000800123237010BDE405002000000000C2
:10013000F44A010808B5064B1BB106480649AFF35F
:1001400000800648036813B1054B03B1984708BD0A
:1001500000000000F44A0108E8050020E405002042
:100160000000000081F0004102E000BF83F0004386
:1001700030B54FEA41044FEA430594EA050F08BF42
:1001800090EA020F1FBF54EA000C55EA020C7FEA06
:10019000645C7FEA655C00F0E2804FEA5454D4EB83
:1001A0005555B8BF6D420CDD2C4480EA020281EA4D
:1001B000030382EA000083EA010180EA020281EA85
:1001C0000303362D88BF30BD11F0004F4FEA0131D7
:1001D0004FF4801C4CEA113102D0404261EB4101E6
:1001E00013F0004F4FEA03334CEA133302D052426C
:1001F00063EB430394EA050F00F0A780A4F1010428
:10020000D5F1200E0DDB02FA0EFC22FA05F2801861
:1002100041F1000103FA0EF2801843FA05F3594147
:100220000EE0A5F120050EF1200E012A03FA0EFCC6
:1002300028BF4CF0020C43FA05F3C01851EBE371F0
:1002400001F0004507D54FF0000EDCF1000C7EEB0D
:1002500000006EEB0101B1F5801F1BD3B1F5001F4B
:100260000CD349085FEA30004FEA3C0C04F101046A
:100270004FEA445212F5800F80F09A80BCF1004F93
:1002800008BF5FEA500C50F1000041EB045141EA15
:10029000050130BD5FEA4C0C404141EB010111F416
:1002A000801FA4F10104E9D191F0000F04BF0146C1
:1002B0000020B1FA81F308BF2033A3F10B03B3F19F
:1002C00020020CDA0C3208DD02F1140CC2F10C022F
:1002D00001FA0CF021FA02F10CE002F11402D8BF8D
:1002E000C2F1200C01FA02F120FA0CFCDCBF41EA59
:1002F0000C019040E41AA2BF01EB0451294330BD28
:100300006FEA04041F3C1CDA0C340EDC04F1140404
:10031000C4F1200220FA04F001FA02F340EA0300DB
:1003200021FA04F345EA030130BDC4F10C04C4F121
:10033000200220FA02F001FA04F340EA0300294601
:1003400030BD21FA04F0294630BD94F0000F83F44B
:10035000801306BF81F480110134013D4EE77FEA2E
:10036000645C18BF7FEA655C29D094EA050F08BF7A
:1003700090EA020F05D054EA000C04BF194610465B
:1003800030BD91EA030F1EBF0021002030BD5FEA9F
:10039000545C05D14000494128BF41F0004130BDC7
:1003A00014F580043CBF01F5801130BD01F000451B
:1003B00045F0FE4141F470014FF0000030BD7FEA8E
:1003C000645C1ABF194610467FEA655C1CBF0B4689
:1003D000024650EA013406BF52EA033591EA030FA0
:1003E00041F4002130BD00BF90F0000F04BF002198
:1003F000704730B54FF4806404F132044FF00005CB
:100400004FF0000150E700BF90F0000F04BF002143
:10041000704730B54FF4806404F1320410F00045A9
:1004200048BF40424FF000013EE700BF42004FEAA4
:10043000E2014FEA31014FEA02701FBF12F07F4321
:1004400093F07F4F81F06051704792F0000F14BF1E
:1004500093F07F4F704730B54FF4607401F0004562
:1004600021F0004120E700BF50EA010208BF7047B9
:1004700030B54FF000050AE050EA010208BF7047AE
:1004800030B511F0004502D5404261EB41014FF417
:10049000806404F132045FEA915C3FF4DCAE4FF01B
:1004A00003025FEADC0C18BF03325FEADC0C18BF02
:1004B000033202EBDC02C2F1200300FA03FC20FA53
:1004C00002F001FA03FE40EA0E0021FA02F11444A0
:1004D000C1E600BF70B54FF0FF0C4CF4E06C1CEAB5
:1004E00011541DBF1CEA135594EA0C0F95EA0C0F2A
:1004F00000F0DEF82C4481EA030621EA4C5123EA9D
:100500004C5350EA013518BF52EA033541F48011CB
:1005100043F4801338D0A0FB02CE4FF00005E1FB7E
:1005200002E506F00042E0FB03E54FF00006E1FBC8
:1005300003569CF0000F18BF4EF0010EA4F1FF040B
:10054000B6F5007F64F5407404D25FEA4E0E6D414B
:1005500046EB060642EAC62141EA55514FEAC5205C
:1005600040EA5E504FEACE2EB4F1FD0C88BFBCF5D8
:10057000E06F1ED8BEF1004F08BF5FEA500E50F189
:10058000000041EB045170BD06F0004646EA01014F
:1005900040EA020081EA0301B4EB5C04C2BFD4EB81
:1005A0000C0541EA045170BD41F480114FF0000E7A
:1005B000013C00F3AB8014F1360FDEBF002001F0E8
:1005C000004170BDC4F10004203C35DA0C341BDC62
:1005D00004F11404C4F1200500FA05F320FA04F034
:1005E00001FA05F240EA020001F0004221F0004168
:1005F00010EBD37021FA04F642EB06015EEA430EDB
:1006000008BF20EAD37070BDC4F10C04C4F120050A
:1006100000FA04F320FA05F001FA04F240EA0200BD
:1006200001F0004110EBD37041F100015EEA430E8E
:1006300008BF20EAD37070BDC4F1200500FA05F2AE
:100640004EEA020E20FA04F301FA05F243EA02032D
:1006500021FA04F001F0004121FA04F220EA02003C
:1006600000EBD3705EEA430E08BF20EAD37070BD82
:1006700094F0000F0FD101F00046400041EB010162
:1006800011F4801F08BF013CF7D041EA060195F044
:10069000000F18BF704703F00046520043EB0303FE
:1006A00013F4801F08BF013DF7D043EA06037047EB
:1006B00094EA0C0F0CEA135518BF95EA0C0F0CD0F6
:1006C00050EA410618BF52EA4306D1D181EA03013C
:1006D00001F000414FF0000070BD50EA410606BF36
:1006E0001046194652EA430619D094EA0C0F02D17B
:1006F00050EA013613D195EA0C0F05D152EA0336C0
:100700001CBF104619460AD181EA030101F00041DD
:1007100041F0FE4141F470014FF0000070BD41F026
:10072000FE4141F4780170BD70B54FF0FF0C4CF400
:10073000E06C1CEA11541DBF1CEA135594EA0C0F1F
:1007400095EA0C0F00F0A7F8A4EB050481EA030E6C
:1007500052EA03354FEA013100F088804FEA033353
:100760004FF0805545EA131343EA12634FEA022221
:1007700045EA111545EA10654FEA00260EF00041E2
:100780009D4208BF964244F1FD0404F5407402D234
:100790005B084FEA3202B61A65EB03055B084FEAC5
:1007A00032024FF480104FF4002CB6EB020E75EBC2
:1007B000030E22BFB61A754640EA0C005B084FEAEA
:1007C0003202B6EB020E75EB030E22BFB61A754667
:1007D00040EA5C005B084FEA3202B6EB020E75EBB2
:1007E000030E22BFB61A754640EA9C005B084FEA2A
:1007F0003202B6EB020E75EB030E22BFB61A754637
:1008000040EADC0055EA060E18D04FEA051545EA25
:1008100016754FEA06164FEAC30343EA52734FEACE
:10082000C2025FEA1C1CC0D111F4801F0BD141EA47
:1008300000014FF000004FF0004CB6E711F4801FAC
:1008400004BF01430020B4F1FD0C88BFBCF5E06F8C
:100850003FF6AFAEB5EB030C04BFB6EB020C5FEA9C
:10086000500C50F1000041EB045170BD0EF0004EF1
:100870004EEA113114EB5C04C2BFD4EB0C0541EA23
:10088000045170BD41F480114FF0000E013C90E620
:1008900045EA060E8DE60CEA135594EA0C0F08BFE4
:1008A00095EA0C0F3FF43BAF94EA0C0F0AD150EAE3
:1008B00001347FF434AF95EA0C0F7FF425AF104676
:1008C00019462CE795EA0C0F06D152EA03353FF49E
:1008D000FDAE1046194622E750EA410618BF52EA1B
:1008E00043067FF4C5AE50EA41047FF40DAF52EAEF
:1008F00043057FF4EBAE12E74FF0FF3C06E000BF8C
:100900004FF0010C02E000BF4FF0010C4DF804CD98
:100910004FEA410C7FEA6C5C4FEA430C18BF7FEA58
:100920006C5C1BD001B050EA410C0CBF52EA430C86
:1009300091EA030F02BF90EA020F0020704710F106
:10094000000F91EA030F58BF994208BF90422CBF95
:10095000D8176FEAE37040F0010070474FEA410C8E
:100960007FEA6C5C02D150EA013C07D14FEA430CAC
:100970007FEA6C5CD6D152EA033CD3D05DF8040B1D
:10098000704700BF8446104662468C46194663464F
:1009900000E000BF01B5FFF7B7FF002848BF10F126
:1009A000000F01BD4DF808EDFFF7F4FF0CBF01206B
:1009B00000205DF808FB00BF4DF808EDFFF7EAFFE7
:1009C00034BF012000205DF808FB00BF4DF808EDA2
:1009D000FFF7E0FF94BF012000205DF808FB00BF97
:1009E0004DF808EDFFF7CEFF94BF012000205DF821
:1009F00008FB00BF4DF808EDFFF7C4FF34BF01202E
:100A000000205DF808FB00BF4FEA4102B2F1E0436D
:100A100024BFB3F5001CDCF1FE5C0DD901F0004CE5
:100A20004FEAC0024CEA5070B2F1004F40EB830035
:100A300008BF20F00100704711F0804F21D113F161
:100A40003872BCBF01F00040704741F480114FEA9A
:100A50005252C2F11802C2F1200C10FA0CF320FA23
:100A600002F018BF40F001004FEAC1234FEAD32340
:100A700003FA0CFC40EA0C0023FA02F34FEA4303AA
:100A8000CCE77FEA625307D150EA01331EBF4FF033
:100A9000FE4040F44000704701F0004040F0FE404E
:100AA00040F40000704700BF80F0004002E000BF4B
:100AB00081F0004142001FBF5FEA410392EA030F49
:100AC0007FEA226C7FEA236C6AD04FEA1262D2EB93
:100AD0001363C1BFD218414048404140B8BF5B4298
:100AE000192B88BF704710F0004F40F4000020F031
:100AF0007F4018BF404211F0004F41F4000121F047
:100B00007F4118BF494292EA030F3FD0A2F1010290
:100B100041FA03FC10EB0C00C3F1200301FA03F1CE
:100B200000F0004302D5494260EB4000B0F5000FF1
:100B300013D3B0F1807F06D340084FEA310102F1B0
:100B40000102FE2A51D2B1F1004F40EBC25008BF62
:100B500020F0010040EA03007047490040EB00002C
:100B600010F4000FA2F10102EDD1B0FA80FCACF15B
:100B7000080CB2EB0C0200FA0CF0AABF00EBC2505A
:100B800052421843BCBFD0401843704792F0000F48
:100B900081F4000106BF80F400000132013BB5E79B
:100BA0004FEA41037FEA226C18BF7FEA236C21D011
:100BB00092EA030F04D092F0000F08BF0846704776
:100BC00090EA010F1CBF0020704712F07F4F04D144
:100BD000400028BF40F00040704712F100723CBF57
:100BE00000F50000704700F0004343F0FE4040F481
:100BF000000070477FEA226216BF08467FEA23633F
:100C00000146420206BF5FEA412390EA010F40F429
:100C1000800070474FF0000304E000BF10F0004375
:100C200048BF40425FEA000C08BF704743F096435C
:100C300001464FF000001CE050EA010208BF704777
:100C40004FF000030AE000BF50EA010208BF7047FE
:100C500011F0004302D5404261EB41015FEA010C13
:100C600002BF84460146002043F0B64308BFA3F10B
:100C70008053A3F50003BCFA8CF2083AA3EBC253ED
:100C800010DB01FA02FC634400FA02FCC2F120020C
:100C9000BCF1004F20FA02F243EB020008BF20F043
:100CA0000100704702F1200201FA02FCC2F12002A9
:100CB00050EA4C0021FA02F243EB020008BF20EA9E
:100CC000DC7070474FF0FF0C1CEAD0521EBF1CEACC
:100CD000D15392EA0C0F93EA0C0F6FD01A4480EABA
:100CE000010C400218BF5FEA41211ED04FF00063A3
:100CF00043EA501043EA5111A0FB01310CF00040CF
:100D0000B1F5000F3EBF490041EAD3715B0040EAF4
:100D1000010062F17F02FD2A1DD8B3F1004F40EBC4
:100D2000C25008BF20F00100704790F0000F0CF097
:100D3000004C08BF49024CEA502040EA51207F3A5B
:100D4000C2BFD2F1FF0340EAC250704740F4000036
:100D50004FF00003013A5DDC12F1190FDCBF00F027
:100D600000407047C2F10002410021FA02F1C2F1D5
:100D7000200200FA02FC5FEA310040F1000053EA71
:100D80004C0308BF20EADC70704792F0000F00F0BF
:100D9000004C02BF400010F4000F013AF9D040EAC5
:100DA0000C0093F0000F01F0004C02BF490011F459
:100DB000000F013BF9D041EA0C018FE70CEAD15357
:100DC00092EA0C0F18BF93EA0C0F0AD030F0004CD7
:100DD00018BF31F0004CD8D180EA010000F000408B
:100DE000704790F0000F17BF90F0004F084691F049
:100DF000000F91F0004F14D092EA0C0F01D1420283
:100E00000FD193EA0C0F03D14B0218BF084608D14B
:100E100080EA010000F0004040F0FE4040F4000095
:100E2000704740F0FE4040F4400070474FF0FF0C28
:100E30001CEAD0521EBF1CEAD15392EA0C0F93EA6F
:100E40000C0F69D0A2EB030280EA010C49024FEAC1
:100E5000402037D04FF0805343EA111143EA10137A
:100E60000CF000408B4238BF5B0042F17D024FF432
:100E7000000C8B4224BF5B1A40EA0C00B3EB510F0D
:100E800024BFA3EB510340EA5C00B3EB910F24BFF6
:100E9000A3EB910340EA9C00B3EBD10F24BFA3EB7B
:100EA000D10340EADC001B0118BF5FEA1C1CE0D143
:100EB000FD2A3FF650AF8B4240EBC25008BF20F0F6
:100EC000010070470CF0004C4CEA50207F32C2BF4A
:100ED000D2F1FF0340EAC250704740F400004FF0E7
:100EE0000003013A37E792F0000F00F0004C02BF18
:100EF000400010F4000F013AF9D040EA0C0093F0E2
:100F0000000F01F0004C02BF490011F4000F013B3B
:100F1000F9D041EA0C0195E70CEAD15392EA0C0FA3
:100F200008D142027FF47DAF93EA0C0F7FF470AFDB
:100F3000084676E793EA0C0F04D14B023FF44CAF1E
:100F400008466EE730F0004C18BF31F0004CCAD1B3
:100F500030F000427FF45CAF31F000437FF43CAFEF
:100F60005FE700BF4FF0FF3C06E000BF4FF0010C11
:100F700002E000BF4FF0010C4DF804CD4FEA4002F3
:100F80004FEA41037FEA226C18BF7FEA236C11D03D
:100F900001B052EA530C18BF90EA010F58BFB2EBF0
:100FA000030088BFC81738BF6FEAE17018BF40F070
:100FB000010070477FEA226C02D15FEA402C05D124
:100FC0007FEA236CE4D15FEA412CE1D05DF8040BA9
:100FD000704700BF844608466146FFE70FB5FFF73C
:100FE000C9FF002848BF10F1000F0FBD4DF808EDF4
:100FF000FFF7F4FF0CBF012000205DF808FB00BFE5
:101000004DF808EDFFF7EAFF34BF012000205DF83E
:1010100008FB00BF4DF808EDFFF7E0FF94BF01208B
:1010200000205DF808FB00BF4DF808EDFFF7D2FF88
:1010300094BF012000205DF808FB00BF4DF808EDCB
:10104000FFF7C8FF34BF012000205DF808FB00BF98
:101050004FEA4002B2F1FE4F0FD34FF09E03B3EBC5
:1010600012620DD94FEA002343F0004310F0004F05
:1010700023FA02F018BF404270474FF0000070475B
:1010800012F1610F01D1420205D110F0004008BFFA
:101090006FF0004070474FF00000704742000ED2E2
:1010A000B2F1FE4F0BD34FF09E03B3EB126209D4A3
:1010B0004FEA002343F0004323FA02F070474FF059
:1010C0000000704712F1610F01D1420202D14FF0CE
:1010D000FF3070474FF00000704700BF844641EA80
:1010E000000313F0030349D1403A23D30B68036094
:1010F0004B6843608B688360CB68C3600B69036196
:101100004B6943618B698361CB69C3610B6A03627D
:101110004B6A43628B6A8362CB6AC3620B6B036365
:101120004B6B43638B6B8363CB6BC363403040314A
:10113000403ADBD230320BD30B6803604B6843601C
:101140008B688360CB68C36010301031103AF3D2E3
:101150000C3205D351F8043B40F8043B043AF9D271
:10116000043208D0D2071CBF11F8013B00F8013B44
:1011700001D30B8803806046704700BF082A13D351
:101180008B07B1D010F00303AED0C3F10403D21A21
:10119000DB071CBF11F8013B00F8013BA4D331F879
:1011A000023B20F8023B9FE7043AD9D3013A11F8F9
:1011B000013B00F8013BF9D20B7803704B78437088
:1011C0008B788370604670471D481E490268006036
:1011D0008A4200F01F80002100F004B81A4B5B58CF
:1011E0004350043119481A4B42189A42FFF4F6AFA3
:1011F000184A00F003B8002342F8043B164B9A4209
:10120000FFF4F9AF0CF02EFC0FF038FE04F02CFACE
:10121000FFF7FEBF114E124830601248016821F0FE
:1012200070610160410201600F4C182020600F497D
:101230000F4808600F48D0F800D040680047000011
:10124000F04F0020EFBEADDE184B0108000000207B
:10125000E4050020E4050020C82200201810024008
:101260000900000004000140140C0140000C014082
:101270004434434400F0FF1FFFF7FEBF2E4B2DE91F
:10128000F3411B780546002B38D00024264627461C
:10129000A04608226B465320322101F061FB9DF8E5
:1012A00001209DF80030013403EB02231BB29DF8AE
:1012B000032098449DF80230E4B203EB02231BB2F2
:1012C0001F449DF805209DF80430202C03EB0223D9
:1012D0001BB21E449DF8073003F07F0301D0002BA2
:1012E000D7D1164B98FBF4F897FBF4F796FBF4F67E
:1012F000A5F800806F80AE801C701AE006226B4655
:101300005320322101F02CFB9DF801209DF8003084
:1013100003EB02232B809DF803209DF8023003EBA2
:1013200002236B809DF805209DF8043003EB022317
:10133000AB8002B0BDE8F08100060020010600206D
:1013400008B5134B53201B782D2108227BB101F0E7
:10135000FDFA31210A22532001F0F8FA2C210C2247
:10136000532001F0F3FA53203821902209E001F0D4
:10137000EDFA31210A22532001F0E8FA53202C2102
:101380000A2201F0E3FA034B40F209121A8008BD69
:10139000000600201200002037B5114B0C461A68D9
:1013A000104B00219A4205468DF8071001D100200C
:1013B00013E0532001220DF1070301F0D1FA0028B8
:1013C000F5D09DF80730E52BF1D12A78064B0120A6
:1013D0001A70064B2360064B636003B030BD00BF3C
:1013E00094010020001BB7000006002041130008F4
:1013F0007D12000813B5062204466B460221182010
:1014000001F0AEFA9DF800309DF801209B0803EB37
:10141000022323809DF802309DF803209B0803EBF4
:10142000022363809DF804309DF805209B0803EBA0
:101430000223A38002B010BD08B50F210822182096
:1014400001F084FA0E221820102101F07FFA024BDD
:101450004FF480521A8008BD1200002037B50024D6
:1014600002AB054603F8014D18202146012201F088
:1014700077FA50B19DF80730FB2B05D1044B0120C2
:101480002B60044B6B6000E0204603B030BD00BF12
:1014900039140008F513000813B5062204466B46FC
:1014A000A821682001F05CFA9DF800209DF8013029
:1014B00043EA022323809DF802209DF8033043EA8B
:1014C000022363809DF804209DF8053043EA02233F
:1014D000A38002B010BD000008B5642005F029FC0F
:1014E00068202321F02201F031FA10B9032005F021
:1014F000C1FC052005F01DFC044B68201A78202152
:1015000042F00F02BDE8084001F020BA02060020B8
:1015100037B5054619200C4605F00BFC0DF1070305
:1015200068200F21012201F01BFA9DF80730D32B10
:1015300015D10C4B4E2C2B600B4B6B600B4BEB60A7
:101540000B4B06D05D2C08D0362C14BF0022402255
:1015500000E080221A70012002E0C022FAE7002099
:1015600003B030BDD914000899140008325C8F3DD7
:101570000206002013B5062204466B4601211C20FA
:1015800001F0EEF99DF801309DF800209DF8021061
:1015900043EA022242F38D02042392FBF3F22280FB
:1015A0009DF8032042EA012242F38D0292FBF3F2FE
:1015B00062809DF804109DF8052042EA012242F362
:1015C0008D0292FBF3F3A38002B010BD13B520236C
:1015D000ADF8043004230DEB030102241A488DF802
:1015E00006308DF8074001F043FB2A2100221C2021
:1015F00001F0ACF922460E211C2001F0A7F90F21C1
:1016000003221C2001F0A2F92B2112221C2001F040
:101610009DF922462C211C2001F098F92D21012250
:101620001C2001F093F92E2100221C2001F08EF9DC
:101630002A2105221C2001F089F9044B4FF4807205
:101640001A8002B010BD00BF000801401200002047
:1016500013B500238DF807300F4B04461A680F4B63
:101660009A4201D1002015E01C200D2101220DF12C
:10167000070301F075F90028F4D09DF807302A2BF4
:1016800001D01A2BEED1064A01202260054A626081
:10169000054A137002B010BD94010020001BB70072
:1016A000CD150008751500080306002013B50222A9
:1016B000044601AB1B21682001F052F99DF804207B
:1016C0009DF8053043EA022303F54E534FF48C7224
:1016D000103393FBF2F32333238002B010BD13B514
:1016E000062204466B461D21682001F039F99DF859
:1016F00000209DF8013043EA022323809DF8022058
:101700009DF8033043EA022363809DF804209DF88E
:10171000053043EA0223A38002B010BD08B51920AA
:1017200005F007FB68201521002201F00FF910B920
:10173000032005F09FFB0C4B16211A78682042F01D
:10174000180201F003F917210022682001F0FEF8C9
:101750003D210122682001F0F9F8BDE80840682029
:101760003E21012201F0F2B80000002038B5054604
:1017700019200C4605F0DDFA68201521002201F041
:10178000E5F818B3124B622C2B60124B6B60124BB6
:10179000AB60124BEB60124B0FD004D80A2C12D066
:1017A000142C0ED00BE0BC2C04D0B4F5807F06D1F5
:1017B000002209E00120187038BD022204E0032253
:1017C00002E0042200E005221A70012038BD00BFAB
:1017D0001D170008DF160008AD16000890C1793DFE
:1017E00000000020064B1B7813B1012B03D070477B
:1017F0004FF4006201E04FF48052024B1A807047B0
:10180000040600201200002013B5062204466B4691
:101810003B21682001F0A4F89DF800209DF80130DC
:1018200043EA022323809DF802209DF8033043EA17
:10183000022363809DF804209DF8053043EA0223CB
:10184000A38002B010BD13B5062204466B464321A7
:10185000682001F085F89DF800209DF8013043EAEA
:10186000022323809DF802209DF8033043EA0223DF
:1018700063809DF804209DF8053043EA0223A3808D
:1018800002B010BD07B5232005F053FA682075217A
:1018900001220DF1070301F063F828B19DF807005C
:1018A000B0F168035842584103B05DF804FB0000F2
:1018B00007B54FF40053ADF8043002238DF807301C
:1018C00004238DF806301C4B1C4A1B68934201D13F
:1018D0001B4803E01B4A934203D11B4801A901F0B6
:1018E000C7F96B218022682001F030F8052005F04F
:1018F00020FA19210022682001F028F86B21032228
:10190000682001F023F837210222682001F01EF838
:101910000E4B1A211A78682001F018F81B211822A2
:10192000682001F013F81C211022682001F00EF845
:1019300003B05DF804FB00BF9401002000127A00A0
:10194000000C0140001BB700001001400100002006
:10195000F0B585B00546FFF795FF074600283ED055
:10196000062102AB68200A4600F0FAFF9DF80B3012
:101970009DF80D6003F001035B0006F0010643EAE9
:1019800086069DF80930174C03F001031E4306D06C
:10199000012E01D1002317E0022E0CD113E00DF12E
:1019A000070368200C21012200F0DAFF9DF80730C0
:1019B00013F00F0303D1052005F05CFA05E0042BBA
:1019C00001D1267001E001232370074B2B60074BE8
:1019D0006B602378002B14BF6E236F232B72384665
:1019E00005B0F0BD04060020E5170008091800083E
:1019F00038B505460C46FFF745FF18B3124B142CBB
:101A00002B60124B6B60124BEB60124B14D004D85E
:101A1000052C15D00A2C11D00CE0BC2C08D0B4F544
:101A2000807F03D0622C05D102220AE0002208E068
:101A3000012206E0032204E0042202E0052200E085
:101A400006221A7038BD00BFB118000847180008F8
:101A500090C1793D01000020104A10B59178104BDB
:101A600021B1517833F811400E490C80917929B198
:101A70000A49497933F811400A494C80917A29B1D1
:101A80000649497A33F8114006498C8002EB8002FE
:101A9000527833F8120080B210BD00BF0617002044
:101AA000FE16002006210020F0B54B4C0646102201
:101AB00091B0204600210FF009FA327822B10122BC
:101AC00007232271A271E371444F0421D7F800E08B
:101AD000434F2170551C01200721BE453E4BEDB2FE
:101AE0006270A070E17006D1052702325D731F732A
:101AF0009873D973D5B2737843B109230122237245
:101B0000A2726B1C07226572E272DDB235480CF0DE
:101B1000C1FF354B00260593344B012D06930CBFB6
:101B2000334680230A934FF480730B934FF4806302
:101B30000C9320230D932B484FF4005305A90E93CB
:101B40000796089509960F960DF01CF82548012177
:101B50000DF043F8012D94BF002301238DF80430CC
:101B600001274FF460232248694600968DF80570DE
:101B7000029303968DF810500CF03CF93A46A319E5
:101B8000997839B1551CEDB21948A15DDB780CF09C
:101B900082F92A460436102EF1D1154801210CF0A5
:101BA00056F9134801210CF049F911480CF058F985
:101BB0000F480CF05AF90028FAD10D480CF059F9E9
:101BC0000B480CF05BF90028FAD1094801210CF010
:101BD00059F911B0F0BD00BF061700209401002094
:101BE000001BB700080002404C240140FE160020F4
:101BF00000240140324B2DE9F0411C88314B0A266C
:101C00005A89B3F91250A41A1A89ED025443B3F950
:101C10001420E413224495FBF2F22244DA61564385
:101C2000A2F57A6202FB02F4B3F90480B3F902C0B0
:101C3000B3F90E7002FB0CFC02FB08F2B3F90C8046
:101C40002413674304FB08F4241404EB62320232C9
:101C5000DC88921002F50042B3F920506243B3F9D8
:101C600000304FEAEC2404EBE72404EB8304AC409F
:101C7000154B02341B68D20BA3EBA4044CF2503377
:101C80002B41634355BF5B00B3FBF2F3B3FBF2F3AD
:101C90005B001A12524340F6DE3462430B4C0836A6
:101CA0005C43241404EB224202F6CF62361103EBAC
:101CB000221300B1036001B10E60BDE8F08100BFE6
:101CC00032060020080600202C06002043E3FFFF18
:101CD000114B07B51B781BB9104B1A8801321A80BB
:101CE00001ABF6210322772000F03AFE9DF8052093
:101CF0009DF80430120242EA03429DF806301A436E
:101D0000074BB3F92030C3F10803DA40054B1A60E2
:101D100003B05DF804FB00BF0506002006060020A6
:101D2000080600202C0600200C4B07B51B781BB9B9
:101D30000B4B1A8801321A8001ABF6210222772060
:101D400000F00EFE9DF805309DF8042043EA0222C3
:101D5000044B1A8003B05DF804FB00BF05060020A9
:101D60000606002032060020064B002193F82020B2
:101D7000054B9201343219707720F42102F0FC02F5
:101D800000F0E4BD0806002005060020034B0022F9
:101D90001A707720F4212E2200F0D8BD050600200D
:101DA00010B54FF480400BF0A9FF0128044605D17F
:101DB0004FF480400BF0B0FF014B1C7010BD00BF12
:101DC000050600202DE9F0476B4B8CB01A686B4B71
:101DD00005469A4200F0CA80DFF8C0A19AF8008058
:101DE000B8F1000F40F0C480654F4FF4005902264F
:101DF0001023384602A94FF480448DF80B608DF80B
:101E00000A30ADF8089000F033FF0423384602A9E9
:101E10008DF80A30ADF8084000F02AFF0E21304658
:101E2000C7F8109000F05DFF0126082304A8049471
:101E30008DF815308DF814808DF816600BF024FFA6
:101E400028238DF80C3003A80F238DF80D308DF862
:101E50000E308DF80F600CF071F8142004F069FF5B
:101E600032460DF107037720D02100F079FD9DF86F
:101E70000730444C0322552BE375228418BFC7F862
:101E8000149073D1D12132460DF10703772000F071
:101E900067FD9DF80730772003F00F021B092276BB
:101EA0006376162206ABAA2100F05AFD9DF8182091
:101EB0009DF8193043EA022323809DF81A209DF8EB
:101EC0001B3043EA022363809DF81C209DF81D30DF
:101ED00043EA0223A3809DF81E209DF81F3043EAA9
:101EE0000223E3809DF820209DF8213043EA02235D
:101EF00023819DF822209DF8233043EA0223638149
:101F00009DF824209DF8253043EA0223A3819DF803
:101F100026209DF8273043EA0223E3819DF82820FC
:101F20009DF8293043EA022323829DF82A209DF858
:101F30002B3043EA022363829DF82C209DF82D303C
:101F400043EA0223A38241F270738AF800602B8077
:101F500046F678136B800C4B6B600C4BAB600C4BF4
:101F6000EB600C4B2B610C4B6B6101E0002000E03F
:101F700001200CB0BDE8F08794010020001BB700E1
:101F800000100140080600208D1D0008291D0008D2
:101F9000691D0008D11C0008F51B00083006002050
:101FA0002DE9F04F504A514E1768738984463089A5
:101FB000A7EB032785B0039187FB0001B288CB1103
:101FC0001404C209F08842EA416287FB000114EB65
:101FD000020872884FF000054FEAC2344FEA10221F
:101FE000B08945EB030942EA01620B1287FB00014D
:101FF00014EB020A4FEAD05242EA41224FF00005A8
:1020000045EB030B12F5FA604FEAE15343F100018F
:10201000CDE90001B0F5FA6F71F1000147DAA2FBDA
:10202000024502FB03F1052605EB4105A4FB060171
:1020300006FB05114D104FEA3004B8EB040869EBBC
:10204000050984082A4844EA81748D104FF0FF3155
:10205000BAEB040A6BEB050BDDE9004584428D41C8
:1020600025DA40F6AC5012184FF0000143EB0103A3
:1020700002FB03F1A2FB02236FF0060003EB410316
:10208000544200FB0344A2FB000118EB000821446A
:102090004FF00B0449EB0109A2FB040104FB0311FF
:1020A00049104FEA3000BAEB000A6BEB010B114B01
:1020B0001A68A2FB0A0102FB0B11420D42EAC1227F
:1020C0004B15B2EB080263EB0903D00B40EA434027
:1020D000BCF1000F01D0CCF80000039808B10099C2
:1020E000016005B0BDE8F08F380600203C060020F6
:1020F00024FAFFFF3406002007B5002101AB0322BC
:10210000772000F02DFC9DF805009DF804300002BA
:1021100040EA03409DF80630184303B05DF804FB25
:1021200008B5FFF7E9FF014B186008BD3406002031
:1021300008B5FFF7E1FF014B186008BD3806002025
:1021400077204821012200F001BC7720582101228C
:1021500000F0FCBB444BF7B51A68444B04469A4266
:102160000FD0434D02234FF400568DF80730284618
:10217000102301A9ADF804608DF8063000F078FD59
:102180006E610A2004F0D5FD7720A02101220DF117
:10219000030300F0E5FB002863D01E210122772015
:1021A00000F0D4FB4FF42F6004F0B8FD0025A5F13A
:1021B00060010026022201AB7720C9B28DF80460CD
:1021C0008DF8056000F0CCFB9DF804209DF80530EB
:1021D00043EA0223274AAB520235102DE7D1D789B3
:1021E000314607F00F0507F47F47D7810123505A86
:1021F0000231002818BF00231029F8D103BB19466B
:1022000011F0010F4FEA610004D012F810004340B2
:10221000082004E032F8100083EA1023F8E71E04D7
:1022200048BF83F4C05301384FEA4303F7D101316B
:102230001029E5D1C3F303332F439D42D78101D049
:1022400000200EE042F21073238063800A4B0120CD
:1022500063600A4BA3600A4BE3600A4B23610A4B9D
:10226000636103B0F0BD00BF94010020001BB70004
:10227000001001403C0600204B21000831210008DD
:102280004121000821210008A11F0008F8B5134BC7
:1022900004469B890D461646EEB115B12F780135DF
:1022A00000E0FF270D4802210BF09EFD0028F9D029
:1022B0000A4839460BF093FD084801210BF094FDC4
:1022C0000028F9D005480BF08CFDC0B20CB120708D
:1022D0000134013EE0E70120F8BD00BF00380040B6
:1022E0002DE9F0474FF4804088B001210CF0CEFA80
:1022F0004FF4804001210CF0E1FA344D18238DF8A1
:1023000002304FF42043ADF80030284603236946DD
:102310004FF004082E4F8DF8033000F0A9FC4FF465
:10232000804328466946ADF800304FF480564FF0A0
:10233000100A8DF8028000F09BFC69462846ADF833
:1023400000608DF802A000F093FC38460BF0EAFC28
:102350004FF48273ADF80E304FF40073ADF81630C1
:1023600007230024ADF81C304FF001090223384642
:1023700003A9ADF81230ADF80C40ADF81040ADF83F
:102380001A40ADF81490ADF818A00BF0FDFC3846DB
:1023900049460BF018FD9F238DF804308DF8054059
:1023A0008DF806408DF8074002A86E610DEB08011C
:1023B0004246FFF76BFF2E619DF80900B0F1EF0375
:1023C0005842584108B0BDE8F08700BF000C0140FA
:1023D000003800402DE9F0418C4C2068878ABFB25C
:1023E000FBB2DD0736D50388012123F400631B040B
:1023F0001B0C03800CF030FB854B00221A70854AC1
:102400001D461278844BC2B1844A117819B98449A7
:102410000978FF2911D101211170824A1278022A0C
:1024200005D12268118889B241F4006111801978C0
:10243000206801220CF025FB0DE1197820680022AC
:102440000CF01FFB764B1B78FF2B00F00481FF2361
:102450002B7000E103F0020202F0FF01002A3AD0E3
:10246000BFF35F8F6F4B1A78012A14D1694A127833
:102470008AB16A4A127872B100210CF0EDFABFF30A
:102480005F8F20680121038B0CF0DAFA664B012282
:102490001A702068B6E0028BBFF35F8F1A78022AA9
:1024A0000AD15C4A12783AB15C4A127822B1002112
:1024B0000CF0D2FA2068C9E01B78032B07D1554BEA
:1024C0001B7823B1554B1B78002B40F0BF804FF495
:1024D00080610122BDE003F0040202F0FF0C002A3B
:1024E0005AD04C4BDFF840811A78012688F80060FA
:1024F0004A4B002A3AD01A78002A37D0494B444D2B
:102500001B784A4F022B1ED90CF0A6FA2B782068B4
:1025100099192970018A3A685BB2C9B2D15431461F
:102520000CF08EFA2B78206899192970018A3A6884
:102530005BB2C9B2D1544FF48061324688F8006072
:102540000CF096FA23E031460CF07AFA29783A68D2
:10255000CBB248B221680E8AF6B21654098A581CCA
:1025600040B2C9B2033311542B7010E01B78012123
:1025700013B92F4B1B782BB10CF062FA244B1A784D
:10258000013203E00CF050FA244B01221A70226849
:102590001388D905FCD45EE003F0400303F0FF028A
:1025A0001B4D204EE3B1214B2978078A1A68FFB2F0
:1025B0004B1C49B2DBB257542B7032785BB20333F9
:1025C0009A4204D14FF4806162460CF051FA2B78A4
:1025D00031785AB291423ED10D4A013313703AE03C
:1025E0003B0638D52B7859B24F1C25D0114F0133FB
:1025F0003F68DBB2795C2B70C9B2018231785BB283
:10260000994228D14FF4806123E000BF6406002086
:1026100068060020600600206A0600204F060020A1
:1026200050060020510600205806002054060020C5
:102630004E0600205C060020134B2A701B78DBB28C
:102640000382124B1B780BB9337823B94FF48061A6
:1026500000220CF00DFA0E4B0E4A1B7892F9002066
:1026600001339A420DD10C4B00221A700B4B1B7890
:1026700023B120684FF440710CF0FAF9084B0022A6
:102680001A70BDE8F08100BF5006002060060020EF
:1026900051060020680600204F0600205806002042
:1026A00069060020FFF796BEFFF794BE2DE9F041C2
:1026B000464C86B04FF440651C23804602272046D6
:1026C00001A9434EADF804508DF806308DF807701F
:1026D00000F0CEFA1423204602A9ADF80850C6F83F
:1026E00000808DF80B708DF80A3000F0C1FA25617A
:1026F0000825364CA3685B0503D40A2004F00EFBC2
:10270000F7E74FF480670A20676104F007FB013D9B
:1027100027610A2004F002FB15F0FF05E9D14FF410
:102720000068C4F814800A2004F0F8FA67610A20EF
:1027300004F0F4FA27610A2004F0F0FA4FF4406341
:10274000C4F81080ADF80830022302A98DF80B30D0
:1027500020461C238DF80A3000F08AFA30680CF00D
:10276000C1F802A80CF046F92A4630684FF44071CF
:102770000CF07EF94BF6FF73ADF80E304FF480434A
:10278000ADF81430134B306801210293ADF80C50B2
:102790000CF03EF902A930680CF0BEF822238DF847
:1027A0000030684601238DF803308DF801508DF814
:1027B00002500BF0C3FB212368468DF800308DF8E2
:1027C00001500BF0BBFB06B0BDE8F081000C0140EE
:1027D00064060020801A060037B5224C2068838AE0
:1027E0009BB20193019B13F4706F02D01E4B012228
:1027F0001A70019B13F4E06F28D04FF4806100221F
:10280000038B0CF035F9019B98051FD420680388D1
:1028100099051BD4058805F48075ADB265B10388B0
:10282000DA05FCD401210CF00BF9206803889B0524
:10283000FCD4FFF73BFF09E001210CF001F9094B43
:102840004FF4407118682A460CF012F92268938AF6
:1028500023F470631B041B0C9382044B00221A7038
:1028600003B030BD64060020590600206906002030
:10287000FFF7B2BFFFF7B0BF08B5054B1A880132AA
:1028800092B21A80034B1868FFF710FF002008BDB2
:102890004C0600206406002070B54000214CC0B2F8
:1028A0002070214801240170204900200C7020492B
:1028B000087020490B6020490B60204B20491A709A
:1028C000204A214B0C70107018680D4684881E46F3
:1028D00014F4007F144614D10388D9050BD447F2B1
:1028E00030530288920502D5013BFAD111E083B141
:1028F00001210CF099F830684FF4407101220CF07E
:10290000B7F847F230532A7812B1013BFBD100E00F
:102910001BB9BDE87040FFF7AFBF207880F0010021
:1029200070BD00BF6A060020500600204E06002041
:10293000600600205C06002054060020510600209E
:1029400069060020590600206406002007B502AB86
:1029500003F8012D0122FFF79FFF03B05DF804FB90
:1029600070B54000214CC0B2207021480124017094
:1029700020490020087020490C7020490B60204934
:102980000B60204B20491A70204A214B0C701070AC
:1029900018680D4684881E4614F4007F144614D12E
:1029A0000388D9050BD447F230530288920502D52B
:1029B000013BFAD111E083B101210CF035F8306808
:1029C0004FF4407101220CF053F847F230532A784B
:1029D00012B1013BFBD100E01BB9BDE87040FFF72D
:1029E0004BBF207880F0010070BD00BF6A06002058
:1029F000500600204E0600206006002054060020ED
:102A00005C060020510600206906002059060020BF
:102A100064060020014B188880B270474C060020E5
:102A200007B5002202AB03F8012D1E200A21012266
:102A3000FFF796FF28B19DF80700B0F14803584210
:102A4000584103B05DF804FB37B506220446032164
:102A50006B461E20FFF784FF9DF801309DF80000B3
:102A6000154D43EA002000B2FEF7D8F82968FEF7BA
:102A700029F9FEF7EDFA9DF8033020809DF8020059
:102A800043EA002000B2FEF7C9F8A968FEF71AF978
:102A9000FEF7DEFA9DF80530A0809DF8040043EAB9
:102AA000002000B2FEF7BAF86968FEF70BF9FEF7EE
:102AB000CFFA608003B030BD040000202DE9FF4153
:102AC000634B644A1B6893420DD14FF48053ADF8B9
:102AD000043002238DF8073004238DF806305E4859
:102AE0000DEB030108E05D4A934207D104A94FF4BE
:102AF00080435B4821F80C3D00F0BAF8322004F026
:102B000018F9002111221E20FFF720FF0121602269
:102B10001E20FFF71BFF642004F00BF902A8FFF74B
:102B200093FF00240A2527462646022101221E2063
:102B3000FFF70CFF322004F0FCF802A8FFF784FF37
:102B4000BDF90820BDF90A10BDF90C3014449142BA
:102B5000B8BF0A461E449A42B8BF134613F5805FB9
:102B60000F4409DD3C4B013DDA6882F01002DA6067
:102B7000DBD14FF0010801E04FF000081E200021DA
:102B80001222FFF7E3FE0A25022101221E20FFF791
:102B9000DDFE322004F0CDF802A8FFF755FFBDF9A5
:102BA0000820BDF90A10BDF90C30A41A9142B8BF33
:102BB0000A46F61A9A42B8BF134613F5805FC1EB76
:102BC000070707DD244B013DDA6882F01002DA6066
:102BD000DAD101E04FF000082046FEF71FF8014669
:102BE0002048FEF723F9204D20F0004028603846A9
:102BF000FEF714F801461B48FEF718F920F00040D4
:102C000068603046FEF70AF801461848FEF70EF9EC
:102C100020F00040A860002170221E20FFF796FEE1
:102C2000012120221E20FFF791FE1E2002210022FA
:102C3000FFF78CFE642004F07CF8B8F1000F04D19B
:102C40004FF07E532B606B60AB6004B0BDE8F08149
:102C50009401002000127A00000C0140001BB70014
:102C60000010014000406F460400002001C05E4695
:102C70002DE9F0410F88002347FA03F2D2072BD544
:102C80008A7803F0070512F0100F18BF91F803C0FF
:102C900002F00F0618BF46EA0C06AD004FF00F0C0D
:102CA0000CFA05FC06FA05F5DC0850F82480282A01
:102CB00028EA0C0C45EA0C0540F8245005D1012205
:102CC0009A40C46824EA020205E0482A04D101229D
:102CD0009A40C4682243C2600133102BCCD1BDE8B6
:102CE000F08101F003039B000F229A40984001F00D
:102CF000FC0101F1804101F5803110B58C6824EAB6
:102D000002028A608A6802438A6010BD7FB5284C3F
:102D10000E4623789BB97A238DF80430254B022286
:102D2000B3F900306D20C3F1B40393FBF2F38DF8D7
:102D30000530FF2101ABFFF7AFFD012334E0012B8C
:102D40001DD10A2592FBF5F079230021B4225A30D7
:102D50008DF8043001F070FF8DF8050096FBF5F05A
:102D60000021B4225A3001F067FF01AB8DF8060054
:102D7000FF216D200322FFF78FFD022314E0022BB9
:102D800013D164238DF8043000284FF0010318BFDD
:102D900018468DF805308DF8060001AB6D20FF2137
:102DA0000322FFF779FD0023237004B070BD00BF3C
:102DB0006B060020662100200E4B0F4A9B6812888C
:102DC00010B51A420D4C03D003F088FF20600BE0D1
:102DD00003F084FF2368984206D9094AC31A12688F
:102DE0003B2193FBF1F31360064BBDE810401868DC
:102DF0000AF092BF000C01406E0600208006002001
:102E00007C06002074060020FFF7D6BFFFF7D4BF72
:102E10002DE9FF412B4B2C4F2C4C2D4E2D4D40B10D
:102E2000012811D102223A802260188030700722D6
:102E300009E04FF480721A804FF400723A802260E9
:102E40000922327017222A701B884FF01008ADF843
:102E5000043001A9022320488DF807308DF8068040
:102E6000FFF706FF3B881C48ADF8043004230DEB48
:102E700003018DF80630FFF7FBFE31780120FFF7E4
:102E800030FF20680AF048FF236802A8029301245B
:102E900000238DF80C308DF80E408DF80D800AF06F
:102EA000F3FE2B780D4A59B203F01F039C404909E9
:102EB00042F8214003F02CFF094B3C38186004B065
:102EC000BDE8F0816C0600206E060020740600202C
:102ED0007106002070060020000C014000E100E0B7
:102EE0007806002038B5044603F012FF084B196835
:102EF0003C3188420BD31860064D074B0B201C60F9
:102F00002B88064C236103F009FF2B88636138BDD1
:102F1000780600206C0600207C060020000C014092
:102F20002DE9F843C3794278002B044614BF0223ED
:102F3000002302B10133344A002552F82390A846F9
:102F40002F462E4639F805304FF6FF729342D8B21D
:102F500057D0E27812B1821E012A4FD9227912B1DC
:102F6000021F032A4AD9A2780AB1012846D01B0AB7
:102F7000022B04D12278002A08BF002302E0012B93
:102F800008BF6378627932B1E27922B9A0F1080210
:102F9000012A98BF0423A27922B1E27912B9021F53
:102FA000032A22D9012B02D100F0EAF926E0022BF4
:102FB00004D1F1B200F0AEF901361FE0032B12D1BB
:102FC0002289DFF848E00001B2F5FA7F5FFA88F164
:102FD000A389704402D900F0E3F801E000F0F6F8AC
:102FE00008F101080AE0042B08D1084BF9B203EB01
:102FF00000106289E38900F0FFF8013702351C2DCB
:10300000A0D1BDE8F88300BF58200108D4200108F2
:10301000074BA1F57A7153F820304FF47A701A6893
:103020009B884B4393FBF0F39BB21380704700BF28
:1030300088060020024B53F820301B681980704727
:10304000880600202DE9F04F474D044628788E462B
:1030500091460C26421C87B02A704643724620686F
:103060004946019300F008FFA2686068ADF80820A7
:103070004FF0020A182202A98DF80A208DF80BA041
:10308000FFF7F6FD02A8256894F80CB00BF04BF999
:103090007022019B354FADF808200122ADF80A20BF
:1030A000ADF80E3000224FF4807307EB0608ADF840
:1030B0000C20ADF810A0ADF81430BBF10C0F2BD8DC
:1030C000DFE80BF0072A2A2A102A2A2A192A2A2A94
:1030D0002200284602A90BF01FF8284608210BF011
:1030E00057F919E0284602A90BF05AF8284608219A
:1030F0000BF056F910E0284602A90BF095F8284687
:1031000008210BF057F907E0284602A90BF0CEF88A
:10311000284608210BF056F9A37B1BB1206801213A
:103120000BF01FF9206801210BF00FF9237B0C2B0A
:1031300014D8DFE803F0071313130A1313130D1346
:10314000131310002368343307E02368383304E096
:1031500023683C3301E023684033BB514046A8F864
:10316000049007B0BDE8F08F84060020D806002048
:1031700008B5044B53F820301BB10B2801D89B68CD
:10318000984708BD88060020044B53F820301BB137
:1031900007289CBF1B681980704700BFB806002035
:1031A00010B50C460649B1FBF2F292B20821FFF7C6
:1031B00049FF044B43F82400034B836010BD00BF5C
:1031C00000127A00880600201130000810B50C4665
:1031D0000649B1FBF2F292B20121FFF733FF044B33
:1031E00043F82400034B836010BD00BF40420F0032
:1031F000880600203530000810B50C46054991FBC3
:10320000F2F292B20121FFF71DFF034B43F82400B5
:1032100010BD00BF40420F00B80600200E4A0F4804
:1032200013881180C91A038089B240F68C23994211
:103230000B4B1A7807D9032A03D90A4A11780131AE
:103240001170002205E00B2A9CBF074820F81210DD
:1032500001321A70704700BF840700206807002001
:1032600008080020090800206C070020034B18788C
:10327000034B1B78C01A18BF0120704709080020B3
:103280006A070020024B1A78024B1A70704700BF81
:10329000090800206A0700207FB5044601A80D46F2
:1032A00016460BF04AF80123ADF808300023ADF8BC
:1032B0000A302046032301A9ADF80450ADF806609A
:1032C000ADF80C300BF0BAF804B070BD10B50F4B70
:1032D00003EB00108278C36832B9012282708180CA
:1032E000197B186802220CE08288C1804478891A10
:1032F000074A89B222F814100022018182701868EE
:10330000197BBDE81040FFF7C7BF00BF880700204A
:103310006C0700202DE9F3410D46164F16492A018E
:103320004FEA001808EB07048B1801265D708E54D5
:10333000DC60A368E27B6068ADF8043001A9022379
:103340008DF807308DF80620FFF792FC58F807003B
:10335000217B0022FFF7A0FF204632464FF6FF7187
:1033600000F0ACFD20462946044A00F065FD02B09D
:10337000BDE8F081D420010888070020CD32000884
:10338000F7B5134E0701134BBC1900251D70DC6007
:10339000A368E27B6068ADF8043001A902238DF8D0
:1033A00007308DF80620FFF763FCB859217B2A46C9
:1033B000FFF772FF20464FF6FF71012200F07EFDFD
:1033C00020462946044A00F037FD03B0F0BD00BF97
:1033D000D4200108880700201D320008014B33F873
:1033E000100070476C07002041717047426A806A84
:1033F000131A5842584170477FB5044601A80D463C
:1034000016460AF09AFF0123ADF808302046002343
:1034100001A9ADF80450ADF80660ADF80A30ADF87A
:103420000C300BF00BF804B070BD437913F00103BE
:1034300007D00369C169026A013B881A1840C0B20B
:10344000704718467047437910B513F001030446DE
:103450000DD0FFF7EAFF58B1226A6369985CE36810
:103460000132B2FBF3F103FB1123236210BD1846B6
:1034700010BD43799B070AD5436A8269D154426AD9
:1034800003690132B2FBF3F103FB1123436270477E
:103490008379012B03D1D1F1010138BF0021D0F88C
:1034A00034315A689B6809B11361704753617047A2
:1034B00007B503469B684068ADF8043048238DF893
:1034C000063001A902238DF80730FFF7D1FB03B0C6
:1034D0005DF804FB2DE9F74391464FF41272424325
:1034E0001F463C4B0646D41808B93B4802E0012869
:1034F00004D13A4820631030C4F83401384800251C
:10350000D050032363714FF480734FF00108E360E0
:103510002361D4F8343184F83C5284F8388284F83A
:10352000395284F8466258689B6804F1340262613B
:10353000ADF8043004F59C721023A261E1622562AB
:1035400001A9E561A5626562A4F84252A4F844525B
:103550008DF80630C4F808900223A7718DF8073063
:10356000FFF786FB206BFFF7A3FF41462046FFF7DE
:103570008FFF322003F0DDFB1A4BD4F834811B6837
:103580001D46B5FBF9F1B1F5803F03D3012DF8D904
:103590006D08F6E7144A4046B3FBF2F289B2D2B2A4
:1035A00000F08CFC40463146104A00F045FC256B8B
:1035B000012F14BF022200222868297BFFF71CFF7D
:1035C000284631460A4A00F037FC204603B0BDE8E1
:1035D000F08300BF181700201421010834210108CE
:1035E000A42001089801002040420F00093800087B
:1035F0009536000803460A4690F84602D96A9B7938
:10360000FFF768BF10B590F83C220446C2B9836A40
:10361000416A994228D08069591CA162C05C236923
:10362000C0B299424FEA400343F40073A4F83E321B
:103630004FF00A0384F83D3228BFA262012311E053
:1036400090F93D3273B1B0F83E124B08A0F83E320B
:1036500001F00101FFF71CFF94F83D32013B84F8B3
:103660003D3210BD84F83C3210BD90F83B3210B5AD
:103670007BB990F83A3290F83922934209D201216D
:103680009940B0F8404201332143A0F84012DBB228
:10369000F3E710BD2B4B10B54FF4127404FB00344C
:1036A0006379DB074DD594F838321BB3236B0021C7
:1036B00018680AF091FE94F83C3223B1B4F8423213
:1036C0000133A4F84232A279236B012A1868197BCE
:1036D0000CBF02220022FFF78FFE012384F83B3249
:1036E000002384F8393284F83A3284F83832A4F866
:1036F000403210BD94F83B322046012B04BF94F8B1
:10370000393284F83A32FFF7B0FF94F83B12236B5A
:10371000A27949B9012184F83B128A421868197BC1
:103720000CBF0222002208E0002184F83B12012A8B
:103730001868197B14BF02220022BDE81040FFF771
:103740005BBE10BD18170020012280F8382290F8C7
:103750003B220023012A80F839320BD1827980F88C
:103760003B32036B012A1868197B14BF0222002226
:10377000FFF742BE7047427908B50346D0071CD513
:10378000B3F84002810501D4C20705D4B3F844223E
:103790000132A3F8442208BDDA6AC0F347000AB137
:1037A000904708BDDA6959698854D969DA680131E6
:1037B000B1FBF2F002FB1012DA6108BD10B590F80F
:1037C00038320446F3B990F839320133DBB2092BB1
:1037D00080F8393203D1BDE81040FFF746BF0A2B0D
:1037E00010D190F83B322BB9B0F8403243F00103CE
:1037F000A0F840322046FFF7BEFF2046BDE810404B
:10380000FFF7A2BF10BD0000064B10B54FF41274B5
:1038100004FB00342046FFF7F5FE2046BDE81040CB
:10382000FFF7CCBF18170020436B13B190F844008A
:103830007047826A436AD31A5842584170471FB58D
:10384000836800930023ADF80430437903F004014A
:1038500001F0FF0231B14FF40052ADF806204FF4F1
:10386000806201E0ADF80620ADF808200022ADF836
:103870000C2013F0010218BF04229B07ADF80A20A8
:1038800005D5BDF80A3043F00803ADF80A30006DE5
:1038900069460AF087FE05B05DF804FB8160FFF71A
:1038A000CEBF4171FFF7CBBF026B03691AB15168FC
:1038B000013B026C02E0C169026A013B881A1840B0
:1038C000C0B27047016B0346C26810B5406941B190
:1038D000196C541A005D013918BF0A46C0B21A6447
:1038E00010BD196A405C0131B1FBF2F402FB141205
:1038F000C0B21A6210BD00002DE9F0411E464C4BCB
:103900008CB098428846174604D11046314600F0E4
:10391000C9F807E0474B984240F085801046314691
:1039200000F018F900250562C56185624562C0F89E
:103930002C804671876085710446FFF780FF01A8DF
:103940000BF03EF9E36CF20701934FF480530A93B6
:103950004FF080030B95059507950693089527D59D
:10396000206BD0B1E3680395049320230993636926
:1039700002930BF08FF8206B01A90BF003F9206B79
:1039800001210BF02AF9206D402101220AF082FE6C
:10399000206B0BF037F920640AE0206D40F22551CE
:1039A0000AF081FE206D40F2255101220AF05AFEF4
:1039B00001A80BF005F9A36C002501934FF4805387
:1039C0000A938027B3070B950595079506970895E9
:1039D00023D5606BD8B12369099504931023039311
:1039E0000BF058F8606B01A90BF0CCF8606B01226A
:1039F00002210BF0FDF8606B29460BF001F9636BB7
:103A0000206D5D60394601220AF044FE05E0206D1C
:103A100040F2277101220AF025FE206D01210AF0F3
:103A200015FE204600E000200CB0BDE8F08100BF8C
:103A3000003801400044004003469A6A9969406B8F
:103A40001144C160596A914203D98A1A426099624D
:103A500004E019698A1A426000229A62002283F8FF
:103A6000442001210BF0B9B810B5426A8469A15411
:103A7000416A02690131B1FBF2F402FB14124262A5
:103A8000426B32B11368DB070BD4BDE81040FFF77F
:103A9000D3BF006D40F227710122BDE810400AF04B
:103AA000E1BD10BD254B264A13B51A60254A986022
:103AB0005A61254A0C469A614FF48072DA601A61A5
:103AC000224A4FF480401A6504329A64DA6402F59F
:103AD000484254321A630121143A5A630AF0CAFE6A
:103AE00002238DF803304FF40073ADF80030A207C5
:103AF0004FF018038DF8023003D515486946FFF7DB
:103B0000B7F84FF48063ADF8003048238DF80230E9
:103B1000E30703D50E486946FFF7AAF80E238DF890
:103B2000043001A801238DF805308DF806308DF89A
:103B300007300AF003FA014802B010BDCC0A002099
:103B4000BC2001080A080020CA09002000380140F2
:103B500000080140224B234A13B51A608022DA6024
:103B600040221A61204A98605A61204A0C469A61A4
:103B70001F4A4FF400301A65012104329A64DA6456
:103B80000AF084FE02238DF803300423ADF80030E0
:103B9000A2074FF018038DF8023003D51548694687
:103BA000FFF766F80823ADF8003048238DF802309F
:103BB000E30703D50F486946FFF75AF826238DF827
:103BC00004300222012301A88DF805308DF806206B
:103BD0008DF807300AF0B2F9014802B010BD00BFFD
:103BE000200B0020BC2001080A0900208A090020BF
:103BF000004400400008014010B50B4C4FF4005049
:103C00000BF004F8606B00210AF0E7FF626AA36A18
:103C10009A4204D02046BDE81040FFF70DBF0123B3
:103C200084F8443010BD00BFCC0A00200D4B186D45
:103C30000288120614D59A6A596A8A420BD0996989
:103C4000895C0132C9B281801969B2FBF1F001FBD4
:103C500010229A62704740F2277100220AF002BDDA
:103C6000704700BFCC0A002038B51B4C236D1D885F
:103C7000ADB2AA0612D5E26A1AB1988880B290470E
:103C80000CE09B88E2696169DBB28B54E269E3680E
:103C90000132B2FBF3F103FB1123E3612B0619D5CB
:103CA000A26A616A0C4B8A420CD09869196D805CDB
:103CB0000132C0B288801969B2FBF1F001FB102219
:103CC0009A6238BD186D40F227710022BDE8384075
:103CD0000AF0C8BC38BD00BF200B002010B500237F
:103CE000094CDAB254F8224001338442F8D100235F
:103CF000064CD8B234F8104001338C42F8D102EBB4
:103D00008000C0B210BD00BFB4210108C421010869
:103D100070B504460026324B9D5DA5B920460221B0
:103D20000AF031FC012857D1204602210AF036FC66
:103D300029462046FFF7D2FF2A4D05EB0015204605
:103D40000AF014FC43E0042D14D1204629460AF061
:103D50001AFC012840D1204629460AF01FFC2946BA
:103D60002046FFF7BBFF1F4D05EB001520460AF06C
:103D700000FC2CE0082D14D1204629460AF003FC53
:103D8000012829D1204629460AF008FC2946204668
:103D9000FFF7A4FF134D05EB001520460AF0ECFBDE
:103DA00015E00C2D18D1204610210AF0ECFB01285B
:103DB00012D1204610210AF0F1FB29462046FFF7D8
:103DC0008DFF084D05EB001520460AF0D8FBAB68C7
:103DD00001460BB1287B98470236082E9BD170BD57
:103DE000C4210108740B002070B50C4615461E4610
:103DF000FFF774FF0F2805D8034B03EB0010866014
:103E00000471057370BD00BF740B00200C2912D81B
:103E1000DFE801F007111111091111110B11111136
:103E20000D00022104E0042102E0082100E010213D
:103E300001220AF0A4BA704738B504460D4613466D
:103E4000217B00682A46FFF7CFFF2068217BBDE871
:103E50003840FFF7DBBF07B501238DF8040001A848
:103E60008DF805308DF806308DF807300AF066F8C9
:103E700003B05DF804FB00007FB5044601A81646B8
:103E80000D460AF047FA0B4B013D5E430A4B2046B4
:103E90001B6801A9B3FBF6F6013E0023ADF80850FC
:103EA000ADF80460ADF80A30ADF806300AF0EAF873
:103EB00004B070BD40420F009801002010B50446C8
:103EC0000068FFF7D9FF206801210AF03EFA607B05
:103ED000BDE81040FFF7BFBF0148FFF719BF00BFA3
:103EE000002C01404FF08040FFF712BF0148FFF760
:103EF0000FBF00BF000400400148FFF709BF00BF2B
:103F000000080040024800214FF480720CF0DEBF30
:103F1000740B002010B5FCF781FE0A49FCF7D2FEB5
:103F20000949FCF783FF094B04461B681878FCF726
:103F300075FE01462046FCF7C5FEFDF7AFF880B2DE
:103F400010BD00BF3333534000F07F45800C00208C
:103F500010B50D4B00201C78621C1A70FDF77CFD1B
:103F60000A4A04F00704002322F814001846D15A24
:103F700002330844102B80B2F9D1C008FFF7CAFF02
:103F8000034B187010BD00BF8C0C00208E0C00205D
:103F9000840C0020074B084A1B7812889A4207D3EA
:103FA000064A1268907898428CBF00200120704722
:103FB00000207047840C0020A81B0020800C0020EB
:103FC000114B70B51860202500241E460020FDF717
:103FD00043FD04440A2002F0ACFE013DF6D1C4F3D7
:103FE0004F10FFF797FF316801234C78224690422B
:103FF00003D30133082B2244F9D1044A13708A7881
:104000005343034A138070BD800C00201000002031
:10401000A81B002040F6E4435843074B40F6FF72CC
:104020001B68B0FBF2F0DA88801A4FF47A725043C2
:104030009A8890FBF2F07047800C0020F8B5114C84
:1040400008252268074692FBF5F6961B022026609B
:10405000FDF702FD3044206090FBF5F080B2FFF7E1
:10406000D9FF094A094B106078434FF47A72B0FBCC
:10407000F2F01A6810441860054BB0FBF3F0054BE2
:104080001860F8BD740C00207C0C0020880C002007
:10409000407E0500780C00202DE9F04F0446008892
:1040A00085B048B9B4F9023043B9B4F90430D3F15A
:1040B000010338BF002302E0002300E0034613F0B1
:1040C000010377D13D4A00B2137000F01DFE064691
:1040D000B4F9020000F018FE0546B4F9040000F03F
:1040E00013FE044630460AF09BFD074630460AF0B0
:1040F0000BFE804628460AF093FD064628460AF045
:1041000003FE054620460AF08BFD824620460AF053
:10411000FBFD394681465046FCF7D4FD39468346BF
:104120004846FCF7CFFD514601904046FCF7CAFDDA
:10413000494602904046FCF7C5FD31460390504683
:10414000FCF7C0FD1E4C4946206006F10040FCF71C
:10415000B9FD29466060A5600298FCF7B3FD0146F1
:104160000198FCF7A7FC2946E0600398FCF7AAFD3C
:1041700001465846FCF79CFC3146206108F100409E
:10418000FCF7A0FD294660615846FCF79BFD0146FF
:104190000398FCF78DFC2946A0610198FCF792FD7D
:1041A00001460298FCF786FC3946E0613046FCF790
:1041B00089FD206205B0BDE8F08F00BF110000202E
:1041C000A00C00202DE9F8434D4B0C460168013A44
:1041D000196081889980072A30D8DFE802F0040846
:1041E0000F14191E22261A8822805A8803E05A8842
:1041F00022801A88524262809B881EE01A885242AE
:1042000022805A88F6E75A88524222801A88F2E7BA
:104210001A88524222805A880CE05A8822801A88D2
:1042200008E01A8822805A8803E05A885242228085
:104230001A88524262809B885B42A380314B1B7874
:10424000002B5AD1B4F90000FCF7E8FC8046B4F921
:104250000200FCF7E3FC0746B4F90400FCF7DEFCBF
:10426000294D064629684046FCF72CFDE968814641
:104270003846FCF727FD01464846FCF71BFCA969B8
:1042800081463046FCF71EFD01464846FCF712FC0D
:104290000AF0FCFC696820804046FCF713FD2969A0
:1042A00081463846FCF70EFD01464846FCF702FC05
:1042B000E96981463046FCF705FD01464846FCF7B2
:1042C000F9FB0AF0E3FCA96860804046FCF7FAFCC1
:1042D000696980463846FCF7F5FC01464046FCF724
:1042E000E9FB296A07463046FCF7ECFC01463846F4
:1042F000FCF7E0FB0AF0CAFCA080BDE8F88300BF31
:10430000C40C002011000020A00C002070B5144D3A
:1043100006462B78134CABB102F0FAFC2368334409
:1043200098421CD30020287002F0B0FC02F0F0FC90
:104330000D4B20601A780AB1013A1A700B4B01221A
:104340001A7070BD02F0E4FC23683233984206D341
:104350000120287002F09AFC02F0DAFC206070BDA7
:10436000CB0C0020D80C0020CD0C0020CC0C002061
:1043700073B5234D8DF807302B788DF8062002AAEF
:104380008DF804008DF805101A4412F8042C443AF4
:10439000D2B20A2A2CD81B49022B31F8124003D87A
:1043A00014B12046FFF7B2FF2B78022B0BD9164B26
:1043B0001E6802F0ADFC001B864204D2104A0023A6
:1043C0001370124A1370124B1A78012A1A4600D041
:1043D0009CB92B78022B02D8094901330B700D4B85
:1043E00000201070187002B0BDE8704002F04EBCA2
:1043F000022B4FF03204D4D9D6E702B070BD00BF13
:10440000CF0C0020CC210108D80C0020CD0C0020BE
:10441000CC0C0020CB0C0020014B1860704700BF73
:10442000D40C00202DE9F047414A0546537B9146C4
:10443000404E03B101234FF40070337000F086F951
:104440003D4C30B33D4FDFF8FC803B6898F80200EC
:104450001B68003018BF01205B68984740B10123FA
:1044600023703B681B68DB68984708B10223237000
:104470003B681B689B68984720B198F802300BB9DD
:10448000022323703B681B689B69984708B100238F
:104490002370202005F0D4FF68B199F80A20284B3A
:1044A00012B9234AD27A22B1264AD27A0AB9012213
:1044B00000E000221A702378022B02D14C204E21FA
:1044C0001CE0012B07D153204D214C220B46BDE8A7
:1044D000F047FFF74DBF1A4B1B78012B03D1532038
:1044E00001464E2205E03378012B04D153200146CA
:1044F00002464D23EBE725B153204D210A464423C4
:10450000E5E7104B5B7C1BB153204D210246DDE7F4
:104510000D4B1B7823B13220BDE8F047FFF7F6BE04
:104520000A4B28461D70BDE8F04702F0AFBB00BF44
:1045300059220020CA0C0020D00C0020D40C0020EE
:10454000CE0C002047220020CD0C0020CB0C0020F8
:10455000014B1870704700BFCD0C00200E4B1A782D
:10456000462A16D15A88B2F58A6F12D11A79BE2A14
:104570000FD193F84D240020EF2A0CD113F8012B12
:104580005040064A9342F9D1D0F1010038BF0020D3
:10459000704700207047704700F8010850FC010880
:1045A000C8230380142383701E23C3700123037167
:1045B0006423C3804FF4967303812823438170479B
:1045C00010B50446272007F033F92070102007F0BB
:1045D0002FF96070002007F02BF9A070002007F081
:1045E00027F94FF4E1336360A360E3602361522352
:1045F000E070237510BD000030B51F4C1F4D85B015
:10460000204605F053FF2946204605F069FF05F1D5
:10461000240002F06DF905F16C0006F02DFC14F891
:10462000500C03F0EFF904F1A60004F097FDA4F19B
:104630004C0005F059FC04F19A0000F0B5FE05F1BC
:10464000280001F0C1FF05F15103009305F13E037D
:10465000019304F1A403029304F15A00A91D2A4610
:1046600004F1A20304F016F804F1140005B0BDE84B
:10467000304001F0AFBF00BF4C2000207C1C002068
:1046800008B5054B4FF4827202FB0030034900F578
:10469000A070FCF723FD08BDAC1B0020FC1F002010
:1046A000F8B5274B46221A704FF48A625A80BE2210
:1046B0001A71EF2283F84D24002283F84E2411460C
:1046C0001F46BB5C0132B2F58A6F81EA0301F8D163
:1046D0001B4B042683F84E1409F0ECFF0025013E25
:1046E00016F0FF061ED0342009F0F8FF154CC4F375
:1046F000090363B13A1902F17842A2F5FC3220466F
:1047000011680AF035F80428054607D0E7E7204687
:104710000AF010F804280546ECD0E0E70A4B043410
:104720009C42E4D109F0D2FF042D02D1FFF716FF1D
:1047300020B90A20BDE8F84002F09CBBF8BD00BFDC
:10474000AC1B002000F8010850FC0108034B9B68DB
:1047500018420CBF00200120704700BFAC1B002096
:10476000024B9A6810439860704700BFAC1B002052
:104770002DE9F04FB74AB84D85B010685168B74C75
:1047800002AB03C34FF48A62002128460CF09EFB63
:1047900000214FF4827220460CF098FB46232B70C8
:1047A000022003236B71FFF7DBFF4FF41673A5F8AC
:1047B000F030FA23A5F8F2302A23A5F8EE304FF4B2
:1047C000FA73A5F8F630202385F8F4306E2385F8C7
:1047D000043140F24C412B2385F80531A5F81A111C
:1047E000212340F26C7100264FF0010840F2DC52A8
:1047F00085F80631A5F81C114FF4C87340F27E41CC
:10480000A5F80831A5F8182185F84C64A5F8FA60D8
:10481000A5F8F860A5F8FC6085F8E26085F8E3602B
:1048200085F8E460A5F8E660A5F8E860A5F8EA6018
:1048300085F8ED6085F8EC80A5F80A6185F83C61A3
:1048400085F83E6185F83D6185F8166185F81E6141
:1048500085F8206185F8216185F82281A5F8D010BE
:1048600040F23A71A5F8D2104FF47A71A5F8D4103D
:1048700040F27E51A5F8D61040F2EA514FF03209CD
:10488000A5F8D81005F5927040F2B451A5F8DA10E9
:10489000A5F8DE300192A5F8DC90A5F8E09085F847
:1048A0002361FFF78DFE40F6AC5308201E21AB813B
:1048B000E07417230E20A1732376E17363760B2136
:1048C0005523A0726420A37121722D231421E07757
:1048D0007820DFF8B0A1237461726377217560736B
:1048E00050215F48E3755F4B2827A1774FF00A0BF3
:1048F0005A21E1726062AE73267027716771A676E5
:1049000084F807906674E676A674267784F815B066
:10491000277384F82180C4F830A0E36323644FF048
:104920008243E3624FF07C53A3634F4B84F85010F3
:1049300063644E4B84F85460A3644D4B84F8556017
:10494000E364412384F8513084F85660019AA062F0
:10495000C4F834A004F15C00A4F8582084F8529004
:1049600084F8536002F00EFD042384F860301523B0
:1049700084F864303F4BC4F868A0E3663E4B3F4880
:10498000236705F58771A4F85A6084F8617084F88C
:10499000627084F8748005F065FF4FF44873A4F8E2
:1049A000A630C82384F8EB304FF49663A4F8EC30BB
:1049B00040F2D933A4F8EE3040F64303A4F8F030C7
:1049C00084F8A26084F8A36084F8A47084F8A580B9
:1049D00084F8A86084F8EAB023464FF47F72A4F804
:1049E000AA204FF4FA62A4F8AC2002A940F2DC52EB
:1049F000A4F8AE208A5D013684F8B020082E4FF06E
:104A0000FF0284F8B12004F10804E6D101221C4819
:104A100083F8F22083F8F32083F8F420FFF7C0FD39
:104A20000023EA1810330021C02B1161F9D10024B2
:104A3000281900F5A07009494FF4827204F58274B8
:104A4000FCF74CFBB4F5437FF2D105B0BDE8F04F65
:104A5000FFF726BE08200108AC1B0020FC1F002029
:104A6000000020408FC2753DCDCC4C3D0000A040E1
:104A700000004040F6287C3F3D0A773FE2210108D4
:104A8000F22000209A99193F08B5FFF767FD18B981
:104A9000BDE80840FFF76CBE08BD0000024B9A68F5
:104AA00022EA000098607047AC1B002010B5384C1B
:104AB00048F20103A268134033B9364B13401BB9C7
:104AC0004FF40040FFF74CFEA3681A040CD598037E
:104AD00003D54FF40030FFF7E1FFA368D90403D5F5
:104AE0004FF48050FFF7DAFFA368DA0311D51B07F4
:104AF00002D50820FFF7D2FFA368180403D54FF4AE
:104B00000040FFF7CBFFA368D90702D50120FFF7CC
:104B1000C5FFA3681A070BD5180403D54FF400404E
:104B2000FFF7BCFFA368D90702D50120FFF7B6FF46
:104B3000A26848F20103134048F20102934203D1F4
:104B40004FF40040FFF7AAFFA3685A0505D51B04E0
:104B500003D44FF48060FFF7A1FFA26848F240033E
:104B6000134048F24002934202D14020FFF796FFE3
:104B7000094805F0F9FC094806F0D8FF074806F097
:104B800053FF20B90548BDE81040FFF719BD10BD1F
:104B9000AC1B002008000100BA1C0020D01C002023
:104BA00007B5FFF7DBFC10B90A2002F063F9104BE0
:104BB000104918464FF48A62FCF790FA90F84C249A
:104BC000022A84BF002280F84C2490F84C144FF441
:104BD000827202FB0101084801F5A071FCF77EFA20
:104BE000FFF764FF03B05DF804EBFFF705BD00BFFE
:104BF000AC1B002000F80108FC1F002008B5FFF7DF
:104C0000CFFFBDE808400F201421012208F004BFA7
:104C100008B5054B93F84C04FFF732FDFFF740FD54
:104C2000BDE80840FFF7EABFAC1B0020014B9868C5
:104C3000704700BFAC1B0020884203DB9042A8BF36
:104C4000104670470846704770B504460E46154634
:104C5000FCF7D6F930B920462946FCF7EFF918B130
:104C6000284670BD304670BD204670BD00230361EC
:104C700070472DE9F041066904460136012E0D46C4
:104C8000066105D10023616021608360BDE8F08189
:104C9000D0F8008008464146FBF70AFF0746304639
:104CA000FBF7BCFF01463846FCF7C0F8014640461A
:104CB000FBF700FF0646606031462846FBF7F8FE2A
:104CC00001463846FBF7FEFFA168FBF7F3FE2660BE
:104CD000E060A060BDE8F08110B5044600690128DD
:104CE00007DD0138FBF79AFF0146E068FCF79EF804
:104CF00010BD002010BD08B5FFF7EEFFBDE808406D
:104D00000AF01ABA0000000008B5FBF77DFB04A307
:104D1000D3E90023FBF7DEFBFBF776FE08BD00BFFF
:104D2000399D52A246DF913F2DE9F041069C002BB0
:104D300006460F460CBF4FF020084FF030082346C0
:104D400013F8011B09B9154603E0002AFBDD013AFF
:104D5000F6E7002D04DD30464146B847013DF8E74F
:104D600014F8011B11B13046B847F9E7BDE8F081EE
:104D7000014B186801F04CBFE40C00202DE9F0470E
:104D800088B006460F4603921C46039A531C0393B1
:104D90001178002900F08D80252901D0304686E069
:104DA0000023911C049303915578302D05D1D31C19
:104DB000039395784FF0010800E09846A5F1300381
:104DC000DBB2092B06D8284603A90A2204AB00F05F
:104DD00034F905466C2D05D1039B5A1C03921D78AE
:104DE000012200E00022632D4FD006D8252D5CD093
:104DF000582D2AD0002D5CD0C7E7732D4AD002D899
:104E0000642D14D0C1E7752D02D0782D1DD0BCE7DC
:104E100004F1040905AD20680A2122B100222B46C5
:104E200000F090F80EE02B4600F0BFF80AE005AD68
:104E300004F104092068294612B100F0ABF801E042
:104E400000F0DBF84C46009518E004F1040A0DF17F
:104E50001409206810213AB1B5F158046242624148
:104E60004B4600F06FF806E0B5F158035A425A413C
:104E70004B4600F09AF85446CDF80090304639463B
:104E8000049A4346FFF750FF7FE730462178251DFF
:104E9000B84708E02368304600933946049A002357
:104EA000251DFFF741FF2C466FE730462946B847DE
:104EB0006BE708B0BDE8F0870FB407B50A4904AB4B
:104EC00008680A4953F8042B09680193FFF756FF55
:104ED000074B186801F0BBFE0028F9D003B05DF85D
:104EE00004EB04B0704700BFE00C0020DC0C002095
:104EF000E40C0020034A044B1A60044B00221A60A1
:104F0000704700BF714D0008DC0C0020E00C002051
:104F1000014B1860704700BFE40C002070B50646D6
:104F2000B6FBF2F40846154614B12046FFF7F6FF2B
:104F300005FB1464024B1B5D00F8013B70BD00BF14
:104F4000EB210108F0B50124B0FBF4F58D4201D34B
:104F50004C43F9E70026DCB1B0FBF4F504FB150087
:104F6000B4FBF1F41EB9002D01DC002CF3D1092DA6
:104F700003F101075FFA85FC04DD002A0CBF572509
:104F8000372500E0302565441D7001363B46E2E7D9
:104F90001C70F0BD00280B4603DA2D2240420A7037
:104FA0004B1C0A210022FFF7CDBFF0B50124B0FB56
:104FB000F4F58D4201D34C43F9E70026DCB1B0FB98
:104FC000F4F504FB1500B4FBF1F41EB9002D01DC6F
:104FD000002CF3D1092D03F101075FFA85FC04DDF4
:104FE000002A0CBF5725372500E0302565441D7089
:104FF00001363B46E2E71C70F0BD00280B4603DAA1
:105000002D2240420A704B1C0A210022FFF7CDBF1F
:10501000A0F13003DAB2092A01D818467047A0F18E
:105020006103052B01D857387047A0F14103052BC8
:1050300094BF37384FF0FF3070472DE9F8430D68C3
:1050400004460F469046994600262046FFF7E0FFAB
:10505000002806DB404504DC08FB060615F8014B7A
:10506000F3E73D602046C9F80060BDE8F883931E71
:10507000232B28BF0A22031E10B50C4603DA2D206D
:1050800001F8010B5842FFF749FF00230370204647
:1050900010BD000030B587B005460C4603A80021BE
:1050A0000C220BF013FF28460021FBF7C7FF20B1AD
:1050B00028462949FBF7FEFC03E028462649FBF772
:1050C000F7FC2649FBF7FEFDFBF7C2FF054685EA24
:1050D000E570A0EBE57069460A22FFF7C8FF002DD6
:1050E000ACBF20232D2368468DF80C300CF0E4FA79
:1050F000012807D130238DF80D308DF80E308DF852
:105100000F300CE0022805D130238DF80D308DF8DA
:105110000E3004E0032804BF30238DF80D306946BB
:1051200003A80CF0CBF903A80CF0C6FA0338C5B2FB
:105130002A4603A920460CF017FB0023635520469E
:1051400007490CF0BBF903A9204629440CF0B6F935
:10515000204607B030BD00BF6F12033A00007A440A
:10516000742C01082DE9F04102780346202A00F151
:105170000100F9D0092AF7D02D2A02D10346414D6A
:1051800004E02B2A08BF03464FF07E551E4600243C
:10519000334616F8012BA2F13007F9B209290DD8D0
:1051A00039492046FBF78EFD04463846FBF736FDAD
:1051B00001462046FBF77EFC0446E9E72E2A17D17C
:1051C000314F334616F8010B3038C2B2092A0FD8D6
:1051D000FBF724FD3946FBF729FE01462046FBF785
:1051E00069FC294904463846FBF76CFD0746E8E7A9
:1051F0001A7802F0DF02452A38D15A782D2A02D1D6
:105200000233012604E02B2A14BF013302330026A7
:10521000013B002713F8012F303AD1B2092903D8F6
:105220000A2101FB0727F5E7B7F59A7F28BF4FF45E
:105230009A77B8464FF07E51B8F1070F07D9084664
:105240001249FBF73FFDA8F108080146F4E707F013
:10525000070737B108460C49FBF734FD013F01460B
:10526000F7E72EB12046FBF7E1FD04E04FF07E5159
:105270002046FBF727FD01462846FBF723FDBDE846
:10528000F08100BF000080BF0000204120BCBE4C68
:10529000014B00229A807047EC0C0020034BB3F9BD
:1052A0000400D0F1010038BF00207047EC0C002052
:1052B000014B187A704700BFEC0C0020014B012213
:1052C0001A727047EC0C0020064BB3F90400064B31
:1052D0001B681B7803EB83039842D4BF0020012096
:1052E000704700BFEC0C0020F80C002010B50446FD
:1052F000FFF7EAFF002814BF2046002000F001005D
:1053000010BD0000074B1A68074B1178B3F9040071
:1053100053780B4403EB83039842D4BF0020012051
:10532000704700BFF80C0020EC0C0020024B9A885C
:1053300001329A80704700BFEC0C002070B5FFF777
:10534000C3FF30B3134C237A0BB9A38070BD124E48
:10535000B578281C18BF0120FFF7C8FF88B10123CA
:1053600073700E4B1A680E4B518919805189598000
:1053700052899A800B4A12685288DA80E388013396
:10538000E380FFF7BFFF00B91DB9BDE8704000F032
:10539000D7BB70BDEC0C002047220020FC0C002085
:1053A000A2220020F80C0020024B00221860024BC1
:1053B0009A807047F80C0020EC0C0020044B186019
:1053C0000448054B03600023C3800372704700BF8D
:1053D000FC0C0020EC0C002010220108044B9A88E1
:1053E00011B21429CCBF143A00229A80704700BF32
:1053F000EC0C0020032810B50D4B0DD80D4A126897
:1054000094888C4208D2D2888A4205D9012202FAB5
:1054100000F01A78104318701B780F2B06D1044B3C
:1054200000221A70BDE81040FFF7D8BF10BD00BFC2
:10543000E80C0020F80C0020F0B5804C87B0FFF796
:1054400059FDFFF721FBFFF7ABFBA07B003018BF36
:10545000012001F079FC4FF40030FFF777F98DF867
:1054600004004FF48050FFF771F98DF8050001A892
:10547000FCF71AFB0220FFF769F918B104F58270F6
:10548000FEF79EFD6E486F4DFEF706FE0E2004F0FF
:10549000E1FF6D48B4F8EE1094F8ED20B5F95A30FC
:1054A00001F0F6FA2F4610B9032001F0E3FC674B38
:1054B00010225A6108221A610A26644D1920EB68ED
:1054C000013E83F01003EB60EB6883F00803EB60B0
:1054D00001F02FFC012001F0D9FB192001F029FC7B
:1054E000002001F0D3FB16F0FF06E6D108232B6164
:1054F00010232B6102F018FB6079554903F02EF957
:10550000FEF700FD534806F0A3FB63790E2B01D094
:10551000082B03D101238DF80F3001E08DF80F60C7
:1055200001214C4806F0C6FA8DF80B004020FFF729
:105530000DF98DF80C004FF40040FFF707F98DF8D6
:1055400008004FF40030FFF701F98DF80A00012040
:10555000FFF7FCF88DF8090003F030FD97F8F43000
:105560008DF80D00C3F380038DF80E30B4F8DE30F3
:105570004FF48040ADF81030B4F8E030ADF81230A0
:105580004FF47A73ADF81430FFF7E0F820B12B4BED
:10559000B3F8DA30ADF81430BDF81030274DB3F55C
:1055A000FA7F84BF0023ADF81430B4F8183102A894
:1055B000ADF81630FDF7B4FC05F58770FFF7FEFE79
:1055C000254E3060FEF728FF05F58770316805F03D
:1055D00005F84FF48070FFF7B9F840B11F4A05F5A0
:1055E000927095F82311A2F1F20304F0CDFC4FF470
:1055F0008060FFF7ABF808B101F0F6FA4FF40060F5
:10560000FFF7A4F808B105F0BFFC01F067FB144BED
:1056100018606379052B03D14FF4C87000F0BCFE0D
:105620004FF47A7001F06AF9C82000F0E3FF0D4BE7
:1056300001225A7300225A7007B0F0BDAC1B002043
:10564000921C0020FC1F00208E1C0020000C01403A
:10565000BC1B0020D01C002000210020F2200020D4
:105660000C0D00204722002008B5FFF7E5FE00F0F2
:105670008DFAFCE708B5034BB3F9D40003F08AF9BF
:10568000FEE700BFAC1B002038B5194B194C5D7DFF
:10569000637CFDB153BBA3789BB101F01DFC164D9B
:1056A00008B92B781BB101F08FFD00232B70134834
:1056B00010F8041C01F0A6FD0123114A6374137055
:1056C00038BD01F04FFE88B1FFF7A2FABDE83840BF
:1056D00001F07ABD13B101F003FE6574A3782BB914
:1056E000074B1B7813B1044B01221A7038BD00BF61
:1056F0005922002047220020080D00200020002011
:105700001D0D002008B5022004F09AFE18B900F023
:1057100049FE28B90AE000F063FF0028F7D108BD70
:1057200001F0F2F880F00100C0B205E0022004F0C0
:1057300087FE0028F4D0012000F0010008BD000021
:10574000054B1A683AB900F5F42000F5907018601E
:10575000024B08225A617047280D0020000C0140BE
:10576000034B00221A60034B08221A61704700BFE6
:10577000280D0020000C0140084A136863B1C01ACC
:10578000002809DB064903F5F423C86803F5907384
:1057900080F00800C8601360704700BF280D00202B
:1057A000000C0140B34B2DE9F04FB3F90600B24BAA
:1057B00085B0B3F8582090420FDBB0F5FA6F93F83C
:1057C000564007DA811A4C43A2F5FA6294FBF2F4D0
:1057D000643403E0C4F1640400E06424A74A93F84D
:1057E0005410B2F818C192F9EC2093F8A25093F833
:1057F000A360524293F8553092B201910021029277
:1058000003930A469B4B40F2E637CB5E0093CCEB0A
:10581000030303F2F31EBE4503D8002BB8BF5B425F
:1058200001E04FF4FA73022ADFF85C822CD025B134
:10583000AB42CCBFC5EB030300236427DFF878A29B
:1058400093FBF7FE6FF0630B3AF81E900BFB0E3BD9
:105850000EF1010E3AF91EA00FFA89FECEEB0A0EE8
:105860000EFB0BFE9EFBF7FECE4428F801E0DDF8B0
:10587000048003FB08FE824B9EFBF3F33B449BB288
:10588000634393FBF7F714E026B1B342CCBFC6EBFA
:1058900003030023DDF808E003FB0EF7A8F804700B
:1058A000039F002BB8BF5B427B43754F93FBF7F719
:1058B0006437714BDFF8048202EB030E9EF804900C
:1058C000642307FB09F999FBF3F902F808909EF8A5
:1058D0000E909EF818E007FB09F907FB0EF7DFF8BA
:1058E000E08199FBF3F902F80890DDF8008097FB5E
:1058F000F3F3644FE045D355634F02DA7B5A5B42C2
:105900007B520132032A01F102017FF47BAF5B4C31
:105910004FF4FA62B4F81A11FFF78EF9B4F81A319D
:105920004FF47A74C01A4443C3F5FA63B4FBF3F43A
:105930006421564894FBF1F36FF0630630F81320AE
:1059400006FB0344013330F9130013B2C31A5C435E
:1059500094FBF1F14E4C0A44637A4B4DFA80002BD4
:1059600038D04C4B18884C4B1B88C01A00B2FFF73C
:10597000CBF9064609F054F90746304609F0C4F958
:105980000646B5F90200FBF749F98046B5F9000073
:10599000FBF744F939468146FBF794F931468246D4
:1059A0004046FBF78FF901465046FBF781F8FBF7BD
:1059B0004FFB394628804046FBF784F931460746BD
:1059C0004846FBF77FF901463846FBF773F8FBF7CB
:1059D0003FFB68800120FEF7B9FE304D20B3304B0D
:1059E000304A1E4611881A680A442F491A600A78FC
:1059F0000132D2B20A700621B2FBF1F001FB102293
:105A000012F0FF0F10D10220FEF7A0FE08B1FEF742
:105A10009FFA4FF48050FEF799FE10B13068FEF700
:105A20000DFBFEF7B7FA28702878003018BF012068
:105A3000FEF7F8FCA3781BB11C4B08225A6147E023
:105A4000FFF760FE20B1194BDA6882F00802DA60D5
:105A500001232370637B0BB90D4A1370144B5B7DDC
:105A60000BB1002323702378124D5BB3FFF778FE50
:105A70002BE000BFA2220020FC1F0020AC1B002056
:105A80000CFEFFFF5F210020702200207822002002
:105A900047220020662100200E210020200D00203A
:105AA000100D0020240D0020140D0020000C0140DA
:105AB00059220020040D00209022002062210020A5
:105AC0005C2100202868FFF73BFE2868FFF754FEA2
:105AD00005F03AFA8020FEF739FEA8B1134B144ABC
