:020000040800F2
:1000000000500020B1230008612400087536000864
:100010006124000861240008612400080000000039
:100020000000000000000000000000006124000843
:10003000612400080000000061240008D950000875
:10004000612400086124000861240008612400087C
:10005000612400086124000861240008612400086C
:10006000612400086124000861240008612400085C
:100070006124000861240008ED4F00086124000895
:10008000612400086124000861240008612400083C
:10009000612400086124000861240008612400082C
:1000A00061240008612400086124000885230008F9
:1000B0009123000899230008A5230008D5470008CC
:1000C000554B0008D9470008514B0008612400082F
:1000D00061240008215000085D50000861240008D8
:1000E0006124000861240008612400080000000069
:1000F0000000000000000000000000000000000000
:0C01000000000000000000005FF808F1A3
:1001100010B5054C237833B9044810B10448AFF347
:1001200000800121217010BD9C050020000000000E
:10013000F810010808B5064B1BB106480649AFF395
:1001400000800648016811B1054A02B1904708BD18
:1001500000000000F8100108A00500209C05002008
:100160000000000081F0004102E000BF83F0004386
:1001700030B54FEA41044FEA430594EA050F08BF42
:1001800090EA020F1FBF54EA000C55EA020C7FEA06
:10019000645C7FEA655C00F0E2804FEA5454D4EB83
:1001A0005555B8BF6D420CDD2C4480EA020281EA4D
:1001B000030382EA000083EA010180EA020281EA85
:1001C0000303362D88BF30BD11F0004F4FEA0131D7
:1001D0004FF4801C4CEA113102D0404261EB4101E6
:1001E00013F0004F4FEA03334CEA133302D052426C
:1001F00063EB430394EA050F00F0A780A4F1010428
:10020000D5F1200E0DDB02FA0EFC22FA05F2801861
:1002100041F1000103FA0EF2801843FA05F3594147
:100220000EE0A5F120050EF1200E012A03FA0EFCC6
:1002300028BF4CF0020C43FA05F3C01851EBE371F0
:1002400001F0004507D54FF0000EDCF1000C7EEB0D
:1002500000006EEB0101B1F5801F1BD3B1F5001F4B
:100260000CD349085FEA30004FEA3C0C04F101046A
:100270004FEA445212F5800F80F09A80BCF1004F93
:1002800008BF5FEA500C50F1000041EB045141EA15
:10029000050130BD5FEA4C0C404141EB010111F416
:1002A000801FA4F10104E9D191F0000F04BF0146C1
:1002B0000020B1FA81F308BF2033A3F10B03B3F19F
:1002C00020020CDA0C3208DD02F1140CC2F10C022F
:1002D00001FA0CF021FA02F10CE002F11402D8BF8D
:1002E000C2F1200C01FA02F120FA0CFCDCBF41EA59
:1002F0000C019040E41AA2BF01EB0451294330BD28
:100300006FEA04041F3C1CDA0C340EDC04F1140404
:10031000C4F1200220FA04F001FA02F340EA0300DB
:1003200021FA04F345EA030130BDC4F10C04C4F121
:10033000200220FA02F001FA04F340EA0300294601
:1003400030BD21FA04F0294630BD94F0000F83F44B
:10035000801306BF81F480110134013D4EE77FEA2E
:10036000645C18BF7FEA655C29D094EA050F08BF7A
:1003700090EA020F05D054EA000C04BF194610465B
:1003800030BD91EA030F1EBF0021002030BD5FEA9F
:10039000545C05D14000494128BF41F0004130BDC7
:1003A00014F580043CBF01F5801130BD01F000451B
:1003B00045F0FE4141F470014FF0000030BD7FEA8E
:1003C000645C1ABF194610467FEA655C1CBF0B4689
:1003D000024650EA013406BF52EA033591EA030FA0
:1003E00041F4002130BD00BF90F0000F04BF002198
:1003F000704730B54FF4806404F132044FF00005CB
:100400004FF0000150E700BF90F0000F04BF002143
:10041000704730B54FF4806404F1320410F00045A9
:1004200048BF40424FF000013EE700BF42004FEAA4
:10043000E2014FEA31014FEA02701FBF12F07F4321
:1004400093F07F4F81F06051704792F0000F14BF1E
:1004500093F07F4F704730B54FF4607401F0004562
:1004600021F0004120E700BF50EA010208BF7047B9
:1004700030B54FF000050AE050EA010208BF7047AE
:1004800030B511F0004502D5404261EB41014FF417
:10049000806404F132045FEA915C3FF4DCAE4FF01B
:1004A00003025FEADC0C18BF03325FEADC0C18BF02
:1004B000033202EBDC02C2F1200300FA03FC20FA53
:1004C00002F001FA03FE40EA0E0021FA02F11444A0
:1004D000C1E600BF70B54FF0FF0C4CF4E06C1CEAB5
:1004E00011541DBF1CEA135594EA0C0F95EA0C0F2A
:1004F00000F0DEF82C4481EA030621EA4C5123EA9D
:100500004C5350EA013518BF52EA033541F48011CB
:1005100043F4801338D0A0FB02CE4FF00005E1FB7E
:1005200002E506F00042E0FB03E54FF00006E1FBC8
:1005300003569CF0000F18BF4EF0010EA4F1FF040B
:10054000B6F5007F64F5407404D25FEA4E0E6D414B
:1005500046EB060642EAC62141EA55514FEAC5205C
:1005600040EA5E504FEACE2EB4F1FD0C88BFBCF5D8
:10057000E06F1ED8BEF1004F08BF5FEA500E50F189
:10058000000041EB045170BD06F0004646EA01014F
:1005900040EA020081EA0301B4EB5C04C2BFD4EB81
:1005A0000C0541EA045170BD41F480114FF0000E7A
:1005B000013C00F3AB8014F1360FDEBF002001F0E8
:1005C000004170BDC4F10004203C35DA0C341BDC62
:1005D00004F11404C4F1200500FA05F320FA04F034
:1005E00001FA05F240EA020001F0004221F0004168
:1005F00010EBD37021FA04F642EB06015EEA430EDB
:1006000008BF20EAD37070BDC4F10C04C4F120050A
:1006100000FA04F320FA05F001FA04F240EA0200BD
:1006200001F0004110EBD37041F100015EEA430E8E
:1006300008BF20EAD37070BDC4F1200500FA05F2AE
:100640004EEA020E20FA04F301FA05F243EA02032D
:1006500021FA04F001F0004121FA04F220EA02003C
:1006600000EBD3705EEA430E08BF20EAD37070BD82
:1006700094F0000F0FD101F00046400041EB010162
:1006800011F4801F08BF013CF7D041EA060195F044
:10069000000F18BF704703F00046520043EB0303FE
:1006A00013F4801F08BF013DF7D043EA06037047EB
:1006B00094EA0C0F0CEA135518BF95EA0C0F0CD0F6
:1006C00050EA410618BF52EA4306D1D181EA03013C
:1006D00001F000414FF0000070BD50EA410606BF36
:1006E0001046194652EA430619D094EA0C0F02D17B
:1006F00050EA013613D195EA0C0F05D152EA0336C0
:100700001CBF104619460AD181EA030101F00041DD
:1007100041F0FE4141F470014FF0000070BD41F026
:10072000FE4141F4780170BD70B54FF0FF0C4CF400
:10073000E06C1CEA11541DBF1CEA135594EA0C0F1F
:1007400095EA0C0F00F0A7F8A4EB050481EA030E6C
:1007500052EA03354FEA013100F088804FEA033353
:100760004FF0805545EA131343EA12634FEA022221
:1007700045EA111545EA10654FEA00260EF00041E2
:100780009D4208BF964244F1FD0404F5407402D234
:100790005B084FEA3202B61A65EB03055B084FEAC5
:1007A00032024FF480104FF4002CB6EB020E75EBC2
:1007B000030E22BFB61A754640EA0C005B084FEAEA
:1007C0003202B6EB020E75EB030E22BFB61A754667
:1007D00040EA5C005B084FEA3202B6EB020E75EBB2
:1007E000030E22BFB61A754640EA9C005B084FEA2A
:1007F0003202B6EB020E75EB030E22BFB61A754637
:1008000040EADC0055EA060E18D04FEA051545EA25
:1008100016754FEA06164FEAC30343EA52734FEACE
:10082000C2025FEA1C1CC0D111F4801F0BD141EA47
:1008300000014FF000004FF0004CB6E711F4801FAC
:1008400004BF01430020B4F1FD0C88BFBCF5E06F8C
:100850003FF6AFAEB5EB030C04BFB6EB020C5FEA9C
:10086000500C50F1000041EB045170BD0EF0004EF1
:100870004EEA113114EB5C04C2BFD4EB0C0541EA23
:10088000045170BD41F480114FF0000E013C90E620
:1008900045EA060E8DE60CEA135594EA0C0F08BFE4
:1008A00095EA0C0F3FF43BAF94EA0C0F0AD150EAE3
:1008B00001347FF434AF95EA0C0F7FF425AF104676
:1008C00019462CE795EA0C0F06D152EA03353FF49E
:1008D000FDAE1046194622E750EA410618BF52EA1B
:1008E00043067FF4C5AE50EA41047FF40DAF52EAEF
:1008F00043057FF4EBAE12E74FEA4102B2F1E04369
:1009000024BFB3F5001CDCF1FE5C0DD901F0004CF6
:100910004FEAC0024CEA5070B2F1004F40EB830046
:1009200008BF20F00100704711F0804F21D113F172
:100930003872BCBF01F00040704741F480114FEAAB
:100940005252C2F11802C2F1200C10FA0CF320FA34
:1009500002F018BF40F001004FEAC1234FEAD32351
:1009600003FA0CFC40EA0C0023FA02F34FEA4303BB
:10097000CCE77FEA625307D150EA01331EBF4FF044
:10098000FE4040F44000704701F0004040F0FE405F
:1009900040F40000704700BF80F0004002E000BF5C
:1009A00081F0004142001FBF5FEA410392EA030F5A
:1009B0007FEA226C7FEA236C6AD04FEA1262D2EBA4
:1009C0001363C1BFD218414048404140B8BF5B42A9
:1009D000192B88BF704710F0004F40F4000020F042
:1009E0007F4018BF404211F0004F41F4000121F058
:1009F0007F4118BF494292EA030F3FD0A2F10102A2
:100A000041FA03FC10EB0C00C3F1200301FA03F1DF
:100A100000F0004302D5494260EB4000B0F5000F02
:100A200013D3B0F1807F06D340084FEA310102F1C1
:100A30000102FE2A51D2B1F1004F40EBC25008BF73
:100A400020F0010040EA03007047490040EB00003D
:100A500010F4000FA2F10102EDD1B0FA80FCACF16C
:100A6000080CB2EB0C0200FA0CF0AABF00EBC2506B
:100A700052421843BCBFD0401843704792F0000F59
:100A800081F4000106BF80F400000132013BB5E7AC
:100A90004FEA41037FEA226C18BF7FEA236C21D022
:100AA00092EA030F04D092F0000F08BF0846704787
:100AB00090EA010F1CBF0020704712F07F4F04D155
:100AC000400028BF40F00040704712F100723CBF68
:100AD00000F50000704700F0004343F0FE4040F492
:100AE000000070477FEA226216BF08467FEA236350
:100AF0000146420206BF5FEA412390EA010F40F43B
:100B0000800070474FF0000304E000BF10F0004386
:100B100048BF40425FEA000C08BF704743F096436D
:100B200001464FF000001CE050EA010208BF704788
:100B30004FF000030AE000BF50EA010208BF70470F
:100B400011F0004302D5404261EB41015FEA010C24
:100B500002BF84460146002043F0B64308BFA3F11C
:100B60008053A3F50003BCFA8CF2083AA3EBC253FE
:100B700010DB01FA02FC634400FA02FCC2F120021D
:100B8000BCF1004F20FA02F243EB020008BF20F054
:100B90000100704702F1200201FA02FCC2F12002BA
:100BA00050EA4C0021FA02F243EB020008BF20EAAF
:100BB000DC7070474FF0FF0C1CEAD0521EBF1CEADD
:100BC000D15392EA0C0F93EA0C0F6FD01A4480EACB
:100BD000010C400218BF5FEA41211ED04FF00063B4
:100BE00043EA501043EA5111A0FB01310CF00040E0
:100BF000B1F5000F3EBF490041EAD3715B0040EA06
:100C0000010062F17F02FD2A1DD8B3F1004F40EBD5
:100C1000C25008BF20F00100704790F0000F0CF0A8
:100C2000004C08BF49024CEA502040EA51207F3A6C
:100C3000C2BFD2F1FF0340EAC250704740F4000047
:100C40004FF00003013A5DDC12F1190FDCBF00F038
:100C500000407047C2F10002410021FA02F1C2F1E6
:100C6000200200FA02FC5FEA310040F1000053EA82
:100C70004C0308BF20EADC70704792F0000F00F0D0
:100C8000004C02BF400010F4000F013AF9D040EAD6
:100C90000C0093F0000F01F0004C02BF490011F46A
:100CA000000F013BF9D041EA0C018FE70CEAD15368
:100CB00092EA0C0F18BF93EA0C0F0AD030F0004CE8
:100CC00018BF31F0004CD8D180EA010000F000409C
:100CD000704790F0000F17BF90F0004F084691F05A
:100CE000000F91F0004F14D092EA0C0F01D1420294
:100CF0000FD193EA0C0F03D14B0218BF084608D15D
:100D000080EA010000F0004040F0FE4040F40000A6
:100D1000704740F0FE4040F4400070474FF0FF0C39
:100D20001CEAD0521EBF1CEAD15392EA0C0F93EA80
:100D30000C0F69D0A2EB030280EA010C49024FEAD2
:100D4000402037D04FF0805343EA111143EA10138B
:100D50000CF000408B4238BF5B0042F17D024FF443
:100D6000000C8B4224BF5B1A40EA0C00B3EB510F1E
:100D700024BFA3EB510340EA5C00B3EB910F24BF07
:100D8000A3EB910340EA9C00B3EBD10F24BFA3EB8C
:100D9000D10340EADC001B0118BF5FEA1C1CE0D154
:100DA000FD2A3FF650AF8B4240EBC25008BF20F007
:100DB000010070470CF0004C4CEA50207F32C2BF5B
:100DC000D2F1FF0340EAC250704740F400004FF0F8
:100DD0000003013A37E792F0000F00F0004C02BF29
:100DE000400010F4000F013AF9D040EA0C0093F0F3
:100DF000000F01F0004C02BF490011F4000F013B4D
:100E0000F9D041EA0C0195E70CEAD15392EA0C0FB4
:100E100008D142027FF47DAF93EA0C0F7FF470AFEC
:100E2000084676E793EA0C0F04D14B023FF44CAF2F
:100E300008466EE730F0004C18BF31F0004CCAD1C4
:100E400030F000427FF45CAF31F000437FF43CAF00
:100E50005FE700BF4FF0FF3C06E000BF4FF0010C22
:100E600002E000BF4FF0010C4DF804CD4FEA400204
:100E70004FEA41037FEA226C18BF7FEA236C11D04E
:100E800001B052EA530C18BF90EA010F58BFB2EB01
:100E9000030088BFC81738BF6FEAE17018BF40F081
:100EA000010070477FEA226C02D15FEA402C05D135
:100EB0007FEA236CE4D15FEA412CE1D05DF8040BBA
:100EC000704700BF844608466146FFE70FB5FFF74D
:100ED000C9FF002848BF10F1000F0FBD4DF808ED05
:100EE000FFF7F4FF0CBF012000205DF808FB00BFF6
:100EF0004DF808EDFFF7EAFF34BF012000205DF850
:100F000008FB00BF4DF808EDFFF7E0FF94BF01209C
:100F100000205DF808FB00BF4DF808EDFFF7D2FF99
:100F200094BF012000205DF808FB00BF4DF808EDDC
:100F3000FFF7C8FF34BF012000205DF808FB00BFA9
:100F40004FEA4002B2F1FE4F0FD34FF09E03B3EBD6
:100F500012620DD94FEA002343F0004310F0004F16
:100F600023FA02F018BF404270474FF0000070476C
:100F700012F1610F01D1420205D110F0004008BF0B
:100F80006FF0004070474FF00000704742000ED2F3
:100F9000B2F1FE4F0BD34FF09E03B3EB126209D4B4
:100FA0004FEA002343F0004323FA02F070474FF06A
:100FB0000000704712F1610F01D1420202D14FF0DF
:100FC000FF3070474FF00000704700BF2E4B2DE9F7
:100FD000F34105461878002838D0002426462746D5
:100FE000A0463221082253206B4603F08FFC9DF867
:100FF00001109DF80000013400EB01239DF803105F
:101000009DF802001AB200EB01239DF805109DF82F
:101010000400E4B290441AB200EB01239DF80710DB
:10102000BF18202C1AB2164401F07F0001D000280E
:10103000D7D1164B98FBF4F897FBF4F796FBF4F630
:10104000A5F800806F80AE801C701AE03221062265
:101050006B46532003F05AFC9DF801209DF80010C8
:101060009DF8030001EB02239DF802202B8002EB88
:1010700000219DF804309DF80500698003EB0022F3
:10108000AA80BDE8FC8100BFB8050020B90500209A
:1010900008B5134B53201B782D2108227BB103F098
:1010A000F9FC31210A22532003F0F4FC2C210C22FC
:1010B000532003F0EFFC53203821902209E003F085
:1010C000E9FC31210A22532003F0E4FC53202C21B7
:1010D0000A2203F0DFFC034840F20912028008BD37
:1010E000B80500200600002037B5104B05461A68E9
:1010F0000F480C46002182428DF8071001D10020D4
:1011000013E0532001220DF1070303F0FFFB002839
:10111000F5D09DF80710E529F1D12A780548064B4E
:10112000064920601A70616001203EBD4801002020
:10113000001BB70091100008B8050020CD0F000873
:1011400013B5022204461B2101AB682003F0DEFB2D
:101150009DF804209DF8053043EA022000F54E5129
:1011600010314FF48C7291FBF2F3233323801CBDBA
:1011700013B5062204461D216B46682003F0C6FB0A
:101180009DF800209DF8013043EA022001B20423BB
:1011900091FBF3F29DF802009DF80310228041EAD2
:1011A000002210B290FBF3F19DF805209DF8040099
:1011B000618042EA002108B290FBF3F3A3801CBDDA
:1011C00008B5192003F0BBFF68201521002203F0A9
:1011D00061FC10B9032004F023F80C4B16211A7897
:1011E000682042F0180203F055FC17210022682005
:1011F00003F050FC3D210122682003F04BFC6820E5
:101200003E210122BDE8084003F044BC000000205C
:1012100038B5054619200C4603F091FF68201521CA
:10122000002203F037FC18B3124B13481349144A39
:10123000622C2B606860A960EA60124B0FD004D862
:101240000A2C12D0142C0CD10DE0BC2C04D0B4F517
:10125000807F06D1002009E00120187038BD0220EF
:1012600004E0032002E0042000E0052018700120C3
:1012700038BD00BFC11100087111000841110008FC
:101280001844923100000020064B187820B1012844
:1012900006D14FF4805201E04FF4006202490A8007
:1012A000704700BFBA0500200600002013B50622D3
:1012B000044643216B46682003F028FB9DF800207C
:1012C0009DF8013043EA022001B2042391FBF3F2BE
:1012D0009DF802009DF80310228041EA002210B21E
:1012E00090FBF3F19DF805209DF80400618042EA2F
:1012F000002108B290FBF3F3A3801CBD13B50622B6
:1013000004463B216B46682003F000FB9DF800205B
:101310009DF801309DF8021043EA02209DF8032059
:10132000208042EA01239DF804009DF805106380A7
:1013300041EA0022A2801CBD07B5204A02204FF4DA
:101340000053ADF804308DF8070013681C480421E1
:1013500083428DF8061001D11A4803E01A498B42E6
:1013600003D11A4801A903F0FDFB6B2180226820FC
:1013700003F090FB052003F0E2FE19210022682013
:1013800003F088FB6B210322682003F083FB3721E5
:101390000222682003F07EFB0D4A1A216820127891
:1013A00003F078FB1B211822682003F073FB6820F0
:1013B0001C21102203F06EFB0EBD00BF480100206F
:1013C00000127A00000C0140001BB7000010014021
:1013D000010000202DE9FF41064623200D4614465A
:1013E00003F0ADFE6820752101220DF1070303F023
:1013F0008DFA00286DD09DF80780B8F1680F67D18D
:1014000006210A4602AB404603F080FA9DF80B30F5
:101410009DF80D7003F0010107F001004A0042EA57
:1014200080079DF8090000F001031F4307D0012F3A
:10143000294801D1002318E0022F0CD114E00C211F
:10144000012240460DF1070303F060FA9DF80710F2
:1014500011F00F0203D1052003F0E2FE06E0042A9A
:101460001D4801D1077001E0012303701A481B4990
:1014700003781B4A31607260002B14BF6E216F210C
:10148000184A1948194B142C31722A606860EB60B5
:10149000174915D004D8052C16D00A2C0ED111E00E
:1014A000BC2C08D0B4F5807F03D0622C06D1022278
:1014B0000BE0002209E0012008700AE0032204E0AA
:1014C000042202E0052200E006220A70012000E06A
:1014D000002004B0BDE8F081BA05002089120008A0
:1014E000FD12000839130008AD12000819449231AA
:1014F0000100002013B506220446A8216B4668208F
:1015000003F004FA9DF800209DF8013043EA022020
:1015100001B2042391FBF3F29DF802009DF8031041
:10152000228041EA002210B290FBF3F19DF80520E1
:101530009DF80400618042EA002108B290FBF3F3B9
:10154000A3801CBD08B5642003F0F9FD68202321A9
:10155000F02203F09FFA10B9032003F061FE05208A
:1015600003F0EDFD044B68201A78202142F00F02B1
:10157000BDE8084003F08EBABB05002037B505462C
:1015800019200C4603F0DBFD68200F2101220DF12C
:10159000070303F0BBF99DF80730D32B16D10C4895
:1015A0000C490D4A4E2C28606960EA600B4B07D04D
:1015B0005D2C09D0362C01D0002002E0402000E054
:1015C00080201870012002E0C020FAE700203EBD14
:1015D00045150008F5140008DDE9A731BB0500201A
:1015E0002DE9F041057890B000350646334818BF24
:1015F00001250AF085F800243148A542314B0CBF83
:101600002146802106904FF400500CBF4FF0010896
:101610004FF002084FF4807205930A9120234FF493
:1016200080670E9005A925480B920D930C9707949F
:10163000CDF8208009940F940AF0DAF81F480121B0
:101640000AF003F94FF46021012702911E48694610
:1016500000948DF804508DF8057003948DF8108077
:1016600009F0F4F9184804213A46032309F03FFA37
:101670002DB1154831780222032309F038FA1248B7
:10168000012109F010FA1048012109F003FA0E486F
:1016900009F012FA0C4809F014FA0028FAD10A48A5
:1016A00009F013FA084809F015FA0028FAD106489B
:1016B000012109F013FA10B0BDE8F08108000240E2
:1016C000BC0500204C24014000240140024B33F8AB
:1016D000100080B2704700BFBC050020F8B5134B66
:1016E00005469B890E461446ECB116B116F8017BEF
:1016F00000E0FF270D48022109F0A2F90028F9D0E7
:101700000A48394609F097F90848012109F098F983
:101710000028F9D0054809F090F9C0B20DB105F8DC
:10172000010B013CE0E70120F8BD00BF003800409C
:101730002DE9F047012188B04FF4804009F0DCFE2C
:10174000374C01214FF4804009F0EEFE03214FF4A5
:1017500020401823ADF800008DF80310204669469C
:101760008DF802304FF0040803F0FCF92D4E4FF4D1
:10177000804220466946ADF800204FF480554FF076
:10178000100A8DF8028003F0EDF969462046ADF8A5
:1017900000508DF802A003F0E5F9304609F0EEF8AC
:1017A00007214FF4007000230222ADF81600ADF8B7
:1017B0001C104FF00109304603A94FF48277ADF8B1
:1017C0000C30ADF81030ADF81A30ADF81220ADF88D
:1017D0000E70ADF814901F46ADF818A009F000F98E
:1017E0003046494609F01BF99F238DF804308DF8E7
:1017F00005708DF806708DF807700DEB08014246F4
:10180000656102A8FFF76AFF25619DF80900B0F144
:10181000EF014A4252EB010008B0BDE8F08700BF7B
:10182000000C014000380040074BA1F57A7153F8D5
:101830002000838802684B434FF47A7093FBF0F1E9
:101840008BB21380704700BFC0060020024B53F8D4
:101850002000026811807047C00600202DE9F04F7B
:10186000DFF828814FEA001558F805408E468BB006
:1018700008EB0507114683469246204672460193BF
:1018800000F0CEFCB96807F108024FF0020C1823F3
:101890007868ADF8141005A98DF816308DF817C0CA
:1018A0000392CDF808C003F05DF90398364E07792E
:1018B00006A809F068FB70220198DDF808C0ADF8B1
:1018C0001820012100234FF4807206EB0509ADF8C2
:1018D0001A10ADF81C30ADF81E00ADF820C0ADF800
:1018E00024200C2F2BD8DFE807F0072A2A2A102AF9
:1018F0002A2A192A2A2A2200204606A909F03CFA97
:101900002046082109F074FB19E0204606A909F0D9
:1019100077FA2046082109F073FB10E0204606A95B
:1019200009F0B2FA2046082109F074FB07E02046CE
:1019300006A909F0EBFA2046082109F073FB08EB31
:101940000B118B7B1BB12046012109F03AFB20468D
:10195000012109F02AFB0C2F10D8DFE807F0070F50
:101960000F0F090F0F0F0B0F0F0F0D00343404E092
:10197000383402E03C3400E040347451A9F804A04B
:1019800048460BB0BDE8F08FD405002030EA0008CF
:101990001F4A08B513881180C91A1E4889B240F63B
:1019A0008C22914203801C4B02D90020187008BD84
:1019B000A1F2EF2080B240F2DA5290421DD81B789B
:1019C000072B1AD81548032B20F81310144A09D8EE
:1019D00014480088884205D2012101FA03F31078E7
:1019E0000343137012780F2A07D10F480C4B02687B
:1019F0000021197011684B68984707480A4B027814
:101A0000511C0170186802681168884708BD00BF42
:101A1000B6060020C005002010070020C4050020E5
:101A2000C205002002000020901100207FB504466E
:101A300001A80D46164609F0B0FA00200123ADF8C2
:101A40000A00ADF80C0001A92046ADF80450ADF82D
:101A50000660ADF8083009F021FB7FBD2DE9F743A2
:101A6000DFF858800501144E05EB0804A368894689
:101A7000761928210746B271606802228DF8061097
:101A800001A9ADF804308DF8072003F06BF855F884
:101A90000800217B0022FFF7C9FF204601224FF6F4
:101AA000FF7100F0DFFB204639464A4600F09AFB02
:101AB0003046BDE8FE8300BFD405002030EA0008B0
:101AC00010B5144B00011B18DA795AB9012219819B
:101AD000DA71114B02221918097B1858BDE8104021
:101AE000FFF7A4BF1C8959810C4A091B9C7989B254
:101AF00022F8141000229981DA71074B1918097B1A
:101B00001858FFF793FF064802681368196888475A
:101B100010BD00BFD405002030EA0008C405002035
:101B2000901100204B4B2DE9F0410446028A1960C8
:101B30004948A17965780280002914BF022700274F
:101B400005B10137454B002553F827707A5DFF2A10
:101B500002F00F0002F0F00308D122894048414909
:101B6000B2F5FA7F016070D8BDE8F081A17811B1BB
:101B7000811E012965D9E17811B1011F032960D9BE
:101B8000E17909B181425CD012F0300F03D02278A4
:101B9000002A08BF0023217931B1A27922B9A0F12E
:101BA0000801012998BF802362792AB1A17919B966
:101BB000021F032A98BF802303F01001CAB23AB172
:101BC00000222949FFF74AFF284B08221A7038E003
:101BD00003F02001CAB242B1244E25493278FFF702
:101BE0003DFF3078411C31702BE003F04001CAB258
:101BF00092B123891F4AB3F5FA7F94BF01210821CE
:101C00004A431D4EB2FBF3F39AB2A38996F80080C3
:101C1000FFF724FE194B0EE01B0612D56389154908
:101C2000174E91FBF3F292B2E389012196F80080FE
:101C3000FFF714FE134B43F8280008F1010886F85B
:101C4000008001350E2D81D187E70F4B0360BDE881
:101C5000F08100BF9011002002000020ECE9000894
:101C6000BC0600204D18000891190008B906002094
:101C7000C11A000840420F00B8060020C00600202C
:101C8000B4060020F00600202918000808B5044B0F
:101C90001A78824202D9034B1A68904708BD00BFE8
:101CA000B8060020BC060020044B1A78824204D9F2
:101CB000034B53F82000026811807047B4060020DF
:101CC000F0060020014B33F810007047C4050020D7
:101CD000704701717047426A806A131A594251EB8A
:101CE00003007047037913F001010BD0026AC36946
:101CF0009A4205D09CBFC0681218D01AC0B2704773
:101D00000020704708467047037910B513F00101B1
:101D100004460ED0FFF7E6FF60B1E3696269E1684F
:101D2000D05C4A1E934201D2013300E00023E361FC
:101D300010BD084610BD03799A070AD5436A826927
:101D4000D154416A03694A1CB2FBF3F103FB11222F
:101D50004262704790F842321BB1D1F1010138BFA5
:101D60000021D0F834014268836809B113617047DB
:101D70005361704707B5034699684822ADF80410CF
:101D80000223406801A98DF806208DF8073002F083
:101D9000E9FE0EBD58B50E4B044618680E460346C4
:101DA000B3FBF2F1B1F5803F03D3012BF8D95B0807
:101DB000F6E7084A89B2B0FBF2F3DAB2204600F047
:101DC00051FA054A20463146BDE8584000F00ABAAB
:101DD0004C01002040420F004D2100087FB5044611
:101DE00001A80D46164609F0D8F800200123ADF8E9
:101DF0000A00ADF80C0001A92046ADF80450ADF87A
:101E00000660ADF8083009F049F97FBD38B50446E1
:101E10000D46002A0CBF02220022217B0068FFF73A
:101E2000DDFF034A20462946BDE8384000F0DAB914
:101E3000E11F000807B5034699681022ADF80410A9
:101E40000223406801A98DF806208DF8073002F0C2
:101E500089FE0EBD00F134034FF48072436100F53A
:101E60009C710023C2600362C3618161026183626D
:101E7000436270472DE9F0411D46194B0E46032180
:101E800003600171044690460127FFF7E3FF00203D
:101E900084F83C0284F83902A4F84402A4F846020B
:101EA00084F83872D4F8340184F84252FFF7C2FF44
:101EB000206BFFF75FFF39462046FFF74BFF3220CC
:101EC00003F03DF9D4F8340131464246FFF762FF92
:101ED000206B31462A46BDE8F041FFF797BF00BFAF
:101EE00018EA000810B5084A044608480B46026381
:101EF0001032C0F8342100212246FFF7BBFF044B0B
:101F000001201C60187110BD70EA000894110020B7
:101F100014070020034607490748084AC0F878120A
:101F200012681031C0F87C1300F512700121FFF720
:101F3000A1BF00BF90EA0008941100201407002000
:101F4000C268036A511E8B4201D3002300E00133B3
:101F50000362704710B590F83C220446AAB9836A20
:101F6000416A994225D080692169C05C01338B4266
:101F7000A36228BFA26242000A2342F4007084F8E0
:101F80003D32A4F83E02012311E090F93D3273B1D5
:101F9000B0F83E124A08A0F83E2201F00101FFF716
:101FA000D9FE94F83D02431E84F83D3210BD84F8FA
:101FB0003C3210BD90F83B3210B583B990F83A32FC
:101FC00090F8392293420AD2012101FA03F1B0F8C4
:101FD000404201332143A0F84012DBB2F2E710BDCA
:101FE0002D4B10B54FF4127404FB00342079C10757
:101FF00051D594F8381221B3236B0021186809F0E9
:102000001BF894F83C1221B1B4F84402421CA4F825
:102010004422236B94F842221868197B002A14BFCB
:1020200002220022FFF7DAFE0020012184F83B1291
:1020300084F8390284F83A02A4F8400284F838029D
:1020400010BD94F83B222046012A04BF94F839229F
:1020500084F83A22FFF7AEFF94F83B02236B58B99D
:10206000012094F8422284F83B021868197B002A68
:1020700014BF022200220AE0002184F83B1294F8E7
:1020800042221868197B002A0CBF02220022BDE8F8
:102090001040FFF7A3BE10BD9411002090F83B1232
:1020A00000230122012980F8393280F838220CD12E
:1020B00080F83B32036B90F84222197B1868002AA3
:1020C0000CBF02220022FFF789BE70470279034647
:1020D000D20713D5B0F8402202F4007189B209B9D1
:1020E000D10705D4B3F84602421CA3F84622704734
:1020F0004169036A5208CA54FFF722BF704710B5FE
:1021000090F838320446002B1ED190F839124A1C40
:10211000D3B2092B80F8393203D1BDE81040FFF764
:1021200049BF0A2B10D190F83B0228B9B4F84012ED
:1021300041F00102A4F840222046FFF7C7FF2046E5
:10214000BDE81040FFF7AABF10BD0000064B10B558
:102150004FF4127404FB00342046FFF7FBFE2046C8
:10216000BDE81040FFF7CBBF9411002030B500242C
:102170000E4D55F82450854202D00134E4B2F7E701
:10218000A400E4B200200A4D2D5C8D4202D0451C13
:10219000E8B2F8E70019C0B20F2805D8054C04EBE7
:1021A000001083600171027330BD00BF10EB0008A6
:1021B00020EB0008241600200C2912D8DFE801F0DB
:1021C00007111111091111110B1111110D0002212B
:1021D00004E0042102E0082100E01021012208F0BF
:1021E000FEBE704738B504460D461346217B006895
:1021F0002A46FFF7BBFF2068217BBDE83840FFF788
:10220000DBBF07B58DF80400012000238DF8060020
:102210008DF8070001A88DF8053008F0BFFC0EBD51
:102220007FB5044601A80D46164608F0A3FE0B4BE9
:102230000B485E4301680023B1FBF6F2013D561ED8
:10224000204601A9ADF80850ADF80460ADF80A3099
:10225000ADF8063008F046FD7FBD00BF40420F00DC
:102260004C01002010B504460068FFF7D9FF206834
:10227000012108F09AFE607BBDE81040FFF7C1BF66
:1022800000230C4A52F82320824202D05A1CD3B2B7
:10229000F7E79B00D8B20023074AD25C8A4202D0FB
:1022A0005A1CD3B2F8E71818044BC1B203EB011063
:1022B000704700BF10EB000820EB00082416002038
:1022C00070B5044600262E4BF55C95B902212046D8
:1022D00008F08DFF01284FD12046022108F092FF1F
:1022E00029462046FFF7CCFF0546204608F072FF3E
:1022F0003DE0042D12D12046294608F078FF012840
:102300003AD12046294608F07DFF29462046FFF7AE
:10231000B7FF0546204608F060FF28E0082D12D1DF
:102320002046294608F063FF012825D1204629468A
:1023300008F068FF29462046FFF7A2FF0546204621
:1023400008F04EFF13E00C2D16D11021204608F0A6
:102350004EFF012810D12046102108F053FF2946D6
:102360002046FFF78DFF0546204608F03CFFAA688F
:1023700001460AB1287B90470136042EA3D170BDD7
:1023800020EB00080148FFF79BBF00BF002C014075
:102390004FF08040FFF794BF0148FFF791BF00BFA7
:1023A000000400400148FFF78BBF00BF0008004059
:1023B0001D481E49026800608A4200F01F8000210B
:1023C00000F004B81A4B5B584350043119481A4BBB
:1023D00042189A42FFF4F6AF184A00F003B80023FF
:1023E00042F8043B164B9A42FFF4F9AF08F0A8F903
:1023F0000BF0F6F901F026F8FFF7FEBF114E124878
:1024000030601248016821F0706101604102016092
:102410000F4C182020600F490F4808600F48D0F873
:1024200000D0406800470000F04F0020EFBEADDE56
:102430001C110108000000209C0500209C050020C4
:102440008C1D00201810024009000000040001400B
:10245000140C0140000C01404434434400F0FF1FC1
:10246000FFF7FEBF014B186802F0B7BB7C1D0020D0
:102470000149002000F090BE6524000810B5FEF769
:1024800045FB0A49FEF796FB0949FEF747FC094B55
:10249000044618680078FEF739FB01462046FEF72F
:1024A00089FBFEF773FD80B210BD00BF333353408C
:1024B00000F07F453007002038B50D4C002025780E
:1024C000FFF704F90B4A05F0070322F81300013562
:1024D000002325701846D15A02334018102B80B2C1
:1024E000F9D1C008FFF7CAFF034A107038BD00BF1A
:1024F0001C0700201E07002024170020074B084A55
:1025000019781088884207D3064B1A689078884259
:102510008CBF002001207047002070472417002046
:102520002617002030070020124B70B518602024B9
:1025300000250020FFF7CAF82D180A2002F0FFFD41
:10254000013CF6D1C5F34F10FFF798FF094902236C
:102550000A6851784D006619B04203D30133062B47
:102560000C44F8D1044892780370534303490B801C
:1025700070BD00BF30070020040000202617002097
:102580002DE9F04F0446008885B048B9B4F902300F
:1025900043B9B4F90420D2F1010138BF002102E0AF
:1025A000002100E0014611F0010377D13D4D00B25A
:1025B0002B7000F021FD0646B4F9020000F01CFD6E
:1025C0000546B4F9040000F017FD0446304609F052
:1025D0005FF90746304609F0CFF98046284609F0F2
:1025E00057F90646284609F0C7F90546204609F07E
:1025F0004FF98246204609F0BFF9394681465046D8
:10260000FEF7D8FA394683464846FEF7D3FA5146D4
:1026100001904046FEF7CEFA494602904046FEF74A
:10262000C9FA314603905046FEF7C4FA1E4C49469B
:10263000206006F10040FEF7BDFA29466060A56003
:102640000298FEF7B7FA01460198FEF7ABF9294662
:10265000E0600398FEF7AEFA01465846FEF7A0F98F
:102660003146206108F10040FEF7A4FA2946606176
:102670005846FEF79FFA01460398FEF791F929465E
:10268000A0610198FEF796FA01460298FEF78AF9D2
:102690003946E0613046FEF78DFA206205B0BDE8AC
:1026A000F08F00BF05000020340700202DE9F8431B
:1026B0004D4B0C460168013A196080889880072AC2
:1026C00030D8DFE802F004080F14191E22261888FB
:1026D00020805A8803E0598821801A8852426280FB
:1026E0009A881EE01988484220805A88F6E759885F
:1026F000484220801A88F2E719884842208058888A
:102700000CE05A882280188808E0198821805A88AD
:1027100003E05988484220801A88504260809B8894
:102720005A42A280314B1A78002A5AD1B4F90000DB
:10273000FEF7ECF98046B4F90200FEF7E7F9074628
:10274000B4F90400FEF7E2F9294D0646296840462F
:10275000FEF730FAE96881463846FEF72BFA014663
:102760004846FEF71FF9A96981463046FEF722FA6E
:1027700001464846FEF716F909F0BEF86968208060
:102780004046FEF717FA296981463846FEF712FAE5
:1027900001464846FEF706F9E96981463046FEF7EC
:1027A00009FA01464846FEF7FDF809F0A5F8A968C0
:1027B00060804046FEF7FEF9696980463846FEF7BC
:1027C000F9F901464046FEF7EDF8296A074630461A
:1027D000FEF7F0F901463846FEF7E4F809F08CF808
:1027E000A080BDE8F88300BF580700200500002046
:1027F0003407002070B5124D06462B78114C9BB162
:1028000002F08CFC2268B318984218D3002129707A
:1028100002F084FC20600C4802780AB1531E037059
:102820000A480121017070BD02F078FC2168323144
:10283000884204D30120287002F070FC206070BD33
:102840005F07002064070020620700206007002067
:1028500037B58DF805101F498DF807300B788DF8C6
:10286000040002A88DF80620C21812F8044C0D4688
:10287000443CE0B20A2828D81749022B31F810400E
:1028800003D814B12046FFF7B5FF2B78022B0BD9E4
:10289000124D2D6802F042FC021B954204D20D49F4
:1028A0000F4B0020087018700E4802780146012A6C
:1028B00000D074B9074B1878022801D8421C1A704E
:1028C00000230B7008490B7003E03224022BD9D986
:1028D000DBE73EBD6807002024EB0008640700200A
:1028E00062070020600700205F070020014B18608E
:1028F000704700BF9011002070B53D4B04465A7BD5
:102900003C4802B1012202704FF4007000F084F9DB
:10291000002828D0384E394B316858780D6800307F
:1029200018BF0120AA68904748B13368344D186831
:10293000012102692970904708B1022129702E4DAA
:102940002B681868C268904728B12C494B7813B996
:102950002B4A0220107029680B689869804710B1D3
:10296000274900220A70202005F00AF960B12048AA
:10297000244B827A0AB9C17A21B12048C27A0AB9B5
:10298000012100E0002119701D4B1878022802D1A6
:102990004C204E211DE0012807D14D2153204C220F
:1029A0000B46BDE87040FFF753BF164A1178012966
:1029B00003D1532001464E2206E00E4B1878012821
:1029C00004D15320014602464D23EAE724B15320A7
:1029D0004D210A464423E4E70B4A117821B1322005
:1029E000BDE87040FFF706BF084B1C7070BD00BF0C
:1029F000001D00206107002090110020EF1C002026
:102A00005E07002063070020620700205F070020A8
:102A1000014B1870704700BF620700200E4B1A78F8
:102A2000402A16D15888B0F5697F12D11979BE298C
:102A30000FD193F8A1230020EF2A0CD113F8011B2A
:102A4000064A48409342F9D1D0F1010038BF002036
:102A5000704700207047704700F80108A4FB010888
:102A600070B5134D134C284605F054F9B4F8D01046
:102A7000B4F8D22028461F3D05F066F92E4604F131
:102A8000F40001F0CDFB16F8C20B02F0C1FD304698
:102A900003F0FEFF681C04F0B9F805F1B80000F07F
:102AA0007FFC04F1F800BDE8704001F0B3BB00BF4B
:102AB000EF1A00202817002010B5FFF7AFFF10B95C
:102AC0000A2002F0ADFB0E4C0E4920464FF469720D
:102AD0000AF0D0FE94F8A033022B02D9002084F82B
:102AE000A00394F8A013D02202FB0143064803F58B
:102AF00098710AF0BFFEBDE81040FFF7B1BF00BFFC
:102B00002817002000F80108D01A002008B5FFF7A8
:102B1000D3FF0F2014210122BDE8084007F0F6BDC5
:102B200008B5054BD02202FB0030044900F598702F
:102B30000AF0A0FE08BD00BF28170020D01A002010
:102B4000224A38B5402313704FF469700023BE2128
:102B5000EF245080117182F8A14382F8A2331D4600
:102B60001A4A985C0133B3F5697F85EA0005F7D10D
:102B700082F8A25308F0D2FB04250024691E11F04C
:102B8000FF0516D0342008F0DDFB114808F030FCBA
:102B90000F4C04280BD10F4A2046A15808F0FEFB29
:102BA0000D4B04349C42F4D10428044601D0044661
:102BB000E4E708F0BFFB042C02D1FFF72FFF20B998
:102BC0000A20BDE8384002F02BBB38BD2817002092
:102BD00000F80108281FFE17A4FB0108C8231421D0
:102BE0001E22038001238170C270037164214FF49F
:102BF00096722823C18002814381704708B5054B36
:102C000093F8A003FFF78CFFFFF79AFFBDE8084099
:102C1000FFF77CBF28170020034B996808420CBFC0
:102C200000200120704700BF28170020024B9A683F
:102C300010439860704700BF281700202DE9F34724
:102C4000AF4AB04D10685168AF4C6B4603C34FF4A8
:102C50006972002128460AF0BBFED02200212046DE
:102C60000AF0B6FE40200321287002206971FFF7A8
:102C7000DDFFFA22A5F8F2202A236E22A5F8EE3015
:102C80004FF4FA7085F804212B2340F24C42A5F84A
:102C9000F60085F80531212002F54873202185F8DA
:102CA0000601A5F8163140F27E404FF47A730027F2
:102CB0004FF001094FF4167685F8F410A5F81421A9
:102CC00040F2DC5100F52F72A5F8D00003F5CB706F
:102CD000A5F81211A5F8F060A5F8D22085F8A07328
:102CE000A5F8FA70A5F8F870A5F8FC7085F8E27000
:102CF00085F8E37085F8E470A5F8E670A5F8E8704B
:102D0000A5F8EA7085F8ED7085F8EC9085F8077104
:102D100085F82C7185F82D7185F82E7185F8107164
:102D200085F8187185F8197185F81A91A5F8D430CD
:102D3000A5F8D6006C30A5F8D8004FF4C870A5F8F7
:102D4000DE004FF41650322340F2B452C5F824018D
:102D500040F6AC50A5F8DA20A5F8DC301A46A5F804
:102D6000E030A8814FF4E1331E20C5F82031E07235
:102D700052232073552085F82A31E07017230B2049
:102D80004FF028086375A37560712D2314204FF050
:102D9000080E22716373A0714FF00E0A85F81C7142
:102DA00085F81D7185F8287185F82971AF7385F84C
:102DB0001B71277084F8018084F80280E775A7737F
:102DC0002776E773677684F810E0607450204FF040
:102DD000640C4FF0780E84F807A0E0764FF00A0AF2
:102DE0005A20A376207284F81CC084F80AE0237568
:102DF000E077412304F12A0084F812A084F80980C6
:102E000084F81E9084F82030E18484F8212084F82E
:102E1000237084F8247084F8257084F8227002F0FE
:102E2000E3FB0421394B84F82E1039483949152227
:102E300084F83420A063E3632164374805F5847186
:102E4000278584F82F8084F8308084F8449004F03B
:102E5000B9FF4FF44872C8204FF4966340F2D9315D
:102E60003E4684F8707084F8717084F8728084F83B
:102E7000739084F87670A4F8742084F8B8A084F86D
:102E8000B900A4F8BA30A4F8BC104FF47F724FF424
:102E9000FA601DF80710A4F87820A0F5FA73FF2255
:102EA0000137A4F87A00A4F87C3084F87E1084F806
:102EB0007F200834082FE8D11348012480F8BE4051
:102EC00080F8BF4080F8C040C230FFF787FE002086
:102ED0000C4B0021C2181030C0281161F8D1002419
:102EE0000E48D02220180849D0340AF0C3FCB4F5AB
:102EF0001C7FF5D102B0BDE8F047FFF721BE00BF4F
:102F0000C8E9000828170020D01A0020F6287C3FC6
:102F10009A99193F3D0A773F3AEB0008581800206C
:102F200008B5FFF77BFD18B9BDE80840FFF786BE7E
:102F300008BD0000024B9A6822EA000098607047C2
:102F400028170020014B9868704700BF2817002001
:102F5000884203DB8242B4BF1146014608467047EF
:102F60000023036170472DE9F041066904460136EC
:102F7000012E0D46066105D100236160216083604A
:102F8000BDE8F081D0F8008008464146FDF708FD15
:102F900007463046FDF7BAFD01463846FDF7BEFE4E
:102FA00001464046FDF7FEFC064660603146284675
:102FB000FDF7F6FC01463846FDF7FCFDA168FDF77C
:102FC000F1FC2660E060A060BDE8F08110B5044629
:102FD0000069012807DD0138FDF798FD0146E0682A
:102FE000FDF79CFE10BD002010BD08B5FFF7EEFFF9
:102FF000BDE8084008F04EBD08B5FDF705FA04A38A
:10300000D3E90023FDF766FAFDF776FC08BD00BFA3
:10301000399D52A246DF913F2DE9F041069C0646BC
:103020000F46002B0CBF4FF020084FF03008204611
:1030300010F8013B0BB9154603E0002AFBDD013A0D
:10304000F6E7002D04DD30464146B847013DF8E77C
:1030500014F8011B11B13046B847F9E7BDE8F0811B
:103060002DE9F04389B006460F4603921C46039AA9
:10307000134613F8011B0393002900F08A802529C9
:1030800001D0304683E0002004905578911C302D0B
:10309000039105D19578033203924FF0010800E0C7
:1030A0008046A5F13003D8B2092806D8284603A9DE
:1030B0000A2204AB00F00CF905466C2D05D10399EA
:1030C000012211F8015B039100E00022642D2FD052
:1030D00010D8582D3AD006D8002D5AD0252DC6D15B
:1030E0003046294653E0632DC1D130462178251D55
:1030F000B8474AE0752D0DD0782D27D0732DB6D165
:10310000251D2468304600943946049A0023FFF7B1
:1031100083FF3AE0251D20680A2122B1002205AB79
:1031200000F060F802E005AB00F08CF82C4623E0DC
:1031300005AD04F104092068294612B100F077F8C2
:1031400001E000F0A4F84C46009517E004F10409F2
:103150002068102142B1B5F15804634253EB0402D8
:1031600005AB00F03FF806E0B5F158035A425A416A
:1031700005AB00F067F84C4605A80090304639468C
:10318000049A4346FFF748FF71E72C466FE7B847BC
:103190006DE709B0BDE8F083024B19600249086091
:1031A000704700BF6C070020700700200FB407B500
:1031B000094904AB0868094953F8042B09680193CD
:1031C000FFF74EFF064B186801F026FD0028F9D0E6
:1031D000BDE80E4004B07047700700206C07002067
:1031E0007C1D0020F0B50124B0FBF4F58D4201D325
:1031F0004C43F9E70026C4B1B0FBF4F504FB15001D
:10320000B4FBF1F41EB9002D01DC002CF4D1092D22
:10321000EFB204DD002A0CBF5725372500E030252A
:10322000ED1903F8015B0136E5E71C70F0BD0028DD
:103230000B4603DA2D22404203F8012B0A2100221B
:10324000FFF7D0BFF0B50124B0FBF4F58D4201D3F8
:103250004C43F9E70026C4B1B0FBF4F504FB1500BC
:10326000B4FBF1F41EB9002D01DC002CF4D1092DC2
:10327000EFB204DD002A0CBF5725372500E03025CA
:10328000ED1903F8015B0136E5E71C70F0BD00287D
:103290000B4603DA2D22404203F8012B0A210022BB
:1032A000FFF7D0BFA0F13003DAB2092A01D81846DF
:1032B0007047A0F16101052901D857387047A0F186
:1032C0004103052B01D8373870474FF0FF30704766
:1032D0002DE9F8430D6804460F46904699460026AE
:1032E0002046FFF7DFFF002806DB404504DC08FB33
:1032F000060615F8014BF3E73D602046C9F800606B
:10330000BDE8F883014B00229A80704774070020C3
:10331000034BB3F90400D0F1010038BF002070471F
:10332000740700200649074B0A68B3F904001378B4
:1033300005214B439842D4BF00200120704700BFB5
:103340007C0700207407002010B50446FFF7EAFF51
:10335000002814BF2046002000F0010010BD00002E
:10336000074B084A1968B2F904004B780A78D1185B
:10337000052251438842D4BF00200120704700BF7E
:103380007C07002074070020044B9A8811B214298E
:1033900001DD143A00E000229A8070477407002093
:1033A000024B002218600248828070477C07002090
:1033B00074070020034B0449186004480022016090
:1033C000C28070478007002044EB0008740700208B
:1033D00008B502F001F9024B00221A7008BD00BFC7
:1033E000EF1C002010B5FFF79DFFE0B1104B5C789B
:1033F000201C18BF0120FFF7A7FF70B10D480E4B2E
:1034000001680E484A8901681A805A809A804A8861
:10341000DA800B4BD888411CD980FFF7A1FF00B997
:103420000CB9FFF7D5FF064B9A88501C988010BD49
:10343000EF1C002080070020381D00207C070020A2
:103440007407002010B5814C86B0A07B003018BFF7
:10345000012001F07FFEFFF70BF8FFF761FDFFF79A
:103460002BFB94F8073133B1012B01D0092B02D18A
:103470008DF8003004E000218DF8001084F8071169
:103480006846FEF7ADF87248FFF77AF8022004F0BC
:1034900081FB02F08DFD6D4A54790E2C01D0082C71
:1034A00001D1012000E000208DF80A004FF4807067
:1034B000FFF7B2FB18B90820FFF7AEFB00E00120D0
:1034C00000F0010340208DF80630FFF7A5FB8DF8D2
:1034D00007000120FFF7A0FB8DF805000820FFF78B
:1034E0009BFB80F001018DF8041003F0B1F9594AFB
:1034F0008DF8080092F8C0404FF47A72C4F380004F
:10350000524C8DF80900B4F8DE30B4F8E0104FF4F6
:103510008040ADF80C30ADF80E10ADF81020FFF77C
:103520007BFB18B1B4F8DA00ADF81000BDF80C3030
:10353000B3F5FA7F02D90021ADF810104548B4F870
:10354000122194F80741B0F8BC30012CADF81220DC
:10355000ADF8143004D0092C01D1072400E0002478
:103560003D488DF80B40FFF725FF3C4C2060FFF7EE
:10357000BDF901A82168FEF7D5FA3748216804F0A3
:103580004FFB4FF48070FFF747FB68B10820FFF74F
:1035900043FB48B92D49324A91F81D01A2F1C103FC
:1035A00091F81C1103F082FB0A24192001F0C7FDD9
:1035B000192001F0C4FD621E12F0FF04F5D1234C66
:1035C000244B04F1E200B4F8EE1094F8ED20B3F9C6
:1035D000283000F0BDFE02F0A7F80220FFF71CFB28
:1035E00018B104F58270FEF79FFF1E4805F0C2F97E
:1035F0004020FFF711FB50B1144CD4F8240194F88B
:103600002811FEF76FFC94F82901FEF783FC4FF4B4
:103610000060FFF701FB10B1134804F08FFE01F0CA
:1036200063FD1249086009484279052A03D14FF425
:10363000C87000F0E7FC4FF47A7000F0F7FD0C4B17
:1036400001245C7300F0E2F9FCE700BF28170020BA
:103650000E180020D01A00203018002090110020F1
:10366000921B0020481800207C1D0020900700209D
:10367000EF1C002008B5034BB3F9D40002F0B4FDF1
:10368000FEE700BF281700200B4B0C481A8852B9E0
:10369000817841B142786AB9012141700848094BEB
:1036A00002881A807047437823B90220FF21012243
:1036B00007F02CB8704700BF24080020EF1C002042
:1036C000EA1B0020AE1B00202DE9F04FA94BAA4AAF
:1036D000B3F90600D18C85B088420FDBB0F5FA6FE4
:1036E00092F8254007DA451A6C43A1F5FA6694FB77
:1036F000F6F4643403E0C4F1640400E064249F4AF7
:103700009D4BB2F8127192F9EC2093F823100097B8
:10371000574293F87050019193F87160B9B293F8E1
:1037200024300291002103930A46924FDDF8008075
:1037300031F907C040F2E637C8EB0C0303F2F31E81
:10374000BE4503D8002BB8BF5B4201E04FF4FA73CB
:10375000022ADFF834822CD025B1AB42CCBFC5EBB6
:10376000030300236427DFF84CA293FBF7FE6FF0FE
:10377000630B3AF81E900BFB0E3B0EF1010E3AF96B
:103780001EA00FFA89FECEEB0A0E0EFB0BFE9EFB6F
:10379000F7FEF14428F80190DDF8048003FB08FEF1
:1037A000774B9EFBF3F3DB199BB2634393FBF7F775
:1037B00012E026B1B342CCBFC6EB03030023029F45
:1037C0005F43A8F80470039F002BB8BF5B427B43A4
:1037D0006B4F93FBF7F76437674B02EB030E9EF8D2
:1037E0000190642307FB09F898FBF3F9DFF8C8811F
:1037F00002F808909EF80B909EF815E007FB09F878
:1038000007FB0EF798FBF3F9DFF8B08197FBF3F3B2
:1038100002F80890DDF800805A4FC445D35503DA0A
:10382000594BCF5A7F42CF5201320231032A7FF4E3
:103830007CAF524C4FF4FA62B4F81411FFF788FBD6
:10384000B4F814614FF47A75801B4543C6F5FA63EA
:10385000B5FBF3F564214D4895FBF1F36FF063067A
:1038600030F8132006FB0355013330F9130013B26F
:10387000C01A4543464B444C95FBF1F1587A8A18DF
:10388000E280002838D0434F434D3E882988721A81
:1038900010B2FFF7B1FB074607F0FAFF06463846BD
:1038A00008F06AF80546B4F90200FDF72FF907465B
:1038B000B4F90000FDF72AF931468046FDF77AF9A0
:1038C000294681463846FDF775F901464846FDF719
:1038D00067F8FDF735FB314620803846FDF76AF979
:1038E000294606464046FDF765F901463046FDF794
:1038F00059F8FDF725FB60800220FFF78DF990B1A4
:10390000264806220378591CCBB20370B3FBF2F0B1
:1039100002FB103111F0FF0F05D1FEF7CDFDFEF7D0
:10392000EDFD1F4B18701E4A1078003018BF0120A3
:10393000FEF7E2FF1B490B882BB91B4A108838B9E8
:1039400004F0D8FC04E0022004F01AF90028F4D0B6
:103950001649174A09681368C81A002832DB0C4B4D
:10396000587B68BB987001F5F42303F590701060E4
:1039700028E000BF381D0020D01A002028170020A2
:103980000CFEFFFFE31B0020161D0020201D002061
:10399000EF1C0020EA1B0020AE1B00209407002033
:1039A00088070020BC070020240800208C07002086
:1039B000A00700205C1D0020E61B0020E01B00206B
:1039C0000121997004F0E2FF0C4A117831B94FF4EB
:1039D0000060FFF721F908B104F0D4FC202004F0C6
:1039E000CFF818B1064B186804F0B6F8054882689D
:1039F0000AB10548904705B0BDE8F08FF8100020E7
:103A00008C070020C81B0020A21B002038B508200E
:103A1000FFF702F990B1A24B93F8100103280CD8DC
:103A2000DFE800F00202050804F012FC06E004F0F2
:103A30005BFA03E004F016FB00E0002099499A4A83
:103A40000B681168591A002902DA002800F01A825E
:103A500003F59C44954820349549146004F002F91C
:103A60004FF48040FFF7D8F820B1924D2B780BB976
:103A700001F0B2FD8A4A92F81B11B1B18E4CC81CFC
:103A800034F910504FF47A720021A5F57A70FFF7DF
:103A90005FFAFDF73BF88949FDF740F98849FDF7E2
:103AA00089F8FDF773FA874B18804FF40070FFF721
:103AB000B3F820B1844A116808684469A047784D7A
:103AC0000022B5F81401B5F8164113467A499B084F
:103AD000555E8542C4BF63F07F03DBB2A542B8BF29
:103AE00043F040030232082AF0D17848784A04783B
:103AF00005469C4204D11078F92803D8411C00E007
:103B0000002111704FF480402B70FFF785F868B1E9
:103B1000634D694BB5F81211B5F8DC20B3F90640D6
:103B2000881A844202DD8B189C420CDB4FF48040E3
:103B3000FFF772F8D8B9604C5949B4F90650B1F89A
:103B40001421954213DA01F053FD01F059FD61484B
:103B5000B0F846305BB1574C5F492578002D00F036
:103B60001D820A78002A00F01982FFF78DFD584B5C
:103B70001C78142C40F0D680574D6C78ECB1554A27
:103B8000B2F846402CB9514B1D785F2D01D101F0A0
:103B900023FD434991F81801002800F0C3804D4AE5
:103BA000B2F84640002C40F0BD80484B1D787D2D7A
:103BB00040F0B88001F010FDB4E0444D2978572959
:103BC00018D1464B4FF47A744FF480701C80FFF785
:103BD00023F808B102F0C8FF042003F0D1FF10B1B0
:103BE0003F490A250D80082003F0CAFFE0B93D4A8D
:103BF000108019E00420FFF70FF8A8B12A785A2A9C
:103C000012D13948037823B1047038480122027078
:103C10000AE0374C257885F00101217009B10220B6
:103C200000E00320FEF7F4FE284804785D2C00F045
:103C3000BC815B2C00F0BB815E2C00F0BA81254872
:103C4000B0F8464034B9214B1D786F2D02D1FFF7F3
:103C50001BFD15E012491D4891F818211AB114B93D
:103C600004787E2CF3D00378972B04D14FF4C870DE
:103C700000F0C8F904E0A72B02D1174901258D7384
:103C8000124A1078BB2803D11248838D9C1C04E093
:103C9000B7282FD10F48828D941E848536E000BF4F
:103CA000281700208C0700209807002030180020DB
:103CB0001E1D0020001D0020381D002000007A4439
:103CC00000C07F44AC1B0020901100209D07002005
:103CD000B0070020D01A0020EF1C0020240800208C
:103CE000DA070020EA1B0020AC070020A407002010
:103CF0009C070020BE2803D1714C618D8D1C04E00F
:103D0000BD280FD16E4C638D9D1E65856D4D95F858
:103D1000A003FEF705FFFEF713FFFEF7F7FE6A4864
:103D2000002101700420FEF777FF00282CD0674C9B
:103D3000217889B16648427872B1664B6149B3F91E
:103D40000650B1F81401854206DD634A13781BB9A9
:103D5000624932250D8023705F4C607C50B1604811
:103D600003782BB95F4A157815B95C4C3221218054
:103D7000012408E05B4B1A7832B1554D697819B9C6
:103D800059481970012404700023584C1A4634F81D
:103D9000020F40F2135501B2A942CCBF0025012504
:103DA00005FA03F5A0F21550B0F5C77F8CBF0020CF
:103DB00001202A435D1C00FA05F0024340F2A46092
:103DC0008142D4BF00210121981C01FA00F1033384
:103DD0000A430C2B92B2DAD1002339493E4C01EB55
:103DE0004300B0F846100A420CBF002001201855CD
:103DF0000133152BF1D1627822B1022003F0C0FE0D
:103E000068B914E04FF40070FEF706FF78B1384C43
:103E100021680868C36898470028EED107E02C4C59
:103E2000E17839B901F0E4FB0120E07002E0284CB0
:103E30000022E270284B264C987830B1217900227C
:103E4000E27019B901F0D4FB01202071224B1A78DD
:103E500012B91F4801210170202003F091FE08B122
:103E600003F01CFE1C4B1A491A7B02B101221548B3
:103E70008A724379082B01D00E2B44D1144A0021B9
:103E8000517240E01B480368042B3CD8DFE803F084
:103E90000305080B34000122026001684B1C03601B
:103EA0000268511C0160134803685A1C02604FF4F9
:103EB0008070FEF7B1FEF8B102F0EEFF23E000BF24
:103EC000D01A002028170020B00700209C070020EF
:103ED000EF1C0020381D0020001D0020AE07002030
:103EE0009E070020AC070020A40700203E1D0020F4
:103EF00090110020840700203648002101604FF413
:103F00000050FEF789FE01F0EFF83349334B8A8900
:103F10001860334B1AB11968411A002959DB84180B
:103F20001C6001F011FEFFF7CFFB01F0DDF82D4B17
:103F30002A4A19681060441A18602B482B4A90F8D6
:103F40007630148053B12A49CC780CB90A792AB159
:103F50002848294BC48819880A19C280202003F0F8
:103F60000FFE40B12248C3790BB9017A19B1047B25
:103F70000CB103F009FD2148214A174B00F11E0145
:103F80001468B3F8F62000F12903A04702F03EF9C7
:103F900002F0BAF8BDE8384002F012B948780028BB
:103FA0003FF4E5AD01F018FBE1E5012302E0022357
:103FB00000E00323DDB2084A691E82F8A013FEF771
:103FC000BFFDFEF779FD022028212A4606F09EFB60
:103FD00035E638BD84070020281700208C07002014
:103FE000A807002090070020D01A0020A607002074
:103FF000EF1C0020161D00200C0C0020D11A002000
:1040000008000020014B1880704700BFBC0700204B
:10401000F8B51E4B0022196813461D4C2588B5F5CE
:10402000C87F1C4D01D10026EE501B4EEF5832F9CF
:1040300006C0184C6744EF500025043395538D5249
:1040400002320C2BE9D1124B1A88012A18D12368AD
:1040500003F1C8024FF4C87392FBF3F20A8062685E
:10406000C83292FBF3F24A80A268C83292FBF3F3A3
:104070000A4A12889B1A8B8001F0B6FAFEF7BEFD41
:10408000034801884A1E0280F8BD00BFBC1B002007
:10409000BC070020CC070020041C002006000020E4
:1040A000F8B5354B0446188832280ED13349344DC3
:1040B0000A683448168857889388218862882E8039
:1040C0006F80AB800180428001E0002834D02B4D0E
:1040D00000222E681346284F2B493888322801D1F8
:1040E0000025CD502948CD58175EED19CD5000213F
:1040F00004331152B15202320C2B0D46EBD11E4843
:104100000188012914D1224B224A022011701D700E
:10411000FEF77EFC1A4A1948118803685088928875
:10412000198058809A80174B1988588821806080A0
:10413000114B1A88511E198017480378DBB10F49BB
:1041400000220B68104902700868322290FBF2F0DE
:104150001880486890FBF2F0588089680F4891FBFE
:10416000F2F201882046521A9A8001F03DFABDE829
:10417000F840FEF743BDF8BDAE070020BC1B002091
:10418000B2070020B8070020C0070020041C002050
:104190009E070020AC070020A40700200600002096
:1041A000064B02881988891A198042885988891A09
:1041B0005980808899880A1A9A807047041C0020C8
:1041C0000F4B10B5596804460E4888470D480E4AF3
:1041D00001461278FEF76AFA0C48038813B12046AC
:1041E000FFF716FF0420FEF717FD10B12046FFF77A
:1041F00057FF07490868BDE81040FFF7D1BF00BF6F
:10420000B01B0020041C0020B1070020BC070020C8
:10421000BC1B0020014B1860704700BFBC1B002076
:10422000014B1860704700BF20080020014B188028
:10423000704700BF240800202DE9F8433C4B3D485F
:10424000596888473B483C4A01461278FEF72EFAE7
:104250003A480388002B42D0394C256800242F7837
:104260002646254635490A88B2F57A7F08D1354B6E
:10427000354A00201421E85001FB0620FEF770FEAD
:10428000DFF8B0802F4B38F90400E9584FF01409DB
:104290000A18EA502C4B09FB0639FCF737FC01469B
:1042A0004846FEF760FE002024F80800DFF88C8006
:1042B0002649B8F800206052012A2FD14846FEF75F
:1042C00094FE8146DFB13846FCF720FC01464846A3
:1042D000FCF72CFE98B14FF47A73A8F80030154B18
:1042E0001A4A18881188401A18805188588892886C
:1042F000401A99885880881A9880BDE8F883114B35
:104300004FF47A72E858114B00F5FA7191FBF2F014
:10431000E0520F210A20012206F0F8F90136043597
:104320000234032E9ED105490A88501E0880D6E724
:10433000C81B0020EC1B00203408002024080020AB
:104340002008002028080020E4070020300C00206E
:104350002DE9F7430E46074614464E484E4932466D
:104360009846FDF737F8814618B14C4A012515707B
:1043700022E049483146FDF701F9054618B14749A1
:10438000012008700CE044483146FCF741FF8146AB
:1043900018B1424B01221A700EE0032000F040FFDA
:1043A0004D4609E0022003F0FDFB3D490A78002A52
:1043B00039D1002C34D01446052CF6D801A353F87B
:1043C00024F000BFDD430008DD4300080544000879
:1043D000AB430008AB430008A54300084FF4487006
:1043E0000023ADF806002B4901A88DF80430FCF736
:1043F0007BFE28B12A4A2B4B012104201170187032
:10440000012CD2D0002DD0D0234932462148FCF7D0
:10441000E1FF234A234B0221012011701870C4E7E9
:10442000022003F0BFFB3C780CB11C4804707B7881
:104430000BB11C490B70BC780CB11B4A14700220E4
:1044400003F09EFB10B113480368984712490C68AB
:10445000A047082003F094FB144CB8B1642698FBE5
:10446000F6F52846FCF752FB074606FB158000B21E
:10447000FCF74CFB0E49FCF79DFB01463846FCF768
:1044800091FA0C49FCF796FB206001E000222260C3
:10449000BDE8FE83B01B0020C81B002034080020AC
:1044A000D8070020B1070020E00700205C0C0020A6
:1044B0008988883C000020412DE9F84F9C4C2068F9
:1044C000838A9BB213F0010239D0018821F4006382
:1044D0001A04110C0180012107F0F0F8954A964B5F
:1044E000117800201870D9B1944803781BB9944A08
:1044F0001178FF2914D10123037092480278022A0F
:1045000006D18B490B68188882B242F40061198089
:104510008D4B874819780068012207F0E9F82FE1F0
:104520008948834B01780022186807F0E1F8844A33
:104530001178FF2900F02481FF207F4BDEE003F09B
:104540000201C9B200293DD0BFF35F8F7D4D2E78A7
:10455000012E354616D177490B789BB177490B78F8
:1045600083B1114607F0AAF8BFF35F8F2068314688
:10457000038B07F097F8754A206816704FF4806136
:104580003246FBE0038BBFF35F8F6E490A78022A45
:1045900009D1684B1A7832B1684B1A781AB10021E8
:1045A00007F08CF8E5E00978032907D1614B1A7808
:1045B00022B162490B78002B40F0DD804FF480611E
:1045C0000122DBE003F00406F6B2002E71D0594B55
:1045D000DFF878811A78012688F80060574B002AA6
:1045E0004DD01A78002A4AD0564D2F78524D022FBE
:1045F000574F29D907F062F8206895F80090D7F84E
:1046000000A007F072F84FFA89FB0AF80B0009EBDB
:10461000060031462870206807F044F8206888F8C2
:1046200000603F6895F8008007F05FF84FFA88F95E
:1046300007F80900B04420684FF48061324685F8DD
:10464000008007F047F82BE0314607F02BF8206890
:104650002E78D7F8008007F048F84FFA86F9731CD7
:1046600008F80900D9B220684FFA81F83F6829702C
:1046700007F03BF8033607F808002E7010E01B78AF
:10468000012113B9334A13782BB107F00BF82A48EC
:104690000278511C03E006F0F9FF2848012101705F
:1046A000234A11680B8803F4807082B2002AF9D182
:1046B00066E003F040010F461F4D09B3244B2F78ED
:1046C000D3F8008007F011F84FFA87F908F80900CD
:1046D000781CC1B229701B4D4FB22A780337BA42F9
:1046E00005D120684FF48061324606F0F3FF124B8B
:1046F00028781A7851B2884242D1501C18703FE095
:104700001B063DD52B785EB2721C27D012490133AF
:104710000A682B70915D06F0E6FF0A4895F90020C3
:10472000017891422CD120684FF480613A4625E00F
:104730004C0800204A0800204808002049080020B2
:10474000390800203A0800205108002038080020CD
:104750003C0800204008002044080020154A297029
:10476000117806F0C0FF1448017811B9134B1A787C
:1047700032B9134800684FF48061002206F0AAFFA6
:104780000E4A104B117893F900004A1C90420ED14A
:104790000D4B0E49187800220A7028B108490868A4
:1047A0004FF4407106F096FF094B00221A70BDE8E5
:1047B000F88F00BF390800204A0800203A0800207E
:1047C0004C08002048080020380800204908002034
:1047D00050080020FFF770BEFFF76EBEF0B5484CE2
:1047E00089B04FF440651C2307460226204602A9E3
:1047F000ADF808508DF80A308DF80B6000F0B2F972
:104800004048142107608DF80E10204603A9ADF82A
:104810000C508DF80F6000F0A5F925610825384C83
:10482000A268520503D40A2000F07EFCF7E74FF49B
:1048300080660A20666100F077FC6F1E0A20266100
:1048400000F072FC17F0FF05E9D14FF400676761D3
:104850000A2000F069FC66610A2000F065FC266110
:104860000A2000F061FC022027611C218DF80F0056
:104870002046244C4FF440638DF80E1003A9ADF888
:104880000C3000F06FF9206806F062FE04A806F014
:10489000E3FE20682A464FF4407106F01BFF1A48D9
:1048A0004FF480434BF6FF72049001212068ADF86D
:1048B0001C30ADF81620ADF8145006F0DBFE04A94C
:1048C000206806F05FFE4FF4A06006F05DF922213B
:1048D000012201A88DF804108DF805508DF80650BE
:1048E0008DF8072006F05AF9212301A82E468DF8ED
:1048F00004308DF8055006F051F909B0F0BD00BF45
:10490000000C01404C080020801A060010B5400041
:10491000244CC0B220702448244C01700021217026
:10492000234C01202070234C2360234C2360234B15
:104930001A70234A1070234801702349086883883D
:1049400003F4007291B2A1B9038803F4807291B2AA
:1049500041B9038803F4007291B20029F9D1012111
:1049600006F094FE18484FF440710068012206F0EA
:10497000B1FE47F23053124A117811B1013BFAD11E
:1049800000E053B911490A88501C83B20B800E49CC
:104990000868FFF723FF002010BD0A4B187880F04D
:1049A000010010BD510800203908002040080020F7
:1049B0004A0800203C080020440800203A08002053
:1049C00050080020410800204C0800203608002034
:1049D00010B54000244CC0B220702448244C017013
:1049E00024490120087000212170234C2360234CAE
:1049F0002360234B1A70234A107023480170234907
:104A00000868838803F4007291B2A1B9038803F4A3
:104A1000807291B241B9038803F4007291B2002907
:104A2000F9D1012106F032FE18484FF440710068B8
:104A3000012206F04FFE47F23053124A117811B1AD
:104A4000013BFAD100E053B911490A88501C83B2E6
:104A50000B800E490868FFF7C1FE002010BD0A4B0D
:104A6000187880F0010010BD51080020390800209E
:104A70004A08002040080020440800203C0800208C
:104A80003A08002050080020410800204C0800206F
:104A90003608002007B502AB03F8012D0122FFF70D
:104AA00097FF0EBD274B37B51868818A8AB20192ED
:104AB000019B13F4706F02D0234A01211170019BF6
:104AC00013F4E06F31D04FF480610022038B06F0C5
:104AD00001FE0198810528D41A4D2868018801F447
:104AE000007293B20BBB048804F480718CB29CB149
:104AF000028802F4807399B20029F9D1012106F0ED
:104B0000D1FD10480068028802F4007399B20029B0
:104B1000F9D1FFF763FE08E0012106F0C3FD286824
:104B20004FF44071224606F0D5FD06480268938A8C
:104B300023F470610804030C0449938200220A7074
:104B40003EBD00BF4C080020410800205008002056
:104B5000FFF7A8BFFFF7A6BF014B188880B27047C8
:104B6000360800202DE9F0410F88002347FA03F2B0
:104B7000D2072DD58A7803F00705DC08AD0012F0C6
:104B8000100F18BF91F803C002F00F0618BF46EAD5
:104B90000C064FF00F0C0CFA05FC06FA05F550F860
:104BA0002480282A28EA0C0C45EA0C0540F82450F9
:104BB00006D1012202FA03F2C46824EA020206E0E6
:104BC000482A05D1012202FA03F2C4682243C260D6
:104BD0000133102BCAD1BDE8F08108B503681A680B
:104BE000904708BD38B505460C4614F8011B19B1AD
:104BF0002846FFF7F2FFF8E738BD08B503685968A3
:104C0000884708BD08B503689968884708BD08B596
:104C10000368DA68904708BD08B5036819698847D2
:104C200008BD08B503685A69904708BD7047036B13
:104C300013B15A68006C01E0026AC069101A18BF0B
:104C400001207047436B13B190F844007047826AAB
:104C5000406A111A4B4253EB01007047836A816925
:104C6000426BC918D160416A994203D9CB1A53608B
:104C7000816204E00169CB1A536000228262002144
:104C800080F84410406B012106F0DFBD30B50446CA
:104C9000007985B000230D460091C107ADF80430BE
:104CA000ADF80630ADF80830ADF80C30ADF80A308C
:104CB00002D50422ADF80A20820705D5BDF80A10F6
:104CC00041F00803ADF80A30A06C694606F09EFA80
:104CD000A56005B030BD026B034610B5406942B116
:104CE0001A6CD9688C1A013A18BF1146005D196414
:104CF00010BD196ADA68405C0131B1FBF2F402FBC5
:104D00001411196210BD10B5426A8469A154416A38
:104D100002690131B1FBF2F402FB1411426B4162F2
:104D200032B11368DB070BD4BDE81040FFF796BF24
:104D3000806C40F227710122BDE8104006F0CABA2B
:104D400010BD0000214B13B5986021480C465861F6
:104D50002048214A2149186314381A6099614FF498
:104D60008072586301214FF48040DA601A6106F0C6
:104D7000B7FB4FF4007102231822ADF80010A10711
:104D80008DF803308DF8022003D515486946FFF7EA
:104D9000E9FE48234FF48060E207ADF800008DF88B
:104DA000023003D50E486946FFF7DCFE01220E21D2
:104DB00001A88DF804108DF805208DF806208DF8D7
:104DC000072005F0EBFE01481CBD00BF140B0020BE
:104DD000120A00205800024060EB000892080020F0
:104DE000000801401F4B13B51F4A98600C468020F5
:104DF0004021D86019611D481D491A601D4A9861FB
:104E000099644FF4003001215A6106F075FB0223CA
:104E1000042218208DF80330A307ADF800208DF888
:104E2000020003D514486946FFF79CFE0821482379
:104E3000E007ADF800108DF8023003D50E48694642
:104E4000FFF790FE012026228DF8050002218DF843
:104E5000070001A88DF804208DF8061005F09EFECD
:104E600000481CBD600B002060EB000852080020C9
:104E70000044004092090020000801402DE9F04163
:104E80001E46584B90B0984205468846174604D1B6
:104E900010463146FFF756FF07E05348002485428D
:104EA00004D110463146FFF79DFF0446002106F06D
:104EB00004022671A7600197A5642162E161A162E5
:104EC0006162C4F82C80ADF8081002F0FF0732B11F
:104ED0004FF40053ADF80A304FF4806701E0ADF8AD
:104EE0000A700020ADF80C7016F00107ADF8100044
:104EF00002D1ADF80E7002E00421ADF80E1006F0FC
:104F0000020606F0FF082EB1BDF80E2042F008039D
:104F1000ADF80E30284601A906F078F9012128469F
:104F200006F0CCF905A806F083FC0023281D4FF4F9
:104F30008051802205900E910F9309930B930A9252
:104F40000C9317B3206BD0B16269E16807932023FB
:104F50000D930692089106F0D3FB206B05A906F08D
:104F600047FC206B012106F070FC284640210122FD
:104F700006F0CAF9206B06F07DFC206405E02846A7
:104F800040F22551012206F0A5F9B8F1000F24D016
:104F9000606BE0B1266910210896002607910D96F6
:104FA00006F0AEFB606B05A906F022FC0122606BE7
:104FB000022106F055FC606B314606F059FC606B2F
:104FC000802146600122284606F09EF905E0284629
:104FD00040F22771012206F07DF9204610B0BDE8AD
:104FE000F08100BF003801400044004010B50B4C78
:104FF0004FF4005006F042FC0021606B06F025FCE7
:10500000626AA36A9A4204D02046BDE81040FFF7C6
:1050100025BE012084F8440010BD00BF140B002001
:105020000D4B986C028802F080018AB29AB19A6A9C
:10503000596A8A420AD09969895C0132818019696A
:10504000B2FBF1F001FB10229A62704740F2277127
:10505000002206F03FB97047140B00201C4B10B51E
:105060009A6C1488A4B204F0200188B290B1D96A75
:1050700019B1938898B288470CE09288D969586929
:10508000D2B24254D869DA68411CB1FBF2F002FB9B
:105090001011D96104F08004A4B2C4B10C4B9A6A17
:1050A000586A82420BD09869996C805C0132888082
:1050B0001969B2FBF1F001FB10229A6210BD986CE5
:1050C00040F227710022BDE8104006F003B910BD80
:1050D000600B002070470000024B1A68501C1860DB
:1050E000704700BFAC0B002010B5094A094913688E
:1050F0008C6810688342F8D1074A106811684FF431
:105100007A725043001BB0FBF1F102FB031010BD9B
:10511000AC0B002010E000E0B00B0020014B186841
:10512000704700BFAC0B002038B50446FFF7DCFF2A
:105130000546FFF7D9FF401BA042FAD338BD10B592
:1051400004462CB14FF47A70FFF7EEFF013CF8E70C
:1051500010BD000010B586B005F052FB01212548B6
:1051600006F0CAF9012144F61D2006F0B9F9012024
:10517000014606F0A9F9002406F0E2F94FF6FF73A4
:1051800069461D48ADF800308DF80240FFF7EAFC93
:1051900069461A48FFF7E6FC69461948FFF7E2FC42
:1051A0001848426842F000714160FFF793FF01A880
:1051B00006F03CF9019B1448144AB3FBF0F1144883
:1051C000116001684FF47A73B1FBF3F2114B501E7A
:1051D000114A5860F021072082F823109C60186063
:1051E0000E48FFF7FBFAFCF7A3FA6420FFF7A7FFCE
:1051F00006B010BD0700400000080140000C01404F
:10520000001001400000014040420F00B00B0020A0
:105210004C01002010E000E000ED00E000580040EC
:1052200010B540F2DB146043841E2046FFF787FF71
:105230001920FFF784FFF8E710B1034A034B1A6007
:1052400003480449C8607047EFBEADDEF04F002050
:105250000400FA0500ED00E02DE9F04F89B0079356
:10526000754B07460692B3F90000B3F902200028F7
:10527000B8BF4042002AB8BF524200248242B8BFA1
:10528000024605922546A146A0460494A24626461B
:105290006A49CB7813B90A79002A38D0022E36D061
:1052A000674B6548EA5EDDF818B0295E02EB410005
:1052B000CBF100015A46FDF74BFE6249DDF81CC0F8
:1052C0006B5E3CF90520C01A8318F879FA7E5843C2
:1052D00064214FF0050E90FBF1F06FF00401514393
:1052E0000EFB02F20393FDF733FEDFF878B1039B68
:1052F000824654F80B00544942F210721818FDF718
:1053000027FE7A7C44F80B005043011304914B486C
:10531000C3781BB102790AB9022E2FD14649502019
:1053200035F90180DFF828B100FB08F2BB5DDFF83A
:10533000389135F90B0092FBF3F154F809300A1A51
:10534000D01842494FF47A52FDF702FE35F90B109E
:1053500049F804000029B8BF4942B1F5207F02DDB9
:10536000002049F8040059F80420B9197D23887AEF
:1053700092FBF3FC00FB0CFE4FEAAE192F4B1A799F
:10538000B2B1022E14D0DDF814B0DDF810C00BFB62
:1053900008F0CBF5FA7303FB0A020BFB09F003FBE1
:1053A0000C034FF4FA7192FBF1F293FBF1F308E076
:1053B000D97809B1022E02D14B46424601E0049B46
:1053C00052462349DFF8A4B0695A16F80BC008B258
:1053D0000CFB00FB6FF04F0C9BFBFCFC94441D4A44
:1053E000CDF800C035F902C0A952CCEB00001A4A32
:1053F000DFF87CC0019054F80C10A05840180199B7
:1054000002904018A15844F80C100199A150134A79
:105410000434B15C202201FB00F090FBF2F1581A39
:10542000009B0F49C21801366A520235032E7FF4E1
:105430002FAF09B0BDE8F08F161D0020EF1C002033
:105440000A0E0020440C0020F0D8FFFF80C1FFFFAF
:105450001C0C0020B40B0020F40B0020E31B0020E8
:10546000DA1B0020E00B0020C80B0020E61B002008
:10547000BC0B00202DE9F04F002485B003930546B6
:105480008946924606462346474AD17809B910799B
:10549000B8B1022C17D0454B454F33F9140037F9FA
:1054A0001420CAF1000102EB40005246FDF750FD06
:1054B0004049039F31F9143037F91420C01A83187A
:1054C0000AE0022C08D1394A99F80570B2F90410A3
:1054D0001B374F43791114E03348C17871B9334F0A
:1054E00099F8042037F914101B324A43007911113E
:1054F00038B16A7C5A4301EB222102E0EF795F4325
:1055000039112D4FDFF8C4C037F91400BCF8002062
:105510000F1A295D7A437943DFF8B480D0124FEA3D
:10552000E11B58F82420B17A01FB0020234948F8F8
:1055300024004FF400120293CDF804C0FDF708FDDB
:105540001F4BDDF804C053F8241043F82470791A77
:10555000BCF800704FF6FF723B09B2FBF3F74F4304
:10556000184BDFF870C048F824005CF8241053F89A
:105570002480BF1108EB010243F82470337DD11958
:1055800059430BEB6030104A00EB21214CF824808A
:1055900022F8141001340136032C029B7FF474AFFF
:1055A00005B0BDE8F08F00BFEF1C0020161D0020E5
:1055B0000A0E0020440C00201C0C00200000E0FF1C
:1055C000000C0020E80B0020DA1B0020A6070020BA
:1055D000C80B0020D40B0020024B5A780AB10020DF
:1055E00058707047EF1C00200023038043807047F1
:1055F000024B00221A605A60704700BFE00B002087
:10560000024B00221A605A609A607047C80B002053
:105610000128034B14BF034A034A1A60704700BFB6
:1056200008000020595200087554000800000000CE
:105630002DE9F84F384E04463768384606F028F909
:105640000546384606F098F976688046304606F0FA
:105650001FF98346304606F08FF9D4F804900646C9
:1056600029464846FBF7A6FAA768824641463846CF
:10567000FBF7A0FA01465046FBF792F921688246F3
:105680005846FBF797FA414604464846FBF792FA1C
:105690003146FBF78FFA01462046FBF783F9314686
:1056A00004463846FBF786FA2946FBF783FA01469B
:1056B0002046FBF777F90146504606F0E9F917490D
:1056C000FBF778FAFAF7B2FE11A3D3E90023FBF750
:1056D0002BF8134B044618680D46FAF7A7FE02464E
:1056E0000B4620462946FAF743FD00220D4BFBF7F7
:1056F0001BF8FBF701F906F0FFF881B20A0444BF7A
:1057000000F5B47189B208B2BDE8F88FAFF300803C
:10571000182D4454FB210940140C00200000E144E2
:105720005C0C00200000244010B5194C2088FBF7C9
:10573000EDF91849FBF73EFA06F0DEF8164B188033
:105740002088FBF7E3F901461448FBF7E7FA144910
:10575000FBF7E4FA134908601348B0F87400FBF74C
:10576000D5F901461148FBF7D9FAFAF75FFE06A30F
:10577000D3E90023FAF7AEFEFBF7BEF80C4A10603F
:1057800010BD00BFAFF300803B597E90A9E7814078
:1057900006000020C903683F0E0C00200AE81C41E7
:1057A00000401C46001C0020D01A0020000061446C
:1057B0001C1C0020AFF300802DE9F0410446006876
:1057C0000D460146FBF7F6F9D4F80480064641463B
:1057D0004046FBF7EFF901463046FBF7E3F8A768D0
:1057E000064639463846FBF7E5F901463046FBF7F1
:1057F000D9F806F04FF900210646FBF76FFB70B9A8
:1058000020683146FBF78AFA314628606068FBF76A
:1058100085FA31466860A068FBF780FAA860BDE8A9
:10582000F0812DE9F04F0C68836889B0D0F800A0B2
:10583000D0F804800646204603938B4606F028F8ED
:105840000746204606F098F8DBF8044081462046DB
:1058500006F01EF80546204606F08EF8DBF8082014
:1058600004461046019206F013F88346019806F0AC
:1058700083F8394602905846FBF79CF93946049064
:105880000298FBF797F9594605904846FBF792F9BD
:10589000029906904846FBF78DF92946079058462D
:1058A000FBF788F901465046FBF784F92146834609
:1058B0000698FBF77FF901460598FBF773F8014658
:1058C0004046FBF777F901465846FBF76BF821464F
:1058D00083460498FBF76EF901460798FBF760F8DA
:1058E00001460398FBF766F901465846FBF75AF85C
:1058F0003060029905F10040FBF75CF90146504623
:10590000FBF758F9214683460798FBF753F9014600
:105910000498FBF745F801464046FBF74BF9014672
:105920005846FBF73FF8214683460598FBF742F9B6
:1059300001460698FBF736F801460398FBF73AF95B
:1059400001465846FBF72EF8214670605046FBF79B
:1059500031F92946044609F10040FBF72BF90146CD
:105960004046FBF727F901462046FBF71BF839466E
:1059700004462846FBF71EF901460398FBF71AF97F
:1059800001462046FBF70EF8B06009B0BDE8F08F85
:105990001FB50B684A6889680193039101A90292B7
:1059A000FFF73FFF05B000BD80EAE073A3EBE073B3
:1059B0008B4206DB002801DD401A704702D04018F8
:1059C00070470020704700002DE9F041524B86B02F
:1059D0001A685B6802F1004203F1004301934F4BE8
:1059E0000646B3F900000092FBF790F800F1004082
:1059F000FAF71CFD46A3D3E90023FAF76BFDFAF78B
:105A00007BFF474C0290B4F90000FBF77FF803904E
:105A1000B4F90200FBF77AF80490B4F90400FBF73C
:105A200075F86946059003A8FFF7FBFE3D4B93F818
:105A30004430012B16D13C48417869B93B4C402594
:105A4000226892FBF5F7D01BFBF760F80599FAF78F
:105A5000A9FFFBF775FA2060344B4021186890FBD2
:105A6000F1F001E0324B1888FBF750F80146059839
:105A7000FAF796FF05903046FBF744F82D490746A4
:105A8000FAF790FF01463846FBF748F92A4D0746DA
:105A90002C6805982146FAF783FF01463846FBF744
:105AA00089F801462046FAF77DFF244C28601D4DF9
:105AB00007460398D4F8008005F01EFF95F83010D3
:105AC000FFF772FF08EB000204982260D4F804800C
:105AD00005F012FF95F83010FFF766FF08EB0003A2
